:020000040800F2
:10000000000003206D0600080D2500080F250008DC
:100010001125000813250008152500080000000020
:100020000000000000000000000000003184000813
:100030001725000800000000C1840008437D000867
:10004000BD060008BD060008BD060008BD06000884
:10005000BD060008BD060008BD060008BD06000874
:10006000BD060008BD060008BD060008BD06000864
:10007000BD060008BD060008BD060008BD06000854
:10008000BD060008BD060008BD060008BD06000844
:10009000BD060008BD060008BD060008BD06000834
:1000A000BD060008BD060008BD060008BD06000824
:1000B000BD060008BD060008BD060008BD06000814
:1000C000BD060008BD060008BD060008BD06000804
:1000D000BD060008BD060008BD060008BD060008F4
:1000E000BD060008BD060008BD060008BD060008E4
:1000F000BD060008BD060008BD060008BD060008D4
:10010000BD060008BD060008BD060008BD060008C3
:10011000BD060008BD06000819250008BD06000838
:10012000BD060008BD060008BD060008BD060008A3
:10013000BD060008BD060008BD060008BD06000893
:10014000BD060008BD060008BD060008BD06000883
:10015000BD060008BD060008BD060008BD06000873
:10016000BD060008BD060008BD060008BD06000863
:10017000BD060008BD060008BD060008000000001E
:10018000BD060008BD060008BD060008BD06000843
:10019000BD060008BD060008BD060008BD06000833
:0C01A00025250008BD06000831250008D8
:1001B00010B5054C237833B9044B13B10448AFF3A1
:1001C00000800123237010BD800300200000000088
:1001D000404F020808B5034B1BB103490348AFF376
:1001E000008008BD0000000084030020404F02088A
:1001F000034613F8012B002AFBD1181A0138704767
:1002000001F0FF01102A2BDB10F0070F08D010F8C7
:10021000013B013A8B422DD010F0070F42B3F6D1CB
:10022000F0B441EA012141EA014122F007047FF0E4
:1002300000070023F0E80256083C85EA010586EA3B
:10024000010685FA47F5A3FA87F586FA47F6A5FA77
:1002500087F68EB9EED1F0BC01F0FF0102F0070283
:1002600032B110F8013B013A83EA010313B1F8D12E
:100270000020704701387047002D06BF354603380F
:10028000073815F0010F07D1013015F4807F02BF48
:10029000013015F4C03F0130F0BC0138704700BF99
:1002A0007BB972B90029BEBF00204FF0004106E0C3
:1002B00008BF00281CBF6FF000414FF0FF3000F076
:1002C000D3B9ADF1080C6DE904CE002909DB002B90
:1002D0001ADB00F04DF8DDF804E0DDE9022304B09C
:1002E0007047404261EB4101002B1BDB00F040F8FE
:1002F000DDF804E0DDE9022304B0404261EB410196
:10030000524263EB43037047524263EB430300F0F6
:100310002FF8DDF804E0DDE9022304B0404261EB90
:1003200041017047524263EB430300F021F8DDF8CE
:1003300004E0DDE9022304B0524263EB430370475B
:1003400053B94AB9002908BF00281CBF4FF0FF313C
:100350004FF0FF3000F088B9ADF1080C6DE904CE24
:1003600000F006F8DDF804E0DDE9022304B0704790
:100370002DE9F047089D8E4604468846002B4AD159
:100380008A42174662D9B2FA82F64EB1C6F120030C
:1003900001FA06F820FA03F3B74043EA0808B4402C
:1003A0004FEA174E1FFA87FCB8FBFEF1230C0EFB39
:1003B000118843EA084301FB0CF29A4209D9FB1861
:1003C00001F1FF3080F0EA809A4240F2E780023982
:1003D0003B449A1AA3B2B2FBFEF00EFB102243EA92
:1003E000024300FB0CFC9C4509D9FB1800F1FF32CD
:1003F00080F0D6809C4540F2D3803B44023840EAEE
:100400000140A3EB0C0300211DB1F3400022C5E91C
:100410000032BDE8F0878B4205D90DB1C5E9000176
:1004200000210846F5E7B3FA83F1002946D1734568
:1004300002D3824200F20581841A6EEB030201208E
:100440009046002DE5D0C5E90048E2E7002A00F01B
:100450009080B2FA82F6002E40F0A4808A1A030C33
:100460004FEA174E80B2BCB20121B2FBFEFC0EFB7C
:100470001C2243EA024304FB0CF29A4207D9FB1800
:100480000CF1FF3802D29A4200F2E080C4469B1A77
:10049000B3FBFEF20EFB123340EA034302FB04F40B
:1004A0009C4207D9FB1802F1FF3002D29C4200F2B5
:1004B000CA8002461B1B42EA0C40A5E7C1F1200698
:1004C0008B4022FA06F71F430EFA01F420FA06F3D6
:1004D0002EFA06FE4FEA1749234300FA01F81FFAE5
:1004E00087FCBEFBF9F01C0C09FB10EE44EA0E443D
:1004F00000FB0CFEA64502FA01F209D93C1900F1F5
:10050000FF3A80F09C80A64540F2998002383C4436
:10051000A4EB0E041FFA83FEB4FBF9F309FB1344AA
:100520004EEA044403FB0CFCA44508D93C1903F132
:10053000FF3E80F08280A4457FD9023B3C4443EAE1
:100540000040A4EB0C04A0FB02EC64457346E146BA
:1005500062D35FD05DB1B8EB030264EB090404FA27
:1005600006F622FA01F31E43CC40C5E900640021DF
:100570004FE7B1FBF2FC010C41EA0E4180B240EAC8
:1005800001423B4638463C46B846BE462026B1FBB3
:10059000F7F1A2EB080241EA0C4166E7014618E7D1
:1005A00010462CE7C6F120022EFA02F3B740B14004
:1005B00020FA02F24FEA174E0A43B3FBFEF8BCB230
:1005C0000EFB1833110C41EA034108FB04F9B0405B
:1005D00089454FEA104380B23ED9791808F1FF3CB3
:1005E00001D289451FD8A1EB0901B1FBFEF909FB36
:1005F00004F80EFB191192B242EA0142424529D297
:10060000BA1809F1FF31C4D24245C2D2A9F10201A0
:100610003A44BEE7F0459DD2BEEB02036CEB070CFB
:100620000138E14696E7A7EB09094944A8F1020C15
:10063000B1FBFEF909FB04F8DBE773467FE75046A0
:1006400066E70846FDE63B44023A33E7ACF1020CAC
:100650003B441CE749469CE7A1EB0901C446B1FBBA
:10066000FEF909FB04F8C4E7704700BFDFF834D097
:10067000002103E00C4B5B58435004310B480C4BFA
:1006800042189A42F6D30B4A02E0002342F8043B98
:10069000094B9A42F9D304F0ADFB23F03BFD01F086
:1006A0005DF870470000032078FE0308000000207A
:1006B0006401002080030020C0420120FEE7704753
:1006C00008B500F0BBFDBDE8084000F03FBD00F0FC
:1006D000B7BD704710B50421044622F00DFB20463B
:1006E00010BD000038B50C4B0C4C18800C4B822010
:1006F00019806368984740F6110398420AD1094D62
:1007000023682C60822098472B688220DB689847FA
:10071000002038BD0120FCE7A60300204C0000208B
:10072000A4030020A80300204FF4A071F020FFF7DD
:10073000D9BF0000F7B5394D2B6804461B698220EC
:100740009847208000284ED02B680DF106025B6987
:1007500001A982209847324B1B78002B4BD0BDF863
:10076000062040F674639A423FD9ADF80630BDF8D2
:1007700006209B1A9BB20A2B42D90B22B3FBF2F341
:10078000284A1288934201D9013A93B2BDF8042055
:10079000254840F6B8318A4234D8C2F571620E322B
:1007A000016892B20F25B2FBF5F2204D2D88AA42C6
:1007B00084BF05F1FF35AAB28A4215468EB22AD906
:1007C000921B91B21A4E3768BB42BAB28CBF9A1ACA
:1007D000D21A92B211440529C4BF05603360036880
:1007E00063803368A38003B0F0BDB32A9CBFB422FA
:1007F000ADF80620BBE7BDF80630A3F5B473B9E742
:100800000023C3E7C2F56D62083292B20E2A016876
:10081000C8D800252A46891A89B2D3E7A803002040
:1008200044240020A4030020A0030020A6030020ED
:100830009C03002037B568460D461446FFF77AFF43
:10084000BDF8000030B1BDF802302B60BDF80430B7
:100850002360012003B030BD032821D8DFE800F079
:10086000020B12190F4B1A68B2FA82F252090421D4
:100870000D4805F031B90B4B5A68B2FA82F25209B1
:100880000821F5E7074B9A68B2FA82F25209102163
:10089000EEE7044BDA68B2FA82F252092021E7E768
:1008A000704700BFAC03002000100240032821D88D
:1008B000DFE800F0020B12190F4B1A68003A18BF5C
:1008C000012204210D4805F007B90B4B5A68003A84
:1008D00018BF01220821F5E7074B9A68003A18BFB4
:1008E00001221021EEE7044BDA68003A18BF01221A
:1008F0002021E7E7704700BFAC0300200010024052
:1009000003280DD8DFE800F00206080A0421054894
:1009100005F0E7B80821FAE71021F8E72021F6E70B
:10092000704700BF0010024008B5032811D8DFE867
:1009300000F0020A0C0E0421074805F0C7F8431E18
:100940005842584108BD0821F6E71021F4E720215C
:10095000F2E70020F3E700BF0010024070B5084D39
:1009600000240126E0B2FFF7DFFF18B12B68012B4E
:1009700018BF2E600134052C05F10405F2D170BDBD
:10098000AC030020012380F8781080F8793070479C
:100990007047002070470000034B4164003918BFC6
:1009A00001211970704700BF7F350120704700207A
:1009B0007047836B0BB10846184770474FF6FF70BE
:1009C0007047406803689B691847704770477047D5
:1009D0007047704710B5044600F048FD236803498E
:1009E000D3F890302046BDE810401847000000D0F2
:1009F00008B503680446D3F8843098472368204636
:100A0000DB6F984700F0ECF8236820465B6F98474F
:100A1000292001F093F900F0E3F8236820465B6F8A
:100A20009847F8E710B504460AF018FB23682046FB
:100A3000D3F8BC30BDE81040184700F0FBBC00F014
:100A4000FFBC00F031BD00F0D1BC00F041BD00F0B2
:100A500049BD00F0D5BC09F02FBD10B58421044676
:100A600022F04AF9204610BD10B590F8341090F8E5
:100A700078400C4B8C421A7809D03AB90A4A0B4993
:100A80001488088810800C8001221A7010BD002A7A
:100A9000FCD0054A05491488088810800C80002283
:100AA000F3E700BF78350120743501207635012049
:100AB00070B50D46194635B9094B0A4A0A4840F245
:100AC000FF2123F055F8C0E90F52084B003A18BF38
:100AD00001221A700368BDE87040D3F890301847BF
:100AE000B04F0208E84F0208365002087E35012058
:100AF00008B5094B1B888B4203D8084B1B889342CF
:100B000005D9074B074A0848A32123F031F8074BC2
:100B10001980074B1A8008BD7435012076350120F5
:100B20007B500208DE500208365002087A35012058
:100B30007C350120034690F87A0018B158680368A4
:100B40001B68184770470000012108B500220846BD
:100B500007F080F90A4B186028B90A4B0A4A282185
:100B60000A4823F005F800220421012007F01AFAB0
:100B7000074B186018B9074B034A2C21F0E708BD52
:100B8000C0030020215102086A510208995102084D
:100B9000BC030020CF510208024B4FF0FF31186810
:100BA00007F0A2B9C0030020014B186807F0C8B9CC
:100BB000C0030020024B0021186807F095B900BF60
:100BC000C0030020FFF7F0BF03480449006800237A
:100BD0001A4607F022BA00BFBC0300200400002020
:100BE00013B5084C00231A4601A9206807F046FAFD
:100BF00020684FF0FF33002201A907F03FFA02B04E
:100C000010BD00BFBC03002003685B6C18470120C7
:100C1000704703689B6A1847FEE740F2EF30704761
:100C2000054B0360054B4FF08062C3F88820BFF38B
:100C30004F8FBFF36F8F7047D85C020800E100E070
:100C400010B504464FF45A61FFF7EAFF204622F040
:100C500053F8204610BD000082B0002301930E4BD4
:100C60001A6B42F400021A631A6B02F4000201923A
:100C7000019A1A6942F400021A611A6922F4000208
:100C80001A61064B064A1A61064A5A61064B4FF032
:100C900080629A6002B0704700380240242600202B
:100CA000F90E0008190C000800E100E008B50A2858
:100CB00009D8DFE800F006100E0808080810101028
:100CC0001000022008BD054B054A0648902122F07D
:100CD0004FFF0020F6E70120F4E700BF11520208A1
:100CE0002C5202087752020838B50C46887FFFF76D
:100CF000DDFFA58AE28A164B2169586342EA054264
:100D00005A64628BD963521B1A642568082D0ED170
:100D10009A611A615862207F0E4A42EA0062DA61E3
:100D2000E2681A620C4A5961D9601A6038BD002223
:100D3000D8611A61E1680A0A480902F4784200F4AD
:100D4000FC600243C1F3C4010A439A63034AECE71F
:100D500000B002400900010001230200012303004A
:100D600008B50B280BD8DFE800F00612100A0A0AB3
:100D70000A0808080808022008BD0520FCE7054B02
:100D8000054A06486F2122F0F3FE0020F4E7012017
:100D9000F2E700BF11520208AB5202087752020874
:100DA0002DE9F04191F81D800C464046FFF7D8FF31
:100DB000A77F05463846FFF7D3FF06463846FFF7BC
:100DC00075FFA18A628B444B521A1A649A61228B76
:100DD000521A1A61E28A586342EA01425A6421694E
:100DE0006268D963DA602068802828D0227F0FD813
:100DF000202867D0402865D004281AD0364B45EA11
:100E0000026545F40035B845DD6161D0334A44E000
:100E1000B0F5807F04D0B0F5007FEFD1304800E01E
:100E2000304840EA0262DA61E2681A625E62596141
:100E300032E045EA026242F40032DA61F6E7A06885
:100E4000021DDA62227F45EA026545F40035DD6164
:100E50005E625961017841B1012921D0224B234AB8
:100E600023484FF48D7122F083FEDA69418822F421
:100E70007F42013922F0100242EA0122DA610121A7
:100E8000154BDA6942F02002DA61DA699206FCD485
:100E900010229A600029B9D0164A1A60BDE8F08184
:100EA000B2F1FF01DA69408822F47F4200F1FF309D
:100EB00022F0100242EA002242F0100218BF012183
:100EC000DA61DDE745EA0262034B42F40032B4E73F
:100ED00042F20132E1E700BF00B00240012301000D
:100EE000090002000A000200F55202080F5302082E
:100EF0007752020801230200024B1B6858680368FE
:100F00005B6918478035012070B5044625460A4BB9
:100F10000C30002660602672667245F8203B602225
:100F200029460AF0F1F904F55A63EE6024359D4232
:100F3000FBD1204670BD00BFD85C0208034B1A6885
:100F4000D207FCD423229A60704700BF00B0024051
:100F50007047000030B50F4C2568ED07FCD4232501
:100F60000904A56041F001010225FF2B656361645E
:100F7000E0630AD00849656241EA0363E361074B15
:100F800022626061E060236030BDE561039BA36382
:100F9000034BF8E700B00240090001000100020025
:100FA0000100030030B50E4C2568ED07FCD4232565
:100FB0001204A56042F001020225FF2B6563626402
:100FC000E063E16008D01B0643F00213E361054BC8
:100FD00065626061236030BD034BE3610123F9E783
:100FE00000B0024001000200020002FF30B50B4CCD
:100FF0002568ED07FCD4232512041B06A56043F4E5
:101000000033022542F0010265636264E063E1603F
:10101000E361034B65626061236030BD00B0024054
:1010200001000200012070470C2070470C2303FBD5
:101030000100083070470C2303FB010008307047A3
:101040000120704740F63470704740F6347303FB5C
:1010500001000830704740F6347303FB010008308C
:101060007047012070471020704700EB01100830D6
:10107000704700EB011008307047084601F0FABCD9
:1010800010B5034B0360044608F06DFF204610BD09
:10109000905D020810B50446FFF7F2FF20461421C8
:1010A00021F02AFE204610BD10B5034B0360044614
:1010B00008F059FF204610BD5C5D020810B50446DB
:1010C000FFF7F2FF204640F63C7121F015FE204666
:1010D00010BD000010B5034B0360044608F043FF49
:1010E000204610BD285D020810B50446FFF7F2FF48
:1010F0002046182121F000FE204610BD10B5084BF7
:101100000360044600F66870FFF7BAFF04F12C0094
:10111000FFF7CAFF04F11400FFF7DCFF204610BD03
:10112000C45D020808B50248FFF7E8FF08BD00BF2C
:101130009C12002010B50446FFF7E0FF204641F264
:10114000DC0121F0D9FD204610BD00002DE9F3415E
:1011500001F062FA054601F063FA002401462346D5
:1011600028462246009412F015FD274B274A1A60A4
:10117000204602F099FF264D264B274A27489A60C1
:1011800012F070FC2B68BFF35B8FDB0735D4284669
:1011900021F0B4FD88B3224C224B236004F578661D
:1011A00004F1140004F12C0804F668776060C4F8B8
:1011B0000880E760266108F0D7FE1B4B636140465C
:1011C00008F0D2FE194BE362384608F0CDFE184B0A
:1011D000C4F8683F04F67C7002F0EAFF224604F689
:1011E0007C71304602F0DAFF304601F043FC1148D2
:1011F00022F0DCFC284621F08DFD0F4802B0BDE84E
:10120000F041FFF7E7BB00BFE435012048040020B0
:1012100098120020680400204C04002008000020E0
:101220009C120020C45D0208285D02085C5D020873
:10123000905D020825110008C403002070470000DB
:101240000148FFF7D5BB00BFC403002070B5264E90
:10125000264C274D274B23603046FFF755FE284686
:1012600017F09EFD244810F0A5F9244B2448DC60BB
:1012700000224FF48071C3E9121222491A86C3E991
:101280001A12214983F85820C3E91E011F49C3F8E7
:1012900080101F491F480B60F021C3E90422C3E9F5
:1012A0000622C3E90822C3E90A22C3E90E22C3E9E0
:1012B0001022C3E91422C3E917225A6683F870206A
:1012C0005A67C3E9016501801348018013484FF450
:1012D000A07101801248018012490A70012283F82E
:1012E0003420114A1A6070BDF404002094120020CA
:1012F00068040020A04F02084C040020C403002012
:101300000000010101000001000450001A00140057
:1013100080350120743501207A3501207635012091
:101320007C35012078350120EC5B02080148FFF78D
:1013300077BC00BFF4040020002070478180704714
:10134000C180704701817047418170477047704785
:1013500070477047704710B4C4880368121B8488B4
:101360005B6D091B12B25DF8044B09B218474FF6CA
:10137000FF7383814FF0FF3303621368C361106012
:101380007047002070478B8883800120704770472A
:1013900080F82610704790F82600704710B500229C
:1013A000B1F90840B1F90A10028042808480C180FE
:1013B00010BD0022028042808280C2807047017787
:1013C000704780ED080A704780F82410704780F855
:1013D0002510704701207047983070478C30704757
:1013E000843070477047704770470000034B90226D
:1013F00083F85A2383F85823704700BF00E100E0C8
:10140000094A0A49D3680A48C3F30A03013B9BB25D
:101410000B801169C1F30A01013901801364536B18
:1014200043F0010353637047006801407A230020B2
:1014300078230020014BD3F8AC00704700680140CE
:10144000024B0122C3F8AC105A6270470068014099
:1014500010B52C21044621F04FFC204610BD10B5DC
:10146000BC21044621F048FC204610BD70B504465E
:1014700009F077F823689D6E0EF034FE0146204691
:10148000A8472368054AD3F88C502046AC46002371
:10149000BDE87040A2F51631604700BF00B004D02F
:1014A00009F046B809F050B809F00CB809F07BB95A
:1014B00090F8252012B103685B691847704790F8CF
:1014C00025201AB190F8242002B11860704700005E
:1014D000034B4FF080629A604FF080729A607047C1
:1014E00000E100E0084B4FF08062C3F88820BFF3B2
:1014F0004F8FBFF36F8F4FF08072C3F88820BFF318
:101500004F8FBFF36F8F704700E100E070B500238D
:10151000124E8380124B0360336893F858200546BF
:101520000AB1D86C00B998680368DB6A98473368D9
:10153000B0FA80F4D86C640930B10368DB6A98476C
:10154000002808BF44F001042CB9064B064A07489E
:101550002C2122F00DFB284670BD00BF80350120F4
:10156000D85D02084D530208AB530208E453020849
:1015700070B5254E3568BFF35B8F15F0010540D17E
:10158000304621F0BBFB00283BD0204C204B25618E
:1015900004F13400C4E90035C4E90255E584A562CC
:1015A000A58510F0ECFA04F158000BF061FB194B23
:1015B000A3652046184B40F8843BFFF7A7FF174B65
:1015C000C4F884302433C4F88C304FF4C803C4E921
:1015D00028350023C4F8AC30C4F8B030C4F8B430B7
:1015E000C4F8B8300E480F4BC4F89050C4F89C5063
:1015F000C4F8A850C4F8983022F0D8FA304621F048
:1016000089FB024870BD00BF7C230020802300209E
:10161000C0640208F85D0208705E02087464020883
:10162000E91300085464020838B5184C23685BB30A
:10163000174B184A1B6C11888B4216D1164B198810
:1016400005F052F8236893F86A200025013283F8E8
:101650006A2083F87C50FFF7B7FA206809F0FEFC97
:101660002846BDE83840FFF7F7B805F03DF8246894
:10167000236820461B6A9847012384F87C300020A9
:10168000BDE83840FFF712B938BD00BF80350120F2
:10169000006801407A2300207823002007B5064B1C
:1016A000ADF806001B68054801220DF1060105F0A2
:1016B000CBFD03B05DF804FB0C000020D02400201B
:1016C00030B595B0102200210AA822F07AFC14222D
:1016D000002103A822F075FC00241E4B01941A6C13
:1016E00042F080521A641B6C03F080530193019BFB
:1016F000194B02941A6842F440421A601B6803F4C2
:10170000404302930122029B4FF48033CDE908232A
:1017100002254FF480030821CDE90E534FF4B47332
:10172000CDE9101308A804231393129505F034F89B
:1017300004F0F8FF0F23CDE903354FF4A0504FF428
:101740008053CDE90603052103A8059405F000FAAE
:1017500015B030BD00380240007000402DE98048CF
:101760009BB003F055FBFFF7ABFF142200210DA83F
:1017700022F027FC0024C94B00941A6BC848C94DBD
:1017800042F010021A631A6B02F010020092009AE3
:1017900001941A6B42F020021A631A6B02F02002C5
:1017A0000192019A02941A6B42F080021A631A6B3A
:1017B00002F080020292029A03941A6B42F0040231
:1017C0001A631A6B02F004020392039A04941A6BD0
:1017D00042F001021A631A6B02F001020492049AA9
:1017E00005941A6B42F002021A631A6B02F00202AD
:1017F0000592059A06941A6B42F040021A631A6B1E
:1018000002F040020692069A07941A6B42F0080210
:101810001A631B6B03F00803224607933C21079BC6
:1018200004F05AF9A0480122022104F055F9224699
:101830009D48042104F050F922469C484FF4405141
:1018400004F04AF901263C23CDE90D3694480F9463
:1018500003230DA90227109304F054F892480DA910
:10186000CDE90D76CDE90F4404F04CF804238E4801
:101870000DA9CDE90D36CDE90F4704F043F88C48AA
:101880000F940DA9CDE90D6404F03CF84FF44053DA
:1018900086480DA9CDE90D36CDE90F4704F032F8A1
:1018A0000DA983480F94CDE90D6404F02BF881480D
:1018B000814B036003F054FDDFF820C27F4B2C62A4
:1018C000C5E900C328464FF48043C5E90434C5E99F
:1018D0000244C5E9064404F00DFB1021284604F03B
:1018E00051FD2146284604F06CFD754DDFF8F0E10E
:1018F000AC624FF48273C5E900E34FF4007818231B
:10190000C5E9068328460A23C5E90244C5E904441B
:10191000C5E90844EB6205F03BFC8F2322463946BB
:1019200061488DF824308DF8344004F0D5F8324603
:101930004FF47A7309A9284605F086FC4FF47A73B0
:1019400032460DA9284605F02BFE32463946564848
:101950005C4D04F0C1F89DF83430D32B04BF5A4BD2
:101960001E705A4B01261027C5E90036402300247B
:10197000C5E904734FF4C073C5E906344FF400633E
:10198000C5E908344FF400534FF002084FF0040A41
:101990004FF0030BAB620DA907232846CDE90FA337
:1019A000CDE90D834FF00809C5E9024ACDE911B828
:1019B000CDF84C8005F0D0FA4FF6FF7209A9284601
:1019C000CDE90A96089409960C9405F0E5FA30469C
:1019D00003F04AFA4FF6FF7209A92846CDE90989B2
:1019E000CDE90B6405F0D8FA4FF6FF7209A9284635
:1019F000CDE909B9CDE90BA405F0CEFA4FF40C738B
:101A00000893089B0C934FF6FF7209A92846CDE96D
:101A100009A90B9605F0C0FA40F26A51284605F074
:101A2000D9FA342221460DEB020022F0CAFA284DE1
:101A3000284B2C61C5E900340923C5E905361D236F
:101A4000C5E9073B40F20D1240F24313C5E90923F3
:101A500040F2171140F247132846C5E90B13C5E9B8
:101A60000244AC8685F8364004F046FDFF21F022A2
:101A7000CDE912144FF005094FF480614FF4A073C3
:101A8000CDE90E24CDE91419CDE916420DA922465F
:101A90002846CDE91038104D189323E00038024055
:101AA00000100240D025002000080240000C024037
:101AB000000002406426002000300240A0860100A1
:101AC000D02400205424002044240020400100A001
:101AD00028250020006801403C240020005C0040D4
:101AE000005001400D94ADF864408DF8664004F05C
:101AF000CEFD444B2B601B68DFF84CA198472B6848
:101B0000414DDB689847414B2846C5E90034C5E99B
:101B10000284C5E90A48C5E90C4403F031FC3146AA
:101B2000284603F0E3FC3A4D3A4621460DA822F040
:101B300048FA384BAC604FF4803B2846C5E9003B7F
:101B40002C612C7685F82040EC62C5F828A0EC606A
:101B5000EE6185F830406E6103F09AF90D230DA90E
:101B60002846CDE90D362C4D0F9403F00BFB3A4679
:101B700021460DA822F025FA284BAC602846C5E97D
:101B8000003BC5E90AA42C612C7685F82040EC6066
:101B9000EE6185F830406E6103F07AF90DA92846B0
:101BA000CDE90D961E4D0F9403F0ECFA1D484FF44D
:101BB000E133C0E900530C23C0E90534C0E9024415
:101BC0000461C46105F0A8FFFEF77AFDFEF777FD1A
:101BD00006F0C4F8144A4146384606F0E3F9134BC0
:101BE000134A18602146134806F0E4F8124B134AD2
:101BF00018602146124806F0DDF8124B186006F016
:101C0000BFF8FEE7140000202426002000B00240A8
:101C1000B4260020002001406C2600200021014055
:101C20000010014088240020B45E020840240020F7
:101C3000F05E02082D1E00084C240020CC5E020835
:101C4000CF060008482400200100000F70477047AD
:101C50007FB5094B8DF817201B6802930DF1170211
:101C60000123009201930A460146044804F0EAF970
:101C700007B05DF804FB00BF10000020D025002055
:101C80007FB500238DF81730084B1B6802930A4676
:101C900001230DF11701009101930146044804F05E
:101CA00061FA9DF8170007B05DF804FB10000020F2
:101CB000D02500201FB5084C24680092CDE90134DE
:101CC0000A4601230146054804F04CFA003818BFC3
:101CD000012004B010BD00BF10000020D02500205E
:101CE00003F0C2B810B5064C00222046042103F0D0
:101CF000F3FE20460122BDE81040042103F0ECBEB3
:101D00000008024038B50B4D044601220A484FF442
:101D1000005103F0E1FE00220421284603F0DCFE1E
:101D20002046FFF7BBFC28460122BDE838400421CD
:101D300003F0D2BE00080240000C024038B50B4D43
:101D4000044600220A484FF4005103F0C5FE002269
:101D50000421284603F0C0FE2046FFF79FFC2846DA
:101D60000122BDE83840042103F0B6BE000802405D
:101D7000000C0240F7B5144E144F05460C46304691
:101D80000022042103F0A8FE00224FF4005138463F
:101D900003F0A2FE2846FFF781FC0D4B0D481B689F
:101DA000224601A905F0FCFB384601224FF4005100
:101DB000019C03F091FE30460122042103F08CFEC9
:101DC000204603B0F0BD00BF00080240000C0240F6
:101DD0000C000020D024002003F046B8A1F2A56238
:101DE00010B592B240F25624A0F2A563A2429BB273
:101DF00006D9B1F57A7F11D340F6B83291420FD8A7
:101E000040F2562293420DD9B0F57A7F0CD340F6BA
:101E1000B83398428CBF5220002010BD5520FCE7FB
:101E20004420FAE70020F8E74C20F6E72DE9F041DE
:101E3000224E234F8AB04FF00008304603F0CEF810
:101E4000384603F0CBF80A21304603F045F90A2161
:101E5000384603F041F9304603F091F9044638461C
:101E600003F08DF9A2B283B21649054602A822F00A
:101E700043F802A8FEF7BCF9642382B202A9124813
:101E800005F079FEA0B2A9B2FFF7A8FF04468DF8CD
:101E9000070060B140450BD00C4800231A4600688B
:101EA0000DF1070106F0B9F89DF8073003B90024D9
:101EB000322005F0C3FFA046BFE700BFB4260020D4
:101EC0006C2600204654020888240020402400206C
:101ED0000268034B9A4201D102F0B4BF704700BFC1
:101EE000001000407047000082B00E4B00220092AC
:101EF000596C41F480415964596C01F4804100915E
:101F000000990192196C41F0805119641B6C03F027
:101F100080530193019B0F216FF0010002B003F089
:101F2000DFB900BF0038024010B514228AB0044661
:101F300000210DEB020022F044F82368214A93426D
:101F40001FD1214B2148002101915A6C42F480722B
:101F50005A645A6C02F480720192019A02911A6BCF
:101F600042F004021A631B6B03F00403029308217E
:101F7000029B0323CDE9051305A903F0C3FC0AB0B6
:101F800010BD134A9342FAD10F4B1248002103911E
:101F90005A6C42F400725A645A6C02F40072039252
:101FA000039A04911A6B42F001021A631B6B03F04F
:101FB00001030493049B20220323CDE9052305A9F3
:101FC000DBE700BF0020014000380240000802406B
:101FD00000210140000002400268094B9A4282B091
:101FE0000BD100230193074B1A6B42F480521A6302
:101FF0001B6B03F480530193019B02B0704700BF39
:10200000003002400038024007B50F4B02689A4288
:1020100016D10022A3F5F0430192196B41F400019F
:1020200019631B6B03F40003019305215A20019BE4
:1020300003F056F95A2003B05DF804EB03F082B9BF
:1020400003B05DF804FB00BF00B002402DE9F0438F
:10205000044689B01422002103A821F0B2FF2268AF
:10206000244B9A4243D1244C244800250095236BED
:1020700043F004032363236B03F004030093009BEA
:102080000195236B43F001032363236B03F00103EA
:102090000193019B4FF012094FF400734FF00108B8
:1020A0000327042603A9CDE90339CDE9058707965F
:1020B00003F028FC4FF480731148079603A9CDE97B
:1020C0000339CDE9058703F01DFC0295236C43F429
:1020D00000032364236C03F400030293029B236A2E
:1020E00043F400032362236A23F40003236209B04C
:1020F000BDE8F083005C0040003802400008024068
:1021000000000240F0B599B004461422002107A84F
:1021100021F057FF30220DEB0200002121F051FF8A
:1021200022685E4B9A4240F0B78008230C93C0238C
:102130001093042312930CA84FF40033159304F06A
:10214000DFFD08B1FFF7CEFE554B56480024009442
:102150005A6C42F080625A645A6C02F080620092BB
:10216000009A01941A6B42F020021A631A6B02F073
:1021700020020192019A02941A6B42F001021A6342
:102180001A6B02F001020292029A03941A6B42F057
:1021900002021A631A6B02F002020392039A049479
:1021A0001A6B42F040021A631A6B02F0400204926A
:1021B000049A05941A6B42F004021A631A6B02F037
:1021C00004020592059A06941A6B42F008021A63FB
:1021D0001B6B03F00803069302250E26069B0B9645
:1021E0004FF4806307A9CDE90735CDE9094503F030
:1021F00089FB41F658032C480B9607A9CDE9073512
:102200000927CDE9094503F07DFB032327480B97F8
:1022100007A9CDE90735CDE9094503F073FB4FF474
:10222000706322480B9607A9CDE90735CDE909452A
:1022300003F068FB4FF40C631D480B9607A9CDE92A
:102240000735CDE9094503F05DFBC02319480B961E
:1022500007A9CDE90735CDE9094503F053FB08236C
:1022600015480B9607A9CDE90735CDE9094503F0D7
:1022700049FB4FF4A0530E480B9707A9CDE907354A
:10228000CDE9094503F03EFB58202246052103F025
:1022900027F8582003F056F819B0F0BD0068014047
:1022A00000380240001402400000024000040240D6
:1022B0000018024000080240000C024010B504461D
:1022C00088B01422002103A821F07BFE2268144B61
:1022D0009A4223D103F56843002101915A6C1148B9
:1022E00042F480125A645A6C02F480120192019AEC
:1022F00002911A6B42F020021A631B6B03F0200359
:102300000293029B4FF4607202230321CDE9032361
:102310000523CDE9061303A903F0F4FA08B010BDB4
:10232000005001400014024010B5044688B0142249
:10233000002103A821F045FE2268144B9A4223D1C4
:1023400003F59433002101915A6C114842F01002B8
:102350005A645A6C02F010020192019A02911A6BAF
:1023600042F001021A631B6B03F001030293029B0C
:102370004FF4C06202230321CDE903230723CDE9F3
:10238000061303A903F0BEFA08B010BD0010014007
:10239000000002402DE9F04186B0002303932B4B4F
:1023A0001C68002C4FD14FF00108C3F80080284B67
:1023B00000949A6B274842EA08029A639B6B03EAEF
:1023C00008030093022703260C25009B01A94FF662
:1023D0003F03CDE90137CDE9046503F093FA1E48C8
:1023E000059501A9CDE90187CDE9034603F08AFAF5
:1023F00048F233131948059501A9CDE90137CDE914
:10240000034603F07FFA4FF683731548059501A93B
:10241000CDE90137CDE9034603F074FA4CF20373BA
:102420001048059501A9CDE90137CDE9034603F030
:1024300069FA60230C48059501A9CDE90137CDE97A
:10244000034603F05FFA06B0BDE8F081FC260020E9
:102450000038024000140240000802400018024008
:1024600000100240000C02400004024070B588B029
:1024700000230293204B1A6C42F010021A641B6C6A
:1024800003F010030293054601A903A8029B04F080
:1024900019FC069B4BBB04F0F5FB184E184B336040
:1024A00040F2E733F360174BB0FBF3F3013B73608B
:1024B000304600233361B360B36105F041FA04464E
:1024C00080B9304605F012F9044658B9362002F0BA
:1024D00039FF0F2D0DD822462946362002F000FF85
:1024E000094B1D60204608B070BD04F0CBFB4000D6
:1024F000D3E70124F6E700BF0038024000270020A0
:102500000010004040420F007C0000207047FEE7B2
:10251000FEE7FEE7FEE77047014805F025B900BF7A
:1025200000270020014804F055B800BF28250020EE
:10253000014802F051BF00BF24260020012070474F
:1025400008B521F0E1FD162303604FF0FF3008BD10
:1025500008B521F0D9FD16230360FEE770B50D46DE
:1025600014460E46731B9C4201DC204670BDAFF33F
:10257000008006F8010BF5E770B50D4614460E46CF
:10258000731B9C4201DC204670BD16F8010BAFF3B3
:102590000080F5E74FF0FF3070474FF400534B6079
:1025A0000020704701207047002070470A4A1168D8
:1025B00008B5034609B90949116010686946034422
:1025C0008B4206D921F0A0FD0C2303604FF0FF30B1
:1025D00008BD1360FCE700BF48270020C04201206F
:1025E000704710B50421044620F086FB204610BD3C
:1025F000012908B506D0022908D059B901F0A0FD7B
:10260000006808BD01F09CFD4068FAE701F098FD04
:102610008068F6E70020F4E700487047285F02086A
:102620000220704713B5002451B1036801948DF85E
:10263000034001AA9C680DF10303A04702B010BD3E
:102640000846FBE7C0897047008A7047C08870471A
:1026500080887047807A00F07F007047807AC009D8
:1026600070470020704700009FED010A704700BFCF
:1026700000000000704710B50821044620F03CFB24
:10268000204610BD7047704700F598730868496888
:1026900003C3704770477047416070477047704789
:1026A000064BC0F84C310023C0F8503100F5A2733E
:1026B000C0F84801C0F84031704700BFAD2800089D
:1026C000012303727047704710B4C2684168541008
:1026D000034601EB6200D20748BF0A599B685DF8C8
:1026E000044B48BFD35818470346406830B19A6836
:1026F0001AB9D86800F0010070470120704710B582
:102700000C21044620F0F8FA204610BD10B5102127
:10271000044620F0F1FA204610BD10B54FF4AE711A
:10272000044620F0E9FA204610BD10B50DF0DAFCA1
:102730000368BDE81040DB6B184710B50446D0F8BD
:10274000400158B10368DB68984738B1D4F84001BC
:1027500003689B6898470023C4F8403110BD00000F
:102760002DE9F14FD0E9556A0746B06803681B6A46
:10277000984740F63373984205D8444B444AA32106
:10278000444821F0F5F9706803681B6A98470F28E0
:1027900003D8414B3E4AA421F2E7F06803681B6A64
:1027A00098470B2803D83D4B394AA521E8E70DF09F
:1027B00099FCDFF8F09004300DF0B9FCD9F8000076
:1027C00010B10368DB689847D9F8000010B10368BE
:1027D0001B689847DFF8D080D8F8000010B1036874
:1027E0005B699847D7F83C0110B103685B6898476C
:1027F000D8F8000010B103681B689847D7F83C016F
:1028000010B103689B689847F068036800215B6A11
:1028100098474FF0000B224BC0F804B0044680F8F4
:1028200008B00360B068036859465B6A984705467C
:1028300001F02CFD7068036859465B6A9847294689
:10284000064601F001FD331DC7F83C61C9F80040A0
:10285000C8F80050CAF800302B68C6F808A028460F
:10286000DB68EE639847336830461B68984721461B
:1028700028460FF0E7FD236820461B699847236828
:102880005B69204601B0BDE8F04F1847705402085C
:10289000FE540208D055020817560208BA5602081C
:1028A000D45F0208C8350120C43501202DE9F14F5D
:1028B000D0E9556A0746B06803681B6A9847EF2855
:1028C00005D8444B444AA321444821F051F970688B
:1028D00003681B6A98470F2803D8414B3E4AA4213E
:1028E000F2E7F06803681B6A98470B2803D83D4B52
:1028F000394AA521E8E70DF0F5FBDFF8F090043048
:102900000DF015FCD9F8000010B10368DB6898479A
:10291000D9F8000010B103681B689847DFF8D08031
:10292000D8F8000010B103685B699847D7F83C01FC
:1029300010B103685B689847D8F8000010B10368CD
:102940001B689847D7F83C0110B103689B6898470B
:10295000F068036800215B6A98474FF0000B224B38
:10296000C0F804B0044680F808B00360B06803689B
:1029700059465B6A9847054601F04CFC706803684D
:1029800059465B6A98472946064601F023FC331DE9
:10299000C7F83C61C9F80040C8F80050CAF80030D8
:1029A0002B68C6F808A02846DB68EE6398473368B2
:1029B00030461B689847214628460FF043FD2368A0
:1029C00020461B69984723685B69204601B0BDE833
:1029D000F04F1847705402085D570208D05502089E
:1029E00017560208BA560208D45F0208C8350120FB
:1029F000C4350120044B1B6893F858200AB1D86CE9
:102A000000B99868704700BF80350120F8B51746B7
:102A100004460E460DF028FC124B1C60124B23603E
:102A2000124B0025C4E95135114BC4E953551868C0
:102A3000036801219B68C4E94F55C4E9557698475E
:102A4000284601F031FBFFF7D5FF18F052F8FFF7E9
:102A5000D1FF18F0C9F8FFF7CDFF18F0D1F82046E4
:102A6000F8BD00BFD4350120805F0208685F02080E
:102A700080350120064BC0F84C310023C0F850319E
:102A800000F5A273C0F84801C0F84031704700BF9C
:102A9000AD280008064BC0F84C310023C0F8503177
:102AA00000F5A273C0F84801C0F84031704700BF7C
:102AB00061270008406A7047806A704770478A88BB
:102AC0000B8810B5D20A4C88C1699BB251F822001C
:102AD00043EA0443184410BD10B50446BAB1107B54
:102AE00068B1537BD27A1B0203F4E0631A43236A72
:102AF00003EB82031A888A4202D193F9020010BDC7
:102B000005D8013880B204330028F3D1F7E700205C
:102B1000F5E710B52C21044620F0EEF8204610BD54
:102B200030B58BB00446BDF860500895BDF85C50D8
:102B300007959DF8505006959DF84C5005959DF8C9
:102B4000485004959DF8445003959DF840500295D7
:102B50009DF83C500195BDF8385000950FF0CCF829
:102B6000064B2360159BE361169B2362199B6362EE
:102B70001A9BA36220460BB030BD00BFF85F02086D
:102B8000704770477047704770477047704770478D
:102B900030B4C26844685510034604EB6200D207A3
:102BA00048BF62599B6830BC48BFD358184703469A
:102BB000406830B19A681AB9D86800F001007047CF
:102BC0000120704710B51021044620F095F82046EA
:102BD00010BD10B5F021044620F08EF8204610BD3F
:102BE0009830884208B505D10DF07CFABDE8084060
:102BF000FFF750BF08BD70B5036804461B6B154650
:102C000098472368294620465B6BBDE8704018470B
:102C100070B504461D46BDF91060FFF7ECFF236850
:102C2000294620469B6B9847236831462046DB6B3C
:102C3000BDE8704018470000094A02604FF48071F7
:102C400000228184FF21C0E90122C0E90322C0E9FA
:102C50000522C0E9072280F826108262704700BF73
:102C600014660208F8B5194B018F1B888B42064683
:102C70002AD9174B1B682BB9164B174A17486C21DA
:102C800020F076FF13F81120154B1B6853F82250E3
:102C9000144B186801F044FA2B6807469B6B2846D2
:102CA00098472B6804469B6C3946284698472B6802
:102CB00014FB00F45B6A394628469847A4B22318EF
:102CC0001BB2A6F84630F8BD0023FAE7DC35012038
:102CD000D83501202F58020871580208AC58020854
:102CE000E0350120E43501202DE9FF470446274661
:102CF00000250FF0FBF92E4BE56347F8403B04F14C
:102D00006C093846FFF798FF04F198064846FFF72C
:102D100093FF30460AF03AFE264BC4E93834264B7E
:102D20004FF4A07AC4E93A352A4629463846CDF808
:102D300000A0F023FFF76CFF04F104084FF07F437D
:102D4000A3663946404607F021F94FF0FF37F023DC
:102D50002A4629464846CDF800A0FFF759FF4946C4
:102D60004046C4F8947007F011F929463046D22243
:102D7000FFF741FF03AA02A901233046ADF80C304A
:102D8000ADF808500AF077FB1623A4F8D03030468F
:102D9000FFF768FF04F1E0034046C4E93577C4F863
:102DA000C030314607F0F2F8204604B0BDE8F087A5
:102DB0007860020860600208E12B0008806A7047B2
:102DC00030B5036885B06D460181D3F88430014683
:102DD00004462846984795E807003C3484E80700F5
:102DE00005B030BD30B5036885B06D464181D3F87C
:102DF0008430014604462846984795E807003C344D
:102E000084E8070005B030BD002202804280828045
:102E1000C280704780F83610704770B5036804466A
:102E20001B6B154698472368294620465B6EBDE814
:102E30007040184700207047806C7047704770479B
:102E4000704770477047704770470368DB6A1847E0
:102E500090F82C304BB100F16C021268C2653BB1A6
:102E600000F174031B680366704700F16802F4E721
:102E700000F17003F6E730B4C268446855100346A9
:102E800004EB6200D20748BF62599B6830BC48BF60
:102E9000D35818470346406830B19A681AB9D868C1
:102EA00000F0010070470120704790F82D3080F845
:102EB0005A30704710B54C2104461FF01DFF2046C4
:102EC00010BD10B5782104461FF016FF204610BD36
:102ED00010B5102104461FF00FFF204610BD10B59D
:102EE00040F6885104461FF007FF204610BD08B584
:102EF000FEF7DEFA08BD10B50446006B50B103685A
:102F0000DB68984730B1206B036821469B68BDE8B9
:102F10001040184710BD0B7970B590F82C6004462E
:102F20000D460BB916B170BD002EFCD0B3FA83F379
:102F30005B0984F82C3023682046D3F88C309847FE
:102F4000236820465B699847002EECD02B79012B33
:102F5000E9D123682046D3F88830BDE8704018478F
:102F6000036870B55E6B124B1B6804468DB22BB9BB
:102F7000104B114A6C21114820F0FAFD1049828D46
:102F80000988914203D80F4B0B4A6D21F3E713F8E0
:102F900012200D4B1B6853F8220003681B6B9847E7
:102FA000291A3346204609B2BDE87040184700BFD1
:102FB000D83501202F58020871580208AC58020871
:102FC000DC350120F3580208E035012000F1C4038C
:102FD000994270B504460D4603D10DF083F8FFF712
:102FE00049FD04F65C439D4205D1236820461B6BD6
:102FF000BDE87040184770BD074A02600022C0E972
:103000000122C0E90322C0E90522C0E907224FF4EA
:1030100080728284704700BFBC67020810B5044606
:10302000FFF7EAFF024B23600023A362204610BD96
:103030009463020800224FF0FF31C0E90021826052
:10304000704710B50446FFF7F5FF204610BD00009D
:1030500010B500210446262220F0B3FF2046FFF7DA
:10306000CBFF094B2360094BA3624FF6FF73A38587
:103070004FF47F020023C4E90C32238704F13C00A3
:10308000FFF7D8FF204610BD84650208585F02088C
:1030900010B50446FFF7DCFF024B23600023A36456
:1030A000204610BDAC60020870B50446FFF7B6FFBD
:1030B0004FF47F432646A3850123002584F824305E
:1030C0000D4B256346F8343B3046FFF7B5FD0B4BFF
:1030D00063632A4629463046C4E91A55C4E91C559B
:1030E0002566A4F86450FFF786FD2046314606F0B9
:1030F0004DFF204670BD00BF3C6102087C6602089F
:103100002DE9F04F0446C1B025464FF000080EF0FF
:10311000EDFFDD4BC4F83C8045F8403B04F16C0901
:103120002846FFF789FD4846FFF786FD04F198031E
:1031300004F1C40B184604F59E761793FFF77CFD47
:103140005846FFF7B1FF3046FFF782FF04F5C27320
:1031500018461893FFF762FF04F5D87318461993C1
:10316000FFF75CFF04F5EE7318461A93FFF756FF5E
:1031700004F5027318461B93FFF750FF04F50D7317
:1031800018461C93FFF74AFF04F5187318461D9361
:10319000FFF744FF04F5237318461E93FFF73EFF25
:1031A00004F52E7318461F93FFF738FF04F53973A3
:1031B00018462093FFF740FD04F544731846219309
:1031C000FFF72CFF04F54F7318462293FFF726FFF5
:1031D00004F55A7318462393FFF720FF04F565732F
:1031E00018462493FFF71AFF04F5707318462593C9
:1031F000FFF714FF04F57B7318462693FFF70EFFC5
:1032000004F5836318462793FFF708FF04F244434D
:1032100018462893FFF702FF04F58E63184629939A
:10322000FFF70AFD04F29C4318462A93FFF704FDBA
:1032300004F5996318462B93FFF7FEFC04F2F44360
:1032400018462C93FFF7F8FC04F5A46318462D9359
:10325000FFF7F2FC04F24C5318462E93FFF7ECFCF8
:1032600004F5AF6318462F93FFF7E6FC04F2A4536E
:1032700018463093FFF7E0FC04F5BA631846319323
:10328000FFF7DAFC04F2FC5318463293FFF7D4FC44
:1032900004F5C56318463393FFF7CEFC04F254637C
:1032A00018463493FFF7C8FC04F5D06318463593ED
:1032B000FFF7C2FC04F2AC6318463693FFF7BCFC80
:1032C00004F5DB6318463793FFF7B6FC04F204738A
:1032D00018460493FFF7DCFE04F5EA6318460593ED
:1032E000FFF7D6FE04F29C7318460693FFF7D0FE54
:1032F00004F5FD6318460793FFF7CAFE04F634038E
:1033000018460893FFF7C4FE04F5086318460993AE
:10331000FFF7BEFE04F6CC0318460A93FFF7B8FE8B
:1033200004F6181318460B93FFF7B2FE04F6641365
:1033300018460C93FFF7ACFE04F51B6318460D937B
:10334000FFF7A6FE04F6FC1318460E93FFF7A0FE47
:1033500004F6482318460F93FFF79AFE04F69423C9
:1033600018461093FFF794FE04F52E631846119348
:10337000FFF78EFE04F62C3318461293FFF788FEF3
:1033800004F6783318461393FFF782FE04F6C4332D
:1033900018461493FFF77CFE04F541631846159315
:1033A000FFF776FE04F65C4318461693FFF77CFEA3
:1033B00004F6D44318460293FFF74AFE04F61C5362
:1033C00018460393FFF744FE304BC4F8783D304B6A
:1033D000C4F8803D4FF4A073271D4FF07F4A42464A
:1033E0002846C4F87C4DC4F8848D41460093F023F0
:1033F000FFF70EFC29463846C4F868A006F0C6FD63
:103400004FF4A0734246484600934146F023FFF72D
:10341000FFFB204BC4F894304946384606F0B6FD11
:10342000DC235022179800930A21FFF7F1FB1A4B77
:103430001799C4F8C0302125384606F0A7FD42464A
:1034400041460095382304F1F800FFF7E1FB4FF007
:103450000503A4F82831114BC4F82C3103F54C5363
:103460003333C4F83031A3F5CC43663BC4F8343170
:1034700003F1331303F54C535846C4F83831FFF7C2
:10348000E7FC04F678530BE0F0610208D86102080B
:10349000CD2F0008DFED64FFEEEEEEFF996600FF32
:1034A000C4F8F430082258461793009538230C21AD
:1034B000FFF7AEFB5946384606F068FD38AD0E22E0
:1034C00030461221FFF797FB31462846C4F86CA11D
:1034D000A4F8708109F0CAFC95E8070004F5BC73F4
:1034E0003DADDFF864B9CDF8F4B083E807001523EB
:1034F00030462946ADF8F83009F060FF31463846CD
:10350000322606F043FD33465422189800960E21C9
:10351000FFF77EFB1899384606F038FD33468A22BD
:10352000199800960E21FFF773FB1999384606F09B
:103530002DFD33468A221A9800964421FFF768FB36
:103540001A99384606F022FD33468A221B980096C7
:103550007A21FFF75DFB1B99384606F017FD3346CD
:103560008A221C980096B021FFF752FB1C9938461E
:1035700006F00CFD3346C0221D9800960E21FFF781
:1035800047FB1D99384606F001FD3346C0221E98C0
:1035900000964421FFF73CFB1E99384606F0F6FCE6
:1035A0003346C0221F9800967A21FFF731FB1F99FE
:1035B00038464FF0FF3906F0E9FC3346C022209828
:1035C00000960E21FFF724FB2099C4F80C9338468F
:1035D00006F0DCFC3346C02221980096B021FFF7AC
:1035E00017FB2199384606F0D1FC3346F622229883
:1035F00000960E21FFF70CFB2299384606F0C6FC18
:103600003346F622239800964421FFF701FB2399C5
:10361000384606F0BBFC3346F622249800967A2101
:10362000FFF7F6FA2499384606F0B0FC3346F62246
:1036300025980096B021FFF7EBFA2599384606F059
:10364000A5FC33465422269800964421FFF7E0FA61
:103650002699384606F09AFC33465422279800965D
:103660007A21FFF7D5FA2799384606F08FFC3346C2
:10367000542228980096B021FFF7CAFA28993846B4
:1036800006F084FC33465422299800960E21FFF759
:10369000BFFA2999C4F89894384606F077FC334667
:1036A00054222A9800964421FFF7B2FA2A99C4F8C6
:1036B000C494384606F06AFC334654222B98009690
:1036C0007A21FFF7A5FA2B99C4F8F094384606F052
:1036D0005DFC334654222C980096B021FFF798FAEF
:1036E0002C99C4F81C95384606F050FC33468A22C3
:1036F0002D9800960E21FFF78BFA2D99C4F8489566
:10370000384606F043FC33468A222E980096442120
:10371000FFF77EFA2E99C4F87495384606F036FC09
:1037200033468A222F9800967A21FFF771FA2F9953
:10373000C4F8A095384606F029FC33468A22309812
:103740000096B021FFF764FA3099C4F8CC9538465A
:1037500006F01CFC3346C022319800967A21FFF710
:1037600057FA3199C4F8F895384606F00FFC3346FD
:10377000C02232980096B021FFF74AFA3299C4F875
:103780002496384606F002FC3346F622339800961B
:103790000E21FFF73DFA3399C4F85096384606F0EB
:1037A000F5FB3346F622349800964421FFF730FAB1
:1037B0003499C4F87C96384606F0E8FB3346F62286
:1037C000359800967A21FFF723FA3599C4F8A89620
:1037D000384606F0DBFB3346F62236980096B021D9
:1037E000FFF716FA3699C4F8D496384606F0CEFBA1
:1037F0003346C022379800964421FFF709FA3799DB
:10380000C4F8009738464FF0190906F0BFFB33465D
:1038100060220C210498CDF80090FFF7F9F9C4F864
:1038200034A7A4F838872846FFF704FC95E807007A
:1038300004F5E86383E8070014230498ADF8F83032
:103840002946CDF8F4B009F0B9FD0499384606F0E0
:103850009DFB3346602244210598CDF80090FFF788
:10386000D7F9C4F880A7A4F884872846FFF7E2FBBD
:1038700095E8070004F28C7383E80700132305988A
:10388000ADF8F8302946CDF8F4B009F097FD059968
:10389000384606F07BFB334660227A210698CDF845
:1038A0000090FFF7B5F9C4F8CCA7A4F8D087284654
:1038B000FFF7C0FB95E8070004F5FB6383E807000A
:1038C00012230698ADF8F8302946CDF8F4B009F087
:1038D00075FD0699384606F059FB33466022B02143
:1038E0000798CDF80090FFF793F9C4F818A8A4F84A
:1038F0001C882846FFF79EFB95E8070004F6240382
:1039000083E8070011230798ADF8F8302946CDF871
:10391000F4B009F053FD0799384606F037FB3346FB
:1039200096220E210898CDF80090FFF771F9C4F89F
:1039300064A8A4F868882846FFF77CFB95E8070090
:1039400004F5076383E8070010230898ADF8F83002
:103950002946CDF8F4B009F031FD0899384606F053
:1039600015FB3346962244210998CDF80090FFF7C5
:103970004FF9C4F8B0A8A4F8B4882846FFF75AFB5A
:1039800095E8070004F6BC0383E807000F230998B5
:10399000ADF8F8302946CDF8F4B009F00FFD0999DB
:1039A000384606F0F3FA334696227A210A98CDF883
:1039B0000090FFF72DF9C4F8FCA8A4F80089284668
:1039C000FFF738FB95E8070004F6081383E80700C3
:1039D0004FF00E030A98ADF8F8302946CDF8F4B050
:1039E00009F0ECFC0A99384606F0D0FA33469622E4
:1039F000B0210B98CDF80090FFF70AF9C4F848A958
:103A0000A4F84C892846FFF715FB95E8070004F653
:103A1000541383E807000D230B98ADF8F8302946BE
:103A2000CDF8F4B009F0CAFC0B99384606F0AEFAAE
:103A30003346CC220E210C98CDF80090FFF7E8F821
:103A4000C4F894A9A4F898892846FFF7F3FA95E8F2
:103A5000070004F51A6383E807004FF00C030C9885
:103A6000ADF8F8302946CDF8F4B009F0A7FC0C9970
:103A7000384606F08BFA3346CC2244210D98CDF817
:103A80000090FFF7C5F8C4F8E0A9A4F8E489284637
:103A9000FFF7D0FA95E8070004F6EC1383E8070077
:103AA0000B230D98ADF8F8302946CDF8F4B009F0A5
:103AB00085FC0D99384606F069FA3346CC227A2106
:103AC0000E98CDF80090FFF7A3F8C4F82CAAA4F83C
:103AD000308A2846FFF7AEFA95E8070004F6382347
:103AE00083E807004FF00A030E98ADF8F830294636
:103AF000CDF8F4B009F062FC0E99384606F046FAAB
:103B00003346CC22B0210F98CDF80090FFF780F813
:103B1000C4F878AAA4F87C8A2846FFF78BFA95E8BF
:103B2000070004F6842383E8070004F66453049333
:103B3000BB4B1B682BB9BB4BBB4A6021BB4820F079
:103B400017F8BB4B1B88022B03D8BA4BB64A61212E
:103B5000F4E7B94B0221186800F0E2FAB74A0346CD
:103B60000A2104980FF070FF049B0F98C4F8903A54
:103B700029460923ADF8F830CDF8F4B009F01EFC61
:103B80000F99384606F002FA33461098CDF80090A7
:103B90004FF481720E21FFF73BF8C4F8C4AAA4F8D1
:103BA000C88A2846FFF746FA95E8070004F52D6312
:103BB00083E807004FF008031098ADF8F830294665
:103BC000CDF8F4B009F0FAFB1099384606F0DEF9AA
:103BD00033461198CDF800904FF481724421FFF7DD
:103BE00017F8C4F810ABA4F8148B2846FFF722FA94
:103BF00095E8070004F61C3383E8070007231198B3
:103C0000ADF8F8302946CDF8F4B009F0D7FB11999A
:103C1000384606F0BBF933461298CDF800904FF4C1
:103C200081727A21FEF7F4FFC4F85CABA4F8608BD4
:103C30002846FFF7FFF995E8070004F6683383E8A4
:103C4000070006231298ADF8F8302946CDF8F4B0F5
:103C500009F0B4FB1299384606F098F933461398E8
:103C6000CDF800904FF48172B021FEF7D1FFC4F877
:103C7000A8ABA4F8AC8B2846FFF7DCF995E8070061
:103C800004F6B43383E807004FF005031398ADF84A
:103C9000F8302946CDF8F4B009F090FB1399384676
:103CA00006F074F90C22149800927423324678219D
:103CB000FEF7AEFFC4F8F4ABA4F8F88B2846FFF784
:103CC000B9F995E8070004F5406383E80700042389
:103CD0001498ADF8F8302946CDF8F4B009F06EFB31
:103CE0001499384606F052F90C2215980092742364
:103CF0003E227821FEF78CFFC4F840ACA4F8448C37
:103D00002846FFF797F995E8070004F64C4383E847
:103D1000070003231598ADF8F83029462126CDF881
:103D2000F4B009F04BFB1599384606F02FF94246DE
:103D30004146009604F549605823FEF769FF4FF0AD
:103D40000503A4F8C03C3E4BC4F8C43C03F54C53F7
:103D50003333C4F8C83CA3F5CC43663BC4F8CC3C31
:103D600003F1331303F54C531698C4F8D03CFFF716
:103D70006FF8179BC4F88C3C1698009658230822BD
:103D80008A21FEF745FF1699384606F0FFF802989B
:103D90000E228F21FEF72FFF38AE4FF0FF3302992E
:103DA000C4F8043D3046A4F8088D09F05FF896E8A1
:103DB0000700029BCDF8F4B03C3383E807000123F1
:103DC0000298ADF8F830294609F0F8FA0299384619
:103DD00006F0DCF80398A0224946FEF70CFF194BC9
:103DE0000399C4F84C3D3046A4F8508D09F03EF8D4
:103DF00096E80700039BCDF8F4B03C3383E8070056
:103E00000398ADF8F880294609F0D8FA38460399A6
:103E100084F8418D06F0BAF8204641B0BDE8F08F35
:103E2000D83501202F58020831590208AC58020831
:103E3000DC350120F3580208E43501207C590208E2
:103E4000996600FF0000EDFF585F02087047000010
:103E500030B5174D2C6814F001048FB0BFF35B8FA1
:103E600023D128461EF04AFFF8B13F230993114B96
:103E70000893114B07930223CDE905330122042354
:103E8000CDE9033228230D49009308223B23CDE9D5
:103E90000B44CDE901440A480A94FEF741FE094863
:103EA0001FF084FE28461EF035FF05480FB030BDD8
:103EB0004C27002058860208648602088083020886
:103EC000502700204D3E00087047000030B5174DC8
:103ED0002C6814F001048FB0BFF35B8F22D1284609
:103EE0001EF00CFFF0B13F230993114B0893114BC7
:103EF00007930123CDE9054304930423CDE902434D
:103F00000A230D49009316220C23CDE90B440B48DC
:103F10000A940194FEF704FE09481FF047FE284664
:103F20001EF0F8FE05480FB030BD00BF7C27002012
:103F30005C86020868860208F08302088027002059
:103F4000C93E00087047000030B5164D2C6814F0CB
:103F500001048FB0BFF35B8F21D128461EF0CEFE47
:103F6000E8B13F230993104B0893104B10491148B7
:103F70000A94CDE9064301220423CDE90332142338
:103F800000931622CDE90B44CDE901440594FEF7D8
:103F9000C7FD09481FF00AFE28461EF0BBFE054873
:103FA0000FB030BDAC270020608602086C86020886
:103FB00024850208B0270020453F000800207047F4
:103FC000002070470EB403B503AB002153F8042B57
:103FD00001930DF00FF902B05DF804EB03B07047E8
:103FE0000CB407B504AB53F8042B01930DF002F9A0
:103FF00003B05DF804EB02B070470000436C10B5ED
:10400000044673B3038F2BB9184B194AC5211948BD
:104010001FF0AEFDC38E00EB43035B8C0BB30EF0C1
:104020006AFF238F012B03D8134B144ACB21EEE7F1
:10403000E28E531C9BB2092B194688BFA3F10A01DB
:1040400004EB410140F63F10498C814209D10A2B13
:1040500004EB420228BF002304EB4303508C588436
:1040600051842046BDE810400EF048BE7F5902083A
:1040700088590208335A02087D5A02088B5A0208EE
:104080000EF003BE10B586B002AC84E806001A46F6
:104090000AAB05930193099B00932146089B0BF003
:1040A000BFFB06B010BD000038B518BB124B13485B
:1040B0001C681349B4B12268224402606268224439
:1040C0000A60A26814440F4B00221A8000F038F8EE
:1040D000054600F033F80C4B1C600C4B1D600C4B7C
:1040E000188007E00B4B03600B4B0B600B4B1C68FD
:1040F000002CE8D138BD00BFE8270020E0270020D1
:10410000DC270020E4270020D8350120E0350120FD
:10411000DC350120CC860208708602082087020860
:10412000044B1B6853F82100034B1B6803EB400052
:10413000704700BFDC270020E027002017207047D1
:1041400000487047EC27002010B5FFF7FDFE044C37
:104150002060FFF77DFE6060FFF7B8FEA06010BD35
:10416000EC27002010B5002404600C6014601C6073
:1041700010BD704710B54FF4AE7104461EF0BCFD83
:10418000204610BD10B50446D0F8580100F013F8D1
:104190002046BDE810400CF027B8000010B50446DA
:1041A000FEF734FC014B2360204610BD2C62020850
:1041B00000220260704770477047043870477047AC
:1041C00010B5102104461EF097FD204610BDA0F149
:1041D0000400F5E700228260024A02601832426061
:1041E000C1607047806202087047000010B5034B41
:1041F00003600446FEF7CAFC204610BDA862020810
:1042000010B50446FFF7F2FF2046F0211EF074FDC2
:10421000204610BD10B50446FEF766FD014B236035
:10422000204610BDA8620208FEF7B1BC70470438F2
:104230007047704710B5102104461EF05DFD204602
:1042400010BDA0F10400F5E700228260024A02607E
:1042500018324260C1607047DC620208704700009B
:1042600010B5034B03600446FEF7EDFD204610BD7C
:104270000463020810B50446FFF7F2FF204640F63B
:1042800034711EF039FD204610BD000010B5044603
:10429000FEF736FF064B23604022002104F68850CB
:1042A0001FF08FFE0023C4F8C83D204610BD00BF9C
:1042B0000463020810B586B001F0DCF90023019315
:1042C000022406220123694601A8CDE903230594AF
:1042D00001F0C4FA18B101F0DFF906B010BD044BCB
:1042E00004491A682046D31701F008FAF3E700BF23
:1042F0005024002000000408034B1B685A1C034A8A
:1043000008BF0023136070470000040850240020F9
:1043100070B50023A0B0044600F684511D4608463F
:10432000002250F8046F2EB920AE06EBC50646E910
:10433000203201350132042AF3D10133042B01F17B
:104340001001ECD1002D21DD00F088FD20AAB0FB8A
:10435000F5F305FB130302EBC30353E9201202EB51
:104360000215C1EB41132B4443400A2002EB8102AA
:10437000B3FBF0F3B3FBF0F500FB1533002B02F2B7
:10438000623214BF0223042344F8223020B070BDEF
:104390002DE9F0410022224E00F6885517464FF0D5
:1043A000000E00E0E6460EF1010C634619016C5860
:1043B00094B302EB8E0100EB8101D1F8888DB8F146
:1043C000000F09D102EB830303F26233C1F8884D79
:1043D000F44640F82380E5E7444513D102EB83031C
:1043E00003F262336400C1F8884D40F82370D0F8BE
:1043F000C83DD1F8881D0B443168C0F8C83D8B42D8
:1044000000DD3360BCF1030FCCD10132042A05F189
:104410000405C4D1BDE8F0810133042BC6D1F1E716
:10442000502400202DE9F0410022224E00F688554C
:1044300017464FF0030E00E0E6460EF1FF3C6346E0
:1044400019016C5894B302EB8E0100EB8101D1F895
:10445000888DB8F1000F09D102EB830303F26233B8
:10446000C1F8884DF44640F82380E5E7444513D170
:1044700002EB830303F262336400C1F8884D40F815
:104480002370D0F8C83DD1F8881D0B443168C0F8BE
:10449000C83D8B4200DD3360BCF1000FCCD101324E
:1044A000042A05F10405C4D1BDE8F081013BC7D25F
:1044B000F2E700BF502400202DE9F0430024224FF2
:1044C00000F68856A4464FF00008A50000E0F0462C
:1044D00008F1010E734656F8231081B305EB08026C
:1044E00000EB8202D2F8889DB9F1000F08D12B446D
:1044F00003F26233C2F8881DC64640F82390E6E70F
:10450000494512D12B4403F262334900C2F8881D99
:1045100040F823C0D0F8C83DD2F8882D13443A683B
:10452000C0F8C83D934200DD3B60BEF1030FCED121
:104530000134042C06F11006C5D1BDE8F083013327
:10454000042BC8D1F1E700BF502400202DE9F0432F
:104550000024214F00F68856A4464FF00308A5001A
:1045600000E0F04608F1FF3E734656F8231081B391
:1045700005EB080200EB8202D2F8889DB9F1000F2A
:1045800008D12B4403F26233C2F8881DC64640F8B6
:104590002390E6E7494512D12B4403F262334900E8
:1045A000C2F8881D40F823C0D0F8C83DD2F8882D45
:1045B00013443A68C0F8C83D934200DD3B60BEF149
:1045C000000FCED10134042C06F11006C5D1BDE890
:1045D000F083013BC9D2F2E75024002000F6945248
:1045E00038B500F6D4551446A4F1100151F8043F33
:1045F000F3B1A142FAD101F11004AC42F4D100218F
:10460000A2F10C03032903D01D681C69A5420FD039
:10461000934208D10131042903F11002F0D1FFF7D0
:1046200049FE012038BD1D6853F8044FA542E9D169
:104630000020F7E72DE9F041044600F60C75D0F8AC
:10464000C83D5B4ADFF868810A2128460FF0FCF973
:10465000C4F80C5C04F6C4300CF0F6FE554B544A1A
:104660001B6804F572650A2128460FF0EDF9C4F8BD
:10467000585C04F541600CF0E7FE002604F6CC57C8
:10468000354604F68853142053F8253000FB057096
:1046900083B9494A0A210FF0D7F96B1E0E2B0ED8A9
:1046A000DFE803F01B222930373E454C535A61683E
:1046B0006F767D0042460A210FF0C6F9EDE7C4F897
:1046C0004C7704F204700CF0BFFE0135331DAB4291
:1046D000D7D1102D6AD02E46D2E704F55E63C4F818
:1046E000983704F5EA60EEE704F6F453C4F8E437CB
:1046F00004F29C70E7E704F60863C4F8303804F568
:10470000FD60E0E704F61C63C4F87C3804F634006E
:10471000D9E704F56363C4F8C83804F50860D2E744
:1047200004F64463C4F8143904F6CC00CBE704F66D
:104730005863C4F8603904F61810C4E704F66C63D3
:10474000C4F8AC3904F66410BDE704F56863C4F836
:10475000F83904F51B60B6E704F69463C4F8443AEC
:1047600004F6FC10AFE704F6A863C4F8903A04F628
:104770004820A8E704F6BC63C4F8DC3A04F69420A9
:10478000A1E704F56D63C4F8283B04F52E609AE7B1
:1047900004F6E463C4F8743B04F62C3093E704F6A3
:1047A000F863C4F8C03B04F678308CE7BDE8F081CC
:1047B0005D5B0208502400204F54020810B54022CF
:1047C0000446002100F688501FF0FBFB0023C4F8CC
:1047D000C83D84F8413D04F61C500CF035FE2046DF
:1047E000FFF796FD082000F03FFB2046FFF790FD05
:1047F0002046BDE81040FFF71DBF10B50446FEF788
:1048000023FB2046FFF778FDBDE81040FFF7D6BF39
:1048100010B5074BD0F8C82D196804468A42C8BFA6
:104820001A60FFF747FD2046BDE81040FFF7C6BFFE
:104830005024002037B51E4D0446286803F04EFC76
:1048400008B34FF0FF33286800220DF1070103F091
:1048500015FC9DF80730522B25D016D8442B1AD0C2
:104860004C2B1CD02046FFF753FD2046FFF7E2FEFD
:104870002046FFF7B3FE30B1012384F8413D04F632
:104880001C500CF0E1FD03B030BD552BEAD12046A1
:10489000FFF77EFDE6E72046FFF7C4FDE2E720468E
:1048A000FFF70AFEDEE72046FFF750FEDAE700BF1B
:1048B00040240020F02070474FF4A070704729205A
:1048C000FDF73CBA2820FDF739BA08B5FDF70AFA1A
:1048D000CA20FDF733FAC320FDF714FA0820FDF7CC
:1048E00011FA5020FDF70EFACF20FDF727FA00202D
:1048F000FDF708FAC120FDF705FA3020FDF702FAAE
:10490000ED20FDF71BFA6420FDF7FCF90320FDF70D
:10491000F9F91220FDF7F6F98120FDF7F3F9E82007
:10492000FDF70CFA8520FDF7EDF90020FDF7EAF917
:104930007820FDF7E7F9CB20FDF700FA3920FDF7E5
:10494000E1F92C20FDF7DEF90020FDF7DBF934203A
:10495000FDF7D8F90220FDF7D5F9F720FDF7EEF9BC
:104960002020FDF7CFF9EA20FDF7E8F90020FDF758
:10497000C9F90020FDF7C6F9B120FDF7DFF90020E5
:10498000FDF7C0F91B20FDF7BDF9B620FDF7D6F9FC
:104990000A20FDF7B7F9A220FDF7B4F9C020FDF712
:1049A000CDF91020FDF7AEF9C120FDF7C7F91020B1
:1049B000FDF7A8F9C520FDF7C1F94520FDF7A2F9DB
:1049C0001520FDF79FF9C720FDF7B8F99020FDF7F6
:1049D00099F93620FDF7B2F9C820FDF793F9F220D6
:1049E000FDF7ACF90020FDF78DF9B020FDF7A6F931
:1049F000C220FDF787F9B620FDF7A0F90A20FDF7E0
:104A000081F9A720FDF77EF92720FDF77BF9042027
:104A1000FDF778F92A20FDF791F90020FDF772F9EA
:104A20000020FDF76FF90020FDF76CF9EF20FDF78E
:104A300069F92B20FDF782F90020FDF763F90020CA
:104A4000FDF760F90120FDF75DF93F20FDF75AF908
:104A5000F620FDF773F90120FDF754F90020FDF76A
:104A600051F90620FDF74EF92C20FDF767F9C82013
:104A7000FDF7B2F92620FDF761F90120FDF742F9B3
:104A8000E020FDF75BF90F20FDF73CF92920FDF749
:104A900039F92420FDF736F90C20FDF733F90E2003
:104AA000FDF730F90920FDF72DF94E20FDF72AF921
:104AB0007820FDF727F93C20FDF724F90920FDF7C0
:104AC00021F91320FDF71EF90520FDF71BF917202A
:104AD000FDF718F91120FDF715F90020FDF712F97F
:104AE000E120FDF72BF90020FDF70CF91620FDF76A
:104AF00009F91B20FDF706F90420FDF703F9112041
:104B0000FDF700F90720FDF7FDF83120FDF7FAF871
:104B10003320FDF7F7F84220FDF7F4F80520FDF704
:104B2000F1F80C20FDF7EEF80A20FDF7EBF828204D
:104B3000FDF7E8F82F20FDF7E5F80F20FDF7E2F884
:104B40001120FDF7FBF8C820FDF746F92920FDF7F5
:104B5000F5F8BDE808402C20FDF7F0B808B5FDF7E2
:104B6000C1F80321D320FDF705F980B208BD10B5C7
:104B7000C4B2022203212046FDF76AF80A20FDF79D
:104B8000AFF8204600220321FDF762F8BDE810408F
:104B90000220FDF7A5B838B50446E4B2FDF756F893
:104BA00000212046FDF76CF8012105462046FDF75F
:104BB00067F840EA052080B238BD10B5C4B2402184
:104BC0002046FDF75DF8030607D54C212046FDF78A
:104BD00057F8003818BF012010BD01224B21204694
:104BE000FDF736F8204600224B21FDF731F8002072
:104BF000F2E773B50423C4B20E461546D7210DEB78
:104C000003022046FDF756F8019B1BBA1A0DC3F3A9
:104C10000B23328020462B8001224B21FDF718F810
:104C200000224B212046FDF713F802B070BD0000B2
:104C300010B50A4A1378984204460DD0517888423C
:104C40000AD00BB141B90123D454FCF7FFFF204631
:104C5000BDE81040FFF78BBF10BD00BFF827002054
:104C600010B5C4B209212046FDF70AF840F0010250
:104C7000D2B220460921BDE81040FCF7E9BF10B5CB
:104C8000C4B209212046FCF7FBFF092100F0FE0217
:104C90002046BDE81040FCF7DBBF38B5C4B20D4676
:104CA00020460A21FCF7ECFF40EA0502D2B220467A
:104CB0000A21BDE83840FCF7CBBF10B50446FCF72D
:104CC000C6FF20461F21FFF7E8FF2046BDE8104041
:104CD000FFF7C6BF38B5C4B20D4620460A21FCF71F
:104CE000CFFF20EA0502D2B220460A21BDE83840B3
:104CF000FCF7AEBF10B50446FFF7C1FF20461F21E9
:104D0000BDE81040FFF7E6BF10B5C0B20C460B215E
:104D1000FCF7B6FF204010BD1F21FFF7F5BF0A4684
:104D2000C0B20B21FCF794BF1F21FFF7F8BF38B5C5
:104D3000C4B20D4620461721FCF7A2FF20EA050267
:104D4000D2B220461721BDE83840FCF781BF70B5CC
:104D5000C4B2064604212046FCF792FF042100F06D
:104D6000FB0205462046FCF773FF3046F021FFF7B3
:104D7000DEFF05F0F80220460421FCF769FF492216
:104D800020212046FCF764FF0220FCF7A9FF204603
:104D900001222121FCF75CFF20469A224121FCF7E9
:104DA00057FF204601224A21FCF752FF20460122EC
:104DB0004B21FCF74DFF204600224B21FCF748FF1A
:104DC000204601225621FCF743FF204601225821AC
:104DD000FCF73EFF204601224021FCF739FF204628
:104DE000FF220B21FCF734FFBDE870400220FCF7E6
:104DF00077BF0000054BD3F8882042F47002C3F857
:104E000088204FF000629A60704700BF00ED00E01C
:104E100008B50B4B1A6842F400721A601A6842F423
:104E200080621A601A6842F480721A60032000F0EF
:104E300045FA0020FDF71AFBFDF756F8002008BDE3
:104E4000003C0240034A044B11681B780B4413607A
:104E5000704700BFFC27002078000020014B186835
:104E6000704700BFFC27002038B50446FFF7F6FF67
:104E7000631C1CBF054B1B78054618BFE418FFF7E1
:104E8000EDFF431BA342FAD338BD00BF78000020DA
:104E900038B50446002800F09B80056C25B9FDF765
:104EA00043F8656484F83C50236CDB0600F18E8087
:104EB000236C23F4885323F0020343F0020323649A
:104EC000444B5A6822F440325A605A6861680A4377
:104ED0005A60236821695A6822F480725A605A68BD
:104EE00042EA01225A605A68A16822F040725A6070
:104EF0005A680A435A609A68E16822F400629A602C
:104F00009A680A439A603449A26A8A4252D09968E0
:104F100021F07061996099680A439A609A68E16A21
:104F200022F040529A609A680A439A609A6822F086
:104F300002029A609A68217E42EA41029A6094F8DD
:104F40002020002A3ED05A68616A42F400625A600A
:104F50005A6822F460425A605A68013942EA413282
:104F60005A60DA6AE16922F47002DA62DA6A0139B7
:104F700042EA0152DA629A6822F400729A609A68F0
:104F800094F8301042EA41229A609A68616922F4EA
:104F900080629A609A68002042EA81229A60606486
:104FA000236C23F0030343F001032364002384F8FC
:104FB0003C3038BD9A6822F070629A609A6822F09C
:104FC0004052B2E75A6822F40062C9E70120EDE7D7
:104FD0000120EEE7002301400100000F82B0002312
:104FE000019390F83C30012B69D0012380F83C30CC
:104FF00003689A68D2070BD59A68D1071AD4036C54
:1050000043F010030364436C43F0010343644CE03A
:105010009A682C4942F001029A602B4A1268B2FB4E
:10502000F1F202EB42020192019A002AE4D0019AC5
:10503000013AF8E7026C22F4E06222F0010242F445
:10504000807202645A68520541BF026C22F44052D9
:1050500042F480520264026C12F480521CBF426C13
:1050600022F006024264002280F83C206FF0220207
:105070001A60164A516811F01F0F15491CD18B4256
:1050800007D001F580718B420CD1526812F01F0FCE
:105090000BD19A6812F0405F07D19A6842F08042C3
:1050A0009A6002E00B498B4202D0002002B07047A8
:1050B000526812F0100FEBE78B42F6D1E9E70220BD
:1050C000F4E700BF40420F007400002000230140BD
:1050D000002001400022014003689A68520570B523
:1050E00004460D460BD59B68DE0508D5036C43F0DE
:1050F00020030364002380F83C30012070BDFFF7DB
:10510000ADFE064623681A6891070CD56FF01202AF
:105110001A60226C42F4007222649A6812F0405FB6
:1051200017D00020EAE7681CEDD065B923681B683A
:1051300013F00203E6D1226C84F83C3042F0040202
:1051400022640320DAE7FFF789FE801BA842EDD82E
:10515000D8E7227E002AE4D1DA6A12F4700F02D076
:105160009B685A05DDD4236C23F480732364236C7D
:10517000DB04D6D4236C43F001032364D1E7036836
:10518000D86C7047F7B50023019390F83C30012BA1
:10519000054600F08680012380F83C3008682B68C3
:1051A0008E68092884B233D904EB4402DF681E3AC2
:1051B0004FF0070C0CFA02FC27EA0C07DF60DF68EF
:1051C00006FA02F23A43DA604968062901EB8102E5
:1051D0002DD8596B053A1F26964021EA06015963DE
:1051E000596B04FA02F20A435A632F4A93420AD1D6
:1051F000122837D12D4B5A6822F400025A605A689F
:1052000042F480025A60002085F83C0003B0F0BDF3
:105210001A6900EB400C072707FA0CF722EA07028D
:105220001A611A6906FA0CF616431E61CCE70C29BE
:105230004FF01F010BD81E6B233A914026EA010163
:105240001963196B04FA02F20A431A63CDE7DE6AA6
:10525000413A914026EA0101D962D96A94400C434F
:10526000DC62C2E7124B984201D01128CBD10F4B20
:105270005A6822F480025A605A6842F400025A6066
:105280000B4B9842BFD10B4B0B4A1B68B3FBF2F39D
:105290000A2253430193019B002BB4D0019B013B95
:1052A000F8E70220B2E700BF0020014000230140E0
:1052B000120000107400002040420F000749CA6825
:1052C00022F4E0620302120403F4E063120C1343BD
:1052D00043F0BF6343F40033CB60704700ED00E060
:1052E000164B30B5DC68C4F30224C4F10703251D56
:1052F000042B28BF0423062D4FF0FF358CBF033C41
:10530000002405FA03F321EA0303A54022EA05027B
:10531000A340002843EA0203ACBF00F16040084A02
:105320004FEA0313B8BF00F00F00DBB2AABF00F5CD
:105330006140135480F8003330BD00BF00ED00E041
:1053400014ED00E0002807DB044A4109012300F0C6
:105350001F00834042F82130704700BF00E100E0A9
:1053600010B5044650B1437903F0FF0213B902713E
:10537000FCF732FE01236371002010BD0120FCE721
:1053800010B5044620B390F8393003F0FF021BB982
:1053900080F83820FCF738FE022384F8393023687F
:1053A00061681A6822F440320A431A605A6BA16895
:1053B00022F007020A435A631A6CE1686FF30D0288
:1053C0000A431A6400200123E06384F8393010BDD9
:1053D0000120FCE770477047036870B55E681D6880
:1053E000F207044614D5E90512D51A6822F4807232
:1053F0001A60C26B42F00102C26301229A60042368
:1054000080F83930002380F83830436903B1984779
:10541000B20616D5AB0414D523681A6822F40052DC
:105420001A6020229A60E36B43F00203E3630423D3
:1054300084F83930002384F8383063690BB1204692
:105440009847300716D5290514D523681A6822F421
:1054500000621A6008229A60E36B43F00403E3637E
:10546000042384F83930002384F8383063690BB1A1
:105470002046984772070BD56B0509D523681A6833
:1054800022F480621A6004229A602046FFF7A2FF8D
:10549000B00714D5A90512D523681A6822F4007242
:1054A0001A6002229A60E36BE363012384F83930C7
:1054B000002384F8383023690BB120469847F20660
:1054C00013D5EB0411D523681A6822F480521A60B0
:1054D00010229A60E36BE363012384F839300023E0
:1054E00084F838302046FFF776FF70BDF0B590F8AD
:1054F0003820012A03464FF002002BD0012283F806
:10550000382083F8390003EB0112D2E90740556ACD
:10551000174F44EA0040093C012C9CBF05F07F4234
:1055200010434FEA01161A6888BF40EA056091B936
:10553000516A394001435162012C9969916103D844
:10554000596A21F07F4191620122002083F83920BD
:1055500083F83800F0BDD16939400143D161991910
:10556000012C896911619CBF25F07F451562EBE72D
:10557000F0FFFC00094910B50C6924F440740C617B
:105580000C6944F440740C610C6944F001040C6132
:105590000260BFF36F8F436010BD00BF003C02404C
:1055A000074B1A6922F440721A611A6942F40072B8
:1055B0001A611A6942F001021A610160704700BF66
:1055C000003C0240074B1A6922F440721A611A69C2
:1055D00042F480721A611A6942F001021A61018074
:1055E000704700BF003C0240204BDA68D00606D569
:1055F0001F49CA6942F01002CA611022DA60DA68F3
:10560000910606D51A49CA6942F00802CA612022E9
:10561000DA60164BDA68520606D51549CA6942F0B7
:105620000402CA614022DA60DA68100606D5104921
:10563000CA6942F00202CA618022DA600B4BDA6862
:10564000D10507D50A49CA6942F00102CA614FF47F
:105650008072DA60DA68920706D50549CA6942F0B5
:105660002002CA610222DA60704700BF003C02409B
:1056700000280020064B1A69002ABFBF054A5A605D
:1056800002F188325A60BABF1869C00F0020704713
:10569000003C024023016745034A136943F000437D
:1056A00013610020704700BF003C0240114B70B5F1
:1056B00000220446DA61FFF7D1FB0F4D0646EB6886
:1056C000DA030CD4EB68DB0744BF0123EB60E86826
:1056D00010F4F97007D0FFF787FF012003E0611C89
:1056E000EDD00CB9032070BDFFF7B8FB801BA042C2
:1056F000E5D9F7E700280020003C02402DE9F04101
:105700001F4E9846337E012B07460D46144635D072
:1057100001234CF250303376FFF7C8FFB0B9CFB950
:10572000184B1A6922F440721A611A691A611A69CF
:10573000E4B242F001021A612C704CF25030FFF7D3
:10574000B5FF104A136923F0010313610023337678
:10575000BDE8F081012F04D1A1B22846FFF732FF46
:10576000EBE7022F04D121462846FFF719FFE4E7B3
:10577000224643462846FFF7FDFEDEE70220E7E724
:1057800000280020003C02400C4B1A6922F44072B1
:105790001A6103291A690BD142F4004242F0040253
:1057A0001A611A6942EA002040F48030186170479B
:1057B0000129F3D042F40042F2E700BF003C02406E
:1057C0000F4B1A6922F440721A611A69022994BFB8
:1057D00009024FF440710A431A611A6922F0F80273
:1057E0001A611A690B2888BF043042EAC00242F0ED
:1057F00002021A611A6942F480321A61704700BFCE
:10580000003C0240144B1A6891050FD51A6822F427
:1058100000721A601A6842F400621A601A6822F470
:1058200000621A601A6842F400721A600A4B1A6821
:1058300052050FD51A6822F480621A601A6842F481
:1058400080521A601A6822F480521A601A6842F470
:1058500080621A60704700BF003C02402DE9F843A7
:10586000DFF89C8098F81830012B05460F4642D08F
:1058700001234CF2503088F81830FFF717FF044628
:10588000B8B94FF0FF333B602B68012B17D1696823
:10589000287CFFF779FF4CF25030FFF707FF174ADB
:1058A000136923F4004323F0040304461361FFF754
:1058B000A9FF002388F818302046BDE8F883AE68B9
:1058C000DFF83890D5E902231344B342EFD9297C9D
:1058D0003046FFF775FF4CF25030FFF7E7FED9F87E
:1058E000103023F0FA03C9F8103010B13E600446BE
:1058F000DDE70136E6E70224DEE700BF003C0240B8
:10590000002800202DE9F74FDFF8BC916C4A0023F6
:105910000D6801249C4004EA0506AC4340F0B780C2
:105920004D68032705F003044FEA430807FA08FC13
:10593000671E012F6FEA0C0C34D8876807EA0C0E3B
:10594000CF6807FA08F747EA0E078760476827EA33
:10595000060EC5F300179F4047EA0E074760C76869
:1059600007EA0C0E8F6807FA08F747EA0E07022CC1
:10597000C76019D14FEAD30A00EB8A0A03F0070B7C
:10598000DAF820704FEA8B0B4FF00F0E0EFA0BFE79
:1059900027EA0E0E0F6907FA0BF747EA0E07CAF857
:1059A000207001E0032CDAD1076804FA08F407EA52
:1059B0000C073C4315F4403F046068D00024019478
:1059C000D9F8444044F48044C9F84440D9F84440EC
:1059D00023F0030707F1804704F4804407F59C3760
:1059E000019403F0030C019CD7F808E04FEA8C0CFB
:1059F0000F2404FA0CF42EEA040E324CA0424DD0CF
:105A000004F58064A0424BD004F58064A04249D0E4
:105A100004F58064A04247D004F58064A04245D0DC
:105A200004F58064A04243D004F58064A04241D0D4
:105A300004F58064A0423FD004F58064A0423DD0CC
:105A400004F58064A04214BF0A24092404FA0CF46B
:105A500044EA0E04BC609468F74315F4801F0CBF41
:105A60003C4034439460D46815F4001F0CBF3C40A4
:105A70003443D460546815F4003F0CBF3C403443B9
:105A800054601468ED0354BF3C4034431460013348
:105A9000102B7FF43DAF03B0BDE8F08F0024D5E7B5
:105AA0000124D3E70224D1E70324CFE70424CDE780
:105AB0000524CBE70624C9E70724C7E70824C5E780
:105AC000003C0140000002400038024003691942D6
:105AD00014BF0120002070470AB18161704709049A
