:020000040800F2
:10000000000003206D0600080D2500080F250008DC
:100010001125000813250008152500080000000020
:100020000000000000000000000000002180000827
:100030001725000800000000B1800008337900088F
:10004000BD060008BD060008BD060008BD06000884
:10005000BD060008BD060008BD060008BD06000874
:10006000BD060008BD060008BD060008BD06000864
:10007000BD060008BD060008BD060008BD06000854
:10008000BD060008BD060008BD060008BD06000844
:10009000BD060008BD060008BD060008BD06000834
:1000A000BD060008BD060008BD060008BD06000824
:1000B000BD060008BD060008BD060008BD06000814
:1000C000BD060008BD060008BD060008BD06000804
:1000D000BD060008BD060008BD060008BD060008F4
:1000E000BD060008BD060008BD060008BD060008E4
:1000F000BD060008BD060008BD060008BD060008D4
:10010000BD060008BD060008BD060008BD060008C3
:10011000BD060008BD06000819250008BD06000838
:10012000BD060008BD060008BD060008BD060008A3
:10013000BD060008BD060008BD060008BD06000893
:10014000BD060008BD060008BD060008BD06000883
:10015000BD060008BD060008BD060008BD06000873
:10016000BD060008BD060008BD060008BD06000863
:10017000BD060008BD060008BD060008000000001E
:10018000BD060008BD060008BD060008BD06000843
:10019000BD060008BD060008BD060008BD06000833
:0C01A00025250008BD06000831250008D8
:1001B00010B5054C237833B9044B13B10448AFF3A1
:1001C00000800123237010BD800300200000000088
:1001D000304B020808B5034B1BB103490348AFF38A
:1001E000008008BD0000000084030020304B02089E
:1001F000034613F8012B002AFBD1181A0138704767
:1002000001F0FF01102A2BDB10F0070F08D010F8C7
:10021000013B013A8B422DD010F0070F42B3F6D1CB
:10022000F0B441EA012141EA014122F007047FF0E4
:1002300000070023F0E80256083C85EA010586EA3B
:10024000010685FA47F5A3FA87F586FA47F6A5FA77
:1002500087F68EB9EED1F0BC01F0FF0102F0070283
:1002600032B110F8013B013A83EA010313B1F8D12E
:100270000020704701387047002D06BF354603380F
:10028000073815F0010F07D1013015F4807F02BF48
:10029000013015F4C03F0130F0BC0138704700BF99
:1002A0007BB972B90029BEBF00204FF0004106E0C3
:1002B00008BF00281CBF6FF000414FF0FF3000F076
:1002C000D3B9ADF1080C6DE904CE002909DB002B90
:1002D0001ADB00F04DF8DDF804E0DDE9022304B09C
:1002E0007047404261EB4101002B1BDB00F040F8FE
:1002F000DDF804E0DDE9022304B0404261EB410196
:10030000524263EB43037047524263EB430300F0F6
:100310002FF8DDF804E0DDE9022304B0404261EB90
:1003200041017047524263EB430300F021F8DDF8CE
:1003300004E0DDE9022304B0524263EB430370475B
:1003400053B94AB9002908BF00281CBF4FF0FF313C
:100350004FF0FF3000F088B9ADF1080C6DE904CE24
:1003600000F006F8DDF804E0DDE9022304B0704790
:100370002DE9F047089D8E4604468846002B4AD159
:100380008A42174662D9B2FA82F64EB1C6F120030C
:1003900001FA06F820FA03F3B74043EA0808B4402C
:1003A0004FEA174E1FFA87FCB8FBFEF1230C0EFB39
:1003B000118843EA084301FB0CF29A4209D9FB1861
:1003C00001F1FF3080F0EA809A4240F2E780023982
:1003D0003B449A1AA3B2B2FBFEF00EFB102243EA92
:1003E000024300FB0CFC9C4509D9FB1800F1FF32CD
:1003F00080F0D6809C4540F2D3803B44023840EAEE
:100400000140A3EB0C0300211DB1F3400022C5E91C
:100410000032BDE8F0878B4205D90DB1C5E9000176
:1004200000210846F5E7B3FA83F1002946D1734568
:1004300002D3824200F20581841A6EEB030201208E
:100440009046002DE5D0C5E90048E2E7002A00F01B
:100450009080B2FA82F6002E40F0A4808A1A030C33
:100460004FEA174E80B2BCB20121B2FBFEFC0EFB7C
:100470001C2243EA024304FB0CF29A4207D9FB1800
:100480000CF1FF3802D29A4200F2E080C4469B1A77
:10049000B3FBFEF20EFB123340EA034302FB04F40B
:1004A0009C4207D9FB1802F1FF3002D29C4200F2B5
:1004B000CA8002461B1B42EA0C40A5E7C1F1200698
:1004C0008B4022FA06F71F430EFA01F420FA06F3D6
:1004D0002EFA06FE4FEA1749234300FA01F81FFAE5
:1004E00087FCBEFBF9F01C0C09FB10EE44EA0E443D
:1004F00000FB0CFEA64502FA01F209D93C1900F1F5
:10050000FF3A80F09C80A64540F2998002383C4436
:10051000A4EB0E041FFA83FEB4FBF9F309FB1344AA
:100520004EEA044403FB0CFCA44508D93C1903F132
:10053000FF3E80F08280A4457FD9023B3C4443EAE1
:100540000040A4EB0C04A0FB02EC64457346E146BA
:1005500062D35FD05DB1B8EB030264EB090404FA27
:1005600006F622FA01F31E43CC40C5E900640021DF
:100570004FE7B1FBF2FC010C41EA0E4180B240EAC8
:1005800001423B4638463C46B846BE462026B1FBB3
:10059000F7F1A2EB080241EA0C4166E7014618E7D1
:1005A00010462CE7C6F120022EFA02F3B740B14004
:1005B00020FA02F24FEA174E0A43B3FBFEF8BCB230
:1005C0000EFB1833110C41EA034108FB04F9B0405B
:1005D00089454FEA104380B23ED9791808F1FF3CB3
:1005E00001D289451FD8A1EB0901B1FBFEF909FB36
:1005F00004F80EFB191192B242EA0142424529D297
:10060000BA1809F1FF31C4D24245C2D2A9F10201A0
:100610003A44BEE7F0459DD2BEEB02036CEB070CFB
:100620000138E14696E7A7EB09094944A8F1020C15
:10063000B1FBFEF909FB04F8DBE773467FE75046A0
:1006400066E70846FDE63B44023A33E7ACF1020CAC
:100650003B441CE749469CE7A1EB0901C446B1FBBA
:10066000FEF909FB04F8C4E7704700BFDFF834D097
:10067000002103E00C4B5B58435004310B480C4BFA
:1006800042189A42F6D30B4A02E0002342F8043B98
:10069000094B9A42F9D304F06DFB23F033FB01F0D0
:1006A0005DF870470000032068FA0308000000208E
:1006B0006401002080030020A0420120FEE7704773
:1006C00008B500F0BBFDBDE8084000F03FBD00F0FC
:1006D000B7BD704710B50421044622F005F9204645
:1006E00010BD000038B50C4B0C4C18800C4B822010
:1006F00019806368984740F6110398420AD1094D62
:1007000023682C60822098472B688220DB689847FA
:10071000002038BD0120FCE7A60300204C0000208B
:10072000A4030020A80300204FF4A071F020FFF7DD
:10073000D9BF0000F7B5394D2B6804461B698220EC
:100740009847208000284ED02B680DF106025B6987
:1007500001A982209847324B1B78002B4BD0BDF863
:10076000062040F674639A423FD9ADF80630BDF8D2
:1007700006209B1A9BB20A2B42D90B22B3FBF2F341
:10078000284A1288934201D9013A93B2BDF8042055
:10079000254840F6B8318A4234D8C2F571620E322B
:1007A000016892B20F25B2FBF5F2204D2D88AA42C6
:1007B00084BF05F1FF35AAB28A4215468EB22AD906
:1007C000921B91B21A4E3768BB42BAB28CBF9A1ACA
:1007D000D21A92B211440529C4BF05603360036880
:1007E00063803368A38003B0F0BDB32A9CBFB422FA
:1007F000ADF80620BBE7BDF80630A3F5B473B9E742
:100800000023C3E7C2F56D62083292B20E2A016876
:10081000C8D800252A46891A89B2D3E7A803002040
:1008200044240020A4030020A0030020A6030020ED
:100830009C03002037B568460D461446FFF77AFF43
:10084000BDF8000030B1BDF802302B60BDF80430B7
:100850002360012003B030BD032821D8DFE800F079
:10086000020B12190F4B1A68B2FA82F252090421D4
:100870000D4804F029BF0B4B5A68B2FA82F25209B4
:100880000821F5E7074B9A68B2FA82F25209102163
:10089000EEE7044BDA68B2FA82F252092021E7E768
:1008A000704700BFAC03002000100240032821D88D
:1008B000DFE800F0020B12190F4B1A68003A18BF5C
:1008C000012204210D4804F0FFBE0B4B5A68003A88
:1008D00018BF01220821F5E7074B9A68003A18BFB4
:1008E00001221021EEE7044BDA68003A18BF01221A
:1008F0002021E7E7704700BFAC0300200010024052
:1009000003280DD8DFE800F00206080A0421054894
:1009100004F0DFBE0821FAE71021F8E72021F6E70E
:10092000704700BF0010024008B5032811D8DFE867
:1009300000F0020A0C0E0421074804F0BFFE431E1B
:100940005842584108BD0821F6E71021F4E720215C
:10095000F2E70020F3E700BF0010024070B5084D39
:1009600000240126E0B2FFF7DFFF18B12B68012B4E
:1009700018BF2E600134052C05F10405F2D170BDBD
:10098000AC030020012380F8781080F8793070479C
:100990007047002070470000034B4164003918BFC6
:1009A00001211970704700BF5F350120704700209A
:1009B0007047836B0BB10846184770474FF6FF70BE
:1009C0007047406803689B691847704770477047D5
:1009D0007047704710B5044600F048FD236803498E
:1009E000D3F890302046BDE810401847000000D0F2
:1009F00008B503680446D3F8843098472368204636
:100A0000DB6F984700F0ECF8236820465B6F98474F
:100A1000292001F093F900F0E3F8236820465B6F8A
:100A20009847F8E710B504460AF010F92368204605
:100A3000D3F8BC30BDE81040184700F0FBBC00F014
:100A4000FFBC00F031BD00F0D1BC00F041BD00F0B2
:100A500049BD00F0D5BC09F027BB10B58421044680
:100A600021F042FF204610BD10B590F8341090F8E8
:100A700078400C4B8C421A7809D03AB90A4A0B4993
:100A80001488088810800C8001221A7010BD002A7A
:100A9000FCD0054A05491488088810800C80002283
:100AA000F3E700BF583501205435012056350120A9
:100AB00070B50D46194635B9094B0A4A0A4840F245
:100AC000FF2122F04DFEC0E90F52084B003A18BF3B
:100AD00001221A700368BDE87040D3F890301847BF
:100AE000A04B0208D84B0208264C02085E350120B4
:100AF00008B5094B1B888B4203D8084B1B889342CF
:100B000005D9074B074A0848A32122F029FE074BC5
:100B10001980074B1A8008BD543501205635012035
:100B20006B4C0208CE4C0208264C02085A350120B4
:100B30005C350120034690F87A0018B158680368C4
:100B40001B68184770470000012108B500220846BD
:100B500006F078FF0A4B186028B90A4B0A4A282188
:100B60000A4822F0FDFD00220421012007F012F8BE
:100B7000074B186018B9074B034A2C21F0E708BD52
:100B8000C0030020114D02085A4D0208894D020889
:100B9000BC030020BF4D0208024B4FF0FF31186824
:100BA00006F09ABFC0030020014B186806F0C0BFD2
:100BB000C0030020024B0021186806F08DBF00BF63
:100BC000C0030020FFF7F0BF03480449006800237A
:100BD0001A4607F01AB800BFBC030020040000202A
:100BE00013B5084C00231A4601A9206807F03EF807
:100BF00020684FF0FF33002201A907F037F802B058
:100C000010BD00BFBC03002003685B6C18470120C7
:100C1000704703689B6A1847FEE740F2EF30704761
:100C2000054B0360054B4FF08062C3F88820BFF38B
:100C30004F8FBFF36F8F7047C858020800E100E084
:100C400010B504464FF45A61FFF7EAFF204621F041
:100C50004BFE204610BD000082B0002301930E4BD6
:100C60001A6B42F400021A631A6B02F4000201923A
:100C7000019A1A6942F400021A611A6922F4000208
:100C80001A61064B064A1A61064A5A61064B4FF032
:100C900080629A6002B0704700380240242600202B
:100CA000F90E0008190C000800E100E008B50A2858
:100CB00009D8DFE800F006100E0808080810101028
:100CC0001000022008BD054B054A0648902122F07D
:100CD00047FD0020F6E70120F4E700BF014E0208BF
:100CE0001C4E0208674E020838B50C46887FFFF795
:100CF000DDFFA58AE28A164B2169586342EA054264
:100D00005A64628BD963521B1A642568082D0ED170
:100D10009A611A615862207F0E4A42EA0062DA61E3
:100D2000E2681A620C4A5961D9601A6038BD002223
:100D3000D8611A61E1680A0A480902F4784200F4AD
:100D4000FC600243C1F3C4010A439A63034AECE71F
:100D500000B002400900010001230200012303004A
:100D600008B50B280BD8DFE800F00612100A0A0AB3
:100D70000A0808080808022008BD0520FCE7054B02
:100D8000054A06486F2122F0EBFC0020F4E7012021
:100D9000F2E700BF014E02089B4E0208674E0208B0
:100DA0002DE9F04191F81D800C464046FFF7D8FF31
:100DB000A77F05463846FFF7D3FF06463846FFF7BC
:100DC00075FFA18A628B444B521A1A649A61228B76
:100DD000521A1A61E28A586342EA01425A6421694E
:100DE0006268D963DA602068802828D0227F0FD813
:100DF000202867D0402865D004281AD0364B45EA11
:100E0000026545F40035B845DD6161D0334A44E000
:100E1000B0F5807F04D0B0F5007FEFD1304800E01E
:100E2000304840EA0262DA61E2681A625E62596141
:100E300032E045EA026242F40032DA61F6E7A06885
:100E4000021DDA62227F45EA026545F40035DD6164
:100E50005E625961017841B1012921D0224B234AB8
:100E600023484FF48D7122F07BFCDA69418822F42B
:100E70007F42013922F0100242EA0122DA610121A7
:100E8000154BDA6942F02002DA61DA699206FCD485
:100E900010229A600029B9D0164A1A60BDE8F08184
:100EA000B2F1FF01DA69408822F47F4200F1FF309D
:100EB00022F0100242EA002242F0100218BF012183
:100EC000DA61DDE745EA0262034B42F40032B4E73F
:100ED00042F20132E1E700BF00B00240012301000D
:100EE000090002000A000200E54E0208FF4E020857
:100EF000674E020801230200024B1B685868036812
:100F00005B6918476035012070B5044625460A4BD9
:100F10000C30002660602672667245F8203B602225
:100F2000294609F0E9FF04F55A63EE6024359D4235
:100F3000FBD1204670BD00BFC8580208034B1A6899
:100F4000D207FCD423229A60704700BF00B0024051
:100F50007047000030B50F4C2568ED07FCD4232501
:100F60000904A56041F001010225FF2B656361645E
:100F7000E0630AD00849656241EA0363E361074B15
:100F800022626061E060236030BDE561039BA36382
:100F9000034BF8E700B00240090001000100020025
:100FA0000100030030B50E4C2568ED07FCD4232565
:100FB0001204A56042F001020225FF2B6563626402
:100FC000E063E16008D01B0643F00213E361054BC8
:100FD00065626061236030BD034BE3610123F9E783
:100FE00000B0024001000200020002FF30B50B4CCD
:100FF0002568ED07FCD4232512041B06A56043F4E5
:101000000033022542F0010265636264E063E1603F
:10101000E361034B65626061236030BD00B0024054
:1010200001000200012070470C2070470C2303FBD5
:101030000100083070470C2303FB010008307047A3
:101040000120704740F63470704740F6347303FB5C
:1010500001000830704740F6347303FB010008308C
:101060007047012070471020704700EB01100830D6
:10107000704700EB011008307047084601F0FABCD9
:1010800010B5034B0360044608F065FD204610BD13
:101090008059020810B50446FFF7F2FF20461421DC
:1010A00021F022FC204610BD10B5034B036004461E
:1010B00008F051FD204610BD4C59020810B50446F9
:1010C000FFF7F2FF204640F63C7121F00DFC204670
:1010D00010BD000010B5034B0360044608F03BFD53
:1010E000204610BD1859020810B50446FFF7F2FF5C
:1010F0002046182121F0F8FB204610BD10B5084B02
:101100000360044600F66870FFF7BAFF04F12C0094
:10111000FFF7CAFF04F11400FFF7DCFF204610BD03
:10112000B459020808B50248FFF7E8FF08BD00BF40
:101130009C12002010B50446FFF7E0FF204641F264
:10114000DC0121F0D1FB204610BD00002DE9F34168
:1011500001F062FA054601F063FA002401462346D5
:1011600028462246009412F00DFB274B274A1A60AE
:10117000204602F099FF264D264B274A27489A60C1
:1011800012F068FA2B68BFF35B8FDB0735D4284673
:1011900021F0ACFB88B3224C224B236004F5786627
:1011A00004F1140004F12C0804F668776060C4F8B8
:1011B0000880E760266108F0CFFC1B4B6361404666
:1011C00008F0CAFC194BE362384608F0C5FC184B1E
:1011D000C4F8683F04F67C7002F0EAFF224604F689
:1011E0007C71304602F0DAFF304601F043FC1148D2
:1011F00022F0D4FA284621F085FB0F4802B0BDE862
:10120000F041FFF7E7BB00BFC435012048040020D0
:1012100098120020680400204C04002008000020E0
:101220009C120020B4590208185902084C590208AF
:101230008059020825110008C403002070470000EF
:101240000148FFF7D5BB00BFC403002070B5264E90
:10125000264C274D274B23603046FFF755FE284686
:1012600017F096FB24480FF09DFF244B2448DC60C8
:1012700000224FF48071C3E9121222491A86C3E991
:101280001A12214983F85820C3E91E011F49C3F8E7
:1012900080101F491F480B60F021C3E90422C3E9F5
:1012A0000622C3E90822C3E90A22C3E90E22C3E9E0
:1012B0001022C3E91422C3E917225A6683F870206A
:1012C0005A67C3E9016501801348018013484FF450
:1012D000A07101801248018012490A70012283F82E
:1012E0003420114A1A6070BDF404002094120020CA
:1012F00068040020904B02084C040020C403002026
:101300000000010101000001000450001A00140057
:1013100060350120543501205A3501205635012011
:101320005C35012058350120DC5702080148FFF7E1
:1013300077BC00BFF4040020002070478180704714
:10134000C180704701817047418170477047704785
:1013500070477047704710B4C4880368121B8488B4
:101360005B6D091B12B25DF8044B09B218474FF6CA
:10137000FF7383814FF0FF3303621368C361106012
:101380007047002070478B8883800120704770472A
:1013900080F82610704790F82600704710B500229C
:1013A000B1F90840B1F90A10028042808480C180FE
:1013B00010BD0022028042808280C2807047017787
:1013C000704780ED080A704780F82410704780F855
:1013D0002510704701207047983070478C30704757
:1013E000843070477047704770470000034B90226D
:1013F00083F85A2383F85823704700BF00E100E0C8
:10140000094A0A49D3680A48C3F30A03013B9BB25D
:101410000B801169C1F30A01013901801364536B18
:1014200043F0010353637047006801407A230020B2
:1014300078230020014BD3F8AC00704700680140CE
:10144000024B0122C3F8AC105A6270470068014099
:1014500010B52C21044621F047FA204610BD10B5E6
:10146000BC21044621F040FA204610BD70B5044668
:1014700008F06FFE23689D6E0EF02CFC014620469E
:10148000A8472368054AD3F88C502046AC46002371
:10149000BDE87040A2F51631604700BF00B004D02F
:1014A00008F03EBE08F048BE08F004BE08F073BF66
:1014B00090F8252012B103685B691847704790F8CF
:1014C00025201AB190F8242002B11860704700005E
:1014D000034B4FF080629A604FF080729A607047C1
:1014E00000E100E0084B4FF08062C3F88820BFF3B2
:1014F0004F8FBFF36F8F4FF08072C3F88820BFF318
:101500004F8FBFF36F8F704700E100E070B500238D
:10151000124E8380124B0360336893F858200546BF
:101520000AB1D86C00B998680368DB6A98473368D9
:10153000B0FA80F4D86C640930B10368DB6A98476C
:10154000002808BF44F001042CB9064B064A07489E
:101550002C2122F005F9284670BD00BF603501201E
:10156000C85902083D4F02089B4F0208D44F020899
:1015700070B5254E3568BFF35B8F15F0010540D17E
:10158000304621F0B3F900283BD0204C204B256198
:1015900004F13400C4E90035C4E90255E584A562CC
:1015A000A58510F0E4F804F158000BF059F9194B37
:1015B000A3652046184B40F8843BFFF7A7FF174B65
:1015C000C4F884302433C4F88C304FF4C803C4E921
:1015D00028350023C4F8AC30C4F8B030C4F8B430B7
:1015E000C4F8B8300E480F4BC4F89050C4F89C5063
:1015F000C4F8A850C4F8983022F0D0F8304621F052
:1016000081F9024870BD00BF7C23002080230020A8
:10161000B0600208E8590208605A020864600208D3
:10162000E91300084460020838B5184C23685BB31E
:10163000174B184A1B6C11888B4216D1164B198810
:1016400004F04AFE236893F86A200025013283F8EB
:101650006A2083F87C50FFF7B7FA206809F0F6FAA1
:101660002846BDE83840FFF7F7B804F035FE246897
:10167000236820461B6A9847012384F87C300020A9
:10168000BDE83840FFF712B938BD00BF6035012012
:10169000006801407A2300207823002007B5064B1C
:1016A000ADF806001B68054801220DF1060105F0A2
:1016B000C3FB03B05DF804FB0C000020D024002025
:1016C00030B595B0102200210AA822F072FA142237
:1016D000002103A822F06DFA00241E4B01941A6C1D
:1016E00042F080521A641B6C03F080530193019BFB
:1016F000194B02941A6842F440421A601B6803F4C2
:10170000404302930122029B4FF48033CDE908232A
:1017100002254FF480030821CDE90E534FF4B47332
:10172000CDE9101308A804231393129504F02CFE9E
:1017300004F0F0FD0F23CDE903354FF4A0504FF432
:101740008053CDE90603052103A8059404F0F8FFB2
:1017500015B030BD00380240007000402DE98048CF
:101760009BB003F015FBFFF7ABFF142200210DA87F
:1017700022F01FFA0024C94B00941A6BC848C94DC7
:1017800042F010021A631A6B02F010020092009AE3
:1017900001941A6B42F020021A631A6B02F02002C5
:1017A0000192019A02941A6B42F080021A631A6B3A
:1017B00002F080020292029A03941A6B42F0040231
:1017C0001A631A6B02F004020392039A04941A6BD0
:1017D00042F001021A631A6B02F001020492049AA9
:1017E00005941A6B42F002021A631A6B02F00202AD
:1017F0000592059A06941A6B42F040021A631A6B1E
:1018000002F040020692069A07941A6B42F0080210
:101810001A631B6B03F00803224607933C21079BC6
:1018200003F052FFA0480122022103F04DFF22469F
:101830009D48042103F048FF22469C484FF4405144
:1018400003F042FF01263C23CDE90D3694480F9466
:1018500003230DA90227109303F04CFE92480DA913
:10186000CDE90D76CDE90F4403F044FE04238E4804
:101870000DA9CDE90D36CDE90F4703F03BFE8C48AD
:101880000F940DA9CDE90D6403F034FE4FF44053DD
:1018900086480DA9CDE90D36CDE90F4703F02AFEA4
:1018A0000DA983480F94CDE90D6403F023FE814810
:1018B000814B036003F014FDDFF820C27F4B2C62E4
:1018C000C5E900C328464FF48043C5E90434C5E99F
:1018D0000244C5E9064404F005F91021284604F045
:1018E00049FB2146284604F064FB754DDFF8F0E122
:1018F000AC624FF48273C5E900E34FF4007818231B
:10190000C5E9068328460A23C5E90244C5E904441B
:10191000C5E90844EB6205F033FA8F2322463946C5
:1019200061488DF824308DF8344003F0CDFE324606
:101930004FF47A7309A9284605F07EFA4FF47A73BA
:1019400032460DA9284605F023FC32463946564852
:101950005C4D03F0B9FE9DF83430D32B04BF5A4BD5
:101960001E705A4B01261027C5E90036402300247B
:10197000C5E904734FF4C073C5E906344FF400633E
:10198000C5E908344FF400534FF002084FF0040A41
:101990004FF0030BAB620DA907232846CDE90FA337
:1019A000CDE90D834FF00809C5E9024ACDE911B828
:1019B000CDF84C8005F0C8F84FF6FF7209A928460B
:1019C000CDE90A96089409960C9405F0DDF83046A6
:1019D00003F00AFA4FF6FF7209A92846CDE90989F2
:1019E000CDE90B6405F0D0F84FF6FF7209A928463F
:1019F000CDE909B9CDE90BA405F0C6F84FF40C7395
:101A00000893089B0C934FF6FF7209A92846CDE96D
:101A100009A90B9605F0B8F840F26A51284605F07E
:101A2000D1F8342221460DEB020022F0C2F8284DF5
:101A3000284B2C61C5E900340923C5E905361D236F
:101A4000C5E9073B40F20D1240F24313C5E90923F3
:101A500040F2171140F247132846C5E90B13C5E9B8
:101A60000244AC8685F8364004F03EFBFF21F022AC
:101A7000CDE912144FF005094FF480614FF4A073C3
:101A8000CDE90E24CDE91419CDE916420DA922465F
:101A90002846CDE91038104D189323E00038024055
:101AA00000100240D025002000080240000C024037
:101AB000000002406426002000300240A0860100A1
:101AC000D02400205424002044240020400100A001
:101AD00028250020006801403C240020005C0040D4
:101AE000005001400D94ADF864408DF8664004F05C
:101AF000C6FB444B2B601B68DFF84CA198472B6852
:101B0000414DDB689847414B2846C5E90034C5E99B
:101B10000284C5E90A48C5E90C4403F0F1FB3146EB
:101B2000284603F0A3FC3A4D3A4621460DA822F080
:101B300040F8384BAC604FF4803B2846C5E9003B89
:101B40002C612C7685F82040EC62C5F828A0EC606A
:101B5000EE6185F830406E6103F05AF90D230DA94E
:101B60002846CDE90D362C4D0F9403F0CBFA3A46BA
:101B700021460DA822F01DF8284BAC602846C5E987
:101B8000003BC5E90AA42C612C7685F82040EC6066
:101B9000EE6185F830406E6103F03AF90DA92846F0
:101BA000CDE90D961E4D0F9403F0ACFA1D484FF48D
:101BB000E133C0E900530C23C0E90534C0E9024415
:101BC0000461C46105F0A0FDFEF77AFDFEF777FD24
:101BD00005F0BCFE144A4146384605F0DBFF134BC6
:101BE000134A18602146134805F0DCFE124B134AD5
:101BF00018602146124805F0D5FE124B186005F01A
:101C0000B7FEFEE7140000202426002000B00240AA
:101C1000B4260020002001406C2600200021014055
:101C20000010014088240020A45A0208402400200B
:101C3000E05A02082D1E00084C240020BC5A02085D
:101C4000CF060008482400200100000F70477047AD
:101C50007FB5094B8DF817201B6802930DF1170211
:101C60000123009201930A460146044803F0E2FF73
:101C700007B05DF804FB00BF10000020D025002055
:101C80007FB500238DF81730084B1B6802930A4676
:101C900001230DF11701009101930146044804F05E
:101CA00059F89DF8170007B05DF804FB10000020FC
:101CB000D02500201FB5084C24680092CDE90134DE
:101CC0000A4601230146054804F044F8003818BFCD
:101CD000012004B010BD00BF10000020D02500205E
:101CE00003F082B810B5064C00222046042103F010
:101CF000EBFC20460122BDE81040042103F0E4BCC7
:101D00000008024038B50B4D044601220A484FF442
:101D1000005103F0D9FC00220421284603F0D4FC32
:101D20002046FFF7BBFC28460122BDE838400421CD
:101D300003F0CABC00080240000C024038B50B4D4D
:101D4000044600220A484FF4005103F0BDFC002273
:101D50000421284603F0B8FC2046FFF79FFC2846E4
:101D60000122BDE83840042103F0AEBC0008024067
:101D7000000C0240F7B5144E144F05460C46304691
:101D80000022042103F0A0FC00224FF40051384649
:101D900003F09AFC2846FFF781FC0D4B0D481B68A9
:101DA000224601A905F0F4F9384601224FF400510A
:101DB000019C03F089FC30460122042103F084FCDD
:101DC000204603B0F0BD00BF00080240000C0240F6
:101DD0000C000020D024002003F006B8A1F2A56278
:101DE00010B592B240F25624A0F2A563A2429BB273
:101DF00006D9B1F57A7F11D340F6B83291420FD8A7
:101E000040F2562293420DD9B0F57A7F0CD340F6BA
:101E1000B83398428CBF5220002010BD5520FCE7FB
:101E20004420FAE70020F8E74C20F6E72DE9F041DE
:101E3000224E234F8AB04FF00008304603F08EF850
:101E4000384603F08BF80A21304603F005F90A21E1
:101E5000384603F001F9304603F051F9044638469C
:101E600003F04DF9A2B283B21649054602A821F04B
:101E70003BFE02A8FEF7BCF9642382B202A9124815
:101E800005F071FCA0B2A9B2FFF7A8FF04468DF8D7
:101E9000070060B140450BD00C4800231A4600688B
:101EA0000DF1070105F0B1FE9DF8073003B90024DC
:101EB000322005F0BBFDA046BFE700BFB4260020DE
:101EC0006C26002036500208882400204024002080
:101ED0000268034B9A4201D102F074BF704700BF01
:101EE000001000407047000082B00E4B00220092AC
:101EF000596C41F480415964596C01F4804100915E
:101F000000990192196C41F0805119641B6C03F027
:101F100080530193019B0F216FF0010002B003F089
:101F20009FB900BF0038024010B514228AB00446A1
:101F300000210DEB020021F03CFE2368214A934270
:101F40001FD1214B2148002101915A6C42F480722B
:101F50005A645A6C02F480720192019A02911A6BCF
:101F600042F004021A631B6B03F00403029308217E
:101F7000029B0323CDE9051305A903F0BBFA0AB0C0
:101F800010BD134A9342FAD10F4B1248002103911E
:101F90005A6C42F400725A645A6C02F40072039252
:101FA000039A04911A6B42F001021A631B6B03F04F
:101FB00001030493049B20220323CDE9052305A9F3
:101FC000DBE700BF0020014000380240000802406B
:101FD00000210140000002400268094B9A4282B091
:101FE0000BD100230193074B1A6B42F480521A6302
:101FF0001B6B03F480530193019B02B0704700BF39
:10200000003002400038024007B50F4B02689A4288
:1020100016D10022A3F5F0430192196B41F400019F
:1020200019631B6B03F40003019305215A20019BE4
:1020300003F016F95A2003B05DF804EB03F042B93F
:1020400003B05DF804FB00BF00B002402DE9F0438F
:10205000044689B01422002103A821F0AAFD2268B9
:10206000244B9A4243D1244C244800250095236BED
:1020700043F004032363236B03F004030093009BEA
:102080000195236B43F001032363236B03F00103EA
:102090000193019B4FF012094FF400734FF00108B8
:1020A0000327042603A9CDE90339CDE9058707965F
:1020B00003F020FA4FF480731148079603A9CDE985
:1020C0000339CDE9058703F015FA0295236C43F433
:1020D00000032364236C03F400030293029B236A2E
:1020E00043F400032362236A23F40003236209B04C
:1020F000BDE8F083005C0040003802400008024068
:1021000000000240F0B599B004461422002107A84F
:1021100021F04FFD30220DEB0200002121F049FD9E
:1021200022685E4B9A4240F0B78008230C93C0238C
:102130001093042312930CA84FF40033159304F06A
:10214000D7FB08B1FFF7CEFE554B5648002400944C
:102150005A6C42F080625A645A6C02F080620092BB
:10216000009A01941A6B42F020021A631A6B02F073
:1021700020020192019A02941A6B42F001021A6342
:102180001A6B02F001020292029A03941A6B42F057
:1021900002021A631A6B02F002020392039A049479
:1021A0001A6B42F040021A631A6B02F0400204926A
:1021B000049A05941A6B42F004021A631A6B02F037
:1021C00004020592059A06941A6B42F008021A63FB
:1021D0001B6B03F00803069302250E26069B0B9645
:1021E0004FF4806307A9CDE90735CDE9094503F030
:1021F00081F941F658032C480B9607A9CDE907351C
:102200000927CDE9094503F075F9032327480B9702
:1022100007A9CDE90735CDE9094503F06BF94FF47E
:10222000706322480B9607A9CDE90735CDE909452A
:1022300003F060F94FF40C631D480B9607A9CDE934
:102240000735CDE9094503F055F9C02319480B9628
:1022500007A9CDE90735CDE9094503F04BF9082376
:1022600015480B9607A9CDE90735CDE9094503F0D7
:1022700041F94FF4A0530E480B9707A9CDE9073554
:10228000CDE9094503F036F958202246052102F030
:10229000E7FF582003F016F819B0F0BD00680140C0
:1022A00000380240001402400000024000040240D6
:1022B0000018024000080240000C024010B504461D
:1022C00088B01422002103A821F073FC2268144B6B
:1022D0009A4223D103F56843002101915A6C1148B9
:1022E00042F480125A645A6C02F480120192019AEC
:1022F00002911A6B42F020021A631B6B03F0200359
:102300000293029B4FF4607202230321CDE9032361
:102310000523CDE9061303A903F0ECF808B010BDBE
:10232000005001400014024010B5044688B0142249
:10233000002103A821F03DFC2268144B9A4223D1CE
:1023400003F59433002101915A6C114842F01002B8
:102350005A645A6C02F010020192019A02911A6BAF
:1023600042F001021A631B6B03F001030293029B0C
:102370004FF4C06202230321CDE903230723CDE9F3
:10238000061303A903F0B6F808B010BD0010014011
:10239000000002402DE9F04186B0002303932B4B4F
:1023A0001C68002C4FD14FF00108C3F80080284B67
:1023B00000949A6B274842EA08029A639B6B03EAEF
:1023C00008030093022703260C25009B01A94FF662
:1023D0003F03CDE90137CDE9046503F08BF81E48D2
:1023E000059501A9CDE90187CDE9034603F082F8FF
:1023F00048F233131948059501A9CDE90137CDE914
:10240000034603F077F84FF683731548059501A945
:10241000CDE90137CDE9034603F06CF84CF20373C4
:102420001048059501A9CDE90137CDE9034603F030
:1024300061F860230C48059501A9CDE90137CDE984
:10244000034603F057F806B0BDE8F081FC260020F3
:102450000038024000140240000802400018024008
:1024600000100240000C02400004024070B588B029
:1024700000230293204B1A6C42F010021A641B6C6A
:1024800003F010030293054601A903A8029B04F080
:1024900011FA069B4BBB04F0EDF9184E184B336054
:1024A00040F2E733F360174BB0FBF3F3013B73608B
:1024B000304600233361B360B36105F039F8044658
:1024C00080B9304604F00AFF044658B9362002F0BD
:1024D000F9FE0F2D0DD822462946362002F0C0FE07
:1024E000094B1D60204608B070BD04F0C3F94000E0
:1024F000D3E70124F6E700BF0038024000270020A0
:102500000010004040420F007C0000207047FEE7B2
:10251000FEE7FEE7FEE77047014804F01DBF00BF7D
:1025200000270020014803F04DBE00BF28250020F1
:10253000014802F011BF00BF24260020012070478F
:1025400008B521F0D9FB162303604FF0FF3008BD1A
:1025500008B521F0D1FB16230360FEE770B50D46E8
:1025600014460E46731B9C4201DC204670BDAFF33F
:10257000008006F8010BF5E770B50D4614460E46CF
:10258000731B9C4201DC204670BD16F8010BAFF3B3
:102590000080F5E74FF0FF3070474FF400534B6079
:1025A0000020704701207047002070470A4A1168D8
:1025B00008B5034609B90949116010686946034422
:1025C0008B4206D921F098FB0C2303604FF0FF30BB
:1025D00008BD1360FCE700BF48270020A04201208F
:1025E000704710B50421044620F07EF9204610BD46
:1025F000012908B506D0022908D059B901F0A0FD7B
:10260000006808BD01F09CFD4068FAE701F098FD04
:102610008068F6E70020F4E700487047185B02087E
:102620000220704713B5002451B1036801948DF85E
:10263000034001AA9C680DF10303A04702B010BD3E
:102640000846FBE7C0897047008A7047C08870471A
:1026500080887047807A00F07F007047807AC009D8
:1026600070470020704700009FED010A704700BFCF
:1026700000000000704710B50821044620F034F92E
:10268000204610BD7047704700F598730868496888
:1026900003C3704770477047416070477047704789
:1026A000064BC0F84C310023C0F8503100F5A2733E
:1026B000C0F84801C0F84031704700BFAD2800089D
:1026C000012303727047704710B4C2684168541008
:1026D000034601EB6200D20748BF0A599B685DF8C8
:1026E000044B48BFD35818470346406830B19A6836
:1026F0001AB9D86800F0010070470120704710B582
:102700000C21044620F0F0F8204610BD10B5102131
:10271000044620F0E9F8204610BD10B54FF4AE7124
:10272000044620F0E1F8204610BD10B50DF0D2FAB5
:102730000368BDE81040DB6B184710B50446D0F8BD
:10274000400158B10368DB68984738B1D4F84001BC
:1027500003689B6898470023C4F8403110BD00000F
:102760002DE9F14FD0E9556A0746B06803681B6A46
:10277000984740F63373984205D8444B444AA32106
:10278000444820F0EDFF706803681B6A98470F28E3
:1027900003D8414B3E4AA421F2E7F06803681B6A64
:1027A00098470B2803D83D4B394AA521E8E70DF09F
:1027B00091FADFF8F09004300DF0B1FAD9F800008A
:1027C00010B10368DB689847D9F8000010B10368BE
:1027D0001B689847DFF8D080D8F8000010B1036874
:1027E0005B699847D7F83C0110B103685B6898476C
:1027F000D8F8000010B103681B689847D7F83C016F
:1028000010B103689B689847F068036800215B6A11
:1028100098474FF0000B224BC0F804B0044680F8F4
:1028200008B00360B068036859465B6A984705467C
:1028300001F02CFD7068036859465B6A9847294689
:10284000064601F001FD331DC7F83C61C9F80040A0
:10285000C8F80050CAF800302B68C6F808A028460F
:10286000DB68EE639847336830461B68984721461B
:1028700028460FF0DFFB236820461B699847236832
:102880005B69204601B0BDE8F04F18476050020870
:10289000EE500208C051020807520208AA5202086C
:1028A000C45B0208A8350120A43501202DE9F14FB1
:1028B000D0E9556A0746B06803681B6A9847EF2855
:1028C00005D8444B444AA321444820F049FF70688E
:1028D00003681B6A98470F2803D8414B3E4AA4213E
:1028E000F2E7F06803681B6A98470B2803D83D4B52
:1028F000394AA521E8E70DF0EDF9DFF8F090043052
:102900000DF00DFAD9F8000010B10368DB689847A4
:10291000D9F8000010B103681B689847DFF8D08031
:10292000D8F8000010B103685B699847D7F83C01FC
:1029300010B103685B689847D8F8000010B10368CD
:102940001B689847D7F83C0110B103689B6898470B
:10295000F068036800215B6A98474FF0000B224B38
:10296000C0F804B0044680F808B00360B06803689B
:1029700059465B6A9847054601F04CFC706803684D
:1029800059465B6A98472946064601F023FC331DE9
:10299000C7F83C61C9F80040C8F80050CAF80030D8
:1029A0002B68C6F808A02846DB68EE6398473368B2
:1029B00030461B689847214628460FF03BFB2368AA
:1029C00020461B69984723685B69204601B0BDE833
:1029D000F04F1847605002084D530208C0510208DA
:1029E00007520208AA520208C45B0208A835012057
:1029F000A4350120044B1B6893F858200AB1D86C09
:102A000000B99868704700BF60350120F8B51746D7
:102A100004460E460DF020FA124B1C60124B236048
:102A2000124B0025C4E95135114BC4E953551868C0
:102A3000036801219B68C4E94F55C4E9557698475E
:102A4000284601F031FBFFF7D5FF17F04AFEFFF7EC
:102A5000D1FF17F0C1FEFFF7CDFF17F0C9FE2046EA
:102A6000F8BD00BFB4350120705B0208585B020856
:102A700060350120064BC0F84C310023C0F85031BE
:102A800000F5A273C0F84801C0F84031704700BF9C
:102A9000AD280008064BC0F84C310023C0F8503177
:102AA00000F5A273C0F84801C0F84031704700BF7C
:102AB00061270008406A7047806A704770478A88BB
:102AC0000B8810B5D20A4C88C1699BB251F822001C
:102AD00043EA0443184410BD10B50446BAB1107B54
:102AE00068B1537BD27A1B0203F4E0631A43236A72
:102AF00003EB82031A888A4202D193F9020010BDC7
:102B000005D8013880B204330028F3D1F7E700205C
:102B1000F5E710B52C2104461FF0E6FE204610BD57
:102B200030B58BB00446BDF860500895BDF85C50D8
:102B300007959DF8505006959DF84C5005959DF8C9
:102B4000485004959DF8445003959DF840500295D7
:102B50009DF83C500195BDF8385000950EF0C4FE2C
:102B6000064B2360159BE361169B2362199B6362EE
:102B70001A9BA36220460BB030BD00BFE85B020881
:102B8000704770477047704770477047704770478D
:102B900030B4C26844685510034604EB6200D207A3
:102BA00048BF62599B6830BC48BFD358184703469A
:102BB000406830B19A681AB9D86800F001007047CF
:102BC0000120704710B5102104461FF08DFE2046ED
:102BD00010BD10B5F02104461FF086FE204610BD42
:102BE0009830884208B505D10DF074F8BDE808406A
:102BF000FFF750BF08BD70B5036804461B6B154650
:102C000098472368294620465B6BBDE8704018470B
:102C100070B504461D46BDF91060FFF7ECFF236850
:102C2000294620469B6B9847236831462046DB6B3C
:102C3000BDE8704018470000094A02604FF48071F7
:102C400000228184FF21C0E90122C0E90322C0E9FA
:102C50000522C0E9072280F826108262704700BF73
:102C600004620208F8B5194B018F1B888B42064697
:102C70002AD9174B1B682BB9164B174A17486C21DA
:102C800020F06EFD13F81120154B1B6853F82250ED
:102C9000144B186801F044FA2B6807469B6B2846D2
:102CA00098472B6804469B6C3946284698472B6802
:102CB00014FB00F45B6A394628469847A4B22318EF
:102CC0001BB2A6F84630F8BD0023FAE7BC35012058
:102CD000B83501201F540208615402089C540208B0
:102CE000C0350120C43501202DE9FF4704462746A1
:102CF00000250EF0F3FF2E4BE56347F8403B04F14F
:102D00006C093846FFF798FF04F198064846FFF72C
:102D100093FF30460AF032FC264BC4E93834264B88
:102D20004FF4A07AC4E93A352A4629463846CDF808
:102D300000A0F023FFF76CFF04F104084FF07F437D
:102D4000A3663946404606F019FF4FF0FF37F023DF
:102D50002A4629464846CDF800A0FFF759FF4946C4
:102D60004046C4F8947006F009FF29463046D22246
:102D7000FFF741FF03AA02A901233046ADF80C304A
:102D8000ADF808500AF06FF91623A4F8D030304699
:102D9000FFF768FF04F1E0034046C4E93577C4F863
:102DA000C030314606F0EAFE204604B0BDE8F087A8
:102DB000685C0208505C0208E12B0008806A7047DA
:102DC00030B5036885B06D460181D3F88430014683
:102DD00004462846984795E807003C3484E80700F5
:102DE00005B030BD30B5036885B06D464181D3F87C
:102DF0008430014604462846984795E807003C344D
:102E000084E8070005B030BD002202804280828045
:102E1000C280704780F83610704770B5036804466A
:102E20001B6B154698472368294620465B6EBDE814
:102E30007040184700207047806C7047704770479B
:102E4000704770477047704770470368DB6A1847E0
:102E500090F82C304BB100F16C021268C2653BB1A6
:102E600000F174031B680366704700F16802F4E721
:102E700000F17003F6E730B4C268446855100346A9
:102E800004EB6200D20748BF62599B6830BC48BF60
:102E9000D35818470346406830B19A681AB9D868C1
:102EA00000F0010070470120704790F82D3080F845
:102EB0005A30704710B54C2104461FF015FD2046CE
:102EC00010BD10B5782104461FF00EFD204610BD40
:102ED00010B5102104461FF007FD204610BD10B5A7
:102EE00040F6885104461FF0FFFC204610BD08B58F
:102EF000FEF7DEFA08BD10B50446006B50B103685A
:102F0000DB68984730B1206B036821469B68BDE8B9
:102F10001040184710BD0B7970B590F82C6004462E
:102F20000D460BB916B170BD002EFCD0B3FA83F379
:102F30005B0984F82C3023682046D3F88C309847FE
:102F4000236820465B699847002EECD02B79012B33
:102F5000E9D123682046D3F88830BDE8704018478F
:102F6000036870B55E6B124B1B6804468DB22BB9BB
:102F7000104B114A6C21114820F0F2FB1049828D50
:102F80000988914203D80F4B0B4A6D21F3E713F8E0
:102F900012200D4B1B6853F8220003681B6B9847E7
:102FA000291A3346204609B2BDE87040184700BFD1
:102FB000B83501201F540208615402089C540208CD
:102FC000BC350120E3540208C035012000F1C403E0
:102FD000994270B504460D4603D10CF07BFEFFF715
:102FE00049FD04F65C439D4205D1236820461B6BD6
:102FF000BDE87040184770BD074A02600022C0E972
:103000000122C0E90322C0E90522C0E907224FF4EA
:1030100080728284704700BFAC63020810B504461A
:10302000FFF7EAFF024B23600023A362204610BD96
:10303000845F020800224FF0FF31C0E90021826066
:10304000704710B50446FFF7F5FF204610BD00009D
:1030500010B500210446262220F0ABFD2046FFF7E4
:10306000CBFF094B2360094BA3624FF6FF73A38587
:103070004FF47F020023C4E90C32238704F13C00A3
:10308000FFF7D8FF204610BD74610208485B0208B4
:1030900010B50446FFF7DCFF024B23600023A36456
:1030A000204610BD9C5C020870B50446FFF7B6FFD1
:1030B0004FF47F432646A3850123002584F824305E
:1030C0000D4B256346F8343B3046FFF7B5FD0B4BFF
:1030D00063632A4629463046C4E91A55C4E91C559B
:1030E0002566A4F86450FFF786FD2046314606F0B9
:1030F00045FD204670BD00BF2C5D02086C620208D1
:103100002DE9F04F0446C1B025464FF000080EF0FF
:10311000E5FDDD4BC4F83C8045F8403B04F16C090B
:103120002846FFF789FD4846FFF786FD04F198031E
:1031300004F1C40B184604F59E761793FFF77CFD47
:103140005846FFF7B1FF3046FFF782FF04F5C27320
:1031500018461893FFF762FF04F5D87318461993C1
:10316000FFF75CFF04F5EE7318461A93FFF756FF5E
:1031700004F5027318461B93FFF750FF04F50D7317
:1031800018461C93FFF74AFF04F5187318461D9361
:10319000FFF744FF04F5237318461E93FFF73EFF25
:1031A00004F52E7318461F93FFF738FF04F53973A3
:1031B00018462093FFF740FD04F544731846219309
:1031C000FFF72CFF04F54F7318462293FFF726FFF5
:1031D00004F55A7318462393FFF720FF04F565732F
:1031E00018462493FFF71AFF04F5707318462593C9
:1031F000FFF714FF04F57B7318462693FFF70EFFC5
:1032000004F5836318462793FFF708FF04F244434D
:1032100018462893FFF702FF04F58E63184629939A
:10322000FFF70AFD04F29C4318462A93FFF704FDBA
:1032300004F5996318462B93FFF7FEFC04F2F44360
:1032400018462C93FFF7F8FC04F5A46318462D9359
:10325000FFF7F2FC04F24C5318462E93FFF7ECFCF8
:1032600004F5AF6318462F93FFF7E6FC04F2A4536E
:1032700018463093FFF7E0FC04F5BA631846319323
:10328000FFF7DAFC04F2FC5318463293FFF7D4FC44
:1032900004F5C56318463393FFF7CEFC04F254637C
:1032A00018463493FFF7C8FC04F5D06318463593ED
:1032B000FFF7C2FC04F2AC6318463693FFF7BCFC80
:1032C00004F5DB6318463793FFF7B6FC04F204738A
:1032D00018460493FFF7DCFE04F5EA6318460593ED
:1032E000FFF7D6FE04F29C7318460693FFF7D0FE54
:1032F00004F5FD6318460793FFF7CAFE04F634038E
:1033000018460893FFF7C4FE04F5086318460993AE
:10331000FFF7BEFE04F6CC0318460A93FFF7B8FE8B
:1033200004F6181318460B93FFF7B2FE04F6641365
:1033300018460C93FFF7ACFE04F51B6318460D937B
:10334000FFF7A6FE04F6FC1318460E93FFF7A0FE47
:1033500004F6482318460F93FFF79AFE04F69423C9
:1033600018461093FFF794FE04F52E631846119348
:10337000FFF78EFE04F62C3318461293FFF788FEF3
:1033800004F6783318461393FFF782FE04F6C4332D
:1033900018461493FFF77CFE04F541631846159315
:1033A000FFF776FE04F65C4318461693FFF77CFEA3
:1033B00004F6D44318460293FFF74AFE04F61C5362
:1033C00018460393FFF744FE304BC4F8783D304B6A
:1033D000C4F8803D4FF4A073271D4FF07F4A42464A
:1033E0002846C4F87C4DC4F8848D41460093F023F0
:1033F000FFF70EFC29463846C4F868A006F0BEFB6D
:103400004FF4A0734246484600934146F023FFF72D
:10341000FFFB204BC4F894304946384606F0AEFB1B
:10342000DC235022179800930A21FFF7F1FB1A4B77
:103430001799C4F8C0302125384606F09FFB424654
:1034400041460095382304F1F800FFF7E1FB4FF007
:103450000503A4F82831114BC4F82C3103F54C5363
:103460003333C4F83031A3F5CC43663BC4F8343170
:1034700003F1331303F54C535846C4F83831FFF7C2
:10348000E7FC04F678530BE0E05D0208C85D020833
:10349000CD2F0008DFED64FFEEEEEEFF996600FF32
:1034A000C4F8F430082258461793009538230C21AD
:1034B000FFF7AEFB5946384606F060FB38AD0E22EA
:1034C00030461221FFF797FB31462846C4F86CA11D
:1034D000A4F8708109F0C2FA95E8070004F5BC73FE
:1034E0003DADDFF864B9CDF8F4B083E807001523EB
:1034F00030462946ADF8F83009F058FD31463846D7
:10350000322606F03BFB33465422189800960E21D3
:10351000FFF77EFB1899384606F030FB33468A22C7
:10352000199800960E21FFF773FB1999384606F09B
:1035300025FB33468A221A9800964421FFF768FB40
:103540001A99384606F01AFB33468A221B980096D1
:103550007A21FFF75DFB1B99384606F00FFB3346D7
:103560008A221C980096B021FFF752FB1C9938461E
:1035700006F004FB3346C0221D9800960E21FFF78B
:1035800047FB1D99384606F0F9FA3346C0221E98CB
:1035900000964421FFF73CFB1E99384606F0EEFAF0
:1035A0003346C0221F9800967A21FFF731FB1F99FE
:1035B00038464FF0FF3906F0E1FA3346C022209832
:1035C00000960E21FFF724FB2099C4F80C9338468F
:1035D00006F0D4FA3346C02221980096B021FFF7B6
:1035E00017FB2199384606F0C9FA3346F62222988D
:1035F00000960E21FFF70CFB2299384606F0BEFA22
:103600003346F622239800964421FFF701FB2399C5
:10361000384606F0B3FA3346F622249800967A210B
:10362000FFF7F6FA2499384606F0A8FA3346F62250
:1036300025980096B021FFF7EBFA2599384606F059
:103640009DFA33465422269800964421FFF7E0FA6B
:103650002699384606F092FA334654222798009667
:103660007A21FFF7D5FA2799384606F087FA3346CC
:10367000542228980096B021FFF7CAFA28993846B4
:1036800006F07CFA33465422299800960E21FFF763
:10369000BFFA2999C4F89894384606F06FFA334671
:1036A00054222A9800964421FFF7B2FA2A99C4F8C6
:1036B000C494384606F062FA334654222B9800969A
:1036C0007A21FFF7A5FA2B99C4F8F094384606F052
:1036D00055FA334654222C980096B021FFF798FAF9
:1036E0002C99C4F81C95384606F048FA33468A22CD
:1036F0002D9800960E21FFF78BFA2D99C4F8489566
:10370000384606F03BFA33468A222E98009644212A
:10371000FFF77EFA2E99C4F87495384606F02EFA13
:1037200033468A222F9800967A21FFF771FA2F9953
:10373000C4F8A095384606F021FA33468A2230981C
:103740000096B021FFF764FA3099C4F8CC9538465A
:1037500006F014FA3346C022319800967A21FFF71A
:1037600057FA3199C4F8F895384606F007FA334607
:10377000C02232980096B021FFF74AFA3299C4F875
:103780002496384606F0FAF93346F6223398009626
:103790000E21FFF73DFA3399C4F85096384606F0EB
:1037A000EDF93346F622349800964421FFF730FABB
:1037B0003499C4F87C96384606F0E0F93346F62290
:1037C000359800967A21FFF723FA3599C4F8A89620
:1037D000384606F0D3F93346F62236980096B021E3
:1037E000FFF716FA3699C4F8D496384606F0C6F9AB
:1037F0003346C022379800964421FFF709FA3799DB
:10380000C4F8009738464FF0190906F0B7F9334667
:1038100060220C210498CDF80090FFF7F9F9C4F864
:1038200034A7A4F838872846FFF704FC95E807007A
:1038300004F5E86383E8070014230498ADF8F83032
:103840002946CDF8F4B009F0B1FB0499384606F0EA
:1038500095F93346602244210598CDF80090FFF792
:10386000D7F9C4F880A7A4F884872846FFF7E2FBBD
:1038700095E8070004F28C7383E80700132305988A
:10388000ADF8F8302946CDF8F4B009F08FFB059972
:10389000384606F073F9334660227A210698CDF84F
:1038A0000090FFF7B5F9C4F8CCA7A4F8D087284654
:1038B000FFF7C0FB95E8070004F5FB6383E807000A
:1038C00012230698ADF8F8302946CDF8F4B009F087
:1038D0006DFB0699384606F051F933466022B02157
:1038E0000798CDF80090FFF793F9C4F818A8A4F84A
:1038F0001C882846FFF79EFB95E8070004F6240382
:1039000083E8070011230798ADF8F8302946CDF871
:10391000F4B009F04BFB0799384606F02FF933460F
:1039200096220E210898CDF80090FFF771F9C4F89F
:1039300064A8A4F868882846FFF77CFB95E8070090
:1039400004F5076383E8070010230898ADF8F83002
:103950002946CDF8F4B009F029FB0899384606F05D
:103960000DF93346962244210998CDF80090FFF7CF
:103970004FF9C4F8B0A8A4F8B4882846FFF75AFB5A
:1039800095E8070004F6BC0383E807000F230998B5
:10399000ADF8F8302946CDF8F4B009F007FB0999E5
:1039A000384606F0EBF8334696227A210A98CDF88D
:1039B0000090FFF72DF9C4F8FCA8A4F80089284668
:1039C000FFF738FB95E8070004F6081383E80700C3
:1039D0004FF00E030A98ADF8F8302946CDF8F4B050
:1039E00009F0E4FA0A99384606F0C8F833469622F8
:1039F000B0210B98CDF80090FFF70AF9C4F848A958
:103A0000A4F84C892846FFF715FB95E8070004F653
:103A1000541383E807000D230B98ADF8F8302946BE
:103A2000CDF8F4B009F0C2FA0B99384606F0A6F8C2
:103A30003346CC220E210C98CDF80090FFF7E8F821
:103A4000C4F894A9A4F898892846FFF7F3FA95E8F2
:103A5000070004F51A6383E807004FF00C030C9885
:103A6000ADF8F8302946CDF8F4B009F09FFA0C997A
:103A7000384606F083F83346CC2244210D98CDF821
:103A80000090FFF7C5F8C4F8E0A9A4F8E489284637
:103A9000FFF7D0FA95E8070004F6EC1383E8070077
:103AA0000B230D98ADF8F8302946CDF8F4B009F0A5
:103AB0007DFA0D99384606F061F83346CC227A211A
:103AC0000E98CDF80090FFF7A3F8C4F82CAAA4F83C
:103AD000308A2846FFF7AEFA95E8070004F6382347
:103AE00083E807004FF00A030E98ADF8F830294636
:103AF000CDF8F4B009F05AFA0E99384606F03EF8BF
:103B00003346CC22B0210F98CDF80090FFF780F813
:103B1000C4F878AAA4F87C8A2846FFF78BFA95E8BF
:103B2000070004F6842383E8070004F66453049333
:103B3000BB4B1B682BB9BB4BBB4A6021BB481FF07A
:103B40000FFEBB4B1B88022B03D8BA4BB64A612130
:103B5000F4E7B94B0221186800F0E2FAB74A0346CD
:103B60000A2104980FF068FD049B0F98C4F8903A5E
:103B700029460923ADF8F830CDF8F4B009F016FA6B
:103B80000F99384605F0FAFF33461098CDF80090AB
:103B90004FF481720E21FFF73BF8C4F8C4AAA4F8D1
:103BA000C88A2846FFF746FA95E8070004F52D6312
:103BB00083E807004FF008031098ADF8F830294665
:103BC000CDF8F4B009F0F2F91099384605F0D6FFB7
:103BD00033461198CDF800904FF481724421FFF7DD
:103BE00017F8C4F810ABA4F8148B2846FFF722FA94
:103BF00095E8070004F61C3383E8070007231198B3
:103C0000ADF8F8302946CDF8F4B009F0CFF91199A4
:103C1000384605F0B3FF33461298CDF800904FF4C4
:103C200081727A21FEF7F4FFC4F85CABA4F8608BD4
:103C30002846FFF7FFF995E8070004F6683383E8A4
:103C4000070006231298ADF8F8302946CDF8F4B0F5
:103C500009F0ACF91299384605F090FF33461398F5
:103C6000CDF800904FF48172B021FEF7D1FFC4F877
:103C7000A8ABA4F8AC8B2846FFF7DCF995E8070061
:103C800004F6B43383E807004FF005031398ADF84A
:103C9000F8302946CDF8F4B009F088F91399384680
:103CA00005F06CFF0C2214980092742332467821A0
:103CB000FEF7AEFFC4F8F4ABA4F8F88B2846FFF784
:103CC000B9F995E8070004F5406383E80700042389
:103CD0001498ADF8F8302946CDF8F4B009F066F93B
:103CE0001499384605F04AFF0C2215980092742367
:103CF0003E227821FEF78CFFC4F840ACA4F8448C37
:103D00002846FFF797F995E8070004F64C4383E847
:103D1000070003231598ADF8F83029462126CDF881
:103D2000F4B009F043F91599384605F027FF4246EB
:103D30004146009604F549605823FEF769FF4FF0AD
:103D40000503A4F8C03C3E4BC4F8C43C03F54C53F7
:103D50003333C4F8C83CA3F5CC43663BC4F8CC3C31
:103D600003F1331303F54C531698C4F8D03CFFF716
:103D70006FF8179BC4F88C3C1698009658230822BD
:103D80008A21FEF745FF1699384605F0F7FE02989E
:103D90000E228F21FEF72FFF38AE4FF0FF3302992E
:103DA000C4F8043D3046A4F8088D08F057FE96E8A4
:103DB0000700029BCDF8F4B03C3383E807000123F1
:103DC0000298ADF8F830294609F0F0F80299384623
:103DD00005F0D4FE0398A0224946FEF70CFF194BCC
:103DE0000399C4F84C3D3046A4F8508D08F036FED7
:103DF00096E80700039BCDF8F4B03C3383E8070056
:103E00000398ADF8F880294609F0D0F838460399B0
:103E100084F8418D05F0B2FE204641B0BDE8F08F38
:103E2000B83501201F540208215502089C5402088D
:103E3000BC350120E3540208C43501206C5502084A
:103E4000996600FF0000EDFF485B02087047000024
:103E500030B5174D2C6814F001048FB0BFF35B8FA1
:103E600023D128461EF042FDF8B13F230993114BA0
:103E70000893114B07930223CDE905330122042354
:103E8000CDE9033228230D49009308223B23CDE9D5
:103E90000B44CDE901440A480A94FEF741FE094863
:103EA0001FF07CFC28461EF02DFD05480FB030BDEC
:103EB0004C2700204882020854820208707F0208C2
:103EC000502700204D3E00087047000030B5174DC8
:103ED0002C6814F001048FB0BFF35B8F22D1284609
:103EE0001EF004FDF0B13F230993114B0893114BD1
:103EF00007930123CDE9054304930423CDE902434D
:103F00000A230D49009316220C23CDE90B440B48DC
:103F10000A940194FEF704FE09481FF03FFC28466E
:103F20001EF0F0FC05480FB030BD00BF7C2700201C
:103F30004C82020858820208E07F02088027002095
:103F4000C93E00087047000030B5164D2C6814F0CB
:103F500001048FB0BFF35B8F21D128461EF0C6FC51
:103F6000E8B13F230993104B0893104B10491148B7
:103F70000A94CDE9064301220423CDE90332142338
:103F800000931622CDE90B44CDE901440594FEF7D8
:103F9000C7FD09481FF002FC28461EF0B3FC054887
:103FA0000FB030BDAC270020508202085C820208AE
:103FB00014810208B0270020453F00080020704708
:103FC000002070470EB403B503AB002153F8042B57
:103FD00001930CF007FF02B05DF804EB03B07047EB
:103FE0000CB407B504AB53F8042B01930CF0FAFEA4
:103FF00003B05DF804EB02B070470000436C10B5ED
:10400000044673B3038F2BB9184B194AC5211948BD
:104010001FF0A6FBC38E00EB43035B8C0BB30EF0CB
:1040200062FD238F012B03D8134B144ACB21EEE7FB
:10403000E28E531C9BB2092B194688BFA3F10A01DB
:1040400004EB410140F63F10498C814209D10A2B13
:1040500004EB420228BF002304EB4303508C588436
:1040600051842046BDE810400EF040BC6F55020858
:1040700078550208235602086D5602087B5602083E
:104080000EF0FBBB10B586B002AC84E806001A4601
:104090000AAB05930193099B00932146089B0BF003
:1040A000B7F906B010BD000038B518BB124B134865
:1040B0001C681349B4B12268224402606268224439
:1040C0000A60A26814440F4B00221A8000F038F8EE
:1040D000054600F033F80C4B1C600C4B1D600C4B7C
:1040E000188007E00B4B03600B4B0B600B4B1C68FD
:1040F000002CE8D138BD00BFE8270020E0270020D1
:10410000DC270020E4270020B8350120C03501203D
:10411000BC350120BC8202086082020810830208BC
:10412000044B1B6853F82100034B1B6803EB400052
:10413000704700BFDC270020E027002017207047D1
:1041400000487047EC27002010B5FFF7FDFE044C37
:104150002060FFF77DFE6060FFF7B8FEA06010BD35
:10416000EC27002010B5002404600C6014601C6073
:1041700010BD704710B54FF4AE7104461EF0B4FB8D
:10418000204610BD10B50446D0F8580100F013F8D1
:104190002046BDE810400BF01FBE000010B50446DD
:1041A000FEF734FC014B2360204610BD1C5E020864
:1041B00000220260704770477047043870477047AC
:1041C00010B5102104461EF08FFB204610BDA0F153
:1041D0000400F5E700228260024A02601832426061
:1041E000C1607047705E02087047000010B5034B55
:1041F00003600446FEF7CAFC204610BD985E020824
:1042000010B50446FFF7F2FF2046F0211EF06CFBCC
:10421000204610BD10B50446FEF766FD014B236035
:10422000204610BD985E0208FEF7B1BC7047043806
:104230007047704710B5102104461EF055FB20460C
:1042400010BDA0F10400F5E700228260024A02607E
:1042500018324260C1607047CC5E020870470000AF
:1042600010B5034B03600446FEF7EDFD204610BD7C
:10427000F45E020810B50446FFF7F2FF204640F650
:1042800034711EF031FB204610BD000010B504460D
:10429000FEF736FF064B23604022002104F68850CB
:1042A0001FF087FC0023C4F8C83D204610BD00BFA6
:1042B000F45E020870B50023A0B0054600F68451F4
:1042C0001C460846002250F8046F2EB920AE06EBBB
:1042D000C40646E9203201340132042AF3D1013305
:1042E000042B01F11001ECD1002C1BDD00F076FD58
:1042F00020AAB0FBF4F303FB140302EBC30353E95E
:10430000206400F06BFD0A2304EB8604B0FBF3F29B
:1043100002FB1300002804F2623414BF02230423BA
:1043200045F8243020B070BD2DE9F0410022224E26
:1043300000F6885517464FF0000E00E0E6460EF1F5
:10434000010C634619016C5894B302EB8E0100EB2B
:104350008101D1F8888DB8F1000F09D102EB8303F8
:1043600003F26233C1F8884DF44640F82380E5E754
:10437000444513D102EB830303F262336400C1F8B6
:10438000884D40F82370D0F8C83DD1F8881D0B4403
:104390003168C0F8C83D8B4200DD3360BCF1030FCB
:1043A000CCD10132042A05F10405C4D1BDE8F08165
:1043B0000133042BC6D1F1E7502400202DE9F04150
:1043C0000022224E00F6885517464FF0030E00E0FB
:1043D000E6460EF1FF3C634619016C5894B302EBBC
:1043E0008E0100EB8101D1F8888DB8F1000F09D161
:1043F00002EB830303F26233C1F8884DF44640F8C0
:104400002380E5E7444513D102EB830303F26233D3
:104410006400C1F8884D40F82370D0F8C83DD1F849
:10442000881D0B443168C0F8C83D8B4200DD336005
:10443000BCF1000FCCD10132042A05F10405C4D12E
:10444000BDE8F081013BC7D2F2E700BF5024002055
:104450002DE9F0430024224F00F68856A4464FF081
:104460000008A50000E0F04608F1010E734656F87A
:10447000231081B305EB080200EB8202D2F8889D7D
:10448000B9F1000F08D12B4403F26233C2F8881D42
:10449000C64640F82390E6E7494512D12B4403F283
:1044A00062334900C2F8881D40F823C0D0F8C83DE7
:1044B000D2F8882D13443A68C0F8C83D934200DD15
:1044C0003B60BEF1030FCED10134042C06F110067F
:1044D000C5D1BDE8F0830133042BC8D1F1E700BF9B
:1044E000502400202DE9F0430024214F00F6885687
:1044F000A4464FF00308A50000E0F04608F1FF3E97
:10450000734656F8231081B305EB080200EB8202D4
:10451000D2F8889DB9F1000F08D12B4403F2623321
:10452000C2F8881DC64640F82390E6E7494512D1F7
:104530002B4403F262334900C2F8881D40F823C0BF
:10454000D0F8C83DD2F8882D13443A68C0F8C83D69
:10455000934200DD3B60BEF1000FCED10134042C4C
:1045600006F11006C5D1BDE8F083013BC9D2F2E7E0
:104570005024002000F6945210B500F6D45314468F
:10458000A4F1100151F8040FB0B1A142FAD101F128
:1045900010049C42F4D10021A2F10C03032903D0A2
:1045A0001C68186984420DD0934206D10131042958
:1045B00003F11002F0D1012010BD1C6853F8040F64
:1045C0008442EBD10020F7E72DE9F041044600F6E4
:1045D0000C75D0F8C83D5B4ADFF868810A2128468F
:1045E0000FF02AF8C4F80C5C04F6C4300CF024FD7B
:1045F000554B544A1B6804F572650A2128460FF092
:104600001BF8C4F8585C04F541600CF015FD002659
:1046100004F6CC57354604F68853142053F8253059
:1046200000FB057083B9494A0A210FF005F86B1E9B
:104630000E2B0ED8DFE803F01B222930373E454C05
:10464000535A61686F767D0042460A210EF0F4FFEE
:10465000EDE7C4F84C7704F204700CF0EDFC013582
:10466000331DAB42D7D1102D6AD02E46D2E704F5C8
:104670005E63C4F8983704F5EA60EEE704F6F45395
:10468000C4F8E43704F29C70E7E704F60863C4F862
:10469000303804F5FD60E0E704F61C63C4F87C38AC
:1046A00004F63400D9E704F56363C4F8C83804F5A8
:1046B0000860D2E704F64463C4F8143904F6CC0069
:1046C000CBE704F65863C4F8603904F61810C4E761
:1046D00004F66C63C4F8AC3904F66410BDE704F565
:1046E0006863C4F8F83904F51B60B6E704F6946310
:1046F000C4F8443A04F6FC10AFE704F6A863C4F823
:10470000903A04F64820A8E704F6BC63C4F8DC3A03
:1047100004F69420A1E704F56D63C4F8283B04F582
:104720002E609AE704F6E463C4F8743B04F62C3078
:1047300093E704F6F863C4F8C03B04F678308CE7DE
:10474000BDE8F0814D570208502400203F50020878
:1047500010B540220446002100F688501FF029FAC7
:104760000023C4F8C83D84F8413D04F61C500CF009
:1047700063FC2046FFF79EFD2046FFF79BFD204689
:10478000BDE81040FFF720BF10B50446FEF75CFB04
:104790002046BDE81040FFF7DBBF0000044BD0F817
:1047A000C82D19688A42C8BF1A60FFF7D1BF00BF81
:1047B0005024002037B51E4D0446286803F086FAC1
:1047C00008B34FF0FF33286800220DF1070103F012
:1047D0004DFA9DF80730522B25D016D8442B1AD00D
:1047E0004C2B1CD02046FFF765FD2046FFF7ECFE62
:1047F0002046FFF7BFFE30B1012384F8413D04F6A7
:104800001C500CF019FC03B030BD552BEAD12046EA
:10481000FFF78AFDE6E72046FFF7D0FDE2E72046F6
:10482000FFF716FEDEE72046FFF75CFEDAE700BF83
:1048300040240020F02070474FF4A07070472920DA
:10484000FDF77CBA2820FDF779BA08B5FDF74AFADA
:10485000CA20FDF773FAC320FDF754FA0820FDF7CC
:1048600051FA5020FDF74EFACF20FDF767FA0020ED
:10487000FDF748FAC120FDF745FA3020FDF742FA6E
:10488000ED20FDF75BFA6420FDF73CFA0320FDF70D
:1048900039FA1220FDF736FA8120FDF733FAE820C5
:1048A000FDF74CFA8520FDF72DFA0020FDF72AFAD6
:1048B0007820FDF727FACB20FDF740FA3920FDF7E5
:1048C00021FA2C20FDF71EFA0020FDF71BFA3420F8
:1048D000FDF718FA0220FDF715FAF720FDF72EFA7A
:1048E0002020FDF70FFAEA20FDF728FA0020FDF757
:1048F00009FA0020FDF706FAB120FDF71FFA0020A3
:10490000FDF700FA1B20FDF7FDF9B620FDF716FABA
:104910000A20FDF7F7F9A220FDF7F4F9C020FDF712
:104920000DFA1020FDF7EEF9C120FDF707FA10206F
:10493000FDF7E8F9C520FDF701FA4520FDF7E2F99A
:104940001520FDF7DFF9C720FDF7F8F99020FDF7F6
:10495000D9F93620FDF7F2F9C820FDF7D3F9F22096
:10496000FDF7ECF90020FDF7CDF9B020FDF7E6F9F1
:10497000C220FDF7C7F9B620FDF7E0F90A20FDF7E0
:10498000C1F9A720FDF7BEF92720FDF7BBF90420E8
:10499000FDF7B8F92A20FDF7D1F90020FDF7B2F9AB
:1049A0000020FDF7AFF90020FDF7ACF9EF20FDF78F
:1049B000A9F92B20FDF7C2F90020FDF7A3F900208B
:1049C000FDF7A0F90120FDF79DF93F20FDF79AF9C9
:1049D000F620FDF7B3F90120FDF794F90020FDF76B
:1049E00091F90620FDF78EF92C20FDF7A7F9C820D4
:1049F000FDF7F2F92620FDF7A1F90120FDF782F974
:104A0000E020FDF79BF90F20FDF77CF92920FDF749
:104A100079F92420FDF776F90C20FDF773F90E20C3
:104A2000FDF770F90920FDF76DF94E20FDF76AF9E1
:104A30007820FDF767F93C20FDF764F90920FDF7C0
:104A400061F91320FDF75EF90520FDF75BF91720EA
:104A5000FDF758F91120FDF755F90020FDF752F93F
:104A6000E120FDF76BF90020FDF74CF91620FDF76A
:104A700049F91B20FDF746F90420FDF743F9112001
:104A8000FDF740F90720FDF73DF93120FDF73AF930
:104A90003320FDF737F94220FDF734F90520FDF703
:104AA00031F90C20FDF72EF90A20FDF72BF928200B
:104AB000FDF728F92F20FDF725F90F20FDF722F942
:104AC0001120FDF73BF9C820FDF786F92920FDF7F5
:104AD00035F9BDE808402C20FDF730B908B5FDF7E1
:104AE00001F90321D320FDF745F980B208BD10B5C7
:104AF000C4B2022203212046FDF7AAF80A20FDF7DE
:104B0000EFF8204600220321FDF7A2F8BDE810408F
:104B10000220FDF7E5B838B50446E4B2FDF796F893
:104B200000212046FDF7ACF8012105462046FDF79F
:104B3000A7F840EA052080B238BD10B5C4B24021C4
:104B40002046FDF79DF8030607D54C212046FDF7CA
:104B500097F8003818BF012010BD01224B212046D4
:104B6000FDF776F8204600224B21FDF771F8002072
:104B7000F2E773B50423C4B20E461546D7210DEBF8
:104B800003022046FDF796F8019B1BBA1A0DC3F3EA
:104B90000B23328020462B8001224B21FDF758F851
:104BA00000224B212046FDF753F802B070BD0000F3
:104BB00010B50A4A1378984204460DD051788842BD
:104BC0000AD00BB141B90123D454FDF73FF8204678
:104BD000BDE81040FFF78BBF10BD00BFF8270020D5
:104BE00010B5C4B209212046FDF74AF840F0010291
:104BF000D2B220460921BDE81040FDF729B810B512
:104C0000C4B209212046FDF73BF8092100F0FE025D
:104C10002046BDE81040FDF71BB838B5C4B20D46BC
:104C200020460A21FDF72CF840EA0502D2B22046C0
:104C30000A21BDE83840FDF70BB810B50446FDF772
:104C400006F820461F21FFF7E8FF2046BDE8104088
:104C5000FFF7C6BF38B5C4B20D4620460A21FDF79E
:104C60000FF820EA0502D2B220460A21BDE83840FA
:104C7000FCF7EEBF10B50446FFF7C1FF20461F2129
:104C8000BDE81040FFF7E6BF10B5C0B20C460B21DF
:104C9000FCF7F6FF204010BD1F21FFF7F5BF0A46C5
:104CA000C0B20B21FCF7D4BF1F21FFF7F8BF38B506
:104CB000C4B20D4620461721FCF7E2FF20EA0502A8
:104CC000D2B220461721BDE83840FCF7C1BF70B50D
:104CD000C4B2064604212046FCF7D2FF042100F0AE
:104CE000FB0205462046FCF7B3FF3046F021FFF7F4
:104CF000DEFF05F0F80220460421FCF7A9FF492257
:104D000020212046FCF7A4FF0220FCF7E9FF204603
:104D100001222121FCF79CFF20469A224121FCF729
:104D200097FF204601224A21FCF792FF20460122EC
:104D30004B21FCF78DFF204600224B21FCF788FF1A
:104D4000204601225621FCF783FF204601225821EC
:104D5000FCF77EFF204601224021FCF779FF204628
:104D6000FF220B21FCF774FFBDE870400220FCF726
:104D7000B7BF0000054BD3F8882042F47002C3F897
:104D800088204FF000629A60704700BF00ED00E09D
:104D900008B50B4B1A6842F400721A601A6842F4A4
:104DA00080621A601A6842F480721A60032000F070
:104DB00045FA0020FDF75AFBFDF796F8002008BDE4
:104DC000003C0240034A044B11681B780B441360FB
:104DD000704700BFFC27002078000020014B1868B6
:104DE000704700BFFC27002038B50446FFF7F6FFE8
:104DF000631C1CBF054B1B78054618BFE418FFF762
:104E0000EDFF431BA342FAD338BD00BF780000205A
:104E100038B50446002800F09B80056C25B9FDF7E5
:104E200083F8656484F83C50236CDB0600F18E80C7
:104E3000236C23F4885323F0020343F0020323641A
:104E4000444B5A6822F440325A605A6861680A43F7
:104E50005A60236821695A6822F480725A605A683D
:104E600042EA01225A605A68A16822F040725A60F0
:104E70005A680A435A609A68E16822F400629A60AC
:104E80009A680A439A603449A26A8A4252D0996861
:104E900021F07061996099680A439A609A68E16AA2
:104EA00022F040529A609A680A439A609A6822F007
:104EB00002029A609A68217E42EA41029A6094F85E
:104EC0002020002A3ED05A68616A42F400625A608B
:104ED0005A6822F460425A605A68013942EA413203
:104EE0005A60DA6AE16922F47002DA62DA6A013938
:104EF00042EA0152DA629A6822F400729A609A6871
:104F000094F8301042EA41229A609A68616922F46A
:104F100080629A609A68002042EA81229A60606406
:104F2000236C23F0030343F001032364002384F87C
:104F30003C3038BD9A6822F070629A609A6822F01C
:104F40004052B2E75A6822F40062C9E70120EDE757
:104F50000120EEE7002301400100000F82B0002392
:104F6000019390F83C30012B69D0012380F83C304C
:104F700003689A68D2070BD59A68D1071AD4036CD4
:104F800043F010030364436C43F0010343644CE0BB
:104F90009A682C4942F001029A602B4A1268B2FBCF
:104FA000F1F202EB42020192019A002AE4D0019A46
:104FB000013AF8E7026C22F4E06222F0010242F4C6
:104FC000807202645A68520541BF026C22F440525A
:104FD00042F480520264026C12F480521CBF426C94
:104FE00022F006024264002280F83C206FF0220288
:104FF0001A60164A516811F01F0F15491CD18B42D7
:1050000007D001F580718B420CD1526812F01F0F4E
:105010000BD19A6812F0405F07D19A6842F0804243
:105020009A6002E00B498B4202D0002002B0704728
:10503000526812F0100FEBE78B42F6D1E9E702203D
:10504000F4E700BF40420F0074000020002301403D
:10505000002001400022014003689A68520570B5A3
:1050600004460D460BD59B68DE0508D5036C43F05E
:1050700020030364002380F83C30012070BDFFF75B
:10508000ADFE064623681A6891070CD56FF0120230
:105090001A60226C42F4007222649A6812F0405F37
:1050A00017D00020EAE7681CEDD065B923681B68BB
:1050B00013F00203E6D1226C84F83C3042F0040283
:1050C00022640320DAE7FFF789FE801BA842EDD8AF
:1050D000D8E7227E002AE4D1DA6A12F4700F02D0F7
:1050E0009B685A05DDD4236C23F480732364236CFE
:1050F000DB04D6D4236C43F001032364D1E70368B7
:10510000D86C7047F7B50023019390F83C30012B21
:10511000054600F08680012380F83C3008682B6843
:105120008E68092884B233D904EB4402DF681E3A42
:105130004FF0070C0CFA02FC27EA0C07DF60DF686F
:1051400006FA02F23A43DA604968062901EB810265
:105150002DD8596B053A1F26964021EA060159635E
:10516000596B04FA02F20A435A632F4A93420AD156
:10517000122837D12D4B5A6822F400025A605A681F
:1051800042F480025A60002085F83C0003B0F0BD74
:105190001A6900EB400C072707FA0CF722EA07020E
:1051A0001A611A6906FA0CF616431E61CCE70C293F
:1051B0004FF01F010BD81E6B233A914026EA0101E4
:1051C0001963196B04FA02F20A431A63CDE7DE6A27
:1051D000413A914026EA0101D962D96A94400C43D0
:1051E000DC62C2E7124B984201D01128CBD10F4BA1
:1051F0005A6822F480025A605A6842F400025A60E7
:105200000B4B9842BFD10B4B0B4A1B68B3FBF2F31D
:105210000A2253430193019B002BB4D0019B013B15
:10522000F8E70220B2E700BF002001400023014060
:10523000120000107400002040420F000749CA68A5
:1052400022F4E0620302120403F4E063120C13433D
:1052500043F0BF6343F40033CB60704700ED00E0E0
:10526000164B30B5DC68C4F30224C4F10703251DD6
:10527000042B28BF0423062D4FF0FF358CBF033CC1
:10528000002405FA03F321EA0303A54022EA0502FC
:10529000A340002843EA0203ACBF00F16040084A83
:1052A0004FEA0313B8BF00F00F00DBB2AABF00F54E
:1052B0006140135480F8003330BD00BF00ED00E0C2
:1052C00014ED00E0002807DB044A4109012300F047
:1052D0001F00834042F82130704700BF00E100E02A
:1052E00010B5044650B1437903F0FF0213B90271BF
:1052F000FCF772FE01236371002010BD0120FCE762
:1053000010B5044620B390F8393003F0FF021BB902
:1053100080F83820FCF778FE022384F839302368BF
:1053200061681A6822F440320A431A605A6BA16815
:1053300022F007020A435A631A6CE1686FF30D0208
:105340000A431A6400200123E06384F8393010BD59
:105350000120FCE770477047036870B55E681D6800
:10536000F207044614D5E90512D51A6822F48072B2
:105370001A60C26B42F00102C26301229A600423E8
:1053800080F83930002380F83830436903B19847FA
:10539000B20616D5AB0414D523681A6822F400525D
:1053A0001A6020229A60E36B43F00203E363042354
:1053B00084F83930002384F8383063690BB1204613
:1053C0009847300716D5290514D523681A6822F4A2
:1053D00000621A6008229A60E36B43F00403E363FF
:1053E000042384F83930002384F8383063690BB122
:1053F0002046984772070BD56B0509D523681A68B4
:1054000022F480621A6004229A602046FFF7A2FF0D
:10541000B00714D5A90512D523681A6822F40072C2
:105420001A6002229A60E36BE363012384F8393047
:10543000002384F8383023690BB120469847F206E0
:1054400013D5EB0411D523681A6822F480521A6030
:1054500010229A60E36BE363012384F83930002360
:1054600084F838302046FFF776FF70BDF0B590F82D
:105470003820012A03464FF002002BD0012283F886
:10548000382083F8390003EB0112D2E90740556A4E
:10549000174F44EA0040093C012C9CBF05F07F42B5
:1054A00010434FEA01161A6888BF40EA056091B9B7
:1054B000516A394001435162012C9969916103D8C5
:1054C000596A21F07F4191620122002083F839203E
:1054D00083F83800F0BDD16939400143D161991991
:1054E000012C896911619CBF25F07F451562EBE7AE
:1054F000F0FFFC002DE9F74FDFF8BC916C4A002368
:105500000D6801249C4004EA0506AC4340F0B780D6
:105510004D68032705F003044FEA430807FA08FC27
:10552000671E012F6FEA0C0C34D8876807EA0C0E4F
:10553000CF6807FA08F747EA0E078760476827EA47
:10554000060EC5F300179F4047EA0E074760C7687D
:1055500007EA0C0E8F6807FA08F747EA0E07022CD5
:10556000C76019D14FEAD30A00EB8A0A03F0070B90
:10557000DAF820704FEA8B0B4FF00F0E0EFA0BFE8D
:1055800027EA0E0E0F6907FA0BF747EA0E07CAF86B
:10559000207001E0032CDAD1076804FA08F407EA66
:1055A0000C073C4315F4403F046068D0002401948C
:1055B000D9F8444044F48044C9F84440D9F8444000
:1055C00023F0030707F1804704F4804407F59C3774
:1055D000019403F0030C019CD7F808E04FEA8C0C0F
:1055E0000F2404FA0CF42EEA040E324CA0424DD0E3
:1055F00004F58064A0424BD004F58064A04249D0F9
:1056000004F58064A04247D004F58064A04245D0F0
:1056100004F58064A04243D004F58064A04241D0E8
:1056200004F58064A0423FD004F58064A0423DD0E0
:1056300004F58064A04214BF0A24092404FA0CF47F
:1056400044EA0E04BC609468F74315F4801F0CBF55
:105650003C4034439460D46815F4001F0CBF3C40B8
:105660003443D460546815F4003F0CBF3C403443CD
:1056700054601468ED0354BF3C403443146001335C
:10568000102B7FF43DAF03B0BDE8F08F0024D5E7C9
:105690000124D3E70224D1E70324CFE70424CDE794
:1056A0000524CBE70624C9E70724C7E70824C5E794
:1056B000003C0140000002400038024003691942EA
:1056C00014BF0120002070470AB1816170470904AE
:1056D000FBE7436901EA030221EA030141EA0241CF
:1056E0008161704701684B6913F480634FF00002D9
:1056F00010D06FF480634B612023026380F83D304B
:1057000080F83E20036C80F83C2043F004030364DF
:1057100001207047184670472DE9F84606460F46A7
:1057200091461D464FEA114A3368BAF1010F0CBF8A
:105730005C699C6927EA0404A4B2B4FA84F464099D
:10574000A14501D0002025E06A1CEED0FFF746FB02
:10575000089BC01AA84201D8002DE5D13368BAF1E0
:10576000010F0CBF5B699B6927EA03039BB2B3FA85
:1057700083F35B099945D7D100232022336386F850
:105780003D2086F83E30326C86F83C3042F02002F4
:1057900032640120BDE8F8862DE9F04104460F4649
:1057A000164698462568686927EA000080B2C0B1AD
:1057B0006B695A0517D52B6843F400732B606FF49F
:1057C00080636B6120220023236384F83D2084F8EA
:1057D0003E30236C43F004032364002384F83C3000
:1057E0000120BDE8F081731CDDD0FFF7F7FAA0EBD4
:1057F0000800B04201D8002ED4D123685A6927EAA4
:10580000020292B2002ACDD000232022236384F822
:105810003D2084F83E30236C1343DDE770B5044629
:105820000D46164623685B691B0601D500201EE065
:105830002046FFF757FFC8B96A1CF3D0FFF7CEFA2E
:10584000801BA84201D8002DECD123685B6913F0BE
:105850008003E7D12022236384F83D2084F83E3082
:10586000226C84F83C3042F020022264012070BD9A
:105870002DE9F0431546026885B0DDE90C789946BC
:10588000136843F4807313600E463B46CDF80080E6
:1058900000224FF001110446FFF73EFF236838B1A4
:1058A0001B68DB0502D54FF400732364032620E058
:1058B00006F0FE061E611A4943463A462046FFF7A7
:1058C0006BFFA8B9236803905A6903929B690393FD
:1058D000424639462046039BFFF7A0FF064660B1CB
:1058E000236C042B01BF2268136843F40073136018
:1058F0000126304605B0BDE8F083B9F1010F2368F9
:1059000002D1EDB21D61F4E72A0A1A613946424616
:105910002046FFF783FF0028E2D12368F1E700BFAC
:10592000020001002DE9FF479A46036815461A68F0
:1059300042F480621A601A68DDE90C7842F48072E1
:105940001A600E463B46CDF8008000224FF0011150
:105950000446FFF7E1FE236838B11B68DB0544BF4E
:105960004FF400732364032021E05FFA86F906F008
:10597000FE061E612B4943463A462046FFF70CFFC0
:10598000A0B9236803905A6903929B690393424626
:1059900039462046039BFFF741FF58B1236C042B87
:1059A00001BF2268136843F400731360012004B040
:1059B000BDE8F087BAF1010F23681AD1EDB2424673
:1059C0001D6139462046FFF729FF02460028E5D130
:1059D00021680B6843F480730B602046CDF800808B
:1059E0003B464FF00111FFF797FE226860B1136844
:1059F000B4E72A0A1A61394642462046FFF70EFFED
:105A00000028CBD12368D9E749F001031361054988
:105A100043463A462046FFF7BFFE003818BF012034
:105A2000C5E700BF0200010070B504460D461646EA
:105A300023685B695B0701D500201EE02046FFF765
:105A400051FEC8B96A1CF3D0FFF7C8F9801BA84201
:105A500001D8002DECD123685B6913F00403E7D172
:105A60002022236384F83D2084F83E30226C84F8A1
:105A70003C3042F020022264012070BD70B5044623
:105A80000D46164621684B6913F0400301D00020F3
:105A900011E04A69D2060FD56FF010024A61202248
:105AA000236384F83D2084F83E30236C2364002374
:105AB00084F83C30012070BDFFF790F9801BA842AC
:105AC00001D8002DDED123685B6913F04003D9D1E2
:105AD0002022236384F83D2084F83E30236C134356
