:020000040800F2
:10000000000003206D060008ED250008EF2500081C
:10001000F1250008F3250008F52500080000000080
:10002000000000000000000000000000318D00080A
:10003000F725000800000000C18D00083B8600087D
:10004000BD060008BD060008BD060008BD06000884
:10005000BD060008BD060008BD060008BD06000874
:10006000BD060008BD060008BD060008BD06000864
:10007000BD060008BD060008BD060008BD06000854
:10008000BD060008BD060008BD060008BD06000844
:10009000BD060008BD060008BD060008BD06000834
:1000A000BD060008BD060008BD060008BD06000824
:1000B000BD060008BD060008BD060008BD06000814
:1000C000BD060008BD060008BD060008BD06000804
:1000D000BD060008BD060008BD060008BD060008F4
:1000E000BD060008BD060008BD060008BD060008E4
:1000F000BD060008BD060008BD060008BD060008D4
:10010000BD060008BD060008BD060008BD060008C3
:10011000BD060008BD060008F9250008BD06000858
:10012000BD060008BD060008BD060008BD060008A3
:10013000BD060008BD060008BD060008BD06000893
:10014000BD060008BD060008BD060008BD06000883
:10015000BD060008BD060008BD060008BD06000873
:10016000BD060008BD060008BD060008BD06000863
:10017000BD060008BD060008BD060008000000001E
:10018000BD060008BD060008BD060008BD06000843
:10019000BD060008BD060008BD060008BD06000833
:0C01A00005260008BD0600081126000816
:1001B00010B5054C237833B9044B13B10448AFF3A1
:1001C00000800123237010BD800300200000000088
:1001D0004058020808B5034B1BB103490348AFF36D
:1001E000008008BD00000000840300204058020881
:1001F000034613F8012B002AFBD1181A0138704767
:1002000001F0FF01102A2BDB10F0070F08D010F8C7
:10021000013B013A8B422DD010F0070F42B3F6D1CB
:10022000F0B441EA012141EA014122F007047FF0E4
:1002300000070023F0E80256083C85EA010586EA3B
:10024000010685FA47F5A3FA87F586FA47F6A5FA77
:1002500087F68EB9EED1F0BC01F0FF0102F0070283
:1002600032B110F8013B013A83EA010313B1F8D12E
:100270000020704701387047002D06BF354603380F
:10028000073815F0010F07D1013015F4807F02BF48
:10029000013015F4C03F0130F0BC0138704700BF99
:1002A0007BB972B90029BEBF00204FF0004106E0C3
:1002B00008BF00281CBF6FF000414FF0FF3000F076
:1002C000D3B9ADF1080C6DE904CE002909DB002B90
:1002D0001ADB00F04DF8DDF804E0DDE9022304B09C
:1002E0007047404261EB4101002B1BDB00F040F8FE
:1002F000DDF804E0DDE9022304B0404261EB410196
:10030000524263EB43037047524263EB430300F0F6
:100310002FF8DDF804E0DDE9022304B0404261EB90
:1003200041017047524263EB430300F021F8DDF8CE
:1003300004E0DDE9022304B0524263EB430370475B
:1003400053B94AB9002908BF00281CBF4FF0FF313C
:100350004FF0FF3000F088B9ADF1080C6DE904CE24
:1003600000F006F8DDF804E0DDE9022304B0704790
:100370002DE9F047089D8E4604468846002B4AD159
:100380008A42174662D9B2FA82F64EB1C6F120030C
:1003900001FA06F820FA03F3B74043EA0808B4402C
:1003A0004FEA174E1FFA87FCB8FBFEF1230C0EFB39
:1003B000118843EA084301FB0CF29A4209D9FB1861
:1003C00001F1FF3080F0EA809A4240F2E780023982
:1003D0003B449A1AA3B2B2FBFEF00EFB102243EA92
:1003E000024300FB0CFC9C4509D9FB1800F1FF32CD
:1003F00080F0D6809C4540F2D3803B44023840EAEE
:100400000140A3EB0C0300211DB1F3400022C5E91C
:100410000032BDE8F0878B4205D90DB1C5E9000176
:1004200000210846F5E7B3FA83F1002946D1734568
:1004300002D3824200F20581841A6EEB030201208E
:100440009046002DE5D0C5E90048E2E7002A00F01B
:100450009080B2FA82F6002E40F0A4808A1A030C33
:100460004FEA174E80B2BCB20121B2FBFEFC0EFB7C
:100470001C2243EA024304FB0CF29A4207D9FB1800
:100480000CF1FF3802D29A4200F2E080C4469B1A77
:10049000B3FBFEF20EFB123340EA034302FB04F40B
:1004A0009C4207D9FB1802F1FF3002D29C4200F2B5
:1004B000CA8002461B1B42EA0C40A5E7C1F1200698
:1004C0008B4022FA06F71F430EFA01F420FA06F3D6
:1004D0002EFA06FE4FEA1749234300FA01F81FFAE5
:1004E00087FCBEFBF9F01C0C09FB10EE44EA0E443D
:1004F00000FB0CFEA64502FA01F209D93C1900F1F5
:10050000FF3A80F09C80A64540F2998002383C4436
:10051000A4EB0E041FFA83FEB4FBF9F309FB1344AA
:100520004EEA044403FB0CFCA44508D93C1903F132
:10053000FF3E80F08280A4457FD9023B3C4443EAE1
:100540000040A4EB0C04A0FB02EC64457346E146BA
:1005500062D35FD05DB1B8EB030264EB090404FA27
:1005600006F622FA01F31E43CC40C5E900640021DF
:100570004FE7B1FBF2FC010C41EA0E4180B240EAC8
:1005800001423B4638463C46B846BE462026B1FBB3
:10059000F7F1A2EB080241EA0C4166E7014618E7D1
:1005A00010462CE7C6F120022EFA02F3B740B14004
:1005B00020FA02F24FEA174E0A43B3FBFEF8BCB230
:1005C0000EFB1833110C41EA034108FB04F9B0405B
:1005D00089454FEA104380B23ED9791808F1FF3CB3
:1005E00001D289451FD8A1EB0901B1FBFEF909FB36
:1005F00004F80EFB191192B242EA0142424529D297
:10060000BA1809F1FF31C4D24245C2D2A9F10201A0
:100610003A44BEE7F0459DD2BEEB02036CEB070CFB
:100620000138E14696E7A7EB09094944A8F1020C15
:10063000B1FBFEF909FB04F8DBE773467FE75046A0
:1006400066E70846FDE63B44023A33E7ACF1020CAC
:100650003B441CE749469CE7A1EB0901C446B1FBBA
:10066000FEF909FB04F8C4E7704700BFDFF834D097
:10067000002103E00C4B5B58435004310B480C4BFA
:1006800042189A42F6D30B4A02E0002342F8043B98
:10069000094B9A42F9D304F009FE24F0BBF901F0AA
:1006A0005DF87047000003205CAC030800000020E8
:1006B0006401002080030020BC420120FEE7704757
:1006C00008B500F0BBFDBDE8084000F03FBD00F0FC
:1006D000B7BD704710B50421044622F08DFF2046B7
:1006E00010BD000038B50C4B0C4C18800C4B822010
:1006F00019806368984740F6110398420AD1094D62
:1007000023682C60822098472B688220DB689847FA
:10071000002038BD0120FCE7A60300204C0000208B
:10072000A4030020A80300204FF4A071F020FFF7DD
:10073000D9BF0000F7B5394D2B6804461B698220EC
:100740009847208000284ED02B680DF106025B6987
:1007500001A982209847324B1B78002B4BD0BDF863
:10076000062040F674639A423FD9ADF80630BDF8D2
:1007700006209B1A9BB20A2B42D90B22B3FBF2F341
:10078000284A1288934201D9013A93B2BDF8042055
:10079000254840F6B8318A4234D8C2F571620E322B
:1007A000016892B20F25B2FBF5F2204D2D88AA42C6
:1007B00084BF05F1FF35AAB28A4215468EB22AD906
:1007C000921B91B21A4E3768BB42BAB28CBF9A1ACA
:1007D000D21A92B211440529C4BF05603360036880
:1007E00063803368A38003B0F0BDB32A9CBFB422FA
:1007F000ADF80620BBE7BDF80630A3F5B473B9E742
:100800000023C3E7C2F56D62083292B20E2A016876
:10081000C8D800252A46891A89B2D3E7A803002040
:10082000C4230020A4030020A0030020A60300206E
:100830009C03002037B568460D461446FFF77AFF43
:10084000BDF8000030B1BDF802302B60BDF80430B7
:100850002360012003B030BD032821D8DFE800F079
:10086000020B12190F4B1A68B2FA82F252090421D4
:100870000D4805F08DBB0B4B5A68B2FA82F2520953
:100880000821F5E7074B9A68B2FA82F25209102163
:10089000EEE7044BDA68B2FA82F252092021E7E768
:1008A000704700BFAC03002000100240032821D88D
:1008B000DFE800F0020B12190F4B1A68003A18BF5C
:1008C000012204210D4805F063BB0B4B5A68003A26
:1008D00018BF01220821F5E7074B9A68003A18BFB4
:1008E00001221021EEE7044BDA68003A18BF01221A
:1008F0002021E7E7704700BFAC0300200010024052
:1009000003280DD8DFE800F00206080A0421054894
:1009100005F043BB0821FAE71021F8E72021F6E7AC
:10092000704700BF0010024008B5032811D8DFE867
:1009300000F0020A0C0E0421074805F023FB431EB9
:100940005842584108BD0821F6E71021F4E720215C
:10095000F2E70020F3E700BF0010024070B5084D39
:1009600000240126E0B2FFF7DFFF18B12B68012B4E
:1009700018BF2E600134052C05F10405F2D170BDBD
:10098000AC030020012380F8781080F8793070479C
:100990007047002070470000034B4164003918BFC6
:1009A00001211970704700BF7B350120704700207E
:1009B0007047836B0BB10846184770474FF6FF70BE
:1009C0007047406803689B691847704770477047D5
:1009D0007047704710B5044600F048FD236803498E
:1009E000D3F890302046BDE810401847000000D0F2
:1009F00008B503680446D3F8843098472368204636
:100A0000DB6F984700F0ECF8236820465B6F98474F
:100A1000292001F0C1F900F0E3F8236820465B6F5C
:100A20009847F8E710B504460AF098FF2368204677
:100A3000D3F8BC30BDE81040184700F0FBBC00F014
:100A4000FFBC00F031BD00F0D1BC00F041BD00F0B2
:100A500049BD00F0D5BC0AF0AFB910B584210446F9
:100A600022F0CAFD204610BD10B590F8341090F861
:100A700078400C4B8C421A7809D03AB90A4A0B4993
:100A80001488088810800C8001221A7010BD002A7A
:100A9000FCD0054A05491488088810800C80002283
:100AA000F3E700BF74350120703501207235012055
:100AB00070B50D46194635B9094B0A4A0A4840F245
:100AC000FF2123F0D5FCC0E90F52084B003A18BFB4
:100AD00001221A700368BDE87040D3F890301847BF
:100AE000C4580208FC5802084A5902087A35012005
:100AF00008B5094B1B888B4203D8084B1B889342CF
:100B000005D9074B074A0848A32123F0B1FC074B3E
:100B10001980074B1A8008BD7035012072350120FD
:100B20008F590208F25902084A5902087635012005
:100B300078350120034690F87A0018B158680368A8
:100B40001B68184770470000012108B500220846BD
:100B500007F0FCFD0A4B186028B90A4B0A4A282105
:100B60000A4823F085FC00220421012007F096FEAC
:100B7000074B186018B9074B034A2C21F0E708BD52
:100B8000C0030020355A02087E5A0208AD5A0208F6
:100B9000BC030020E35A0208024B4FF0FF311868F3
:100BA00007F01EBEC0030020014B186807F044BECA
:100BB000C0030020024B0021186807F011BE00BFDF
:100BC000C0030020FFF7F0BF03480449006800237A
:100BD0001A4607F09EBE00BFBC03002004000020A0
:100BE00013B5084C00231A4601A9206807F0C2FE7D
:100BF00020684FF0FF33002201A907F0BBFE02B0CE
:100C000010BD00BFBC03002003685B6C18470120C7
:100C1000704703689B6A1847FEE740F2EF30704761
:100C2000054B0360054B4FF08062C3F88820BFF38B
:100C30004F8FBFF36F8F7047EC65020800E100E053
:100C400010B504464FF45A61FFF7EAFF204622F040
:100C5000D3FC204610BD000082B0002301930E4B50
:100C60001A6B42F400021A631A6B02F4000201923A
:100C7000019A1A6942F400021A611A6922F4000208
:100C80001A61064B064A1A61064A5A61064B4FF032
:100C900080629A6002B0704700380240EC25002064
:100CA000F90E0008190C000800E100E008B50A2858
:100CB00009D8DFE800F006100E0808080810101028
:100CC0001000022008BD054B054A0648902123F07C
:100CD000CFFB0020F6E70120F4E700BF255B020808
:100CE000405B02088B5B020838B50C46887FFFF733
:100CF000DDFFA58AE28A164B2169586342EA054264
:100D00005A64628BD963521B1A642568082D0ED170
:100D10009A611A615862207F0E4A42EA0062DA61E3
:100D2000E2681A620C4A5961D9601A6038BD002223
:100D3000D8611A61E1680A0A480902F4784200F4AD
:100D4000FC600243C1F3C4010A439A63034AECE71F
:100D500000B002400900010001230200012303004A
:100D600008B50B280BD8DFE800F00612100A0A0AB3
:100D70000A0808080808022008BD0520FCE7054B02
:100D8000054A06486F2123F073FB0020F4E7012099
:100D9000F2E700BF255B0208BF5B02088B5B02081D
:100DA0002DE9F04191F81D800C464046FFF7D8FF31
:100DB000A77F05463846FFF7D3FF06463846FFF7BC
:100DC00075FFA18A628B444B521A1A649A61228B76
:100DD000521A1A61E28A586342EA01425A6421694E
:100DE0006268D963DA602068802828D0227F0FD813
:100DF000202867D0402865D004281AD0364B45EA11
:100E0000026545F40035B845DD6161D0334A44E000
:100E1000B0F5807F04D0B0F5007FEFD1304800E01E
:100E2000304840EA0262DA61E2681A625E62596141
:100E300032E045EA026242F40032DA61F6E7A06885
:100E4000021DDA62227F45EA026545F40035DD6164
:100E50005E625961017841B1012921D0224B234AB8
:100E600023484FF48D7123F003FBDA69418822F4A3
:100E70007F42013922F0100242EA0122DA610121A7
:100E8000154BDA6942F02002DA61DA699206FCD485
:100E900010229A600029B9D0164A1A60BDE8F08184
:100EA000B2F1FF01DA69408822F47F4200F1FF309D
:100EB00022F0100242EA002242F0100218BF012183
:100EC000DA61DDE745EA0262034B42F40032B4E73F
:100ED00042F20132E1E700BF00B00240012301000D
:100EE000090002000A000200095C0208235C0208F3
:100EF0008B5B020801230200024B1B6858680368E1
:100F00005B6918477C35012070B5044625460A4BBD
:100F10000C30002660602672667245F8203B602225
:100F200029460AF071FE04F55A63EE6024359D42AD
:100F3000FBD1204670BD00BFEC650208034B1A6868
:100F4000D207FCD423229A60704700BF00B0024051
:100F50007047000030B50F4C2568ED07FCD4232501
:100F60000904A56041F001010225FF2B656361645E
:100F7000E0630AD00849656241EA0363E361074B15
:100F800022626061E060236030BDE561039BA36382
:100F9000034BF8E700B00240090001000100020025
:100FA0000100030030B50E4C2568ED07FCD4232565
:100FB0001204A56042F001020225FF2B6563626402
:100FC000E063E16008D01B0643F00213E361054BC8
:100FD00065626061236030BD034BE3610123F9E783
:100FE00000B0024001000200020002FF30B50B4CCD
:100FF0002568ED07FCD4232512041B06A56043F4E5
:101000000033022542F0010265636264E063E1603F
:10101000E361034B65626061236030BD00B0024054
:1010200001000200012070470C2070470C2303FBD5
:101030000100083070470C2303FB010008307047A3
:101040000120704740F6B460704740F6B46303FB7C
:1010500001000830704740F6B46303FB010008301C
:101060007047012070471020704700EB01100830D6
:10107000704700EB011008307047084601F072BD60
:1010800010B5034B0360044609F0EDFB204610BD8C
:10109000A466020810B50446FFF7F2FF20461421AB
:1010A00022F0AAFA204610BD10B5034B0360044697
:1010B00009F0D9FB204610BD7066020810B5044641
:1010C000FFF7F2FF204640F6BC6122F095FA204679
:1010D00010BD000010B5034B0360044609F0C3FBCC
:1010E000204610BD3C66020810B50446FFF7F2FF2B
:1010F0002046182122F080FA204610BD10B5084B7A
:101100000360044600F6E860FFF7BAFF04F12C0024
:10111000FFF7CAFF04F11400FFF7DCFF204610BD03
:10112000D866020808B50248FFF7E8FF08BD00BF0F
:101130009C12002010B50446FFF7E0FF204641F264
:101140005C0122F059FA204610BD00002DE9F34160
:1011500001F0D8FA054601F0D9FA002401462346E9
:1011600028462246009413F095F9274B274A1A6027
:10117000204603F09FF8264D264B274A27489A60C1
:1011800013F0F0F82B68BFF35B8FDB0735D42846EC
:1011900022F034FA88B3224C224B236004F57066A7
:1011A00004F1140004F12C0804F6E8676060C4F848
:1011B0000880E760266109F057FB1B4B63614046DE
:1011C00009F052FB194BE362384609F04DFB184B0E
:1011D000C4F8E83E04F6FC6003F0F4F8224604F696
:1011E000FC61304603F0E4F8304601F0BBFC1148E6
:1011F00023F05CF9284622F00DFA0F4802B0BDE852
:10120000F041FFF7E7BB00BFE035012048040020B4
:1012100098120020680400204C04002008000020E0
:101220009C120020D86602083C660208706602081C
:10123000A466020825110008C403002070470000BE
:101240000148FFF7D5BB00BFC403002070B5264E90
:10125000264C274D274B23603046FFF755FE284686
:1012600018F01EFA244810F025FE244B2448DC60B8
:1012700000224FF48071C3E9121222491A86C3E991
:101280001A12214983F85820C3E91E011F49C3F8E7
:1012900080101F491F480B60F021C3E90422C3E9F5
:1012A0000622C3E90822C3E90A22C3E90E22C3E9E0
:1012B0001022C3E91422C3E917225A6683F870206A
:1012C0005A67C3E9016501801348018013484FF450
:1012D000A07101801248018012490A70012283F82E
:1012E0003420114A1A6070BDF404002094120020CA
:1012F00068040020B45802084C040020C4030020F5
:101300000000010101000001000450001A00140057
:101310007C350120703501207635012072350120A1
:101320007835012074350120006502080148FFF777
:1013300077BC00BFF4040020002070478180704714
:10134000C180704701817047418170477047704785
:1013500070477047704710B4C4880368121B8488B4
:101360005B6D091B12B25DF8044B09B218474FF6CA
:10137000FF7383814FF0FF3303621368C361106012
:101380007047002070478B8883800120704770472A
:1013900080F82610704790F82600704710B500229C
:1013A000B1F90840B1F90A10028042808480C180FE
:1013B00010BD0022028042808280C2807047017787
:1013C000704780ED080A704780F82410704780F855
:1013D0002510704701207047983070478C30704757
:1013E000843070477047704770470000034B90226D
:1013F00083F85A2383F85823704700BF00E100E0C8
:10140000094A0A49D3680A48C3F30A03013B9BB25D
:101410000B801169C1F30A01013901801364536B18
:1014200043F001035363704700680140FA22002033
:10143000F8220020014BD3F8AC007047006801404F
:10144000024B0122C3F8AC105A6270470068014099
:1014500010B52C21044622F0CFF8204610BD10B55F
:10146000BC21044622F0C8F8204610BD70B50446E1
:1014700009F0F7FC23689D6E0FF0B4FA0146204690
:10148000A8472368054AD3F88C502046AC46002371
:10149000BDE87040A2F51631604700BF00B004D02F
:1014A00009F0C6BC09F0D0BC09F08CBC09F0FBBD4A
:1014B00090F8252012B103685B691847704790F8CF
:1014C00025201AB190F8242002B11860704700005E
:1014D000034B4FF080629A604FF080729A607047C1
:1014E00000E100E0084B4FF08062C3F88820BFF3B2
:1014F0004F8FBFF36F8F4FF08072C3F88820BFF318
:101500004F8FBFF36F8F704700E100E070B500238D
:10151000124E8380124B0360336893F858200546BF
:101520000AB1D86C00B998680368DB6A98473368D9
:10153000B0FA80F4D86C640930B10368DB6A98476C
:10154000002808BF44F001042CB9064B064A07489E
:101550002C2122F08DFF284670BD00BF7C35012074
:10156000EC660208615C0208BF5C0208F85C0208D5
:1015700070B5254E3568BFF35B8F15F0010540D17E
:10158000304622F03BF800283BD0204C204B256110
:1015900004F13400C4E90035C4E90255E584A562CC
:1015A000A58510F06CFF04F158000BF0E1FF194B1A
:1015B000A3652046184B40F8843BFFF7A7FF174B65
:1015C000C4F884302433C4F88C304FF4C803C4E921
:1015D00028350023C4F8AC30C4F8B030C4F8B430B7
:1015E000C4F8B8300E480F4BC4F89050C4F89C5063
:1015F000C4F8A850C4F8983022F058FF304622F0C2
:1016000009F8024870BD00BFFC2200200023002022
:101610002C7202080C67020884670208E071020855
:10162000E9130008C071020838B5184C23685BB391
:10163000174B184A1B6C11888B4216D1164B198810
:1016400005F0AEFA236893F86A200025013283F88A
:101650006A2083F87C50FFF7B7FA20680AF07EF919
:101660002846BDE83840FFF7F7B805F099FA246836
:10167000236820461B6A9847012384F87C300020A9
:10168000BDE83840FFF712B938BD00BF7C350120F6
:1016900000680140FA220020F822002007B5064B1E
:1016A000ADF806001B68054801220DF1060106F0A1
:1016B00027F803B05DF804FB0C00002098240020FC
:1016C00030B595B0102200210AA823F0FAF81422B0
:1016D000002103A823F0F5F800241E4B01941A6C96
:1016E00042F080521A641B6C03F080530193019BFB
:1016F000194B02941A6842F440421A601B6803F4C2
:10170000404302930122029B4FF48033CDE908232A
:1017100002254FF480030821CDE90E534FF4B47332
:10172000CDE9101308A804231393129505F090FA3D
:1017300005F054FA0F23CDE903354FF4A0504FF4D0
:101740008053CDE90603052103A8059405F05CFC50
:1017500015B030BD00380240007000402DE98048CF
:101760009BB003F0B1FDFFF7ABFF142200210DA8E1
:1017700023F0A7F80024C94B00941A6BC848C94D40
:1017800042F010021A631A6B02F010020092009AE3
:1017900001941A6B42F020021A631A6B02F02002C5
:1017A0000192019A02941A6B42F080021A631A6B3A
:1017B00002F080020292029A03941A6B42F0040231
:1017C0001A631A6B02F004020392039A04941A6BD0
:1017D00042F001021A631A6B02F001020492049AA9
:1017E00005941A6B42F002021A631A6B02F00202AD
:1017F0000592059A06941A6B42F040021A631A6B1E
:1018000002F040020692069A07941A6B42F0080210
:101810001A631B6B03F00803224607933C21079BC6
:1018200004F0B6FBA0480122022104F0B1FB2246DD
:101830009D48042104F0ACFB22469C484FF44051E3
:1018400004F0A6FB01263C23CDE90D3694480F9405
:1018500003230DA90227109304F0B0FA92480DA9B2
:10186000CDE90D76CDE90F4404F0A8FA04238E48A3
:101870000DA9CDE90D36CDE90F4704F09FFA8C484C
:101880000F940DA9CDE90D6404F098FA4FF440537C
:1018900086480DA9CDE90D36CDE90F4704F08EFA43
:1018A0000DA983480F94CDE90D6404F087FA8148AF
:1018B000814B036003F0B0FFDFF820C27F4B2C6246
:1018C000C5E900C328464FF48043C5E90434C5E99F
:1018D0000244C5E9064404F069FD1021284604F0DD
:1018E000ADFF2146284604F0C8FF754DDFF8F0E152
:1018F000AC624FF48273C5E900E34FF4007818231B
:10190000C5E9068328460A23C5E90244C5E904441B
:10191000C5E90844EB6205F097FE8F23224639465D
:1019200061488DF824308DF8344004F031FB3246A4
:101930004FF47A7309A9284605F0E2FE4FF47A7352
:1019400032460DA9284606F087F8324639465648F1
:101950005C4D04F01DFB9DF83430D32B04BF5A4B73
:101960001E705A4B0126C5E900364FF0100940237E
:101970000024C5E904934FF4C073C5E906344FF45D
:101980000063C5E908344FF4005302274FF0040800
:101990004FF0030BAB620DA907232846CDE90D7369
:1019A000CDE90F834FF0080AC5E90248CDE911B728
:1019B000139705F02DFD4FF6FF7209A92846CDE9D2
:1019C0000AA6099608940C9405F042FD304603F0EF
:1019D000A7FC4FF6FF7209A92846CDE9097ACDE99F
:1019E0000B6405F035FD4FF6FF7209A92846CDE9D5
:1019F00009BACDE90B8405F02BFD4FF40C73089365
:101A0000089B0C934FF6FF7209A92846CDE9098A75
:101A10000B9605F01DFD40F26A51284605F036FD93
:101A2000342221460DEB020022F04BFF284D294BBA
:101A30002C61C5E900340923C5E905361D23C5E934
:101A4000073B40F20D1240F24313C5E9092340F26F
:101A5000171140F247132846C5E90B13C5E90244A4
:101A6000AC8685F8364004F0A3FFFF21F022CDE9D3
:101A700012144FF0050A4FF480614FF4A073CDE9C2
:101A80000E24CDE9141ACDE916420DA922462846A6
:101A9000CDE91037104D189324E000BF0038024004
:101AA000001002409825002000080240000C02406F
:101AB000000002402C26002000300240A0860100D9
:101AC00098240020D4230020C4230020400100A03B
:101AD000F024002000680140BC230020005C00408E
:101AE000005001400D94ADF864408DF8664005F05B
:101AF0002AF8594B2B601B68DFF8A8B198472B6870
:101B0000564DDB689847564B2846C5E90034C5E971
:101B10000274C5E90A47C5E90C4403F08DFE31465D
:101B2000284603F03FFF4A4621460DA822F0C9FE91
:101B30004C4D4D48EE614FF48033C5E90003284613
:101B40006E61AC602C612C7685F82040EC62C5F8A3
:101B500028B0EC6085F8304003F0F6FB0D220DA9AB
:101B60002846CDE90D26414D0F9403F067FD21462F
:101B70004A460DA822F0A5FE3D4AEE614FF480339F
:101B80002846C5E900236E61C5E90AB4AC602C6142
:101B90002C7685F82040EC6085F8304003F0D4FBCB
:101BA0000DA92846CDE90DA6324D0F9403F046FD50
:101BB0003148324E04614FF4E133C0E900530C2345
:101BC0002F4DC461C0E90534C0E9024406F020FC91
:101BD0001C2221460DA8CDE9094422F072FE5923AA
:101BE000C5E90063284640F6E103C5E90334AC606B
:101BF000AC6106F0ADF909A92846CDE9094406F023
:101C000009FB602342460DA92846CDE90D340F9407
:101C1000119406F0F9F9284600F0CCFBFEF750FDD0
:101C2000FEF74DFD06F016FD164A3946484606F009
:101C300035FE154B154A18602146154806F036FD4D
:101C4000144B154A18602146144806F02FFD144B1A
:101C5000186006F011FDFEE714000020EC250020BE
:101C600000B002407C2600200020014034260020E5
:101C70000021014000100140082400200004004021
:101C800050240020C8670208C0230020046802080E
:101C9000891E0008CC230020E0670208CF06000858
:101CA000C82300200100000F704770477FB5094B23
:101CB0008DF817201B6802930DF117020123009283
:101CC00001930A460146044804F018FC07B05DF889
:101CD00004FB00BF10000020982500207FB50023E2
:101CE0008DF81730084B1B6802930A4601230DF14B
:101CF0001701009101930146044804F08FFC9DF800
:101D0000170007B05DF804FB1000002098250020A4
:101D10001FB5084C24680092CDE901340A4601231E
:101D20000146054804F07AFC003818BF012004B0D1
:101D300010BD00BF100000209825002003F0F0BA6D
:101D400010B5064C00222046042104F021F920465B
:101D50000122BDE81040042104F01AB90008024035
:101D600038B50B4D044601220A484FF4005104F0E7
:101D70000FF900220421284604F00AF92046FFF753
:101D80008DFC28460122BDE83840042104F000B94A
:101D900000080240000C024038B50B4D04460022FA
:101DA0000A484FF4005104F0F3F8002204212846B9
:101DB00004F0EEF82046FFF771FC28460122BDE84A
:101DC0003840042104F0E4B800080240000C02404E
:101DD000F7B5144E144F05460C4630460022042138
:101DE00004F0D6F800224FF40051384604F0D0F841
:101DF0002846FFF753FC0D4B0D481B68224601A9EE
:101E000005F02AFE384601224FF40051019C04F0EF
:101E1000BFF830460122042104F0BAF8204603B08E
:101E2000F0BD00BF00080240000C02400C00002082
:101E30009824002003F074BAA1F2A56210B592B202
:101E400040F25624A0F2A563A2429BB206D9B1F596
:101E50007A7F11D340F6B83291420FD840F2562221
:101E600093420DD9B0F57A7F0CD340F6B83398423F
:101E70008CBF5220002010BD5520FCE74420FAE71B
:101E80000020F8E74C20F6E72DE9F041224E234FE1
:101E90008AB04FF00008304603F0FCFA384603F0F1
:101EA000F9FA0A21304603F073FB0A21384603F0A1
:101EB0006FFB304603F0BFFB0446384603F0BBFB24
:101EC000A2B283B21649054602A822F095FC02A8E8
:101ED000FEF78EF9642382B202A9124806F0C7FA0F
:101EE000A0B2A9B2FFF7A8FF04468DF8070060B1C1
:101EF00040450BD00C4800231A4600680DF107013D
:101F000006F007FD9DF8073003B90024322006F0E3
:101F100011FCA046BFE700BF7C260020342600202D
:101F20005A5D020808240020C02300200268034BE9
:101F30009A4201D103F0E2B9704700BF001000409F
:101F40007047000082B00E4B00220092596C41F4A1
:101F500080415964596C01F48041009100990192CB
:101F6000196C41F0805119641B6C03F0805301938C
:101F7000019B0F216FF0010002B003F00DBC00BF08
:101F80000038024010B514228AB0044600210DEB3F
:101F9000020022F096FC2368214A93421FD1214B74
:101FA0002148002101915A6C42F480725A645A6CA3
:101FB00002F480720192019A02911A6B42F00402BB
:101FC0001A631B6B03F0040302930821029B032393
:101FD000CDE9051305A903F0F1FE0AB010BD134ABF
:101FE0009342FAD10F4B1248002103915A6C42F4EC
:101FF00000725A645A6C02F400720392039A0491BC
:102000001A6B42F001021A631B6B03F00103049385
:10201000049B20220323CDE9052305A9DBE700BFAC
:102020000020014000380240000802400021014029
:10203000000002400268094B9A4282B00BD1002393
:102040000193074B1A6B42F480521A631B6B03F423
:1020500080530193019B02B0704700BF00300240E3
:102060000038024007B50F4B02689A4216D1002291
:10207000A3F5F0430192196B41F4000119631B6B46
:1020800003F40003019305215A20019B03F084FB14
:102090005A2003B05DF804EB03F0B0BB03B05DF869
:1020A00004FB00BF00B002402DE9F043044689B0B4
:1020B0001422002103A822F004FC2268244B9A4237
:1020C00043D1244C244800250095236B43F004039E
:1020D0002363236B03F004030093009B0195236BA0
:1020E00043F001032363236B03F001030193019B7E
:1020F0004FF012094FF400734FF001080327042634
:1021000003A9CDE90339CDE90587079603F056FE0B
:102110004FF480731148079603A9CDE90339CDE93F
:10212000058703F04BFE0295236C43F40003236400
:10213000236C03F400030293029B236A43F400031D
:102140002362236A23F40003236209B0BDE8F0830D
:10215000005C0040003802400008024000000240DD
:10216000F0B599B004461422002107A822F0A9FB7B
:1021700030220DEB0200002122F0A3FB22685E4B0F
:102180009A4240F0B78008230C93C0231093042395
:1021900012930CA84FF40033159305F00DF808B115
:1021A000FFF7CEFE554B5648002400945A6C42F07F
:1021B00080625A645A6C02F080620092009A019424
:1021C0001A6B42F020021A631A6B02F0200201928D
:1021D000019A02941A6B42F001021A631A6B02F020
:1021E00001020292029A03941A6B42F002021A63ED
:1021F0001A6B02F002020392039A04941A6B42F0E3
:1022000040021A631A6B02F040020492049A059489
:102210001A6B42F004021A631A6B02F00402059270
:10222000059A06941A6B42F008021A631B6B03F0BE
:102230000803069302250E26069B0B964FF4806337
:1022400007A9CDE90735CDE9094503F0B7FD41F60A
:1022500058032C480B9607A9CDE907350927CDE986
:10226000094503F0ABFD032327480B9707A9CDE9E8
:102270000735CDE9094503F0A1FD4FF4706322480D
:102280000B9607A9CDE90735CDE9094503F096FD81
:102290004FF40C631D480B9607A9CDE90735CDE92E
:1022A000094503F08BFDC02319480B9607A9CDE91A
:1022B0000735CDE9094503F081FD082315480B9644
:1022C00007A9CDE90735CDE9094503F077FD4FF4BE
:1022D000A0530E480B9707A9CDE90735CDE909456D
:1022E00003F06CFD58202246052103F055FA5820D2
:1022F00003F084FA19B0F0BD0068014000380240D4
:102300000014024000000240000402400018024095
:1023100000080240000C024010B5044688B01422A8
:10232000002103A822F0CDFA2268144B9A4223D14F
:1023300003F56843002101915A6C114842F4801260
:102340005A645A6C02F480120192019A02911A6B3B
:1023500042F020021A631B6B03F020030293029BDE
:102360004FF4607202230321CDE903230523CDE955
:10237000061303A903F022FD08B010BD0050014070
:10238000001402400268094B9A4282B00BD100232C
:102390000193074B1A6C42F002021A641B6C03F0A3
:1023A00002030193019B02B0704700BF000400408C
:1023B0000038024010B5044686B01422002101A85E
:1023C00022F07FFA22680D4B9A4214D10023009329
:1023D0000B4B0C481A6B42F001021A631B6B03F0A3
:1023E00001030093009B8022022301A9CDE9012370
:1023F000059303F0E3FC06B010BD00BF00040040ED
:10240000003802400000024010B5044688B0142293
:10241000002103A822F055FA2268144B9A4223D1D6
:1024200003F59433002101915A6C114842F01002D7
:102430005A645A6C02F010020192019A02911A6BCE
:1024400042F001021A631B6B03F001030293029B2B
:102450004FF4C06202230321CDE903230723CDE912
:10246000061303A903F0AAFC08B010BD0010014038
:10247000000002402DE9F04186B0002303932B4B6E
:102480001C68002C4FD14FF00108C3F80080284B86
:1024900000949A6B274842EA08029A639B6B03EA0E
:1024A00008030093022703260C25009B01A94FF681
:1024B0003F03CDE90137CDE9046503F07FFC1E48F9
:1024C000059501A9CDE90187CDE9034603F076FC26
:1024D00048F233131948059501A9CDE90137CDE933
:1024E000034603F06BFC4FF683731548059501A96D
:1024F000CDE90137CDE9034603F060FC4CF20373EC
:102500001048059501A9CDE90137CDE9034603F04F
:1025100055FC60230C48059501A9CDE90137CDE9AB
:10252000034603F04BFC06B0BDE8F081C426002052
:102530000038024000140240000802400018024027
:1025400000100240000C02400004024070B588B048
:1025500000230293204B1A6C42F010021A641B6C89
:1025600003F010030293054601A903A8029B04F09F
:1025700005FE069B4BBB04F0E1FD184E184B336083
:1025800040F2E733F360174BB0FBF3F3013B7360AA
:10259000304600233361B360B36105F0ADFC0446FF
:1025A00080B9304605F07EFB044658B9362003F06A
:1025B00025F90F2D0DD822462946362003F0ECF8D8
:1025C000094B1D60204608B070BD04F0B7FD400007
:1025D000D3E70124F6E700BF00380240C8260020F8
:1025E0000010004040420F007C0000207047FEE7D2
:1025F000FEE7FEE7FEE77047014805F091BB00BF2C
:10260000C8260020014804F041BA00BFF024002091
:10261000014803F03DB900BFEC25002001207047C0
:1026200008B522F0F1F9162303604FF0FF3008BD22
:1026300008B522F0E9F916230360FEE770B50D46F0
:1026400014460E46731B9C4201DC204670BDAFF35E
:10265000008006F8010BF5E770B50D4614460E46EE
:10266000731B9C4201DC204670BD16F8010BAFF3D2
:102670000080F5E74FF0FF3070474FF400534B6098
:102680000020704701207047002070470A4A1168F7
:1026900008B5034609B90949116010686946034441
:1026A0008B4206D922F0B0F90C2303604FF0FF30C3
:1026B00008BD1360FCE700BF10270020C0420120C6
:1026C000704710B50421044620F096FF204610BD47
:1026D00008B5032913D8DFE801F002060A0E01F05D
:1026E00035FE006808BD01F031FE4068FAE701F0F0
:1026F0002DFE8068F6E701F029FEC068F2E70020B1
:10270000F0E70000004870473C680208022070476C
:1027100013B5002451B1036801948DF8034001AA58
:102720009C680DF10303A04702B010BD0846FBE70B
:10273000C0897047008A7047C0887047808870479A
:10274000807A00F07F007047807AC00970470020CF
:10275000704700009FED010A704700BF00000000B5
:10276000704710B50821044620F046FF204610BDF2
:102770007047704700F598730868496803C370474D
:10278000704770474160704770477047064BC0F80C
:102790004C310023C0F8503100F5A273C0F8480155
:1027A000C0F84031704700BF992900080123037227
:1027B0007047704710B4C26841685410034601EB7B
:1027C0006200D20748BF0A599B685DF8044B48BFB6
:1027D000D35818470346406830B19A681AB9D86888
:1027E00000F0010070470120704710B50C2104462D
:1027F00020F002FF204610BD10B51021044620F045
:10280000FBFE204610BD10B54FF4AE71044620F01B
:10281000F3FE204610BD10B50EF0E4F80368BDE8E5
:102820001040DB6B184710B50446D0F8400158B192
:102830000368DB68984738B1D4F8400103689B68A7
:1028400098470023C4F8403110BD00002DE9F14F36
:10285000D0E9556A0746B06803681B6A984740F696
:10286000B363984205D8444B444AA321444821F01D
:10287000FFFD706803681B6A98470F2803D8414B17
:102880003E4AA421F2E7F06803681B6A98470B28C8
:1028900003D83D4B394AA521E8E70EF0A3F8DFF84D
:1028A000F09004300EF0C3F8D9F8000010B10368BE
:1028B000DB689847D9F8000010B103681B68984797
:1028C000DFF8D080D8F8000010B103685B69984742
:1028D000D7F83C0110B103685B689847D8F800004E
:1028E00010B103681B689847D7F83C0110B1036822
:1028F0009B689847F068036800215B6A98474FF02F
:10290000000B224BC0F804B0044680F808B0036006
:10291000B068036859465B6A9847054601F0BEFDFA
:102920007068036859465B6A98472946064601F075
:1029300095FD331DC7F83C61C9F80040C8F8005048
:10294000CAF800302B68C6F808A02846DB68EE639A
:102950009847336830461B6898472146284610F050
:10296000F1F9236820461B69984723685B69204674
:1029700001B0BDE8F04F1847845D0208125E0208FE
:10298000E45E02082B5F0208CE5F0208E8680208D6
:10299000C4350120C03501202DE9F14FD0E9556A39
:1029A0000746B06803681B6A9847B0F59C7F05D25C
:1029B000444B454AA321454821F05AFD70680368FD
:1029C0001B6A98470F2803D8414B3F4AA421F2E7DE
:1029D000F06803681B6A98470B2803D83D4B3A4AB6
:1029E000A521E8E70DF0FEFFDFF8F09004300EF0CF
:1029F0001EF8D9F8000010B10368DB689847D9F8D1
:102A0000000010B103681B689847DFF8D480D8F83D
:102A1000000010B103685B699847D7F83C0110B11A
:102A200003685B689847D8F8000010B103681B681A
:102A30009847D7F83C0110B103689B689847F06845
:102A4000036800215B6A98474FF0000B224BC0F8E7
:102A500004B0044680F808B00360B06803685946C3
:102A60005B6A9847054601F0E1FC706803685946C7
:102A70005B6A98472946064601F0B6FC331DC7F845
:102A80003C61C9F80040C8F80050CAF800302B6813
:102A9000C6F808A02846DB68EE63984733683046DE
:102AA0001B6898472146284610F04CF923682046B9
:102AB0001B69984723685B69204601B0BDE8F04F69
:102AC000184700BF845D020871600208E45E0208D6
:102AD0002B5F0208CE5F0208E8680208C4350120B7
:102AE000C0350120044B1B6893F858200AB1D86CFC
:102AF00000B99868704700BF7C350120F8B51746CB
:102B000004460E460EF030F8124B1C60124B236048
:102B1000124B0025C4E95135114BC4E953551868CF
:102B2000036801219B68C4E94F55C4E9557698476D
:102B3000284601F0BFFBFFF7D5FF18F05AFCFFF75E
:102B4000D1FF18F0D1FCFFF7CDFF18F0D9FC2046DB
:102B5000F8BD00BFD0350120946802087C680208E7
:102B60007C350120064BC0F84C310023C0F85031B1
:102B700000F5A273C0F84801C0F84031704700BFAB
:102B800099290008064BC0F84C310023C0F8503199
:102B900000F5A273C0F84801C0F84031704700BF8B
:102BA0004D280008406A7047806A704770478A88DD
:102BB0000B8810B5D20A4C88C1699BB251F822002B
:102BC00043EA0443184410BD10B50446BAB1107B63
:102BD00068B1537BD27A1B0203F4E0631A43236A81
:102BE00003EB82031A888A4202D193F9020010BDD6
:102BF00005D8013880B204330028F3D1F7E700206C
:102C0000F5E710B52C21044620F0F6FC204610BD57
:102C100030B58BB00446BDF860500895BDF85C50E7
:102C200007959DF8505006959DF84C5005959DF8D8
:102C3000485004959DF8445003959DF840500295E6
:102C40009DF83C500195BDF8385000950FF0D4FC2C
:102C5000064B2360159BE361169B2362199B6362FD
:102C60001A9BA36220460BB030BD00BF0C6902085E
:102C7000704770477047704770477047704770479C
:102C800030B4C26844685510034604EB6200D207B2
:102C900048BF62599B6830BC48BFD35818470346A9
:102CA000406830B19A681AB9D86800F001007047DE
:102CB0000120704710B51021044620F09DFC2046ED
:102CC00010BD10B54FF49C71044620F095FC2046D1
:102CD00010BD9830884208B505D10DF083FEBDE8DF
:102CE0000840FFF74FBF08BD70B5036804461B6B73
:102CF000154698472368294620465B6BBDE870401F
:102D0000184770B504461D46BDF91060FFF7ECFF8B
:102D10002368294620469B6B984723683146204606
:102D2000DB6BBDE870401847094A02604FF48071C0
:102D300000228184FF21C0E90122C0E90322C0E909
:102D40000522C0E9072280F826108262704700BF82
:102D500080730208F8B5194B018F1B888B42064619
:102D60002AD9174B1B682BB9164B174A17486C21E9
:102D700021F07EFB13F81120154B1B6853F82250ED
:102D8000144B186801F0D2FA2B6807469B6B284653
:102D900098472B6804469B6C3946284698472B6811
:102DA00014FB00F45B6A394628469847A4B22318FE
:102DB0001BB2A6F84630F8BD0023FAE7D83501204B
:102DC000D43501204361020885610208C061020810
:102DD000DC350120E03501202DE9F04F04468BB0B1
:102DE000274600250FF002FE514BE56347F8403BB4
:102DF00004F16C0B384604F19806FFF795FF58462E
:102E0000FFF792FF30460BF041FA4FF48073A4F8BD
:102E10000431484BC4F8E030474BC4F808314FF652
:102E2000FF73A4F80C314FF47F03C4F81431434B03
:102E3000C4F81051C4E94A34414BA4F818514FF07A
:102E4000FF3A4FF4A072C4E94C35C4E93955C4E9DE
:102E50003B55C4E93D55C4E93F55C4E948A5C4F80C
:102E60001C512946009238462A46F023FFF749FFB5
:102E700004F104084FF07F43A3663946404607F04B
:102E800005FD4FF4A072009229462A465846F023C9
:102E9000FFF737FF2B4BC4F894305946404607F0F4
:102EA000F5FC3046D2222021FFF71EFF08AA07A911
:102EB00001233046ADF82030ADF81C500AF05BFF1E
:102EC0001723A4F8D0303046FFF744FF04F594737D
:102ED00004F1E009C4F8C03031464046C4E935AADF
:102EE00007F0D4FC292248464B21FFF7FDFE02AE35
:102EF000154BC4F8103149463046A4F814510AF075
:102F000035FC96E8070004F58E7383E807000A4B4A
:102F1000089308A94846ADF824500AF0CFFE404671
:102F2000494607F0B3FC20460BB0BDE8F08F00BF68
:102F30008C690208F07202086C6802087469020861
:102F4000D32C0008DBE4EEFF667A8FFF806A7047BF
:102F500030B5036885B06D460181D3F884300146F1
:102F600004462846984795E807003C3484E8070063
:102F700005B030BD30B5036885B06D464181D3F8EA
:102F80008430014604462846984795E807003C34BB
:102F900084E8070005B030BD0022028042808280B4
:102FA000C280704780F83610704770B503680446D9
:102FB0001B6B154698472368294620465B6EBDE883
:102FC0007040184700207047806C7047704770470A
:102FD000704770477047704770470368DB6A18474F
:102FE00090F82C304BB100F16C021268C2653BB115
:102FF00000F174031B680366704700F16802F4E790
:1030000000F17003F6E730B4C26844685510034617
:1030100004EB6200D20748BF62599B6830BC48BFCE
:10302000D35818470346406830B19A681AB9D8682F
:1030300000F0010070470120704790F82D3080F8B3
:103040005A30704710B54C21044620F0D5FA20467E
:1030500010BD10B57821044620F0CEFA204610BDF0
:1030600010B51021044620F0C7FA204610BD10B557
:1030700040F68851044620F0BFFA204610BD08B53E
:10308000FEF716FA08BD10B50446006B50B1036890
:10309000DB68984730B1206B036821469B68BDE828
:1030A0001040184710BD0B7970B590F82C6004469D
:1030B0000D460BB916B170BD002EFCD0B3FA83F3E8
:1030C0005B0984F82C3023682046D3F88C3098476D
:1030D000236820465B699847002EECD02B79012BA2
:1030E000E9D123682046D3F88830BDE870401847FE
:1030F000036870B55E6B124B1B6804468DB22BB92A
:10310000104B114A6C21114821F0B2F91049828DFF
:103110000988914203D80F4B0B4A6D21F3E713F84E
:1031200012200D4B1B6853F8220003681B6B984755
:10313000291A3346204609B2BDE87040184700BF3F
:10314000D43501204361020885610208C06102088C
:10315000D835012007620208DC35012000F1C403E4
:10316000994270B504460D4603D10DF03BFCFFF7C4
:10317000F9FC04F65C439D4205D1236820461B6B95
:10318000BDE87040184770BD074A02600022C0E9E0
:103190000122C0E90322C0E90522C0E907224FF459
:1031A00080728284704700BF2875020810B50446FB
:1031B000FFF7EAFF024B23600023A362204610BD05
:1031C0000071020800224FF0FF31C0E90021826047
:1031D000704710B50446FFF7F5FF204610BD00000C
:1031E00010B500210446262221F06BFB2046FFF794
:1031F000CBFF094B2360094BA3624FF6FF73A385F6
:103200004FF47F020023C4E90C32238704F13C0011
:10321000FFF7D8FF204610BDF07202086C68020864
:1032200010B50446FFF7DCFF024B23600023A364C4
:10323000204610BDC069020870B50446FFF7B6FF0E
:103240004FF47F432646A3850123002584F82430CC
:103250000D4B256346F8343B3046FFF765FD0B4BBD
:1032600063632A4629463046C4E91A55C4E91C5509
:103270002566A4F86450FFF737FD2046314607F075
:1032800005FB204670BD00BF506A0208E8730208C3
:103290002DE9F04F0446C1B025464FF000080FF06D
:1032A000A5FBDD4BC4F83C8045F8403B04F16C09BC
:1032B0002846FFF739FD4846FFF736FD04F198032D
:1032C00004F1C40A184604F59E761793FFF72CFD07
:1032D0005046FFF7B1FF3046FFF782FF04F5C27397
:1032E00018461893FFF762FF04F5D8731846199330
:1032F000FFF75CFF04F5EE7318461A93FFF756FFCD
:1033000004F5027318461B93FFF750FF04F50D7385
:1033100018461C93FFF74AFF04F5187318461D93CF
:10332000FFF744FF04F5237318461E93FFF73EFF93
:1033300004F52E7318461F93FFF738FF04F5397311
:1033400018462093FFF7F0FC04F5447318462193C8
:10335000FFF72CFF04F54F7318462293FFF726FF63
:1033600004F55A7318462393FFF720FF04F565739D
:1033700018462493FFF71AFF04F570731846259337
:10338000FFF714FF04F57B7318462693FFF70EFF33
:1033900004F5836318462793FFF708FF04F24443BC
:1033A00018462893FFF702FF04F58E631846299309
:1033B000FFF7BAFC04F29C4318462A93FFF7B4FCCB
:1033C00004F5996318462B93FFF7AEFC04F2F4431F
:1033D00018462C93FFF7A8FC04F5A46318462D9318
:1033E000FFF7A2FC04F24C5318462E93FFF79CFC07
:1033F00004F5AF6318462F93FFF796FC04F2A4532D
:1034000018463093FFF790FC04F5BA6318463193E1
:10341000FFF78AFC04F2FC5318463293FFF784FC52
:1034200004F5C56318463393FFF77EFC04F254633A
:1034300018463493FFF778FC04F5D06318463593AB
:10344000FFF772FC04F2AC6318463693FFF76CFC8E
:1034500004F5DB6318463793FFF766FC04F2047348
:1034600018460493FFF7DCFE04F5EA63184605935B
:10347000FFF7D6FE04F29C7318460693FFF7D0FEC2
:1034800004F5FD6318460793FFF7CAFE04F63403FC
:1034900018460893FFF7C4FE04F50863184609931D
:1034A000FFF7BEFE04F6CC0318460A93FFF7B8FEFA
:1034B00004F6181318460B93FFF7B2FE04F66413D4
:1034C00018460C93FFF7ACFE04F51B6318460D93EA
:1034D000FFF7A6FE04F6FC1318460E93FFF7A0FEB6
:1034E00004F6482318460F93FFF79AFE04F6942338
:1034F00018461093FFF794FE04F52E6318461193B7
:10350000FFF78EFE04F62C3318461293FFF788FE61
:1035100004F6783318461393FFF782FE04F6C4339B
:1035200018461493FFF77CFE04F541631846159383
:10353000FFF776FE04F65C4318461693FFF77CFE11
:1035400004F6D44318460293FFF74AFE04F61C53D0
:1035500018460393FFF744FE304BC4F8783D304BD8
:10356000C4F8803D4FF4A073271D4FF07F4B4246B7
:103570002846C4F87C4DC4F8848D41460093F0235E
:10358000FFF7BFFB29463846C4F868B007F07EF95C
:103590004FF4A0734246484600934146F023FFF79C
:1035A000B0FB204BC4F894304946384607F06EF91A
:1035B000DC235022179800930A21FFF7A2FB1A4B35
:1035C0001799C4F8C0302125384607F05FF9424604
:1035D00041460095382304F1F800FFF792FB134BA6
:1035E000C4F82C31A3F5DE13A3F6EE53C4F8303142
:1035F0000F4BC4F8343103F1331303F54C535046E9
:10360000C4F83831A4F82881FFF7EAFC04F67853AF
:10361000C4F8F4300EE000BF046B0208EC6A020844
:103620005D310008DBE4EEFFEEEEEEFF0099FFFFF8
:10363000663300FF082250461793009538230C216B
:10364000FFF75FFB514638464FF0FF3A07F01EF98F
:1036500038AD0E2230461221FFF746FB3146284690
:10366000C4F86CA1A4F870810AF080F895E807000E
:1036700004F5BC733DADDFF85C99CDF8F49083E8B8
:103680000700162330462946ADF8F8300AF016FB3D
:1036900031463846322607F0F9F833465422189856
:1036A00000960E21FFF72DFB1899384607F0EEF82B
:1036B00033468A22199800960E21FFF722FB1999AA
:1036C000384607F0E3F833468A221A9800964421D8
:1036D000FFF717FB1A99384607F0D8F833468A22C5
:1036E0001B9800967A21FFF70CFB1B99384607F0D0
:1036F000CDF833468A221C980096B021FFF701FBD3
:103700001C99384607F0C2F83346C0221D9800962F
:103710000E21FFF7F6FA1D99384607F0B7F8334641
:10372000C0221E9800964421FFF7EBFA1E993846F6
:1037300007F0ACF83346C0221F9800967A21FFF7B5
:10374000E0FA1F99384607F0A1F83346C0222098C6
:1037500000960E21FFF7D5FA2099C4F80CA338463D
:1037600007F094F83346C02221980096B021FFF765
:10377000C8FA2199384607F089F83346F62222988C
:1037800000960E21FFF7BDFA2299384607F07EF821
:103790003346F622239800964421FFF7B2FA239984
:1037A000384607F073F83346F622249800967A21BB
:1037B000FFF7A7FA2499384607F068F83346F6224F
:1037C00025980096B021FFF79CFA2599384607F016
:1037D0005DF833465422269800964421FFF791FA6B
:1037E0002699384607F052F8334654222798009617
:1037F0007A21FFF786FA2799384607F047F83346CB
:10380000542228980096B021FFF77BFA2899384671
:1038100007F03CF833465422299800960E21FFF712
:1038200070FA2999C4F898A4384607F02FF833465F
:1038300054222A9800964421FFF763FA2A99C4F883
:10384000C4A4384607F022F8334654222B98009639
:103850007A21FFF756FA2B99C4F8F0A4384607F0FE
:1038600015F8334654222C980096B021FFF749FAF8
:103870002C99C4F81CA5384607F008F833468A226C
:103880002D9800960E21FFF73CFA2D99C4F848A513
:10389000384606F0FBFF33468A222E9800964421D4
:1038A000FFF72FFA2E99C4F874A5384606F0EEFFFC
:1038B00033468A222F9800967A21FFF722FA2F9911
:1038C000C4F8A0A5384606F0E1FF33468A223098B6
:1038D0000096B021FFF715FA3099C4F8CCA5384608
:1038E00006F0D4FF3346C022319800967A21FFF7C4
:1038F00008FA3199C4F8F8A5384606F0C7FF3346F0
:10390000C02232980096B021FFF7FBF93299C4F833
:1039100024A6384606F0BAFF3346F62233980096BE
:103920000E21FFF7EEF93399C4F850A6384606F099
:10393000ADFF3346F622349800964421FFF7E1F9B3
:103940003499C4F87CA6384606F0A0FF3346F62228
:10395000359800967A21FFF7D4F93599C4F8A8A6CE
:10396000384606F093FF3346F62236980096B0218B
:10397000FFF7C7F93699C4F8D4A6384606F086FF93
:103980003346C022379800964421FFF7BAF9379999
:10399000C4F800A738464FF0190A06F077FF3346FF
:1039A00060220C210498CDF800A0FFF7AAF9C4F812
:1039B00034B7A4F838872846FFF704FC95E80700D9
:1039C00004F5E86383E8070015230498ADF8F830A0
:1039D0002946CDF8F4900AF071F90499384606F0BA
:1039E00055FF3346602244210598CDF800A0FFF72B
:1039F00088F9C4F880B7A4F884872846FFF7E2FB6B
:103A000095E8070004F28C7383E8070014230598F7
:103A1000ADF8F8302946CDF8F4900AF04FF9059941
:103A2000384606F033FF334660227A210698CDF8F7
:103A300000A0FFF766F9C4F8CCB7A4F8D0872846F1
:103A4000FFF7C0FB95E8070004F5FB6383E8070078
:103A500013230698ADF8F8302946CDF8F4900AF013
:103A60002DF90699384606F011FF33466022B02141
:103A70000798CDF800A0FFF744F9C4F818B8A4F8E7
:103A80001C882846FFF79EFB95E8070004F62403F0
:103A900083E8070012230798ADF8F8302946CDF8DF
:103AA000F4900AF00BF90799384606F0EFFE33461A
:103AB00096220E210898CDF800A0FFF722F9C4F84D
:103AC00064B8A4F868882846FFF77CFB95E80700EF
:103AD00004F5076383E8070011230898ADF8F83070
:103AE0002946CDF8F4900AF0E9F80899384606F02E
:103AF000CDFE3346962244210998CDF800A0FFF769
:103B000000F9C4F8B0B8A4F8B4882846FFF75AFB07
:103B100095E8070004F6BC0383E807001023099822
:103B2000ADF8F8302946CDF8F4900AF0C7F80999B5
:103B3000384606F0ABFE334696227A210A98CDF835
:103B400000A0FFF7DEF8C4F8FCB8A4F80089284606
:103B5000FFF738FB95E8070004F6081383E8070031
:103B60000F230A98ADF8F8302946CDF8F4900AF002
:103B7000A5F80A99384606F089FE33469622B02108
:103B80000B98CDF800A0FFF7BCF8C4F848B9A4F82A
:103B90004C892846FFF716FB95E8070004F65413F6
:103BA00083E807004FF00E030B98ADF8F830294674
:103BB000CDF8F4900AF082F80B99384606F066FECC
:103BC0003346CC220E210C98CDF800A0FFF799F8CF
:103BD000C4F894B9A4F898892846FFF7F3FA95E851
:103BE000070004F51A6383E807000D230C98ADF86D
:103BF000F8302946CDF8F4900AF060F80C99384670
:103C000006F044FE3346CC2244210D98CDF800A0A6
:103C1000FFF777F8C4F8E0B9A4F8E4892846FFF77D
:103C2000D1FA95E8070004F6EC1383E807004FF09B
:103C30000C030D98ADF8F8302946CDF8F4900AF051
:103C40003DF80D99384606F021FE3346CC227A2104
:103C50000E98CDF800A0FFF754F8C4F82CBAA4F8D9
:103C6000308A2846FFF7AEFA95E8070004F63823B5
:103C700083E807000B230E98ADF8F8302946CDF8FD
:103C8000F4900AF01BF80E99384606F0FFFD334613
:103C9000CC22B0210F98CDF800A0FFF732F8C4F87D
:103CA00078BAA4F87C8A2846FFF78CFA95E80700D2
:103CB00004F6842383E8070004F664530493B94BA5
:103CC0001B682BB9B84BB94A6021B94820F0D0FB2A
:103CD000B84B1B88032B03D8B74BB44A6121F4E7D8
:103CE000B64B0321186800F021FBB54A03460A21B0
:103CF000049810F029FB049B0F98C4F8903A2946C9
:103D00000A23ADF8F830CDF8F49009F0D7FF0F99F9
:103D1000384606F0BBFD33461098CDF800A04FF4AE
:103D200081720E21FEF7EDFFC4F8C4BAA4F8C88A68
:103D30002846FFF747FA95E8070004F52D6383E866
:103D4000070009231098ADF8F8302946CDF8F49013
:103D500009F0B4FF1099384606F098FD33461198E3
:103D6000CDF800A04FF481724421FEF7CAFFC4F8D9
:103D700010BBA4F8148B2846FFF724FA95E8070037
:103D800004F61C3383E807004FF008031198ADF8E0
:103D9000F8302946CDF8F49009F090FF1199384693
:103DA00006F074FD33461298CDF800A04FF48172EE
:103DB0007A21FEF7A6FFC4F85CBBA4F8608B284606
:103DC000FFF700FA95E8070004F6683383E8070078
:103DD00007231298ADF8F8302946CDF8F49009F091
:103DE0006DFF1299384606F051FD33461398CDF811
:103DF00000A04FF48172B021FEF783FFC4F8A8BB86
:103E0000A4F8AC8B2846FFF7DDF995E8070004F627
:103E1000B43383E8070006231398ADF8F830294639
:103E2000CDF8F49009F04AFF1399384606F02EFDBC
:103E30000C2332461498009378217423FEF761FF17
:103E4000C4F8F4BBA4F8F88B2846FFF7BBF995E853
:103E5000070004F5406383E8070005231498ADF8D4
:103E6000F8302946CDF8F49009F028FF1499384627
:103E700006F00CFD0C23159800933E227423782144
:103E8000FEF73FFFC4F840BCA4F8448C2846FFF777
:103E900099F995E8070004F64C4383E807000423EA
:103EA0001598ADF8F83029462126CDF8F49009F0A0
:103EB00005FF1599384606F0E9FC42464146009652
:103EC00004F549605823FEF71CFF3E4BC4F8C43C80
:103ED0003D4BC4F8C83C3D4BC4F8CC3C03F1331314
:103EE00003F54C531698C4F8D03CA4F8C08CFFF7E7
:103EF00077F8179BC4F88C3C169800965823082234
:103F00008A21FEF7FEFE1699384606F0BFFC02989D
:103F10000E228F21FEF7E8FE38AE4FF0FF330299F4
:103F2000C4F8043D3046A4F8088D09F01FFC96E85B
:103F30000700029BCDF8F4903C3383E8070002238E
:103F40000298ADF8F830294609F0B8FE02993846D3
:103F500006F09CFC0398A0225146FEF7C5FE1C4BC0
:103F60000399C4F84C3D3046A4F8508D09F0FEFB8F
:103F700096E80700039BCDF8F4903C3383E80700F4
:103F800001230398ADF8F830294609F097FE38462A
:103F9000039984F8418D06F079FC204641B0BDE8D4
:103FA000F08F00BFD435012043610208456202084A
:103FB000C0610208D835012007620208E0350120FF
:103FC00090620208AD780CFF736439FF663300FF1E
:103FD0000000EDFF6C6802087047000030B5174D17
:103FE0002C6814F001048FB0BFF35B8F23D12846F7
:103FF0001FF004FBF8B13F230993114B0893114BB9
:1040000007930223CDE9053301220423CDE90332CE
:1040100028230D49009308223B23CDE90B44CDE929
:1040200001440A480A94FEF7F3FD094820F03EFADD
:1040300028461FF0EFFA05480FB030BD14270020C6
:10404000B4990208C499020894960208182700201F
:10405000D93F00087047000030B5174D2C6814F0A8
:1040600001048FB0BFF35B8F22D128461FF0C6FA40
:10407000F0B1124B124913480A94CDE90B433F2388
:104080000993114B0893114B0594CDE90643012286
:104090000423CDE90332282300930522CDE901440E
:1040A000FEF7B6FD0A4820F001FA28461FF0B2FAE2
:1040B00004480FB030BD00BF44270020386B020811
:1040C0000497020848270020B8990208C8990208F6
:1040D000554000087047000030B5174D2C6814F0AB
:1040E00001048FB0BFF35B8F22D128461FF086FA00
:1040F000F0B13F230993114B0893114B0793012310
:10410000CDE9054304930423CDE902430A230D4975
:10411000009316220C23CDE90B440B480A9401941A
:10412000FEF776FD094820F0C1F928461FF072FA23
:1041300005480FB030BD00BF74270020BC990208AD
:10414000CC9902084C97020878270020D540000837
:104150007047000030B5164D2C6814F001048FB084
:10416000BFF35B8F21D128461FF048FAE8B13F2307
:104170000993104B0893104B104911480A94CDE94C
:10418000064301220423CDE90332142300931622AF
:10419000CDE90B44CDE901440594FEF739FD09480A
:1041A00020F084F928461FF035FA05480FB030BDDD
:1041B000A4270020C0990208D0990208809802081C
:1041C000A8270020514100080020704700207047B8
:1041D0000EB403B503AB002153F8042B01930DF08B
:1041E00089FC02B05DF804EB03B070470CB407B56E
:1041F00004AB53F8042B01930DF07CFC03B05DF885
:1042000004EB02B070470000436C10B5044673B372
:10421000038F2BB9184B194AC521194820F028F9EA
:10422000C38E00EB43035B8C0BB30FF0E4FA238FD8
:10423000012B03D8134B144ACB21EEE7E28E531C1B
:104240009BB2092B194688BFA3F10A0104EB410177
:1042500040F63F10498C814209D10A2B04EB4202FF
:1042600028BF002304EB4303508C5884518420461C
:10427000BDE810400FF0C2B9936202089C620208C8
:1042800047630208916302089F6302080FF07DB93B
:1042900010B586B002AC84E806001A460AAB059356
:1042A0000193099B00932146089B0BF039FF06B050
:1042B00010BD000038B518BB124B13481C681349D9
:1042C000B4B1226822440260626822440A60A26893
:1042D00014440F4B00221A8000F038F8054600F015
:1042E00033F80C4B1C600C4B1D600C4B188007E026
:1042F0000B4B03600B4B0B600B4B1C68002CE8D185
:1043000038BD00BFE0270020D8270020D427002098
:10431000DC270020D4350120DC350120D8350120F0
:10432000349A0208D4990208949A0208044B1B6834
:1043300053F82100034B1B6803EB4000704700BF9C
:10434000D4270020D8270020182070470048704745
:10435000E427002010B5FFF7FDFE064C2060FFF7B4
:104360003DFE6060FFF7B8FEA060FFF775FEE060FD
:1043700010BD00BFE427002010B5002404600C60CD
:1043800014601C6010BD704710B54FF4AE71044648
:104390001FF032F9204610BD10B50446D0F8580180
:1043A00000F013F82046BDE810400CF09DBB000063
:1043B00010B50446FEF7A2FB014B2360204610BD5A
:1043C000986F0208002202607047704770470438F7
:1043D0007047704710B5102104461FF00DF92046B4
:1043E00010BDA0F10400F5E700228260024A0260DD
:1043F00018324260C1607047EC6F020870470000DD
:1044000010B5034B03600446FEF738FC204610BD90
:104410001470020810B50446FFF7F2FF20464FF46F
:104420009C711FF0E9F8204610BD000010B504464D
:10443000FEF7D2FC014B2360204610BD1470020829
:10444000704704387047704710B5102104461FF0BC
:10445000D3F8204610BDA0F10400F5E700228260E9
:10446000024A026018324260C16070474870020818
:1044700010B5034B03600446FEF7ADFD204610BDAA
:104480007070020810B50446FFF7F2FF204640F6B0
:10449000B4611FF0B1F8204610BD000010B504460D
:1044A000FEF7F6FE064B23604022002104F68850FA
:1044B00020F007FA0023C4F8C83D204610BD00BF15
:1044C00070700208402802462AD012DC082829D041
:1044D00007DC022828D0194B1948042A18BF1846AF
:1044E0007047102822D0154B1648202A18BF1846AE
:1044F0007047B0F5007F1BD008DC80281AD00F4B26
:104500001148B2F5807F18BF18467047B0F5806F2C
:1045100012D00A4B0D48B2F5006F18BF184670470D
:104520000B4870470B4870470B4870470B48704763
:104530000B4870470B4870470B487047B4C1CDFF1C
:10454000C8E0EDFF5F7CF6FF61CCEDFF2EC2EDFF12
:104550003B5EF6FF79B1F2FFDAE4EEFF6395F5FF1B
:1045600050C8EDFF72CFEDFF3FC5EDFF10B586B02F
:1045700001F0DCFA0023019302240B220123694697
:1045800001A8CDE90323059401F0C4FB18B101F0A3
:10459000DFFA06B010BD044B04491A682046D31751
:1045A00001F008FBF3E700BFD023002000000F0854
:1045B000034B1B685A1C034A08BF00231360704753
:1045C00000000F08D023002070B50023A0B00446DF
:1045D00000F684511D460846002250F8046F2EB99B
:1045E00020AE06EBC50646E9203201350132042A29
:1045F000F3D10133042B01F11001ECD1002D21DDA9
:1046000000F088FE20AAB0FBF5F305FB130302EBD4
:10461000C30353E9201202EB0215C1EB41132B44F3
:1046200043400A2002EB8102B3FBF0F3B3FBF0F549
:1046300000FB1533002B02F2623214BF0223042365
:1046400044F8223020B070BD2DE9F0410022224E06
:1046500000F6885517464FF0000E00E0E6460EF1D2
:10466000010C634619016C5894B302EB8E0100EB08
:104670008101D1F8888DB8F1000F09D102EB8303D5
:1046800003F26233C1F8884DF44640F82380E5E731
:10469000444513D102EB830303F262336400C1F893
:1046A000884D40F82370D0F8C83DD1F8881D0B44E0
:1046B0003168C0F8C83D8B4200DD3360BCF1030FA8
:1046C000CCD10132042A05F10405C4D1BDE8F08142
:1046D0000133042BC6D1F1E7D02300202DE9F041AE
:1046E0000022224E00F6885517464FF0030E00E0D8
:1046F000E6460EF1FF3C634619016C5894B302EB99
:104700008E0100EB8101D1F8888DB8F1000F09D13D
:1047100002EB830303F26233C1F8884DF44640F89C
:104720002380E5E7444513D102EB830303F26233B0
:104730006400C1F8884D40F82370D0F8C83DD1F826
:10474000881D0B443168C0F8C83D8B4200DD3360E2
:10475000BCF1000FCCD10132042A05F10405C4D10B
:10476000BDE8F081013BC7D2F2E700BFD0230020B3
:104770002DE9F0430024224F00F68856A4464FF05E
:104780000008A50000E0F04608F1010E734656F857
:10479000231081B305EB080200EB8202D2F8889D5A
:1047A000B9F1000F08D12B4403F26233C2F8881D1F
:1047B000C64640F82390E6E7494512D12B4403F260
:1047C00062334900C2F8881D40F823C0D0F8C83DC4
:1047D000D2F8882D13443A68C0F8C83D934200DDF2
:1047E0003B60BEF1030FCED10134042C06F110065C
:1047F000C5D1BDE8F0830133042BC8D1F1E700BF78
:10480000D02300202DE9F0430024214F00F68856E4
:10481000A4464FF00308A50000E0F04608F1FF3E73
:10482000734656F8231081B305EB080200EB8202B1
:10483000D2F8889DB9F1000F08D12B4403F26233FE
:10484000C2F8881DC64640F82390E6E7494512D1D4
:104850002B4403F262334900C2F8881D40F823C09C
:10486000D0F8C83DD2F8882D13443A68C0F8C83D46
:10487000934200DD3B60BEF1000FCED10134042C29
:1048800006F11006C5D1BDE8F083013BC9D2F2E7BD
:10489000D023002000F6945238B500F6D4551446C3
:1048A000A4F1100151F8043FF3B1A142FAD101F192
:1048B0001004AC42F4D10021A2F10C03032903D06F
:1048C0001D681C69A5420FD0934208D1013104290B
:1048D00003F11002F0D1FFF749FE012038BD1D6839
:1048E00053F8044FA542E9D10020F7E738B50C4C46
:1048F0000C4BB3FBF1F1236815464A1E4908DA62F6
:10490000204699630421E26003F042FC284600F04F
:1049100007FD20460421BDE8384003F079BC00BF04
:104920005024002040420F0010B578224FF4C87187
:104930000446FFF7DBFF1E2000F0F2FC78224FF464
:1049400016712046FFF7D2FF1E2000F0E9FC20463A
:104950008C22BDE810404FF44871FFF7C7BF00003C
:1049600070B50C4D06460FCD86B001AC0FC42B6858
:10497000236001AD002455F8041B78223046FFF770
:10498000B5FF0134322000F0CBFC052CF3D106B08A
:1049900070BD00BF585802082DE9F84F044600F6D4
:1049A0008C65D0F8C83D904ADFF83CB20A21284611
:1049B0000FF0CAFCC4F80C5C04F6C4300DF0C4F966
:1049C0008A4B894A1B6804F56A650A2128460FF05C
:1049D000BBFCC4F8585C04F541600DF0B5F904F671
:1049E00094594FF0000804F6CC5AA9F11006474636
:1049F00056F8043F0C2000FB07A0A3B97C4A06210F
:104A00000FF0A2FC3068FFF75DFD7B1E05460E2B04
:104A10000ED8DFE803F02633404D5A6774818E9B31
:104A2000A8B5C2CFDC005A4606210FF08DFCE9E79D
:104A300004F20470C4F84CA70DF086F9C4F8985439
:104A400004F58E600DF080F94E4507F10107CFD1D6
:104A500008F10408B8F1100F06F11009C5D1BDE83E
:104A6000F88F04F6D85304F5EA60C4F898370DF0CF
:104A70006BF9C4F8C45404F29C40E3E704F6E45331
:104A800004F29C70C4F8E4370DF05EF9C4F8F054F9
:104A900004F59960D6E704F55F6304F5FD60C4F89A
:104AA00030380DF051F9C4F81C5504F2F440C9E750
:104AB00004F6FC5304F63400C4F87C380DF044F9D5
:104AC000C4F8485504F5A460BCE704F6086304F58F
:104AD0000860C4F8C8380DF037F9C4F8745504F20A
:104AE0004C50AFE704F6146304F6CC00C4F8143954
:104AF0000DF02AF9C4F8A05504F5AF60A2E704F55B
:104B0000626304F61810C4F860390DF01DF9C4F89A
:104B1000CC5504F2A45095E704F62C6304F6641017
:104B2000C4F8AC390DF010F9C4F80C5304F5397021
:104B300088E704F6386304F51B60C4F8F8390DF013
:104B400003F9C4F8005704F5DB607BE704F644631F
:104B500004F6FC10C4F8443A0DF0F6F8C4F8F85521
:104B600004F5BA606EE704F5656304F64820C4F8FE
:104B7000903A0DF0E9F8C4F8245604F2FC5061E7CD
:104B800004F65C6304F69420C4F8DC3A0DF0DCF81B
:104B9000C4F8505604F5C56054E704F6686304F59C
:104BA0002E60C4F8283B0DF0CFF8C4F87C5604F210
:104BB000546047E704F6746304F62C30C4F8743B81
:104BC0000DF0C2F8C4F8A85604F5D0603AE704F531
:104BD000686304F67830C4F8C03B0DF0B5F8C4F84B
:104BE000D45604F2AC602DE771640208D023002093
:104BF000635D020810B540220446002100F688508B
:104C00001FF05FFE0023C4F8C83D84F8413D04F660
:104C10001C500DF099F82046FFF7D6FC082000F054
:104C20007FFB2046FFF7D0FC2046BDE81040FFF791
:104C3000B3BE10B50446FEF7CFF978224FF41671D3
:104C40002046FFF753FE1E2000F06AFB78224FF447
:104C500048712046FFF74AFE1E2000F061FB204607
:104C60008C224FF47A71FFF741FE2046FFF7A0FC3B
:104C7000BDE81040FFF7BEBF134BD0F8C82D196830
:104C800010B58A420446C8BF1A60FFF76FFC642261
:104C90004FF448712046FFF729FE1E2000F040FB2C
:104CA00064224FF4C8712046FFF720FE1E2000F05A
:104CB00037FB204696224FF47A71FFF717FE204605
:104CC000BDE81040FFF796BFD023002037B5264D32
:104CD0000446286803F07EFE20B34FF0FF332868B7
:104CE00000220DF1070103F045FE9DF80730522B1D
:104CF00033D019D8442B22D04C2B27D02046FFF795
:104D000063FC2046FFF748FE2046FFF7C3FD48B18D
:104D1000012304F61C5084F8413D0DF015F820469F
:104D2000FFF71EFE03B030BD552BE7D12046FFF73D
:104D30008BFC32224FF44871FFF7D8FDDEE72046A6
:104D4000FFF7CCFC32224FF42F71F5E72046FFF736
:104D50000FFD32224FF41671EEE72046FFF752FDA9
:104D600032224FF4FA71E7E7C0230020F0207047A9
:104D70004FF4A07070472920FDF70EB82820FDF7EA
:104D80000BB808B5FCF7DCFFCA20FDF705F8C32017
:104D9000FCF7E6FF0820FCF7E3FF5020FCF7E0FFFC
:104DA000CF20FCF7F9FF0020FCF7DAFFC120FCF769
:104DB000D7FF3020FCF7D4FFED20FCF7EDFF642097
:104DC000FCF7CEFF0320FCF7CBFF1220FCF7C8FF57
:104DD0008120FCF7C5FFE820FCF7DEFF8520FCF70B
:104DE000BFFF0020FCF7BCFF7820FCF7B9FFCB2009
:104DF000FCF7D2FF3920FCF7B3FF2C20FCF7B0FF03
:104E00000020FCF7ADFF3420FCF7AAFF0220FCF7DE
:104E1000A7FFF720FCF7C0FF2020FCF7A1FFEA2046
:104E2000FCF7BAFF0020FCF79BFF0020FCF798FF7F
:104E3000B120FCF7B1FF0020FCF792FF1B20FCF72C
:104E40008FFFB620FCF7A8FF0A20FCF789FFA220FD
:104E5000FCF786FFC020FCF79FFF1020FCF780FFC7
:104E6000C120FCF799FF1020FCF77AFFC520FCF762
:104E700093FF4520FCF774FF1520FCF771FFC72056
:104E8000FCF78AFF9020FCF76BFF3620FCF784FFCD
:104E9000C820FCF765FFF220FCF77EFF0020FCF73E
:104EA0005FFFB020FCF778FFC220FCF759FFB62067
:104EB000FCF772FF0A20FCF753FFA720FCF750FF16
:104EC0002720FCF74DFF0420FCF74AFF2A20FCF7BF
:104ED00063FF0020FCF744FF0020FCF741FF0020A7
:104EE000FCF73EFFEF20FCF73BFF2B20FCF754FFC5
:104EF0000020FCF735FF0020FCF732FF0120FCF713
:104F00002FFF3F20FCF72CFFF620FCF745FF012088
:104F1000FCF726FF0020FCF723FF0620FCF720FF0C
:104F20002C20FCF739FFC820FCF784FF2620FCF773
:104F300033FF0120FCF714FFE020FCF72DFF0F20CA
:104F4000FCF70EFF2920FCF70BFF2420FCF708FFDD
:104F50000C20FCF705FF0E20FCF702FF0920FCF7F0
:104F6000FFFE4E20FCF7FCFE7820FCF7F9FE3C200B
:104F7000FCF7F6FE0920FCF7F3FE1320FCF7F0FE29
:104F80000520FCF7EDFE1720FCF7EAFE1120FCF7E8
:104F9000E7FE0020FCF7E4FEE120FCF7FDFE002028
:104FA000FCF7DEFE1620FCF7DBFE1B20FCF7D8FE2C
:104FB0000420FCF7D5FE1120FCF7D2FE0720FCF7F9
:104FC000CFFE3120FCF7CCFE3320FCF7C9FE422097
:104FD000FCF7C6FE0520FCF7C3FE0C20FCF7C0FE64
:104FE0000A20FCF7BDFE2820FCF7BAFE2F20FCF7B4
:104FF000B7FE0F20FCF7B4FE1120FCF7CDFEC82051
:10500000FCF718FF2920FCF7C7FEBDE808402C205C
:10501000FCF7C2BE08B5FCF793FE0321D320FCF7D2
:10502000D7FE80B208BD10B5C4B2022203212046CB
:10503000FCF73CFE0A20FCF781FE204600220321FB
:10504000FCF734FEBDE810400220FCF777BE38B50F
:105050000446E4B2FCF728FE00212046FCF73EFEA1
:10506000012105462046FCF739FE40EA052080B2C2
:1050700038BD10B5C4B240212046FCF72FFE030610
:1050800007D54C212046FCF729FE003818BF012027
:1050900010BD01224B212046FCF708FE20460022CD
:1050A0004B21FCF703FE0020F2E773B50423C4B2E2
:1050B0000E461546D7210DEB03022046FCF728FECD
:1050C000019B1BBA1A0DC3F30B23328020462B80A1
:1050D00001224B21FCF7EAFD00224B212046FCF780
:1050E000E5FD02B070BD000010B50A4A1378984281
:1050F00004460DD0517888420AD00BB141B9012342
:10510000D454FCF7D1FD2046BDE81040FFF78BBF1B
:1051100010BD00BFF427002010B5C4B209212046FD
:10512000FCF7DCFD40F00102D2B220460921BDE8C7
:105130001040FCF7BBBD10B5C4B209212046FCF7F6
:10514000CDFD092100F0FE022046BDE81040FCF72D
:10515000ADBD38B5C4B20D4620460A21FCF7BEFDF0
:1051600040EA0502D2B220460A21BDE83840FCF7E9
:105170009DBD10B50446FCF798FD20461F21FFF7A2
:10518000E8FF2046BDE81040FFF7C6BF38B5C4B2FF
:105190000D4620460A21FCF7A1FD20EA0502D2B205
:1051A00020460A21BDE83840FCF780BD10B5044612
:1051B000FFF7C1FF20461F21BDE81040FFF7E6BF03
:1051C00010B5C0B20C460B21FCF788FD204010BD85
:1051D0001F21FFF7F5BF0A46C0B20B21FCF766BDE1
:1051E0001F21FFF7F8BF38B5C4B20D46204617217E
:1051F000FCF774FD20EA0502D2B220461721BDE873
:105200003840FCF753BD70B5C4B2064604212046B1
:10521000FCF764FD042100F0FB0205462046FCF784
:1052200045FD3046F021FFF7DEFF05F0F80220468D
:105230000421FCF73BFD492220212046FCF736FDE6
:105240000220FCF77BFD204601222121FCF72EFDE8
:1052500020469A224121FCF729FD204601224A21BD
:10526000FCF724FD204601224B21FCF71FFD2046C0
:1052700000224B21FCF71AFD204601225621FCF7A3
:1052800015FD204601225821FCF710FD2046012281
:105290004021FCF70BFD2046FF220B21FCF706FD09
:1052A000BDE870400220FCF749BD0000054BD3F873
:1052B000882042F47002C3F888204FF000629A60A0
:1052C000704700BF00ED00E008B50B4B1A6842F4D0
:1052D00000721A601A6842F480621A601A6842F416
:1052E00080721A60032000F045FA0020FDF72EF9C5
:1052F000FCF728FE002008BD003C0240034A044B96
:1053000011681B780B441360704700BFF82700201A
:1053100078000020014B1868704700BFF827002074
:1053200038B50446FFF7F6FF631C1CBF054B1B781E
:10533000054618BFE418FFF7EDFF431BA342FAD35D
:1053400038BD00BF7800002038B50446002800F0C2
:105350009B80056C25B9FCF715FE656484F83C500C
:10536000236CDB0600F18E80236C23F4885323F03A
:10537000020343F002032364444B5A6822F4403290
:105380005A605A6861680A435A60236821695A68FA
:1053900022F480725A605A6842EA01225A605A68BE
:1053A000A16822F040725A605A680A435A609A68AB
:1053B000E16822F400629A609A680A439A6034496C
:1053C000A26A8A4252D0996821F070619960996806
:1053D0000A439A609A68E16A22F040529A609A6899
:1053E0000A439A609A6822F002029A609A68217EC3
:1053F00042EA41029A6094F82020002A3ED05A687E
:10540000616A42F400625A605A6822F460425A604B
:105410005A68013942EA41325A60DA6AE16922F493
:105420007002DA62DA6A013942EA0152DA629A6893
:1054300022F400729A609A6894F8301042EA41228D
:105440009A609A68616922F480629A609A68002082
:1054500042EA81229A606064236C23F0030343F0E4
:1054600001032364002384F83C3038BD9A6822F09D
:1054700070629A609A6822F04052B2E75A6822F449
:105480000062C9E70120EDE70120EEE700230140BB
:105490000100000F82B00023019390F83C30012BF3
:1054A00069D0012380F83C3003689A68D2070BD595
:1054B0009A68D1071AD4036C43F010030364436C59
:1054C00043F0010343644CE09A682C4942F0010226
:1054D0009A602B4A1268B2FBF1F202EB420201928F
:1054E000019A002AE4D0019A013AF8E7026C22F40A
:1054F000E06222F0010242F4807202645A685205AE
:1055000041BF026C22F4405242F480520264026CA9
:1055100012F480521CBF426C22F006024264002248
:1055200080F83C206FF022021A60164A516811F090
:105530001F0F15491CD18B4207D001F580718B429A
:105540000CD1526812F01F0F0BD19A6812F0405F15
:1055500007D19A6842F080429A6002E00B498B4280
:1055600002D0002002B07047526812F0100FEBE733
:105570008B42F6D1E9E70220F4E700BF40420F007A
:10558000740000200023014000200140002201405F
:1055900003689A68520570B504460D460BD59B68A2
:1055A000DE0508D5036C43F020030364002380F874
:1055B0003C30012070BDFFF7ADFE064623681A6837
:1055C00091070CD56FF012021A60226C42F400723F
:1055D00022649A6812F0405F17D00020EAE7681C46
:1055E000EDD065B923681B6813F00203E6D1226C85
:1055F00084F83C3042F0040222640320DAE7FFF72B
:1056000089FE801BA842EDD8D8E7227E002AE4D18B
:10561000DA6A12F4700F02D09B685A05DDD4236C4D
:1056200023F480732364236CDB04D6D4236C43F00F
:1056300001032364D1E70368D86C7047F7B50023F2
:10564000019390F83C30012B054600F08680012341
:1056500080F83C3008682B688E68092884B233D9FA
:1056600004EB4402DF681E3A4FF0070C0CFA02FC10
:1056700027EA0C07DF60DF6806FA02F23A43DA60D5
:105680004968062901EB81022DD8596B053A1F267E
:10569000964021EA06015963596B04FA02F20A4363
:1056A0005A632F4A93420AD1122837D12D4B5A6898
:1056B00022F400025A605A6842F480025A600020C4
:1056C00085F83C0003B0F0BD1A6900EB400C0727D9
:1056D00007FA0CF722EA07021A611A6906FA0CF6B1
:1056E00016431E61CCE70C294FF01F010BD81E6B2F
:1056F000233A914026EA01011963196B04FA02F278
:105700000A431A63CDE7DE6A413A914026EA010175
:10571000D962D96A94400C43DC62C2E7124B9842CA
:1057200001D01128CBD10F4B5A6822F480025A6065
:105730005A6842F400025A600B4B9842BFD10B4B9F
:105740000B4A1B68B3FBF2F30A2253430193019BFC
:10575000002BB4D0019B013BF8E70220B2E700BF69
:1057600000200140002301401200001074000020BE
:1057700040420F000749CA6822F4E06203021204A3
:1057800003F4E063120C134343F0BF6343F40033AC
:10579000CB60704700ED00E0164B30B5DC68C4F319
:1057A0000224C4F10703251D042B28BF0423062D62
:1057B0004FF0FF358CBF033C002405FA03F321EAC8
:1057C0000303A54022EA0502A340002843EA02039E
:1057D000ACBF00F16040084A4FEA0313B8BF00F0C5
:1057E0000F00DBB2AABF00F56140135480F800330C
:1057F00030BD00BF00ED00E014ED00E0002807DB45
:10580000044A4109012300F01F00834042F821307F
:10581000704700BF00E100E010B5044650B1437985
:1058200003F0FF0213B90271FCF704FC012363715A
:10583000002010BD0120FCE710B5044620B390F80D
:10584000393003F0FF021BB980F83820FCF70AFC5E
:10585000022384F83930236861681A6822F44032E0
:105860000A431A605A6BA16822F007020A435A637E
:105870001A6CE1686FF30D020A431A6400200123D9
:10588000E06384F8393010BD0120FCE770477047B1
:10589000036870B55E681D68F207044614D5E90513
:1058A00012D51A6822F480721A60C26B42F00102AB
:1058B000C26301229A60042380F83930002380F803
:1058C0003830436903B19847B20616D5AB0414D5F6
:1058D00023681A6822F400521A6020229A60E36B4F
:1058E00043F00203E363042384F83930002384F88F
:1058F000383063690BB120469847300716D5290523
:1059000014D523681A6822F400621A6008229A608B
:10591000E36B43F00403E363042384F8393000238A
:1059200084F8383063690BB12046984772070BD56D
:105930006B0509D523681A6822F480621A60042274
:105940009A602046FFF7A2FFB00714D5A90512D52B
:1059500023681A6822F400721A6002229A60E36BCC
:10596000E363012384F83930002384F83830236955
:105970000BB120469847F20613D5EB0411D52368E6
:105980001A6822F480521A6010229A60E36BE36373
:10599000012384F83930002384F838302046FFF79B
:1059A00076FF70BDF0B590F83820012A03464FF01D
:1059B00002002BD0012283F8382083F8390003EB52
:1059C0000112D2E90740556A174F44EA0040093CEA
:1059D000012C9CBF05F07F4210434FEA01161A6864
:1059E00088BF40EA056091B9516A3940014351626C
:1059F000012C9969916103D8596A21F07F41916224
:105A00000122002083F8392083F83800F0BDD169E5
:105A100039400143D1619919012C896911619CBFF9
:105A200025F07F451562EBE7F0FFFC00094910B552
:105A30000C6924F440740C610C6944F440740C61EA
:105A40000C6944F001040C610260BFF36F8F436086
:105A500010BD00BF003C0240074B1A6922F440729F
:105A60001A611A6942F400721A611A6942F001025D
:105A70001A610160704700BF003C0240074B1A6981
:105A800022F440721A611A6942F480721A611A692A
:105A900042F001021A610180704700BF003C0240E1
:105AA000204BDA68D00606D51F49CA6942F01002B9
:105AB000CA611022DA60DA68910606D51A49CA6905
:105AC00042F00802CA612022DA60164BDA685206F8
:105AD00006D51549CA6942F00402CA614022DA605B
