:020000040800F2
:10000000000003206D0600080D2500080F250008DC
:100010001125000813250008152500080000000020
:10002000000000000000000000000000317F000818
:100030001725000800000000C17F0008377800087D
:10004000BD060008BD060008BD060008BD06000884
:10005000BD060008BD060008BD060008BD06000874
:10006000BD060008BD060008BD060008BD06000864
:10007000BD060008BD060008BD060008BD06000854
:10008000BD060008BD060008BD060008BD06000844
:10009000BD060008BD060008BD060008BD06000834
:1000A000BD060008BD060008BD060008BD06000824
:1000B000BD060008BD060008BD060008BD06000814
:1000C000BD060008BD060008BD060008BD06000804
:1000D000BD060008BD060008BD060008BD060008F4
:1000E000BD060008BD060008BD060008BD060008E4
:1000F000BD060008BD060008BD060008BD060008D4
:10010000BD060008BD060008BD060008BD060008C3
:10011000BD060008BD06000819250008BD06000838
:10012000BD060008BD060008BD060008BD060008A3
:10013000BD060008BD060008BD060008BD06000893
:10014000BD060008BD060008BD060008BD06000883
:10015000BD060008BD060008BD060008BD06000873
:10016000BD060008BD060008BD060008BD06000863
:10017000BD060008BD060008BD060008000000001E
:10018000BD060008BD060008BD060008BD06000843
:10019000BD060008BD060008BD060008BD06000833
:0C01A00025250008BD06000831250008D8
:1001B00010B5054C237833B9044B13B10448AFF3A1
:1001C00000800123237010BD800300200000000088
:1001D000404A020808B5034B1BB103490348AFF37B
:1001E000008008BD0000000084030020404A02088F
:1001F000034613F8012B002AFBD1181A0138704767
:1002000001F0FF01102A2BDB10F0070F08D010F8C7
:10021000013B013A8B422DD010F0070F42B3F6D1CB
:10022000F0B441EA012141EA014122F007047FF0E4
:1002300000070023F0E80256083C85EA010586EA3B
:10024000010685FA47F5A3FA87F586FA47F6A5FA77
:1002500087F68EB9EED1F0BC01F0FF0102F0070283
:1002600032B110F8013B013A83EA010313B1F8D12E
:100270000020704701387047002D06BF354603380F
:10028000073815F0010F07D1013015F4807F02BF48
:10029000013015F4C03F0130F0BC0138704700BF99
:1002A0007BB972B90029BEBF00204FF0004106E0C3
:1002B00008BF00281CBF6FF000414FF0FF3000F076
:1002C000D3B9ADF1080C6DE904CE002909DB002B90
:1002D0001ADB00F04DF8DDF804E0DDE9022304B09C
:1002E0007047404261EB4101002B1BDB00F040F8FE
:1002F000DDF804E0DDE9022304B0404261EB410196
:10030000524263EB43037047524263EB430300F0F6
:100310002FF8DDF804E0DDE9022304B0404261EB90
:1003200041017047524263EB430300F021F8DDF8CE
:1003300004E0DDE9022304B0524263EB430370475B
:1003400053B94AB9002908BF00281CBF4FF0FF313C
:100350004FF0FF3000F088B9ADF1080C6DE904CE24
:1003600000F006F8DDF804E0DDE9022304B0704790
:100370002DE9F047089D8E4604468846002B4AD159
:100380008A42174662D9B2FA82F64EB1C6F120030C
:1003900001FA06F820FA03F3B74043EA0808B4402C
:1003A0004FEA174E1FFA87FCB8FBFEF1230C0EFB39
:1003B000118843EA084301FB0CF29A4209D9FB1861
:1003C00001F1FF3080F0EA809A4240F2E780023982
:1003D0003B449A1AA3B2B2FBFEF00EFB102243EA92
:1003E000024300FB0CFC9C4509D9FB1800F1FF32CD
:1003F00080F0D6809C4540F2D3803B44023840EAEE
:100400000140A3EB0C0300211DB1F3400022C5E91C
:100410000032BDE8F0878B4205D90DB1C5E9000176
:1004200000210846F5E7B3FA83F1002946D1734568
:1004300002D3824200F20581841A6EEB030201208E
:100440009046002DE5D0C5E90048E2E7002A00F01B
:100450009080B2FA82F6002E40F0A4808A1A030C33
:100460004FEA174E80B2BCB20121B2FBFEFC0EFB7C
:100470001C2243EA024304FB0CF29A4207D9FB1800
:100480000CF1FF3802D29A4200F2E080C4469B1A77
:10049000B3FBFEF20EFB123340EA034302FB04F40B
:1004A0009C4207D9FB1802F1FF3002D29C4200F2B5
:1004B000CA8002461B1B42EA0C40A5E7C1F1200698
:1004C0008B4022FA06F71F430EFA01F420FA06F3D6
:1004D0002EFA06FE4FEA1749234300FA01F81FFAE5
:1004E00087FCBEFBF9F01C0C09FB10EE44EA0E443D
:1004F00000FB0CFEA64502FA01F209D93C1900F1F5
:10050000FF3A80F09C80A64540F2998002383C4436
:10051000A4EB0E041FFA83FEB4FBF9F309FB1344AA
:100520004EEA044403FB0CFCA44508D93C1903F132
:10053000FF3E80F08280A4457FD9023B3C4443EAE1
:100540000040A4EB0C04A0FB02EC64457346E146BA
:1005500062D35FD05DB1B8EB030264EB090404FA27
:1005600006F622FA01F31E43CC40C5E900640021DF
:100570004FE7B1FBF2FC010C41EA0E4180B240EAC8
:1005800001423B4638463C46B846BE462026B1FBB3
:10059000F7F1A2EB080241EA0C4166E7014618E7D1
:1005A00010462CE7C6F120022EFA02F3B740B14004
:1005B00020FA02F24FEA174E0A43B3FBFEF8BCB230
:1005C0000EFB1833110C41EA034108FB04F9B0405B
:1005D00089454FEA104380B23ED9791808F1FF3CB3
:1005E00001D289451FD8A1EB0901B1FBFEF909FB36
:1005F00004F80EFB191192B242EA0142424529D297
:10060000BA1809F1FF31C4D24245C2D2A9F10201A0
:100610003A44BEE7F0459DD2BEEB02036CEB070CFB
:100620000138E14696E7A7EB09094944A8F1020C15
:10063000B1FBFEF909FB04F8DBE773467FE75046A0
:1006400066E70846FDE63B44023A33E7ACF1020CAC
:100650003B441CE749469CE7A1EB0901C446B1FBBA
:10066000FEF909FB04F8C4E7704700BFDFF834D097
:10067000002103E00C4B5B58435004310B480C4BFA
:1006800042189A42F6D30B4A02E0002342F8043B98
:10069000094B9A42F9D304F0EFFA23F0BBFA01F0C8
:1006A0005DF8704700000320A8EE0308000000205A
:1006B000640100208003002058420120FEE77047BB
:1006C00008B500F0BBFDBDE8084000F03FBD00F0FC
:1006D000B7BD704710B50421044622F08DF82046BE
:1006E00010BD000038B50C4B0C4C18800C4B822010
:1006F00019806368984740F6110398420AD1094D62
:1007000023682C60822098472B688220DB689847FA
:10071000002038BD0120FCE7A60300204C0000208B
:10072000A4030020A80300204FF4A071F020FFF7DD
:10073000D9BF0000F7B5394D2B6804461B698220EC
:100740009847208000284ED02B680DF106025B6987
:1007500001A982209847324B1B78002B4BD0BDF863
:10076000062040F674639A423FD9ADF80630BDF8D2
:1007700006209B1A9BB20A2B42D90B22B3FBF2F341
:10078000284A1288934201D9013A93B2BDF8042055
:10079000254840F6B8318A4234D8C2F571620E322B
:1007A000016892B20F25B2FBF5F2204D2D88AA42C6
:1007B00084BF05F1FF35AAB28A4215468EB22AD906
:1007C000921B91B21A4E3768BB42BAB28CBF9A1ACA
:1007D000D21A92B211440529C4BF05603360036880
:1007E00063803368A38003B0F0BDB32A9CBFB422FA
:1007F000ADF80620BBE7BDF80630A3F5B473B9E742
:100800000023C3E7C2F56D62083292B20E2A016876
:10081000C8D800252A46891A89B2D3E7A803002040
:10082000FC230020A4030020A0030020A603002036
:100830009C03002037B568460D461446FFF77AFF43
:10084000BDF8000030B1BDF802302B60BDF80430B7
:100850002360012003B030BD032821D8DFE800F079
:10086000020B12190F4B1A68B2FA82F252090421D4
:100870000D4804F0ABBE0B4B5A68B2FA82F2520933
:100880000821F5E7074B9A68B2FA82F25209102163
:10089000EEE7044BDA68B2FA82F252092021E7E768
:1008A000704700BFAC03002000100240032821D88D
:1008B000DFE800F0020B12190F4B1A68003A18BF5C
:1008C000012204210D4804F081BE0B4B5A68003A06
:1008D00018BF01220821F5E7074B9A68003A18BFB4
:1008E00001221021EEE7044BDA68003A18BF01221A
:1008F0002021E7E7704700BFAC0300200010024052
:1009000003280DD8DFE800F00206080A0421054894
:1009100004F061BE0821FAE71021F8E72021F6E78C
:10092000704700BF0010024008B5032811D8DFE867
:1009300000F0020A0C0E0421074804F041FE431E99
:100940005842584108BD0821F6E71021F4E720215C
:10095000F2E70020F3E700BF0010024070B5084D39
:1009600000240126E0B2FFF7DFFF18B12B68012B4E
:1009700018BF2E600134052C05F10405F2D170BDBD
:10098000AC030020012380F8781080F8793070479C
:100990007047002070470000034B4164003918BFC6
:1009A00001211970704700BF1735012070470020E2
:1009B0007047836B0BB10846184770474FF6FF70BE
:1009C0007047406803689B691847704770477047D5
:1009D0007047704710B5044600F048FD236803498E
:1009E000D3F890302046BDE810401847000000D0F2
:1009F00008B503680446D3F8843098472368204636
:100A0000DB6F984700F0ECF8236820465B6F98474F
:100A1000292001F093F900F0E3F8236820465B6F8A
:100A20009847F8E710B504460AF098F8236820467E
:100A3000D3F8BC30BDE81040184700F0FBBC00F014
:100A4000FFBC00F031BD00F0D1BC00F041BD00F0B2
:100A500049BD00F0D5BC09F0AFBA10B584210446F9
:100A600021F0CAFE204610BD10B590F8341090F861
:100A700078400C4B8C421A7809D03AB90A4A0B4993
:100A80001488088810800C8001221A7010BD002A7A
:100A9000FCD0054A05491488088810800C80002283
:100AA000F3E700BF103501200C3501200E35012081
:100AB00070B50D46194635B9094B0A4A0A4840F245
:100AC000FF2122F0D5FDC0E90F52084B003A18BFB4
:100AD00001221A700368BDE87040D3F890301847BF
:100AE000B04A0208E84A0208364B020816350120CF
:100AF00008B5094B1B888B4203D8084B1B889342CF
:100B000005D9074B074A0848A32122F0B1FD074B3E
:100B10001980074B1A8008BD0C3501200E350120C5
:100B20007B4B0208DE4B0208364B020812350120CF
:100B300014350120034690F87A0018B1586803680C
:100B40001B68184770470000012108B500220846BD
:100B500006F0FAFE0A4B186028B90A4B0A4A282107
:100B60000A4822F085FD00220421012006F094FFAE
:100B7000074B186018B9074B034A2C21F0E708BD52
:100B8000C0030020214C02086A4C0208994C02085C
:100B9000BC030020CF4C0208024B4FF0FF31186815
:100BA00006F01CBFC0030020014B186806F042BFCE
:100BB000C0030020024B0021186806F00FBF00BFE1
:100BC000C0030020FFF7F0BF03480449006800237A
:100BD0001A4606F09CBF00BFBC03002004000020A2
:100BE00013B5084C00231A4601A9206806F0C0FF7F
:100BF00020684FF0FF33002201A906F0B9FF02B0D0
:100C000010BD00BFBC03002003685B6C18470120C7
:100C1000704703689B6A1847FEE740F2EF30704761
:100C2000054B0360054B4FF08062C3F88820BFF38B
:100C30004F8FBFF36F8F7047D857020800E100E075
:100C400010B504464FF45A61FFF7EAFF204621F041
:100C5000D3FD204610BD000082B0002301930E4B4F
:100C60001A6B42F400021A631A6B02F4000201923A
:100C7000019A1A6942F400021A611A6922F4000208
:100C80001A61064B064A1A61064A5A61064B4FF032
:100C900080629A6002B0704700380240DC25002074
:100CA000F90E0008190C000800E100E008B50A2858
:100CB00009D8DFE800F006100E0808080810101028
:100CC0001000022008BD054B054A0648902122F07D
:100CD000CFFC0020F6E70120F4E700BF114D020829
:100CE0002C4D0208774D020838B50C46887FFFF777
:100CF000DDFFA58AE28A164B2169586342EA054264
:100D00005A64628BD963521B1A642568082D0ED170
:100D10009A611A615862207F0E4A42EA0062DA61E3
:100D2000E2681A620C4A5961D9601A6038BD002223
:100D3000D8611A61E1680A0A480902F4784200F4AD
:100D4000FC600243C1F3C4010A439A63034AECE71F
:100D500000B002400900010001230200012303004A
:100D600008B50B280BD8DFE800F00612100A0A0AB3
:100D70000A0808080808022008BD0520FCE7054B02
:100D8000054A06486F2122F073FC0020F4E7012099
:100D9000F2E700BF114D0208AB4D0208774D020883
:100DA0002DE9F04191F81D800C464046FFF7D8FF31
:100DB000A77F05463846FFF7D3FF06463846FFF7BC
:100DC00075FFA18A628B444B521A1A649A61228B76
:100DD000521A1A61E28A586342EA01425A6421694E
:100DE0006268D963DA602068802828D0227F0FD813
:100DF000202867D0402865D004281AD0364B45EA11
:100E0000026545F40035B845DD6161D0334A44E000
:100E1000B0F5807F04D0B0F5007FEFD1304800E01E
:100E2000304840EA0262DA61E2681A625E62596141
:100E300032E045EA026242F40032DA61F6E7A06885
:100E4000021DDA62227F45EA026545F40035DD6164
:100E50005E625961017841B1012921D0224B234AB8
:100E600023484FF48D7122F003FCDA69418822F4A3
:100E70007F42013922F0100242EA0122DA610121A7
:100E8000154BDA6942F02002DA61DA699206FCD485
:100E900010229A600029B9D0164A1A60BDE8F08184
:100EA000B2F1FF01DA69408822F47F4200F1FF309D
:100EB00022F0100242EA002242F0100218BF012183
:100EC000DA61DDE745EA0262034B42F40032B4E73F
:100ED00042F20132E1E700BF00B00240012301000D
:100EE000090002000A000200F54D02080F4E020838
:100EF000774D020801230200024B1B685868036803
:100F00005B6918471835012070B5044625460A4B21
:100F10000C30002660602672667245F8203B602225
:100F2000294609F071FF04F55A63EE6024359D42AD
:100F3000FBD1204670BD00BFD8570208034B1A688A
:100F4000D207FCD423229A60704700BF00B0024051
:100F50007047000030B50F4C2568ED07FCD4232501
:100F60000904A56041F001010225FF2B656361645E
:100F7000E0630AD00849656241EA0363E361074B15
:100F800022626061E060236030BDE561039BA36382
:100F9000034BF8E700B00240090001000100020025
:100FA0000100030030B50E4C2568ED07FCD4232565
:100FB0001204A56042F001020225FF2B6563626402
:100FC000E063E16008D01B0643F00213E361054BC8
:100FD00065626061236030BD034BE3610123F9E783
:100FE00000B0024001000200020002FF30B50B4CCD
:100FF0002568ED07FCD4232512041B06A56043F4E5
:101000000033022542F0010265636264E063E1603F
:10101000E361034B65626061236030BD00B0024054
:1010200001000200012070470C2070470C2303FBD5
:101030000100083070470C2303FB010008307047A3
:101040000120704740F6EC60704740F6EC6303FB0C
:1010500001000830704740F6EC6303FB01000830E4
:101060007047012070471020704700EB01100830D6
:10107000704700EB011008307047084601F0FABCD9
:1010800010B5034B0360044608F0EDFC204610BD8C
:101090009058020810B50446FFF7F2FF20461421CD
:1010A00021F0AAFB204610BD10B5034B0360044697
:1010B00008F0D9FC204610BD5C58020810B5044663
:1010C000FFF7F2FF204640F6F46121F095FB204641
:1010D00010BD000010B5034B0360044608F0C3FCCC
:1010E000204610BD2858020810B50446FFF7F2FF4D
:1010F0002046182121F080FB204610BD10B5084B7A
:101100000360044600F57260FFF7BAFF04F12C009B
:10111000FFF7CAFF04F11400FFF7DCFF204610BD03
:10112000C458020808B50248FFF7E8FF08BD00BF31
:101130009C12002010B50446FFF7E0FF204641F264
:10114000940121F059FB204610BD00002DE9F34128
:1011500001F062FA054601F063FA002401462346D5
:1011600028462246009412F095FA274B274A1A6027
:10117000204602F057FF264D264B274A27489A6003
:1011800012F0F0F92B68BFF35B8FDB0735D42846EC
:1011900021F034FB88B3224C224B236004F63876CE
:1011A00004F1140004F12C0804F572676060C4F8BF
:1011B0000880E760266108F057FC1B4B63614046DE
:1011C00008F052FC194BE362384608F04DFC184B0E
:1011D000C4F8203F04F6347002F0A8FF224604F65B
:1011E0003471304602F098FF304601F043FC11485C
:1011F00022F05CFA284621F00DFB0F4802B0BDE852
:10120000F041FFF7E7BB00BF7C3501204804002018
:1012100098120020680400204C04002008000020E0
:101220009C120020C4580208285802085C58020882
:101230009058020825110008C403002070470000E0
:101240000148FFF7D5BB00BFC403002070B5264E90
:10125000264C274D274B23603046FFF755FE284686
:1012600017F01EFB24480FF025FF244B2448DC60B8
:1012700000224FF48071C3E9121222491A86C3E991
:101280001A12214983F85820C3E91E011F49C3F8E7
:1012900080101F491F480B60F021C3E90422C3E9F5
:1012A0000622C3E90822C3E90A22C3E90E22C3E9E0
:1012B0001022C3E91422C3E917225A6683F870206A
:1012C0005A67C3E9016501801348018013484FF450
:1012D000A07101801248018012490A70012283F82E
:1012E0003420114A1A6070BDF404002094120020CA
:1012F00068040020A04A02084C040020C403002017
:101300000000010101000001000450001A00140057
:10131000183501200C350120123501200E35012031
:101320001435012010350120EC5602080148FFF762
:1013300077BC00BFF4040020002070478180704714
:10134000C180704701817047418170477047704785
:1013500070477047704710B4C4880368121B8488B4
:101360005B6D091B12B25DF8044B09B218474FF6CA
:10137000FF7383814FF0FF3303621368C361106012
:101380007047002070478B8883800120704770472A
:1013900080F82610704790F82600704710B500229C
:1013A000B1F90840B1F90A10028042808480C180FE
:1013B00010BD0022028042808280C2807047017787
:1013C000704780ED080A704780F82410704780F855
:1013D0002510704701207047983070478C30704757
:1013E000843070477047704770470000034B90226D
:1013F00083F85A2383F85823704700BF00E100E0C8
:10140000094A0A49D3680A48C3F30A03013B9BB25D
:101410000B801169C1F30A01013901801364536B18
:1014200043F00103536370470068014032230020FA
:1014300030230020014BD3F8AC0070470068014016
:10144000024B0122C3F8AC105A6270470068014099
:1014500010B52C21044621F0CFF9204610BD10B55F
:10146000BC21044621F0C8F9204610BD70B50446E1
:1014700008F0F7FD23689D6E0EF0B4FB0146204690
:10148000A8472368054AD3F88C502046AC46002371
:10149000BDE87040A2F51631604700BF00B004D02F
:1014A00008F0C6BD08F0D0BD08F08CBD08F0FBBE4A
:1014B00090F8252012B103685B691847704790F8CF
:1014C00025201AB190F8242002B11860704700005E
:1014D000034B4FF080629A604FF080729A607047C1
:1014E00000E100E0084B4FF08062C3F88820BFF3B2
:1014F0004F8FBFF36F8F4FF08072C3F88820BFF318
:101500004F8FBFF36F8F704700E100E070B500238D
:10151000124E8380124B0360336893F858200546BF
:101520000AB1D86C00B998680368DB6A98473368D9
:10153000B0FA80F4D86C640930B10368DB6A98476C
:10154000002808BF44F001042CB9064B064A07489E
:101550002C2122F08DF8284670BD00BF18350120DF
:10156000D85802084D4E0208AB4E0208E44E02085D
:1015700070B5254E3568BFF35B8F15F0010540D17E
:10158000304621F03BF900283BD0204C204B256110
:1015900004F13400C4E90035C4E90255E584A562CC
:1015A000A58510F06CF804F158000BF0E1F8194B28
:1015B000A3652046184B40F8843BFFF7A7FF174B65
:1015C000C4F884302433C4F88C304FF4C803C4E921
:1015D00028350023C4F8AC30C4F8B030C4F8B430B7
:1015E000C4F8B8300E480F4BC4F89050C4F89C5063
:1015F000C4F8A850C4F8983022F058F8304621F0CA
:1016000009F9024870BD00BF3423002038230020B0
:10161000C05F0208F858020870590208745F020897
:10162000E9130008545F020838B5184C23685BB30F
:10163000174B184A1B6C11888B4216D1164B198810
:1016400004F0CCFD236893F86A200025013283F86A
:101650006A2083F87C50FFF7B7FA206809F07EFA19
:101660002846BDE83840FFF7F7B804F0B7FD246816
:10167000236820461B6A9847012384F87C300020A9
:10168000BDE83840FFF712B938BD00BF183501205A
:1016900000680140322300203023002007B5064BAC
:1016A000ADF806001B68054801220DF1060105F0A2
:1016B00045FB03B05DF804FB0C00002088240020EB
:1016C00030B595B0102200210AA822F0FAF91422B0
:1016D000002103A822F0F5F900241E4B01941A6C96
:1016E00042F080521A641B6C03F080530193019BFB
:1016F000194B02941A6842F440421A601B6803F4C2
:10170000404302930122029B4FF48033CDE908232A
:1017100002254FF480030821CDE90E534FF4B47332
:10172000CDE9101308A804231393129504F0AEFD1D
:1017300004F072FD0F23CDE903354FF4A0504FF4B0
:101740008053CDE90603052103A8059404F07AFF30
:1017500015B030BD00380240007000402DE98048CF
:101760009BB003F097FAFFF7ABFF142200210DA8FE
:1017700022F0A7F90024C94B00941A6BC848C94D40
:1017800042F010021A631A6B02F010020092009AE3
:1017900001941A6B42F020021A631A6B02F02002C5
:1017A0000192019A02941A6B42F080021A631A6B3A
:1017B00002F080020292029A03941A6B42F0040231
:1017C0001A631A6B02F004020392039A04941A6BD0
:1017D00042F001021A631A6B02F001020492049AA9
:1017E00005941A6B42F002021A631A6B02F00202AD
:1017F0000592059A06941A6B42F040021A631A6B1E
:1018000002F040020692069A07941A6B42F0080210
:101810001A631B6B03F00803224607933C21079BC6
:1018200003F0D4FEA0480122022103F0CFFE22469D
:101830009D48042103F0CAFE22469C484FF44051C3
:1018400003F0C4FE01263C23CDE90D3694480F94E5
:1018500003230DA90227109303F0CEFD92480DA992
:10186000CDE90D76CDE90F4403F0C6FD04238E4883
:101870000DA9CDE90D36CDE90F4703F0BDFD8C482C
:101880000F940DA9CDE90D6403F0B6FD4FF440535C
:1018900086480DA9CDE90D36CDE90F4703F0ACFD23
:1018A0000DA983480F94CDE90D6403F0A5FD81488F
:1018B000814B036003F096FCDFF820C27F4B2C6263
:1018C000C5E900C328464FF48043C5E90434C5E99F
:1018D0000244C5E9064404F087F81021284604F0C4
:1018E000CBFA2146284604F0E6FA754DDFF8F0E120
:1018F000AC624FF48273C5E900E34FF4007818231B
:10190000C5E9068328460A23C5E90244C5E904441B
:10191000C5E90844EB6205F0B5F98F232246394644
:1019200061488DF824308DF8344003F04FFE324684
:101930004FF47A7309A9284605F000FA4FF47A7338
:1019400032460DA9284605F0A5FB324639465648D1
:101950005C4D03F03BFE9DF83430D32B04BF5A4B53
:101960001E705A4B01261027C5E90036402300247B
:10197000C5E904734FF4C073C5E906344FF400633E
:10198000C5E908344FF400534FF002084FF0040A41
:101990004FF0030BAB620DA907232846CDE90FA337
:1019A000CDE90D834FF00809C5E9024ACDE911B828
:1019B000CDF84C8005F04AF84FF6FF7209A9284689
:1019C000CDE90A96089409960C9405F05FF8304624
:1019D00003F08CF94FF6FF7209A92846CDE9098971
:1019E000CDE90B6405F052F84FF6FF7209A92846BD
:1019F000CDE909B9CDE90BA405F048F84FF40C7313
:101A00000893089B0C934FF6FF7209A92846CDE96D
:101A100009A90B9605F03AF840F26A51284605F0FC
:101A200053F8342221460DEB020022F04AF8284DEB
:101A3000284B2C61C5E900340923C5E905361D236F
:101A4000C5E9073B40F20D1240F24313C5E90923F3
:101A500040F2171140F247132846C5E90B13C5E9B8
:101A60000244AC8685F8364004F0C0FAFF21F0222B
:101A7000CDE912144FF005094FF480614FF4A073C3
:101A8000CDE90E24CDE91419CDE916420DA922465F
:101A90002846CDE91038104D189323E00038024055
:101AA000001002408825002000080240000C02407F
:101AB000000002401C26002000300240A0860100E9
:101AC000882400200C240020FC230020400100A0DA
:101AD000E024002000680140F4230020005C004066
:101AE000005001400D94ADF864408DF8664004F05C
:101AF00048FB444B2B601B68DFF84CA198472B68D0
:101B0000414DDB689847414B2846C5E90034C5E99B
:101B10000284C5E90A48C5E90C4403F073FB314669
:101B2000284603F025FC3A4D3A4621460DA821F0FF
:101B3000C8FF384BAC604FF4803B2846C5E9003BFA
:101B40002C612C7685F82040EC62C5F828A0EC606A
:101B5000EE6185F830406E6103F0DCF80D230DA9CD
:101B60002846CDE90D362C4D0F9403F04DFA3A4638
:101B700021460DA821F0A5FF284BAC602846C5E9F9
:101B8000003BC5E90AA42C612C7685F82040EC6066
:101B9000EE6185F830406E6103F0BCF80DA928466F
:101BA000CDE90D961E4D0F9403F02EFA1D484FF40B
:101BB000E133C0E900530C23C0E90534C0E9024415
:101BC0000461C46105F022FDFEF77AFDFEF777FDA2
:101BD00005F03EFE144A4146384605F05DFF134BC2
:101BE000134A18602146134805F05EFE124B134A53
:101BF00018602146124805F057FE124B186005F098
:101C000039FEFEE714000020DC25002000B0024071
:101C10006C260020002001402426002000210140E5
:101C20000010014040240020B4590208F82300208D
:101C3000F05902082D1E000804240020CC59020887
:101C4000CF060008002400200100000F70477047F5
:101C50007FB5094B8DF817201B6802930DF1170211
:101C60000123009201930A460146044803F064FFF1
:101C700007B05DF804FB00BF10000020882500209D
:101C80007FB500238DF81730084B1B6802930A4676
:101C900001230DF11701009101930146044803F05F
:101CA000DBFF9DF8170007B05DF804FB1000002073
:101CB000882500201FB5084C24680092CDE9013426
:101CC0000A4601230146054803F0C6FF003818BF45
:101CD000012004B010BD00BF1000002088250020A6
:101CE00003F004B810B5064C00222046042103F08E
:101CF0006DFC20460122BDE81040042103F066BCC3
:101D00000008024038B50B4D044601220A484FF442
:101D1000005103F05BFC00220421284603F056FC2E
:101D20002046FFF7BBFC28460122BDE838400421CD
:101D300003F04CBC00080240000C024038B50B4DCB
:101D4000044600220A484FF4005103F03FFC0022F1
:101D50000421284603F03AFC2046FFF79FFC284662
:101D60000122BDE83840042103F030BC00080240E5
:101D7000000C0240F7B5144E144F05460C46304691
:101D80000022042103F022FC00224FF400513846C7
:101D900003F01CFC2846FFF781FC0D4B0D481B6827
:101DA000224601A905F076F9384601224FF4005188
:101DB000019C03F00BFC30460122042103F006FCD9
:101DC000204603B0F0BD00BF00080240000C0240F6
:101DD0000C0000208824002002F088BFA1F2A56238
:101DE00010B592B240F25624A0F2A563A2429BB273
:101DF00006D9B1F57A7F11D340F6B83291420FD8A7
:101E000040F2562293420DD9B0F57A7F0CD340F6BA
:101E1000B83398428CBF5220002010BD5520FCE7FB
:101E20004420FAE70020F8E74C20F6E72DE9F041DE
:101E3000224E234F8AB04FF00008304603F010F8CE
:101E4000384603F00DF80A21304603F087F80A21DE
:101E5000384603F083F8304603F0D3F8044638469A
:101E600003F0CFF8A2B283B21649054602A821F0CA
:101E7000C3FD02A8FEF7BCF9642382B202A912488E
:101E800005F0F3FBA0B2A9B2FFF7A8FF04468DF856
:101E9000070060B140450BD00C4800231A4600688B
:101EA0000DF1070105F033FE9DF8073003B900245A
:101EB000322005F03DFDA046BFE700BF6C260020A4
:101EC00024260020464F020840240020F82300204A
:101ED0000268034B9A4201D102F0F6BE704700BF80
:101EE000001000407047000082B00E4B00220092AC
:101EF000596C41F480415964596C01F4804100915E
:101F000000990192196C41F0805119641B6C03F027
:101F100080530193019B0F216FF0010002B003F089
:101F200021B900BF0038024010B514228AB004461F
:101F300000210DEB020021F0C4FD2368214A9342E9
:101F40001FD1214B2148002101915A6C42F480722B
:101F50005A645A6C02F480720192019A02911A6BCF
:101F600042F004021A631B6B03F00403029308217E
:101F7000029B0323CDE9051305A903F03DFA0AB03E
:101F800010BD134A9342FAD10F4B1248002103911E
:101F90005A6C42F400725A645A6C02F40072039252
:101FA000039A04911A6B42F001021A631B6B03F04F
:101FB00001030493049B20220323CDE9052305A9F3
:101FC000DBE700BF0020014000380240000802406B
:101FD00000210140000002400268094B9A4282B091
:101FE0000BD100230193074B1A6B42F480521A6302
:101FF0001B6B03F480530193019B02B0704700BF39
:10200000003002400038024007B50F4B02689A4288
:1020100016D10022A3F5F0430192196B41F400019F
:1020200019631B6B03F40003019305215A20019BE4
:1020300003F098F85A2003B05DF804EB03F0C4B83D
:1020400003B05DF804FB00BF00B002402DE9F0438F
:10205000044689B01422002103A821F032FD226831
:10206000244B9A4243D1244C244800250095236BED
:1020700043F004032363236B03F004030093009BEA
:102080000195236B43F001032363236B03F00103EA
:102090000193019B4FF012094FF400734FF00108B8
:1020A0000327042603A9CDE90339CDE9058707965F
:1020B00003F0A2F94FF480731148079603A9CDE904
:1020C0000339CDE9058703F097F90295236C43F4B2
:1020D00000032364236C03F400030293029B236A2E
:1020E00043F400032362236A23F40003236209B04C
:1020F000BDE8F083005C0040003802400008024068
:1021000000000240F0B599B004461422002107A84F
:1021100021F0D7FC30220DEB0200002121F0D1FC90
:1021200022685E4B9A4240F0B78008230C93C0238C
:102130001093042312930CA84FF40033159304F06A
:1021400059FB08B1FFF7CEFE554B564800240094CA
:102150005A6C42F080625A645A6C02F080620092BB
:10216000009A01941A6B42F020021A631A6B02F073
:1021700020020192019A02941A6B42F001021A6342
:102180001A6B02F001020292029A03941A6B42F057
:1021900002021A631A6B02F002020392039A049479
:1021A0001A6B42F040021A631A6B02F0400204926A
:1021B000049A05941A6B42F004021A631A6B02F037
:1021C00004020592059A06941A6B42F008021A63FB
:1021D0001B6B03F00803069302250E26069B0B9645
:1021E0004FF4806307A9CDE90735CDE9094503F030
:1021F00003F941F658032C480B9607A9CDE907359A
:102200000927CDE9094503F0F7F8032327480B9781
:1022100007A9CDE90735CDE9094503F0EDF84FF4FD
:10222000706322480B9607A9CDE90735CDE909452A
:1022300003F0E2F84FF40C631D480B9607A9CDE9B3
:102240000735CDE9094503F0D7F8C02319480B96A7
:1022500007A9CDE90735CDE9094503F0CDF80823F5
:1022600015480B9607A9CDE90735CDE9094503F0D7
:10227000C3F84FF4A0530E480B9707A9CDE90735D3
:10228000CDE9094503F0B8F858202246052102F0AF
:1022900069FF582002F098FF19B0F0BD00680140B6
:1022A00000380240001402400000024000040240D6
:1022B0000018024000080240000C024010B504461D
:1022C00088B01422002103A821F0FBFB2268144BE4
:1022D0009A4223D103F56843002101915A6C1148B9
:1022E00042F480125A645A6C02F480120192019AEC
:1022F00002911A6B42F020021A631B6B03F0200359
:102300000293029B4FF4607202230321CDE9032361
:102310000523CDE9061303A903F06EF808B010BD3C
:10232000005001400014024010B5044688B0142249
:10233000002103A821F0C5FB2268144B9A4223D147
:1023400003F59433002101915A6C114842F01002B8
:102350005A645A6C02F010020192019A02911A6BAF
:1023600042F001021A631B6B03F001030293029B0C
:102370004FF4C06202230321CDE903230723CDE9F3
:10238000061303A903F038F808B010BD001001408F
:10239000000002402DE9F04186B0002303932B4B4F
:1023A0001C68002C4FD14FF00108C3F80080284B67
:1023B00000949A6B274842EA08029A639B6B03EAEF
:1023C00008030093022703260C25009B01A94FF662
:1023D0003F03CDE90137CDE9046503F00DF81E4850
:1023E000059501A9CDE90187CDE9034603F004F87D
:1023F00048F233131948059501A9CDE90137CDE914
:10240000034602F0F9FF4FF683731548059501A9BD
:10241000CDE90137CDE9034602F0EEFF4CF203733C
:102420001048059501A9CDE90137CDE9034602F031
:10243000E3FF60230C48059501A9CDE90137CDE9FB
:10244000034602F0D9FF06B0BDE8F081B4260020B3
:102450000038024000140240000802400018024008
:1024600000100240000C02400004024070B588B029
:1024700000230293204B1A6C42F010021A641B6C6A
:1024800003F010030293054601A903A8029B04F080
:1024900093F9069B4BBB04F06FF9184E184B336051
:1024A00040F2E733F360174BB0FBF3F3013B73608B
:1024B000304600233361B360B36104F0BBFF0446D0
:1024C00080B9304604F08CFE044658B9362002F03C
:1024D0007BFE0F2D0DD822462946362002F042FE03
:1024E000094B1D60204608B070BD04F045F940005E
:1024F000D3E70124F6E700BF00380240B8260020E9
:102500000010004040420F007C0000207047FEE7B2
:10251000FEE7FEE7FEE77047014804F09FBE00BFFC
:10252000B8260020014803F0CFBD00BFE024002002
:10253000014802F093BE00BFDC2500200120704757
:1025400008B521F061FB162303604FF0FF3008BD92
:1025500008B521F059FB16230360FEE770B50D4660
:1025600014460E46731B9C4201DC204670BDAFF33F
:10257000008006F8010BF5E770B50D4614460E46CF
:10258000731B9C4201DC204670BD16F8010BAFF3B3
:102590000080F5E74FF0FF3070474FF400534B6079
:1025A0000020704701207047002070470A4A1168D8
:1025B00008B5034609B90949116010686946034422
:1025C0008B4206D921F020FB0C2303604FF0FF3033
:1025D00008BD1360FCE700BF00270020584201201F
:1025E000704710B50421044620F006F9204610BDBE
:1025F000012908B506D0022908D059B901F05EFDBD
:10260000006808BD01F05AFD4068FAE701F056FD88
:102610008068F6E70020F4E700487047285A02086F
:102620000220704713B5002451B1036801948DF85E
:10263000034001AA9C680DF10303A04702B010BD3E
:102640000846FBE7C0897047008A7047C08870471A
:1026500080887047807A00F07F007047807AC009D8
:1026600070470020704700009FED010A704700BFCF
:1026700000000000704710B50821044620F0BCF8A7
:10268000204610BD7047704700F598730868496888
:1026900003C3704770477047416070477047704789
:1026A000064BC0F84C310023C0F8503100F5A2733E
:1026B000C0F84801C0F84031704700BFAD2800089D
:1026C000012303727047704710B4C2684168541008
:1026D000034601EB6200D20748BF0A599B685DF8C8
:1026E000044B48BFD35818470346406830B19A6836
:1026F0001AB9D86800F0010070470120704710B582
:102700000C21044620F078F8204610BD10B51021A9
:10271000044620F071F8204610BD10B54FF4AE719C
:10272000044620F069F8204610BD10B50DF05AFAA5
:102730000368BDE81040DB6B184710B50446D0F8BD
:10274000400158B10368DB68984738B1D4F84001BC
:1027500003689B6898470023C4F8403110BD00000F
:102760002DE9F14FD0E9556A0746B06803681B6A46
:10277000984740F6EB63984205D8444B444AA3215E
:10278000444820F075FF706803681B6A98470F285B
:1027900003D8414B3E4AA421F2E7F06803681B6A64
:1027A00098470B2803D83D4B394AA521E8E70DF09F
:1027B00019FADFF8F09004300DF039FAD9F800007A
:1027C00010B10368DB689847D9F8000010B10368BE
:1027D0001B689847DFF8D080D8F8000010B1036874
:1027E0005B699847D7F83C0110B103685B6898476C
:1027F000D8F8000010B103681B689847D7F83C016F
:1028000010B103689B689847F068036800215B6A11
:1028100098474FF0000B224BC0F804B0044680F8F4
:1028200008B00360B068036859465B6A984705467C
:1028300001F0EAFC7068036859465B6A98472946CC
:10284000064601F0BFFC331DC7F83C61C9F80040E3
:10285000C8F80050CAF800302B68C6F808A028460F
:10286000DB68EE639847336830461B68984721461B
:1028700028460FF067FB236820461B6998472368AA
:102880005B69204601B0BDE8F04F1847704F020861
:10289000FE4F0208D050020817510208BA51020830
:1028A000D45A0208603501205C3501202DE9F14F32
:1028B000D0E9556A0746B06803681B6A9847EF2855
:1028C00005D8444B444AA321444820F0D1FE706807
:1028D00003681B6A98470F2803D8414B3E4AA4213E
:1028E000F2E7F06803681B6A98470B2803D83D4B52
:1028F000394AA521E8E70DF075F9DFF8F0900430CA
:102900000DF095F9D9F8000010B10368DB6898471D
:10291000D9F8000010B103681B689847DFF8D08031
:10292000D8F8000010B103685B699847D7F83C01FC
:1029300010B103685B689847D8F8000010B10368CD
:102940001B689847D7F83C0110B103689B6898470B
:10295000F068036800215B6A98474FF0000B224B38
:10296000C0F804B0044680F808B00360B06803689B
:1029700059465B6A9847054601F00AFC706803688F
:1029800059465B6A98472946064601F0E1FB331D2C
:10299000C7F83C61C9F80040C8F80050CAF80030D8
:1029A0002B68C6F808A02846DB68EE6398473368B2
:1029B00030461B689847214628460FF0C3FA236823
:1029C00020461B69984723685B69204601B0BDE833
:1029D000F04F1847704F02085D520208D0500208AD
:1029E00017510208BA510208D45A02086035012072
:1029F0005C350120044B1B6893F858200AB1D86C51
:102A000000B99868704700BF18350120F8B517461F
:102A100004460E460DF0A8F9124B1C60124B2360C1
:102A2000124B0025C4E95135114BC4E953551868C0
:102A3000036801219B68C4E94F55C4E9557698475E
:102A4000284601F0EFFAFFF7D5FF17F0D2FDFFF7A8
:102A5000D1FF17F049FEFFF7CDFF17F051FE2046DA
:102A6000F8BD00BF6C350120805A0208685A020880
:102A700018350120064BC0F84C310023C0F8503106
:102A800000F5A273C0F84801C0F84031704700BF9C
:102A9000AD280008064BC0F84C310023C0F8503177
:102AA00000F5A273C0F84801C0F84031704700BF7C
:102AB00061270008406A7047806A704770478A88BB
:102AC0000B8810B5D20A4C88C1699BB251F822001C
:102AD00043EA0443184410BD10B50446BAB1107B54
:102AE00068B1537BD27A1B0203F4E0631A43236A72
:102AF00003EB82031A888A4202D193F9020010BDC7
:102B000005D8013880B204330028F3D1F7E700205C
:102B1000F5E710B52C2104461FF06EFE204610BDCF
:102B200030B58BB00446BDF860500895BDF85C50D8
:102B300007959DF8505006959DF84C5005959DF8C9
:102B4000485004959DF8445003959DF840500295D7
:102B50009DF83C500195BDF8385000950EF04CFEA4
:102B6000064B2360159BE361169B2362199B6362EE
:102B70001A9BA36220460BB030BD00BFF85A020872
:102B8000704770477047704770477047704770478D
:102B900030B4C26844685510034604EB6200D207A3
:102BA00048BF62599B6830BC48BFD358184703469A
:102BB000406830B19A681AB9D86800F001007047CF
:102BC0000120704710B5102104461FF015FE204665
:102BD00010BD10B5F02104461FF00EFE204610BDBA
:102BE0009830884208B505D10CF0FCFFBDE80840DC
:102BF000FFF750BF08BD70B5036804461B6B154650
:102C000098472368294620465B6BBDE8704018470B
:102C100070B504461D46BDF91060FFF7ECFF236850
:102C2000294620469B6B9847236831462046DB6B3C
:102C3000BDE8704018470000094A02604FF48071F7
:102C400000228184FF21C0E90122C0E90322C0E9FA
:102C50000522C0E9072280F826108262704700BF73
:102C600014610208F8B5194B018F1B888B42064688
:102C70002AD9174B1B682BB9164B174A17486C21DA
:102C800020F0F6FC13F81120154B1B6853F8225066
:102C9000144B186801F002FA2B6807469B6B284614
:102CA00098472B6804469B6C3946284698472B6802
:102CB00014FB00F45B6A394628469847A4B22318EF
:102CC0001BB2A6F84630F8BD0023FAE774350120A0
:102CD000703501202F53020871530208AC530208CB
:102CE000783501207C3501202DE9FF470446274631
:102CF00000250EF07BFF2E4BE56347F8403B04F1C7
:102D00006C093846FFF798FF04F198064846FFF72C
:102D100093FF30460AF0BAFB264BC4E93834264B01
:102D20004FF4A07AC4E93A352A4629463846CDF808
:102D300000A0F023FFF76CFF04F104084FF07F437D
:102D4000A3663946404606F0A1FE4FF0FF37F02358
:102D50002A4629464846CDF800A0FFF759FF4946C4
:102D60004046C4F8947006F091FE29463046D222BF
:102D7000FFF741FF03AA02A901233046ADF80C304A
:102D8000ADF808500AF0F7F81523A4F8D030304613
:102D9000FFF768FF04F1E0034046C4E93577C4F863
:102DA000C030314606F072FE204604B0BDE8F08720
:102DB000785B0208605B0208E12B0008806A7047BC
:102DC00030B5036885B06D460181D3F88430014683
:102DD00004462846984795E807003C3484E80700F5
:102DE00005B030BD30B5036885B06D464181D3F87C
:102DF0008430014604462846984795E807003C344D
:102E000084E8070005B030BD002202804280828045
:102E1000C280704780F83610704770B5036804466A
:102E20001B6B154698472368294620465B6EBDE814
:102E30007040184700207047806C7047704770479B
:102E4000704770477047704770470368DB6A1847E0
:102E500090F82C304BB100F16C021268C2653BB1A6
:102E600000F174031B680366704700F16802F4E721
:102E700000F17003F6E730B4C268446855100346A9
:102E800004EB6200D20748BF62599B6830BC48BF60
:102E9000D35818470346406830B19A681AB9D868C1
:102EA00000F0010070470120704790F82D3080F845
:102EB0005A30704710B54C2104461FF09DFC204647
:102EC00010BD10B5782104461FF096FC204610BDB9
:102ED00010B5102104461FF08FFC204610BD10B520
:102EE0004FF4546104461FF087FC204610BD08B51E
:102EF000FEF7DEFA08BD10B50446006B50B103685A
:102F0000DB68984730B1206B036821469B68BDE8B9
:102F10001040184710BD0B7970B590F82C6004462E
:102F20000D460BB916B170BD002EFCD0B3FA83F379
:102F30005B0984F82C3023682046D3F88C309847FE
:102F4000236820465B699847002EECD02B79012B33
:102F5000E9D123682046D3F88830BDE8704018478F
:102F6000036870B55E6B124B1B6804468DB22BB9BB
:102F7000104B114A6C21114820F07AFB1049828DC8
:102F80000988914203D80F4B0B4A6D21F3E713F8E0
:102F900012200D4B1B6853F8220003681B6B9847E7
:102FA000291A3346204609B2BDE87040184700BFD1
:102FB000703501202F53020871530208AC530208E8
:102FC00074350120F35302087835012000F1C40361
:102FD000994270B504460D4603D10CF003FEFFF78D
:102FE00049FD04F65C439D4205D1236820461B6BD6
:102FF000BDE87040184770BD074A02600022C0E972
:103000000122C0E90322C0E90522C0E907224FF4EA
:1030100080728284704700BFBC62020810B504460B
:10302000FFF7EAFF024B23600023A362204610BD96
:10303000945E020800224FF0FF31C0E90021826057
:10304000704710B50446FFF7F5FF204610BD00009D
:1030500010B500210446262220F033FD2046FFF75C
:10306000CBFF094B2360094BA3624FF6FF73A38587
:103070004FF47F020023C4E90C32238704F13C00A3
:10308000FFF7D8FF204610BD84600208585A020896
:1030900010B50446FFF7DCFF024B23600023A36456
:1030A000204610BDAC5B020870B50446FFF7B6FFC2
:1030B0004FF47F432646A3850123002584F824305E
:1030C0000D4B256346F8343B3046FFF7B5FD0B4BFF
:1030D00063632A4629463046C4E91A55C4E91C559B
:1030E0002566A4F86450FFF786FD2046314606F0B9
:1030F000CDFC204670BD00BF3C5C02087C6102082C
:103100002DE9F04F0446C1B026464FF000080EF0FE
:103110006DFDDC4BC4F83C8046F8403B3046FFF781
:103120008BFD04F16C0318461793FFF785FD04F13E
:10313000980304F1C409184604F59E751893FFF727
:103140007BFD4846FFF7B0FF2846FFF781FF04F5F7
:10315000C27318461993FFF761FF04F5D873184638
:103160001A93FFF75BFF04F5EE7318461B93FFF706
:1031700055FF04F5027318461C93FFF74FFF04F543
:103180000D7318461D93FFF749FF04F51873184691
:103190001E93FFF743FF04F5237304F52E7A1846B8
:1031A0001F93FFF73BFF5046FFF738FF04F53973D5
:1031B00018462093FFF740FD04F544731846219309
:1031C000FFF72CFF04F54F7318462293FFF726FFF5
:1031D00004F55A7318462393FFF720FF04F565732F
:1031E00018462493FFF71AFF04F5707318462593C9
:1031F000FFF714FF04F57B7318462693FFF70EFFC5
:1032000004F5836318462793FFF708FF04F244434D
:1032100018462893FFF702FF04F58E63184629939A
:10322000FFF70AFD04F29C4318462A93FFF704FDBA
:1032300004F5996318462B93FFF7FEFC04F2F44360
:1032400018462C93FFF7F8FC04F5A46318462D9359
:10325000FFF7F2FC04F24C5318462E93FFF7ECFCF8
:1032600004F5AF6318462F93FFF7E6FC04F2A4536E
:1032700018463093FFF7E0FC04F5BA631846319323
:10328000FFF7DAFC04F2FC5318463293FFF7D4FC44
:1032900004F5C56318463393FFF7CEFC04F254637C
:1032A00018463493FFF7C8FC04F5D06318463593ED
:1032B000FFF7C2FC04F2AC6318463693FFF7BCFC80
:1032C00004F5DB6318463793FFF7B6FC04F204738A
:1032D00018460493FFF7DCFE04F5EA6318460593ED
:1032E000FFF7D6FE04F29C7318460693FFF7D0FE54
:1032F00004F5FD6318460793FFF7CAFE04F634038E
:1033000018460893FFF7C4FE04F5086318460993AE
:10331000FFF7BEFE04F6CC0318460A93FFF7B8FE8B
:1033200004F6181318460B93FFF7B2FE04F6641365
:1033300018460C93FFF7ACFE04F51B6318460D937B
:10334000FFF7A6FE04F6FC1318460E93FFF7A0FE47
:1033500004F6482318460F93FFF79AFE04F69423C9
:1033600018461093FFF794FE04F52E631846119348
:10337000FFF78EFE04F62C3318461293FFF788FEF3
:1033800004F6783318461393FFF782FE04F6C4332D
:1033900018461493FFF77CFE04F541631846159315
:1033A000FFF776FE04F65C4318461693FFF77CFEA3
:1033B00004F6D44318460393FFF74AFE324BC4F891
:1033C000303D324BC4F8383D4FF4A073271D4FF009
:1033D0007F4B42463046C4F8344DC4F83C8D4146DC
:1033E0000093F023FFF714FC31463846C4F868B068
:1033F00006F04CFB4FF4A0734246179800934146E9
:10340000F023FFF705FC224B1799C4F89430384697
:1034100006F03CFBDC235022189800930A21FFF7AA
:10342000F7FB1C4B1899C4F8C0302126384606F02B
:103430002DFB424641460096382304F1F800FFF781
:10344000E7FB4FF00503A4F82831134BC4F82C31E7
:1034500003F54C533333C4F83031A3F5CC43663B0A
:10346000C4F8343103F1331303F54C534846C4F820
:103470003831FFF7EDFC04F55363C4F8F43008224B
:1034800048460BE0F05C0208D85C0208CD2F00082B
:10349000DFED64FFEEEEEEFF996600FF17930096F6
:1034A00038230C21FFF7B4FB4946384606F0EEFA04
:1034B00038AE0E2228461221FFF79DFB29463046E2
:1034C000C4F86CB1A4F8708109F050FA96E80700CE
:1034D00004F5BC733DAEDFF8F098CDF8F49083E8C6
:1034E0000700142328463146ADF8F83009F0E6FC11
:1034F00029463846322506F0C9FA2B465422199837
:1035000000950E21FFF784FB1999384606F0BEFAA4
:103510002B468A221A9800950E21FFF779FB1A99FB
:10352000384606F0B3FA2B468A221B9800954421B0
:10353000FFF76EFB1B99384606F0A8FA2B468A2245
:103540001C9800957A21FFF763FB1C99384606F01A
:103550009DFA2B468A221D980095B021FFF758FB53
:103560001D99384606F092FA2B46C0221E98009507
:103570000E21FFF74DFB1E99384606F087FA2B46C1
:10358000C0221F9800954421FFF742FB1F9938463F
:1035900006F07CFA2B46C02250467A210095FFF7B0
:1035A00037FB514638464FF0FF3A06F06FFA2B468C
:1035B000C022209800950E21FFF72AFB2099C4F81D
:1035C0000CA3384606F062FA2B46C02221980095DB
:1035D000B021FFF71DFB2199384606F057FA2B461C
:1035E000F622229800950E21FFF712FB2299384609
:1035F00006F04CFA2B46F622239800954421FFF75B
:1036000007FB2399384606F041FA2B46F622249808
:1036100000957A21FFF7FCFA2499384606F036FA2D
:103620002B46F62225980095B021FFF7F1FA25994F
:10363000384606F02BFA2B46542226980095442152
:10364000FFF7E6FA2699384606F020FA2B46542270
:10365000279800957A21FFF7DBFA2799384606F07C
:1036600015FA2B46542228980095B021FFF7D0FA7E
:103670002899384606F00AFA2B46542229980095D4
:103680000E21FFF7C5FA2999C4F898A4384606F028
:10369000FDF92B4654222A9800954421FFF7B8FAE9
:1036A0002A99C4F8C4A4384606F0F0F92B465422EF
:1036B0002B9800957A21FFF7ABFA2B99C4F8F0A468
:1036C000384606F0E3F92B4654222C980095B02199
:1036D000FFF79EFA2C99C4F81CA5384606F0D6F9D7
:1036E0002B468A222D9800950E21FFF791FA2D99ED
:1036F000C4F848A5384606F0C9F92B468A222E9808
:1037000000954421FFF784FA2E99C4F874A5384631
:1037100006F0BCF92B468A222F9800957A21FFF7F4
:1037200077FA2F99C4F8A0A5384606F0AFF92B46D2
:103730008A2230980095B021FFF76AFA3099C4F8D0
:10374000CCA5384606F0A2F92B46C0223198009548
:103750007A21FFF75DFA3199C4F8F8A5384606F0EA
:1037600095F92B46C02232980095B021FFF750FA08
:103770003299C4F824A6384606F088F92B46F6227A
:10378000339800950E21FFF743FA3399C4F850A6F9
:10379000384606F07BF92B46F622349800954421F2
:1037A000FFF736FA3499C4F87CA6384606F06EF96D
:1037B0002B46F622359800957A21FFF729FA35999C
:1037C000C4F8A8A6384606F061F92B46F6223698CA
:1037D0000095B021FFF71CFA3699C4F8D4A63846F4
:1037E00006F054F92B46C022379800954421FFF784
:1037F0000FFA3799C4F800A7384606F047F92B4668
:1038000054220C2104980095FFF702FAC4F834B74B
:10381000A4F838873046FFF70DFC96E8070004F55A
:10382000E86383E8070013230498ADF8F8303146C5
:10383000CDF8F49009F042FB0499384606F026F9D9
:103840002B465422442105980095FFF7E1F9C4F86E
:1038500080B7A4F884873046FFF7ECFB96E80700B2
:1038600004F28C7383E8070012230598ADF8F83052
:103870003146CDF8F49009F021FB0599384606F061
:1038800005F92B4654227A2106980095FFF7C0F9D6
:10389000C4F8CCB7A4F8D0873046FFF7CBFB96E846
:1038A000070004F5FB6383E8070011230698ADF8D1
:1038B000F8303146CDF8F49009F000FB069938460F
:1038C00006F0E4F82B465422B02107980095FFF744
:1038D0009FF9C4F818B8A4F81C883046FFF7AAFB73
:1038E00096E8070004F6240383E8070010230798EE
:1038F000ADF8F8303146CDF8F49009F0DFFA0799C9
:10390000384606F0C3F82B468A220E210898009507
:10391000FFF77EF9C4F864B8A4F868883046FFF76A
:1039200089FB96E8070004F5076383E807000F2387
:103930000898ADF8F8303146CDF8F49009F0BEFAA9
:103940000899384606F0A2F82B468A2244210998A5
:103950000095FFF75DF9C4F8B0B8A4F8B488304614
:10396000FFF768FB96E8070004F6BC0383E807004E
:103970004FF00E030998ADF8F8303146CDF8F490C9
:1039800009F09CFA0999384606F080F82B468A22FD
:103990007A210A980095FFF73BF9C4F8FCB8A4F81F
:1039A00000893046FFF746FB96E8070004F6081347
:1039B00083E807000D230A98ADF8F8303146CDF8BA
:1039C000F49009F07BFA0A99384606F05FF82B4626
:1039D0008A22B0210B980095FFF71AF9C4F848B96C
:1039E000A4F84C893046FFF725FB96E8070004F65B
:1039F000541383E807004FF00C030B98ADF8F83030
:103A00003146CDF8F49009F059FA0B99384606F092
:103A10003DF82B46C0220E210C980095FFF7F8F8D0
:103A2000C4F894B9A4F898893046FFF703FB96E8E8
:103A3000070004F51A6383E807000B230C98ADF820
:103A4000F8303146CDF8F49009F038FA0C99384640
:103A500006F01CF82B46C02244210D980095FFF774
:103A6000D7F8C4F8E0B9A4F8E4893046FFF7E2FAE1
:103A700096E8070004F6EC1383E807004FF00A0A03
:103A80000D98CDF8F4903146ADF8F8A009F016FA8B
:103A90000D99384605F0FAFF2B46C0227A210E9880
:103AA0000095FFF7B5F8C4F82CBAA4F8308A304670
:103AB000FFF7C0FA96E8070004F6382383E807000A
:103AC00009230E98ADF8F8303146CDF8F49009F09E
:103AD000F5F90E99384605F0D9FF2B46C022B021E2
:103AE0000F980095FFF794F8C4F878BAA4F87C8A88
:103AF0003046FFF79FFA96E8070004F6842383E830
:103B0000070004F61C530493A64B1B682BB9A64B65
:103B1000A64A6021A6481FF0ABFDA64B1B88012BCF
:103B200003D8A54BA14A6121F4E7A44B01211868F1
:103B300000F0B4FAA24A0346514604980FF004FD7F
:103B4000049BC4F8903A0F98CDF8F4904FF0080A0F
:103B50003146ADF8F8A009F0B1F90F99384605F0F3
:103B600095FF2B4610980095F6220E21FFF750F88E
:103B7000C4F8C4BAA4F8C88A3046FFF75BFA96E8DE
:103B8000070004F52D6383E8070007231098ADF8BC
:103B9000F8303146CDF8F49009F090F91099384694
:103BA00005F074FF2B4611980095F6224421FFF78B
:103BB0002FF8C4F810BBA4F8148B3046FFF73AFA7C
:103BC00096E8070004F61C3383E8070006231198E3
:103BD000ADF8F8303146CDF8F49009F06FF911994D
:103BE000384605F053FF2B4612980095F6227A21AD
:103BF000FFF70EF8C4F85CBBA4F8608B3046FFF703
:103C000019FA96E8070004F6683383E807004FF0D6
:103C100005031298ADF8F8303146CDF8F49009F06C
:103C20004DF91299384605F031FF2B46139800954F
:103C3000F622B021FEF7ECFFC4F8A8BBA4F8AC8BC9
:103C40003046FFF7F7F996E8070004F6B43383E847
:103C5000070004231398ADF8F8303146CDF8F490FE
:103C600009F02CF91399384605F010FF0C2214982E
:103C7000009274232A467821FEF7CAFFC4F8F4BBE9
:103C8000A4F8F88B3046FFF7D5F996E8070004F55D
:103C9000406383E8070003231498ADF8F8303146F9
:103CA000CDF8F49009F00AF91499384605F0EEFEC3
:103CB0000C221598009274233E227821FEF7A8FF6B
:103CC000C4F840BCA4F8448C3046FFF7B3F996E83A
:103CD000070004F64C4383E8070002231598ADF86B
:103CE000F83031462125CDF8F49009F0E7F8159920
:103CF000384605F0CBFE42464146009504F5496042
:103D00005823FEF785FF4FF00503A4F8C03C2D4B68
:103D1000C4F8C43C03F54C533333C4F8C83CA3F592
:103D2000CC43663BC4F8CC3C03F1331303F54C534E
:103D30001698C4F8D03CFFF78BF8179BC4F88C3C5E
:103D400052465823169800958A21FEF761FF16996E
:103D5000384605F09BFE03980E228F21FEF74BFF9D
:103D600038AD4FF0FF330399C4F8043D2846A4F85A
:103D7000088D08F0FBFD95E80700039BCDF8F49053
:103D80003C3383E807000398ADF8F880314609F02A
:103D900095F83846039905F079FE204641B0BDE814
:103DA000F08F00BF703501202F53020831540208F4
:103DB000AC53020874350120F35302087C3501200E
:103DC0007C540208996600FF585A020870470000A8
:103DD00030B5174D2C6814F001048FB0BFF35B8F22
:103DE00022D128461EF00AFDF0B13F230993114B62
:103DF0000893114B07930123CDE905430493042352
:103E0000CDE902430A230D49009316220C23CDE984
:103E10000B440B480A940194FEF782FE09481FF0F8
:103E200045FC28461EF0F6FC05480FB030BD00BF2B
:103E300004270020A0760208AC7602082874020845
:103E400008270020CD3D00087047000030B5164D12
:103E50002C6814F001048FB0BFF35B8F21D128468A
:103E60001EF0CCFCE8B13F230993104B0893104B94
:103E7000104911480A94CDE9064301220423CDE9F3
:103E80000332142300931622CDE90B44CDE90144FB
:103E90000594FEF745FE09481FF008FC28461EF071
:103EA000B9FC05480FB030BD34270020A4760208C5
:103EB000B07602085C75020838270020493E0008E9
:103EC0007047000030B5164D2C6814F001048FB017
:103ED000BFF35B8F20D128461EF090FCE0B13F235A
:103EE0000993104B0893104B104911480A94012272
:103EF000CDE906430423CDE9033228230093CDE91D
:103F00000B44CDE901440594FEF70AFE09481FF071
:103F1000CDFB28461EF07EFC05480FB030BD00BF2B
:103F200064270020A8760208B4760208907602087A
:103F300068270020C13E000800207047002070471D
:103F40000EB403B503AB002153F8042B01930CF01E
:103F5000D1FE02B05DF804EB03B070470CB407B5B6
:103F600004AB53F8042B01930CF0C4FE03B05DF8CE
:103F700004EB02B070470000436C10B5044673B305
:103F8000038F2BB9184B194AC52119481FF070FB34
:103F9000C38E00EB43035B8C0BB30EF02CFD238F21
:103FA000012B03D8134B144ACB21EEE7E28E531CAE
:103FB0009BB2092B194688BFA3F10A0104EB41010A
:103FC00040F63F10498C814209D10A2B04EB420292
:103FD00028BF002304EB4303508C588451842046AF
:103FE000BDE810400EF00ABC7F5402088854020855
:103FF000335502087D5502088B5502080EF0C5BBEB
:1040000010B586B002AC84E806001A460AAB0593E8
:104010000193099B00932146089B0BF081F906B0A0
:1040200010BD000038B518BB124B13481C6813496B
:10403000B4B1226822440260626822440A60A26825
:1040400014440F4B00221A8000F038F8054600F0A7
:1040500033F80C4B1C600C4B1D600C4B188007E0B8
:104060000B4B03600B4B0B600B4B1C68002CE8D117
:1040700038BD00BFA02700209827002094270020EB
:104080009C270020703501207835012074350120EF
:1040900010770208B876020854770208044B1B68B0
:1040A00053F82100034B1B6803EB4000704700BF2F
:1040B000942700209827002016207047004870475A
:1040C000A427002010B5FFF7C1FE044C2060FFF7C5
:1040D000F9FE6060FFF77CFEA06010BDA427002001
:1040E00010B5002404600C6014601C6010BD7047A3
:1040F00010B54FF4AE7104461EF07EFB204610BD95
:1041000010B50446D0F8580100F013F82046BDE879
:1041100010400BF0E9BD000010B50446FEF776FC38
:10412000014B2360204610BD2C5D02080022026076
:1041300070477047704704387047704710B51021BA
:1041400004461EF059FB204610BDA0F10400F5E71F
:1041500000228260024A026018324260C1607047E9
:10416000805D02087047000010B5034B03600446F1
:10417000FEF70CFD204610BDA85D020810B50446F0
:10418000FFF7F2FF2046F0211EF036FB204610BD5F
:1041900010B50446FEF7A8FD014B2360204610BD74
:1041A000A85D0208FEF7F3BC7047043870477047FB
:1041B00010B5102104461EF01FFB204610BDA0F1D3
:1041C0000400F5E700228260024A02601832426071
:1041D000C1607047DC5D02087047000010B5034BFA
:1041E00003600446FEF72FFE204610BD045E020861
:1041F00010B50446FFF7F2FF204640F6EC611EF0D2
:10420000FBFA204610BD000010B50446FEF778FF0B
:10421000064B23604022002104F554601FF051FC3E
:104220000023C4F8803D204610BD00BF045E020894
:1042300070B50023A0B0054600F63C511C46084668
:10424000002250F8046F2EB920AE06EBC40646E9F2
:10425000203201340132042AF3D10133042B01F15D
:104260001001ECD1002C1BDD00F03AFD20AAB0FBC0
:10427000F4F303FB140302EBC30353E9206400F0DF
:104280002FFD0A2304EB8604B0FBF3F202FB1300BC
:10429000002804F5547414BF0223042345F8243085
:1042A00020B070BD2DE9F0410022224E00F554658A
:1042B00017464FF0000E00E0E6460EF1010C634693
:1042C00019016C5894B302EB8E0100EB8101D1F817
:1042D000408DB8F1000F09D102EB830303F554734D
:1042E000C1F8404DF44640F82380E5E7444513D13A
:1042F00002EB830303F554736400C1F8404D40F8AA
:104300002370D0F8803DD1F8401D0B443168C0F8CF
:10431000803D8B4200DD3360BCF1030FCCD1013214
:10432000042A05F10405C4D1BDE8F0810133042B52
:10433000C6D1F1E7082400202DE9F0410022224EE9
:1043400000F5546517464FF0030E00E0E6460EF107
:10435000FF3C634619016C5894B302EB8E0100EBED
:104360008101D1F8408DB8F1000F09D102EB830330
:1043700003F55473C1F8404DF44640F82380E5E757
:10438000444513D102EB830303F554736400C1F871
:10439000404D40F82370D0F8803DD1F8401D0B44CB
:1043A0003168C0F8803D8B4200DD3360BCF1000F06
:1043B000CCD10132042A05F10405C4D1BDE8F08155
:1043C000013BC7D2F2E700BF082400202DE9F043EB
:1043D0000024224F00F55466A4464FF00008A500C3
:1043E00000E0F04608F1010E734656F8231081B341
:1043F00005EB080200EB8202D2F8409DB9F1000FF4
:1044000008D12B4403F55473C2F8401DC64640F84A
:104410002390E6E7494512D12B4403F55473490034
:10442000C2F8401D40F823C0D0F8803DD2F8402D9E
:1044300013443A68C0F8803D934200DD3B60BEF112
:10444000030FCED10134042C06F11006C5D1BDE80E
:10445000F0830133042BC8D1F1E700BF082400200A
:104460002DE9F0430024214F00F55466A4464FF097
:104470000308A50000E0F04608F1FF3E734656F839
:10448000231081B305EB080200EB8202D2F8409DB5
:10449000B9F1000F08D12B4403F55473C2F8401D45
:1044A000C64640F82390E6E7494512D12B4403F570
:1044B00054734900C2F8401D40F823C0D0F8803D35
:1044C000D2F8402D13443A68C0F8803D934200DD95
:1044D0003B60BEF1000FCED10134042C06F1100672
:1044E000C5D1BDE8F083013BC9D2F2E70824002022
:1044F0002DE9F041044600F6C465D0F8803D5B4AE2
:10450000DFF868810A2128460FF01EF8C4F80C5C19
:1045100004F6C4300CF018FD554B544A1B6804F6E1
:10452000D8650A2128460FF00FF8C4F8585C04F546
:1045300041600CF009FD002604F68457354604F569
:104540005463142053F8253000FB057083B9494AA1
:104550000A210EF0F9FF6B1E0E2B0ED8DFE803F0D8
:104560001B222930373E454C535A61686F767D00D7
:1045700042460A210EF0E8FFEDE7C4F84C7704F25A
:1045800004700CF0E1FC0135331DAB42D7D1102D86
:104590006AD02E46D2E704F69853C4F8983704F54B
:1045A000EA60EEE704F6AC53C4F8E43704F29C701A
:1045B000E7E704F55C63C4F8303804F5FD60E0E734
:1045C00004F6D453C4F87C3804F63400D9E704F672
:1045D000E853C4F8C83804F50860D2E704F6FC5381
:1045E000C4F8143904F6CC00CBE704F56163C4F8D1
:1045F000603904F61810C4E704F62463C4F8AC3933
:1046000004F66410BDE704F63863C4F8F83904F51D
:104610001B60B6E704F64C63C4F8443A04F6FC1099
:10462000AFE704F56663C4F8903A04F64820A8E7BB
:1046300004F67463C4F8DC3A04F69420A1E704F6A7
:104640008863C4F8283B04F52E609AE704F69C635F
:10465000C4F8743B04F62C3093E704F56B63C4F89C
:10466000C03B04F678308CE7BDE8F0815D56020867
:10467000082400204F4F020810B5402204460021B4
:1046800000F554601FF01DFA0023C4F8803D204659
:10469000FFF7CEFD2046FFF7CBFD2046BDE81040DA
:1046A000FFF726BF10B50446FEF7CEFB2046BDE857
:1046B0001040FFF7E1BF0000044BD0F8802D1968CF
:1046C0008A42C8BF1A60FFF7D7BF00BF0824002086
:1046D00037B5184D0446286803F07AFA80B14FF0D8
:1046E000FF33286800220DF1070103F041FA9DF81D
:1046F0000730522B19D005D8442B0ED04C2B10D09C
:1047000003B030BD552BFBD12046FFF7CBFDFFF7A3
:104710008FFD2046FFF7ECFEF2E72046FFF70CFE88
:10472000F5E72046FFF752FEF1E72046FFF798FE37
:10473000EDE700BFF8230020F02070474FF4A07091
:1047400070472920FDF7FABA2820FDF7F7BA08B517
:10475000FDF7C8FACA20FDF7F1FAC320FDF7D2FA37
:104760000820FDF7CFFA5020FDF7CCFACF20FDF757
:10477000E5FA0020FDF7C6FAC120FDF7C3FA3020A4
:10478000FDF7C0FAED20FDF7D9FA6420FDF7BAFA7B
:104790000320FDF7B7FA1220FDF7B4FA8120FDF7E8
:1047A000B1FAE820FDF7CAFA8520FDF7ABFA002040
:1047B000FDF7A8FA7820FDF7A5FACB20FDF7BEFAA1
:1047C0003920FDF79FFA2C20FDF79CFA0020FDF719
:1047D00099FA3420FDF796FA0220FDF793FAF720B4
:1047E000FDF7ACFA2020FDF78DFAEA20FDF7A6FAD6
:1047F0000020FDF787FA0020FDF784FAB120FDF7CD
:104800009DFA0020FDF77EFA1B20FDF77BFAB6200B
:10481000FDF794FA0A20FDF775FAA220FDF772FA67
:10482000C020FDF78BFA1020FDF76CFAC120FDF7D0
:1048300085FA1020FDF766FAC520FDF77FFA4520BE
:10484000FDF760FA1520FDF75DFAC720FDF776FA4F
:104850009020FDF757FA3620FDF770FAC820FDF7D3
:1048600051FAF220FDF76AFA0020FDF74BFAB0206A
:10487000FDF764FAC220FDF745FAB620FDF75EFAAF
:104880000A20FDF73FFAA720FDF73CFA2720FDF7A5
:1048900039FA0420FDF736FA2A20FDF74FFA0020F6
:1048A000FDF730FA0020FDF72DFA0020FDF72AFA77
:1048B000EF20FDF727FA2B20FDF740FA0020FDF747
:1048C00021FA0020FDF71EFA0120FDF71BFA3F2018
:1048D000FDF718FAF620FDF731FA0120FDF712FA7C
:1048E0000020FDF70FFA0620FDF70CFA2C20FDF74B
:1048F00025FAC820FDF770FA2620FDF71FFA0120DF
:10490000FDF700FAE020FDF719FA0F20FDF7FAF99C
:104910002920FDF7F7F92420FDF7F4F90C20FDF725
:10492000F1F90E20FDF7EEF90920FDF7EBF94E2025
:10493000FDF7E8F97820FDF7E5F93C20FDF7E2F90D
:104940000920FDF7DFF91320FDF7DCF90520FDF75D
:10495000D9F91720FDF7D6F91120FDF7D3F900207A
:10496000FDF7D0F9E120FDF7E9F90020FDF7CAF9DC
:104970001620FDF7C7F91B20FDF7C4F90420FDF749
:10498000C1F91120FDF7BEF90720FDF7BBF9312071
:10499000FDF7B8F93320FDF7B5F94220FDF7B2F97C
:1049A0000520FDF7AFF90C20FDF7ACF90A20FDF763
:1049B000A9F92820FDF7A6F92F20FDF7A3F90F206C
:1049C000FDF7A0F91120FDF7B9F9C820FDF704FAA9
:1049D0002920FDF7B3F9BDE808402C20FDF7AEB95A
:1049E00008B5FDF77FF90321D320FDF7C3F980B2A5
:1049F00008BD10B5C4B2022203212046FDF728F9F4
:104A00000A20FDF76DF9204600220321FDF720F969
:104A1000BDE810400220FDF763B938B50446E4B2A2
:104A2000FDF714F900212046FDF72AF9012105467A
:104A30002046FDF725F940EA052080B238BD10B5C3
:104A4000C4B240212046FDF71BF9030607D54C21CF
:104A50002046FDF715F9003818BF012010BD0122CE
:104A60004B212046FDF7F4F8204600224B21FDF7AC
:104A7000EFF80020F2E773B50423C4B20E461546E2
:104A8000D7210DEB03022046FDF714F9019B1BBA59
:104A90001A0DC3F30B23328020462B8001224B21B9
:104AA000FDF7D6F800224B212046FDF7D1F802B0E1
:104AB00070BD000010B50A4A1378984204460DD024
:104AC000517888420AD00BB141B90123D454FDF783
:104AD000BDF82046BDE81040FFF78BBF10BD00BFFA
:104AE000B027002010B5C4B209212046FDF7C8F850
:104AF00040F00102D2B220460921BDE81040FDF786
:104B0000A7B810B5C4B209212046FDF7B9F80921AC
:104B100000F0FE022046BDE81040FDF799B838B518
:104B2000C4B20D4620460A21FDF7AAF840EA050264
:104B3000D2B220460A21BDE83840FDF789B810B549
:104B40000446FDF784F820461F21FFF7E8FF2046C2
:104B5000BDE81040FFF7C6BF38B5C4B20D462046C9
:104B60000A21FDF78DF820EA0502D2B220460A217B
:104B7000BDE83840FDF76CB810B50446FFF7C1FF3B
:104B800020461F21BDE81040FFF7E6BF10B5C0B2B8
:104B90000C460B21FDF774F8204010BD1F21FFF7D4
:104BA000F5BF0A46C0B20B21FDF752B81F21FFF72F
:104BB000F8BF38B5C4B20D4620461721FDF760F89E
:104BC00020EA0502D2B220461721BDE83840FDF7A1
:104BD0003FB870B5C4B2064604212046FDF750F830
:104BE000042100F0FB0205462046FDF731F830466F
:104BF000F021FFF7DEFF05F0F80220460421FDF763
:104C000027F8492220212046FDF722F80220FDF74F
:104C100067F8204601222121FDF71AF820469A2242
:104C20004121FDF715F8204601224A21FDF710F831
:104C3000204601224B21FDF70BF8204600224B2194
:104C4000FDF706F8204601225621FDF701F820461F
:104C500001225821FCF7FCFF204601224021FCF7ED
:104C6000F7FF2046FF220B21FCF7F2FFBDE8704062
:104C70000220FDF735B80000054BD3F8882042F438
:104C80007002C3F888204FF000629A60704700BF3E
:104C900000ED00E008B50B4B1A6842F400721A6090
:104CA0001A6842F480621A601A6842F480721A60CC
:104CB000032000F045FA0020FDF7D8FBFDF714F9BA
:104CC000002008BD003C0240034A044B11681B78D9
:104CD0000B441360704700BFB42700207800002009
:104CE000014B1868704700BFB427002038B5044650
:104CF000FFF7F6FF631C1CBF054B1B78054618BF6A
:104D0000E418FFF7EDFF431BA342FAD338BD00BF01
:104D10007800002038B50446002800F09B80056C20
:104D200025B9FDF701F9656484F83C50236CDB0676
:104D300000F18E80236C23F4885323F0020343F0A8
:104D400002032364444B5A6822F440325A605A6882
:104D500061680A435A60236821695A6822F48072A4
:104D60005A605A6842EA01225A605A68A16822F0E1
:104D700040725A605A680A435A609A68E16822F49D
:104D800000629A609A680A439A603449A26A8A4229
:104D900052D0996821F07061996099680A439A60CD
:104DA0009A68E16A22F040529A609A680A439A60CF
:104DB0009A6822F002029A609A68217E42EA4102D1
:104DC0009A6094F82020002A3ED05A68616A42F422
:104DD00000625A605A6822F460425A605A68013987
:104DE00042EA41325A60DA6AE16922F47002DA6218
:104DF000DA6A013942EA0152DA629A6822F40072F0
:104E00009A609A6894F8301042EA41229A609A684F
:104E1000616922F480629A609A68002042EA8122E5
:104E20009A606064236C23F0030343F0010323645E
:104E3000002384F83C3038BD9A6822F070629A6092
:104E40009A6822F04052B2E75A6822F40062C9E739
:104E50000120EDE70120EEE7002301400100000FF3
:104E600082B00023019390F83C30012B69D00123DC
:104E700080F83C3003689A68D2070BD59A68D1074E
:104E80001AD4036C43F010030364436C43F0010332
:104E900043644CE09A682C4942F001029A602B4A24
:104EA0001268B2FBF1F202EB42020192019A002A6F
:104EB000E4D0019A013AF8E7026C22F4E06222F0B1
:104EC000010242F4807202645A68520541BF026CCA
:104ED00022F4405242F480520264026C12F4805276
:104EE0001CBF426C22F006024264002280F83C2083
:104EF0006FF022021A60164A516811F01F0F15490F
:104F00001CD18B4207D001F580718B420CD15268C5
:104F100012F01F0F0BD19A6812F0405F07D19A6808
:104F200042F080429A6002E00B498B4202D000209E
:104F300002B07047526812F0100FEBE78B42F6D1C7
:104F4000E9E70220F4E700BF40420F0074000020B0
:104F500000230140002001400022014003689A68BC
:104F6000520570B504460D460BD59B68DE0508D585
:104F7000036C43F020030364002380F83C300120DD
:104F800070BDFFF7ADFE064623681A6891070CD581
:104F90006FF012021A60226C42F4007222649A6866
:104FA00012F0405F17D00020EAE7681CEDD065B929
:104FB00023681B6813F00203E6D1226C84F83C30AE
:104FC00042F0040222640320DAE7FFF789FE801B27
:104FD000A842EDD8D8E7227E002AE4D1DA6A12F49A
:104FE000700F02D09B685A05DDD4236C23F48073C4
:104FF0002364236CDB04D6D4236C43F001032364C5
:10500000D1E70368D86C7047F7B50023019390F897
:105010003C30012B054600F08680012380F83C30AF
:1050200008682B688E68092884B233D904EB4402DF
:10503000DF681E3A4FF0070C0CFA02FC27EA0C0757
:10504000DF60DF6806FA02F23A43DA60496806294F
:1050500001EB81022DD8596B053A1F26964021EAB3
:1050600006015963596B04FA02F20A435A632F4A44
:1050700093420AD1122837D12D4B5A6822F40002EC
:105080005A605A6842F480025A60002085F83C0059
:1050900003B0F0BD1A6900EB400C072707FA0CF7C4
:1050A00022EA07021A611A6906FA0CF616431E6113
:1050B000CCE70C294FF01F010BD81E6B233A91400F
:1050C00026EA01011963196B04FA02F20A431A6312
:1050D000CDE7DE6A413A914026EA0101D962D96AF8
:1050E00094400C43DC62C2E7124B984201D0112875
:1050F000CBD10F4B5A6822F480025A605A6842F4AE
:1051000000025A600B4B9842BFD10B4B0B4A1B68F5
:10511000B3FBF2F30A2253430193019B002BB4D05B
:10512000019B013BF8E70220B2E700BF00200140ED
:1051300000230140120000107400002040420F00C4
:105140000749CA6822F4E0620302120403F4E06330
:10515000120C134343F0BF6343F40033CB6070473A
:1051600000ED00E0164B30B5DC68C4F30224C4F156
:105170000703251D042B28BF0423062D4FF0FF3500
:105180008CBF033C002405FA03F321EA0303A54086
:1051900022EA0502A340002843EA0203ACBF00F163
:1051A0006040084A4FEA0313B8BF00F00F00DBB2BB
:1051B000AABF00F56140135480F8003330BD00BF32
:1051C00000ED00E014ED00E0002807DB044A41098F
:1051D000012300F01F00834042F82130704700BFD8
:1051E00000E100E010B5044650B1437903F0FF023E
:1051F00013B90271FCF7F0FE01236371002010BDAA
:105200000120FCE710B5044620B390F8393003F0D4
:10521000FF021BB980F83820FCF7F6FE022384F861
:105220003930236861681A6822F440320A431A60F0
:105230005A6BA16822F007020A435A631A6CE168AC
:105240006FF30D020A431A6400200123E06384F81F
:10525000393010BD0120FCE770477047036870B516
:105260005E681D68F207044614D5E90512D51A6870
:1052700022F480721A60C26B42F00102C263012202
:105280009A60042380F83930002380F8383043696D
:1052900003B19847B20616D5AB0414D523681A6833
:1052A00022F400521A6020229A60E36B43F002035A
:1052B000E363042384F83930002384F838306369C9
:1052C0000BB120469847300716D5290514D5236819
:1052D0001A6822F400621A6008229A60E36B43F0B5
:1052E0000403E363042384F83930002384F838305E
:1052F00063690BB12046984772070BD56B0509D53A
:1053000023681A6822F480621A6004229A60204698
:10531000FFF7A2FFB00714D5A90512D523681A68B4
:1053200022F400721A6002229A60E36BE3630123A5
:1053300084F83930002384F8383023690BB12046D3
:105340009847F20613D5EB0411D523681A6822F4A6
:1053500080521A6010229A60E36BE363012384F8A1
:105360003930002384F838302046FFF776FF70BDCF
:10537000F0B590F83820012A03464FF002002BD0F8
:10538000012283F8382083F8390003EB0112D2E9B7
:105390000740556A174F44EA0040093C012C9CBF66
:1053A00005F07F4210434FEA01161A6888BF40EAB1
:1053B000056091B9516A394001435162012C9969E4
:1053C000916103D8596A21F07F4191620122002046
:1053D00083F8392083F83800F0BDD16939400143A2
:1053E000D1619919012C896911619CBF25F07F4514
:1053F0001562EBE7F0FFFC002DE9F74FDFF8BC91F9
:105400006C4A00230D6801249C4004EA0506AC4365
:1054100040F0B7804D68032705F003044FEA4308C6
:1054200007FA08FC671E012F6FEA0C0C34D8876856
:1054300007EA0C0ECF6807FA08F747EA0E078760FD
:10544000476827EA060EC5F300179F4047EA0E0794
:105450004760C76807EA0C0E8F6807FA08F747EA43
:105460000E07022CC76019D14FEAD30A00EB8A0A53
:1054700003F0070BDAF820704FEA8B0B4FF00F0E9A
:105480000EFA0BFE27EA0E0E0F6907FA0BF747EA32
:105490000E07CAF8207001E0032CDAD1076804FA7D
:1054A00008F407EA0C073C4315F4403F046068D059
:1054B00000240194D9F8444044F48044C9F844409D
:1054C000D9F8444023F0030707F1804704F48044EF
:1054D00007F59C37019403F0030C019CD7F808E012
:1054E0004FEA8C0C0F2404FA0CF42EEA040E324C12
:1054F000A0424DD004F58064A0424BD004F58064F6
:10550000A04249D004F58064A04247D004F58064ED
:10551000A04245D004F58064A04243D004F58064E5
:10552000A04241D004F58064A0423FD004F58064DD
:10553000A0423DD004F58064A04214BF0A2409248F
:1055400004FA0CF444EA0E04BC609468F74315F4C2
:10555000801F0CBF3C4034439460D46815F4001F96
:105560000CBF3C403443D460546815F4003F0CBF7A
:105570003C40344354601468ED0354BF3C40344312
:1055800014600133102B7FF43DAF03B0BDE8F08F02
:105590000024D5E70124D3E70224D1E70324CFE791
:1055A0000424CDE70524CBE70624C9E70724C7E791
:1055B0000824C5E7003C01400000024000380240DA
:1055C0000369194214BF0120002070470AB18161AC
:1055D00070470904FBE7436901EA030221EA03017A
:1055E00041EA02418161704701684B6913F48063AD
:1055F0004FF0000210D06FF480634B6120230263F0
:1056000080F83D3080F83E20036C80F83C2043F069
:105610000403036401207047184670472DE9F846DB
:1056200006460F4691461D464FEA114A3368BAF1C5
:10563000010F0CBF5C699C6927EA0404A4B2B4FAA8
:1056400084F46409A14501D0002025E06A1CEED055
:10565000FFF746FB089BC01AA84201D8002DE5D1F0
:105660003368BAF1010F0CBF5B699B6927EA03033A
:105670009BB2B3FA83F35B099945D7D1002320226B
:10568000336386F83D2086F83E30326C86F83C3035
:1056900042F0200232640120BDE8F8862DE9F04195
:1056A00004460F46164698462568686927EA0000B2
:1056B00080B2C0B16B695A0517D52B6843F40073EB
:1056C0002B606FF480636B6120220023236384F8D6
:1056D0003D2084F83E30236C43F004032364002310
:1056E00084F83C300120BDE8F081731CDDD0FFF769
:1056F000F7FAA0EB0800B04201D8002ED4D12368FD
:105700005A6927EA020292B2002ACDD00023202251
:10571000236384F83D2084F83E30236C1343DDE797
:1057200070B504460D46164623685B691B0601D515
:1057300000201EE02046FFF757FFC8B96A1CF3D0CF
:10574000FFF7CEFA801BA84201D8002DECD12368C8
:105750005B6913F08003E7D12022236384F83D20A6
:1057600084F83E30226C84F83C3042F020022264FF
:10577000012070BD2DE9F0431546026885B0DDE9D2
:105780000C789946136843F4807313600E463B46C9
:10579000CDF8008000224FF001110446FFF73EFFD4
:1057A000236838B11B68DB0502D54FF4007323640E
:1057B000032620E006F0FE061E611A4943463A46DB
:1057C0002046FFF76BFFA8B9236803905A6903923C
:1057D0009B690393424639462046039BFFF7A0FF8F
:1057E000064660B1236C042B01BF2268136843F4A2
:1057F000007313600126304605B0BDE8F083B9F1AF
:10580000010F236802D1EDB21D61F4E72A0A1A6183
:10581000394642462046FFF783FF0028E2D123683D
:10582000F1E700BF020001002DE9FF479A46036837
:1058300015461A6842F480621A601A68DDE90C782D
:1058400042F480721A600E463B46CDF8008000227A
:105850004FF001110446FFF7E1FE236838B11B68E1
:10586000DB0544BF4FF400732364032021E05FFA9B
:1058700086F906F0FE061E612B4943463A4620464D
:10588000FFF70CFFA0B9236803905A6903929B6944
:105890000393424639462046039BFFF741FF58B128
:1058A000236C042B01BF2268136843F40073136058
:1058B000012004B0BDE8F087BAF1010F23681AD1C6
:1058C000EDB242461D6139462046FFF729FF0246E8
:1058D0000028E5D121680B6843F480730B602046F3
:1058E000CDF800803B464FF00111FFF797FE22688C
:1058F00060B11368B4E72A0A1A6139464246204665
:10590000FFF70EFF0028CBD12368D9E749F0010348
:105910001361054943463A462046FFF7BFFE00386B
:1059200018BF0120C5E700BF0200010070B50446A2
:105930000D46164623685B695B0701D500201EE013
:105940002046FFF751FEC8B96A1CF3D0FFF7C8F92B
:10595000801BA84201D8002DECD123685B6913F0AD
:105960000403E7D12022236384F83D2084F83E30ED
:10597000226C84F83C3042F020022264012070BD89
:1059800070B504460D46164621684B6913F0400376
:1059900001D0002011E04A69D2060FD56FF0100245
:1059A0004A612022236384F83D2084F83E30236C32
:1059B0002364002384F83C30012070BDFFF790F988
:1059C000801BA84201D8002DDED123685B6913F04B
:1059D0004003D9D12022236384F83D2084F83E304F
:1059E000236C1343E4E7000070B5044608B90120B6
:1059F00070BD90F83D3003F0FF021BB980F83C20E9
:105A0000FCF724FB242384F83D3023681A6822F035
:105A100001021A601A6842F400421A601A6822F4FD
:105A200000421A6000F0A8FE3F4B65689D4294BF9B
:105A30003E4B3F4B98428CBF00230123002BD6D115
:105A40002268394E51683B4BB0FBF3F321F03F0124
:105A50001943B542516088BF4FF49676116A88BFEA
:105A6000734321F03F0184BF4FF47A76B3FBF6F322
:105A700001330B431362D169431E2B4821F44F417C
:105A8000854221F0FF0132D86D0040F6FC70B3FB77
:105A9000F5F30133034242D0C3F30B031943D16141
:105AA000D4E907301168034321F0C0010B431360B0
:105AB0009168D4E9030321F40341034321F0FF017A
:105AC0000B439360D4E90530D168034321F0FF0113
:105AD0000B43D360136843F00103136000202023BD
