:020000040800F2
:10000000000003206D060008ED250008EF2500081C
:10001000F1250008F3250008F52500080000000080
:10002000000000000000000000000000918B0008AC
:10003000F725000800000000218C0008A3840008B8
:10004000BD060008BD060008BD060008BD06000884
:10005000BD060008BD060008BD060008BD06000874
:10006000BD060008BD060008BD060008BD06000864
:10007000BD060008BD060008BD060008BD06000854
:10008000BD060008BD060008BD060008BD06000844
:10009000BD060008BD060008BD060008BD06000834
:1000A000BD060008BD060008BD060008BD06000824
:1000B000BD060008BD060008BD060008BD06000814
:1000C000BD060008BD060008BD060008BD06000804
:1000D000BD060008BD060008BD060008BD060008F4
:1000E000BD060008BD060008BD060008BD060008E4
:1000F000BD060008BD060008BD060008BD060008D4
:10010000BD060008BD060008BD060008BD060008C3
:10011000BD060008BD060008F9250008BD06000858
:10012000BD060008BD060008BD060008BD060008A3
:10013000BD060008BD060008BD060008BD06000893
:10014000BD060008BD060008BD060008BD06000883
:10015000BD060008BD060008BD060008BD06000873
:10016000BD060008BD060008BD060008BD06000863
:10017000BD060008BD060008BD060008000000001E
:10018000BD060008BD060008BD060008BD06000843
:10019000BD060008BD060008BD060008BD06000833
:0C01A00005260008BD0600081126000816
:1001B00010B5054C237833B9044B13B10448AFF3A1
:1001C00000800123237010BD800300200000000088
:1001D000A056020808B5034B1BB103490348AFF30F
:1001E000008008BD0000000084030020A056020823
:1001F000034613F8012B002AFBD1181A0138704767
:1002000001F0FF01102A2BDB10F0070F08D010F8C7
:10021000013B013A8B422DD010F0070F42B3F6D1CB
:10022000F0B441EA012141EA014122F007047FF0E4
:1002300000070023F0E80256083C85EA010586EA3B
:10024000010685FA47F5A3FA87F586FA47F6A5FA77
:1002500087F68EB9EED1F0BC01F0FF0102F0070283
:1002600032B110F8013B013A83EA010313B1F8D12E
:100270000020704701387047002D06BF354603380F
:10028000073815F0010F07D1013015F4807F02BF48
:10029000013015F4C03F0130F0BC0138704700BF99
:1002A0007BB972B90029BEBF00204FF0004106E0C3
:1002B00008BF00281CBF6FF000414FF0FF3000F076
:1002C000D3B9ADF1080C6DE904CE002909DB002B90
:1002D0001ADB00F04DF8DDF804E0DDE9022304B09C
:1002E0007047404261EB4101002B1BDB00F040F8FE
:1002F000DDF804E0DDE9022304B0404261EB410196
:10030000524263EB43037047524263EB430300F0F6
:100310002FF8DDF804E0DDE9022304B0404261EB90
:1003200041017047524263EB430300F021F8DDF8CE
:1003300004E0DDE9022304B0524263EB430370475B
:1003400053B94AB9002908BF00281CBF4FF0FF313C
:100350004FF0FF3000F088B9ADF1080C6DE904CE24
:1003600000F006F8DDF804E0DDE9022304B0704790
:100370002DE9F047089D8E4604468846002B4AD159
:100380008A42174662D9B2FA82F64EB1C6F120030C
:1003900001FA06F820FA03F3B74043EA0808B4402C
:1003A0004FEA174E1FFA87FCB8FBFEF1230C0EFB39
:1003B000118843EA084301FB0CF29A4209D9FB1861
:1003C00001F1FF3080F0EA809A4240F2E780023982
:1003D0003B449A1AA3B2B2FBFEF00EFB102243EA92
:1003E000024300FB0CFC9C4509D9FB1800F1FF32CD
:1003F00080F0D6809C4540F2D3803B44023840EAEE
:100400000140A3EB0C0300211DB1F3400022C5E91C
:100410000032BDE8F0878B4205D90DB1C5E9000176
:1004200000210846F5E7B3FA83F1002946D1734568
:1004300002D3824200F20581841A6EEB030201208E
:100440009046002DE5D0C5E90048E2E7002A00F01B
:100450009080B2FA82F6002E40F0A4808A1A030C33
:100460004FEA174E80B2BCB20121B2FBFEFC0EFB7C
:100470001C2243EA024304FB0CF29A4207D9FB1800
:100480000CF1FF3802D29A4200F2E080C4469B1A77
:10049000B3FBFEF20EFB123340EA034302FB04F40B
:1004A0009C4207D9FB1802F1FF3002D29C4200F2B5
:1004B000CA8002461B1B42EA0C40A5E7C1F1200698
:1004C0008B4022FA06F71F430EFA01F420FA06F3D6
:1004D0002EFA06FE4FEA1749234300FA01F81FFAE5
:1004E00087FCBEFBF9F01C0C09FB10EE44EA0E443D
:1004F00000FB0CFEA64502FA01F209D93C1900F1F5
:10050000FF3A80F09C80A64540F2998002383C4436
:10051000A4EB0E041FFA83FEB4FBF9F309FB1344AA
:100520004EEA044403FB0CFCA44508D93C1903F132
:10053000FF3E80F08280A4457FD9023B3C4443EAE1
:100540000040A4EB0C04A0FB02EC64457346E146BA
:1005500062D35FD05DB1B8EB030264EB090404FA27
:1005600006F622FA01F31E43CC40C5E900640021DF
:100570004FE7B1FBF2FC010C41EA0E4180B240EAC8
:1005800001423B4638463C46B846BE462026B1FBB3
:10059000F7F1A2EB080241EA0C4166E7014618E7D1
:1005A00010462CE7C6F120022EFA02F3B740B14004
:1005B00020FA02F24FEA174E0A43B3FBFEF8BCB230
:1005C0000EFB1833110C41EA034108FB04F9B0405B
:1005D00089454FEA104380B23ED9791808F1FF3CB3
:1005E00001D289451FD8A1EB0901B1FBFEF909FB36
:1005F00004F80EFB191192B242EA0142424529D297
:10060000BA1809F1FF31C4D24245C2D2A9F10201A0
:100610003A44BEE7F0459DD2BEEB02036CEB070CFB
:100620000138E14696E7A7EB09094944A8F1020C15
:10063000B1FBFEF909FB04F8DBE773467FE75046A0
:1006400066E70846FDE63B44023A33E7ACF1020CAC
:100650003B441CE749469CE7A1EB0901C446B1FBBA
:10066000FEF909FB04F8C4E7704700BFDFF834D097
:10067000002103E00C4B5B58435004310B480C4BFA
:1006800042189A42F6D30B4A02E0002342F8043B98
:10069000094B9A42F9D304F03DFD24F0EBF801F048
:1006A0005DF8704700000320EC05040800000020FE
:1006B000640100208003002088420120FEE770478B
:1006C00008B500F0BBFDBDE8084000F03FBD00F0FC
:1006D000B7BD704710B50421044622F0BDFE204688
:1006E00010BD000038B50C4B0C4C18800C4B822010
:1006F00019806368984740F6110398420AD1094D62
:1007000023682C60822098472B688220DB689847FA
:10071000002038BD0120FCE7A60300204C0000208B
:10072000A4030020A80300204FF4A071F020FFF7DD
:10073000D9BF0000F7B5394D2B6804461B698220EC
:100740009847208000284ED02B680DF106025B6987
:1007500001A982209847324B1B78002B4BD0BDF863
:10076000062040F674639A423FD9ADF80630BDF8D2
:1007700006209B1A9BB20A2B42D90B22B3FBF2F341
:10078000284A1288934201D9013A93B2BDF8042055
:10079000254840F6B8318A4234D8C2F571620E322B
:1007A000016892B20F25B2FBF5F2204D2D88AA42C6
:1007B00084BF05F1FF35AAB28A4215468EB22AD906
:1007C000921B91B21A4E3768BB42BAB28CBF9A1ACA
:1007D000D21A92B211440529C4BF05603360036880
:1007E00063803368A38003B0F0BDB32A9CBFB422FA
:1007F000ADF80620BBE7BDF80630A3F5B473B9E742
:100800000023C3E7C2F56D62083292B20E2A016876
:10081000C8D800252A46891A89B2D3E7A803002040
:10082000C4230020A4030020A0030020A60300206E
:100830009C03002037B568460D461446FFF77AFF43
:10084000BDF8000030B1BDF802302B60BDF80430B7
:100850002360012003B030BD032821D8DFE800F079
:10086000020B12190F4B1A68B2FA82F252090421D4
:100870000D4805F0C1BA0B4B5A68B2FA82F2520920
:100880000821F5E7074B9A68B2FA82F25209102163
:10089000EEE7044BDA68B2FA82F252092021E7E768
:1008A000704700BFAC03002000100240032821D88D
:1008B000DFE800F0020B12190F4B1A68003A18BF5C
:1008C000012204210D4805F097BA0B4B5A68003AF3
:1008D00018BF01220821F5E7074B9A68003A18BFB4
:1008E00001221021EEE7044BDA68003A18BF01221A
:1008F0002021E7E7704700BFAC0300200010024052
:1009000003280DD8DFE800F00206080A0421054894
:1009100005F077BA0821FAE71021F8E72021F6E779
:10092000704700BF0010024008B5032811D8DFE867
:1009300000F0020A0C0E0421074805F057FA431E86
:100940005842584108BD0821F6E71021F4E720215C
:10095000F2E70020F3E700BF0010024070B5084D39
:1009600000240126E0B2FFF7DFFF18B12B68012B4E
:1009700018BF2E600134052C05F10405F2D170BDBD
:10098000AC030020012380F8781080F8793070479C
:100990007047002070470000034B4164003918BFC6
:1009A00001211970704700BF4735012070470020B2
:1009B0007047836B0BB10846184770474FF6FF70BE
:1009C0007047406803689B691847704770477047D5
:1009D0007047704710B5044600F048FD236803498E
:1009E000D3F890302046BDE810401847000000D0F2
:1009F00008B503680446D3F8843098472368204636
:100A0000DB6F984700F0ECF8236820465B6F98474F
:100A1000292001F0C1F900F0E3F8236820465B6F5C
:100A20009847F8E710B504460AF0C8FE2368204648
:100A3000D3F8BC30BDE81040184700F0FBBC00F014
:100A4000FFBC00F031BD00F0D1BC00F041BD00F0B2
:100A500049BD00F0D5BC0AF0DFB810B584210446CA
:100A600022F0FAFC204610BD10B590F8341090F832
:100A700078400C4B8C421A7809D03AB90A4A0B4993
:100A80001488088810800C8001221A7010BD002A7A
:100A9000FCD0054A05491488088810800C80002283
:100AA000F3E700BF403501203C3501203E350120F1
:100AB00070B50D46194635B9094B0A4A0A4840F245
:100AC000FF2123F005FCC0E90F52084B003A18BF84
:100AD00001221A700368BDE87040D3F890301847BF
:100AE000245702085C570208AA570208463501201D
:100AF00008B5094B1B888B4203D8084B1B889342CF
:100B000005D9074B074A0848A32123F0E1FB074B0F
:100B10001980074B1A8008BD3C3501203E35012065
:100B2000EF57020852580208AA570208423501201E
:100B300044350120034690F87A0018B158680368DC
:100B40001B68184770470000012108B500220846BD
:100B500007F030FD0A4B186028B90A4B0A4A2821D1
:100B60000A4823F0B5FB00220421012007F0CAFD4A
:100B7000074B186018B9074B034A2C21F0E708BD52
:100B8000C003002095580208DE5802080D590208DB
:100B9000BC03002043590208024B4FF0FF31186894
:100BA00007F052BDC0030020014B186807F078BD64
:100BB000C0030020024B0021186807F045BD00BFAC
:100BC000C0030020FFF7F0BF03480449006800237A
:100BD0001A4607F0D2BD00BFBC030020040000206D
:100BE00013B5084C00231A4601A9206807F0F6FD4A
:100BF00020684FF0FF33002201A907F0EFFD02B09B
:100C000010BD00BFBC03002003685B6C18470120C7
:100C1000704703689B6A1847FEE740F2EF30704761
:100C2000054B0360054B4FF08062C3F88820BFF38B
:100C30004F8FBFF36F8F70474C64020800E100E0F4
:100C400010B504464FF45A61FFF7EAFF204622F040
:100C500003FC204610BD000082B0002301930E4B20
:100C60001A6B42F400021A631A6B02F4000201923A
:100C7000019A1A6942F400021A611A6922F4000208
:100C80001A61064B064A1A61064A5A61064B4FF032
:100C900080629A6002B0704700380240EC25002064
:100CA000F90E0008190C000800E100E008B50A2858
:100CB00009D8DFE800F006100E0808080810101028
:100CC0001000022008BD054B054A0648902123F07C
:100CD000FFFA0020F6E70120F4E700BF855902087B
:100CE000A0590208EB59020838B50C46887FFFF777
:100CF000DDFFA58AE28A164B2169586342EA054264
:100D00005A64628BD963521B1A642568082D0ED170
:100D10009A611A615862207F0E4A42EA0062DA61E3
:100D2000E2681A620C4A5961D9601A6038BD002223
:100D3000D8611A61E1680A0A480902F4784200F4AD
:100D4000FC600243C1F3C4010A439A63034AECE71F
:100D500000B002400900010001230200012303004A
:100D600008B50B280BD8DFE800F00612100A0A0AB3
:100D70000A0808080808022008BD0520FCE7054B02
:100D8000054A06486F2123F0A3FA0020F4E701206A
:100D9000F2E700BF855902081F5A0208EB59020802
:100DA0002DE9F04191F81D800C464046FFF7D8FF31
:100DB000A77F05463846FFF7D3FF06463846FFF7BC
:100DC00075FFA18A628B444B521A1A649A61228B76
:100DD000521A1A61E28A586342EA01425A6421694E
:100DE0006268D963DA602068802828D0227F0FD813
:100DF000202867D0402865D004281AD0364B45EA11
:100E0000026545F40035B845DD6161D0334A44E000
:100E1000B0F5807F04D0B0F5007FEFD1304800E01E
:100E2000304840EA0262DA61E2681A625E62596141
:100E300032E045EA026242F40032DA61F6E7A06885
:100E4000021DDA62227F45EA026545F40035DD6164
:100E50005E625961017841B1012921D0224B234AB8
:100E600023484FF48D7123F033FADA69418822F474
:100E70007F42013922F0100242EA0122DA610121A7
:100E8000154BDA6942F02002DA61DA699206FCD485
:100E900010229A600029B9D0164A1A60BDE8F08184
:100EA000B2F1FF01DA69408822F47F4200F1FF309D
:100EB00022F0100242EA002242F0100218BF012183
:100EC000DA61DDE745EA0262034B42F40032B4E73F
:100ED00042F20132E1E700BF00B00240012301000D
:100EE000090002000A000200695A0208835A020837
:100EF000EB59020801230200024B1B685868036883
:100F00005B6918474835012070B5044625460A4BF1
:100F10000C30002660602672667245F8203B602225
:100F200029460AF0A1FD04F55A63EE6024359D427E
:100F3000FBD1204670BD00BF4C640208034B1A6809
:100F4000D207FCD423229A60704700BF00B0024051
:100F50007047000030B50F4C2568ED07FCD4232501
:100F60000904A56041F001010225FF2B656361645E
:100F7000E0630AD00849656241EA0363E361074B15
:100F800022626061E060236030BDE561039BA36382
:100F9000034BF8E700B00240090001000100020025
:100FA0000100030030B50E4C2568ED07FCD4232565
:100FB0001204A56042F001020225FF2B6563626402
:100FC000E063E16008D01B0643F00213E361054BC8
:100FD00065626061236030BD034BE3610123F9E783
:100FE00000B0024001000200020002FF30B50B4CCD
:100FF0002568ED07FCD4232512041B06A56043F4E5
:101000000033022542F0010265636264E063E1603F
:10101000E361034B65626061236030BD00B0024054
:1010200001000200012070470C2070470C2303FBD5
:101030000100083070470C2303FB010008307047A3
:101040000120704740F6B460704740F6B46303FB7C
:1010500001000830704740F6B46303FB010008301C
:101060007047012070471020704700EB01100830D6
:10107000704700EB011008307047084601F06ABD68
:1010800010B5034B0360044609F01DFB204610BD5C
:101090000465020810B50446FFF7F2FF204614214C
:1010A00022F0DAF9204610BD10B5034B0360044668
:1010B00009F009FB204610BDD064020810B50446B3
:1010C000FFF7F2FF204640F6BC6122F0C5F920464A
:1010D00010BD000010B5034B0360044609F0F3FA9D
:1010E000204610BD9C64020810B50446FFF7F2FFCD
:1010F0002046182122F0B0F9204610BD10B5084B4B
:101100000360044600F6E860FFF7BAFF04F12C0024
:10111000FFF7CAFF04F11400FFF7DCFF204610BD03
:101120003865020808B50248FFF7E8FF08BD00BFB0
:101130009C12002010B50446FFF7E0FF204641F264
:101140005C0122F089F9204610BD00002DE9F34131
:1011500001F0D2FA054601F0D3FA002401462346F5
:1011600028462246009413F0C5F8274B274A1A60F8
:10117000204603F009F8264D264B274A27489A6057
:1011800013F020F82B68BFF35B8FDB0735D42846BC
:1011900022F064F988B3224C224B236004F5706678
:1011A00004F1140004F12C0804F6E8676060C4F848
:1011B0000880E760266109F087FA1B4B63614046AF
:1011C00009F082FA194BE362384609F07DFA184BB0
:1011D000C4F8E83E04F6FC6003F05AF8224604F630
:1011E000FC61304603F04AF8304601F0B3FC114888
:1011F00023F08CF8284622F03DF90F4802B0BDE8F4
:10120000F041FFF7E7BB00BFAC35012048040020E8
:1012100098120020680400204C04002008000020E0
:101220009C120020386502089C640208D064020801
:101230000465020825110008C4030020704700005F
:101240000148FFF7D5BB00BFC403002070B5264E90
:10125000264C274D274B23603046FFF755FE284686
:1012600018F04EF9244810F055FD244B2448DC605A
:1012700000224FF48071C3E9121222491A86C3E991
:101280001A12214983F85820C3E91E011F49C3F8E7
:1012900080101F491F480B60F021C3E90422C3E9F5
:1012A0000622C3E90822C3E90A22C3E90E22C3E9E0
:1012B0001022C3E91422C3E917225A6683F870206A
:1012C0005A67C3E9016501801348018013484FF450
:1012D000A07101801248018012490A70012283F82E
:1012E0003420114A1A6070BDF404002094120020CA
:1012F00068040020145702084C040020C403002096
:101300000000010101000001000450001A00140057
:10131000483501203C350120423501203E35012071
:101320004435012040350120606302080148FFF781
:1013300077BC00BFF4040020002070478180704714
:10134000C180704701817047418170477047704785
:1013500070477047704710B4C4880368121B8488B4
:101360005B6D091B12B25DF8044B09B218474FF6CA
:10137000FF7383814FF0FF3303621368C361106012
:101380007047002070478B8883800120704770472A
:1013900080F82610704790F82600704710B500229C
:1013A000B1F90840B1F90A10028042808480C180FE
:1013B00010BD0022028042808280C2807047017787
:1013C000704780ED080A704780F82410704780F855
:1013D0002510704701207047983070478C30704757
:1013E000843070477047704770470000034B90226D
:1013F00083F85A2383F85823704700BF00E100E0C8
:10140000094A0A49D3680A48C3F30A03013B9BB25D
:101410000B801169C1F30A01013901801364536B18
:1014200043F001035363704700680140FA22002033
:10143000F8220020014BD3F8AC007047006801404F
:10144000024B0122C3F8AC105A6270470068014099
:1014500010B52C21044621F0FFFF204610BD10B529
:10146000BC21044621F0F8FF204610BD70B50446AB
:1014700009F027FC23689D6E0FF0E4F90146204631
:10148000A8472368054AD3F88C502046AC46002371
:10149000BDE87040A2F51631604700BF00B004D02F
:1014A00009F0F6BB09F000BC09F0BCBB09F02BBD8C
:1014B00090F8252012B103685B691847704790F8CF
:1014C00025201AB190F8242002B11860704700005E
:1014D000034B4FF080629A604FF080729A607047C1
:1014E00000E100E0084B4FF08062C3F88820BFF3B2
:1014F0004F8FBFF36F8F4FF08072C3F88820BFF318
:101500004F8FBFF36F8F704700E100E070B500238D
:10151000124E8380124B0360336893F858200546BF
:101520000AB1D86C00B998680368DB6A98473368D9
:10153000B0FA80F4D86C640930B10368DB6A98476C
:10154000002808BF44F001042CB9064B064A07489E
:101550002C2122F0BDFE284670BD00BF4835012079
:101560004C650208C15A02081F5B0208585B02085A
:1015700070B5254E3568BFF35B8F15F0010540D17E
:10158000304621F06BFF00283BD0204C204B2561DA
:1015900004F13400C4E90035C4E90255E584A562CC
:1015A000A58510F09CFE04F158000BF011FF194BBB
:1015B000A3652046184B40F8843BFFF7A7FF174B65
:1015C000C4F884302433C4F88C304FF4C803C4E921
:1015D00028350023C4F8AC30C4F8B030C4F8B430B7
:1015E000C4F8B8300E480F4BC4F89050C4F89C5063
:1015F000C4F8A850C4F8983022F088FE304621F094
:1016000039FF024870BD00BFFC22002000230020EB
:10161000346C02086C650208E4650208E86B020895
:10162000E9130008C86B020838B5184C23685BB38F
:10163000174B184A1B6C11888B4216D1164B198810
:1016400005F0E2F9236893F86A200025013283F857
:101650006A2083F87C50FFF7B7FA20680AF0AEF8EA
:101660002846BDE83840FFF7F7B805F0CDF9246803
:10167000236820461B6A9847012384F87C300020A9
:10168000BDE83840FFF712B938BD00BF483501202A
:1016900000680140FA220020F822002007B5064B1E
:1016A000ADF806001B68054801220DF1060105F0A2
:1016B0005BFF03B05DF804FB0C00002098240020C1
:1016C00030B595B0102200210AA823F02AF8142280
:1016D000002103A823F025F800241E4B01941A6C66
:1016E00042F080521A641B6C03F080530193019BFB
:1016F000194B02941A6842F440421A601B6803F4C2
:10170000404302930122029B4FF48033CDE908232A
:1017100002254FF480030821CDE90E534FF4B47332
:10172000CDE9101308A804231393129505F0C4F90A
:1017300005F088F90F23CDE903354FF4A0504FF49D
:101740008053CDE90603052103A8059405F090FB1D
:1017500015B030BD00380240007000402DE98048CF
:101760009BB003F0E5FCFFF7ABFF142200210DA8AE
:1017700022F0D7FF0024C94B00941A6BC848C94D0A
:1017800042F010021A631A6B02F010020092009AE3
:1017900001941A6B42F020021A631A6B02F02002C5
:1017A0000192019A02941A6B42F080021A631A6B3A
:1017B00002F080020292029A03941A6B42F0040231
:1017C0001A631A6B02F004020392039A04941A6BD0
:1017D00042F001021A631A6B02F001020492049AA9
:1017E00005941A6B42F002021A631A6B02F00202AD
:1017F0000592059A06941A6B42F040021A631A6B1E
:1018000002F040020692069A07941A6B42F0080210
:101810001A631B6B03F00803224607933C21079BC6
:1018200004F0EAFAA0480122022104F0E5FA224677
:101830009D48042104F0E0FA22469C484FF44051B0
:1018400004F0DAFA01263C23CDE90D3694480F94D2
:1018500003230DA90227109304F0E4F992480DA97F
:10186000CDE90D76CDE90F4404F0DCF904238E4870
:101870000DA9CDE90D36CDE90F4704F0D3F98C4819
:101880000F940DA9CDE90D6404F0CCF94FF4405349
:1018900086480DA9CDE90D36CDE90F4704F0C2F910
:1018A0000DA983480F94CDE90D6404F0BBF981487C
:1018B000814B036003F0E4FEDFF820C27F4B2C6213
:1018C000C5E900C328464FF48043C5E90434C5E99F
:1018D0000244C5E9064404F09DFC1021284604F0AA
:1018E000E1FE2146284604F0FCFE754DDFF8F0E1EC
:1018F000AC624FF48273C5E900E34FF4007818231B
:10190000C5E9068328460A23C5E90244C5E904441B
:10191000C5E90844EB6205F0CBFD8F23224639462A
:1019200061488DF824308DF8344004F065FA324671
:101930004FF47A7309A9284605F016FE4FF47A731E
:1019400032460DA9284605F0BBFF324639465648B7
:101950005C4D04F051FA9DF83430D32B04BF5A4B40
:101960001E705A4B0126C5E900364FF0100940237E
:101970000024C5E904934FF4C073C5E906344FF45D
:101980000063C5E908344FF4005302274FF0040800
:101990004FF0030BAB620DA907232846CDE90D7369
:1019A000CDE90F834FF0080AC5E90248CDE911B728
:1019B000139705F061FC4FF6FF7209A92846CDE99F
:1019C0000AA6099608940C9405F076FC304603F0BC
:1019D000DBFB4FF6FF7209A92846CDE9097ACDE96C
:1019E0000B6405F069FC4FF6FF7209A92846CDE9A2
:1019F00009BACDE90B8405F05FFC4FF40C73089332
:101A0000089B0C934FF6FF7209A92846CDE9098A75
:101A10000B9605F051FC40F26A51284605F06AFC2D
:101A2000342221460DEB020022F07BFE284D294B8B
:101A30002C61C5E900340923C5E905361D23C5E934
:101A4000073B40F20D1240F24313C5E9092340F26F
:101A5000171140F247132846C5E90B13C5E90244A4
:101A6000AC8685F8364004F0D7FEFF21F022CDE9A0
:101A700012144FF0050A4FF480614FF4A073CDE9C2
:101A80000E24CDE9141ACDE916420DA922462846A6
:101A9000CDE91037104D189324E000BF0038024004
:101AA000001002409825002000080240000C02406F
:101AB000000002402C26002000300240A0860100D9
:101AC00098240020D4230020C4230020400100A03B
:101AD000F024002000680140BC230020005C00408E
:101AE000005001400D94ADF864408DF8664004F05C
:101AF0005EFF594B2B601B68DFF8A8B198472B6835
:101B0000564DDB689847564B2846C5E90034C5E971
:101B10000274C5E90A47C5E90C4403F0C1FD31462A
:101B2000284603F073FE4A4621460DA822F0F9FD2F
:101B30004C4D4D48EE614FF48033C5E90003284613
:101B40006E61AC602C612C7685F82040EC62C5F8A3
:101B500028B0EC6085F8304003F02AFB0D220DA977
:101B60002846CDE90D26414D0F9403F09BFC2146FC
:101B70004A460DA822F0D5FD3D4AEE614FF4803370
:101B80002846C5E900236E61C5E90AB4AC602C6142
:101B90002C7685F82040EC6085F8304003F008FB97
:101BA0000DA92846CDE90DA6324D0F9403F07AFC1D
:101BB0003148324E04614FF4E133C0E900530C2345
:101BC0002F4DC461C0E90534C0E9024406F054FB5E
:101BD0001C2221460DA8CDE9094422F0A2FD59237B
:101BE000C5E90063284640F6E103C5E90334AC606B
:101BF000AC6106F0E1F809A92846CDE9094406F0F0
:101C00003DFA602342460DA92846CDE90D340F94D4
:101C1000119406F02DF9284600F0CCFBFEF750FD9C
:101C2000FEF74DFD06F04AFC164A3946484606F0D6
:101C300069FD154B154A18602146154806F06AFCE7
:101C4000144B154A18602146144806F063FC144BE7
:101C5000186006F045FCFEE714000020EC2500208B
:101C600000B002407C2600200020014034260020E5
:101C70000021014000100140082400200004004021
:101C80005024002028660208C02300206466020851
:101C9000891E0008CC23002040660208CF060008F9
:101CA000C82300200100000F704770477FB5094B23
:101CB0008DF817201B6802930DF117020123009283
:101CC00001930A460146044804F04CFB07B05DF856
:101CD00004FB00BF10000020982500207FB50023E2
:101CE0008DF81730084B1B6802930A4601230DF14B
:101CF0001701009101930146044804F0C3FB9DF8CD
:101D0000170007B05DF804FB1000002098250020A4
:101D10001FB5084C24680092CDE901340A4601231E
:101D20000146054804F0AEFB003818BF012004B09E
:101D300010BD00BF100000209825002003F024BA39
:101D400010B5064C00222046042104F055F8204628
:101D50000122BDE81040042104F04EB80008024002
:101D600038B50B4D044601220A484FF4005104F0E7
:101D700043F800220421284604F03EF82046FFF7ED
:101D80008DFC28460122BDE83840042104F034B817
:101D900000080240000C024038B50B4D04460022FA
:101DA0000A484FF4005104F027F800220421284685
:101DB00004F022F82046FFF771FC28460122BDE816
:101DC0003840042104F018B800080240000C02401A
:101DD000F7B5144E144F05460C4630460022042138
:101DE00004F00AF800224FF40051384604F004F8D9
:101DF0002846FFF753FC0D4B0D481B68224601A9EE
:101E000005F05EFD384601224FF40051019C03F0BD
:101E1000F3FF30460122042103F0EEFF204603B019
:101E2000F0BD00BF00080240000C02400C00002082
:101E30009824002003F0A8B9A1F2A56210B592B2CF
:101E400040F25624A0F2A563A2429BB206D9B1F596
:101E50007A7F11D340F6B83291420FD840F2562221
:101E600093420DD9B0F57A7F0CD340F6B83398423F
:101E70008CBF5220002010BD5520FCE74420FAE71B
:101E80000020F8E74C20F6E72DE9F041224E234FE1
:101E90008AB04FF00008304603F030FA384603F0BD
:101EA0002DFA0A21304603F0A7FA0A21384603F03A
:101EB000A3FA304603F0F3FA0446384603F0EFFA8B
:101EC000A2B283B21649054602A822F0C5FB02A8B9
:101ED000FEF78EF9642382B202A9124806F0FBF9DC
:101EE000A0B2A9B2FFF7A8FF04468DF8070060B1C1
:101EF00040450BD00C4800231A4600680DF107013D
:101F000006F03BFC9DF8073003B90024322006F0B0
:101F100045FBA046BFE700BF7C26002034260020FA
:101F2000BA5B020808240020C02300200268034B8B
:101F30009A4201D103F016B9704700BF001000406B
:101F40007047000082B00E4B00220092596C41F4A1
:101F500080415964596C01F48041009100990192CB
:101F6000196C41F0805119641B6C03F0805301938C
:101F7000019B0F216FF0010002B003F041BB00BFD5
:101F80000038024010B514228AB0044600210DEB3F
:101F9000020022F0C6FB2368214A93421FD1214B45
:101FA0002148002101915A6C42F480725A645A6CA3
:101FB00002F480720192019A02911A6B42F00402BB
:101FC0001A631B6B03F0040302930821029B032393
:101FD000CDE9051305A903F025FE0AB010BD134A8B
:101FE0009342FAD10F4B1248002103915A6C42F4EC
:101FF00000725A645A6C02F400720392039A0491BC
:102000001A6B42F001021A631B6B03F00103049385
:10201000049B20220323CDE9052305A9DBE700BFAC
:102020000020014000380240000802400021014029
:10203000000002400268094B9A4282B00BD1002393
:102040000193074B1A6B42F480521A631B6B03F423
:1020500080530193019B02B0704700BF00300240E3
:102060000038024007B50F4B02689A4216D1002291
:10207000A3F5F0430192196B41F4000119631B6B46
:1020800003F40003019305215A20019B03F0B8FAE1
:102090005A2003B05DF804EB03F0E4BA03B05DF836
:1020A00004FB00BF00B002402DE9F043044689B0B4
:1020B0001422002103A822F034FB2268244B9A4208
:1020C00043D1244C244800250095236B43F004039E
:1020D0002363236B03F004030093009B0195236BA0
:1020E00043F001032363236B03F001030193019B7E
:1020F0004FF012094FF400734FF001080327042634
:1021000003A9CDE90339CDE90587079603F08AFDD8
:102110004FF480731148079603A9CDE90339CDE93F
:10212000058703F07FFD0295236C43F400032364CD
:10213000236C03F400030293029B236A43F400031D
:102140002362236A23F40003236209B0BDE8F0830D
:10215000005C0040003802400008024000000240DD
:10216000F0B599B004461422002107A822F0D9FA4C
:1021700030220DEB0200002122F0D3FA22685E4BE0
:102180009A4240F0B78008230C93C0231093042395
:1021900012930CA84FF40033159304F041FF08B1DB
:1021A000FFF7CEFE554B5648002400945A6C42F07F
:1021B00080625A645A6C02F080620092009A019424
:1021C0001A6B42F020021A631A6B02F0200201928D
:1021D000019A02941A6B42F001021A631A6B02F020
:1021E00001020292029A03941A6B42F002021A63ED
:1021F0001A6B02F002020392039A04941A6B42F0E3
:1022000040021A631A6B02F040020492049A059489
:102210001A6B42F004021A631A6B02F00402059270
:10222000059A06941A6B42F008021A631B6B03F0BE
:102230000803069302250E26069B0B964FF4806337
:1022400007A9CDE90735CDE9094503F0EBFC41F6D7
:1022500058032C480B9607A9CDE907350927CDE986
:10226000094503F0DFFC032327480B9707A9CDE9B5
:102270000735CDE9094503F0D5FC4FF470632248DA
:102280000B9607A9CDE90735CDE9094503F0CAFC4E
:102290004FF40C631D480B9607A9CDE90735CDE92E
:1022A000094503F0BFFCC02319480B9607A9CDE9E7
:1022B0000735CDE9094503F0B5FC082315480B9611
:1022C00007A9CDE90735CDE9094503F0ABFC4FF48B
:1022D000A0530E480B9707A9CDE90735CDE909456D
:1022E00003F0A0FC58202246052103F089F958206C
:1022F00003F0B8F919B0F0BD0068014000380240A1
:102300000014024000000240000402400018024095
:1023100000080240000C024010B5044688B01422A8
:10232000002103A822F0FDF92268144B9A4223D120
:1023300003F56843002101915A6C114842F4801260
:102340005A645A6C02F480120192019A02911A6B3B
:1023500042F020021A631B6B03F020030293029BDE
:102360004FF4607202230321CDE903230523CDE955
:10237000061303A903F056FC08B010BD005001403D
:10238000001402400268094B9A4282B00BD100232C
:102390000193074B1A6C42F002021A641B6C03F0A3
:1023A00002030193019B02B0704700BF000400408C
:1023B0000038024010B5044686B01422002101A85E
:1023C00022F0AFF922680D4B9A4214D100230093FA
:1023D0000B4B0C481A6B42F001021A631B6B03F0A3
:1023E00001030093009B8022022301A9CDE9012370
:1023F000059303F017FC06B010BD00BF00040040B9
:10240000003802400000024010B5044688B0142293
:10241000002103A822F085F92268144B9A4223D1A7
:1024200003F59433002101915A6C114842F01002D7
:102430005A645A6C02F010020192019A02911A6BCE
:1024400042F001021A631B6B03F001030293029B2B
:102450004FF4C06202230321CDE903230723CDE912
:10246000061303A903F0DEFB08B010BD0010014005
:10247000000002402DE9F04186B0002303932B4B6E
:102480001C68002C4FD14FF00108C3F80080284B86
:1024900000949A6B274842EA08029A639B6B03EA0E
:1024A00008030093022703260C25009B01A94FF681
:1024B0003F03CDE90137CDE9046503F0B3FB1E48C6
:1024C000059501A9CDE90187CDE9034603F0AAFBF3
:1024D00048F233131948059501A9CDE90137CDE933
:1024E000034603F09FFB4FF683731548059501A93A
:1024F000CDE90137CDE9034603F094FB4CF20373B9
:102500001048059501A9CDE90137CDE9034603F04F
:1025100089FB60230C48059501A9CDE90137CDE978
:10252000034603F07FFB06B0BDE8F081C42600201F
:102530000038024000140240000802400018024027
:1025400000100240000C02400004024070B588B048
:1025500000230293204B1A6C42F010021A641B6C89
:1025600003F010030293054601A903A8029B04F09F
:1025700039FD069B4BBB04F015FD184E184B33601C
:1025800040F2E733F360174BB0FBF3F3013B7360AA
:10259000304600233361B360B36105F0E1FB0446CC
:1025A00080B9304605F0B2FA044658B9362003F037
:1025B00059F80F2D0DD822462946362003F020F871
:1025C000094B1D60204608B070BD04F0EBFC4000D4
:1025D000D3E70124F6E700BF00380240C8260020F8
:1025E0000010004040420F007C0000207047FEE7D2
:1025F000FEE7FEE7FEE77047014805F0C5BA00BFF9
:10260000C8260020014804F075B900BFF02400205E
:10261000014803F071B800BFEC250020012070478D
:1026200008B522F021F9162303604FF0FF3008BDF2
:1026300008B522F019F916230360FEE770B50D46C0
:1026400014460E46731B9C4201DC204670BDAFF35E
:10265000008006F8010BF5E770B50D4614460E46EE
:10266000731B9C4201DC204670BD16F8010BAFF3D2
:102670000080F5E74FF0FF3070474FF400534B6098
:102680000020704701207047002070470A4A1168F7
:1026900008B5034609B90949116010686946034441
:1026A0008B4206D922F0E0F80C2303604FF0FF3094
:1026B00008BD1360FCE700BF1027002088420120FE
:1026C000704710B50421044620F0C6FE204610BD18
:1026D000012908B506D0022908D059B901F0A0FD9A
:1026E000006808BD01F09CFD4068FAE701F098FD24
:1026F0008068F6E70020F4E7004870479C6602080F
:102700000220704713B5002451B1036801948DF87D
:10271000034001AA9C680DF10303A04702B010BD5D
:102720000846FBE7C0897047008A7047C088704739
:1027300080887047807A00F07F007047807AC009F7
:1027400070470020704700009FED010A704700BFEE
:1027500000000000704710B50821044620F07CFE00
:10276000204610BD7047704700F5987308684968A7
:1027700003C37047704770474160704770477047A8
:10278000064BC0F84C310023C0F8503100F5A2735D
:10279000C0F84801C0F84031704700BF8D290008DB
:1027A000012303727047704710B4C2684168541027
:1027B000034601EB6200D20748BF0A599B685DF8E7
:1027C000044B48BFD35818470346406830B19A6855
:1027D0001AB9D86800F0010070470120704710B5A1
:1027E0000C21044620F038FE204610BD10B5102103
:1027F000044620F031FE204610BD10B54FF4AE71F6
:10280000044620F029FE204610BD10B50EF01AF83F
:102810000368BDE81040DB6B184710B50446D0F8DC
:10282000400158B10368DB68984738B1D4F84001DB
:1028300003689B6898470023C4F8403110BD00002E
:102840002DE9F14FD0E9556A0746B06803681B6A65
:10285000984740F6B363984205D8444B444AA321B5
:10286000444821F035FD706803681B6A98470F28BB
:1028700003D8414B3E4AA421F2E7F06803681B6A83
:1028800098470B2803D83D4B394AA521E8E70DF0BE
:10289000D9FFDFF8F09004300DF0F9FFD9F800000F
:1028A00010B10368DB689847D9F8000010B10368DD
:1028B0001B689847DFF8D080D8F8000010B1036893
:1028C0005B699847D7F83C0110B103685B6898478B
:1028D000D8F8000010B103681B689847D7F83C018E
:1028E00010B103689B689847F068036800215B6A31
:1028F00098474FF0000B224BC0F804B0044680F814
:1029000008B00360B068036859465B6A984705469B
:1029100001F02CFD7068036859465B6A98472946A8
:10292000064601F001FD331DC7F83C61C9F80040BF
:10293000C8F80050CAF800302B68C6F808A028462E
:10294000DB68EE639847336830461B68984721463A
:10295000284610F027F9236820461B69984723680A
:102960005B69204601B0BDE8F04F1847E45B020800
:10297000725C0208445D02088B5D02082E5E02084C
:1029800048670208903501208C3501202DE9F14F70
:10299000D0E9556A0746B06803681B6A9847EF2874
:1029A00005D8444B444AA321444821F091FC706867
:1029B00003681B6A98470F2803D8414B3E4AA4215D
:1029C000F2E7F06803681B6A98470B2803D83D4B71
:1029D000394AA521E8E70DF035FFDFF8F090043023
:1029E0000DF055FFD9F8000010B10368DB68984777
:1029F000D9F8000010B103681B689847DFF8D08051
:102A0000D8F8000010B103685B699847D7F83C011B
:102A100010B103685B689847D8F8000010B10368EC
:102A20001B689847D7F83C0110B103689B6898472A
:102A3000F068036800215B6A98474FF0000B224B57
:102A4000C0F804B0044680F808B00360B0680368BA
:102A500059465B6A9847054601F04CFC706803686C
:102A600059465B6A98472946064601F023FC331D08
:102A7000C7F83C61C9F80040C8F80050CAF80030F7
:102A80002B68C6F808A02846DB68EE6398473368D1
:102A900030461B6898472146284610F083F8236883
:102AA00020461B69984723685B69204601B0BDE852
:102AB000F04F1847E45B0208D15E0208445D02084B
:102AC0008B5D02082E5E02084867020890350120DF
:102AD0008C350120044B1B6893F858200AB1D86C40
:102AE00000B99868704700BF48350120F8B517460F
:102AF00004460E460DF068FF124B1C60124B23601B
:102B0000124B0025C4E95135114BC4E953551868DF
:102B1000036801219B68C4E94F55C4E9557698477D
:102B2000284601F031FBFFF7D5FF18F092FBFFF7C5
:102B3000D1FF18F009FCFFF7CDFF18F011FC20467B
:102B4000F8BD00BF9C350120F4660208DC6602086F
:102B500048350120064BC0F84C310023C0F85031F5
:102B600000F5A273C0F84801C0F84031704700BFBB
:102B70008D290008064BC0F84C310023C0F85031B5
:102B800000F5A273C0F84801C0F84031704700BF9B
:102B900041280008406A7047806A704770478A88F9
:102BA0000B8810B5D20A4C88C1699BB251F822003B
:102BB00043EA0443184410BD10B50446BAB1107B73
:102BC00068B1537BD27A1B0203F4E0631A43236A91
:102BD00003EB82031A888A4202D193F9020010BDE6
:102BE00005D8013880B204330028F3D1F7E700207C
:102BF000F5E710B52C21044620F02EFC204610BD30
:102C000030B58BB00446BDF860500895BDF85C50F7
:102C100007959DF8505006959DF84C5005959DF8E8
:102C2000485004959DF8445003959DF840500295F6
:102C30009DF83C500195BDF8385000950FF00CFC04
:102C4000064B2360159BE361169B2362199B63620D
:102C50001A9BA36220460BB030BD00BF6C67020810
:102C600070477047704770477047704770477047AC
:102C700030B4C26844685510034604EB6200D207C2
:102C800048BF62599B6830BC48BFD35818470346B9
:102C9000406830B19A681AB9D86800F001007047EE
:102CA0000120704710B51021044620F0D5FB2046C6
:102CB00010BD10B5F021044620F0CEFB204610BD1B
:102CC0009830884208B505D10DF0BCFDBDE808403C
:102CD000FFF750BF08BD70B5036804461B6B15466F
:102CE00098472368294620465B6BBDE8704018472B
:102CF00070B504461D46BDF91060FFF7ECFF236870
:102D0000294620469B6B9847236831462046DB6B5B
:102D1000BDE8704018470000094A02604FF4807116
:102D200000228184FF21C0E90122C0E90322C0E919
:102D30000522C0E9072280F826108262704700BF92
:102D4000886D0208F8B5194B018F1B888B42064627
:102D50002AD9174B1B682BB9164B174A17486C21F9
:102D600021F0B6FA13F81120154B1B6853F82250C6
:102D7000144B186801F044FA2B6807469B6B2846F1
:102D800098472B6804469B6C3946284698472B6821
:102D900014FB00F45B6A394628469847A4B223180E
:102DA0001BB2A6F84630F8BD0023FAE7A43501208F
:102DB000A0350120A35F0208E55F02082060020839
:102DC000A8350120AC3501202DE9FF4704462746F0
:102DD00000250FF03BFD2E4BE56347F8403B04F127
:102DE0006C093846FFF798FF04F198064846FFF74C
:102DF00093FF30460BF07AF9264BC4E93834264B62
:102E00004FF4A07AC4E93A352A4629463846CDF827
:102E100000A0F023FFF76CFF04F104084FF07F439C
:102E2000A3663946404607F061FC4FF0FF37F023B8
:102E30002A4629464846CDF800A0FFF759FF4946E3
:102E40004046C4F8947007F051FC29463046D2221F
:102E5000FFF741FF03AA02A901233046ADF80C3069
:102E6000ADF808500AF0B7FE1623A4F8D03030466B
:102E7000FFF768FF04F1E0034046C4E93577C4F882
:102E8000C030314607F032FC204604B0BDE8F08780
:102E9000EC670208D4670208C12C0008806A7047FA
:102EA00030B5036885B06D460181D3F884300146A2
:102EB00004462846984795E807003C3484E8070014
:102EC00005B030BD30B5036885B06D464181D3F89B
:102ED0008430014604462846984795E807003C346C
:102EE00084E8070005B030BD002202804280828065
:102EF000C280704780F83610704770B5036804468A
:102F00001B6B154698472368294620465B6EBDE833
:102F10007040184700207047806C704770477047BA
:102F2000704770477047704770470368DB6A1847FF
:102F300090F82C304BB100F16C021268C2653BB1C5
:102F400000F174031B680366704700F16802F4E740
:102F500000F17003F6E730B4C268446855100346C8
:102F600004EB6200D20748BF62599B6830BC48BF7F
:102F7000D35818470346406830B19A681AB9D868E0
:102F800000F0010070470120704790F82D3080F864
:102F90005A30704710B54C21044620F05DFA2046A7
:102FA00010BD10B57821044620F056FA204610BD19
:102FB00010B51021044620F04FFA204610BD10B580
:102FC00040F68851044620F047FA204610BD08B567
:102FD000FEF76EFA08BD10B50446006B50B10368E9
:102FE000DB68984730B1206B036821469B68BDE8D9
:102FF0001040184710BD0B7970B590F82C6004464E
:103000000D460BB916B170BD002EFCD0B3FA83F398
:103010005B0984F82C3023682046D3F88C3098471D
:10302000236820465B699847002EECD02B79012B52
:10303000E9D123682046D3F88830BDE870401847AE
:10304000036870B55E6B124B1B6804468DB22BB9DA
:10305000104B114A6C21114821F03AF91049828D28
:103060000988914203D80F4B0B4A6D21F3E713F8FF
:1030700012200D4B1B6853F8220003681B6B984706
:10308000291A3346204609B2BDE87040184700BFF0
:10309000A0350120A35F0208E55F02082060020856
:1030A000A435012067600208A835012000F1C4039F
:1030B000994270B504460D4603D10DF0C3FBFFF7EE
:1030C00049FD04F65C439D4205D1236820461B6BF5
:1030D000BDE87040184770BD074A02600022C0E991
:1030E0000122C0E90322C0E90522C0E907224FF40A
:1030F00080728284704700BF306F020810B50446AA
:10310000FFF7EAFF024B23600023A362204610BDB5
:10311000086B020800224FF0FF31C0E900218260F5
:10312000704710B50446FFF7F5FF204610BD0000BC
:1031300010B500210446262221F0F3FA2046FFF7BD
:10314000CBFF094B2360094BA3624FF6FF73A385A6
:103150004FF47F020023C4E90C32238704F13C00C2
:10316000FFF7D8FF204610BDF86C0208CC660208B5
:1031700010B50446FFF7DCFF024B23600023A36475
:10318000204610BD2068020870B50446FFF7B6FF60
:103190004FF47F432646A3850123002584F824307D
:1031A0000D4B256346F8343B3046FFF7B5FD0B4B1E
:1031B00063632A4629463046C4E91A55C4E91C55BA
:1031C0002566A4F86450FFF786FD2046314607F0D7
:1031D0008DFA204670BD00BFB0680208F06D02088D
:1031E0002DE9F04F0446C1B025464FF000080FF01E
:1031F0002DFBDD4BC4F83C8045F8403B04F16C09E5
:103200002846FFF789FD4846FFF786FD04F198033D
:1032100004F1C40B184604F59E761793FFF77CFD66
:103220005846FFF7B1FF3046FFF782FF04F5C2733F
:1032300018461893FFF762FF04F5D87318461993E0
:10324000FFF75CFF04F5EE7318461A93FFF756FF7D
:1032500004F5027318461B93FFF750FF04F50D7336
:1032600018461C93FFF74AFF04F5187318461D9380
:10327000FFF744FF04F5237318461E93FFF73EFF44
:1032800004F52E7318461F93FFF738FF04F53973C2
:1032900018462093FFF740FD04F544731846219328
:1032A000FFF72CFF04F54F7318462293FFF726FF14
:1032B00004F55A7318462393FFF720FF04F565734E
:1032C00018462493FFF71AFF04F5707318462593E8
:1032D000FFF714FF04F57B7318462693FFF70EFFE4
:1032E00004F5836318462793FFF708FF04F244436D
:1032F00018462893FFF702FF04F58E6318462993BA
:10330000FFF70AFD04F29C4318462A93FFF704FDD9
:1033100004F5996318462B93FFF7FEFC04F2F4437F
:1033200018462C93FFF7F8FC04F5A46318462D9378
:10333000FFF7F2FC04F24C5318462E93FFF7ECFC17
:1033400004F5AF6318462F93FFF7E6FC04F2A4538D
:1033500018463093FFF7E0FC04F5BA631846319342
:10336000FFF7DAFC04F2FC5318463293FFF7D4FC63
:1033700004F5C56318463393FFF7CEFC04F254639B
:1033800018463493FFF7C8FC04F5D063184635930C
:10339000FFF7C2FC04F2AC6318463693FFF7BCFC9F
:1033A00004F5DB6318463793FFF7B6FC04F20473A9
:1033B00018460493FFF7DCFE04F5EA63184605930C
:1033C000FFF7D6FE04F29C7318460693FFF7D0FE73
:1033D00004F5FD6318460793FFF7CAFE04F63403AD
:1033E00018460893FFF7C4FE04F5086318460993CE
:1033F000FFF7BEFE04F6CC0318460A93FFF7B8FEAB
:1034000004F6181318460B93FFF7B2FE04F6641384
:1034100018460C93FFF7ACFE04F51B6318460D939A
:10342000FFF7A6FE04F6FC1318460E93FFF7A0FE66
:1034300004F6482318460F93FFF79AFE04F69423E8
:1034400018461093FFF794FE04F52E631846119367
:10345000FFF78EFE04F62C3318461293FFF788FE12
:1034600004F6783318461393FFF782FE04F6C4334C
:1034700018461493FFF77CFE04F541631846159334
:10348000FFF776FE04F65C4318461693FFF77CFEC2
:1034900004F6D44318460293FFF74AFE04F61C5381
:1034A00018460393FFF744FE304BC4F8783D304B89
:1034B000C4F8803D4FF4A073271D4FF07F4A424669
:1034C0002846C4F87C4DC4F8848D41460093F0230F
:1034D000FFF70EFC29463846C4F868A007F006F945
:1034E0004FF4A0734246484600934146F023FFF74D
:1034F000FFFB204BC4F894304946384607F0F6F8F5
:10350000DC235022179800930A21FFF7F1FB1A4B96
:103510001799C4F8C0302125384607F0E7F842462D
:1035200041460095382304F1F800FFF7E1FB4FF026
:103530000503A4F82831114BC4F82C3103F54C5382
:103540003333C4F83031A3F5CC43663BC4F834318F
:1035500003F1331303F54C535846C4F83831FFF7E1
:10356000E7FC04F678530BE0646902084C69020832
:10357000AD300008DFED64FFEEEEEEFF996600FF70
:10358000C4F8F430082258461793009538230C21CC
:10359000FFF7AEFB5946384607F0A8F838AD0E22C3
:1035A00030461221FFF797FB31462846C4F86CA13C
:1035B000A4F870810AF00AF895E8070004F5BC73D6
:1035C0003DADDFF864B9CDF8F4B083E8070015230A
:1035D00030462946ADF8F8300AF0A0FA31463846B0
:1035E000322607F083F833465422189800960E21AD
:1035F000FFF77EFB1899384607F078F833468A22A1
:10360000199800960E21FFF773FB1999384607F0B9
:103610006DF833468A221A9800964421FFF768FB1A
:103620001A99384607F062F833468A221B980096AA
:103630007A21FFF75DFB1B99384607F057F83346B0
:103640008A221C980096B021FFF752FB1C9938463D
:1036500007F04CF83346C0221D9800960E21FFF764
:1036600047FB1D99384607F041F83346C0221E98A3
:1036700000964421FFF73CFB1E99384607F036F8C8
:103680003346C0221F9800967A21FFF731FB1F991D
:1036900038464FF0FF3907F029F83346C02220980A
:1036A00000960E21FFF724FB2099C4F80C933846AE
:1036B00007F01CF83346C02221980096B021FFF78E
:1036C00017FB2199384607F011F83346F622229865
:1036D00000960E21FFF70CFB2299384607F006F8FA
:1036E0003346F622239800964421FFF701FB2399E5
:1036F000384606F0FBFF3346F622249800967A21DE
:10370000FFF7F6FA2499384606F0F0FF3346F62222
:1037100025980096B021FFF7EBFA2599384606F078
:10372000E5FF33465422269800964421FFF7E0FA3D
:103730002699384606F0DAFF334654222798009639
:103740007A21FFF7D5FA2799384606F0CFFF33469E
:10375000542228980096B021FFF7CAFA28993846D3
:1037600006F0C4FF33465422299800960E21FFF735
:10377000BFFA2999C4F89894384606F0B7FF334643
:1037800054222A9800964421FFF7B2FA2A99C4F8E5
:10379000C494384606F0AAFF334654222B9800966C
:1037A0007A21FFF7A5FA2B99C4F8F094384606F071
:1037B0009DFF334654222C980096B021FFF798FACB
:1037C0002C99C4F81C95384606F090FF33468A229F
:1037D0002D9800960E21FFF78BFA2D99C4F8489585
:1037E000384606F083FF33468A222E9800964421FD
:1037F000FFF77EFA2E99C4F87495384606F076FFE6
:1038000033468A222F9800967A21FFF771FA2F9972
:10381000C4F8A095384606F069FF33468A223098EE
:103820000096B021FFF764FA3099C4F8CC95384679
:1038300006F05CFF3346C022319800967A21FFF7EC
:1038400057FA3199C4F8F895384606F04FFF3346D9
:10385000C02232980096B021FFF74AFA3299C4F894
:103860002496384606F042FF3346F62233980096F7
:103870000E21FFF73DFA3399C4F85096384606F00A
:1038800035FF3346F622349800964421FFF730FA8C
:103890003499C4F87C96384606F028FF3346F62261
:1038A000359800967A21FFF723FA3599C4F8A8963F
:1038B000384606F01BFF3346F62236980096B021B4
:1038C000FFF716FA3699C4F8D496384606F00EFF7C
:1038D0003346C022379800964421FFF709FA3799FA
:1038E000C4F8009738464FF0190906F0FFFE33463A
:1038F00060220C210498CDF80090FFF7F9F9C4F884
:1039000034A7A4F838872846FFF704FC95E8070099
:1039100004F5E86383E8070014230498ADF8F83051
:103920002946CDF8F4B00AF0F9F80499384606F0C3
:10393000DDFE3346602244210598CDF80090FFF764
:10394000D7F9C4F880A7A4F884872846FFF7E2FBDC
:1039500095E8070004F28C7383E8070013230598A9
:10396000ADF8F8302946CDF8F4B00AF0D7F805994B
:10397000384606F0BBFE334660227A210698CDF821
:103980000090FFF7B5F9C4F8CCA7A4F8D087284673
:10399000FFF7C0FB95E8070004F5FB6383E8070029
:1039A00012230698ADF8F8302946CDF8F4B00AF0A5
:1039B000B5F80699384606F099FE33466022B021E4
:1039C0000798CDF80090FFF793F9C4F818A8A4F869
:1039D0001C882846FFF79EFB95E8070004F62403A1
:1039E00083E8070011230798ADF8F8302946CDF891
:1039F000F4B00AF093F80799384606F077FE33469C
:103A000096220E210898CDF80090FFF771F9C4F8BE
:103A100064A8A4F868882846FFF77CFB95E80700AF
:103A200004F5076383E8070010230898ADF8F83021
:103A30002946CDF8F4B00AF071F80899384606F036
:103A400055FE3346962244210998CDF80090FFF7A1
:103A50004FF9C4F8B0A8A4F8B4882846FFF75AFB79
:103A600095E8070004F6BC0383E807000F230998D4
:103A7000ADF8F8302946CDF8F4B00AF04FF80999BE
:103A8000384606F033FE334696227A210A98CDF85E
:103A90000090FFF72DF9C4F8FCA8A4F80089284687
:103AA000FFF738FB95E8070004F6081383E80700E2
:103AB0004FF00E030A98ADF8F8302946CDF8F4B06F
:103AC0000AF02CF80A99384606F010FE3346962282
:103AD000B0210B98CDF80090FFF70AF9C4F848A977
:103AE000A4F84C892846FFF715FB95E8070004F673
:103AF000541383E807000D230B98ADF8F8302946DE
:103B0000CDF8F4B00AF00AF80B99384606F0EEFD4D
:103B10003346CC220E210C98CDF80090FFF7E8F840
:103B2000C4F894A9A4F898892846FFF7F3FA95E811
:103B3000070004F51A6383E807004FF00C030C98A4
:103B4000ADF8F8302946CDF8F4B009F0E7FF0C994C
:103B5000384606F0CBFD3346CC2244210D98CDF8F3
:103B60000090FFF7C5F8C4F8E0A9A4F8E489284656
:103B7000FFF7D0FA95E8070004F6EC1383E8070096
:103B80000B230D98ADF8F8302946CDF8F4B009F0C4
:103B9000C5FF0D99384606F0A9FD3346CC227A219F
:103BA0000E98CDF80090FFF7A3F8C4F82CAAA4F85B
:103BB000308A2846FFF7AEFA95E8070004F6382366
:103BC00083E807004FF00A030E98ADF8F830294655
:103BD000CDF8F4B009F0A2FF0E99384606F086FD44
:103BE0003346CC22B0210F98CDF80090FFF780F833
:103BF000C4F878AAA4F87C8A2846FFF78BFA95E8DF
:103C0000070004F6842383E8070004F66453049352
:103C1000BB4B1B682BB9BB4BBB4A6021BB4820F098
:103C200057FBBB4B1B88022B03D8BA4BB64A61210A
:103C3000F4E7B94B0221186800F0E2FAB74A0346EC
:103C40000A21049810F0B0FA049B0F98C4F8903A37
:103C500029460923ADF8F830CDF8F4B009F05EFF3D
:103C60000F99384606F042FD33461098CDF8009083
:103C70004FF481720E21FFF73BF8C4F8C4AAA4F8F0
:103C8000C88A2846FFF746FA95E8070004F52D6331
:103C900083E807004FF008031098ADF8F830294684
:103CA000CDF8F4B009F03AFF1099384606F01EFD41
:103CB00033461198CDF800904FF481724421FFF7FC
:103CC00017F8C4F810ABA4F8148B2846FFF722FAB3
:103CD00095E8070004F61C3383E8070007231198D2
:103CE000ADF8F8302946CDF8F4B009F017FF119976
:103CF000384606F0FBFC33461298CDF800904FF49E
:103D000081727A21FEF7F4FFC4F85CABA4F8608BF3
:103D10002846FFF7FFF995E8070004F6683383E8C3
:103D2000070006231298ADF8F8302946CDF8F4B014
:103D300009F0F4FE1299384606F0D8FC3346139881
:103D4000CDF800904FF48172B021FEF7D1FFC4F896
:103D5000A8ABA4F8AC8B2846FFF7DCF995E8070080
:103D600004F6B43383E807004FF005031398ADF869
:103D7000F8302946CDF8F4B009F0D0FE1399384652
:103D800006F0B4FC0C221498009274233246782179
:103D9000FEF7AEFFC4F8F4ABA4F8F88B2846FFF7A3
:103DA000B9F995E8070004F5406383E807000423A8
:103DB0001498ADF8F8302946CDF8F4B009F0AEFE0D
:103DC0001499384606F092FC0C2215980092742340
:103DD0003E227821FEF78CFFC4F840ACA4F8448C56
:103DE0002846FFF797F995E8070004F64C4383E867
:103DF000070003231598ADF8F83029462126CDF8A1
:103E0000F4B009F08BFE1599384606F06FFC424677
:103E10004146009604F549605823FEF769FF4FF0CC
:103E20000503A4F8C03C3E4BC4F8C43C03F54C5316
:103E30003333C4F8C83CA3F5CC43663BC4F8CC3C50
:103E400003F1331303F54C531698C4F8D03CFFF735
:103E50006FF8179BC4F88C3C1698009658230822DC
:103E60008A21FEF745FF1699384606F03FFC029876
:103E70000E228F21FEF72FFF38AE4FF0FF3302994D
:103E8000C4F8043D3046A4F8088D09F09FFB96E87D
:103E90000700029BCDF8F4B03C3383E80700012310
:103EA0000298ADF8F830294609F038FE02993846F4
:103EB00006F01CFC0398A0224946FEF70CFF194BA4
:103EC0000399C4F84C3D3046A4F8508D09F07EFBB0
:103ED00096E80700039BCDF8F4B03C3383E8070075
:103EE0000398ADF8F880294609F018FE3846039982
:103EF00084F8418D06F0FAFB204641B0BDE8F08F12
:103F0000A0350120A35F0208A56002082060020816
:103F1000A435012067600208AC350120F06002087A
:103F2000996600FF0000EDFFCC66020870470000B4
:103F300030B5174D2C6814F001048FB0BFF35B8FC0
:103F400023D128461FF08AFAF8B13F230993114B79
:103F50000893114B07930223CDE905330122042373
:103F6000CDE9033228230D49009308223B23CDE9F4
:103F70000B44CDE901440A480A94FEF741FE094882
:103F800020F0C4F928461FF075FA05480FB030BD7F
:103F900014270020CC8D0208D88D0208F48A02086C
:103FA000182700202D3F00087047000030B5174D3E
:103FB0002C6814F001048FB0BFF35B8F22D1284628
:103FC0001FF04CFAF0B13F230993114B0893114BAA
:103FD00007930123CDE9054304930423CDE902436C
:103FE0000A230D49009316220C23CDE90B440B48FC
:103FF0000A940194FEF704FE094820F087F9284648
:104000001FF038FA05480FB030BD00BF442700202C
:10401000D08D0208DC8D0208648B0208482700203E
:10402000A93F00087047000030B5164D2C6814F009
:1040300001048FB0BFF35B8F21D128461FF00EFA29
:10404000E8B13F230993104B0893104B10491148D6
:104050000A94CDE9064301220423CDE90332142357
:1040600000931622CDE90B44CDE901440594FEF7F7
:10407000C7FD094820F04AF928461FF0FBF905481A
:104080000FB030BD74270020D48D0208E08D0208E7
:10409000988C0208782700202540000800207047EF
:1040A000002070470EB403B503AB002153F8042B76
:1040B00001930DF04FFC02B05DF804EB03B07047C4
:1040C0000CB407B504AB53F8042B01930DF042FC7C
:1040D00003B05DF804EB02B070470000436C10B50C
:1040E000044673B3038F2BB9184B194AC5211948DD
:1040F00020F0EEF8C38E00EB43035B8C0BB30FF0A4
:10410000AAFA238F012B03D8134B144ACB21EEE7D5
:10411000E28E531C9BB2092B194688BFA3F10A01FA
:1041200004EB410140F63F10498C814209D10A2B32
:1041300004EB420228BF002304EB4303508C588455
:1041400051842046BDE810400FF088B9F3600208A2
:10415000FC600208A7610208F1610208FF61020821
:104160000FF043B910B586B002AC84E806001A46D9
:104170000AAB05930193099B00932146089B0BF022
:10418000FFFE06B010BD000038B518BB124B134837
:104190001C681349B4B12268224402606268224458
:1041A0000A60A26814440F4B00221A8000F038F80D
:1041B000054600F033F80C4B1C600C4B1D600C4B9B
:1041C000188007E00B4B03600B4B0B600B4B1C681C
:1041D000002CE8D138BD00BFB0270020A827002060
:1041E000A4270020AC270020A0350120A8350120FD
:1041F000A4350120408E0208E48D0208948E020846
:10420000044B1B6853F82100034B1B6803EB400071
:10421000704700BFA4270020A82700201720704760
:1042200000487047B427002010B5FFF7FDFE044C8E
:104230002060FFF77DFE6060FFF7B8FEA06010BD54
:10424000B427002010B5002404600C6014601C60CA
:1042500010BD704710B54FF4AE7104461FF0FCF866
:10426000204610BD10B50446D0F8580100F013F8F0
:104270002046BDE810400CF067BB000010B50446B6
:10428000FEF734FC014B2360204610BDA0690208F4
:1042900000220260704770477047043870477047CB
:1042A00010B5102104461FF0D7F8204610BDA0F12C
:1042B0000400F5E700228260024A02601832426080
:1042C000C1607047F46902087047000010B5034BE5
:1042D00003600446FEF7CAFC204610BD1C6A0208B3
:1042E00010B50446FFF7F2FF2046F0211FF0B4F8A6
:1042F000204610BD10B50446FEF766FD014B236055
:10430000204610BD1C6A0208FEF7B1BC7047043895
:104310007047704710B5102104461FF09DF82046E5
:1043200010BDA0F10400F5E700228260024A02609D
:1043300018324260C1607047506A0208704700003E
:1043400010B5034B03600446FEF7EDFD204610BD9B
:10435000786A020810B50446FFF7F2FF204640F6DF
:10436000B4611FF079F8204610BD000010B5044676
:10437000FEF736FF064B23604022002104F68850EA
:1043800020F0CFF90023C4F8C83D204610BD00BF7F
:10439000786A0208402802462AD012DC082829D070
:1043A00007DC022828D0194B1948042A18BF1846E0
:1043B0007047102822D0154B1648202A18BF1846DF
:1043C0007047B0F5007F1BD008DC80281AD00F4B57
:1043D0001148B2F5807F18BF18467047B0F5806F5E
:1043E00012D00A4B0D48B2F5006F18BF184670473F
:1043F0000B4870470B4870470B4870470B48704795
:104400000B4870470B4870470B487047B4C1CDFF4D
:10441000C8E0EDFF5F7CF6FF61CCEDFF2EC2EDFF43
:104420003B5EF6FF79B1F2FFDAE4EEFF6395F5FF4C
:1044300050C8EDFF72CFEDFF3FC5EDFF10B586B060
:1044400001F0A8FA0023019302240B2201236946FC
:1044500001A8CDE90323059401F090FB18B101F008
:10446000ABFA06B010BD044B04491A682046D317B6
:1044700001F0D4FAF3E700BFD023002000000F08BA
:10448000034B1B685A1C034A08BF00231360704784
:1044900000000F08D023002070B50023A0B0044610
:1044A00000F684511D460846002250F8046F2EB9CC
:1044B00020AE06EBC50646E9203201350132042A5A
:1044C000F3D10133042B01F11001ECD1002D21DDDA
:1044D00000F054FE20AAB0FBF5F305FB130302EB3A
:1044E000C30353E9201202EB0215C1EB41132B4425
:1044F00043400A2002EB8102B3FBF0F3B3FBF0F57B
:1045000000FB1533002B02F2623214BF0223042396
:1045100044F8223020B070BD2DE9F0410022224E37
:1045200000F6885517464FF0000E00E0E6460EF103
:10453000010C634619016C5894B302EB8E0100EB39
:104540008101D1F8888DB8F1000F09D102EB830306
:1045500003F26233C1F8884DF44640F82380E5E762
:10456000444513D102EB830303F262336400C1F8C4
:10457000884D40F82370D0F8C83DD1F8881D0B4411
:104580003168C0F8C83D8B4200DD3360BCF1030FD9
:10459000CCD10132042A05F10405C4D1BDE8F08173
:1045A0000133042BC6D1F1E7D02300202DE9F041DF
:1045B0000022224E00F6885517464FF0030E00E009
:1045C000E6460EF1FF3C634619016C5894B302EBCA
:1045D0008E0100EB8101D1F8888DB8F1000F09D16F
:1045E00002EB830303F26233C1F8884DF44640F8CE
:1045F0002380E5E7444513D102EB830303F26233E2
:104600006400C1F8884D40F82370D0F8C83DD1F857
:10461000881D0B443168C0F8C83D8B4200DD336013
:10462000BCF1000FCCD10132042A05F10405C4D13C
:10463000BDE8F081013BC7D2F2E700BFD0230020E4
:104640002DE9F0430024224F00F68856A4464FF08F
:104650000008A50000E0F04608F1010E734656F888
:10466000231081B305EB080200EB8202D2F8889D8B
:10467000B9F1000F08D12B4403F26233C2F8881D50
:10468000C64640F82390E6E7494512D12B4403F291
:1046900062334900C2F8881D40F823C0D0F8C83DF5
:1046A000D2F8882D13443A68C0F8C83D934200DD23
:1046B0003B60BEF1030FCED10134042C06F110068D
:1046C000C5D1BDE8F0830133042BC8D1F1E700BFA9
:1046D000D02300202DE9F0430024214F00F6885616
:1046E000A4464FF00308A50000E0F04608F1FF3EA5
:1046F000734656F8231081B305EB080200EB8202E3
:10470000D2F8889DB9F1000F08D12B4403F262332F
:10471000C2F8881DC64640F82390E6E7494512D105
:104720002B4403F262334900C2F8881D40F823C0CD
:10473000D0F8C83DD2F8882D13443A68C0F8C83D77
:10474000934200DD3B60BEF1000FCED10134042C5A
:1047500006F11006C5D1BDE8F083013BC9D2F2E7EE
:10476000D023002000F6945238B500F6D4551446F4
:10477000A4F1100151F8043FF3B1A142FAD101F1C3
:104780001004AC42F4D10021A2F10C03032903D0A0
:104790001D681C69A5420FD0934208D1013104293C
:1047A00003F11002F0D1FFF749FE012038BD1D686A
:1047B00053F8044FA542E9D10020F7E738B50C4C77
:1047C0000C4BB3FBF1F1236815464A1E4908DA6227
:1047D000204699630421E26003F00EFC284600F0B5
:1047E000D3FC20460421BDE8384003F045BC00BF9F
:1047F0005024002040420F0070B50C4D06460FCDEE
:1048000086B001AC0FC42B68236001AD002455F8BD
:10481000041B78223046FFF7D1FF0134322000F02C
:10482000B3FC052CF3D106B070BD00BFB85602082A
:104830002DE9F84F044600F68C65D0F8C83D904A43
:10484000DFF83CB20A2128460FF0AEFCC4F80C5C3D
:1048500004F6C4300DF0A8F98A4B894A1B6804F5A8
:104860006A650A2128460FF09FFCC4F8585C04F5DD
:1048700041600DF099F904F694594FF0000804F6E0
:10488000CC5AA9F11006474656F8043F0C2000FB0D
:1048900007A0A3B97C4A06210FF086FC3068FFF719
:1048A00079FD7B1E05460E2B0ED8DFE803F026337C
:1048B000404D5A6774818E9BA8B5C2CFDC005A4622
:1048C00006210FF071FCE9E704F20470C4F84CA76C
:1048D0000DF06AF9C4F8985404F58E600DF064F98F
:1048E0004E4507F10107CFD108F10408B8F1100FC8
:1048F00006F11009C5D1BDE8F88F04F6D85304F5C8
:10490000EA60C4F898370DF04FF9C4F8C45404F2C3
:104910009C40E3E704F6E45304F29C70C4F8E437E7
:104920000DF042F9C4F8F05404F59960D6E704F5A7
:104930005F6304F5FD60C4F830380DF035F9C4F854
:104940001C5504F2F440C9E704F6FC5304F63400A5
:10495000C4F87C380DF028F9C4F8485504F5A46073
:10496000BCE704F6086304F50860C4F8C8380DF025
:104970001BF9C4F8745504F24C50AFE704F6146305
:1049800004F6CC00C4F814390DF00EF9C4F8A055A3
:1049900004F5AF60A2E704F5626304F61810C4F8EA
:1049A00060390DF001F9C4F8CC5504F2A45095E734
:1049B00004F62C6304F66410C4F8AC390DF0F4F876
:1049C000C4F80C5304F5397088E704F6386304F52D
:1049D0001B60C4F8F8390DF0E7F8C4F8005704F587
:1049E000DB607BE704F6446304F6FC10C4F8443A49
:1049F0000DF0DAF8C4F8F85504F5BA606EE704F57E
:104A0000656304F64820C4F8903A0DF0CDF8C4F878
:104A1000245604F2FC5061E704F65C6304F694202B
:104A2000C4F8DC3A0DF0C0F8C4F8505604F5C5607F
:104A300054E704F6686304F52E60C4F8283B0DF0D3
:104A4000B3F8C4F87C5604F2546047E704F6746384
:104A500004F62C30C4F8743B0DF0A6F8C4F8A85640
:104A600004F5D0603AE704F5686304F67830C4F8DA
:104A7000C03B0DF099F8C4F8D45604F2AC602DE7B1
:104A8000D1620208D0230020C35B020810B5402287
:104A90000446002100F688501FF043FE0023C4F8AE
:104AA000C83D84F8413D04F61C500DF07DF82046C9
:104AB000FFF7F2FC082000F067FB2046FFF7ECFC54
:104AC0002046BDE81040FFF7B3BE10B50446FEF720
:104AD0002BFA2046FFF7D4FCBDE81040FFF7D6BF05
:104AE000134BD0F8C82D196810B58A420446C8BFC8
:104AF0001A60FFF7A3FC64224FF416712046FFF7FB
:104B00005DFE1E2000F040FB64224FF448712046F9
:104B1000FFF754FE1E2000F037FB204696224FF48C
:104B20007A71FFF74BFE2046BDE81040FFF7AEBF9D
:104B3000D023002037B5264D0446286803F07EFEBA
:104B400020B34FF0FF33286800220DF1070103F076
:104B500045FE9DF80730522B33D019D8442B22D074
:104B60004C2B27D02046FFF797FC2046FFF760FE2E
:104B70002046FFF7F7FD48B1012304F61C5084F8E6
:104B8000413D0DF011F82046FFF736FE03B030BD71
:104B9000552BE7D12046FFF7BFFC32224FF4487176
:104BA000FFF70CFEDEE72046FFF700FD32224FF450
:104BB0002F71F5E72046FFF743FD32224FF41671BF
:104BC000EEE72046FFF786FD32224FF4FA71E7E761
:104BD000C0230020F02070474FF4A07070472920B8
:104BE000FDF7DAB82820FDF7D7B808B5FDF7A8F823
:104BF000CA20FDF7D1F8C320FDF7B2F80820FDF771
:104C0000AFF85020FDF7ACF8CF20FDF7C5F8002035
:104C1000FDF7A6F8C120FDF7A3F83020FDF7A0F8B6
:104C2000ED20FDF7B9F86420FDF79AF80320FDF7B1
:104C300097F81220FDF794F88120FDF791F8E8200D
:104C4000FDF7AAF88520FDF78BF80020FDF788F81E
:104C50007820FDF785F8CB20FDF79EF83920FDF789
:104C60007FF82C20FDF77CF80020FDF779F8342040
:104C7000FDF776F80220FDF773F8F720FDF78CF8C2
:104C80002020FDF76DF8EA20FDF786F80020FDF7FB
:104C900067F80020FDF764F8B120FDF77DF80020EB
:104CA000FDF75EF81B20FDF75BF8B620FDF774F802
:104CB0000A20FDF755F8A220FDF752F8C020FDF7B5
:104CC0006BF81020FDF74CF8C120FDF765F81020B7
:104CD000FDF746F8C520FDF75FF84520FDF740F8E1
:104CE0001520FDF73DF8C720FDF756F89020FDF799
:104CF00037F83620FDF750F8C820FDF731F8F220DC
:104D0000FDF74AF80020FDF72BF8B020FDF744F836
:104D1000C220FDF725F8B620FDF73EF80A20FDF782
:104D20001FF8A720FDF71CF82720FDF719F804202D
:104D3000FDF716F82A20FDF72FF80020FDF710F8F0
:104D40000020FDF70DF80020FDF70AF8EF20FDF731
:104D500007F82B20FDF720F80020FDF701F80020D0
:104D6000FCF7FEFF0120FCF7FBFF3F20FCF7F8FFFC
:104D7000F620FDF711F80120FCF7F2FF0020FCF708
:104D8000EFFF0620FCF7ECFF2C20FDF705F8C8200C
:104D9000FDF750F82620FCF7FFFF0120FCF7E0FFAD
:104DA000E020FCF7F9FF0F20FCF7DAFF2920FCF7E1
:104DB000D7FF2420FCF7D4FF0C20FCF7D1FF0E20F6
:104DC000FCF7CEFF0920FCF7CBFF4E20FCF7C8FF15
:104DD0007820FCF7C5FF3C20FCF7C2FF0920FCF758
:104DE000BFFF1320FCF7BCFF0520FCF7B9FF17201D
:104DF000FCF7B6FF1120FCF7B3FF0020FCF7B0FF73
:104E0000E120FCF7C9FF0020FCF7AAFF1620FCF701
:104E1000A7FF1B20FCF7A4FF0420FCF7A1FF112033
:104E2000FCF79EFF0720FCF79BFF3120FCF798FF63
:104E30003320FCF795FF4220FCF792FF0520FCF79A
:104E40008FFF0C20FCF78CFF0A20FCF789FF28203D
:104E5000FCF786FF2F20FCF783FF0F20FCF780FF75
:104E60001120FCF799FFC820FCF7E4FF2920FCF78C
:104E700093FFBDE808402C20FCF78EBF08B5FCF777
:104E80005FFF0321D320FCF7A3FF80B208BD10B55C
:104E9000C4B2022203212046FCF708FF0A20FCF7D7
:104EA0004DFF204600220321FCF700FFBDE8104023
:104EB0000220FCF743BF38B50446E4B2FCF7F4FE29
:104EC00000212046FCF70AFF012105462046FCF799
:104ED00005FF40EA052080B238BD10B5C4B24021BC
:104EE0002046FCF7FBFE030607D54C212046FCF7C5
:104EF000F5FE003818BF012010BD01224B212046CD
:104F0000FCF7D4FE204600224B21FCF7CFFE002008
:104F1000F2E773B50423C4B20E461546D7210DEB54
:104F200003022046FCF7F4FE019B1BBA1A0DC3F3E3
:104F30000B23328020462B8001224B21FCF7B6FE4A
:104F400000224B212046FCF7B1FE02B070BD0000EC
:104F500010B50A4A1378984204460DD05178884219
:104F60000AD00BB141B90123D454FCF79DFE204671
:104F7000BDE81040FFF78BBF10BD00BFC027002069
:104F800010B5C4B209212046FCF7A8FE40F001028A
:104F9000D2B220460921BDE81040FCF787BE10B50B
:104FA000C4B209212046FCF799FE092100F0FE0257
:104FB0002046BDE81040FCF779BE38B5C4B20D46B6
:104FC00020460A21FCF78AFE40EA0502D2B22046BA
:104FD0000A21BDE83840FCF769BE10B50446FCF76D
:104FE00064FE20461F21FFF7E8FF2046BDE8104081
:104FF000FFF7C6BF38B5C4B20D4620460A21FCF7FC
:105000006DFE20EA0502D2B220460A21BDE83840F2
:10501000FCF74CBE10B50446FFF7C1FF20461F2128
:10502000BDE81040FFF7E6BF10B5C0B20C460B213B
:10503000FCF754FE204010BD1F21FFF7F5BF0A46C4
:10504000C0B20B21FCF732BE1F21FFF7F8BF38B505
:10505000C4B20D4620461721FCF740FE20EA0502A7
:10506000D2B220461721BDE83840FCF71FBE70B50C
:10507000C4B2064604212046FCF730FE042100F0AD
:10508000FB0205462046FCF711FE3046F021FFF7F3
:10509000DEFF05F0F80220460421FCF707FE492256
:1050A00020212046FCF702FE0220FCF747FE2046A6
:1050B00001222121FCF7FAFD20469A224121FCF72A
:1050C000F5FD204601224A21FCF7F0FD2046012291
:1050D0004B21FCF7EBFD204600224B21FCF7E6FDBF
:1050E000204601225621FCF7E1FD204601225821ED
:1050F000FCF7DCFD204601224021FCF7D7FD2046CD
:10510000FF220B21FCF7D2FDBDE870400220FCF726
:1051100015BE0000054BD3F8882042F47002C3F896
:1051200088204FF000629A60704700BF00ED00E0F9
:1051300008B50B4B1A6842F400721A601A6842F400
:1051400080621A601A6842F480721A60032000F0CC
:1051500045FA0020FDF7FAF9FCF7F4FE002008BD3F
:10516000003C0240034A044B11681B780B44136057
:10517000704700BFC427002078000020014B18684A
:10518000704700BFC427002038B50446FFF7F6FF7C
:10519000631C1CBF054B1B78054618BFE418FFF7BE
:1051A000EDFF431BA342FAD338BD00BF78000020B7
:1051B00038B50446002800F09B80056C25B9FCF743
:1051C000E1FE656484F83C50236CDB0600F18E80C0
:1051D000236C23F4885323F0020343F00203236477
:1051E000444B5A6822F440325A605A6861680A4354
:1051F0005A60236821695A6822F480725A605A689A
:1052000042EA01225A605A68A16822F040725A604C
:105210005A680A435A609A68E16822F400629A6008
:105220009A680A439A603449A26A8A4252D09968BD
:1052300021F07061996099680A439A609A68E16AFE
:1052400022F040529A609A680A439A609A6822F063
:1052500002029A609A68217E42EA41029A6094F8BA
:105260002020002A3ED05A68616A42F400625A60E7
:105270005A6822F460425A605A68013942EA41325F
:105280005A60DA6AE16922F47002DA62DA6A013994
:1052900042EA0152DA629A6822F400729A609A68CD
:1052A00094F8301042EA41229A609A68616922F4C7
:1052B00080629A609A68002042EA81229A60606463
:1052C000236C23F0030343F001032364002384F8D9
:1052D0003C3038BD9A6822F070629A609A6822F079
:1052E0004052B2E75A6822F40062C9E70120EDE7B4
:1052F0000120EEE7002301400100000F82B00023EF
:10530000019390F83C30012B69D0012380F83C30A8
:1053100003689A68D2070BD59A68D1071AD4036C30
:1053200043F010030364436C43F0010343644CE017
:105330009A682C4942F001029A602B4A1268B2FB2B
:10534000F1F202EB42020192019A002AE4D0019AA2
:10535000013AF8E7026C22F4E06222F0010242F422
:10536000807202645A68520541BF026C22F44052B6
:1053700042F480520264026C12F480521CBF426CF0
:1053800022F006024264002280F83C206FF02202E4
:105390001A60164A516811F01F0F15491CD18B4233
:1053A00007D001F580718B420CD1526812F01F0FAB
:1053B0000BD19A6812F0405F07D19A6842F08042A0
:1053C0009A6002E00B498B4202D0002002B0704785
:1053D000526812F0100FEBE78B42F6D1E9E702209A
:1053E000F4E700BF40420F0074000020002301409A
:1053F000002001400022014003689A68520570B500
:1054000004460D460BD59B68DE0508D5036C43F0BA
:1054100020030364002380F83C30012070BDFFF7B7
:10542000ADFE064623681A6891070CD56FF012028C
:105430001A60226C42F4007222649A6812F0405F93
:1054400017D00020EAE7681CEDD065B923681B6817
:1054500013F00203E6D1226C84F83C3042F00402DF
:1054600022640320DAE7FFF789FE801BA842EDD80B
:10547000D8E7227E002AE4D1DA6A12F4700F02D053
:105480009B685A05DDD4236C23F480732364236C5A
:10549000DB04D6D4236C43F001032364D1E7036813
:1054A000D86C7047F7B50023019390F83C30012B7E
:1054B000054600F08680012380F83C3008682B68A0
:1054C0008E68092884B233D904EB4402DF681E3A9F
:1054D0004FF0070C0CFA02FC27EA0C07DF60DF68CC
:1054E00006FA02F23A43DA604968062901EB8102C2
:1054F0002DD8596B053A1F26964021EA06015963BB
:10550000596B04FA02F20A435A632F4A93420AD1B2
:10551000122837D12D4B5A6822F400025A605A687B
:1055200042F480025A60002085F83C0003B0F0BDD0
:105530001A6900EB400C072707FA0CF722EA07026A
:105540001A611A6906FA0CF616431E61CCE70C299B
:105550004FF01F010BD81E6B233A914026EA010140
:105560001963196B04FA02F20A431A63CDE7DE6A83
:10557000413A914026EA0101D962D96A94400C432C
:10558000DC62C2E7124B984201D01128CBD10F4BFD
:105590005A6822F480025A605A6842F400025A6043
:1055A0000B4B9842BFD10B4B0B4A1B68B3FBF2F37A
:1055B0000A2253430193019B002BB4D0019B013B72
:1055C000F8E70220B2E700BF0020014000230140BD
:1055D000120000107400002040420F000749CA6802
:1055E00022F4E0620302120403F4E063120C13439A
:1055F00043F0BF6343F40033CB60704700ED00E03D
:10560000164B30B5DC68C4F30224C4F10703251D32
:10561000042B28BF0423062D4FF0FF358CBF033C1D
:10562000002405FA03F321EA0303A54022EA050258
:10563000A340002843EA0203ACBF00F16040084ADF
:105640004FEA0313B8BF00F00F00DBB2AABF00F5AA
:105650006140135480F8003330BD00BF00ED00E01E
:1056600014ED00E0002807DB044A4109012300F0A3
:105670001F00834042F82130704700BF00E100E086
:1056800010B5044650B1437903F0FF0213B902711B
:10569000FCF7D0FC01236371002010BD0120FCE762
:1056A00010B5044620B390F8393003F0FF021BB95F
:1056B00080F83820FCF7D6FC022384F839302368C0
:1056C00061681A6822F440320A431A605A6BA16872
:1056D00022F007020A435A631A6CE1686FF30D0265
:1056E0000A431A6400200123E06384F8393010BDB6
:1056F0000120FCE770477047036870B55E681D685D
:10570000F207044614D5E90512D51A6822F480720E
:105710001A60C26B42F00102C26301229A60042344
:1057200080F83930002380F83830436903B1984756
:10573000B20616D5AB0414D523681A6822F40052B9
:105740001A6020229A60E36B43F00203E3630423B0
:1057500084F83930002384F8383063690BB120466F
:105760009847300716D5290514D523681A6822F4FE
:1057700000621A6008229A60E36B43F00403E3635B
:10578000042384F83930002384F8383063690BB17E
:105790002046984772070BD56B0509D523681A6810
:1057A00022F480621A6004229A602046FFF7A2FF6A
:1057B000B00714D5A90512D523681A6822F400721F
:1057C0001A6002229A60E36BE363012384F83930A4
:1057D000002384F8383023690BB120469847F2063D
:1057E00013D5EB0411D523681A6822F480521A608D
:1057F00010229A60E36BE363012384F839300023BD
:1058000084F838302046FFF776FF70BDF0B590F889
:105810003820012A03464FF002002BD0012283F8E2
:10582000382083F8390003EB0112D2E90740556AAA
:10583000174F44EA0040093C012C9CBF05F07F4211
:1058400010434FEA01161A6888BF40EA056091B913
:10585000516A394001435162012C9969916103D821
:10586000596A21F07F4191620122002083F839209A
:1058700083F83800F0BDD16939400143D1619919ED
:10588000012C896911619CBF25F07F451562EBE70A
:10589000F0FFFC00094910B50C6924F440740C6158
:1058A0000C6944F440740C610C6944F001040C610F
:1058B0000260BFF36F8F436010BD00BF003C024029
:1058C000074B1A6922F440721A611A6942F4007295
:1058D0001A611A6942F001021A610160704700BF43
:1058E000003C0240074B1A6922F440721A611A699F
:1058F00042F480721A611A6942F001021A61018051
:10590000704700BF003C0240204BDA68D00606D545
:105910001F49CA6942F01002CA611022DA60DA68CF
:10592000910606D51A49CA6942F00802CA612022C6
:10593000DA60164BDA68520606D51549CA6942F094
:105940000402CA614022DA60DA68100606D51049FE
:10595000CA6942F00202CA618022DA600B4BDA683F
:10596000D10507D50A49CA6942F00102CA614FF45C
:105970008072DA60DA68920706D50549CA6942F092
:105980002002CA610222DA60704700BF003C024078
:10599000C8270020064B1A69002ABFBF054A5A6073
:1059A00002F188325A60BABF1869C00F00207047F0
:1059B000003C024023016745034A136943F000435A
:1059C00013610020704700BF003C0240114B70B5CE
:1059D00000220446DA61FFF7D1FB0F4D0646EB6863
:1059E000DA030CD4EB68DB0744BF0123EB60E86803
:1059F00010F4F97007D0FFF787FF012003E0611C66
:105A0000EDD00CB9032070BDFFF7B8FB801BA0429E
:105A1000E5D9F7E7C8270020003C02402DE9F04116
:105A20001F4E9846337E012B07460D46144635D04F
:105A300001234CF250303376FFF7C8FFB0B9CFB92D
:105A4000184B1A6922F440721A611A691A611A69AC
:105A5000E4B242F001021A612C704CF25030FFF7B0
:105A6000B5FF104A136923F0010313610023337655
:105A7000BDE8F081012F04D1A1B22846FFF732FF23
:105A8000EBE7022F04D121462846FFF719FFE4E790
:105A9000224643462846FFF7FDFEDEE70220E7E701
:105AA000C8270020003C02400C4B1A6922F44072C7
:105AB0001A6103291A690BD142F4004242F0040230
:105AC0001A611A6942EA002040F480301861704778
:105AD0000129F3D042F40042F2E700BF003C02404B
