:020000040800F2
:10000000000003205D060008592200085B2200085A
:100010005D2200085F220008612200080000000045
:100020000000000000000000000000005170000807
:100030006322000800000000E17000085D6900080C
:10004000AD060008AD060008AD060008AD060008C4
:10005000AD060008AD060008AD060008AD060008B4
:10006000AD060008AD060008AD060008AD060008A4
:10007000AD060008AD060008AD060008AD06000894
:10008000AD060008AD060008AD060008AD06000884
:10009000AD060008AD060008AD060008AD06000874
:1000A000AD060008AD060008AD060008AD06000864
:1000B000AD060008AD060008AD060008AD06000854
:1000C000AD060008AD060008AD060008AD06000844
:1000D000AD060008AD060008AD060008AD06000834
:1000E000AD060008AD060008AD060008AD06000824
:1000F000AD060008AD060008AD060008AD06000814
:10010000AD060008AD060008AD060008AD06000803
:10011000AD060008AD06000865220008AD0600081F
:10012000AD060008AD060008AD060008AD060008E3
:10013000AD060008AD060008AD060008AD060008D3
:10014000AD060008AD060008AD060008AD060008C3
:10015000AD060008AD060008AD060008AD060008B3
:10016000AD060008AD060008AD060008AD060008A3
:10017000AD060008AD060008AD060008000000004E
:10018000AD060008AD060008AD060008AD06000883
:10019000AD060008AD060008AD060008AD06000873
:0C01A00071220008AD0600087D22000856
:1001B00010B5054C237833B9044B13B10448AFF3A1
:1001C00000800123237010BD800300200000000088
:1001D000CC37020808B5034B1BB103490348AFF302
:1001E000008008BD0000000084030020CC37020816
:1001F00001F0FF01102A2BDB10F0070F08D010F8D8
:10020000013B013A8B422DD010F0070F42B3F6D1DB
:10021000F0B441EA012141EA014122F007047FF0F4
:1002200000070023F0E80256083C85EA010586EA4B
:10023000010685FA47F5A3FA87F586FA47F6A5FA87
:1002400087F68EB9EED1F0BC01F0FF0102F0070293
:1002500032B110F8013B013A83EA010313B1F8D13E
:100260000020704701387047002D06BF354603381F
:10027000073815F0010F07D1013015F4807F02BF58
:10028000013015F4C03F0130F0BC0138704700BFA9
:100290007BB972B90029BEBF00204FF0004106E0D3
:1002A00008BF00281CBF6FF000414FF0FF3000F086
:1002B000D3B9ADF1080C6DE904CE002909DB002BA0
:1002C0001ADB00F04DF8DDF804E0DDE9022304B0AC
:1002D0007047404261EB4101002B1BDB00F040F80E
:1002E000DDF804E0DDE9022304B0404261EB4101A6
:1002F000524263EB43037047524263EB430300F007
:100300002FF8DDF804E0DDE9022304B0404261EBA0
:1003100041017047524263EB430300F021F8DDF8DE
:1003200004E0DDE9022304B0524263EB430370476B
:1003300053B94AB9002908BF00281CBF4FF0FF314C
:100340004FF0FF3000F088B9ADF1080C6DE904CE34
:1003500000F006F8DDF804E0DDE9022304B07047A0
:100360002DE9F047089D8E4604468846002B4AD169
:100370008A42174662D9B2FA82F64EB1C6F120031C
:1003800001FA06F820FA03F3B74043EA0808B4403C
:100390004FEA174E1FFA87FCB8FBFEF1230C0EFB49
:1003A000118843EA084301FB0CF29A4209D9FB1871
:1003B00001F1FF3080F0EA809A4240F2E780023992
:1003C0003B449A1AA3B2B2FBFEF00EFB102243EAA2
:1003D000024300FB0CFC9C4509D9FB1800F1FF32DD
:1003E00080F0D6809C4540F2D3803B44023840EAFE
:1003F0000140A3EB0C0300211DB1F3400022C5E92D
:100400000032BDE8F0878B4205D90DB1C5E9000186
:1004100000210846F5E7B3FA83F1002946D1734578
:1004200002D3824200F20581841A6EEB030201209E
:100430009046002DE5D0C5E90048E2E7002A00F02B
:100440009080B2FA82F6002E40F0A4808A1A030C43
:100450004FEA174E80B2BCB20121B2FBFEFC0EFB8C
:100460001C2243EA024304FB0CF29A4207D9FB1810
:100470000CF1FF3802D29A4200F2E080C4469B1A87
:10048000B3FBFEF20EFB123340EA034302FB04F41B
:100490009C4207D9FB1802F1FF3002D29C4200F2C5
:1004A000CA8002461B1B42EA0C40A5E7C1F12006A8
:1004B0008B4022FA06F71F430EFA01F420FA06F3E6
:1004C0002EFA06FE4FEA1749234300FA01F81FFAF5
:1004D00087FCBEFBF9F01C0C09FB10EE44EA0E444D
:1004E00000FB0CFEA64502FA01F209D93C1900F105
:1004F000FF3A80F09C80A64540F2998002383C4447
:10050000A4EB0E041FFA83FEB4FBF9F309FB1344BA
:100510004EEA044403FB0CFCA44508D93C1903F142
:10052000FF3E80F08280A4457FD9023B3C4443EAF1
:100530000040A4EB0C04A0FB02EC64457346E146CA
:1005400062D35FD05DB1B8EB030264EB090404FA37
:1005500006F622FA01F31E43CC40C5E900640021EF
:100560004FE7B1FBF2FC010C41EA0E4180B240EAD8
:1005700001423B4638463C46B846BE462026B1FBC3
:10058000F7F1A2EB080241EA0C4166E7014618E7E1
:1005900010462CE7C6F120022EFA02F3B740B14014
:1005A00020FA02F24FEA174E0A43B3FBFEF8BCB240
:1005B0000EFB1833110C41EA034108FB04F9B0406B
:1005C00089454FEA104380B23ED9791808F1FF3CC3
:1005D00001D289451FD8A1EB0901B1FBFEF909FB46
:1005E00004F80EFB191192B242EA0142424529D2A7
:1005F000BA1809F1FF31C4D24245C2D2A9F10201B1
:100600003A44BEE7F0459DD2BEEB02036CEB070C0B
:100610000138E14696E7A7EB09094944A8F1020C25
:10062000B1FBFEF909FB04F8DBE773467FE75046B0
:1006300066E70846FDE63B44023A33E7ACF1020CBC
:100640003B441CE749469CE7A1EB0901C446B1FBCA
:10065000FEF909FB04F8C4E7704700BFDFF834D0A7
:10066000002103E00C4B5B58435004310B480C4B0A
:1006700042189A42F6D30B4A02E0002342F8043BA8
:10068000094B9A42F9D303F0EBFE22F031FB01F063
:100690007DF87047000003204CDA030800000020BA
:1006A00064010020800300203C3F0120FEE77047EA
:1006B00008B500F0BBFDBDE8084000F03FBD00F00C
:1006C000B7BD704710B50421044621F025F9204636
:1006D00010BD000038B50C4B0C4C18800C4B822020
:1006E00019806368984740F6110398420AD1094D72
:1006F00023682C60822098472B688220DB6898470B
:10070000002038BD0120FCE7A60300204C0000209B
:10071000A4030020A80300204FF4A071F020FFF7ED
:10072000D9BF0000F7B5394D2B6804461B698220FC
:100730009847208000284ED02B680DF106025B6997
:1007400001A982209847324B1B78002B4BD0BDF873
:10075000062040F674639A423FD9ADF80630BDF8E2
:1007600006209B1A9BB20A2B42D90B22B3FBF2F351
:10077000284A1288934201D9013A93B2BDF8042065
:10078000254840F6B8318A4234D8C2F571620E323B
:10079000016892B20F25B2FBF5F2204D2D88AA42D6
:1007A00084BF05F1FF35AAB28A4215468EB22AD916
:1007B000921B91B21A4E3768BB42BAB28CBF9A1ADA
:1007C000D21A92B211440529C4BF05603360036890
:1007D00063803368A38003B0F0BDB32A9CBFB4220A
:1007E000ADF80620BBE7BDF80630A3F5B473B9E752
:1007F0000023C3E7C2F56D62083292B20E2A016887
:10080000C8D800252A46891A89B2D3E7A803002050
:10081000BC210020A4030020A0030020A603002088
:100820009C03002037B568460D461446FFF77AFF53
:10083000BDF8000030B1BDF802302B60BDF80430C7
:100840002360012003B030BD032821D8DFE800F089
:10085000020B12190F4B1A68B2FA82F252090421E4
:100860000D4804F091B80B4B5A68B2FA82F2520963
:100870000821F5E7074B9A68B2FA82F25209102173
:10088000EEE7044BDA68B2FA82F252092021E7E778
:10089000704700BFAC03002000100240032821D89D
:1008A000DFE800F0020B12190F4B1A68003A18BF6C
:1008B000012204210D4804F067B80B4B5A68003A36
:1008C00018BF01220821F5E7074B9A68003A18BFC4
:1008D00001221021EEE7044BDA68003A18BF01222A
:1008E0002021E7E7704700BFAC0300200010024062
:1008F00003280DD8DFE800F00206080A04210548A5
:1009000004F047B80821FAE71021F8E72021F6E7BC
:10091000704700BF0010024008B5032811D8DFE877
:1009200000F0020A0C0E0421074804F027F8431EC9
:100930005842584108BD0821F6E71021F4E720216C
:10094000F2E70020F3E700BF0010024070B5084D49
:1009500000240126E0B2FFF7DFFF18B12B68012B5E
:1009600018BF2E600134052C05F10405F2D170BDCD
:10097000AC030020012380F8781080F879307047AC
:100980007047002070470000034B4164003918BFD6
:1009900001211970704700BFFB3101207047002012
:1009A0007047836B0BB10846184770474FF6FF70CE
:1009B0007047406803689B691847704770477047E5
:1009C0007047704710B5044600F048FD236803499E
:1009D000D3F890302046BDE810401847000000D002
:1009E00008B503680446D3F8843098472368204646
:1009F000DB6F984700F0ECF8236820465B6F984760
:100A0000292001F049F900F0E3F8236820465B6FE4
:100A10009847F8E710B5044609F030F923682046F6
:100A2000D3F8BC30BDE81040184700F0FBBC00F024
:100A3000FFBC00F031BD00F0D1BC00F041BD00F0C2
:100A400049BD00F0D5BC08F047BB10B58421044671
:100A500020F062FF204610BD10B590F8341090F8D9
:100A600078400C4B8C421A7809D03AB90A4A0B49A3
:100A70001488088810800C8001221A7010BD002A8A
:100A8000FCD0054A05491488088810800C80002293
:100A9000F3E700BFF4310120F0310120F2310120F1
:100AA00070B50D46194635B9094B0A4A0A4840F255
:100AB000FF2121F06DFEC0E90F52084B003A18BF2C
:100AC00001221A700368BDE87040D3F890301847CF
:100AD0003C38020874380208C2380208FA31012092
:100AE00008B5094B1B888B4203D8084B1B889342DF
:100AF00005D9074B074A0848A32121F049FE074BB7
:100B00001980074B1A8008BDF0310120F231012015
:100B1000073902086A390208C2380208F631012092
:100B2000F8310120034690F87A0018B1586803683C
:100B30001B68184770470000012108B500220846CD
:100B400005F096FF0A4B186028B90A4B0A4A28217B
:100B50000A4821F01DFE00220421012006F030F891
:100B6000074B186018B9074B034A2C21F0E708BD62
:100B7000C0030020AD390208F6390208253A020800
:100B8000BC0300205E3A0208024B4FF0FF311868A8
:100B900005F0B8BFC0030020014B186805F0DEBFA8
:100BA000C0030020024B0021186805F0ABBF00BF56
:100BB000C0030020FFF7F0BF03480449006800238A
:100BC0001A4606F038B800BFBC030020040000201D
:100BD00013B5084C00231A4601A9206806F05CF8FA
:100BE00020684FF0FF33002201A906F055F802B04B
:100BF00010BD00BFBC03002003685B6C18470120D8
:100C0000704703689B6A1847FEE740F2EF30704771
:100C1000054B0360054B4FF08062C3F88820BFF39B
:100C20004F8FBFF36F8F70476045020800E100E00F
:100C300010B504464FF45A61FFF7EAFF204620F052
:100C40006BFE204610BD000082B0002301930E4BC6
:100C50001A6B42F400021A631A6B02F4000201924A
:100C6000019A1A6942F400021A611A6922F4000218
:100C70001A61064B064A1A61064A5A61064B4FF042
:100C800080629A6002B07047003802405023002012
:100C9000E90E0008090C000800E100E008B50A2888
:100CA00009D8DFE800F006100E0808080810101038
:100CB0001000022008BD054B054A0648902121F08E
:100CC00067FD0020F6E70120F4E700BFA03A020824
:100CD000BB3A0208063B020838B50C46887FFFF78E
:100CE000DDFFA58AE28A164B2169586342EA054274
:100CF0005A64628BD963521B1A642568082D0ED181
:100D00009A611A615862207F0E4A42EA0062DA61F3
:100D1000E2681A620C4A5961D9601A6038BD002233
:100D2000D8611A61E1680A0A480902F4784200F4BD
:100D3000FC600243C1F3C4010A439A63034AECE72F
:100D400000B002400900010001230200012303005A
:100D500008B50B280BD8DFE800F00612100A0A0AC3
:100D60000A0808080808022008BD0520FCE7054B12
:100D7000054A06486F2121F00BFD0020F4E7012011
:100D8000F2E700BFA03A02083D3B0208063B02081A
:100D90002DE9F04191F81D800C464046FFF7D8FF41
:100DA000A77F05463846FFF7D3FF06463846FFF7CC
:100DB00075FFA18A628B444B521A1A649A61228B86
:100DC000521A1A61E28A586342EA01425A6421695E
:100DD0006268D963DA602068802828D0227F0FD823
:100DE000202867D0402865D004281AD0364B45EA21
:100DF000026545F40035B845DD6161D0334A44E011
:100E0000B0F5807F04D0B0F5007FEFD1304800E02E
:100E1000304840EA0262DA61E2681A625E62596151
:100E200032E045EA026242F40032DA61F6E7A06895
:100E3000021DDA62227F45EA026545F40035DD6174
:100E40005E625961017841B1012921D0224B234AC8
:100E500023484FF48D7121F09BFCDA69418822F41C
:100E60007F42013922F0100242EA0122DA610121B7
:100E7000154BDA6942F02002DA61DA699206FCD495
:100E800010229A600029B9D0164A1A60BDE8F08194
:100E9000B2F1FF01DA69408822F47F4200F1FF30AD
:100EA00022F0100242EA002242F0100218BF012193
:100EB000DA61DDE745EA0262034B42F40032B4E74F
:100EC00042F20132E1E700BF00B00240012301001D
:100ED000090002000A000200873B0208A13B020849
:100EE000063B020801230200024B1B685868036896
:100EF0005B691847FC31012070B5044625460A4B52
:100F00000C30002660602672667245F8203B602235
:100F1000294609F009F804F55A63EE6024359D422C
:100F2000FBD1204670BD00BF60450208034B1A6824
:100F3000D207FCD423229A60704700BF00B0024061
:100F40007047000030B50F4C2568ED07FCD4232511
:100F50000904A56041F001010225FF2B656361646E
:100F6000E0630AD00849656241EA0363E361074B25
:100F700022626061E060236030BDE561039BA36392
:100F8000034BF8E700B00240090001000100020035
:100F90000100030030B50E4C2568ED07FCD4232575
:100FA0001204A56042F001020225FF2B6563626412
:100FB000E063E16008D01B0643F00213E361054BD8
:100FC00065626061236030BD034BE3610123F9E793
:100FD00000B0024001000200020002FF30B50B4CDD
:100FE0002568ED07FCD4232512041B06A56043F4F5
:100FF0000033022542F0010265636264E063E16050
:10100000E361034B65626061236030BD00B0024064
:1010100001000200012070470C2070470C2303FBE5
:101020000100083070470C2303FB010008307047B3
:101030000120704740F6AC40704740F6AC4303FBDC
:1010400001000830704740F6AC4303FB0100083054
:101050007047012070471020704700EB01100830E6
:10106000704700EB011008307047084601F0A8BB3C
:1010700010B5034B0360044607F085FD204610BD04
:101080001846020810B50446FFF7F2FF2046142167
:1010900020F042FC204610BD10B5034B036004460F
:1010A00007F071FD204610BDE445020810B5044666
:1010B000FFF7F2FF204640F6B44120F02DFC204619
:1010C00010BD000010B5034B0360044607F05BFD44
:1010D000204610BDB045020810B50446FFF7F2FFE8
:1010E0002046182120F018FC204610BD10B5084BF2
:1010F0000360044600F54E60FFF7BAFF04F12C00D0
:10110000FFF7CAFF04F11400FFF7DCFF204610BD13
:101110004C46020808B50248FFF7E8FF08BD00BFCB
:101120009C12002010B50446FFF7E0FF204640F671
:10113000546120F0F1FB204610BD00002DE9F34181
:1011400001F010F9054601F011F90024014623468B
:1011500028462246009411F02DFB274B274A1A609F
:10116000204602F093FD264D264B274A27489A60D9
:1011700011F088FA2B68BFF35B8FDB0735D4284664
:1011800020F0CCFB88B3224C224B236004F6F846B7
:1011900004F1140004F12C0804F54E676060C4F8F3
:1011A0000880E760266107F0EFFC1B4B6361404657
:1011B00007F0EAFC194BE362384607F0E5FC184BF0
:1011C000C4F8E03C04F6F44002F0E4FD224604F6E4
:1011D000F441304602F0D4FD304601F0F1FA1148F6
:1011E00021F0F4FA284620F0A5FB0F4802B0BDE834
:1011F000F041FFF7E7BB00BF603201204804002048
:1012000098120020680400204C04002008000020F0
:101210009C1200204C460208B0450208E445020832
:101220001846020815110008C4030020704700008A
:101230000148FFF7D5BB00BFC403002070B5264EA0
:10124000264C274D274B23603046FFF755FE284696
:1012500016F0B6FB24480EF0BDFF244B2448DC609A
:1012600000224FF48071C3E9121222491A86C3E9A1
:101270001A12214983F85820C3E91E011F49C3F8F7
:1012800080101F491F480B60F021C3E90422C3E905
:101290000622C3E90822C3E90A22C3E90E22C3E9F0
:1012A0001022C3E91422C3E917225A6683F870207A
:1012B0005A67C3E9016501801348018013484FF460
:1012C000A07101801248018012490A70012283F83E
:1012D0003420114A1A6070BDF404002094120020DA
:1012E000680400202C3802084C040020C4030020AD
:1012F0000000010101000001000450001A00140068
:10130000FC310120F0310120F6310120F2310120C1
:10131000F8310120F4310120744402080148FFF73C
:1013200077BC00BFF4040020002070478180704724
:10133000C180704701817047418170477047704795
:1013400070477047704710B4C4880368121B8488C4
:101350005B6D091B12B25DF8044B09B218474FF6DA
:10136000FF7383814FF0FF3303621368C361106022
:101370007047002070478B8883800120704770473A
:1013800080F82610704790F82600704710B50022AC
:10139000B1F90840B1F90A10028042808480C1800E
:1013A00010BD0022028042808280C2807047017797
:1013B000704780ED080A704780F82410704780F865
:1013C0002510704701207047983070478C30704767
:1013D000843070477047704770470000034B90227D
:1013E00083F85A2383F85823704700BF00E100E0D8
:1013F000094A0A49D3680A48C3F30A03013B9BB26E
:101400000B801169C1F30A01013901801364536B28
:1014100043F001035363704700680140F22000204D
:10142000F0200020014BD3F8AC0070470068014069
:10143000024B0122C3F8AC105A62704700680140A9
:1014400010B52C21044620F067FA204610BD10B5D7
:10145000BC21044620F060FA204610BD70B5044659
:1014600007F08FFE23689D6E0DF04CFC0146204670
:10147000A8472368054AD3F88C502046AC46002381
:10148000BDE87040A2F51631604700BF00B004D03F
:1014900007F05EBE07F068BE07F024BE07F093BFFA
:1014A00090F8252012B103685B691847704790F8DF
:1014B00025201AB190F8242002B11860704700006E
:1014C000034B4FF080629A604FF080729A607047D1
:1014D00000E100E0084B4FF08062C3F88820BFF3C2
:1014E0004F8FBFF36F8F4FF08072C3F88820BFF328
:1014F0004F8FBFF36F8F704700E100E070B500239E
:10150000124E8380124B0360336893F858200546CF
:101510000AB1D86C00B998680368DB6A98473368E9
:10152000B0FA80F4D86C640930B10368DB6A98477C
:10153000002808BF44F001042CB9064B064A0748AE
:101540002C2121F025F9284670BD00BFFC31012077
:1015500060460208DF3B02083D3C0208763C020878
:1015600070B5254E3568BFF35B8F15F0010540D18E
:10157000304620F0D3F900283BD0204C204B256189
:1015800004F13400C4E90035C4E90255E584A562DC
:10159000A5850FF004F904F158000AF079F9194B08
:1015A000A3652046184B40F8843BFFF7A7FF174B75
:1015B000C4F884302433C4F88C304FF4C803C4E931
:1015C00028350023C4F8AC30C4F8B030C4F8B430C7
:1015D000C4F8B8300E480F4BC4F89050C4F89C5073
:1015E000C4F8A850C4F8983021F0F0F8304620F044
:1015F000A1F9024870BD00BFF4200020F8200020AF
:10160000404D020880460208F8460208F44C0208E1
:10161000D9130008D44C020838B5184C23685BB3C2
:10162000174B184A1B6C11888B4216D1164B198820
:1016300003F0B2FF236893F86A200025013283F893
:101640006A2083F87C50FFF7B7FA206808F016FB91
:101650002846BDE83840FFF7F7B803F09DFF24683F
:10166000236820461B6A9847012384F87C300020B9
:10167000BDE83840FFF712B938BD00BFFC3101208A
:1016800000680140F2200020F020002007B5064B42
:10169000ADF806001B68054801220DF1060104F0B3
:1016A0001BFD03B05DF804FB0C000020FC210020B2
:1016B000F7B50D4E0D4F00250121304603F05EF9C0
:1016C000012804460AD14DB958238DF807303868EF
:1016D0002B462A460DF1070105F0ADFA142005F05E
:1016E000BBF92546E8E700BF00000240B821002012
:1016F00030B595B0102200210AA821F050FA14222A
:10170000002103A821F04BFA00241E4B01941A6C0F
:1017100042F080521A641B6C03F080530193019BCA
:10172000194B02941A6842F440421A601B6803F491
:10173000404302930122029B4FF48033CDE90823FA
:1017400002254FF480030821CDE90E534FF4B47302
:10175000CDE9101308A804231393129503F074FF26
:1017600003F038FF0F23CDE903354FF4A0504FF4B9
:101770008053CDE90603052103A8059404F040F940
:1017800015B030BD00380240007000402DE980489F
:101790009BB002F073FEFFF7ABFF142200210DA8EF
:1017A00021F0FDF90024C84B00941A6BC748C84DBE
:1017B00042F010021A631A6B02F010020092009AB3
:1017C00001941A6B42F020021A631A6B02F0200295
:1017D0000192019A02941A6B42F080021A631A6B0A
:1017E00002F080020292029A03941A6B42F0040201
:1017F0001A631A6B02F004020392039A04941A6BA0
:1018000042F001021A631A6B02F001020492049A78
:1018100005941A6B42F002021A631A6B02F002027C
:101820000592059A06941A6B42F040021A631A6BED
:1018300002F040020692069A07941A6B42F00802E0
:101840001A631B6B03F00803224607933C21079B96
:1018500003F09AF89F480122022103F095F82246EE
:101860009C48042103F090F822469B484FF44051D5
:1018700003F08AF801263C23CDE90D3693480F94F6
:1018800003230DA90227109302F094FF91480DA99C
:10189000CDE90D76CDE90F4402F08CFF04238D488D
:1018A0000DA9CDE90D36CDE90F4702F083FF4FF4C6
:1018B000405389480DA9CDE90D36CDE90F4702F017
:1018C00079FF0DA985480F94CDE90D6402F072FFF0
:1018D0008348844B036002F063FEDFF82CC2824B26
:1018E0002C62C5E900C328464FF48043C5E904349F
:1018F000C5E90244C5E9064403F054FA102128461C
:1019000003F098FC2146284603F0B3FC774DDFF83E
:10191000FCE1AC624FF48273C5E900E34FF4007858
:101920001823C5E9068328460A23C5E90244C5E908
:101930000444C5E90844EB6204F072FB8F2322469D
:10194000394664488DF824308DF8344003F01CF893
:1019500032464FF47A7309A9284604F0BDFB4FF4D0
:101960007A7332460DA9284604F062FD32463946A4
:1019700058485F4D03F008F89DF83430D32B04BF6E
:101980005C4B1E705C4B0127C5E900374FF0100A15
:1019900040230024C5E904A34FF4C073C5E906340D
:1019A0004FF40063C5E908344FF4005302264FF0AA
:1019B0000409AB624FF0030B07230DA92846CDE9BC
:1019C0000D63CDE90F934FF00808C5E90249CDE951
:1019D00011B6139604F008FA4FF6FF7209A92846CB
:1019E000CDE90A87089409970C9404F01DFA38464B
:1019F00002F070FD4FF6FF7209A92846CDE909688B
:101A0000CDE90B7404F010FA4FF6FF7209A92846CD
:101A1000CDE909B8CDE90B9404F006FA4FF40C7344
:101A20000893089B0C934FF6FF7209A92846CDE94D
:101A300009980B9704F0F8F940F26A51284604F02F
:101A400011FA342221460DEB020021F0A8F82B4DAB
:101A50002B4B2C61C5E900340923C5E905371D234B
:101A6000C5E9073B40F20D1240F24313C5E90923D3
:101A700040F2171140F247132846C5E90B13C5E998
:101A80000244AC8685F8364003F08EFCFF21F0223C
:101A9000CDE912144FF4806005214FF4A073CDE915
:101AA0001401CDE90E240DA9CDE91642284622469F
:101AB000144D1893CDE910360D94ADF864408DF8AF
:101AC000664003F03CFD23E0003802400010024075
:101AD000FC22002000080240000C024000000240EE
:101AE0009023002000300240A0860100FC2100204D
:101AF000C8210020BC210020400100A05422002069
:101B000000680140B4210020005C0040005001400A
:101B10001A4B2B601B6898472B68194DDB68984758
:101B2000184B2846C5E90034C5E90264C5E90A46F0
:101B3000C5E90C4402F044FD3946284602F0F6FDA2
:101B4000FEF7B6FDFEF7B3FD04F016FF0E4A314670
:101B5000504605F035F80D4B0D4A186021460D48EA
:101B600004F036FF0C4B0D4A186021460C4804F077
:101B70002FFF0C4B186004F011FFFEE7140000204B
:101B80005023002000B002403C470208B82100204A
:101B900078470208B1160008C42100205447020803
:101BA000BF060008C0210020704770477FB5094B71
:101BB0008DF817201B6802930DF117020123009284
:101BC00001930A460146044803F094F907B05DF812
:101BD00004FB00BF10000020FC2200207FB5002382
:101BE0008DF81730084B1B6802930A4601230DF14C
:101BF0001701009101930146044803F00BFA9DF888
:101C0000170007B05DF804FB10000020FC22002044
:101C10001FB5084C24680092CDE901340A4601231F
:101C20000146054803F0F6F9003818BF012004B05A
:101C300010BD00BF10000020FC22002002F04ABCB2
:101C400010B5064C00222046042102F09DFE2046DD
:101C50000122BDE81040042102F096BE00080240B7
:101C600038B50B4D044601220A484FF4005102F0EA
:101C70008BFE00220421284602F086FE2046FFF754
:101C800005FD28460122BDE83840042102F07CBE53
:101C900000080240000C024038B50B4D04460022FB
:101CA0000A484FF4005102F06FFE0022042128463A
:101CB00002F06AFE2046FFF7E9FC28460122BDE853
:101CC0003840042102F060BE00080240000C0240CF
:101CD000F7B5144E144F05460C4630460022042139
:101CE00002F052FE00224FF40051384602F04CFE42
:101CF0002846FFF7CBFC0D4B0D481B68224601A977
:101D000004F096FB384601224FF40051019C02F08A
:101D10003BFE30460122042102F036FE204603B08D
:101D2000F0BD00BF00080240000C02400C00002083
:101D3000FC21002002F0CEBB0268034B9A4201D185
:101D400002F0B6BB704700BF0010004070470000B3
:101D500082B00E4B00220092596C41F480415964CC
:101D6000596C01F48041009100990192196C41F085
:101D7000805119641B6C03F080530193019B0F2168
:101D80006FF0010002B002F0CBBB00BF0038024090
:101D90000268094B9A4282B00BD100230193074B92
:101DA0001A6B42F480521A631B6B03F48053019345
:101DB000019B02B0704700BF003002400038024073
:101DC00007B50F4B02689A4216D10022A3F5F043E3
:101DD0000192196B41F4000119631B6B03F40003BA
:101DE000019305215A20019B02F09AFB5A2003B06F
:101DF0005DF804EB02F0C6BB03B05DF804FB00BF66
:101E000000B002402DE9F043044689B014220021BD
:101E100003A820F0C4FE2268244B9A4243D1244CEC
:101E2000244800250095236B43F004032363236BB0
:101E300003F004030093009B0195236B43F001031F
:101E40002363236B03F001030193019B4FF01209FD
:101E50004FF400734FF001080327042603A9CDE9CE
:101E60000339CDE90587079602F0A4FC4FF480738F
:101E70001148079603A9CDE90339CDE9058702F09A
:101E800099FC0295236C43F400032364236C03F450
:101E900000030293029B236A43F400032362236A34
:101EA00023F40003236209B0BDE8F083005C004026
:101EB000003802400008024000000240F0B599B02E
:101EC00004461422002107A820F069FE30220DEB01
:101ED0000200002120F063FE22685E4B9A4240F02F
:101EE000B78008230C93C0231093042312930CA8EB
:101EF0004FF40033159303F04BFE08B1FFF726FFB4
:101F0000554B5648002400945A6C42F080625A6443
:101F10005A6C02F080620092009A01941A6B42F0AF
:101F200020021A631A6B02F020020192019A0294B5
:101F30001A6B42F001021A631A6B02F0010202925C
:101F4000029A03941A6B42F002021A631A6B02F0AF
:101F500002020392039A04941A6B42F040021A633D
:101F60001A6B02F040020492049A05941A6B42F034
:101F700004021A631A6B02F004020592059A069491
:101F80001A6B42F008021A631B6B03F008030693F6
:101F900002250E26069B0B964FF4806307A9CDE918
:101FA0000735CDE9094502F005FC41F658032C48F8
:101FB0000B9607A9CDE907350927CDE9094502F0B8
:101FC000F9FB032327480B9707A9CDE90735CDE98E
:101FD000094502F0EFFB4FF4706322480B9607A906
:101FE000CDE90735CDE9094502F0E4FB4FF40C6378
:101FF0001D480B9607A9CDE90735CDE9094502F043
:10200000D9FBC02319480B9607A9CDE90735CDE9BF
:10201000094502F0CFFB082315480B9607A9CDE927
:102020000735CDE9094502F0C5FB4FF4A0530E4832
:102030000B9707A9CDE90735CDE9094502F0BAFBB1
:1020400058202246052102F06BFA582002F09AFA35
:1020500019B0F0BD00680140003802400014024091
:102060000000024000040240001802400008024044
:10207000000C024010B5044688B01422002103A8C9
:1020800020F08DFD2268144B9A4223D103F568435A
:10209000002101915A6C114842F480125A645A6C22
:1020A00002F480120192019A02911A6B42F020020E
:1020B0001A631B6B03F020030293029B4FF46072C0
:1020C00002230321CDE903230523CDE9061303A948
:1020D00002F070FB08B010BD005001400014024037
:1020E0002DE9F04186B0002303932B4B1C68002C94
:1020F0004FD14FF00108C3F80080284B00949A6B31
:10210000274842EA08029A639B6B03EA080300939C
:10211000022703260C25009B01A94FF63F03CDE9BA
:102120000137CDE9046502F045FB1E48059501A97C
:10213000CDE90187CDE9034602F03CFB48F23313B9
:102140001948059501A9CDE90137CDE9034602F00B
:1021500031FB4FF683731548059501A9CDE9013789
:10216000CDE9034602F026FB4CF2037310480595B7
:1021700001A9CDE90137CDE9034602F01BFB60233D
:102180000C48059501A9CDE90137CDE9034602F0D8
:1021900011FB06B0BDE8F081982300200038024012
:1021A00000140240000802400018024000100240E3
:1021B000000C02400004024070B588B00023029376
:1021C000204B1A6C42F010021A641B6C03F01003CF
:1021D0000293054601A903A8029B03F0BBFC069BE2
:1021E0004BBB03F0A7FC184E184B336040F2E733AB
:1021F000F360174BB0FBF3F3013B736030460023F1
:102200003361B360B36104F0E3FA044680B9304649
:1022100004F0B4F9044658B9362002F0B3F90F2D92
:102220000DD822462946362002F07AF9094B1D6066
:10223000204608B070BD03F07DFC4000D3E70124C8
:10224000F6E700BF003802409C2300200010004049
:1022500040420F007C0000207047FEE7FEE7FEE7EB
:10226000FEE77047014804F0C7B900BF9C23002077
:10227000014803F007B900BF54220020014802F0D2
:10228000CBB900BF502300200120704708B520F0D3
:1022900029FD162303604FF0FF3008BD08B520F07C
:1022A00021FD16230360FEE770B50D4614460E4669
:1022B000731B9C4201DC204670BDAFF3008006F822
:1022C000010BF5E770B50D4614460E46731B9C4294
:1022D00001DC204670BD16F8010BAFF30080F5E776
:1022E0004FF0FF3070474FF400534B6000207047B1
:1022F00001207047002070470A4A116808B503465C
:1023000009B9094911601068694603448B4206D92E
:1023100020F0E8FC0C2303604FF0FF3008BD136091
:10232000FCE700BFE4230020403F0120704710B5C8
:10233000042104461FF0F0FA204610BD012908B51B
:1023400006D0022908D059B901F0ECFC006808BD9C
:1023500001F0E8FC4068FAE701F0E4FC8068F6E789
:102360000020F4E700487047B04702080220704799
:1023700013B5002451B1036801948DF8034001AAFC
:102380009C680DF10303A04702B010BD0846FBE7AF
:10239000C0897047008A7047C0887047808870473E
:1023A000807A00F07F007047807AC0097047002073
:1023B000704700009FED010A704700BF0000000059
:1023C000704710B5082104461FF0A6FA204610BD3C
:1023D0007047704700F598730868496803C37047F1
:1023E000704770474160704770477047064BC0F8B0
:1023F0004C310023C0F8503100F5A273C0F84801F9
:10240000C0F84031704700BFF9250008012303726E
:102410007047704710B4C26841685410034601EB1E
:102420006200D20748BF0A599B685DF8044B48BF59
:10243000D35818470346406830B19A681AB9D8682B
:1024400000F0010070470120704710B50C210446D0
:102450001FF062FA204610BD10B5102104461FF08F
:102460005BFA204610BD10B54FF4AE7104461FF064
:1024700053FA204610BD10B50CF044FC0368BDE8CB
:102480001040DB6B184710B50446D0F8400158B136
:102490000368DB68984738B1D4F8400103689B684B
:1024A00098470023C4F8403110BD00002DE9F14FDA
:1024B000D0E9556A0746B06803681B6A984740F63A
:1024C000AB43984205D8444B444AA321444820F0EA
:1024D0005FF9706803681B6A98470F2803D8414B5F
:1024E0003E4AA421F2E7F06803681B6A98470B286C
:1024F00003D83D4B394AA521E8E70CF003FCDFF88F
:10250000F09004300CF023FCD9F8000010B10368FF
:10251000DB689847D9F8000010B103681B6898473A
:10252000DFF8D080D8F8000010B103685B699847E5
:10253000D7F83C0110B103685B689847D8F80000F1
:1025400010B103681B689847D7F83C0110B10368C5
:102550009B689847F068036800215B6A98474FF0D2
:10256000000B224BC0F804B0044680F808B00360AA
:10257000B068036859465B6A9847054601F078FCE5
:102580007068036859465B6A98472946064601F019
:102590004DFC331DC7F83C61C9F80040C8F8005035
:1025A000CAF800302B68C6F808A02846DB68EE633E
:1025B0009847336830461B689847214628460EF0F6
:1025C00051FD236820461B69984723685B692046B4
:1025D00001B0BDE8F04F1847F83C0208863D0208FC
:1025E000583E02089F3E0208423F02085C4802082B
:1025F00044320120403201202DE9F14FD0E9556AE3
:102600000746B06803681B6A9847EF2805D8444B13
:10261000444AA321444820F0BBF8706803681B6A51
:1026200098470F2803D8414B3E4AA421F2E7F068AF
:1026300003681B6A98470B2803D83D4B394AA521EC
:10264000E8E70CF05FFBDFF8F09004300CF07FFB64
:10265000D9F8000010B10368DB689847D9F800008A
:1026600010B103681B689847DFF8D080D8F80000E5
:1026700010B103685B699847D7F83C0110B1036853
:102680005B689847D8F8000010B103681B6898474A
:10269000D7F83C0110B103689B689847F06803685D
:1026A00000215B6A98474FF0000B224BC0F804B042
:1026B000044680F808B00360B068036859465B6A56
:1026C0009847054601F098FB7068036859465B6AB5
:1026D00098472946064601F06FFB331DC7F83C6159
:1026E000C9F80040C8F80050CAF800302B68C6F896
:1026F00008A02846DB68EE639847336830461B68BD
:102700009847214628460EF0ADFC236820461B69F9
:10271000984723685B69204601B0BDE8F04F184731
:10272000F83C0208E53F0208583E02089F3E0208B6
:10273000423F02085C480208443201204032012036
:10274000044B1B6893F858200AB1D86C00B99868FC
:10275000704700BFFC310120F8B5174604460E460D
:102760000CF092FB124B1C60124B2360124B0025A5
:10277000C4E95135114BC4E9535518680368012168
:102780009B68C4E94F55C4E955769847284601F03F
:102790007DFAFFF7D5FF16F0BCFFFFF7D1FF17F06A
:1027A00033F8FFF7CDFF17F03BF82046F8BD00BF28
:1027B0005032012008480208F0470208FC3101208D
:1027C000064BC0F84C310023C0F8503100F5A2731D
:1027D000C0F84801C0F84031704700BFF925000833
:1027E000064BC0F84C310023C0F8503100F5A273FD
:1027F000C0F84801C0F84031704700BFAD24000860
:10280000406A7047806A704770478A880B8810B5A5
:10281000D20A4C88C1699BB251F8220043EA0443B2
:10282000184410BD10B50446BAB1107B68B1537B93
:10283000D27A1B0203F4E0631A43236A03EB820398
:102840001A888A4202D193F9020010BD05D80138D6
:1028500080B204330028F3D1F7E70020F5E710B584
:102860002C2104461FF058F8204610BD30B58BB01F
:102870000446BDF860500895BDF85C5007959DF87A
:10288000505006959DF84C5005959DF8485004957C
:102890009DF8445003959DF8405002959DF83C509A
:1028A0000195BDF8385000950EF036F8064B2360C0
:1028B000159BE361169B2362199B63621A9BA362BB
:1028C00020460BB030BD00BF8048020870477047FB
:1028D00070477047704770477047704730B4C268A0
:1028E00044685510034604EB6200D20748BF6259A2
:1028F0009B6830BC48BFD35818470346406830B186
:102900009A681AB9D86800F0010070470120704732
:1029100010B5102104461EF0FFFF204610BD10B573
:10292000F02104461EF0F8FF204610BD9830884282
:1029300008B505D10CF0E6F9BDE80840FFF750BF37
:1029400008BD70B5036804461B6B1546984723689D
:10295000294620465B6BBDE87040184770B50446B9
:102960001D46BDF91060FFF7ECFF2368294620469D
:102970009B6B9847236831462046DB6BBDE870406F
:1029800018470000094A02604FF4807100228184D8
:10299000FF21C0E90122C0E90322C0E90522C0E904
:1029A000072280F826108262704700BF944E02080A
:1029B000F8B5194B018F1B888B4206462AD9174B55
:1029C0001B682BB9164B174A17486C211FF0E0FE05
:1029D00013F81120154B1B6853F82250144B18683C
:1029E00001F090F92B6807469B6B284698472B68A7
:1029F00004469B6C3946284698472B6814FB00F424
:102A00005B6A394628469847A4B223181BB2A6F839
:102A10004630F8BD0023FAE7583201205432012035
:102A2000B7400208F9400208344102085C32012034
:102A3000603201202DE9FF470446274600250EF0AD
:102A400065F92E4BE56347F8403B04F16C093846C5
:102A5000FFF798FF04F198064846FFF793FF3046CA
:102A600009F0A4FD264BC4E93834264B4FF4A07A74
:102A7000C4E93A352A4629463846CDF800A0F02365
:102A8000FFF76CFF04F104084FF07F43A36639465B
:102A9000404606F08BF84FF0FF37F0232A462946D0
:102AA0004846CDF800A0FFF759FF49464046C4F814
:102AB000947006F07BF829463046D222FFF741FF9A
:102AC00003AA02A901233046ADF80C30ADF8085036
:102AD00009F0E1FA1423A4F8D0303046FFF768FF7C
:102AE00004F1E0034046C4E93577C4F8C03031460C
:102AF00006F05CF8204604B0BDE8F0870049020803
:102B0000E84802082D290008806A704730B503683C
:102B100085B06D460181D3F88430014604462846CD
:102B2000984795E807003C3484E8070005B030BDBD
:102B300030B5036885B06D464181D3F884300146D5
:102B400004462846984795E807003C3484E8070087
:102B500005B030BD0022028042808280C280704772
:102B600080F83610704770B5036804461B6B154635
:102B700098472368294620465B6EBDE87040184799
:102B800000207047806C70477047704770477047EF
:102B9000704770470368DB6A184790F82C304BB1D8
:102BA00000F16C021268C2653BB100F174031B684E
:102BB0000366704700F16802F4E700F17003F6E77E
:102BC00030B4C26844685510034604EB6200D20773
:102BD00048BF62599B6830BC48BFD358184703466A
:102BE000406830B19A681AB9D86800F0010070479F
:102BF0000120704790F82D3080F85A30704710B59A
:102C00004C2104461EF088FE204610BD10B57821E8
:102C100004461EF081FE204610BD10B5102104466A
:102C20001EF07AFE204610BD10B540F694410446D1
:102C30001EF072FE204610BD08B5FEF731FC08BD3F
:102C400010B50446006B50B10368DB68984730B19B
:102C5000206B036821469B68BDE81040184710BDF3
:102C60000B7970B590F82C6004460D460BB916B17F
:102C700070BD002EFCD0B3FA83F35B0984F82C30CE
:102C800023682046D3F88C309847236820465B6938
:102C90009847002EECD02B79012BE9D123682046F0
:102CA000D3F88830BDE8704018470000036870B55D
:102CB0005E6B124B1B6804468DB22BB9104B114A48
:102CC0006C2111481FF064FD1049828D09889142E2
:102CD00003D80F4B0B4A6D21F3E713F812200D4B6D
:102CE0001B6853F8220003681B6B9847291A334668
:102CF000204609B2BDE87040184700BF5432012099
:102D0000B7400208F9400208344102085832012055
:102D10007B4102085C320120C430884208B505D1ED
:102D20000BF0F0FFBDE80840FFF74ABD08BD00000A
:102D3000074A02600022C0E90122C0E90322C0E97B
:102D40000522C0E907224FF480728284704700BFD9
:102D50003C50020810B50446FFF7EAFF024B23601F
:102D60000023A362204610BD144C020800224FF03D
:102D7000FF31C0E9002182607047000010B50021DA
:102D8000044626221FF00BFF2046FFF7D1FF094B18
:102D90002360094BA3624FF6FF73A3854FF47F02B4
:102DA0000023C4E90C32238704F13C00FFF7DEFF67
:102DB000204610BD044E0208E047020810B5044644
:102DC000FFF7D4FF204610BD10B50446FFF7D6FF2D
:102DD000024B23600023A364204610BD344902083F
:102DE0002DE9F04F0446BFB026464FF000080DF025
:102DF0008DFFDC4BC4F83C8046F8403B3046FFF783
:102E0000C1FD04F16C0318461493FFF7BBFD04F1F8
:102E1000980304F1C40518461593FFF7B3FD28463F
:102E2000FFF798FF4FF47F43A4F8F030012304F13B
:102E3000F80984F8E830CC4BC4F8C4304846C4F8EC
:102E4000F480FFF79FFDC94BC4F8F830424648466E
:102E50004146C4E94B88C4E94D88C4F82481A4F8EC
:102E60002881FFF76EFD04F59E7A4946284605F055
:102E70009DFE5046FFF782FF04F5C2731846169375
:102E8000FFF768FF04F5D87318461793FFF762FF42
:102E900004F5EE7318461893FFF75CFF04F5027310
:102EA00018461993FFF756FF04F50D7318461A9349
:102EB000FFF750FF04F5187318461B93FFF74AFFFE
:102EC00004F5237318461C93FFF744FF04F52E7393
:102ED00018461D93FFF73EFF04F5397318461E93FD
:102EE000FFF750FD04F5447318461F93FFF732FFB8
:102EF00004F54F7318462093FFF72CFF04F55A731F
:102F000018462193FFF726FF04F5657318462293B0
:102F1000FFF720FF04F5707318462393FFF71AFF9D
:102F200004F57B7318462493FFF714FF04F58363BD
:102F300018462593FFF70EFF04F2444318462693E4
:102F4000FFF708FF04F58E6318462793FFF71AFD75
:102F500004F29C4318462893FFF714FD04F5996387
:102F600018462993FFF70EFD04F2F44318462A93FE
:102F7000FFF708FD04F5A46318462B93FFF702FD45
:102F800004F24C5318462C93FFF7FCFC04F5AF6396
:102F900018462D93FFF7F6FC04F2A45318462E931F
:102FA000FFF7F0FC04F5BA6318462F93FFF7EAFC2D
:102FB00004F2FC5318463093FFF7E4FC04F5C563B4
:102FC00018463193FFF7DEFC04F25463184632933F
:102FD000FFF7D8FC04F5D06318463393FFF7D2FC13
:102FE00004F2AC6318463493FFF7CCFC04F5DB63C2
:102FF00018463593FFF7C6FC04F204731846029393
:10300000FFF7E2FE04F5EA6318460393FFF7DCFEE0
:1030100004F29C7318460493FFF7D6FE04F5FD6393
:1030200018460593FFF7D0FE04F6340318460693BE
:10303000FFF7CAFE04F5086318460793FFF7C4FEBE
:1030400004F6CC0318460893FFF7BEFE04F61813E7
:1030500018460993FFF7B8FE04F6641318460A935E
:10306000FFF7B2FE04F51B6318460B93FFF7ACFEA7
:1030700004F6FC1318460C93FFF7A6FE04F648234B
:1030800018460D93FFF7A0FE04F6942318460E93FE
:10309000FFF79AFE04F52E6318460F93FFF794FE90
:1030A00004F62C3318461093FFF78EFE04F678339F
:1030B00018461193FFF788FE04F6C433184612939E
:1030C000FFF782FE04F5416318461393FFF77CFE79
:1030D000274BC4F8843C274BC4F88C3C4FF4A073B6
:1030E000271D4FF07F4B42463046C4F8884CC4F849
:1030F000908C41460093F023FFF730FC3146384670
:10310000C4F868B005F052FD4FF4A073424614981D
:1031100000934146F023FFF721FC174B1499C4F8A4
:103120009430384605F042FDDC2350221598009378
:103130000A21FFF713FC114B1599C4F8C030212662
:10314000384605F033FD4246414648460096542332
:10315000FFF704FC4FF00503A4F82831084BC4F82E
:103160002C310FE0784A0208C4490208FC4E0208DC
:10317000604A0208192D0008DFED64FFEEEEEEFF55
:10318000996600FF03F54C533333C4F83031A3F58F
:10319000CC43663BC4F8343103F1331303F54C538D
:1031A0002846C4F83831FFF7F8FC04F68443C4F825
:1031B000F43008225423284600960C21FFF7CEFB5A
:1031C0002946384605F0F2FC36AD0E2250461F2146
:1031D000FFF7B7FB51462846C4F86CB1A4F87081DC
:1031E00008F054FC95E807003BAE04F5BC73DFF82B
:1031F0004098CDF8EC9083E8070013235046314601
:103200003225ADF8F03008F0E9FE5146384605F0B9
:10321000CDFC2B465422169800950E21FFF79EFBFD
:103220001699384605F0C2FC2B468A22179800955D
:103230000E21FFF793FB1799384605F0B7FC2B4694
:103240008A22189800954421FFF788FB1899384680
:1032500005F0ACFC2B468A22199800957A21FFF7DD
:103260007DFB1999384605F0A1FC2B468A221A9855
:103270000095B021FFF772FB1A99384605F096FCCD
:103280002B46C0221B9800950E21FFF767FB1B9968
:10329000384605F08BFC2B46C0221C980095442133
:1032A000FFF75CFB1C99384605F080FC2B46C022DA
:1032B0001D9800957A21FFF751FB1D9938464FF074
:1032C000FF3A05F073FC2B46C0221E9800950E2194
:1032D000FFF744FB1E99C4F80CA3384605F066FCC2
:1032E0002B46C0221F980095B021FFF737FB1F998E
:1032F000384605F05BFC2B46F622209800950E21FF
:10330000FFF72CFB2099384605F050FC2B46F6229F
:10331000219800954421FFF721FB2199384605F0BB
:1033200045FC2B46F622229800957A21FFF716FBE2
:103330002299384605F03AFC2B46F6222398009550
:10334000B021FFF70BFB2399384605F02FFC2B46E5
:103350005422249800954421FFF700FB2499384615
:1033600005F024FC2B465422259800957A21FFF77E
:10337000F5FA2599384605F019FC2B465422269873
:103380000095B021FFF7EAFA2699384605F00EFCC1
:103390002B465422279800950E21FFF7DFFA279934
:1033A000C4F898A4384605F001FC2B46542228980E
:1033B00000954421FFF7D2FA2899C4F8C4A43846EE
:1033C00005F0F4FB2B465422299800957A21FFF74B
:1033D000C5FA2999C4F8F0A4384605F0E7FB2B4656
:1033E00054222A980095B021FFF7B8FA2A99C4F818
:1033F0001CA5384605F0DAFB2B468A222B9800954F
:103400000E21FFF7ABFA2B99C4F848A5384605F012
:10341000CDFB2B468A222C9800954421FFF79EFA7B
:103420002C99C4F874A5384605F0C0FB2B468A22B7
:103430002D9800957A21FFF791FA2D99C4F8A0A54F
:10344000384605F0B3FB2B468A222E980095B02112
:10345000FFF784FA2E99C4F8CCA5384605F0A6FBF0
:103460002B46C0222F9800957A21FFF777FA2F99E3
:10347000C4F8F8A5384605F099FB2B46C0223098D1
:103480000095B021FFF76AFA3099C4F824A63846AF
:1034900005F08CFB2B46F622319800950E21FFF7A4
:1034A0005DFA3199C4F850A6384605F07FFB2B46EB
:1034B000F622329800954421FFF750FA3299C4F869
:1034C0007CA6384605F072FB2B46F6223398009511
:1034D0007A21FFF743FA3399C4F8A8A6384605F0D5
:1034E00065FB2B46F62234980095B021FFF736FA9B
:1034F0003499C4F8D4A6384605F058FB2B46C022B0
:10350000359800954421FFF729FA3599C4F800A7AA
:10351000384605F04BFB2B4654220E2102980095AD
:10352000FFF71CFAC4F834B7A4F838873046FFF721
:103530001DFC96E8070004F5E86383E8070004F63D
:103540005C430298C4F84C3731461223A4F85C8CD3
:10355000ADF8F030CDF8EC9008F040FD0299384617
:1035600005F024FB2B465422442103980095FFF7D5
:10357000F5F9C4F880B7A4F884873046FFF7F6FB66
:1035800096E8070004F28C7383E807001123039880
:10359000ADF8F0303146CDF8EC9008F01FFD0399FE
:1035A000384605F003FB2B4654227A2104980095F7
:1035B000FFF7D4F9C4F8CCB7A4F8D0873046FFF7AA
:1035C000D5FB96E8070004F5FB6383E807001023AA
:1035D0000498ADF8F0303146CDF8EC9008F0FEFCE0
:1035E0000499384605F0E2FA2B465422B02105989A
:1035F0000095FFF7B3F9C4F818B8A4F81C88304652
:10360000FFF7B4FB96E8070004F6240383E80700FD
:103610000F230598ADF8F0303146CDF8EC9008F066
:10362000DDFC0599384605F0C1FA2B468A220E21A9
:1036300006980095FFF792F9C4F864B8A4F8688872
:103640003046FFF793FB96E8070004F5076383E82D
:1036500007004FF00E0A0698CDF8EC903146ADF811
:10366000F0A008F0BBFC0699384605F09FFA2B46FF
:103670008A22442107980095FFF770F9C4F8B0B882
:10368000A4F8B4883046FFF771FB96E8070004F60B
:10369000BC0383E807000D230798ADF8F0303146EE
:1036A000CDF8EC9008F09AFC0799384605F07EFAC0
:1036B0002B468A227A2108980095FFF74FF9C4F823
:1036C000FCB8A4F800893046FFF750FB96E80700E5
:1036D00004F6081383E807000C230898ADF8F030CF
:1036E0003146CDF8EC9008F079FC0899384605F0A1
:1036F0005DFA2B468A22B02109980095FFF72EF932
:10370000C4F848B9A4F84C893046FFF72FFB96E877
:10371000070004F6541383E807000B230998ADF85B
:10372000F0303146CDF8EC9008F058FC0999384655
:1037300005F03CFA2B46C02251460A980095FFF747
:103740000DF9C4F894B9A4F898893046FFF70EFB38
:1037500096E8070004F51A6383E807004FF00A03B0
:103760000A98ADF8F0303146CDF8EC9008F036FC10
:103770000A99384605F01AFA2B46C02244210B98C4
:103780000095FFF7EBF8C4F8E0B9A4F8E4893046F7
:10379000FFF7ECFA96E8070004F6EC1383E807005D
:1037A00009230B98ADF8F0303146CDF8EC9008F0D5
:1037B00015FC0B99384605F0F9F92B46C0227A2101
:1037C0000C980095FFF7CAF8C4F82CBAA4F8308A10
:1037D0003046FFF7CBFA96E8070004F6382383E873
:1037E000070008230C98ADF8F0303146CDF8EC9086
:1037F00008F0F4FB0C99384605F0D8F92B46C022A6
:10380000B0210D980095FFF7A9F8C4F878BAA4F88C
:103810007C8A3046FFF7AAFA96E8070004F684236C
:1038200083E8070004F547630293794B1B682BB9C3
:10383000784B794A602179481EF0AAFF784B1B88A3
:103840001BB9784B744A6121F5E7774B41461868FC
:1038500000F058FA754A03460A2102980EF004FF58
:10386000029B0D98C4F8903A31460723ADF8F0302A
:10387000CDF8EC9008F0B2FB0D99384605F096F9BA
:103880002B4651460E980095F622FFF767F8C4F8CC
:10389000C4BAA4F8C88A3046FFF768FA96E8070069
:1038A00004F52D6383E8070006230E98ADF8F03089
:1038B0003146CDF8EC9008F091FB0E99384605F0B2
:1038C00075F92B460F980095F6224421FFF746F82C
:1038D000C4F810BBA4F8148B3046FFF747FA96E8FB
:1038E000070004F61C3383E807004FF005030F9828
:1038F000ADF8F0303146CDF8EC9008F06FFB0F9941
:10390000384605F053F92B4610980095F6227A2197
:10391000FFF724F8C4F85CBBA4F8608B3046FFF7CF
:1039200025FA96E8070004F6683383E807000423C5
:103930001098ADF8F0303146CDF8EC9008F04EFB21
:103940001099384605F032F92B4611980095F62269
:10395000B021FFF703F8C4F8A8BBA4F8AC8B30463D
:10396000FFF704FA96E8070004F6B43383E807008B
:1039700003231198ADF8F0303146CDF8EC9008F003
:103980002DFB1199384605F011F9129829228B2147
:10399000FEF7D7FFC4F8F4BBA4F8F88B3046FFF766
:1039A000E5F996E8070004F5406383E80700022381
:1039B0001298ADF8F0303146CDF8EC9008F00EFBDF
:1039C0001299384605F0F2F813983E228B21FEF743
:1039D000B8FFC4F840BCA4F8448C3046FFF7C6F9E1
:1039E00096E8070004F64C4383E807000123139888
:1039F000ADF8F0303146CDF8EC9008F0EFFA3846EB
:103A0000139905F0D3F820463FB0BDE8F08F00BF12
:103A100054320120B7400208B9410208344102087B
:103A2000583201207B410208603201200442020822
:103A3000E04702087047000030B5174D2C6814F0BD
:103A400001048FB0BFF35B8F22D128461DF066FFC3
:103A5000F0B13F230993114B0893114B07930123B6
:103A6000CDE9054304930423CDE902430A230093DF
:103A70000C230C490C480A941A46CDE90B440194D6
:103A8000FEF7F4FE09481EF0A1FE28461DF052FF85
:103A900005480FB030BD00BFE82300204062020897
:103AA0005C62020860600208EC230020353A0008DE
:103AB0007047000030B5164D2C6814F001048FB02B
:103AC000BFF35B8F21D128461DF028FFE8B13F23CB
:103AD0000993104B0893104B07930123CDE905433D
:103AE00004930423CDE9024314230C4900931522C7
:103AF000CDE90B440A480A940194FEF7B7FE094841
:103B00001EF064FE28461DF015FF05480FB030BDBD
:103B1000182400204462020860620208086102085A
:103B20001C240020B13A00087047000030B5164D43
:103B30002C6814F001048FB0BFF35B8F20D12846AE
:103B40001DF0ECFEE0B13F230993104B0893104B9E
:103B5000104911480A940122CDE906430423CDE916
:103B6000033228230093CDE90B44CDE901440594A9
:103B7000FEF77CFE09481EF029FE28461DF0DAFEFD
:103B800005480FB030BD00BF48240020586202082D
:103B900064620208306202084C240020293B0008BD
:103BA00000207047002070470EB403B503AB00211E
:103BB00053F8042B01930CF02DF902B05DF804EBDF
:103BC00003B070470CB407B504AB53F8042B019352
:103BD0000CF020F903B05DF804EB02B07047000070
:103BE000436C10B5044673B3038F2BB9184B194AB5
:103BF000C52119481EF0CCFDC38E00EB43035B8C3E
:103C00000BB30DF088FF238F012B03D8134B144AFD
:103C1000CB21EEE7E28E531C9BB2092B194688BFDD
:103C2000A3F10A0104EB410140F63F10498C8142A7
:103C300009D10A2B04EB420228BF002304EB430303
:103C4000508C588451842046BDE810400DF066BE6B
:103C50000742020810420208BB420208054302085C
:103C6000134302080DF021BE10B586B002AC84E803
:103C700006001A460AAB05930193099B009321465F
:103C8000089B0AF0DDFB06B010BD000038B518BB7C
:103C9000124B13481C681349B4B1226822440260D5
:103CA000626822440A60A26814440F4B00221A8002
:103CB00000F038F8054600F033F80C4B1C600C4B54
:103CC0001D600C4B188007E00B4B03600B4B0B6027
:103CD0000B4B1C68002CE8D138BD00BF84240020A9
:103CE0007C240020782400208024002054320120ED
:103CF0005C32012058320120BC620208686202086E
:103D0000F8620208044B1B6853F82100034B1B6840
:103D100003EB4000704700BF782400207C24002083
:103D200015207047004870478824002010B5FFF721
:103D3000C1FE044C2060FFF7F9FE6060FFF77CFED7
:103D4000A06010BD8824002010B5002404600C6021
:103D500014601C6010BD704710B54FF4AE7104467E
:103D60001DF0DAFD204610BD10B50446D0F858010C
:103D700000F013F82046BDE810400BF045B80000F5
:103D800010B50446FEF7E8FC014B2360204610BD49
:103D9000B04A02080022026070477047704704383A
:103DA0007047704710B5102104461DF0B5FD204640
:103DB00010BDA0F10400F5E700228260024A026013
:103DC00018324260C1607047044B0208704700001F
:103DD00010B5034B03600446FEF77EFD204610BD80
:103DE0002C4B020810B50446FFF7F2FF2046F021E5
:103DF0001DF092FD204610BD10B50446FEF71AFED8
:103E0000014B2360204610BD2C4B0208FEF765BD18
:103E1000704704387047704710B5102104461DF0F4
:103E20007BFD204610BDA0F10400F5E70022826072
:103E3000024A026018324260C1607047604B02085B
:103E40007047000010B5034B03600446FEF7A0FE68
:103E5000204610BD884B020810B50446FFF7F2FF5C
:103E6000204640F6AC411DF057FD204610BD000035
:103E700010B50446FEF7B4FF034B23600023C4F8DB
:103E8000A83C204610BD00BF884B020838B5044648
:103E900000F694450A2319462846054A0EF0E4FB2D
:103EA000C4F84C5704F20470BDE838400CF0DCB89C
:103EB000E543020810B50446FEF76BFE2046BDE858
:103EC0001040FFF7E3BF000037B5134D04462868E4
:103ED00002F012FFE8B14FF0FF33286800220DF125
:103EE000070102F0D9FE9DF80730582B11D1D4F804
:103EF000A83C0A4A013304F69445C4F8A83C0A21B8
:103F000028460EF0B1FBC4F84C5704F204700CF0D4
:103F1000ABF803B030BD00BFB8210020E543020874
:103F2000F02070474FF4A07070472920FDF7B4BE11
:103F30002820FDF7B1BE08B5FDF782FECA20FDF7C7
:103F4000ABFEC320FDF78CFE0820FDF789FE502054
:103F5000FDF786FECF20FDF79FFE0020FDF780FED7
:103F6000C120FDF77DFE3020FDF77AFEED20FDF744
:103F700093FE6420FDF774FE0320FDF771FE12200E
:103F8000FDF76EFE8120FDF76BFEE820FDF784FE55
:103F90008520FDF765FE0020FDF762FE7820FDF725
:103FA0005FFECB20FDF778FE3920FDF759FE2C206F
:103FB000FDF756FE0020FDF753FE3420FDF750FEBE
:103FC0000220FDF74DFEF720FDF766FE2020FDF7ED
:103FD00047FEEA20FDF760FE0020FDF741FE0020CD
:103FE000FDF73EFEB120FDF757FE0020FDF738FE3D
:103FF0001B20FDF735FEB620FDF74EFE0A20FDF72B
:104000002FFEA220FDF72CFEC020FDF745FE10205C
:10401000FDF726FEC120FDF73FFE1020FDF720FE34
:10402000C520FDF739FE4520FDF71AFE1520FDF7E6
:1040300017FEC720FDF730FE9020FDF711FE362059
:10404000FDF72AFEC820FDF70BFEF220FDF724FE47
:104050000020FDF705FEB020FDF71EFEC220FDF793
:10406000FFFDB620FDF718FE0A20FDF7F9FDA72099
:10407000FDF7F6FD2720FDF7F3FD0420FDF7F0FD29
:104080002A20FDF709FE0020FDF7EAFD0020FDF7DC
:10409000E7FD0020FDF7E4FDEF20FDF7E1FD2B201B
:1040A000FDF7FAFD0020FDF7DBFD0020FDF7D8FD50
:1040B0000120FDF7D5FD3F20FDF7D2FDF620FDF7ED
:1040C000EBFD0120FDF7CCFD0020FDF7C9FD06202A
:1040D000FDF7C6FD2C20FDF7DFFDC820FDF72AFE09
:1040E0002620FDF7D9FD0120FDF7BAFDE020FDF700
:1040F000D3FD0F20FDF7B4FD2920FDF7B1FD2420ED
:10410000FDF7AEFD0C20FDF7ABFD0E20FDF7A8FD81
:104110000920FDF7A5FD4E20FDF7A2FD7820FDF753
:104120009FFD3C20FDF79CFD0920FDF799FD132024
:10413000FDF796FD0520FDF793FD1720FDF790FD97
:104140001120FDF78DFD0020FDF78AFDE120FDF730
:10415000A3FD0020FDF784FD1620FDF781FD1B2047
:10416000FDF77EFD0420FDF77BFD1120FDF778FDB6
:104170000720FDF775FD3120FDF772FD3320FDF7B7
:104180006FFD4220FDF76CFD0520FDF769FD0C2059
:10419000FDF766FD0A20FDF763FD2820FDF760FDB1
:1041A0002F20FDF75DFD0F20FDF75AFD1120FDF7D3
:1041B00073FDC820FDF7BEFD2920FDF76DFDBDE8AC
:1041C00008402C20FDF768BD08B5FDF739FD032137
:1041D000D320FDF77DFD80B208BD10B5C4B2022228
:1041E00003212046FDF7E2FC0A20FDF727FD2046CB
:1041F00000220321FDF7DAFCBDE810400220FDF7A4
:104200001DBD38B50446E4B2FDF7CEFC00212046C2
:10421000FDF7E4FC012105462046FDF7DFFC40EAFE
:10422000052080B238BD10B5C4B240212046FDF74C
:10423000D5FC030607D54C212046FDF7CFFC0038FE
:1042400018BF012010BD01224B212046FDF7AEFC16
:10425000204600224B21FDF7A9FC0020F2E773B5B0
:104260000423C4B20E461546D7210DEB03022046A7
:10427000FDF7CEFC019B1BBA1A0DC3F30B23328052
:1042800020462B8001224B21FDF790FC00224B2180
:104290002046FDF78BFC02B070BD000010B50A4A45
:1042A0001378984204460DD0517888420AD00BB159
:1042B00041B90123D454FDF777FC2046BDE81040F6
:1042C000FFF78BBF10BD00BF9424002010B5C4B20F
:1042D00009212046FDF782FC40F00102D2B22046BF
:1042E0000921BDE81040FDF761BC10B5C4B2092139
:1042F0002046FDF773FC092100F0FE022046BDE8D0
:104300001040FDF753BC38B5C4B20D4620460A2113
:10431000FDF764FC40EA0502D2B220460A21BDE85E
:104320003840FDF743BC10B50446FDF73EFC20467F
:104330001F21FFF7E8FF2046BDE81040FFF7C6BF8A
:1043400038B5C4B20D4620460A21FDF747FC20EAE5
:104350000502D2B220460A21BDE83840FDF726BC4E
:1043600010B50446FFF7C1FF20461F21BDE81040ED
:10437000FFF7E6BF10B5C0B20C460B21FDF72EFCCF
:10438000204010BD1F21FFF7F5BF0A46C0B20B2128
:10439000FDF70CBC1F21FFF7F8BF38B5C4B20D46BE
:1043A00020461721FDF71AFC20EA0502D2B220466A
:1043B0001721BDE83840FDF7F9BB70B5C4B2064619
:1043C00004212046FDF70AFC042100F0FB0205460B
:1043D0002046FDF7EBFB3046F021FFF7DEFF05F04E
:1043E000F80220460421FDF7E1FB49222021204666
:1043F000FDF7DCFB0220FDF721FC204601222121F4
:10440000FDF7D4FB20469A224121FDF7CFFB204641
:1044100001224A21FDF7CAFB204601224B21FDF76C
:10442000C5FB204600224B21FDF7C0FB20460122A0
:104430005621FDF7BBFB204601225821FDF7B6FBB4
:10444000204601224021FDF7B1FB2046FF220B212F
:10445000FDF7ACFBBDE870400220FDF7EFBB0000AC
:10446000054BD3F8882042F47002C3F888204FF03F
:1044700000629A60704700BF00ED00E008B50B4B8A
:104480001A6842F400721A601A6842F480621A6074
:104490001A6842F480721A60032000F02FF800209E
:1044A000FDF78AFEFDF754FC002008BD003C0240E9
:1044B000034A044B11681B780B441360704700BF1C
:1044C0009824002078000020014B1868704700BF36
:1044D0009824002038B50446FFF7F6FF631C1CBF84
:1044E000054B1B78054618BFE418FFF7EDFF431B8B
:1044F000A342FAD338BD00BF780000200749CA683C
:1045000022F4E0620302120403F4E063120C13438A
:1045100043F0BF6343F40033CB60704700ED00E02D
:10452000164B30B5DC68C4F30224C4F10703251D23
:10453000042B28BF0423062D4FF0FF358CBF033C0E
:10454000002405FA03F321EA0303A54022EA050249
:10455000A340002843EA0203ACBF00F16040084AD0
:104560004FEA0313B8BF00F00F00DBB2AABF00F59B
:104570006140135480F8003330BD00BF00ED00E00F
:1045800014ED00E0002807DB044A4109012300F094
:104590001F00834042F82130704700BF00E100E077
:1045A00010B5044650B1437903F0FF0213B902710C
:1045B000FDF7EEFB01236371002010BD0120FCE735
:1045C00010B5044620B390F8393003F0FF021BB950
:1045D00080F83820FDF7F4FB022384F83930236893
:1045E00061681A6822F440320A431A605A6BA16863
:1045F00022F007020A435A631A6CE1686FF30D0256
:104600000A431A6400200123E06384F8393010BDA6
:104610000120FCE770477047036870B55E681D684D
:10462000F207044614D5E90512D51A6822F48072FF
:104630001A60C26B42F00102C26301229A60042335
:1046400080F83930002380F83830436903B1984747
:10465000B20616D5AB0414D523681A6822F40052AA
:104660001A6020229A60E36B43F00203E3630423A1
:1046700084F83930002384F8383063690BB1204660
:104680009847300716D5290514D523681A6822F4EF
:1046900000621A6008229A60E36B43F00403E3634C
:1046A000042384F83930002384F8383063690BB16F
:1046B0002046984772070BD56B0509D523681A6801
:1046C00022F480621A6004229A602046FFF7A2FF5B
:1046D000B00714D5A90512D523681A6822F4007210
:1046E0001A6002229A60E36BE363012384F8393095
:1046F000002384F8383023690BB120469847F2062E
:1047000013D5EB0411D523681A6822F480521A607D
:1047100010229A60E36BE363012384F839300023AD
:1047200084F838302046FFF776FF70BDF0B590F87A
:104730003820012A03464FF002002BD0012283F8D3
:10474000382083F8390003EB0112D2E90740556A9B
:10475000174F44EA0040093C012C9CBF05F07F4202
:1047600010434FEA01161A6888BF40EA056091B904
:10477000516A394001435162012C9969916103D812
:10478000596A21F07F4191620122002083F839208B
:1047900083F83800F0BDD16939400143D1619919DE
:1047A000012C896911619CBF25F07F451562EBE7FB
:1047B000F0FFFC002DE9F74FDFF8BC916C4A0023B5
:1047C0000D6801249C4004EA0506AC4340F0B78024
:1047D0004D68032705F003044FEA430807FA08FC75
:1047E000671E012F6FEA0C0C34D8876807EA0C0E9D
:1047F000CF6807FA08F747EA0E078760476827EA95
:10480000060EC5F300179F4047EA0E074760C768CA
:1048100007EA0C0E8F6807FA08F747EA0E07022C22
:10482000C76019D14FEAD30A00EB8A0A03F0070BDD
:10483000DAF820704FEA8B0B4FF00F0E0EFA0BFEDA
:1048400027EA0E0E0F6907FA0BF747EA0E07CAF8B8
:10485000207001E0032CDAD1076804FA08F407EAB3
:104860000C073C4315F4403F046068D000240194D9
:10487000D9F8444044F48044C9F84440D9F844404D
:1048800023F0030707F1804704F4804407F59C37C1
:10489000019403F0030C019CD7F808E04FEA8C0C5C
:1048A0000F2404FA0CF42EEA040E324CA0424DD030
:1048B00004F58064A0424BD004F58064A04249D046
:1048C00004F58064A04247D004F58064A04245D03E
:1048D00004F58064A04243D004F58064A04241D036
:1048E00004F58064A0423FD004F58064A0423DD02E
:1048F00004F58064A04214BF0A24092404FA0CF4CD
:1049000044EA0E04BC609468F74315F4801F0CBFA2
:104910003C4034439460D46815F4001F0CBF3C4005
:104920003443D460546815F4003F0CBF3C4034431A
:1049300054601468ED0354BF3C40344314600133A9
:10494000102B7FF43DAF03B0BDE8F08F0024D5E716
:104950000124D3E70224D1E70324CFE70424CDE7E1
:104960000524CBE70624C9E70724C7E70824C5E7E1
:10497000003C014000000240003802400369194237
:1049800014BF0120002070470AB1816170470904FB
:10499000FBE7436901EA030221EA030141EA02411C
:1049A0008161704701684B6913F480634FF0000226
:1049B00010D06FF480634B612023026380F83D3098
:1049C00080F83E20036C80F83C2043F0040303642D
:1049D00001207047184670472DE9F84606460F46F5
:1049E00091461D464FEA114A3368BAF1010F0CBFD8
:1049F0005C699C6927EA0404A4B2B4FA84F46409EB
:104A0000A14501D0002025E06A1CEED0FFF75CFD37
:104A1000089BC01AA84201D8002DE5D13368BAF12D
:104A2000010F0CBF5B699B6927EA03039BB2B3FAD2
:104A300083F35B099945D7D100232022336386F89D
:104A40003D2086F83E30326C86F83C3042F0200241
:104A500032640120BDE8F8862DE9F04104460F4696
:104A6000164698462568686927EA000080B2C0B1FA
:104A70006B695A0517D52B6843F400732B606FF4EC
:104A800080636B6120220023236384F83D2084F837
:104A90003E30236C43F004032364002384F83C304D
:104AA0000120BDE8F081731CDDD0FFF70DFDA0EB08
:104AB0000800B04201D8002ED4D123685A6927EAF1
:104AC000020292B2002ACDD000232022236384F870
:104AD0003D2084F83E30236C1343DDE770B5044677
:104AE0000D46164623685B691B0601D500201EE0B3
:104AF0002046FFF757FFC8B96A1CF3D0FFF7E4FC64
:104B0000801BA84201D8002DECD123685B6913F00B
:104B10008003E7D12022236384F83D2084F83E30CF
:104B2000226C84F83C3042F020022264012070BDE7
:104B30002DE9F0431546026885B0DDE90C78994609
:104B4000136843F4807313600E463B46CDF8008033
:104B500000224FF001110446FFF73EFF236838B1F1
:104B60001B68DB0502D54FF400732364032620E0A5
:104B700006F0FE061E611A4943463A462046FFF7F4
:104B80006BFFA8B9236803905A6903929B6903934A
:104B9000424639462046039BFFF7A0FF064660B118
:104BA000236C042B01BF2268136843F40073136065
:104BB0000126304605B0BDE8F083B9F1010F236846
:104BC00002D1EDB21D61F4E72A0A1A613946424664
:104BD0002046FFF783FF0028E2D12368F1E700BFFA
:104BE000020001002DE9FF479A46036815461A683E
:104BF00042F480621A601A68DDE90C7842F480722F
:104C00001A600E463B46CDF8008000224FF001119D
:104C10000446FFF7E1FE236838B11B68DB0544BF9B
:104C20004FF400732364032021E05FFA86F906F055
:104C3000FE061E612B4943463A462046FFF70CFF0D
:104C4000A0B9236803905A6903929B690393424673
:104C500039462046039BFFF741FF58B1236C042BD4
:104C600001BF2268136843F400731360012004B08D
:104C7000BDE8F087BAF1010F23681AD1EDB24246C0
:104C80001D6139462046FFF729FF02460028E5D17D
:104C900021680B6843F480730B602046CDF80080D8
:104CA0003B464FF00111FFF797FE226860B1136891
:104CB000B4E72A0A1A61394642462046FFF70EFF3A
:104CC0000028CBD12368D9E749F0010313610549D6
:104CD00043463A462046FFF7BFFE003818BF012082
:104CE000C5E700BF0200010070B504460D46164638
:104CF00023685B695B0701D500201EE02046FFF7B3
:104D000051FEC8B96A1CF3D0FFF7DEFB801BA84236
:104D100001D8002DECD123685B6913F00403E7D1BF
:104D20002022236384F83D2084F83E30226C84F8EE
:104D30003C3042F020022264012070BD70B5044670
:104D40000D46164621684B6913F0400301D0002040
:104D500011E04A69D2060FD56FF010024A61202295
:104D6000236384F83D2084F83E30236C23640023C1
:104D700084F83C30012070BDFFF7A6FB801BA842E1
:104D800001D8002DDED123685B6913F04003D9D12F
:104D90002022236384F83D2084F83E30236C1343A3
:104DA000E4E7000070B5044608B9012070BD90F832
:104DB0003D3003F0FF021BB980F83C20FDF722F8DC
:104DC000242384F83D3023681A6822F001021A6017
:104DD0001A6842F400421A601A6822F400421A600B
:104DE00000F0A8FE3F4B65689D4294BF3E4B3F4B91
:104DF00098428CBF00230123002BD6D12268394E64
:104E000051683B4BB0FBF3F321F03F011943B5422E
:104E1000516088BF4FF49676116A88BF734321F0C2
:104E20003F0184BF4FF47A76B3FBF6F301330B43B3
:104E30001362D169431E2B4821F44F41854221F072
:104E4000FF0132D86D0040F6FC70B3FBF5F301337F
:104E5000034242D0C3F30B031943D161D4E90730B5
:104E60001168034321F0C0010B4313609168D4E93A
:104E7000030321F40341034321F0FF010B4393603B
:104E8000D4E90530D168034321F0FF010B43D3601F
:104E9000136843F00103136000202023206484F88A
:104EA0003D30206384F83E0080E7A06850B905EBF0
:104EB0004505B3FBF5F30133C3F30B037BB143F4B7
:104EC0000043C9E719206843B3FBF0F30133C3F390
:104ED0000B0323B143F44043BEE70423BCE70123A3
:104EE000BAE700BFA08601007F841E00FF083D00D6
:104EF00040420F002DE9F743044699460C9E0F46A9
:104F00009046FFF7E1FA94F83D30202B054603D098
:104F1000022003B0BDE8F08300903C491923012230
:104F20002046FFF759FD0028F2D194F83C30012BC0
:104F3000EED02068012384F83C300368D9075EBFB7
:104F4000036843F001030360036823F40063036014
:104F5000212384F83D30402384F83E30002323642D
:104F60000A9B6362BDF82C306385638D2385284BD3
:104F7000E3624246CDE900654B4639462046FFF7DD
:104F8000D7FD00282AD00120C3E7FFF7A7FD40B1D5
:104F9000236C042B01BF2268136843F40073136071
:104FA000F1E7636A27681A4612F8011B39616262E9
:104FB000628D218D013A92B262857A69481E80B273
:104FC000520720850AD548B15A783A6102336362A4
:104FD000638D013B02399BB221856385238D2A466F
:104FE00031462046002BD0D1FFF77EFE0028CFD1DE
:104FF0002268136843F400731360202384F83D3063
:1050000084F83C0084F83E0083E700BF02001000F3
:105010000000FFFF2DE9F043044687B09946109F3A
:105020000D469046FFF750FA94F83D30202B064687
:1050300004D00225284607B0BDE8F08300907A49E5
:10504000192301222046FFF7C7FC0028F1D194F86C
:105050003C30012BEDD02068012384F83C300368FC
:10506000DB075EBF036843F001030360036823F4BA
:1050700000630360222384F83D30402384F83E30EF
:10508000002323640E9B6362BDF83C306385638D0F
:105090002385664BE3622946CDE900764B464246BE
:1050A0002046FFF79FFD054608B10125C2E7228D86
:1050B0002368B2B902905A6902929A690292029ADE
:1050C0001A6842F400721A60DFF86481238D002BA5
:1050D0002CD1202284F83D2084F83C3084F83E30E6
:1050E000A8E7012A0AD11A6822F480621A600390A4
:1050F0005A6903929A690392039AE1E7022A0ED150
:105100001A6822F480621A601A6842F400621A6017
:1051100004905A6904929B690493049BD4E7059018
:105120005A6905929B690593059BCDE7032B56D8D9
:10513000012B15D1324639462046FFF7FFFD0028E6
:10514000B3D123681A69636A1A70636A01336362B0
:10515000238D013B2385638D013B9BB26385B5E7BE
:10516000022B00963B464FF000024146204619D1E3
:10517000FFF732FC002898D123681A6842F40072C5
:105180001A601A69636A1A70626A531C6362238D1B
:10519000013B2385638D013B9BB2638523681B69BB
:1051A0005370D2E7FFF718FC024600287FF47DAF6A
:1051B0002368196821F4806119601969636A19709C
:1051C000636A01336362238D013B2385638D013B59
:1051D0009BB26385414600963B462046C8E732466F
:1051E00039462046FFF7AAFD00287FF45EAF23680A
:1051F0001A69636A1A70628D616A013A92B24B1C35
:10520000628522686362238D5069013B9BB240072F
:1052100023857FF55BAF032B02BF136823F4806304
:10522000136013694B7090E7020010000000FFFF4D
:105230000400010010B590F83D30202BDCB216D1EF
:10524000242380F83D3003681A6822F001021A60B6
:105250005A6A22F010025A625A6A114359621A6855
:1052600042F001021A6080F83D40002010BD02208B
:10527000FCE730B590F83D30202BDCB216D1026847
:10528000242380F83D30136823F001031360556A2E
:105290004FF6F0732B400B439BB25362136843F0FD
:1052A0000103136080F83D40002030BD0220FCE780
:1052B0000068D1F800C0D201843283182DE9F04390
:1052C000C6685D684C68D1F8189005F470455D605B
:1052D000C5680CF10107C5F30B45C6F30B46264420
:1052E0003D4445EA06455D60C668CD68C6F30A06DA
:1052F0002E449D6805F470459D60C7688D68C7F3AE
:105300000A0701353D4445EA06459D601D690E6961
:1053100025F007051D614FF0000E1E6191F83270F7
:105320009D6991F83180C3F818E091F8305045EA52
:10533000096545EA082545EA07459D615D6925F04F
:10534000FF055D614D695D61DD6925F4E06525F06E
:105350000705DD61D1E907573D43DD619D6A4D6A6F
:10536000C3F828E0072E9D629CBF0E4DAE5DDD6A3E
:1053700005F0E025DD6288BF01268D6AC96AA4EBCD
:105380000C0474437543033444EA0544DC621C6B2B
:105390006FF30A041C631963835843F001038350BD
:1053A000BDE8F083D04B020838B50446002863D02E
:1053B00090F8A13003F0FF021BB980F8A020FCF7A1
:1053C0007DFD022384F8A13023689A6922F070429F
:1053D0009A61D4E901200243E06899690243206997
:1053E00002430A439A619A68244960690A409A60B4
:1053F0009A6842EA0042A06902439A60DA68E0696A
:105400000A40DA60DA6842EA0042206A0243DA605F
:105410001A69606A0A401A611A6942EA0042A06A7F
:1054200002431A615A690A405A615A69E16A42EABA
:105430000142216B0A435A61DA6A94F8350094F804
:10544000361002F07F42DA62DD6A94F834202A4393
:1054500042EA002242EA0142DA625A6B42F0060254
:105460005A639A6942F001029A6100200123C4F84C
:10547000A40084F8A13038BD0120FCE700F800F05A
:1054800070477047036870B59E6B5D6B720704468A
:1054900014D5690712D55A6B22F004025A6304220C
:1054A000DA63D0F8A43043F00103C0F8A43000233D
:1054B00080F8A12080F8A030FFF7E2FFB20716D5F0
:1054C000AB0714D523685A6B22F002025A630222FA
:1054D000DA63D4F8A4301343C4F8A430042384F866
:1054E000A130002384F8A0302046FFF7C9FFF00761
:1054F00010D5E9070ED523685A6B22F001025A63D2
:105500000122DA63002384F8A12084F8A030204629
:10551000FCF782F8320711D52B070FD523685A6B99
:1055200022F008025A630822DA63012384F8A130CA
:10553000002384F8A0302046FFF7A3FF70BD2DE9BB
:10554000F04190F8A030012B06460F4694464FF0EC
:1055500002001FD04FF0010886F8A08086F8A10055
:1055600034240D4604FB02640FCD38340FC40FCD34
:105570000FC40FCD0FC42B682360304662463946F6
:10558000FFF796FE33680020C3F8248086F8A180D8
:1055900086F8A000BDE8F08190F8A020012A03461B
:1055A0004FF0020012D01A6883F8A100506B20F06F
:1055B0000100506306480164516B41F001015163E1
:1055C0000020012283F8A12083F8A000704700BFCB
:1055D0000068014037B500230193184B184D1A6C31
:1055E00042F080521A641B6C03F080530193019BBC
:1055F000144B01221A64FEF767FF04466B68DA0356
:105600000BD5104B0E4D01225A64FEF75DFF044688
:105610006B689B030AD5002006E0FEF755FF001BD0
:10562000B0F57A7FEAD9032003B030BDFEF74CFF16
:10563000001BB0F57A7FEBD9F5E700BF00380240D8
:105640000070004000000E422DE9F341044640B3D3
:105650000368DE0710D423689D075BD4236819070D
:1056600000F19D8023685A0700F1BD80A369002BDB
:1056700040F0248100202CE08D4B9A6802F00C024F
:10568000042A07D09A6802F00C02082A0BD15B6842
:10569000590208D5864B1B689A03DCD56368002B3A
:1056A000D9D1012015E06368814DB3F5803F13D156
:1056B0002B6843F480332B60FEF706FF7C4E0546D3
:1056C00033689B03C7D4FEF7FFFE401B6428F7D95D
:1056D000032002B0BDE8F081B3F5A02F04D12B6800
:1056E00043F480232B60E3E72A6822F480322A60A7
:1056F0002A6822F480222A60002BDDD1FEF7E4FE26
:1057000006462B689F03A6D5FEF7DEFE801B6428A5
:10571000F7D9DDE7664B9A6812F00C0F07D09A684C
:1057200002F00C02082A11D15B685D020ED4604AB7
:105730001368990702D5E368012BB2D11368216978
:1057400023F0F80343EAC103136087E7E268594B8B
:10575000B2B101221A60FEF7B7FE554D06462B681E
:105760009B0707D52B68226923F0F80343EAC2039D
:105770002B6073E7FEF7A8FE801B0228EFD9A7E78E
:105780001A60FEF7A1FE4A4E054633689F077FF573
:1057900065AFFEF799FE401B0228F6D998E76269CB
:1057A000444B82B10122C3F8802EFEF78DFE404E9D
:1057B0000546736F9B073FF555AFFEF785FE401B0F
:1057C0000228F6D984E7C3F8802EFEF77DFE384E16
:1057D0000546736F9F077FF545AFFEF775FE401BCB
:1057E0000228F6D974E7324B1A6C12F0805228D195
:1057F00001921A6C42F080521A641B6C03F08053C1
:105800000193019B01272C4D2B68D8051BD5A3685C
:10581000274D012B27D12B6F43F001032B67FEF798
:1058200053FE234E054641F28838336F9A0739D527
:10583000002F3FF41BAF1E4A136C23F080531364F8
:1058400014E70027DFE72B6843F480732B60FEF733
:105850003BFE06462B68D905D9D4FEF735FE801BE2
:105860000228F7D934E7052B04D12B6F43F004034A
:105870002B67D0E72A6F22F001022A672A6F22F0F5
:1058800004022A67002BCAD1FEF71EFE41F28838B7
:1058900006462B6F9B07CBD5FEF716FE801B4045B7
:1058A000F7D915E7FEF710FE401B4045BDD90FE7BD
:1058B000003802400000474200700040374DAA689F
:1058C00002F00C02082A3ED0022B354B4FF00002AA
:1058D0001A662BD1FEF7F8FD06462B6899011FD4F6
:1058E000D4E907321343626A43EA8213E26A43EA65
:1058F0000263A26A5208013A43EA02436B60284BF2
:10590000264D01221A66FEF7DFFD04462B689A0138
:105910003FF5B0AEFEF7D8FD001B0228F6D9D7E65A
:10592000FEF7D2FD801B0228D7D9D1E6FEF7CCFDC9
:1059300004462B689B017FF59DAEFEF7C5FD001B5D
:105940000228F6D9C4E6012B3FF4ABAE6B68E269DE
:1059500003F4800191427FF4A4AE216A03F03F0278
:105960008A427FF49EAE616A47F6C0721A40B2EB7B
:10597000811F7FF496AEA26A520803F44031013AC7
:10598000B1EB024F7FF48DAEE26A03F07063B3EBCC
:10599000026F14BF012000209BE600BF00380240C8
:1059A00000004742134908B58B6803F00C03042B31
:1059B0001CD0082B1CD14A684B68496813F480033B
:1059C00014BF0D480D48C1F3881118BF002302F021
:1059D0003F02A1FB0001FAF7ABFC064B5B68C3F387
:1059E000014301335B00B0FBF3F008BD0248FCE764
:1059F0000248FAE70038024000127A000024F4005E
:105A00002DE9F0410D46044610B90120BDE8F081B2
:105A1000434B1A6802F00F028A4228D321688F078D
:105A20002DD4C80740D43E4B1A6802F00F02AA4298
:105A300065D8226851076BD4130707D5394A216905
:105A4000936823F4604343EAC1039360FFF7AAFF1E
:105A5000344B354A9B68C3F30313D35CD840334BB4
:105A60001860334B1868FCF7A7FB0020CEE7CAB2DA
:105A70001A701B6803F00F038B42C6D1CEE7294B87
:105A800011F0040F1EBF9A6842F4E0529A600E07AC
:105A900042BF9A6842F460429A609A68A06822F015
:105AA000F00202439A60BCE762681E4B012A1CD1D7
:105AB0001B6813F4003FA8D01A4EB36823F0030309
:105AC0001343B360FEF700FD41F288380746B36820
:105AD000626803F00C03B3EB820FA4D0FEF7F4FC72
