:020000040800F2
:10000000000003206D0600080D2500080F250008DC
:100010001125000813250008152500080000000020
:10002000000000000000000000000000F17B00085C
:100030001725000800000000817C000803750008F7
:10004000BD060008BD060008BD060008BD06000884
:10005000BD060008BD060008BD060008BD06000874
:10006000BD060008BD060008BD060008BD06000864
:10007000BD060008BD060008BD060008BD06000854
:10008000BD060008BD060008BD060008BD06000844
:10009000BD060008BD060008BD060008BD06000834
:1000A000BD060008BD060008BD060008BD06000824
:1000B000BD060008BD060008BD060008BD06000814
:1000C000BD060008BD060008BD060008BD06000804
:1000D000BD060008BD060008BD060008BD060008F4
:1000E000BD060008BD060008BD060008BD060008E4
:1000F000BD060008BD060008BD060008BD060008D4
:10010000BD060008BD060008BD060008BD060008C3
:10011000BD060008BD06000819250008BD06000838
:10012000BD060008BD060008BD060008BD060008A3
:10013000BD060008BD060008BD060008BD06000893
:10014000BD060008BD060008BD060008BD06000883
:10015000BD060008BD060008BD060008BD06000873
:10016000BD060008BD060008BD060008BD06000863
:10017000BD060008BD060008BD060008000000001E
:10018000BD060008BD060008BD060008BD06000843
:10019000BD060008BD060008BD060008BD06000833
:0C01A00025250008BD06000831250008D8
:1001B00010B5054C237833B9044B13B10448AFF3A1
:1001C00000800123237010BD800300200000000088
:1001D0000047020808B5034B1BB103490348AFF3BE
:1001E000008008BD000000008403002000470208D2
:1001F000034613F8012B002AFBD1181A0138704767
:1002000001F0FF01102A2BDB10F0070F08D010F8C7
:10021000013B013A8B422DD010F0070F42B3F6D1CB
:10022000F0B441EA012141EA014122F007047FF0E4
:1002300000070023F0E80256083C85EA010586EA3B
:10024000010685FA47F5A3FA87F586FA47F6A5FA77
:1002500087F68EB9EED1F0BC01F0FF0102F0070283
:1002600032B110F8013B013A83EA010313B1F8D12E
:100270000020704701387047002D06BF354603380F
:10028000073815F0010F07D1013015F4807F02BF48
:10029000013015F4C03F0130F0BC0138704700BF99
:1002A0007BB972B90029BEBF00204FF0004106E0C3
:1002B00008BF00281CBF6FF000414FF0FF3000F076
:1002C000D3B9ADF1080C6DE904CE002909DB002B90
:1002D0001ADB00F04DF8DDF804E0DDE9022304B09C
:1002E0007047404261EB4101002B1BDB00F040F8FE
:1002F000DDF804E0DDE9022304B0404261EB410196
:10030000524263EB43037047524263EB430300F0F6
:100310002FF8DDF804E0DDE9022304B0404261EB90
:1003200041017047524263EB430300F021F8DDF8CE
:1003300004E0DDE9022304B0524263EB430370475B
:1003400053B94AB9002908BF00281CBF4FF0FF313C
:100350004FF0FF3000F088B9ADF1080C6DE904CE24
:1003600000F006F8DDF804E0DDE9022304B0704790
:100370002DE9F047089D8E4604468846002B4AD159
:100380008A42174662D9B2FA82F64EB1C6F120030C
:1003900001FA06F820FA03F3B74043EA0808B4402C
:1003A0004FEA174E1FFA87FCB8FBFEF1230C0EFB39
:1003B000118843EA084301FB0CF29A4209D9FB1861
:1003C00001F1FF3080F0EA809A4240F2E780023982
:1003D0003B449A1AA3B2B2FBFEF00EFB102243EA92
:1003E000024300FB0CFC9C4509D9FB1800F1FF32CD
:1003F00080F0D6809C4540F2D3803B44023840EAEE
:100400000140A3EB0C0300211DB1F3400022C5E91C
:100410000032BDE8F0878B4205D90DB1C5E9000176
:1004200000210846F5E7B3FA83F1002946D1734568
:1004300002D3824200F20581841A6EEB030201208E
:100440009046002DE5D0C5E90048E2E7002A00F01B
:100450009080B2FA82F6002E40F0A4808A1A030C33
:100460004FEA174E80B2BCB20121B2FBFEFC0EFB7C
:100470001C2243EA024304FB0CF29A4207D9FB1800
:100480000CF1FF3802D29A4200F2E080C4469B1A77
:10049000B3FBFEF20EFB123340EA034302FB04F40B
:1004A0009C4207D9FB1802F1FF3002D29C4200F2B5
:1004B000CA8002461B1B42EA0C40A5E7C1F1200698
:1004C0008B4022FA06F71F430EFA01F420FA06F3D6
:1004D0002EFA06FE4FEA1749234300FA01F81FFAE5
:1004E00087FCBEFBF9F01C0C09FB10EE44EA0E443D
:1004F00000FB0CFEA64502FA01F209D93C1900F1F5
:10050000FF3A80F09C80A64540F2998002383C4436
:10051000A4EB0E041FFA83FEB4FBF9F309FB1344AA
:100520004EEA044403FB0CFCA44508D93C1903F132
:10053000FF3E80F08280A4457FD9023B3C4443EAE1
:100540000040A4EB0C04A0FB02EC64457346E146BA
:1005500062D35FD05DB1B8EB030264EB090404FA27
:1005600006F622FA01F31E43CC40C5E900640021DF
:100570004FE7B1FBF2FC010C41EA0E4180B240EAC8
:1005800001423B4638463C46B846BE462026B1FBB3
:10059000F7F1A2EB080241EA0C4166E7014618E7D1
:1005A00010462CE7C6F120022EFA02F3B740B14004
:1005B00020FA02F24FEA174E0A43B3FBFEF8BCB230
:1005C0000EFB1833110C41EA034108FB04F9B0405B
:1005D00089454FEA104380B23ED9791808F1FF3CB3
:1005E00001D289451FD8A1EB0901B1FBFEF909FB36
:1005F00004F80EFB191192B242EA0142424529D297
:10060000BA1809F1FF31C4D24245C2D2A9F10201A0
:100610003A44BEE7F0459DD2BEEB02036CEB070CFB
:100620000138E14696E7A7EB09094944A8F1020C15
:10063000B1FBFEF909FB04F8DBE773467FE75046A0
:1006400066E70846FDE63B44023A33E7ACF1020CAC
:100650003B441CE749469CE7A1EB0901C446B1FBBA
:10066000FEF909FB04F8C4E7704700BFDFF834D097
:10067000002103E00C4B5B58435004310B480C4BFA
:1006800042189A42F6D30B4A02E0002342F8043B98
:10069000094B9A42F9D304F055F923F01BF901F004
:1006A0005DF8704700000320D8E803080000002030
:1006B00064010020800300207C410120FEE7704798
:1006C00008B500F0BBFDBDE8084000F03FBD00F0FC
:1006D000B7BD704710B50421044621F0EDFE204659
:1006E00010BD000038B50C4B0C4C18800C4B822010
:1006F00019806368984740F6110398420AD1094D62
:1007000023682C60822098472B688220DB689847FA
:10071000002038BD0120FCE7A60300204C0000208B
:10072000A4030020A80300204FF4A071F020FFF7DD
:10073000D9BF0000F7B5394D2B6804461B698220EC
:100740009847208000284ED02B680DF106025B6987
:1007500001A982209847324B1B78002B4BD0BDF863
:10076000062040F674639A423FD9ADF80630BDF8D2
:1007700006209B1A9BB20A2B42D90B22B3FBF2F341
:10078000284A1288934201D9013A93B2BDF8042055
:10079000254840F6B8318A4234D8C2F571620E322B
:1007A000016892B20F25B2FBF5F2204D2D88AA42C6
:1007B00084BF05F1FF35AAB28A4215468EB22AD906
:1007C000921B91B21A4E3768BB42BAB28CBF9A1ACA
:1007D000D21A92B211440529C4BF05603360036880
:1007E00063803368A38003B0F0BDB32A9CBFB422FA
:1007F000ADF80620BBE7BDF80630A3F5B473B9E742
:100800000023C3E7C2F56D62083292B20E2A016876
:10081000C8D800252A46891A89B2D3E7A803002040
:1008200024230020A4030020A0030020A60300200E
:100830009C03002037B568460D461446FFF77AFF43
:10084000BDF8000030B1BDF802302B60BDF80430B7
:100850002360012003B030BD032821D8DFE800F079
:10086000020B12190F4B1A68B2FA82F252090421D4
:100870000D4804F011BD0B4B5A68B2FA82F25209CE
:100880000821F5E7074B9A68B2FA82F25209102163
:10089000EEE7044BDA68B2FA82F252092021E7E768
:1008A000704700BFAC03002000100240032821D88D
:1008B000DFE800F0020B12190F4B1A68003A18BF5C
:1008C000012204210D4804F0E7BC0B4B5A68003AA2
:1008D00018BF01220821F5E7074B9A68003A18BFB4
:1008E00001221021EEE7044BDA68003A18BF01221A
:1008F0002021E7E7704700BFAC0300200010024052
:1009000003280DD8DFE800F00206080A0421054894
:1009100004F0C7BC0821FAE71021F8E72021F6E728
:10092000704700BF0010024008B5032811D8DFE867
:1009300000F0020A0C0E0421074804F0A7FC431E35
:100940005842584108BD0821F6E71021F4E720215C
:10095000F2E70020F3E700BF0010024070B5084D39
:1009600000240126E0B2FFF7DFFF18B12B68012B4E
:1009700018BF2E600134052C05F10405F2D170BDBD
:10098000AC030020012380F8781080F8793070479C
:100990007047002070470000034B4164003918BFC6
:1009A00001211970704700BF3B34012070470020BF
:1009B0007047836B0BB10846184770474FF6FF70BE
:1009C0007047406803689B691847704770477047D5
:1009D0007047704710B5044600F048FD236803498E
:1009E000D3F890302046BDE810401847000000D0F2
:1009F00008B503680446D3F8843098472368204636
:100A0000DB6F984700F0ECF8236820465B6F98474F
:100A1000292001F093F900F0E3F8236820465B6F8A
:100A20009847F8E710B5044609F0F8FE2368204619
:100A3000D3F8BC30BDE81040184700F0FBBC00F014
:100A4000FFBC00F031BD00F0D1BC00F041BD00F0B2
:100A500049BD00F0D5BC09F00FB910B5842104469A
:100A600021F02AFD204610BD10B590F8341090F802
:100A700078400C4B8C421A7809D03AB90A4A0B4993
:100A80001488088810800C8001221A7010BD002A7A
:100A9000FCD0054A05491488088810800C80002283
:100AA000F3E700BF34340120303401203234012018
:100AB00070B50D46194635B9094B0A4A0A4840F245
:100AC000FF2122F035FCC0E90F52084B003A18BF55
:100AD00001221A700368BDE87040D3F890301847BF
:100AE00070470208A8470208F64702083A34012076
:100AF00008B5094B1B888B4203D8084B1B889342CF
:100B000005D9074B074A0848A32122F011FC074BDF
:100B10001980074B1A8008BD30340120323401207F
:100B20003B4802089E480208F64702083634012076
:100B300038340120034690F87A0018B158680368E9
:100B40001B68184770470000012108B500220846BD
:100B500006F060FD0A4B186028B90A4B0A4A2821A2
:100B60000A4822F0E5FB00220421012006F0FAFDEC
:100B7000074B186018B9074B034A2C21F0E708BD52
:100B8000C0030020E14802082A4902085949020826
:100B9000BC0300208F490208024B4FF0FF31186858
:100BA00006F082BDC0030020014B186806F0A8BD06
:100BB000C0030020024B0021186806F075BD00BF7D
:100BC000C0030020FFF7F0BF03480449006800237A
:100BD0001A4606F002BE00BFBC030020040000203D
:100BE00013B5084C00231A4601A9206806F026FE1A
:100BF00020684FF0FF33002201A906F01FFE02B06B
:100C000010BD00BFBC03002003685B6C18470120C7
:100C1000704703689B6A1847FEE740F2EF30704761
:100C2000054B0360054B4FF08062C3F88820BFF38B
:100C30004F8FBFF36F8F70479854020800E100E0B8
:100C400010B504464FF45A61FFF7EAFF204621F041
:100C500033FC204610BD000082B0002301930E4BF0
:100C60001A6B42F400021A631A6B02F4000201923A
:100C7000019A1A6942F400021A611A6922F4000208
:100C80001A61064B064A1A61064A5A61064B4FF032
:100C900080629A6002B07047003802400025002050
:100CA000F90E0008190C000800E100E008B50A2858
:100CB00009D8DFE800F006100E0808080810101028
:100CC0001000022008BD054B054A0648902122F07D
:100CD0002FFB0020F6E70120F4E700BFD14902080E
:100CE000EC490208374A020838B50C46887FFFF7FE
:100CF000DDFFA58AE28A164B2169586342EA054264
:100D00005A64628BD963521B1A642568082D0ED170
:100D10009A611A615862207F0E4A42EA0062DA61E3
:100D2000E2681A620C4A5961D9601A6038BD002223
:100D3000D8611A61E1680A0A480902F4784200F4AD
:100D4000FC600243C1F3C4010A439A63034AECE71F
:100D500000B002400900010001230200012303004A
:100D600008B50B280BD8DFE800F00612100A0A0AB3
:100D70000A0808080808022008BD0520FCE7054B02
:100D8000054A06486F2122F0D3FA0020F4E701203B
:100D9000F2E700BFD14902086B4A0208374A02084D
:100DA0002DE9F04191F81D800C464046FFF7D8FF31
:100DB000A77F05463846FFF7D3FF06463846FFF7BC
:100DC00075FFA18A628B444B521A1A649A61228B76
:100DD000521A1A61E28A586342EA01425A6421694E
:100DE0006268D963DA602068802828D0227F0FD813
:100DF000202867D0402865D004281AD0364B45EA11
:100E0000026545F40035B845DD6161D0334A44E000
:100E1000B0F5807F04D0B0F5007FEFD1304800E01E
:100E2000304840EA0262DA61E2681A625E62596141
:100E300032E045EA026242F40032DA61F6E7A06885
:100E4000021DDA62227F45EA026545F40035DD6164
:100E50005E625961017841B1012921D0224B234AB8
:100E600023484FF48D7122F063FADA69418822F445
:100E70007F42013922F0100242EA0122DA610121A7
:100E8000154BDA6942F02002DA61DA699206FCD485
:100E900010229A600029B9D0164A1A60BDE8F08184
:100EA000B2F1FF01DA69408822F47F4200F1FF309D
:100EB00022F0100242EA002242F0100218BF012183
:100EC000DA61DDE745EA0262034B42F40032B4E73F
:100ED00042F20132E1E700BF00B00240012301000D
:100EE000090002000A000200B54A0208CF4A0208BF
:100EF000374A020801230200024B1B685868036846
:100F00005B6918473C34012070B5044625460A4BFE
:100F10000C30002660602672667245F8203B602225
:100F2000294609F0D1FD04F55A63EE6024359D424F
:100F3000FBD1204670BD00BF98540208034B1A68CD
:100F4000D207FCD423229A60704700BF00B0024051
:100F50007047000030B50F4C2568ED07FCD4232501
:100F60000904A56041F001010225FF2B656361645E
:100F7000E0630AD00849656241EA0363E361074B15
:100F800022626061E060236030BDE561039BA36382
:100F9000034BF8E700B00240090001000100020025
:100FA0000100030030B50E4C2568ED07FCD4232565
:100FB0001204A56042F001020225FF2B6563626402
:100FC000E063E16008D01B0643F00213E361054BC8
:100FD00065626061236030BD034BE3610123F9E783
:100FE00000B0024001000200020002FF30B50B4CCD
:100FF0002568ED07FCD4232512041B06A56043F4E5
:101000000033022542F0010265636264E063E1603F
:10101000E361034B65626061236030BD00B0024054
:1010200001000200012070470C2070470C2303FBD5
:101030000100083070470C2303FB010008307047A3
:101040000120704740F61460704740F6146303FBBC
:1010500001000830704740F6146303FB01000830BC
:101060007047012070471020704700EB01100830D6
:10107000704700EB011008307047084601F0FABCD9
:1010800010B5034B0360044608F04DFB204610BD2D
:101090005055020810B50446FFF7F2FF2046142110
:1010A00021F00AFA204610BD10B5034B0360044638
:1010B00008F039FB204610BD1C55020810B5044647
:1010C000FFF7F2FF204640F61C6121F0F5F92046BB
:1010D00010BD000010B5034B0360044608F023FB6D
:1010E000204610BDE854020810B50446FFF7F2FF91
:1010F0002046182121F0E0F9204610BD10B5084B1C
:101100000360044600F64860FFF7BAFF04F12C00C4
:10111000FFF7CAFF04F11400FFF7DCFF204610BD03
:101120008455020808B50248FFF7E8FF08BD00BF74
:101130009C12002010B50446FFF7E0FF204640F661
:10114000BC7121F0B9F9204610BD00002DE9F34132
:1011500001F062FA054601F063FA002401462346D5
:1011600028462246009412F0F5F8274B274A1A60C9
:10117000204602F0E5FE264D264B274A27489A6076
:1011800012F050F82B68BFF35B8FDB0735D428468D
:1011900021F094F988B3224C224B236004F5666653
:1011A00004F1140004F12C0804F648676060C4F8E8
:1011B0000880E760266108F0B7FA1B4B6361404680
:1011C00008F0B2FA194BE362384608F0ADFA184B52
:1011D000C4F8483E04F65C6002F036FF224604F68E
:1011E0005C61304602F026FF304601F043FC1148B6
:1011F00022F0BCF8284621F06DF90F4802B0BDE896
:10120000F041FFF7E7BB00BFA034012048040020F5
:1012100098120020680400204C04002008000020E0
:101220009C12002084550208E85402081C5502084C
:101230005055020825110008C40300207047000023
:101240000148FFF7D5BB00BFC403002070B5264E90
:10125000264C274D274B23603046FFF755FE284686
:1012600017F07EF924480FF085FD244B2448DC60FC
:1012700000224FF48071C3E9121222491A86C3E991
:101280001A12214983F85820C3E91E011F49C3F8E7
:1012900080101F491F480B60F021C3E90422C3E9F5
:1012A0000622C3E90822C3E90A22C3E90E22C3E9E0
:1012B0001022C3E91422C3E917225A6683F870206A
:1012C0005A67C3E9016501801348018013484FF450
:1012D000A07101801248018012490A70012283F82E
:1012E0003420114A1A6070BDF404002094120020CA
:1012F00068040020604702084C040020C40300205A
:101300000000010101000001000450001A00140057
:101310003C340120303401203634012032340120A5
:101320003834012034340120AC5302080148FFF75F
:1013300077BC00BFF4040020002070478180704714
:10134000C180704701817047418170477047704785
:1013500070477047704710B4C4880368121B8488B4
:101360005B6D091B12B25DF8044B09B218474FF6CA
:10137000FF7383814FF0FF3303621368C361106012
:101380007047002070478B8883800120704770472A
:1013900080F82610704790F82600704710B500229C
:1013A000B1F90840B1F90A10028042808480C180FE
:1013B00010BD0022028042808280C2807047017787
:1013C000704780ED080A704780F82410704780F855
:1013D0002510704701207047983070478C30704757
:1013E000843070477047704770470000034B90226D
:1013F00083F85A2383F85823704700BF00E100E0C8
:10140000094A0A49D3680A48C3F30A03013B9BB25D
:101410000B801169C1F30A01013901801364536B18
:1014200043F0010353637047006801405A220020D3
:1014300058220020014BD3F8AC00704700680140EF
:10144000024B0122C3F8AC105A6270470068014099
:1014500010B52C21044621F02FF8204610BD10B500
:10146000BC21044621F028F8204610BD70B5044682
:1014700008F057FC23689D6E0EF014FA01462046D2
:10148000A8472368054AD3F88C502046AC46002371
:10149000BDE87040A2F51631604700BF00B004D02F
:1014A00008F026BC08F030BC08F0ECBB08F05BBDCF
:1014B00090F8252012B103685B691847704790F8CF
:1014C00025201AB190F8242002B11860704700005E
:1014D000034B4FF080629A604FF080729A607047C1
:1014E00000E100E0084B4FF08062C3F88820BFF3B2
:1014F0004F8FBFF36F8F4FF08072C3F88820BFF318
:101500004F8FBFF36F8F704700E100E070B500238D
:10151000124E8380124B0360336893F858200546BF
:101520000AB1D86C00B998680368DB6A98473368D9
:10153000B0FA80F4D86C640930B10368DB6A98476C
:10154000002808BF44F001042CB9064B064A07489E
:101550002C2121F0EDFE284670BD00BF3C34012057
:10156000985502080D4B02086B4B0208A44B020869
:1015700070B5254E3568BFF35B8F15F0010540D17E
:10158000304620F09BFF00283BD0204C204B2561AB
:1015900004F13400C4E90035C4E90255E584A562CC
:1015A000A5850FF0CCFE04F158000AF041FF194B5D
:1015B000A3652046184B40F8843BFFF7A7FF174B65
:1015C000C4F884302433C4F88C304FF4C803C4E921
:1015D00028350023C4F8AC30C4F8B030C4F8B430B7
:1015E000C4F8B8300E480F4BC4F89050C4F89C5063
:1015F000C4F8A850C4F8983021F0B8FE304620F066
:1016000069FF024870BD00BF5C22002060220020FC
:10161000785C0208B8550208305602082C5C0208B3
:10162000E91300080C5C020838B5184C23685BB35A
:10163000174B184A1B6C11888B4216D1164B198810
:1016400004F032FC236893F86A200025013283F805
:101650006A2083F87C50FFF7B7FA206809F0DEF8BB
:101660002846BDE83840FFF7F7B804F01DFC2468B1
:10167000236820461B6A9847012384F87C300020A9
:10168000BDE83840FFF712B938BD00BF3C34012037
:10169000006801405A2200205822002007B5064B5E
:1016A000ADF806001B68054801220DF1060105F0A2
:1016B000ABF903B05DF804FB0C000020AC23002064
:1016C00030B595B0102200210AA822F05AF8142251
:1016D000002103A822F055F800241E4B01941A6C37
:1016E00042F080521A641B6C03F080530193019BFB
:1016F000194B02941A6842F440421A601B6803F4C2
:10170000404302930122029B4FF48033CDE908232A
:1017100002254FF480030821CDE90E534FF4B47332
:10172000CDE9101308A804231393129504F014FCB8
:1017300004F0D8FB0F23CDE903354FF4A0504FF44C
:101740008053CDE90603052103A8059404F0E0FDCC
:1017500015B030BD00380240007000402DE98048CF
:101760009BB003F0FDF8FFF7ABFF142200210DA89A
:1017700022F007F80024C94B00941A6BC848C94DE1
:1017800042F010021A631A6B02F010020092009AE3
:1017900001941A6B42F020021A631A6B02F02002C5
:1017A0000192019A02941A6B42F080021A631A6B3A
:1017B00002F080020292029A03941A6B42F0040231
:1017C0001A631A6B02F004020392039A04941A6BD0
:1017D00042F001021A631A6B02F001020492049AA9
:1017E00005941A6B42F002021A631A6B02F00202AD
:1017F0000592059A06941A6B42F040021A631A6B1E
:1018000002F040020692069A07941A6B42F0080210
:101810001A631B6B03F00803224607933C21079BC6
:1018200003F03AFDA0480122022103F035FD2246D3
:101830009D48042103F030FD22469C484FF440515E
:1018400003F02AFD01263C23CDE90D3694480F9480
:1018500003230DA90227109303F034FC92480DA92D
:10186000CDE90D76CDE90F4403F02CFC04238E481E
:101870000DA9CDE90D36CDE90F4703F023FC8C48C7
:101880000F940DA9CDE90D6403F01CFC4FF44053F7
:1018900086480DA9CDE90D36CDE90F4703F012FCBE
:1018A0000DA983480F94CDE90D6403F00BFC81482A
:1018B000814B036003F0FCFADFF820C27F4B2C62FF
:1018C000C5E900C328464FF48043C5E90434C5E99F
:1018D0000244C5E9064403F0EDFE1021284604F059
:1018E00031F92146284604F04CF9754DDFF8F0E156
:1018F000AC624FF48273C5E900E34FF4007818231B
:10190000C5E9068328460A23C5E90244C5E904441B
:10191000C5E90844EB6205F01BF88F2322463946DF
:1019200061488DF824308DF8344003F0B5FC324620
:101930004FF47A7309A9284605F066F84FF47A73D4
:1019400032460DA9284605F00BFA3246394656486C
:101950005C4D03F0A1FC9DF83430D32B04BF5A4BEF
:101960001E705A4B01261027C5E90036402300247B
:10197000C5E904734FF4C073C5E906344FF400633E
:10198000C5E908344FF400534FF002084FF0040A41
:101990004FF0030BAB620DA907232846CDE90FA337
:1019A000CDE90D834FF00809C5E9024ACDE911B828
:1019B000CDF84C8004F0B0FE4FF6FF7209A928461E
:1019C000CDE90A96089409960C9404F0C5FE3046B9
:1019D00002F0F2FF4FF6FF7209A92846CDE9098906
:1019E000CDE90B6404F0B8FE4FF6FF7209A9284652
:1019F000CDE909B9CDE90BA404F0AEFE4FF40C73A8
:101A00000893089B0C934FF6FF7209A92846CDE96D
:101A100009A90B9604F0A0FE40F26A51284604F092
:101A2000B9FE342221460DEB020021F0AAFE284D1A
:101A3000284B2C61C5E900340923C5E905361D236F
:101A4000C5E9073B40F20D1240F24313C5E90923F3
:101A500040F2171140F247132846C5E90B13C5E9B8
:101A60000244AC8685F8364004F026F9FF21F022C6
:101A7000CDE912144FF005094FF480614FF4A073C3
:101A8000CDE90E24CDE91419CDE916420DA922465F
:101A90002846CDE91038104D189323E00038024055
:101AA00000100240AC24002000080240000C02405C
:101AB000000002404025002000300240A0860100C6
:101AC000AC2300203023002024230020400100A06C
:101AD00004240020006801401C230020005C00401A
:101AE000005001400D94ADF864408DF8664004F05C
:101AF000AEF9444B2B601B68DFF84CA198472B686C
:101B0000414DDB689847414B2846C5E90034C5E99B
:101B10000284C5E90A48C5E90C4403F0D9F9314605
:101B2000284603F08BFA3A4D3A4621460DA821F09B
:101B300028FE384BAC604FF4803B2846C5E9003B9B
:101B40002C612C7685F82040EC62C5F828A0EC606A
:101B5000EE6185F830406E6102F042FF0D230DA961
:101B60002846CDE90D362C4D0F9403F0B3F83A46D4
:101B700021460DA821F005FE284BAC602846C5E99A
:101B8000003BC5E90AA42C612C7685F82040EC6066
:101B9000EE6185F830406E6102F022FF0DA9284603
:101BA000CDE90D961E4D0F9403F094F81D484FF4A7
:101BB000E133C0E900530C23C0E90534C0E9024415
:101BC0000461C46105F088FBFEF77AFDFEF777FD3E
:101BD00005F0A4FC144A4146384605F0C3FD134BFA
:101BE000134A18602146134805F0C4FC124B134AEF
:101BF00018602146124805F0BDFC124B186005F034
:101C00009FFCFEE7140000200025002000B00240E9
:101C1000902500200020014048250020002101409F
:101C20000010014064230020745602082023002085
:101C3000B05602082D1E00082C2300208C560208E6
:101C4000CF060008282300200100000F70477047CE
:101C50007FB5094B8DF817201B6802930DF1170211
:101C60000123009201930A460146044803F0CAFD8D
:101C700007B05DF804FB00BF10000020AC2400207A
:101C80007FB500238DF81730084B1B6802930A4676
:101C900001230DF11701009101930146044803F05F
:101CA00041FE9DF8170007B05DF804FB100000200E
:101CB000AC2400201FB5084C24680092CDE9013403
:101CC0000A4601230146054803F02CFE003818BFE0
:101CD000012004B010BD00BF10000020AC24002083
:101CE00002F06ABE10B5064C00222046042103F023
:101CF000D3FA20460122BDE81040042103F0CCBAFB
:101D00000008024038B50B4D044601220A484FF442
:101D1000005103F0C1FA00220421284603F0BCFA66
:101D20002046FFF7BBFC28460122BDE838400421CD
:101D300003F0B2BA00080240000C024038B50B4D67
:101D4000044600220A484FF4005103F0A5FA00228D
:101D50000421284603F0A0FA2046FFF79FFC2846FE
:101D60000122BDE83840042103F096BA0008024081
:101D7000000C0240F7B5144E144F05460C46304691
:101D80000022042103F088FA00224FF40051384663
:101D900003F082FA2846FFF781FC0D4B0D481B68C3
:101DA000224601A904F0DCFF384601224FF400511D
:101DB000019C03F071FA30460122042103F06CFA11
:101DC000204603B0F0BD00BF00080240000C0240F6
:101DD0000C000020AC23002002F0EEBDA1F2A562B1
:101DE00010B592B240F25624A0F2A563A2429BB273
:101DF00006D9B1F57A7F11D340F6B83291420FD8A7
:101E000040F2562293420DD9B0F57A7F0CD340F6BA
:101E1000B83398428CBF5220002010BD5520FCE7FB
:101E20004420FAE70020F8E74C20F6E72DE9F041DE
:101E3000224E234F8AB04FF00008304602F076FE63
:101E4000384602F073FE0A21304602F0EDFE0A2108
:101E5000384602F0E9FE304602F039FF04463846C3
:101E600002F035FFA2B283B21649054602A821F05E
:101E700023FC02A8FEF7BCF9642382B202A912482F
:101E800005F059FAA0B2A9B2FFF7A8FF04468DF8F1
:101E9000070060B140450BD00C4800231A4600688B
:101EA0000DF1070105F099FC9DF8073003B90024F6
:101EB000322005F0A3FBA046BFE700BF902500201D
:101EC00048250020064C020864230020202300201F
:101ED0000268034B9A4201D102F05CBD704700BF1B
:101EE000001000407047000082B00E4B00220092AC
:101EF000596C41F480415964596C01F4804100915E
:101F000000990192196C41F0805119641B6C03F027
:101F100080530193019B0F216FF0010002B002F08A
:101F200087BF00BF0038024010B514228AB00446B3
:101F300000210DEB020021F024FC2368214A93428A
:101F40001FD1214B2148002101915A6C42F480722B
:101F50005A645A6C02F480720192019A02911A6BCF
:101F600042F004021A631B6B03F00403029308217E
:101F7000029B0323CDE9051305A903F0A3F80AB0DA
:101F800010BD134A9342FAD10F4B1248002103911E
:101F90005A6C42F400725A645A6C02F40072039252
:101FA000039A04911A6B42F001021A631B6B03F04F
:101FB00001030493049B20220323CDE9052305A9F3
:101FC000DBE700BF0020014000380240000802406B
:101FD00000210140000002400268094B9A4282B091
:101FE0000BD100230193074B1A6B42F480521A6302
:101FF0001B6B03F480530193019B02B0704700BF39
:10200000003002400038024007B50F4B02689A4288
:1020100016D10022A3F5F0430192196B41F400019F
:1020200019631B6B03F40003019305215A20019BE4
:1020300002F0FEFE5A2003B05DF804EB02F02ABF66
:1020400003B05DF804FB00BF00B002402DE9F0438F
:10205000044689B01422002103A821F092FB2268D3
:10206000244B9A4243D1244C244800250095236BED
:1020700043F004032363236B03F004030093009BEA
:102080000195236B43F001032363236B03F00103EA
:102090000193019B4FF012094FF400734FF00108B8
:1020A0000327042603A9CDE90339CDE9058707965F
:1020B00003F008F84FF480731148079603A9CDE99F
:1020C0000339CDE9058702F0FDFF0295236C43F447
:1020D00000032364236C03F400030293029B236A2E
:1020E00043F400032362236A23F40003236209B04C
:1020F000BDE8F083005C0040003802400008024068
:1021000000000240F0B599B004461422002107A84F
:1021100021F037FB30220DEB0200002121F031FBD2
:1021200022685E4B9A4240F0B78008230C93C0238C
:102130001093042312930CA84FF40033159304F06A
:10214000BFF908B1FFF7CEFE554B56480024009466
:102150005A6C42F080625A645A6C02F080620092BB
:10216000009A01941A6B42F020021A631A6B02F073
:1021700020020192019A02941A6B42F001021A6342
:102180001A6B02F001020292029A03941A6B42F057
:1021900002021A631A6B02F002020392039A049479
:1021A0001A6B42F040021A631A6B02F0400204926A
:1021B000049A05941A6B42F004021A631A6B02F037
:1021C00004020592059A06941A6B42F008021A63FB
:1021D0001B6B03F00803069302250E26069B0B9645
:1021E0004FF4806307A9CDE90735CDE9094502F031
:1021F00069FF41F658032C480B9607A9CDE907352E
:102200000927CDE9094502F05DFF032327480B9715
:1022100007A9CDE90735CDE9094502F053FF4FF491
:10222000706322480B9607A9CDE90735CDE909452A
:1022300002F048FF4FF40C631D480B9607A9CDE947
:102240000735CDE9094502F03DFFC02319480B963B
:1022500007A9CDE90735CDE9094502F033FF082389
:1022600015480B9607A9CDE90735CDE9094502F0D8
:1022700029FF4FF4A0530E480B9707A9CDE9073566
:10228000CDE9094502F01EFF58202246052102F043
:10229000CFFD582002F0FEFD19B0F0BD00680140EE
:1022A00000380240001402400000024000040240D6
:1022B0000018024000080240000C024010B504461D
:1022C00088B01422002103A821F05BFA2268144B85
:1022D0009A4223D103F56843002101915A6C1148B9
:1022E00042F480125A645A6C02F480120192019AEC
:1022F00002911A6B42F020021A631B6B03F0200359
:102300000293029B4FF4607202230321CDE9032361
:102310000523CDE9061303A902F0D4FE08B010BDD1
:10232000005001400014024010B5044688B0142249
:10233000002103A821F025FA2268144B9A4223D1E8
:1023400003F59433002101915A6C114842F01002B8
:102350005A645A6C02F010020192019A02911A6BAF
:1023600042F001021A631B6B03F001030293029B0C
:102370004FF4C06202230321CDE903230723CDE9F3
:10238000061303A902F09EFE08B010BD0010014024
:10239000000002402DE9F04186B0002303932B4B4F
:1023A0001C68002C4FD14FF00108C3F80080284B67
:1023B00000949A6B274842EA08029A639B6B03EAEF
:1023C00008030093022703260C25009B01A94FF662
:1023D0003F03CDE90137CDE9046502F073FE1E48E5
:1023E000059501A9CDE90187CDE9034602F06AFE12
:1023F00048F233131948059501A9CDE90137CDE914
:10240000034602F05FFE4FF683731548059501A958
:10241000CDE90137CDE9034602F054FE4CF20373D7
:102420001048059501A9CDE90137CDE9034602F031
:1024300049FE60230C48059501A9CDE90137CDE996
:10244000034602F03FFE06B0BDE8F081D82500202B
:102450000038024000140240000802400018024008
:1024600000100240000C02400004024070B588B029
:1024700000230293204B1A6C42F010021A641B6C6A
:1024800003F010030293054601A903A8029B03F081
:10249000F9FF069B4BBB03F0D5FF184E184B33607A
:1024A00040F2E733F360174BB0FBF3F3013B73608B
:1024B000304600233361B360B36104F021FE04466B
:1024C00080B9304604F0F2FC044658B9362002F0D8
:1024D000E1FC0F2D0DD822462946362002F0A8FC3B
:1024E000094B1D60204608B070BD03F0ABFF4000F3
:1024F000D3E70124F6E700BF00380240DC250020C6
:102500000010004040420F007C0000207047FEE7B2
:10251000FEE7FEE7FEE77047014804F005BD00BF97
:10252000DC250020014803F035BC00BF0424002056
:10253000014802F0F9BC00BF0025002001207047CF
:1025400008B521F0C1F9162303604FF0FF3008BD34
:1025500008B521F0B9F916230360FEE770B50D4602
:1025600014460E46731B9C4201DC204670BDAFF33F
:10257000008006F8010BF5E770B50D4614460E46CF
:10258000731B9C4201DC204670BD16F8010BAFF3B3
:102590000080F5E74FF0FF3070474FF400534B6079
:1025A0000020704701207047002070470A4A1168D8
:1025B00008B5034609B90949116010686946034422
:1025C0008B4206D921F080F90C2303604FF0FF30D5
:1025D00008BD1360FCE700BF2426002080410120D5
:1025E000704710B5042104461FF066FF204610BD59
:1025F000012908B506D0022908D059B901F0ECFC30
:10260000006808BD01F0E8FC4068FAE701F0E4FC6E
:102610008068F6E70020F4E700487047E8560208B3
:102620000220704713B5002451B1036801948DF85E
:10263000034001AA9C680DF10303A04702B010BD3E
:102640000846FBE7C0897047008A7047C08870471A
:1026500080887047807A00F07F007047807AC009D8
:1026600070470020704700009FED010A704700BFCF
:1026700000000000704710B5082104461FF01CFF41
:10268000204610BD7047704700F598730868496888
:1026900003C3704770477047416070477047704789
:1026A000064BC0F84C310023C0F8503100F5A2733E
:1026B000C0F84801C0F84031704700BFAD2800089D
:1026C000012303727047704710B4C2684168541008
:1026D000034601EB6200D20748BF0A599B685DF8C8
:1026E000044B48BFD35818470346406830B19A6836
:1026F0001AB9D86800F0010070470120704710B582
:102700000C2104461FF0D8FE204610BD10B5102144
:1027100004461FF0D1FE204610BD10B54FF4AE7137
:1027200004461FF0C9FE204610BD10B50DF0BAF8E2
:102730000368BDE81040DB6B184710B50446D0F8BD
:10274000400158B10368DB68984738B1D4F84001BC
:1027500003689B6898470023C4F8403110BD00000F
:102760002DE9F14FD0E9556A0746B06803681B6A46
:10277000984740F61363984205D8444B444AA32136
:10278000444820F0D5FD706803681B6A98470F28FD
:1027900003D8414B3E4AA421F2E7F06803681B6A64
:1027A00098470B2803D83D4B394AA521E8E70DF09F
:1027B00079F8DFF8F09004300DF099F8D9F80000BE
:1027C00010B10368DB689847D9F8000010B10368BE
:1027D0001B689847DFF8D080D8F8000010B1036874
:1027E0005B699847D7F83C0110B103685B6898476C
:1027F000D8F8000010B103681B689847D7F83C016F
:1028000010B103689B689847F068036800215B6A11
:1028100098474FF0000B224BC0F804B0044680F8F4
:1028200008B00360B068036859465B6A984705467C
:1028300001F078FC7068036859465B6A984729463E
:10284000064601F04DFC331DC7F83C61C9F8004055
:10285000C8F80050CAF800302B68C6F808A028460F
:10286000DB68EE639847336830461B68984721461B
:1028700028460FF0C7F9236820461B69984723684C
:102880005B69204601B0BDE8F04F1847304C0208A4
:10289000BE4C0208904D0208D74D02087A4E02083D
:1028A0009457020884340120803401202DE9F14F2F
:1028B000D0E9556A0746B06803681B6A9847EF2855
:1028C00005D8444B444AA321444820F031FD7068A8
:1028D00003681B6A98470F2803D8414B3E4AA4213E
:1028E000F2E7F06803681B6A98470B2803D83D4B52
:1028F000394AA521E8E70CF0D5FFDFF8F090043065
:102900000CF0F5FFD9F8000010B10368DB689847B8
:10291000D9F8000010B103681B689847DFF8D08031
:10292000D8F8000010B103685B699847D7F83C01FC
:1029300010B103685B689847D8F8000010B10368CD
:102940001B689847D7F83C0110B103689B6898470B
:10295000F068036800215B6A98474FF0000B224B38
:10296000C0F804B0044680F808B00360B06803689B
:1029700059465B6A9847054601F098FB7068036802
:1029800059465B6A98472946064601F06FFB331D9E
:10299000C7F83C61C9F80040C8F80050CAF80030D8
:1029A0002B68C6F808A02846DB68EE6398473368B2
:1029B00030461B689847214628460FF023F92368C4
:1029C00020461B69984723685B69204601B0BDE833
:1029D000F04F1847304C02081D4F0208904D020876
:1029E000D74D02087A4E0208945702088434012019
:1029F00080340120044B1B6893F858200AB1D86C2E
:102A000000B99868704700BF3C340120F8B51746FC
:102A100004460E460DF008F8124B1C60124B236062
:102A2000124B0025C4E95135114BC4E953551868C0
:102A3000036801219B68C4E94F55C4E9557698475E
:102A4000284601F07DFAFFF7D5FF17F032FCFFF7BB
:102A5000D1FF17F0A9FCFFF7CDFF17F0B1FC20461E
:102A6000F8BD00BF903401204057020828570208E3
:102A70003C340120064BC0F84C310023C0F85031E3
:102A800000F5A273C0F84801C0F84031704700BF9C
:102A9000AD280008064BC0F84C310023C0F8503177
:102AA00000F5A273C0F84801C0F84031704700BF7C
:102AB00061270008406A7047806A704770478A88BB
:102AC0000B8810B5D20A4C88C1699BB251F822001C
:102AD00043EA0443184410BD10B50446BAB1107B54
:102AE00068B1537BD27A1B0203F4E0631A43236A72
:102AF00003EB82031A888A4202D193F9020010BDC7
:102B000005D8013880B204330028F3D1F7E700205C
:102B1000F5E710B52C2104461FF0CEFC204610BD71
:102B200030B58BB00446BDF860500895BDF85C50D8
:102B300007959DF8505006959DF84C5005959DF8C9
:102B4000485004959DF8445003959DF840500295D7
:102B50009DF83C500195BDF8385000950EF0ACFC46
:102B6000064B2360159BE361169B2362199B6362EE
:102B70001A9BA36220460BB030BD00BFB8570208B5
:102B8000704770477047704770477047704770478D
:102B900030B4C26844685510034604EB6200D207A3
:102BA00048BF62599B6830BC48BFD358184703469A
:102BB000406830B19A681AB9D86800F001007047CF
:102BC0000120704710B5102104461FF075FC204607
:102BD00010BD10B5F02104461FF06EFC204610BD5C
:102BE0009830884208B505D10CF05CFEBDE808407D
:102BF000FFF750BF08BD70B5036804461B6B154650
:102C000098472368294620465B6BBDE8704018470B
:102C100070B504461D46BDF91060FFF7ECFF236850
:102C2000294620469B6B9847236831462046DB6B3C
:102C3000BDE8704018470000094A02604FF48071F7
:102C400000228184FF21C0E90122C0E90322C0E9FA
:102C50000522C0E9072280F826108262704700BF73
:102C6000CC5D0208F8B5194B018F1B888B420646D4
:102C70002AD9174B1B682BB9164B174A17486C21DA
:102C800020F056FB13F81120154B1B6853F8225007
:102C9000144B186801F090F92B6807469B6B284687
:102CA00098472B6804469B6C3946284698472B6802
:102CB00014FB00F45B6A394628469847A4B22318EF
:102CC0001BB2A6F84630F8BD0023FAE7983401207D
:102CD00094340120EF4F0208315002086C50020872
:102CE0009C340120A03401202DE9FF4704462746EB
:102CF00000250EF0DBFD2E4BE56347F8403B04F169
:102D00006C093846FFF798FF04F198064846FFF72C
:102D100093FF30460AF01AFA264BC4E93834264BA2
:102D20004FF4A07AC4E93A352A4629463846CDF808
:102D300000A0F023FFF76CFF04F104084FF07F437D
:102D4000A3663946404606F001FD4FF0FF37F023F9
:102D50002A4629464846CDF800A0FFF759FF4946C4
:102D60004046C4F8947006F0F1FC29463046D22261
:102D7000FFF741FF03AA02A901233046ADF80C304A
:102D8000ADF8085009F057FF1423A4F8D0303046AE
:102D9000FFF768FF04F1E0034046C4E93577C4F863
:102DA000C030314606F0D2FC204604B0BDE8F087C2
:102DB0003858020820580208E12B0008806A704742
:102DC00030B5036885B06D460181D3F88430014683
:102DD00004462846984795E807003C3484E80700F5
:102DE00005B030BD30B5036885B06D464181D3F87C
:102DF0008430014604462846984795E807003C344D
:102E000084E8070005B030BD002202804280828045
:102E1000C280704780F83610704770B5036804466A
:102E20001B6B154698472368294620465B6EBDE814
:102E30007040184700207047806C7047704770479B
:102E400070477047704770470368DB6A184790F80F
:102E50002C304BB100F16C021268C2653BB100F13D
:102E600074031B680366704700F16802F4E700F121
:102E70007003F6E730B4C26844685510034604EBAB
:102E80006200D20748BF62599B6830BC48BFD35824
:102E900018470346406830B19A681AB9D86800F0FC
:102EA000010070470120704790F82D3080F85A30AB
:102EB000704710B54C2104461FF0FEFA204610BDA5
:102EC00010B5782104461FF0F7FA204610BD10B562
:102ED000102104461FF0F0FA204610BD10B540F650
:102EE000944104461FF0E8FA204610BD08B5FEF7ED
:102EF000DFFA08BD10B50446006B50B10368DB680B
:102F0000984730B1206B036821469B68BDE81040AC
:102F1000184710BD0B7970B590F82C6004460D462B
:102F20000BB916B170BD002EFCD0B3FA83F35B0968
:102F300084F82C3023682046D3F88C3098472368D7
:102F400020465B699847002EECD02B79012BE9D104
:102F500023682046D3F88830BDE870401847000049
:102F6000036870B55E6B124B1B6804468DB22BB9BB
:102F7000104B114A6C21114820F0DAF91049828D6A
:102F80000988914203D80F4B0B4A6D21F3E713F8E0
:102F900012200D4B1B6853F8220003681B6B9847E7
:102FA000291A3346204609B2BDE87040184700BFD1
:102FB00094340120EF4F0208315002086C5002088F
:102FC00098340120B35002089C340120C430884258
:102FD00008B505D10CF066FCBDE80840FFF74ABD16
:102FE00008BD0000074A02600022C0E90122C0E9D2
:102FF0000322C0E90522C0E907224FF480728284CF
:10300000704700BF745F020810B50446FFF7EAFF7F
:10301000024B23600023A362204610BD4C5B0208D4
:1030200000224FF0FF31C0E90021826070470000AC
:1030300010B500210446262220F0A3FB2046FFF70E
:10304000D1FF094B2360094BA3624FF6FF73A385A1
:103050004FF47F020023C4E90C32238704F13C00C3
:10306000FFF7DEFF204610BD3C5D0208185702083E
:1030700010B50446FFF7D4FF204610BD10B5044636
:10308000FFF7D6FF024B23600023A364204610BD48
:103090006C5802082DE9F04F0446BFB026464FF0A9
:1030A00000080EF003FCDC4BC4F83C8046F8403BC3
:1030B0003046FFF7C1FD04F16C0318461493FFF787
:1030C000BBFD04F1980304F1C40518461593FFF7FE
:1030D000B3FD2846FFF798FF4FF47F43A4F8F03084
:1030E000012304F1F80984F8E830CC4BC4F8C4306B
:1030F0004846C4F8F480FFF79FFDC94BC4F8F83088
:10310000424648464146C4E94B88C4E94D88C4F864
:103110002481A4F82881FFF76EFD04F59E7A4946C4
:10312000284606F013FB5046FFF782FF04F5C273F2
:1031300018461693FFF768FF04F5D87318461793DF
:10314000FFF762FF04F5EE7318461893FFF75CFF74
:1031500004F5027318461993FFF756FF04F50D7333
:1031600018461A93FFF750FF04F5187318461B937F
:10317000FFF74AFF04F5237318461C93FFF744FF3B
:1031800004F52E7318461D93FFF73EFF04F53973BF
:1031900018461E93FFF750FD04F5447318461F931D
:1031A000FFF732FF04F54F7318462093FFF72CFF0B
:1031B00004F55A7318462193FFF726FF04F565734B
:1031C00018462293FFF720FF04F5707318462393E7
:1031D000FFF71AFF04F57B7318462493FFF714FFDB
:1031E00004F5836318462593FFF70EFF04F244436A
:1031F00018462693FFF708FF04F58E6318462793B9
:10320000FFF71AFD04F29C4318462893FFF714FDBC
:1032100004F5996318462993FFF70EFD04F2F44371
:1032200018462A93FFF708FD04F5A46318462B936C
:10323000FFF702FD04F24C5318462C93FFF7FCFCF9
:1032400004F5AF6318462D93FFF7F6FC04F2A45380
:1032500018462E93FFF7F0FC04F5BA6318462F9337
:10326000FFF7EAFC04F2FC5318463093FFF7E4FC46
:1032700004F5C56318463193FFF7DEFC04F254638E
:1032800018463293FFF7D8FC04F5D0631846339301
:10329000FFF7D2FC04F2AC6318463493FFF7CCFC82
:1032A00004F5DB6318463593FFF7C6FC04F204739C
:1032B00018460293FFF7E2FE04F5EA63184603930B
:1032C000FFF7DCFE04F29C7318460493FFF7D6FE6A
:1032D00004F5FD6318460593FFF7D0FE04F63403AA
:1032E00018460693FFF7CAFE04F5086318460793CD
:1032F000FFF7C4FE04F6CC0318460893FFF7BEFEA2
:1033000004F6181318460993FFF7B8FE04F6641381
:1033100018460A93FFF7B2FE04F51B6318460B9399
:10332000FFF7ACFE04F6FC1318460C93FFF7A6FE5D
:1033300004F6482318460D93FFF7A0FE04F69423E5
:1033400018460E93FFF79AFE04F52E6318460F9366
:10335000FFF794FE04F62C3318461093FFF78EFE09
:1033600004F6783318461193FFF788FE04F6C43349
:1033700018461293FFF782FE04F541631846139333
:10338000FFF77CFE274BC4F8843C274BC4F88C3CE9
:103390004FF4A073271D4FF07F4B42463046C4F8D0
:1033A000884CC4F8908C41460093F023FFF730FC22
:1033B00031463846C4F868B006F0C8F94FF4A07337
:1033C0004246149800934146F023FFF721FC174B27
:1033D0001499C4F89430384606F0B8F9DC2350222A
:1033E000159800930A21FFF713FC114B1599C4F8A7
:1033F000C0302126384606F0A9F9424641464846E3
:1034000000965423FFF704FC4FF00503A4F828317D
:10341000084BC4F82C310FE0B0590208FC580208E0
:10342000345E020898590208CD2F0008DFED64FFD2
:10343000EEEEEEFF996600FF03F54C533333C4F80C
:103440003031A3F5CC43663BC4F8343103F1331378
:1034500003F54C532846C4F83831FFF7F8FC04F65E
:103460008443C4F8F43008225423284600960C21E3
:10347000FFF7CEFB2946384606F068F936AD0E2236
:1034800050461F21FFF7B7FB51462846C4F86CB1E0
:10349000A4F8708109F0CAF895E807003BAE04F57E
:1034A000BC73DFF84098CDF8EC9083E80700132355
:1034B000504631463225ADF8F03009F05FFB5146F9
:1034C000384606F043F92B465422169800950E21F3
:1034D000FFF79EFB1699384606F038F92B468A22EC
:1034E000179800950E21FFF793FB1799384606F0C1
:1034F0002DF92B468A22189800954421FFF788FB66
:103500001899384606F022F92B468A221998009518
:103510007A21FFF77DFB1999384606F017F92B46FB
:103520008A221A980095B021FFF772FB1A99384643
:1035300006F00CF92B46C0221B9800950E21FFF7D0
:1035400067FB1B99384606F001F92B46C0221C98F0
:1035500000954421FFF75CFB1C99384606F0F6F80D
:103560002B46C0221D9800957A21FFF751FB1D992B
:1035700038464FF0FF3A06F0E9F82B46C0221E9875
:1035800000950E21FFF744FB1E99C4F80CA33846A2
:1035900006F0DCF82B46C0221F980095B021FFF7FB
:1035A00037FB1F99384606F0D1F82B46F6222098B3
:1035B00000950E21FFF72CFB2099384606F0C6F83F
:1035C0002B46F622219800954421FFF721FB2199F3
:1035D000384606F0BBF82B46F622229800957A2151
:1035E000FFF716FB2299384606F0B0F82B46F62274
:1035F00023980095B021FFF70BFB2399384606F07E
:10360000A5F82B465422249800954421FFF700FB8F
:103610002499384606F09AF82B46542225980095AE
:103620007A21FFF7F5FA2599384606F08FF82B46F0
:10363000542226980095B021FFF7EAFA26993846D9
:1036400006F084F82B465422279800950E21FFF7A8
:10365000DFFA2799C4F898A4384606F077F82B4685
:103660005422289800954421FFF7D2FA2899C4F8EB
:10367000C4A4384606F06AF82B46542229980095CF
:103680007A21FFF7C5FA2999C4F8F0A4384606F064
:103690005DF82B4654222A980095B021FFF7B8FA1E
:1036A0002A99C4F81CA5384606F050F82B468A2201
:1036B0002B9800950E21FFF7ABFA2B99C4F848A57B
:1036C000384606F043F82B468A222C980095442170
:1036D000FFF79EFA2C99C4F874A5384606F036F820
:1036E0002B468A222D9800957A21FFF791FA2D9981
:1036F000C4F8A0A5384606F029F82B468A222E9851
:103700000095B021FFF784FA2E99C4F8CCA538466D
:1037100006F01CF82B46C0222F9800957A21FFF75F
:1037200077FA2F99C4F8F8A5384606F00FF82B461B
:10373000C02230980095B021FFF76AFA3099C4F89A
:1037400024A6384606F002F82B46F622319800955A
:103750000E21FFF75DFA3199C4F850A6384605F0FE
:10376000F5FF2B46F622329800954421FFF750FAD8
:103770003299C4F87CA6384605F0E8FF2B46F622BD
:10378000339800957A21FFF743FA3399C4F8A8A635
:10379000384605F0DBFF2B46F62234980095B02121
:1037A000FFF736FA3499C4F8D4A6384605F0CEFFB0
:1037B0002B46C022359800954421FFF729FA359908
:1037C000C4F800A7384605F0C1FF2B4654220E214D
:1037D00002980095FFF71CFAC4F834B7A4F83887AC
:1037E0003046FFF71DFC96E8070004F5E86383E820
:1037F000070004F65C430298C4F84C3731461223A4
:10380000A4F85C8CADF8F030CDF8EC9009F0B6F986
:103810000299384605F09AFF2B465422442103981A
:103820000095FFF7F5F9C4F880B7A4F8848730460F
:10383000FFF7F6FB96E8070004F28C7383E80700B5
:1038400011230398ADF8F0303146CDF8EC9009F033
:1038500095F90399384605F079FF2B4654227A21D1
:1038600004980095FFF7D4F9C4F8CCB7A4F8D08732
:103870003046FFF7D5FB96E8070004F5FB6383E8C5
:10388000070010230498ADF8F0303146CDF8EC90E5
:1038900009F074F90499384605F058FF2B46542274
:1038A000B02105980095FFF7B3F9C4F818B8A4F84B
:1038B0001C883046FFF7B4FB96E8070004F62403A3
:1038C00083E807000F230598ADF8F0303146CDF8B6
:1038D000EC9009F053F90599384605F037FF2B466F
:1038E0008A220E2106980095FFF792F9C4F864B871
:1038F000A4F868883046FFF793FB96E8070004F5C4
:10390000076383E807004FF00E0A0698CDF8EC90A5
:103910003146ADF8F0A009F031F90699384605F0C6
:1039200015FF2B468A22442107980095FFF770F96E
:10393000C4F8B0B8A4F8B4883046FFF771FB96E835
:10394000070004F6BC0383E807000D230798ADF8D1
:10395000F0303146CDF8EC9009F010F9079938466F
:1039600005F0F4FE2B468A227A2108980095FFF78D
:103970004FF9C4F8FCB8A4F800893046FFF750FBB3
:1039800096E8070004F6081383E807000C2308985C
:10399000ADF8F0303146CDF8EC9009F0EFF8089929
:1039A000384605F0D3FE2B468A22B02109980095AF
:1039B000FFF72EF9C4F848B9A4F84C893046FFF750
:1039C0002FFB96E8070004F6541383E807000B2347
:1039D0000998ADF8F0303146CDF8EC9009F0CEF80A
:1039E0000999384605F0B2FE2B46C02251460A9886
:1039F0000095FFF70DF9C4F894B9A4F898893046FA
:103A0000FFF70EFB96E8070004F51A6383E807004A
:103A10004FF00A030A98ADF8F0303146CDF8EC903B
:103A200009F0ACF80A99384605F090FE2B46C02202
:103A300044210B980095FFF7EBF8C4F8E0B9A4F81F
:103A4000E4893046FFF7ECFA96E8070004F6EC1339
:103A500083E8070009230B98ADF8F0303146CDF824
:103A6000EC9009F08BF80B99384605F06FFE2B4669
:103A7000C0227A210C980095FFF7CAF8C4F82CBA36
:103A8000A4F8308A3046FFF7CBFA96E8070004F630
:103A9000382383E8070008230C98ADF8F03031464E
:103AA000CDF8EC9009F06AF80C99384605F04EFE16
:103AB0002B46C022B0210D980095FFF7A9F8C4F855
:103AC00078BAA4F87C8A3046FFF7AAFA96E807008D
:103AD00004F6842383E8070004F547630293794BD7
:103AE0001B682BB9784B794A602179481FF020FC7C
:103AF000784B1B881BB9784B744A6121F5E7774BEB
:103B00004146186800F058FA754A03460A2102989F
:103B10000FF07AFB029B0D98C4F8903A31460723C8
:103B2000ADF8F030CDF8EC9009F028F80D99384652
:103B300005F00CFE2B4651460E980095F622FFF735
:103B400067F8C4F8C4BAA4F8C88A3046FFF768FA20
:103B500096E8070004F52D6383E8070006230E9816
:103B6000ADF8F0303146CDF8EC9009F007F80E9939
:103B7000384605F0EBFD2B460F980095F6224421C0
:103B8000FFF746F8C4F810BBA4F8148B3046FFF7D3
:103B900047FA96E8070004F61C3383E807004FF065
:103BA00005030F98ADF8F0303146CDF8EC9008F0F1
:103BB000E5FF0F99384605F0C9FD2B461098009592
:103BC000F6227A21FFF724F8C4F85CBBA4F8608BD6
:103BD0003046FFF725FA96E8070004F6683383E8D5
:103BE000070004231098ADF8F0303146CDF8EC9082
:103BF00008F0C4FF1099384605F0A8FD2B4611982F
:103C00000095F622B021FFF703F8C4F8A8BBA4F88A
:103C1000AC8B3046FFF704FA96E8070004F6B4339D
:103C200083E8070003231198ADF8F0303146CDF852
:103C3000EC9008F0A3FF1199384605F087FD129823
:103C400029228B21FEF7D7FFC4F8F4BBA4F8F88B28
:103C50003046FFF7E5F996E8070004F5406383E88E
:103C6000070002231298ADF8F0303146CDF8EC9001
:103C700008F084FF1299384605F068FD13983E223B
:103C80008B21FEF7B8FFC4F840BCA4F8448C304642
:103C9000FFF7C6F996E8070004F64C4383E80700EF
:103CA00001231398ADF8F0303146CDF8EC9008F0D0
:103CB00065FF3846139905F049FD20463FB0BDE841
:103CC000F08F00BF94340120EF4F0208F15002083A
:103CD0006C50020898340120B3500208A03401202F
:103CE0003C510208185702087047000030B5174DC4
:103CF0002C6814F001048FB0BFF35B8F22D12846EB
:103D00001EF0DCFBF0B13F230993114B0893114BDC
:103D100007930123CDE9054304930423CDE902432E
:103D20000A2300930C230C490C480A941A46CDE947
:103D30000B440194FEF7F4FE09481FF017FB2846D8
:103D40001EF0C8FB05480FB030BD00BF282600207C
:103D5000E4700208F0700208206F02082C26002090
:103D6000E93C00087047000030B5164D2C6814F08F
:103D700001048FB0BFF35B8F21D128461EF09EFB5C
:103D8000E8B13F230993104B0893104B1049114899
:103D90000A94CDE9064301220423CDE9033214231A
:103DA00000931322CDE90B44CDE901440594FEF7BD
:103DB000B7FE09481FF0DAFA28461EF08BFB0548CB
:103DC0000FB030BD58260020E8700208F4700208D9
:103DD000C86F02085C260020653D0008704700009F
:103DE00030B5164D2C6814F001048FB0BFF35B8F13
:103DF00020D128461EF062FBE0B13F230993104B0F
:103E00000893104B104911480A940122CDE906434A
:103E10000423CDE9033228230093CDE90B44CDE9F7
:103E200001440594FEF77CFE09481FF09FFA2846DE
:103E30001EF050FB05480FB030BD00BF88260020A3
:103E4000EC700208F8700208D47002088C2600207A
:103E5000DD3D000800207047002070470EB403B518
:103E600003AB002153F8042B01930CF0A3FD02B027
:103E70005DF804EB03B070470CB407B504AB53F81E
:103E8000042B01930CF096FD03B05DF804EB02B037
:103E900070470000436C10B5044673B3038F2BB911
:103EA000184B194AC52119481FF042FAC38E00EB7E
:103EB00043035B8C0BB30EF0FEFB238F012B03D867
:103EC000134B144ACB21EEE7E28E531C9BB2092B15
:103ED000194688BFA3F10A0104EB410140F63F10E7
:103EE000498C814209D10A2B04EB420228BF0023EE
:103EF00004EB4303508C588451842046BDE81040A5
:103F00000EF0DCBA3F51020848510208F351020892
:103F10003D5202084B5202080EF097BA10B586B017
:103F200002AC84E806001A460AAB05930193099B8C
:103F300000932146089B0BF053F806B010BD00001B
:103F400038B518BB124B13481C681349B4B122682A
:103F500022440260626822440A60A26814440F4B43
:103F600000221A8000F038F8054600F033F80C4BB8
:103F70001C600C4B1D600C4B188007E00B4B036062
:103F80000B4B0B600B4B1C68002CE8D138BD00BFFD
:103F9000C4260020BC260020B8260020C026002011
:103FA000943401209C34012098340120507102087F
:103FB000FC70020884710208044B1B6853F821004E
:103FC000034B1B6803EB4000704700BFB82600207E
:103FD000BC2600201520704700487047C8260020E6
:103FE00010B5FFF7C1FE044C2060FFF7F9FE6060DA
:103FF000FFF77CFEA06010BDC826002010B500248D
:1040000004600C6014601C6010BD704710B54FF464
:10401000AE7104461EF050FA204610BD10B504469D
:10402000D0F8580100F013F82046BDE810400BF01E
:10403000BBBC000010B50446FEF7E8FC014B236052
:10404000204610BDE8590208002202607047704700
:10405000704704387047704710B5102104461EF0B1
:104060002BFA204610BDA0F10400F5E70022826083
:10407000024A026018324260C16070473C5A02082E
:104080007047000010B5034B03600446FEF77EFD49
:10409000204610BD645A020810B50446FFF7F2FF2F
:1040A0002046F0211EF008FA204610BD10B5044647
:1040B000FEF71AFE014B2360204610BD645A020829
:1040C000FEF765BD704704387047704710B5102182
:1040D00004461EF0F1F9204610BDA0F10400F5E7FA
:1040E00000228260024A026018324260C16070475A
:1040F000985A02087047000010B5034B036004464D
:10410000FEF7A0FE204610BDC05A020810B50446B6
:10411000FFF7F2FF204640F614611EF0CDF920466D
:1041200010BD000010B50446FEF7B4FF044B236039
:104130004022002104F6D4501FF023FB204610BD7E
:10414000C05A020870B50023A0B0044600F55D61B6
:104150001D460846002250F8046F2EB920AE06EB2B
:10416000C50646E9203201350132042AF3D1013374
:10417000042B01F11001ECD1002D1BDD00F016FC29
:1041800020AAB0FBF5F303FB150302EBC30353E9CD
:10419000206500F00BFC0A2305EB8605B0FBF3F26B
:1041A00002FB1300002804EB850414BF0223042340
:1041B000C4F8D43D20B070BD2DE9F041DFF83C815A
:1041C0000446002600F69447354604F6D4531420DE
:1041D00053F8253000FB057083B9474A0A210FF0D8
:1041E00013F86B1E0E2B0ED8DFE803F01B222930CC
:1041F000373E454C535A61686F767D0042460A212E
:104200000FF002F8EDE7C4F84C7704F204700CF0FC
:10421000FBFC0135331DAB42D7D1102D6AD02E46A1
:10422000D2E704F6A843C4F8983704F5EA60EEE74D
:1042300004F6BC43C4F8E43704F29C70E7E704F5E5
:104240004D63C4F8303804F5FD60E0E704F6E4435C
:10425000C4F87C3804F63400D9E704F6F843C4F80F
:10426000C83804F50860D2E704F60C53C4F81439D2
:1042700004F6CC00CBE704F55263C4F8603904F6C9
:104280001810C4E704F63453C4F8AC3904F66410CB
:10429000BDE704F64853C4F8F83904F51B60B6E7E7
:1042A00004F65C53C4F8443A04F6FC10AFE704F596
:1042B0005763C4F8903A04F64820A8E704F68453FC
:1042C000C4F8DC3A04F69420A1E704F69853C4F845
:1042D000283B04F52E609AE704F6AC53C4F8743B0F
:1042E00004F62C3093E704F55C63C4F8C03B04F695
:1042F00078308CE7BDE8F0810F4C02081D530208AE
:1043000010B540220446002100F6D4501FF039FABF
:104310002046FFF717FF2046FFF714FF2046BDE8B1
:104320001040FFF749BF10B50446FEF78CFD20464C
:10433000BDE81040FFF7E4BF37B5304D04462868AC
:1043400003F0ACFA80B14FF0FF33286800220DF182
:10435000070103F073FA9DF80730522B1BD005D8E4
:10436000442B29D04C2B38D003B030BD552BFBD17A
:10437000D4F8D43D224A013304F69445C4F8D43D20
:104380000A2128460EF040FFC4F84C5704F204708E
:104390000CF03AFCE8E7D4F8D83D194A013304F6AA
:1043A000A845C4F8D83D0A2128460EF02DFFC4F8D0
:1043B000985704F5EA60EBE7D4F8DC3D104A013386
:1043C00004F6BC45C4F8DC3D0A2128460EF01CFF6B
:1043D000C4F8E45704F29C70DAE7D4F8E03D084AE8
:1043E000013304F54D65C4F8E03D0A2128460EF07E
:1043F0000BFFC4F8305804F5FD60C9E72023002006
:104400001D530208F02070474FF4A0707047292018
:10441000FDF794BC2820FDF791BC08B5FDF762FCC0
:10442000CA20FDF78BFCC320FDF76CFC0820FDF7CC
:1044300069FC5020FDF766FCCF20FDF77FFC0020D3
:10444000FDF760FCC120FDF75DFC3020FDF75AFC54
:10445000ED20FDF773FC6420FDF754FC0320FDF70D
:1044600051FC1220FDF74EFC8120FDF74BFCE820AB
:10447000FDF764FC8520FDF745FC0020FDF742FCBC
:104480007820FDF73FFCCB20FDF758FC3920FDF7E5
:1044900039FC2C20FDF736FC0020FDF733FC3420DE
:1044A000FDF730FC0220FDF72DFCF720FDF746FC60
:1044B0002020FDF727FCEA20FDF740FC0020FDF757
:1044C00021FC0020FDF71EFCB120FDF737FC002089
:1044D000FDF718FC1B20FDF715FCB620FDF72EFCA0
:1044E0000A20FDF70FFCA220FDF70CFCC020FDF711
:1044F00025FC1020FDF706FCC120FDF71FFC102055
:10450000FDF700FCC520FDF719FC4520FDF7FAFB7F
:104510001520FDF7F7FBC720FDF710FC9020FDF7F5
:10452000F1FB3620FDF70AFCC820FDF7EBFBF2207B
:10453000FDF704FC0020FDF7E5FBB020FDF7FEFBD6
:10454000C220FDF7DFFBB620FDF7F8FB0A20FDF7E0
:10455000D9FBA720FDF7D6FB2720FDF7D3FB0420CE
:10456000FDF7D0FB2A20FDF7E9FB0020FDF7CAFB91
:104570000020FDF7C7FB0020FDF7C4FBEF20FDF78F
:10458000C1FB2B20FDF7DAFB0020FDF7BBFB002071
:10459000FDF7B8FB0120FDF7B5FB3F20FDF7B2FBAF
:1045A000F620FDF7CBFB0120FDF7ACFB0020FDF76B
:1045B000A9FB0620FDF7A6FB2C20FDF7BFFBC820BA
:1045C000FDF70AFC2620FDF7B9FB0120FDF79AFB59
:1045D000E020FDF7B3FB0F20FDF794FB2920FDF74A
:1045E00091FB2420FDF78EFB0C20FDF78BFB0E20AA
:1045F000FDF788FB0920FDF785FB4E20FDF782FBC8
:104600007820FDF77FFB3C20FDF77CFB0920FDF7C0
:1046100079FB1320FDF776FB0520FDF773FB1720D0
:10462000FDF770FB1120FDF76DFB0020FDF76AFB25
:10463000E120FDF783FB0020FDF764FB1620FDF76A
:1046400061FB1B20FDF75EFB0420FDF75BFB1120E7
:10465000FDF758FB0720FDF755FB3120FDF752FB16
:104660003320FDF74FFB4220FDF74CFB0520FDF703
:1046700049FB0C20FDF746FB0A20FDF743FB2820F1
:10468000FDF740FB2F20FDF73DFB0F20FDF73AFB28
:104690001120FDF753FBC820FDF79EFB2920FDF7F5
:1046A0004DFBBDE808402C20FDF748BB08B5FDF7E1
:1046B00019FB0321D320FDF75DFB80B208BD10B5C7
:1046C000C4B2022203212046FDF7C2FA0A20FDF7F8
:1046D00007FB204600220321FDF7BAFABDE810408F
:1046E0000220FDF7FDBA38B50446E4B2FDF7AEFA94
:1046F00000212046FDF7C4FA012105462046FDF7BA
:10470000BFFA40EA052080B238BD10B5C4B24021DE
:104710002046FDF7B5FA030607D54C212046FDF7E4
:10472000AFFA003818BF012010BD01224B212046EE
:10473000FDF78EFA204600224B21FDF789FA002072
:10474000F2E773B50423C4B20E461546D7210DEB2C
:1047500003022046FDF7AEFA019B1BBA1A0DC3F304
:104760000B23328020462B8001224B21FDF770FA6B
:1047700000224B212046FDF76BFA02B070BD00000D
:1047800010B50A4A1378984204460DD051788842F1
:104790000AD00BB141B90123D454FDF757FA204692
:1047A000BDE81040FFF78BBF10BD00BFD42600202E
:1047B00010B5C4B209212046FDF762FA40F00102AB
:1047C000D2B220460921BDE81040FDF741BA10B52C
:1047D000C4B209212046FDF753FA092100F0FE0278
:1047E0002046BDE81040FDF733BA38B5C4B20D46D7
:1047F00020460A21FDF744FA40EA0502D2B22046DB
:104800000A21BDE83840FDF723BA10B50446FDF78C
:104810001EFA20461F21FFF7E8FF2046BDE81040A2
:10482000FFF7C6BF38B5C4B20D4620460A21FDF7D2
:1048300027FA20EA0502D2B220460A21BDE8384014
:10484000FDF706BA10B50446FFF7C1FF20461F2149
:10485000BDE81040FFF7E6BF10B5C0B20C460B2113
:10486000FDF70EFA204010BD1F21FFF7F5BF0A46E5
:10487000C0B20B21FDF7ECB91F21FFF7F8BF38B527
:10488000C4B20D4620461721FDF7FAF920EA0502C9
:10489000D2B220461721BDE83840FDF7D9B970B52E
:1048A000C4B2064604212046FDF7EAF9042100F0CF
:1048B000FB0205462046FDF7CBF93046F021FFF715
:1048C000DEFF05F0F80220460421FDF7C1F9492278
:1048D00020212046FDF7BCF90220FDF701FA204611
:1048E00001222121FDF7B4F920469A224121FDF74A
:1048F000AFF9204601224A21FDF7AAF920460122FC
:104900004B21FDF7A5F9204600224B21FDF7A0F928
:10491000204601225621FDF79BF92046012258210D
:10492000FDF796F9204601224021FDF791F9204636
:10493000FF220B21FDF78CF9BDE870400220FDF746
:10494000CFB90000054BD3F8882042F47002C3F8B9
:1049500088204FF000629A60704700BF00ED00E0D1
:1049600008B50B4B1A6842F400721A601A6842F4D8
:1049700080621A601A6842F480721A60032000F0A4
:1049800045FA0020FDF772FDFDF7AEFA002008BDE4
:10499000003C0240034A044B11681B780B4413602F
:1049A000704700BFD826002078000020014B18680F
:1049B000704700BFD826002038B50446FFF7F6FF41
:1049C000631C1CBF054B1B78054618BFE418FFF796
:1049D000EDFF431BA342FAD338BD00BF780000208F
:1049E00038B50446002800F09B80056C25B9FDF71A
:1049F0009BFA656484F83C50236CDB0600F18E80E2
:104A0000236C23F4885323F0020343F0020323644E
:104A1000444B5A6822F440325A605A6861680A432B
:104A20005A60236821695A6822F480725A605A6871
:104A300042EA01225A605A68A16822F040725A6024
:104A40005A680A435A609A68E16822F400629A60E0
:104A50009A680A439A603449A26A8A4252D0996895
:104A600021F07061996099680A439A609A68E16AD6
:104A700022F040529A609A680A439A609A6822F03B
:104A800002029A609A68217E42EA41029A6094F892
:104A90002020002A3ED05A68616A42F400625A60BF
:104AA0005A6822F460425A605A68013942EA413237
:104AB0005A60DA6AE16922F47002DA62DA6A01396C
:104AC00042EA0152DA629A6822F400729A609A68A5
:104AD00094F8301042EA41229A609A68616922F49F
:104AE00080629A609A68002042EA81229A6060643B
:104AF000236C23F0030343F001032364002384F8B1
:104B00003C3038BD9A6822F070629A609A6822F050
:104B10004052B2E75A6822F40062C9E70120EDE78B
:104B20000120EEE7002301400100000F82B00023C6
:104B3000019390F83C30012B69D0012380F83C3080
:104B400003689A68D2070BD59A68D1071AD4036C08
:104B500043F010030364436C43F0010343644CE0EF
:104B60009A682C4942F001029A602B4A1268B2FB03
:104B7000F1F202EB42020192019A002AE4D0019A7A
:104B8000013AF8E7026C22F4E06222F0010242F4FA
:104B9000807202645A68520541BF026C22F440528E
:104BA00042F480520264026C12F480521CBF426CC8
:104BB00022F006024264002280F83C206FF02202BC
:104BC0001A60164A516811F01F0F15491CD18B420B
:104BD00007D001F580718B420CD1526812F01F0F83
:104BE0000BD19A6812F0405F07D19A6842F0804278
:104BF0009A6002E00B498B4202D0002002B070475D
:104C0000526812F0100FEBE78B42F6D1E9E7022071
:104C1000F4E700BF40420F00740000200023014071
:104C2000002001400022014003689A68520570B5D7
:104C300004460D460BD59B68DE0508D5036C43F092
:104C400020030364002380F83C30012070BDFFF78F
:104C5000ADFE064623681A6891070CD56FF0120264
:104C60001A60226C42F4007222649A6812F0405F6B
:104C700017D00020EAE7681CEDD065B923681B68EF
:104C800013F00203E6D1226C84F83C3042F00402B7
:104C900022640320DAE7FFF789FE801BA842EDD8E3
:104CA000D8E7227E002AE4D1DA6A12F4700F02D02B
:104CB0009B685A05DDD4236C23F480732364236C32
:104CC000DB04D6D4236C43F001032364D1E70368EB
:104CD000D86C7047F7B50023019390F83C30012B56
:104CE000054600F08680012380F83C3008682B6878
:104CF0008E68092884B233D904EB4402DF681E3A77
:104D00004FF0070C0CFA02FC27EA0C07DF60DF68A3
:104D100006FA02F23A43DA604968062901EB810299
:104D20002DD8596B053A1F26964021EA0601596392
:104D3000596B04FA02F20A435A632F4A93420AD18A
:104D4000122837D12D4B5A6822F400025A605A6853
:104D500042F480025A60002085F83C0003B0F0BDA8
:104D60001A6900EB400C072707FA0CF722EA070242
:104D70001A611A6906FA0CF616431E61CCE70C2973
:104D80004FF01F010BD81E6B233A914026EA010118
:104D90001963196B04FA02F20A431A63CDE7DE6A5B
:104DA000413A914026EA0101D962D96A94400C4304
:104DB000DC62C2E7124B984201D01128CBD10F4BD5
:104DC0005A6822F480025A605A6842F400025A601B
:104DD0000B4B9842BFD10B4B0B4A1B68B3FBF2F352
:104DE0000A2253430193019B002BB4D0019B013B4A
:104DF000F8E70220B2E700BF002001400023014095
:104E0000120000107400002040420F000749CA68D9
:104E100022F4E0620302120403F4E063120C134371
:104E200043F0BF6343F40033CB60704700ED00E014
:104E3000164B30B5DC68C4F30224C4F10703251D0A
:104E4000042B28BF0423062D4FF0FF358CBF033CF5
:104E5000002405FA03F321EA0303A54022EA050230
:104E6000A340002843EA0203ACBF00F16040084AB7
:104E70004FEA0313B8BF00F00F00DBB2AABF00F582
:104E80006140135480F8003330BD00BF00ED00E0F6
:104E900014ED00E0002807DB044A4109012300F07B
:104EA0001F00834042F82130704700BF00E100E05E
:104EB00010B5044650B1437903F0FF0213B90271F3
:104EC000FDF78AF801236371002010BD0120FCE783
:104ED00010B5044620B390F8393003F0FF021BB937
:104EE00080F83820FDF790F8022384F839302368E1
:104EF00061681A6822F440320A431A605A6BA1684A
:104F000022F007020A435A631A6CE1686FF30D023C
:104F10000A431A6400200123E06384F8393010BD8D
:104F20000120FCE770477047036870B55E681D6834
:104F3000F207044614D5E90512D51A6822F48072E6
:104F40001A60C26B42F00102C26301229A6004231C
:104F500080F83930002380F83830436903B198472E
:104F6000B20616D5AB0414D523681A6822F4005291
:104F70001A6020229A60E36B43F00203E363042388
:104F800084F83930002384F8383063690BB1204647
:104F90009847300716D5290514D523681A6822F4D6
:104FA00000621A6008229A60E36B43F00403E36333
:104FB000042384F83930002384F8383063690BB156
:104FC0002046984772070BD56B0509D523681A68E8
:104FD00022F480621A6004229A602046FFF7A2FF42
:104FE000B00714D5A90512D523681A6822F40072F7
:104FF0001A6002229A60E36BE363012384F839307C
:10500000002384F8383023690BB120469847F20614
:1050100013D5EB0411D523681A6822F480521A6064
:1050200010229A60E36BE363012384F83930002394
:1050300084F838302046FFF776FF70BDF0B590F861
:105040003820012A03464FF002002BD0012283F8BA
:10505000382083F8390003EB0112D2E90740556A82
:10506000174F44EA0040093C012C9CBF05F07F42E9
:1050700010434FEA01161A6888BF40EA056091B9EB
:10508000516A394001435162012C9969916103D8F9
:10509000596A21F07F4191620122002083F8392072
:1050A00083F83800F0BDD16939400143D1619919C5
:1050B000012C896911619CBF25F07F451562EBE7E2
:1050C000F0FFFC002DE9F74FDFF8BC916C4A00239C
:1050D0000D6801249C4004EA0506AC4340F0B7800B
:1050E0004D68032705F003044FEA430807FA08FC5C
:1050F000671E012F6FEA0C0C34D8876807EA0C0E84
:10510000CF6807FA08F747EA0E078760476827EA7B
:10511000060EC5F300179F4047EA0E074760C768B1
:1051200007EA0C0E8F6807FA08F747EA0E07022C09
:10513000C76019D14FEAD30A00EB8A0A03F0070BC4
:10514000DAF820704FEA8B0B4FF00F0E0EFA0BFEC1
:1051500027EA0E0E0F6907FA0BF747EA0E07CAF89F
:10516000207001E0032CDAD1076804FA08F407EA9A
:105170000C073C4315F4403F046068D000240194C0
:10518000D9F8444044F48044C9F84440D9F8444034
:1051900023F0030707F1804704F4804407F59C37A8
:1051A000019403F0030C019CD7F808E04FEA8C0C43
:1051B0000F2404FA0CF42EEA040E324CA0424DD017
:1051C00004F58064A0424BD004F58064A04249D02D
:1051D00004F58064A04247D004F58064A04245D025
:1051E00004F58064A04243D004F58064A04241D01D
:1051F00004F58064A0423FD004F58064A0423DD015
:1052000004F58064A04214BF0A24092404FA0CF4B3
:1052100044EA0E04BC609468F74315F4801F0CBF89
:105220003C4034439460D46815F4001F0CBF3C40EC
:105230003443D460546815F4003F0CBF3C40344301
:1052400054601468ED0354BF3C4034431460013390
:10525000102B7FF43DAF03B0BDE8F08F0024D5E7FD
:105260000124D3E70224D1E70324CFE70424CDE7C8
:105270000524CBE70624C9E70724C7E70824C5E7C8
:10528000003C01400000024000380240036919421E
:1052900014BF0120002070470AB1816170470904E2
:1052A000FBE7436901EA030221EA030141EA024103
:1052B0008161704701684B6913F480634FF000020D
:1052C00010D06FF480634B612023026380F83D307F
:1052D00080F83E20036C80F83C2043F00403036414
:1052E00001207047184670472DE9F84606460F46DC
:1052F00091461D464FEA114A3368BAF1010F0CBFBF
:105300005C699C6927EA0404A4B2B4FA84F46409D1
:10531000A14501D0002025E06A1CEED0FFF746FB36
:10532000089BC01AA84201D8002DE5D13368BAF114
:10533000010F0CBF5B699B6927EA03039BB2B3FAB9
:1053400083F35B099945D7D100232022336386F884
:105350003D2086F83E30326C86F83C3042F0200228
:1053600032640120BDE8F8862DE9F04104460F467D
:10537000164698462568686927EA000080B2C0B1E1
:105380006B695A0517D52B6843F400732B606FF4D3
:1053900080636B6120220023236384F83D2084F81E
:1053A0003E30236C43F004032364002384F83C3034
:1053B0000120BDE8F081731CDDD0FFF7F7FAA0EB08
:1053C0000800B04201D8002ED4D123685A6927EAD8
:1053D000020292B2002ACDD000232022236384F857
:1053E0003D2084F83E30236C1343DDE770B504465E
:1053F0000D46164623685B691B0601D500201EE09A
:105400002046FFF757FFC8B96A1CF3D0FFF7CEFA62
:10541000801BA84201D8002DECD123685B6913F0F2
:105420008003E7D12022236384F83D2084F83E30B6
:10543000226C84F83C3042F020022264012070BDCE
:105440002DE9F0431546026885B0DDE90C789946F0
:10545000136843F4807313600E463B46CDF800801A
:1054600000224FF001110446FFF73EFF236838B1D8
:105470001B68DB0502D54FF400732364032620E08C
:1054800006F0FE061E611A4943463A462046FFF7DB
:105490006BFFA8B9236803905A6903929B69039331
:1054A000424639462046039BFFF7A0FF064660B1FF
:1054B000236C042B01BF2268136843F4007313604C
:1054C0000126304605B0BDE8F083B9F1010F23682D
:1054D00002D1EDB21D61F4E72A0A1A61394642464B
:1054E0002046FFF783FF0028E2D12368F1E700BFE1
:1054F000020001002DE9FF479A46036815461A6825
:1055000042F480621A601A68DDE90C7842F4807215
:105510001A600E463B46CDF8008000224FF0011184
:105520000446FFF7E1FE236838B11B68DB0544BF82
:105530004FF400732364032021E05FFA86F906F03C
:10554000FE061E612B4943463A462046FFF70CFFF4
:10555000A0B9236803905A6903929B69039342465A
:1055600039462046039BFFF741FF58B1236C042BBB
:1055700001BF2268136843F400731360012004B074
:10558000BDE8F087BAF1010F23681AD1EDB24246A7
:105590001D6139462046FFF729FF02460028E5D164
:1055A00021680B6843F480730B602046CDF80080BF
:1055B0003B464FF00111FFF797FE226860B1136878
:1055C000B4E72A0A1A61394642462046FFF70EFF21
:1055D0000028CBD12368D9E749F0010313610549BD
:1055E00043463A462046FFF7BFFE003818BF012069
:1055F000C5E700BF0200010070B504460D4616461F
:1056000023685B695B0701D500201EE02046FFF799
:1056100051FEC8B96A1CF3D0FFF7C8F9801BA84235
:1056200001D8002DECD123685B6913F00403E7D1A6
:105630002022236384F83D2084F83E30226C84F8D5
:105640003C3042F020022264012070BD70B5044657
:105650000D46164621684B6913F0400301D0002027
:1056600011E04A69D2060FD56FF010024A6120227C
:10567000236384F83D2084F83E30236C23640023A8
:1056800084F83C30012070BDFFF790F9801BA842E0
:1056900001D8002DDED123685B6913F04003D9D116
:1056A0002022236384F83D2084F83E30236C13438A
:1056B000E4E7000070B5044608B9012070BD90F819
:1056C0003D3003F0FF021BB980F83C20FCF7BEFC24
:1056D000242384F83D3023681A6822F001021A60FE
:1056E0001A6842F400421A601A6822F400421A60F2
:1056F00000F0A8FE3F4B65689D4294BF3E4B3F4B78
:1057000098428CBF00230123002BD6D12268394E4A
:1057100051683B4BB0FBF3F321F03F011943B54215
:10572000516088BF4FF49676116A88BF734321F0A9
:105730003F0184BF4FF47A76B3FBF6F301330B439A
:105740001362D169431E2B4821F44F41854221F059
:10575000FF0132D86D0040F6FC70B3FBF5F3013366
:10576000034242D0C3F30B031943D161D4E907309C
:105770001168034321F0C0010B4313609168D4E921
:10578000030321F40341034321F0FF010B43936022
:10579000D4E90530D168034321F0FF010B43D36006
:1057A000136843F00103136000202023206484F871
:1057B0003D30206384F83E0080E7A06850B905EBD7
:1057C0004505B3FBF5F30133C3F30B037BB143F49E
:1057D0000043C9E719206843B3FBF0F30133C3F377
:1057E0000B0323B143F44043BEE70423BCE701238A
:1057F000BAE700BFA08601007F841E00FF083D00BD
:1058000040420F002DE9F743044699460C9E0F468F
:105810009046FFF7CBF894F83D30202B054603D097
:10582000022003B0BDE8F08300903C491923012217
:105830002046FFF759FD0028F2D194F83C30012BA7
:10584000EED02068012384F83C300368D9075EBF9E
:10585000036843F001030360036823F400630360FB
:10586000212384F83D30402384F83E300023236414
:105870000A9B6362BDF82C306385638D2385284BBA
:10588000E3624246CDE900654B4639462046FFF7C4
:10589000D7FD00282AD00120C3E7FFF7A7FD40B1BC
:1058A000236C042B01BF2268136843F40073136058
:1058B000F1E7636A27681A4612F8011B39616262D0
:1058C000628D218D013A92B262857A69481E80B25A
:1058D000520720850AD548B15A783A61023363628B
:1058E000638D013B02399BB221856385238D2A4656
:1058F00031462046002BD0D1FFF77EFE0028CFD1C5
:105900002268136843F400731360202384F83D3049
:1059100084F83C0084F83E0083E700BF02001000DA
:105920000000FFFF2DE9F043044687B09946109F21
:105930000D469046FFF73AF894F83D30202B064686
:1059400004D00225284607B0BDE8F08300907A49CC
:10595000192301222046FFF7C7FC0028F1D194F853
:105960003C30012BEDD02068012384F83C300368E3
:10597000DB075EBF036843F001030360036823F4A1
:1059800000630360222384F83D30402384F83E30D6
:10599000002323640E9B6362BDF83C306385638DF6
:1059A0002385664BE3622946CDE900764B464246A5
:1059B0002046FFF79FFD054608B10125C2E7228D6D
:1059C0002368B2B902905A6902929A690292029AC5
:1059D0001A6842F400721A60DFF86481238D002B8C
:1059E0002CD1202284F83D2084F83C3084F83E30CD
:1059F000A8E7012A0AD11A6822F480621A6003908B
:105A00005A6903929A690392039AE1E7022A0ED136
:105A10001A6822F480621A601A6842F400621A60FE
:105A200004905A6904929B690493049BD4E70590FF
:105A30005A6905929B690593059BCDE7032B56D8C0
:105A4000012B15D1324639462046FFF7FFFD0028CD
:105A5000B3D123681A69636A1A70636A0133636297
:105A6000238D013B2385638D013B9BB26385B5E7A5
:105A7000022B00963B464FF000024146204619D1CA
:105A8000FFF732FC002898D123681A6842F40072AC
:105A90001A601A69636A1A70626A531C6362238D02
:105AA000013B2385638D013B9BB2638523681B69A2
:105AB0005370D2E7FFF718FC024600287FF47DAF51
:105AC0002368196821F4806119601969636A197083
:105AD000636A01336362238D013B2385638D013B40
