:020000040800F2
:10000000000003206D0600080D2500080F250008DC
:100010001125000813250008152500080000000020
:10002000000000000000000000000000B185000892
:10003000172500080000000041860008BF7E000868
:10004000BD060008BD060008BD060008BD06000884
:10005000BD060008BD060008BD060008BD06000874
:10006000BD060008BD060008BD060008BD06000864
:10007000BD060008BD060008BD060008BD06000854
:10008000BD060008BD060008BD060008BD06000844
:10009000BD060008BD060008BD060008BD06000834
:1000A000BD060008BD060008BD060008BD06000824
:1000B000BD060008BD060008BD060008BD06000814
:1000C000BD060008BD060008BD060008BD06000804
:1000D000BD060008BD060008BD060008BD060008F4
:1000E000BD060008BD060008BD060008BD060008E4
:1000F000BD060008BD060008BD060008BD060008D4
:10010000BD060008BD060008BD060008BD060008C3
:10011000BD060008BD06000819250008BD06000838
:10012000BD060008BD060008BD060008BD060008A3
:10013000BD060008BD060008BD060008BD06000893
:10014000BD060008BD060008BD060008BD06000883
:10015000BD060008BD060008BD060008BD06000873
:10016000BD060008BD060008BD060008BD06000863
:10017000BD060008BD060008BD060008000000001E
:10018000BD060008BD060008BD060008BD06000843
:10019000BD060008BD060008BD060008BD06000833
:0C01A00025250008BD06000831250008D8
:1001B00010B5054C237833B9044B13B10448AFF3A1
:1001C00000800123237010BD800300200000000088
:1001D000C050020808B5034B1BB103490348AFF3F5
:1001E000008008BD0000000084030020C050020809
:1001F000034613F8012B002AFBD1181A0138704767
:1002000001F0FF01102A2BDB10F0070F08D010F8C7
:10021000013B013A8B422DD010F0070F42B3F6D1CB
:10022000F0B441EA012141EA014122F007047FF0E4
:1002300000070023F0E80256083C85EA010586EA3B
:10024000010685FA47F5A3FA87F586FA47F6A5FA77
:1002500087F68EB9EED1F0BC01F0FF0102F0070283
:1002600032B110F8013B013A83EA010313B1F8D12E
:100270000020704701387047002D06BF354603380F
:10028000073815F0010F07D1013015F4807F02BF48
:10029000013015F4C03F0130F0BC0138704700BF99
:1002A0007BB972B90029BEBF00204FF0004106E0C3
:1002B00008BF00281CBF6FF000414FF0FF3000F076
:1002C000D3B9ADF1080C6DE904CE002909DB002B90
:1002D0001ADB00F04DF8DDF804E0DDE9022304B09C
:1002E0007047404261EB4101002B1BDB00F040F8FE
:1002F000DDF804E0DDE9022304B0404261EB410196
:10030000524263EB43037047524263EB430300F0F6
:100310002FF8DDF804E0DDE9022304B0404261EB90
:1003200041017047524263EB430300F021F8DDF8CE
:1003300004E0DDE9022304B0524263EB430370475B
:1003400053B94AB9002908BF00281CBF4FF0FF313C
:100350004FF0FF3000F088B9ADF1080C6DE904CE24
:1003600000F006F8DDF804E0DDE9022304B0704790
:100370002DE9F047089D8E4604468846002B4AD159
:100380008A42174662D9B2FA82F64EB1C6F120030C
:1003900001FA06F820FA03F3B74043EA0808B4402C
:1003A0004FEA174E1FFA87FCB8FBFEF1230C0EFB39
:1003B000118843EA084301FB0CF29A4209D9FB1861
:1003C00001F1FF3080F0EA809A4240F2E780023982
:1003D0003B449A1AA3B2B2FBFEF00EFB102243EA92
:1003E000024300FB0CFC9C4509D9FB1800F1FF32CD
:1003F00080F0D6809C4540F2D3803B44023840EAEE
:100400000140A3EB0C0300211DB1F3400022C5E91C
:100410000032BDE8F0878B4205D90DB1C5E9000176
:1004200000210846F5E7B3FA83F1002946D1734568
:1004300002D3824200F20581841A6EEB030201208E
:100440009046002DE5D0C5E90048E2E7002A00F01B
:100450009080B2FA82F6002E40F0A4808A1A030C33
:100460004FEA174E80B2BCB20121B2FBFEFC0EFB7C
:100470001C2243EA024304FB0CF29A4207D9FB1800
:100480000CF1FF3802D29A4200F2E080C4469B1A77
:10049000B3FBFEF20EFB123340EA034302FB04F40B
:1004A0009C4207D9FB1802F1FF3002D29C4200F2B5
:1004B000CA8002461B1B42EA0C40A5E7C1F1200698
:1004C0008B4022FA06F71F430EFA01F420FA06F3D6
:1004D0002EFA06FE4FEA1749234300FA01F81FFAE5
:1004E00087FCBEFBF9F01C0C09FB10EE44EA0E443D
:1004F00000FB0CFEA64502FA01F209D93C1900F1F5
:10050000FF3A80F09C80A64540F2998002383C4436
:10051000A4EB0E041FFA83FEB4FBF9F309FB1344AA
:100520004EEA044403FB0CFCA44508D93C1903F132
:10053000FF3E80F08280A4457FD9023B3C4443EAE1
:100540000040A4EB0C04A0FB02EC64457346E146BA
:1005500062D35FD05DB1B8EB030264EB090404FA27
:1005600006F622FA01F31E43CC40C5E900640021DF
:100570004FE7B1FBF2FC010C41EA0E4180B240EAC8
:1005800001423B4638463C46B846BE462026B1FBB3
:10059000F7F1A2EB080241EA0C4166E7014618E7D1
:1005A00010462CE7C6F120022EFA02F3B740B14004
:1005B00020FA02F24FEA174E0A43B3FBFEF8BCB230
:1005C0000EFB1833110C41EA034108FB04F9B0405B
:1005D00089454FEA104380B23ED9791808F1FF3CB3
:1005E00001D289451FD8A1EB0901B1FBFEF909FB36
:1005F00004F80EFB191192B242EA0142424529D297
:10060000BA1809F1FF31C4D24245C2D2A9F10201A0
:100610003A44BEE7F0459DD2BEEB02036CEB070CFB
:100620000138E14696E7A7EB09094944A8F1020C15
:10063000B1FBFEF909FB04F8DBE773467FE75046A0
:1006400066E70846FDE63B44023A33E7ACF1020CAC
:100650003B441CE749469CE7A1EB0901C446B1FBBA
:10066000FEF909FB04F8C4E7704700BFDFF834D097
:10067000002103E00C4B5B58435004310B480C4BFA
:1006800042189A42F6D30B4A02E0002342F8043B98
:10069000094B9A42F9D304F06BFC23F0FBFD01F007
:1006A0005DF8704700000320F8FF030800000020F9
:1006B000640100208003002040420120FEE77047D3
:1006C00008B500F0BBFDBDE8084000F03FBD00F0FC
:1006D000B7BD704710B50421044622F0CDFB20467B
:1006E00010BD000038B50C4B0C4C18800C4B822010
:1006F00019806368984740F6110398420AD1094D62
:1007000023682C60822098472B688220DB689847FA
:10071000002038BD0120FCE7A60300204C0000208B
:10072000A4030020A80300204FF4A071F020FFF7DD
:10073000D9BF0000F7B5394D2B6804461B698220EC
:100740009847208000284ED02B680DF106025B6987
:1007500001A982209847324B1B78002B4BD0BDF863
:10076000062040F674639A423FD9ADF80630BDF8D2
:1007700006209B1A9BB20A2B42D90B22B3FBF2F341
:10078000284A1288934201D9013A93B2BDF8042055
:10079000254840F6B8318A4234D8C2F571620E322B
:1007A000016892B20F25B2FBF5F2204D2D88AA42C6
:1007B00084BF05F1FF35AAB28A4215468EB22AD906
:1007C000921B91B21A4E3768BB42BAB28CBF9A1ACA
:1007D000D21A92B211440529C4BF05603360036880
:1007E00063803368A38003B0F0BDB32A9CBFB422FA
:1007F000ADF80620BBE7BDF80630A3F5B473B9E742
:100800000023C3E7C2F56D62083292B20E2A016876
:10081000C8D800252A46891A89B2D3E7A803002040
:10082000C4230020A4030020A0030020A60300206E
:100830009C03002037B568460D461446FFF77AFF43
:10084000BDF8000030B1BDF802302B60BDF80430B7
:100850002360012003B030BD032821D8DFE800F079
:10086000020B12190F4B1A68B2FA82F252090421D4
:100870000D4805F0EFB90B4B5A68B2FA82F25209F3
:100880000821F5E7074B9A68B2FA82F25209102163
:10089000EEE7044BDA68B2FA82F252092021E7E768
:1008A000704700BFAC03002000100240032821D88D
:1008B000DFE800F0020B12190F4B1A68003A18BF5C
:1008C000012204210D4805F0C5B90B4B5A68003AC6
:1008D00018BF01220821F5E7074B9A68003A18BFB4
:1008E00001221021EEE7044BDA68003A18BF01221A
:1008F0002021E7E7704700BFAC0300200010024052
:1009000003280DD8DFE800F00206080A0421054894
:1009100005F0A5B90821FAE71021F8E72021F6E74C
:10092000704700BF0010024008B5032811D8DFE867
:1009300000F0020A0C0E0421074805F085F9431E59
:100940005842584108BD0821F6E71021F4E720215C
:10095000F2E70020F3E700BF0010024070B5084D39
:1009600000240126E0B2FFF7DFFF18B12B68012B4E
:1009700018BF2E600134052C05F10405F2D170BDBD
:10098000AC030020012380F8781080F8793070479C
:100990007047002070470000034B4164003918BFC6
:1009A00001211970704700BFFF34012070470020FB
:1009B0007047836B0BB10846184770474FF6FF70BE
:1009C0007047406803689B691847704770477047D5
:1009D0007047704710B5044600F048FD236803498E
:1009E000D3F890302046BDE810401847000000D0F2
:1009F00008B503680446D3F8843098472368204636
:100A0000DB6F984700F0ECF8236820465B6F98474F
:100A1000292001F093F900F0E3F8236820465B6F8A
:100A20009847F8E710B504460AF0D8FB236820463B
:100A3000D3F8BC30BDE81040184700F0FBBC00F014
:100A4000FFBC00F031BD00F0D1BC00F041BD00F0B2
:100A500049BD00F0D5BC09F0EFBD10B584210446B6
:100A600022F00AFA204610BD10B590F8341090F824
:100A700078400C4B8C421A7809D03AB90A4A0B4993
:100A80001488088810800C8001221A7010BD002A7A
:100A9000FCD0054A05491488088810800C80002283
:100AA000F3E700BFF8340120F4340120F6340120CC
:100AB00070B50D46194635B9094B0A4A0A4840F245
:100AC000FF2123F015F9C0E90F52084B003A18BF77
:100AD00001221A700368BDE87040D3F890301847BF
:100AE0003051020868510208B6510208FE34012054
:100AF00008B5094B1B888B4203D8084B1B889342CF
:100B000005D9074B074A0848A32123F0F1F8074B02
:100B10001980074B1A8008BDF4340120F6340120F7
:100B2000FB5102085E520208B6510208FA34012055
:100B3000FC340120034690F87A0018B15868036825
:100B40001B68184770470000012108B500220846BD
:100B500007F03EFA0A4B186028B90A4B0A4A2821C6
:100B60000A4823F0C5F800220421012007F0D8FA32
:100B7000074B186018B9074B034A2C21F0E708BD52
:100B8000C0030020A1520208EA52020819530208C9
:100B9000BC0300204F530208024B4FF0FF3118688E
:100BA00007F060BAC0030020014B186807F086BA4E
:100BB000C0030020024B0021186807F053BA00BFA1
:100BC000C0030020FFF7F0BF03480449006800237A
:100BD0001A4607F0E0BA00BFBC0300200400002062
:100BE00013B5084C00231A4601A9206807F004FB3E
:100BF00020684FF0FF33002201A907F0FDFA02B090
:100C000010BD00BFBC03002003685B6C18470120C7
:100C1000704703689B6A1847FEE740F2EF30704761
:100C2000054B0360054B4FF08062C3F88820BFF38B
:100C30004F8FBFF36F8F7047585E020800E100E0EE
:100C400010B504464FF45A61FFF7EAFF204622F040
:100C500013F9204610BD000082B0002301930E4B13
:100C60001A6B42F400021A631A6B02F4000201923A
:100C7000019A1A6942F400021A611A6922F4000208
:100C80001A61064B064A1A61064A5A61064B4FF032
:100C900080629A6002B0704700380240A4250020AC
:100CA000F90E0008190C000800E100E008B50A2858
:100CB00009D8DFE800F006100E0808080810101028
:100CC0001000022008BD054B054A0648902123F07C
:100CD0000FF80020F6E70120F4E700BF9153020867
:100CE000AC530208F753020838B50C46887FFFF76B
:100CF000DDFFA58AE28A164B2169586342EA054264
:100D00005A64628BD963521B1A642568082D0ED170
:100D10009A611A615862207F0E4A42EA0062DA61E3
:100D2000E2681A620C4A5961D9601A6038BD002223
:100D3000D8611A61E1680A0A480902F4784200F4AD
:100D4000FC600243C1F3C4010A439A63034AECE71F
:100D500000B002400900010001230200012303004A
:100D600008B50B280BD8DFE800F00612100A0A0AB3
:100D70000A0808080808022008BD0520FCE7054B02
:100D8000054A06486F2122F0B3FF0020F4E7012056
:100D9000F2E700BF915302082B540208F7530208F0
:100DA0002DE9F04191F81D800C464046FFF7D8FF31
:100DB000A77F05463846FFF7D3FF06463846FFF7BC
:100DC00075FFA18A628B444B521A1A649A61228B76
:100DD000521A1A61E28A586342EA01425A6421694E
:100DE0006268D963DA602068802828D0227F0FD813
:100DF000202867D0402865D004281AD0364B45EA11
:100E0000026545F40035B845DD6161D0334A44E000
:100E1000B0F5807F04D0B0F5007FEFD1304800E01E
:100E2000304840EA0262DA61E2681A625E62596141
:100E300032E045EA026242F40032DA61F6E7A06885
:100E4000021DDA62227F45EA026545F40035DD6164
:100E50005E625961017841B1012921D0224B234AB8
:100E600023484FF48D7122F043FFDA69418822F460
:100E70007F42013922F0100242EA0122DA610121A7
:100E8000154BDA6942F02002DA61DA699206FCD485
:100E900010229A600029B9D0164A1A60BDE8F08184
:100EA000B2F1FF01DA69408822F47F4200F1FF309D
:100EB00022F0100242EA002242F0100218BF012183
:100EC000DA61DDE745EA0262034B42F40032B4E73F
:100ED00042F20132E1E700BF00B00240012301000D
:100EE000090002000A000200755402088F5402082B
:100EF000F753020801230200024B1B68586803687D
:100F00005B6918470035012070B5044625460A4B39
:100F10000C30002660602672667245F8203B602225
:100F200029460AF0B1FA04F55A63EE6024359D4271
:100F3000FBD1204670BD00BF585E0208034B1A6803
:100F4000D207FCD423229A60704700BF00B0024051
:100F50007047000030B50F4C2568ED07FCD4232501
:100F60000904A56041F001010225FF2B656361645E
:100F7000E0630AD00849656241EA0363E361074B15
:100F800022626061E060236030BDE561039BA36382
:100F9000034BF8E700B00240090001000100020025
:100FA0000100030030B50E4C2568ED07FCD4232565
:100FB0001204A56042F001020225FF2B6563626402
:100FC000E063E16008D01B0643F00213E361054BC8
:100FD00065626061236030BD034BE3610123F9E783
:100FE00000B0024001000200020002FF30B50B4CCD
:100FF0002568ED07FCD4232512041B06A56043F4E5
:101000000033022542F0010265636264E063E1603F
:10101000E361034B65626061236030BD00B0024054
:1010200001000200012070470C2070470C2303FBD5
:101030000100083070470C2303FB010008307047A3
:101040000120704740F6B460704740F6B46303FB7C
:1010500001000830704740F6B46303FB010008301C
:101060007047012070471020704700EB01100830D6
:10107000704700EB011008307047084601F0FABCD9
:1010800010B5034B0360044609F02DF8204610BD4F
:10109000105F020810B50446FFF7F2FF2046142146
:1010A00021F0EAFE204610BD10B5034B0360044654
:1010B00009F019F8204610BDDC5E020810B50446A0
:1010C000FFF7F2FF204640F6BC6121F0D5FE204636
:1010D00010BD000010B5034B0360044609F003F88F
:1010E000204610BDA85E020810B50446FFF7F2FFC7
:1010F0002046182121F0C0FE204610BD10B5084B37
:101100000360044600F6E860FFF7BAFF04F12C0024
:10111000FFF7CAFF04F11400FFF7DCFF204610BD03
:10112000445F020808B50248FFF7E8FF08BD00BFAA
:101130009C12002010B50446FFF7E0FF204641F264
:101140005C0121F099FE204610BD00002DE9F3411D
:1011500001F062FA054601F063FA002401462346D5
:1011600028462246009412F0D5FD274B274A1A60E4
:10117000204602F099FF264D264B274A27489A60C1
:1011800012F030FD2B68BFF35B8FDB0735D42846A8
:1011900021F074FE88B3224C224B236004F5706664
:1011A00004F1140004F12C0804F6E8676060C4F848
:1011B0000880E760266108F097FF1B4B636140469B
:1011C00008F092FF194BE362384608F08DFF184B88
:1011D000C4F8E83E04F6FC6002F0EAFF224604F69A
:1011E000FC61304602F0DAFF304601F043FC114862
:1011F00022F09CFD284621F04DFE0F4802B0BDE8CC
:10120000F041FFF7E7BB00BF643501204804002030
:1012100098120020680400204C04002008000020E0
:101220009C120020445F0208A85E0208DC5E0208EF
:10123000105F020825110008C40300207047000059
:101240000148FFF7D5BB00BFC403002070B5264E90
:10125000264C274D274B23603046FFF755FE284686
:1012600017F05EFE244810F065FA244B2448DC6039
:1012700000224FF48071C3E9121222491A86C3E991
:101280001A12214983F85820C3E91E011F49C3F8E7
:1012900080101F491F480B60F021C3E90422C3E9F5
:1012A0000622C3E90822C3E90A22C3E90E22C3E9E0
:1012B0001022C3E91422C3E917225A6683F870206A
:1012C0005A67C3E9016501801348018013484FF450
:1012D000A07101801248018012490A70012283F82E
:1012E0003420114A1A6070BDF404002094120020CA
:1012F00068040020205102084C040020C403002090
:101300000000010101000001000450001A00140057
:1013100000350120F4340120FA340120F634012094
:10132000FC340120F83401206C5D02080148FFF70D
:1013300077BC00BFF4040020002070478180704714
:10134000C180704701817047418170477047704785
:1013500070477047704710B4C4880368121B8488B4
:101360005B6D091B12B25DF8044B09B218474FF6CA
:10137000FF7383814FF0FF3303621368C361106012
:101380007047002070478B8883800120704770472A
:1013900080F82610704790F82600704710B500229C
:1013A000B1F90840B1F90A10028042808480C180FE
:1013B00010BD0022028042808280C2807047017787
:1013C000704780ED080A704780F82410704780F855
:1013D0002510704701207047983070478C30704757
:1013E000843070477047704770470000034B90226D
:1013F00083F85A2383F85823704700BF00E100E0C8
:10140000094A0A49D3680A48C3F30A03013B9BB25D
:101410000B801169C1F30A01013901801364536B18
:1014200043F001035363704700680140FA22002033
:10143000F8220020014BD3F8AC007047006801404F
:10144000024B0122C3F8AC105A6270470068014099
:1014500010B52C21044621F00FFD204610BD10B51B
:10146000BC21044621F008FD204610BD70B504469D
:1014700009F037F923689D6E0EF0F4FE0146204610
:10148000A8472368054AD3F88C502046AC46002371
:10149000BDE87040A2F51631604700BF00B004D02F
:1014A00009F006B909F010B909F0CCB809F03BBA57
:1014B00090F8252012B103685B691847704790F8CF
:1014C00025201AB190F8242002B11860704700005E
:1014D000034B4FF080629A604FF080729A607047C1
:1014E00000E100E0084B4FF08062C3F88820BFF3B2
:1014F0004F8FBFF36F8F4FF08072C3F88820BFF318
:101500004F8FBFF36F8F704700E100E070B500238D
:10151000124E8380124B0360336893F858200546BF
:101520000AB1D86C00B998680368DB6A98473368D9
:10153000B0FA80F4D86C640930B10368DB6A98476C
:10154000002808BF44F001042CB9064B064A07489E
:101550002C2122F0CDFB284670BD00BF00350120B4
:10156000585F0208CD5402082B5502086455020842
:1015700070B5254E3568BFF35B8F15F0010540D17E
:10158000304621F07BFC00283BD0204C204B2561CD
:1015900004F13400C4E90035C4E90255E584A562CC
:1015A000A58510F0ACFB04F158000BF021FC194BA1
:1015B000A3652046184B40F8843BFFF7A7FF174B65
:1015C000C4F884302433C4F88C304FF4C803C4E921
:1015D00028350023C4F8AC30C4F8B030C4F8B430B7
:1015E000C4F8B8300E480F4BC4F89050C4F89C5063
:1015F000C4F8A850C4F8983022F098FB304621F087
:1016000049FC024870BD00BFFC22002000230020DE
:1016100040660208785F0208F05F0208F46502087D
:10162000E9130008D465020838B5184C23685BB389
:10163000174B184A1B6C11888B4216D1164B198810
:1016400005F010F9236893F86A200025013283F829
:101650006A2083F87C50FFF7B7FA206809F0BEFDD6
:101660002846BDE83840FFF7F7B805F0FBF82468D6
:10167000236820461B6A9847012384F87C300020A9
:10168000BDE83840FFF712B938BD00BF0035012072
:1016900000680140FA220020F822002007B5064B1E
:1016A000ADF806001B68054801220DF1060105F0A2
:1016B00089FE03B05DF804FB0C00002050240020DC
:1016C00030B595B0102200210AA822F03AFD14226C
:1016D000002103A822F035FD00241E4B01941A6C52
:1016E00042F080521A641B6C03F080530193019BFB
:1016F000194B02941A6842F440421A601B6803F4C2
:10170000404302930122029B4FF48033CDE908232A
:1017100002254FF480030821CDE90E534FF4B47332
:10172000CDE9101308A804231393129505F0F2F8DD
:1017300005F0B6F80F23CDE903354FF4A0504FF470
:101740008053CDE90603052103A8059405F0BEFAF0
:1017500015B030BD00380240007000402DE98048CF
:101760009BB003F013FCFFF7ABFF142200210DA880
:1017700022F0E7FC0024C94B00941A6BC848C94DFD
:1017800042F010021A631A6B02F010020092009AE3
:1017900001941A6B42F020021A631A6B02F02002C5
:1017A0000192019A02941A6B42F080021A631A6B3A
:1017B00002F080020292029A03941A6B42F0040231
:1017C0001A631A6B02F004020392039A04941A6BD0
:1017D00042F001021A631A6B02F001020492049AA9
:1017E00005941A6B42F002021A631A6B02F00202AD
:1017F0000592059A06941A6B42F040021A631A6B1E
:1018000002F040020692069A07941A6B42F0080210
:101810001A631B6B03F00803224607933C21079BC6
:1018200004F018FAA0480122022104F013FA22461B
:101830009D48042104F00EFA22469C484FF4405182
:1018400004F008FA01263C23CDE90D3694480F94A4
:1018500003230DA90227109304F012F992480DA951
:10186000CDE90D76CDE90F4404F00AF904238E4842
:101870000DA9CDE90D36CDE90F4704F001F98C48EB
:101880000F940DA9CDE90D6404F0FAF84FF440531C
:1018900086480DA9CDE90D36CDE90F4704F0F0F8E3
:1018A0000DA983480F94CDE90D6404F0E9F881484F
:1018B000814B036003F012FEDFF820C27F4B2C62E5
:1018C000C5E900C328464FF48043C5E90434C5E99F
:1018D0000244C5E9064404F0CBFB1021284604F07D
:1018E0000FFE2146284604F02AFE754DDFF8F0E190
:1018F000AC624FF48273C5E900E34FF4007818231B
:10190000C5E9068328460A23C5E90244C5E904441B
:10191000C5E90844EB6205F0F9FC8F2322463946FD
:1019200061488DF824308DF8344004F093F9324644
:101930004FF47A7309A9284605F044FD4FF47A73F1
:1019400032460DA9284605F0E9FE3246394656488A
:101950005C4D04F07FF99DF83430D32B04BF5A4B13
:101960001E705A4B01261027C5E90036402300247B
:10197000C5E904734FF4C073C5E906344FF400633E
:10198000C5E908344FF400534FF002084FF0040A41
:101990004FF0030BAB620DA907232846CDE90FA337
:1019A000CDE90D834FF00809C5E9024ACDE911B828
:1019B000CDF84C8005F08EFB4FF6FF7209A9284642
:1019C000CDE90A96089409960C9405F0A3FB3046DD
:1019D00003F008FB4FF6FF7209A92846CDE90989F3
:1019E000CDE90B6405F096FB4FF6FF7209A9284676
:1019F000CDE909B9CDE90BA405F08CFB4FF40C73CC
:101A00000893089B0C934FF6FF7209A92846CDE96D
:101A100009A90B9605F07EFB40F26A51284605F0B5
:101A200097FB342221460DEB020022F08AFB284D61
:101A3000284B2C61C5E900340923C5E905361D236F
:101A4000C5E9073B40F20D1240F24313C5E90923F3
:101A500040F2171140F247132846C5E90B13C5E9B8
:101A60000244AC8685F8364004F004FEFF21F022E3
:101A7000CDE912144FF005094FF480614FF4A073C3
:101A8000CDE90E24CDE91419CDE916420DA922465F
:101A90002846CDE91038104D189323E00038024055
:101AA000001002405025002000080240000C0240B7
:101AB00000000240E425002000300240A086010022
:101AC00050240020D4230020C4230020400100A083
:101AD000A824002000680140BC230020005C0040D6
:101AE000005001400D94ADF864408DF8664004F05C
:101AF0008CFE444B2B601B68DFF84CA198472B6889
:101B0000414DDB689847414B2846C5E90034C5E99B
:101B10000284C5E90A48C5E90C4403F0EFFC3146EC
:101B2000284603F0A1FD3A4D3A4621460DA822F081
:101B300008FB384BAC604FF4803B2846C5E9003BBE
:101B40002C612C7685F82040EC62C5F828A0EC606A
:101B5000EE6185F830406E6103F058FA0D230DA94F
:101B60002846CDE90D362C4D0F9403F0C9FB3A46BB
:101B700021460DA822F0E5FA284BAC602846C5E9BD
:101B8000003BC5E90AA42C612C7685F82040EC6066
:101B9000EE6185F830406E6103F038FA0DA92846F1
:101BA000CDE90D961E4D0F9403F0AAFB1D484FF48E
:101BB000E133C0E900530C23C0E90534C0E9024415
:101BC0000461C46106F066F8FEF77AFDFEF777FD62
:101BD00006F082F9144A4146384606F0A1FA134B42
:101BE000134A18602146134806F0A2F9124B134A13
:101BF00018602146124806F09BF9124B186006F057
:101C00007DF9FEE714000020A425002000B002406A
:101C10003426002000200140EC2500200021014056
:101C2000001001400824002034600208C023002076
:101C3000706002082D1E0008CC2300204C600208B2
:101C4000CF060008C82300200100000F704770472E
:101C50007FB5094B8DF817201B6802930DF1170211
:101C60000123009201930A460146044804F0A8FAB1
:101C700007B05DF804FB00BF1000002050250020D5
:101C80007FB500238DF81730084B1B6802930A4676
:101C900001230DF11701009101930146044804F05E
:101CA0001FFB9DF8170007B05DF804FB1000002033
:101CB000502500201FB5084C24680092CDE901345E
:101CC0000A4601230146054804F00AFB003818BF04
:101CD000012004B010BD00BF1000002050250020DE
:101CE00003F080B910B5064C00222046042103F011
:101CF000B1FF20460122BDE81040042103F0AABF35
:101D00000008024038B50B4D044601220A484FF442
:101D1000005103F09FFF00220421284603F09AFFA0
:101D20002046FFF7BBFC28460122BDE838400421CD
:101D300003F090BF00080240000C024038B50B4D84
:101D4000044600220A484FF4005103F083FF0022AA
:101D50000421284603F07EFF2046FFF79FFC28461B
:101D60000122BDE83840042103F074BF000802409E
:101D7000000C0240F7B5144E144F05460C46304691
:101D80000022042103F066FF00224FF40051384680
:101D900003F060FF2846FFF781FC0D4B0D481B68E0
:101DA000224601A905F0BAFC384601224FF4005141
:101DB000019C03F04FFF30460122042103F04AFF4B
:101DC000204603B0F0BD00BF00080240000C0240F6
:101DD0000C0000205024002003F004B9A1F2A562F9
:101DE00010B592B240F25624A0F2A563A2429BB273
:101DF00006D9B1F57A7F11D340F6B83291420FD8A7
:101E000040F2562293420DD9B0F57A7F0CD340F6BA
:101E1000B83398428CBF5220002010BD5520FCE7FB
:101E20004420FAE70020F8E74C20F6E72DE9F041DE
:101E3000224E234F8AB04FF00008304603F08CF951
:101E4000384603F089F90A21304603F003FA0A21E3
:101E5000384603F0FFF9304603F04FFA044638469F
:101E600003F04BFAA2B283B21649054602A822F04B
:101E700003F902A8FEF7BCF9642382B202A9124852
:101E800005F037FFA0B2A9B2FFF7A8FF04468DF80E
:101E9000070060B140450BD00C4800231A4600688B
:101EA0000DF1070106F077F99DF8073003B900241A
:101EB000322006F081F8A046BFE700BF342600209C
:101EC000EC250020C655020808240020C02300206D
:101ED0000268034B9A4201D103F072B8704700BF09
:101EE000001000407047000082B00E4B00220092AC
:101EF000596C41F480415964596C01F4804100915E
:101F000000990192196C41F0805119641B6C03F027
:101F100080530193019B0F216FF0010002B003F089
:101F20009DBA00BF0038024010B514228AB00446A2
:101F300000210DEB020022F004F92368214A9342AC
:101F40001FD1214B2148002101915A6C42F480722B
:101F50005A645A6C02F480720192019A02911A6BCF
:101F600042F004021A631B6B03F00403029308217E
:101F7000029B0323CDE9051305A903F081FD0AB0F7
:101F800010BD134A9342FAD10F4B1248002103911E
:101F90005A6C42F400725A645A6C02F40072039252
:101FA000039A04911A6B42F001021A631B6B03F04F
:101FB00001030493049B20220323CDE9052305A9F3
:101FC000DBE700BF0020014000380240000802406B
:101FD00000210140000002400268094B9A4282B091
:101FE0000BD100230193074B1A6B42F480521A6302
:101FF0001B6B03F480530193019B02B0704700BF39
:10200000003002400038024007B50F4B02689A4288
:1020100016D10022A3F5F0430192196B41F400019F
:1020200019631B6B03F40003019305215A20019BE4
:1020300003F014FA5A2003B05DF804EB03F040BA41
:1020400003B05DF804FB00BF00B002402DE9F0438F
:10205000044689B01422002103A822F072F82268F5
:10206000244B9A4243D1244C244800250095236BED
:1020700043F004032363236B03F004030093009BEA
:102080000195236B43F001032363236B03F00103EA
:102090000193019B4FF012094FF400734FF00108B8
:1020A0000327042603A9CDE90339CDE9058707965F
:1020B00003F0E6FC4FF480731148079603A9CDE9BD
:1020C0000339CDE9058703F0DBFC0295236C43F46B
:1020D00000032364236C03F400030293029B236A2E
:1020E00043F400032362236A23F40003236209B04C
:1020F000BDE8F083005C0040003802400008024068
:1021000000000240F0B599B004461422002107A84F
:1021100022F017F830220DEB0200002122F011F816
:1021200022685E4B9A4240F0B78008230C93C0238C
:102130001093042312930CA84FF40033159304F06A
:102140009DFE08B1FFF7CEFE554B56480024009483
:102150005A6C42F080625A645A6C02F080620092BB
:10216000009A01941A6B42F020021A631A6B02F073
:1021700020020192019A02941A6B42F001021A6342
:102180001A6B02F001020292029A03941A6B42F057
:1021900002021A631A6B02F002020392039A049479
:1021A0001A6B42F040021A631A6B02F0400204926A
:1021B000049A05941A6B42F004021A631A6B02F037
:1021C00004020592059A06941A6B42F008021A63FB
:1021D0001B6B03F00803069302250E26069B0B9645
:1021E0004FF4806307A9CDE90735CDE9094503F030
:1021F00047FC41F658032C480B9607A9CDE9073553
:102200000927CDE9094503F03BFC032327480B9739
:1022100007A9CDE90735CDE9094503F031FC4FF4B5
:10222000706322480B9607A9CDE90735CDE909452A
:1022300003F026FC4FF40C631D480B9607A9CDE96B
:102240000735CDE9094503F01BFCC02319480B965F
:1022500007A9CDE90735CDE9094503F011FC0823AD
:1022600015480B9607A9CDE90735CDE9094503F0D7
:1022700007FC4FF4A0530E480B9707A9CDE907358B
:10228000CDE9094503F0FCFB58202246052103F067
:10229000E5F8582003F014F919B0F0BD00680140CA
:1022A00000380240001402400000024000040240D6
:1022B0000018024000080240000C024010B504461D
:1022C00088B01422002103A821F03BFF2268144BA0
:1022D0009A4223D103F56843002101915A6C1148B9
:1022E00042F480125A645A6C02F480120192019AEC
:1022F00002911A6B42F020021A631B6B03F0200359
:102300000293029B4FF4607202230321CDE9032361
:102310000523CDE9061303A903F0B2FB08B010BDF5
:10232000005001400014024010B5044688B0142249
:10233000002103A821F005FF2268144B9A4223D103
:1023400003F59433002101915A6C114842F01002B8
:102350005A645A6C02F010020192019A02911A6BAF
:1023600042F001021A631B6B03F001030293029B0C
:102370004FF4C06202230321CDE903230723CDE9F3
:10238000061303A903F07CFB08B010BD0010014048
:10239000000002402DE9F04186B0002303932B4B4F
:1023A0001C68002C4FD14FF00108C3F80080284B67
:1023B00000949A6B274842EA08029A639B6B03EAEF
:1023C00008030093022703260C25009B01A94FF662
:1023D0003F03CDE90137CDE9046503F051FB1E4809
:1023E000059501A9CDE90187CDE9034603F048FB36
:1023F00048F233131948059501A9CDE90137CDE914
:10240000034603F03DFB4FF683731548059501A97C
:10241000CDE90137CDE9034603F032FB4CF20373FB
:102420001048059501A9CDE90137CDE9034603F030
:1024300027FB60230C48059501A9CDE90137CDE9BB
:10244000034603F01DFB06B0BDE8F0817C260020AA
:102450000038024000140240000802400018024008
:1024600000100240000C02400004024070B588B029
:1024700000230293204B1A6C42F010021A641B6C6A
:1024800003F010030293054601A903A8029B04F080
:10249000D7FC069B4BBB04F0B3FC184E184B3360C3
:1024A00040F2E733F360174BB0FBF3F3013B73608B
:1024B000304600233361B360B36105F0FFFA044690
:1024C00080B9304605F0D0F9044658B9362002F0FC
:1024D000F7FF0F2D0DD822462946362002F0BEFF09
:1024E000094B1D60204608B070BD04F089FC400017
:1024F000D3E70124F6E700BF003802408026002021
:102500000010004040420F007C0000207047FEE7B2
:10251000FEE7FEE7FEE77047014805F0E3B900BFBC
:1025200080260020014804F013B900BFA824002031
:10253000014803F00FB800BFA42500200120704718
:1025400008B521F0A1FE162303604FF0FF3008BD4F
:1025500008B521F099FE16230360FEE770B50D461D
:1025600014460E46731B9C4201DC204670BDAFF33F
:10257000008006F8010BF5E770B50D4614460E46CF
:10258000731B9C4201DC204670BD16F8010BAFF3B3
:102590000080F5E74FF0FF3070474FF400534B6079
:1025A0000020704701207047002070470A4A1168D8
:1025B00008B5034609B90949116010686946034422
:1025C0008B4206D921F060FE0C2303604FF0FF30F0
:1025D00008BD1360FCE700BFC82600204042012070
:1025E000704710B50421044620F046FC204610BD7B
:1025F000012908B506D0022908D059B901F0A0FD7B
:10260000006808BD01F09CFD4068FAE701F098FD04
:102610008068F6E70020F4E700487047A8600208E9
:102620000220704713B5002451B1036801948DF85E
:10263000034001AA9C680DF10303A04702B010BD3E
:102640000846FBE7C0897047008A7047C08870471A
:1026500080887047807A00F07F007047807AC009D8
:1026600070470020704700009FED010A704700BFCF
:1026700000000000704710B50821044620F0FCFB64
:10268000204610BD7047704700F598730868496888
:1026900003C3704770477047416070477047704789
:1026A000064BC0F84C310023C0F8503100F5A2733E
:1026B000C0F84801C0F84031704700BFAD2800089D
:1026C000012303727047704710B4C2684168541008
:1026D000034601EB6200D20748BF0A599B685DF8C8
:1026E000044B48BFD35818470346406830B19A6836
:1026F0001AB9D86800F0010070470120704710B582
:102700000C21044620F0B8FB204610BD10B5102166
:10271000044620F0B1FB204610BD10B54FF4AE7159
:10272000044620F0A9FB204610BD10B50DF09AFD1F
:102730000368BDE81040DB6B184710B50446D0F8BD
:10274000400158B10368DB68984738B1D4F84001BC
:1027500003689B6898470023C4F8403110BD00000F
:102760002DE9F14FD0E9556A0746B06803681B6A46
:10277000984740F6B363984205D8444B444AA32196
:10278000444821F0B5FA706803681B6A98470F281F
:1027900003D8414B3E4AA421F2E7F06803681B6A64
:1027A00098470B2803D83D4B394AA521E8E70DF09F
:1027B00059FDDFF8F09004300DF079FDD9F80000F4
:1027C00010B10368DB689847D9F8000010B10368BE
:1027D0001B689847DFF8D080D8F8000010B1036874
:1027E0005B699847D7F83C0110B103685B6898476C
:1027F000D8F8000010B103681B689847D7F83C016F
:1028000010B103689B689847F068036800215B6A11
:1028100098474FF0000B224BC0F804B0044680F8F4
:1028200008B00360B068036859465B6A984705467C
:1028300001F02CFD7068036859465B6A9847294689
:10284000064601F001FD331DC7F83C61C9F80040A0
:10285000C8F80050CAF800302B68C6F808A028460F
:10286000DB68EE639847336830461B68984721461B
:1028700028460FF0A7FE236820461B699847236867
:102880005B69204601B0BDE8F04F1847F0550208DB
:102890007E56020850570208975702083A58020815
:1028A0005461020848350120443501202DE9F14FDB
:1028B000D0E9556A0746B06803681B6A9847EF2855
:1028C00005D8444B444AA321444821F011FA7068CA
:1028D00003681B6A98470F2803D8414B3E4AA4213E
:1028E000F2E7F06803681B6A98470B2803D83D4B52
:1028F000394AA521E8E70DF0B5FCDFF8F090043087
:102900000DF0D5FCD9F8000010B10368DB689847DA
:10291000D9F8000010B103681B689847DFF8D08031
:10292000D8F8000010B103685B699847D7F83C01FC
:1029300010B103685B689847D8F8000010B10368CD
:102940001B689847D7F83C0110B103689B6898470B
:10295000F068036800215B6A98474FF0000B224B38
:10296000C0F804B0044680F808B00360B06803689B
:1029700059465B6A9847054601F04CFC706803684D
:1029800059465B6A98472946064601F023FC331DE9
:10299000C7F83C61C9F80040C8F80050CAF80030D8
:1029A0002B68C6F808A02846DB68EE6398473368B2
:1029B00030461B689847214628460FF003FE2368DF
:1029C00020461B69984723685B69204601B0BDE833
:1029D000F04F1847F0550208DD580208505702081A
:1029E000975702083A5802085461020848350120F6
:1029F00044350120044B1B6893F858200AB1D86C69
:102A000000B99868704700BF00350120F8B5174637
:102A100004460E460DF0E8FC124B1C60124B23607E
:102A2000124B0025C4E95135114BC4E953551868C0
:102A3000036801219B68C4E94F55C4E9557698475E
:102A4000284601F031FBFFF7D5FF18F012F9FFF728
:102A5000D1FF18F089F9FFF7CDFF18F091F9204662
:102A6000F8BD00BF5435012000610208E86002088B
:102A700000350120064BC0F84C310023C0F850311E
:102A800000F5A273C0F84801C0F84031704700BF9C
:102A9000AD280008064BC0F84C310023C0F8503177
:102AA00000F5A273C0F84801C0F84031704700BF7C
:102AB00061270008406A7047806A704770478A88BB
:102AC0000B8810B5D20A4C88C1699BB251F822001C
:102AD00043EA0443184410BD10B50446BAB1107B54
:102AE00068B1537BD27A1B0203F4E0631A43236A72
:102AF00003EB82031A888A4202D193F9020010BDC7
:102B000005D8013880B204330028F3D1F7E700205C
:102B1000F5E710B52C21044620F0AEF9204610BD93
:102B200030B58BB00446BDF860500895BDF85C50D8
:102B300007959DF8505006959DF84C5005959DF8C9
:102B4000485004959DF8445003959DF840500295D7
:102B50009DF83C500195BDF8385000950FF08CF968
:102B6000064B2360159BE361169B2362199B6362EE
:102B70001A9BA36220460BB030BD00BF78610208EB
:102B8000704770477047704770477047704770478D
:102B900030B4C26844685510034604EB6200D207A3
:102BA00048BF62599B6830BC48BFD358184703469A
:102BB000406830B19A681AB9D86800F001007047CF
:102BC0000120704710B51021044620F055F9204629
:102BD00010BD10B5F021044620F04EF9204610BD7E
:102BE0009830884208B505D10DF03CFBBDE808409F
:102BF000FFF750BF08BD70B5036804461B6B154650
:102C000098472368294620465B6BBDE8704018470B
:102C100070B504461D46BDF91060FFF7ECFF236850
:102C2000294620469B6B9847236831462046DB6B3C
:102C3000BDE8704018470000094A02604FF48071F7
:102C400000228184FF21C0E90122C0E90322C0E9FA
:102C50000522C0E9072280F826108262704700BF73
:102C600094670208F8B5194B018F1B888B42064602
:102C70002AD9174B1B682BB9164B174A17486C21DA
:102C800021F036F813F81120154B1B6853F8225029
:102C9000144B186801F044FA2B6807469B6B2846D2
:102CA00098472B6804469B6C3946284698472B6802
:102CB00014FB00F45B6A394628469847A4B22318EF
:102CC0001BB2A6F84630F8BD0023FAE75C350120B8
:102CD00058350120AF590208F15902082C5A020850
:102CE00060350120643501202DE9FF470446274661
:102CF00000250FF0BBFA2E4BE56347F8403B04F18B
:102D00006C093846FFF798FF04F198064846FFF72C
:102D100093FF30460AF0FAFE264BC4E93834264BBE
:102D20004FF4A07AC4E93A352A4629463846CDF808
:102D300000A0F023FFF76CFF04F104084FF07F437D
:102D4000A3663946404607F0E1F94FF0FF37F0231C
:102D50002A4629464846CDF800A0FFF759FF4946C4
:102D60004046C4F8947007F0D1F929463046D22283
:102D7000FFF741FF03AA02A901233046ADF80C304A
:102D8000ADF808500AF037FC1623A4F8D0303046CE
:102D9000FFF768FF04F1E0034046C4E93577C4F863
:102DA000C030314607F0B2F9204604B0BDE8F087E4
:102DB000F8610208E0610208E12B0008806A7047B0
:102DC00030B5036885B06D460181D3F88430014683
:102DD00004462846984795E807003C3484E80700F5
:102DE00005B030BD30B5036885B06D464181D3F87C
:102DF0008430014604462846984795E807003C344D
:102E000084E8070005B030BD002202804280828045
:102E1000C280704780F83610704770B5036804466A
:102E20001B6B154698472368294620465B6EBDE814
:102E30007040184700207047806C7047704770479B
:102E4000704770477047704770470368DB6A1847E0
:102E500090F82C304BB100F16C021268C2653BB1A6
:102E600000F174031B680366704700F16802F4E721
:102E700000F17003F6E730B4C268446855100346A9
:102E800004EB6200D20748BF62599B6830BC48BF60
:102E9000D35818470346406830B19A681AB9D868C1
:102EA00000F0010070470120704790F82D3080F845
:102EB0005A30704710B54C2104461FF0DDFF204604
:102EC00010BD10B5782104461FF0D6FF204610BD76
:102ED00010B5102104461FF0CFFF204610BD10B5DD
:102EE00040F6885104461FF0C7FF204610BD08B5C4
:102EF000FEF7DEFA08BD10B50446006B50B103685A
:102F0000DB68984730B1206B036821469B68BDE8B9
:102F10001040184710BD0B7970B590F82C6004462E
:102F20000D460BB916B170BD002EFCD0B3FA83F379
:102F30005B0984F82C3023682046D3F88C309847FE
:102F4000236820465B699847002EECD02B79012B33
:102F5000E9D123682046D3F88830BDE8704018478F
:102F6000036870B55E6B124B1B6804468DB22BB9BB
:102F7000104B114A6C21114820F0BAFE1049828D85
:102F80000988914203D80F4B0B4A6D21F3E713F8E0
:102F900012200D4B1B6853F8220003681B6B9847E7
:102FA000291A3346204609B2BDE87040184700BFD1
:102FB00058350120AF590208F15902082C5A02086D
:102FC0005C350120735A02086035012000F1C4030A
:102FD000994270B504460D4603D10DF043F9FFF751
:102FE00049FD04F65C439D4205D1236820461B6BD6
:102FF000BDE87040184770BD074A02600022C0E972
:103000000122C0E90322C0E90522C0E907224FF4EA
:1030100080728284704700BF3C69020810B5044684
:10302000FFF7EAFF024B23600023A362204610BD96
:103030001465020800224FF0FF31C0E900218260D0
:10304000704710B50446FFF7F5FF204610BD00009D
:1030500010B500210446262221F073F82046FFF720
:10306000CBFF094B2360094BA3624FF6FF73A38587
:103070004FF47F020023C4E90C32238704F13C00A3
:10308000FFF7D8FF204610BD04670208D860020889
:1030900010B50446FFF7DCFF024B23600023A36456
:1030A000204610BD2C62020870B50446FFF7B6FF3B
:1030B0004FF47F432646A3850123002584F824305E
:1030C0000D4B256346F8343B3046FFF7B5FD0B4BFF
:1030D00063632A4629463046C4E91A55C4E91C559B
:1030E0002566A4F86450FFF786FD2046314607F0B8
:1030F0000DF8204670BD00BFBC620208FC670208E4
:103100002DE9F04F0446C1B025464FF000080FF0FE
:10311000ADF8DD4BC4F83C8045F8403B04F16C0948
:103120002846FFF789FD4846FFF786FD04F198031E
:1031300004F1C40B184604F59E761793FFF77CFD47
:103140005846FFF7B1FF3046FFF782FF04F5C27320
:1031500018461893FFF762FF04F5D87318461993C1
:10316000FFF75CFF04F5EE7318461A93FFF756FF5E
:1031700004F5027318461B93FFF750FF04F50D7317
:1031800018461C93FFF74AFF04F5187318461D9361
:10319000FFF744FF04F5237318461E93FFF73EFF25
:1031A00004F52E7318461F93FFF738FF04F53973A3
:1031B00018462093FFF740FD04F544731846219309
:1031C000FFF72CFF04F54F7318462293FFF726FFF5
:1031D00004F55A7318462393FFF720FF04F565732F
:1031E00018462493FFF71AFF04F5707318462593C9
:1031F000FFF714FF04F57B7318462693FFF70EFFC5
:1032000004F5836318462793FFF708FF04F244434D
:1032100018462893FFF702FF04F58E63184629939A
:10322000FFF70AFD04F29C4318462A93FFF704FDBA
:1032300004F5996318462B93FFF7FEFC04F2F44360
:1032400018462C93FFF7F8FC04F5A46318462D9359
:10325000FFF7F2FC04F24C5318462E93FFF7ECFCF8
:1032600004F5AF6318462F93FFF7E6FC04F2A4536E
:1032700018463093FFF7E0FC04F5BA631846319323
:10328000FFF7DAFC04F2FC5318463293FFF7D4FC44
:1032900004F5C56318463393FFF7CEFC04F254637C
:1032A00018463493FFF7C8FC04F5D06318463593ED
:1032B000FFF7C2FC04F2AC6318463693FFF7BCFC80
:1032C00004F5DB6318463793FFF7B6FC04F204738A
:1032D00018460493FFF7DCFE04F5EA6318460593ED
:1032E000FFF7D6FE04F29C7318460693FFF7D0FE54
:1032F00004F5FD6318460793FFF7CAFE04F634038E
:1033000018460893FFF7C4FE04F5086318460993AE
:10331000FFF7BEFE04F6CC0318460A93FFF7B8FE8B
:1033200004F6181318460B93FFF7B2FE04F6641365
:1033300018460C93FFF7ACFE04F51B6318460D937B
:10334000FFF7A6FE04F6FC1318460E93FFF7A0FE47
:1033500004F6482318460F93FFF79AFE04F69423C9
:1033600018461093FFF794FE04F52E631846119348
:10337000FFF78EFE04F62C3318461293FFF788FEF3
:1033800004F6783318461393FFF782FE04F6C4332D
:1033900018461493FFF77CFE04F541631846159315
:1033A000FFF776FE04F65C4318461693FFF77CFEA3
:1033B00004F6D44318460293FFF74AFE04F61C5362
:1033C00018460393FFF744FE304BC4F8783D304B6A
:1033D000C4F8803D4FF4A073271D4FF07F4A42464A
:1033E0002846C4F87C4DC4F8848D41460093F023F0
:1033F000FFF70EFC29463846C4F868A006F086FEA2
:103400004FF4A0734246484600934146F023FFF72D
:10341000FFFB204BC4F894304946384606F076FE50
:10342000DC235022179800930A21FFF7F1FB1A4B77
:103430001799C4F8C0302125384606F067FE424689
:1034400041460095382304F1F800FFF7E1FB4FF007
:103450000503A4F82831114BC4F82C3103F54C5363
:103460003333C4F83031A3F5CC43663BC4F8343170
:1034700003F1331303F54C535846C4F83831FFF7C2
:10348000E7FC04F678530BE0706302085863020807
:10349000CD2F0008DFED64FFEEEEEEFF996600FF32
:1034A000C4F8F430082258461793009538230C21AD
:1034B000FFF7AEFB5946384606F028FE38AD0E221F
:1034C00030461221FFF797FB31462846C4F86CA11D
:1034D000A4F8708109F08AFD95E8070004F5BC7333
:1034E0003DADDFF864B9CDF8F4B083E807001523EB
:1034F00030462946ADF8F8300AF020F83146384613
:10350000322606F003FE33465422189800960E2108
:10351000FFF77EFB1899384606F0F8FD33468A22FD
:10352000199800960E21FFF773FB1999384606F09B
:10353000EDFD33468A221A9800964421FFF768FB76
:103540001A99384606F0E2FD33468A221B98009607
:103550007A21FFF75DFB1B99384606F0D7FD33460D
:103560008A221C980096B021FFF752FB1C9938461E
:1035700006F0CCFD3346C0221D9800960E21FFF7C1
:1035800047FB1D99384606F0C1FD3346C0221E9800
:1035900000964421FFF73CFB1E99384606F0B6FD25
:1035A0003346C0221F9800967A21FFF731FB1F99FE
:1035B00038464FF0FF3906F0A9FD3346C022209867
:1035C00000960E21FFF724FB2099C4F80C9338468F
:1035D00006F09CFD3346C02221980096B021FFF7EB
:1035E00017FB2199384606F091FD3346F6222298C2
:1035F00000960E21FFF70CFB2299384606F086FD57
:103600003346F622239800964421FFF701FB2399C5
:10361000384606F07BFD3346F622249800967A2140
:10362000FFF7F6FA2499384606F070FD3346F62285
:1036300025980096B021FFF7EBFA2599384606F059
:1036400065FD33465422269800964421FFF7E0FAA0
:103650002699384606F05AFD33465422279800969C
:103660007A21FFF7D5FA2799384606F04FFD334601
:10367000542228980096B021FFF7CAFA28993846B4
:1036800006F044FD33465422299800960E21FFF798
:10369000BFFA2999C4F89894384606F037FD3346A6
:1036A00054222A9800964421FFF7B2FA2A99C4F8C6
:1036B000C494384606F02AFD334654222B980096CF
:1036C0007A21FFF7A5FA2B99C4F8F094384606F052
:1036D0001DFD334654222C980096B021FFF798FA2E
:1036E0002C99C4F81C95384606F010FD33468A2202
:1036F0002D9800960E21FFF78BFA2D99C4F8489566
:10370000384606F003FD33468A222E98009644215F
:10371000FFF77EFA2E99C4F87495384606F0F6FC49
:1037200033468A222F9800967A21FFF771FA2F9953
:10373000C4F8A095384606F0E9FC33468A22309852
:103740000096B021FFF764FA3099C4F8CC9538465A
:1037500006F0DCFC3346C022319800967A21FFF750
:1037600057FA3199C4F8F895384606F0CFFC33463D
:10377000C02232980096B021FFF74AFA3299C4F875
:103780002496384606F0C2FC3346F622339800965B
:103790000E21FFF73DFA3399C4F85096384606F0EB
:1037A000B5FC3346F622349800964421FFF730FAF0
:1037B0003499C4F87C96384606F0A8FC3346F622C5
:1037C000359800967A21FFF723FA3599C4F8A89620
:1037D000384606F09BFC3346F62236980096B02118
:1037E000FFF716FA3699C4F8D496384606F08EFCE0
:1037F0003346C022379800964421FFF709FA3799DB
:10380000C4F8009738464FF0190906F07FFC33469C
:1038100060220C210498CDF80090FFF7F9F9C4F864
:1038200034A7A4F838872846FFF704FC95E807007A
:1038300004F5E86383E8070014230498ADF8F83032
:103840002946CDF8F4B009F079FE0499384606F01F
:103850005DFC3346602244210598CDF80090FFF7C7
:10386000D7F9C4F880A7A4F884872846FFF7E2FBBD
:1038700095E8070004F28C7383E80700132305988A
:10388000ADF8F8302946CDF8F4B009F057FE0599A7
:10389000384606F03BFC334660227A210698CDF884
:1038A0000090FFF7B5F9C4F8CCA7A4F8D087284654
:1038B000FFF7C0FB95E8070004F5FB6383E807000A
:1038C00012230698ADF8F8302946CDF8F4B009F087
:1038D00035FE0699384606F019FC33466022B021C1
:1038E0000798CDF80090FFF793F9C4F818A8A4F84A
:1038F0001C882846FFF79EFB95E8070004F6240382
:1039000083E8070011230798ADF8F8302946CDF871
:10391000F4B009F013FE0799384606F0F7FB33467A
:1039200096220E210898CDF80090FFF771F9C4F89F
:1039300064A8A4F868882846FFF77CFB95E8070090
:1039400004F5076383E8070010230898ADF8F83002
:103950002946CDF8F4B009F0F1FD0899384606F093
:10396000D5FB3346962244210998CDF80090FFF705
:103970004FF9C4F8B0A8A4F8B4882846FFF75AFB5A
:1039800095E8070004F6BC0383E807000F230998B5
:10399000ADF8F8302946CDF8F4B009F0CFFD09991B
:1039A000384606F0B3FB334696227A210A98CDF8C2
:1039B0000090FFF72DF9C4F8FCA8A4F80089284668
:1039C000FFF738FB95E8070004F6081383E80700C3
:1039D0004FF00E030A98ADF8F8302946CDF8F4B050
:1039E00009F0ACFD0A99384606F090FB3346962262
:1039F000B0210B98CDF80090FFF70AF9C4F848A958
:103A0000A4F84C892846FFF715FB95E8070004F653
:103A1000541383E807000D230B98ADF8F8302946BE
:103A2000CDF8F4B009F08AFD0B99384606F06EFB2C
:103A30003346CC220E210C98CDF80090FFF7E8F821
:103A4000C4F894A9A4F898892846FFF7F3FA95E8F2
:103A5000070004F51A6383E807004FF00C030C9885
:103A6000ADF8F8302946CDF8F4B009F067FD0C99AF
:103A7000384606F04BFB3346CC2244210D98CDF856
:103A80000090FFF7C5F8C4F8E0A9A4F8E489284637
:103A9000FFF7D0FA95E8070004F6EC1383E8070077
:103AA0000B230D98ADF8F8302946CDF8F4B009F0A5
:103AB00045FD0D99384606F029FB3346CC227A2184
:103AC0000E98CDF80090FFF7A3F8C4F82CAAA4F83C
:103AD000308A2846FFF7AEFA95E8070004F6382347
:103AE00083E807004FF00A030E98ADF8F830294636
:103AF000CDF8F4B009F022FD0E99384606F006FB29
:103B00003346CC22B0210F98CDF80090FFF780F813
:103B1000C4F878AAA4F87C8A2846FFF78BFA95E8BF
:103B2000070004F6842383E8070004F66453049333
:103B3000BB4B1B682BB9BB4BBB4A6021BB4820F079
:103B4000D7F8BB4B1B88022B03D8BA4BB64A61216E
:103B5000F4E7B94B0221186800F0E2FAB74A0346CD
:103B60000A21049810F030F8049B0F98C4F8903A9A
:103B700029460923ADF8F830CDF8F4B009F0DEFCA1
:103B80000F99384606F0C2FA33461098CDF80090E7
:103B90004FF481720E21FFF73BF8C4F8C4AAA4F8D1
:103BA000C88A2846FFF746FA95E8070004F52D6312
:103BB00083E807004FF008031098ADF8F830294665
:103BC000CDF8F4B009F0BAFC1099384606F09EFA28
:103BD00033461198CDF800904FF481724421FFF7DD
:103BE00017F8C4F810ABA4F8148B2846FFF722FA94
:103BF00095E8070004F61C3383E8070007231198B3
:103C0000ADF8F8302946CDF8F4B009F097FC1199D9
:103C1000384606F07BFA33461298CDF800904FF400
:103C200081727A21FEF7F4FFC4F85CABA4F8608BD4
:103C30002846FFF7FFF995E8070004F6683383E8A4
:103C4000070006231298ADF8F8302946CDF8F4B0F5
:103C500009F074FC1299384606F058FA3346139866
:103C6000CDF800904FF48172B021FEF7D1FFC4F877
:103C7000A8ABA4F8AC8B2846FFF7DCF995E8070061
:103C800004F6B43383E807004FF005031398ADF84A
:103C9000F8302946CDF8F4B009F050FC13993846B5
:103CA00006F034FA0C2214980092742332467821DC
:103CB000FEF7AEFFC4F8F4ABA4F8F88B2846FFF784
:103CC000B9F995E8070004F5406383E80700042389
:103CD0001498ADF8F8302946CDF8F4B009F02EFC70
:103CE0001499384606F012FA0C22159800927423A3
:103CF0003E227821FEF78CFFC4F840ACA4F8448C37
:103D00002846FFF797F995E8070004F64C4383E847
:103D1000070003231598ADF8F83029462126CDF881
:103D2000F4B009F00BFC1599384606F0EFF942465D
:103D30004146009604F549605823FEF769FF4FF0AD
:103D40000503A4F8C03C3E4BC4F8C43C03F54C53F7
:103D50003333C4F8C83CA3F5CC43663BC4F8CC3C31
:103D600003F1331303F54C531698C4F8D03CFFF716
:103D70006FF8179BC4F88C3C1698009658230822BD
:103D80008A21FEF745FF1699384606F0BFF90298DA
:103D90000E228F21FEF72FFF38AE4FF0FF3302992E
:103DA000C4F8043D3046A4F8088D09F01FF996E8E0
:103DB0000700029BCDF8F4B03C3383E807000123F1
:103DC0000298ADF8F830294609F0B8FB0299384658
:103DD00006F09CF90398A0224946FEF70CFF194B08
:103DE0000399C4F84C3D3046A4F8508D09F0FEF814
:103DF00096E80700039BCDF8F4B03C3383E8070056
:103E00000398ADF8F880294609F098FB38460399E5
:103E100084F8418D06F07AF9204641B0BDE8F08F74
:103E200058350120AF590208B15A02082C5A02082D
:103E30005C350120735A020864350120FC5A0208DF
:103E4000996600FF0000EDFFD8600208704700008F
:103E500030B5174D2C6814F001048FB0BFF35B8FA1
:103E600023D128461FF00AF8F8B13F230993114BDC
:103E70000893114B07930223CDE905330122042354
:103E8000CDE9033228230D49009308223B23CDE9D5
:103E90000B44CDE901440A480A94FEF741FE094863
:103EA0001FF044FF28461EF0F5FF05480FB030BD57
:103EB000CC260020D8870208E48702080085020883
:103EC000D02600204D3E00087047000030B5174D49
:103ED0002C6814F001048FB0BFF35B8F22D1284609
:103EE0001EF0CCFFF0B13F230993114B0893114B07
:103EF00007930123CDE9054304930423CDE902434D
:103F00000A230D49009316220C23CDE90B440B48DC
:103F10000A940194FEF704FE09481FF007FF2846A3
:103F20001EF0B8FF05480FB030BD00BFFC260020D2
:103F3000DC870208E8870208708502080027002055
:103F4000C93E00087047000030B5164D2C6814F0CB
:103F500001048FB0BFF35B8F21D128461EF08EFF86
:103F6000E8B13F230993104B0893104B10491148B7
:103F70000A94CDE9064301220423CDE90332142338
:103F800000931622CDE90B44CDE901440594FEF7D8
:103F9000C7FD09481FF0CAFE28461EF07BFF0548F2
:103FA0000FB030BD2C270020E0870208EC87020804
:103FB000A486020830270020453F000800207047F3
:103FC000002070470EB403B503AB002153F8042B57
:103FD00001930DF0CFF902B05DF804EB03B0704728
:103FE0000CB407B504AB53F8042B01930DF0C2F9E0
:103FF00003B05DF804EB02B070470000436C10B5ED
:10400000044673B3038F2BB9184B194AC5211948BD
:104010001FF06EFEC38E00EB43035B8C0BB30FF0FF
:104020002AF8238F012B03D8134B144ACB21EEE738
:10403000E28E531C9BB2092B194688BFA3F10A01DB
:1040400004EB410140F63F10498C814209D10A2B13
:1040500004EB420228BF002304EB4303508C588436
:1040600051842046BDE810400EF008BFFF5A0208F8
:10407000085B0208B35B0208FD5B02080B5C0208E8
:104080000EF0C3BE10B586B002AC84E806001A4636
:104090000AAB05930193099B00932146089B0BF003
:1040A0007FFC06B010BD000038B518BB124B13489A
:1040B0001C681349B4B12268224402606268224439
:1040C0000A60A26814440F4B00221A8000F038F8EE
:1040D000054600F033F80C4B1C600C4B1D600C4B7C
:1040E000188007E00B4B03600B4B0B600B4B1C68FD
:1040F000002CE8D138BD00BF6827002060270020D1
:104100005C270020642700205835012060350120FD
:104110005C3501204C880208F0870208A08802085C
:10412000044B1B6853F82100034B1B6803EB400052
:10413000704700BF5C2700206027002017207047D1
:10414000004870476C27002010B5FFF7FDFE044CB7
:104150002060FFF77DFE6060FFF7B8FEA06010BD35
:104160006C27002010B5002404600C6014601C60F3
:1041700010BD704710B54FF4AE7104461EF07CFEC2
:10418000204610BD10B50446D0F8580100F013F8D1
:104190002046BDE810400CF0E7B8000010B504461A
:1041A000FEF734FC014B2360204610BDAC630208CF
:1041B00000220260704770477047043870477047AC
:1041C00010B5102104461EF057FE204610BDA0F188
:1041D0000400F5E700228260024A02601832426061
:1041E000C1607047006402087047000010B5034BBF
:1041F00003600446FEF7CAFC204610BD286402088E
:1042000010B50446FFF7F2FF2046F0211EF034FE01
:10421000204610BD10B50446FEF766FD014B236035
:10422000204610BD28640208FEF7B1BC7047043870
:104230007047704710B5102104461EF01DFE204641
:1042400010BDA0F10400F5E700228260024A02607E
:1042500018324260C16070475C6402087047000019
:1042600010B5034B03600446FEF7EDFD204610BD7C
:104270008464020810B50446FFF7F2FF204640F6BA
:10428000B4611EF0F9FD204610BD000010B50446D3
:10429000FEF736FF064B23604022002104F68850CB
:1042A0001FF04FFF0023C4F8C83D204610BD00BFDB
:1042B00084640208402802462AD012DC082829D04B
:1042C00007DC022828D0194B1948042A18BF1846C1
:1042D0007047102822D0154B1648202A18BF1846C0
:1042E0007047B0F5007F1BD008DC80281AD00F4B38
:1042F0001148B2F5807F18BF18467047B0F5806F3F
:1043000012D00A4B0D48B2F5006F18BF184670471F
:104310000B4870470B4870470B4870470B48704775
:104320000B4870470B4870470B487047B4C1CDFF2E
:10433000C8E0EDFF5F7CF6FF61CCEDFF2EC2EDFF24
:104340003B5EF6FF79B1F2FFDAE4EEFF6395F5FF2D
:1043500050C8EDFF72CFEDFF3FC5EDFF10B586B041
:1043600001F046FA0023019302240B22012369463F
:1043700001A8CDE90323059401F02EFB18B101F04B
:1043800049FA06B010BD044B04491A682046D317F9
:1043900001F072FAF3E700BFD023002000000F08FD
:1043A000034B1B685A1C034A08BF00231360704765
:1043B00000000F08D023002070B50023A0B00446F1
:1043C00000F684511D460846002250F8046F2EB9AD
:1043D00020AE06EBC50646E9203201350132042A3B
:1043E000F3D10133042B01F11001ECD1002D21DDBB
:1043F00000F0F2FD20AAB0FBF5F305FB130302EB7E
:10440000C30353E9201202EB0215C1EB41132B4405
:1044100043400A2002EB8102B3FBF0F3B3FBF0F55B
:1044200000FB1533002B02F2623214BF0223042377
:1044300044F8223020B070BD2DE9F0410022224E18
:1044400000F6885517464FF0000E00E0E6460EF1E4
:10445000010C634619016C5894B302EB8E0100EB1A
:104460008101D1F8888DB8F1000F09D102EB8303E7
:1044700003F26233C1F8884DF44640F82380E5E743
:10448000444513D102EB830303F262336400C1F8A5
:10449000884D40F82370D0F8C83DD1F8881D0B44F2
:1044A0003168C0F8C83D8B4200DD3360BCF1030FBA
:1044B000CCD10132042A05F10405C4D1BDE8F08154
:1044C0000133042BC6D1F1E7D02300202DE9F041C0
:1044D0000022224E00F6885517464FF0030E00E0EA
:1044E000E6460EF1FF3C634619016C5894B302EBAB
:1044F0008E0100EB8101D1F8888DB8F1000F09D150
:1045000002EB830303F26233C1F8884DF44640F8AE
:104510002380E5E7444513D102EB830303F26233C2
:104520006400C1F8884D40F82370D0F8C83DD1F838
:10453000881D0B443168C0F8C83D8B4200DD3360F4
:10454000BCF1000FCCD10132042A05F10405C4D11D
:10455000BDE8F081013BC7D2F2E700BFD0230020C5
:104560002DE9F0430024224F00F68856A4464FF070
:104570000008A50000E0F04608F1010E734656F869
:10458000231081B305EB080200EB8202D2F8889D6C
:10459000B9F1000F08D12B4403F26233C2F8881D31
:1045A000C64640F82390E6E7494512D12B4403F272
:1045B00062334900C2F8881D40F823C0D0F8C83DD6
:1045C000D2F8882D13443A68C0F8C83D934200DD04
:1045D0003B60BEF1030FCED10134042C06F110066E
:1045E000C5D1BDE8F0830133042BC8D1F1E700BF8A
:1045F000D02300202DE9F0430024214F00F68856F7
:10460000A4464FF00308A50000E0F04608F1FF3E85
:10461000734656F8231081B305EB080200EB8202C3
:10462000D2F8889DB9F1000F08D12B4403F2623310
:10463000C2F8881DC64640F82390E6E7494512D1E6
:104640002B4403F262334900C2F8881D40F823C0AE
:10465000D0F8C83DD2F8882D13443A68C0F8C83D58
:10466000934200DD3B60BEF1000FCED10134042C3B
:1046700006F11006C5D1BDE8F083013BC9D2F2E7CF
:10468000D023002000F6945238B500F6D4551446D5
:10469000A4F1100151F8043FF3B1A142FAD101F1A4
:1046A0001004AC42F4D10021A2F10C03032903D081
:1046B0001D681C69A5420FD0934208D1013104291D
:1046C00003F11002F0D1FFF749FE012038BD1D684B
:1046D00053F8044FA542E9D10020F7E72DE9F84F40
:1046E000044600F68C65D0F8C83D904ADFF83CB22D
:1046F0000A2128460FF068FAC4F80C5C04F6C430AE
:104700000CF062FF8A4B894A1B6804F56A650A212E
:1047100028460FF059FAC4F8585C04F541600CF0D3
:1047200053FF04F694594FF0000804F6CC5AA9F14F
:104730001006474656F8043F0C2000FB07A0A3B91B
:104740007C4A06210FF040FA3068FFF7B3FD7B1E6C
:1047500005460E2B0ED8DFE803F02633404D5A678E
:1047600074818E9BA8B5C2CFDC005A4606210FF09B
:104770002BFAE9E704F20470C4F84CA70CF024FF0C
:10478000C4F8985404F58E600CF01EFF4E4507F1F6
:104790000107CFD108F10408B8F1100F06F1100994
:1047A000C5D1BDE8F88F04F6D85304F5EA60C4F823
:1047B00098370CF009FFC4F8C45404F29C40E3E7B6
:1047C00004F6E45304F29C70C4F8E4370CF0FCFEE9
:1047D000C4F8F05404F59960D6E704F55F6304F576
:1047E000FD60C4F830380CF0EFFEC4F81C5504F23C
:1047F000F440C9E704F6FC5304F63400C4F87C38EE
:104800000CF0E2FEC4F8485504F5A460BCE704F6D9
:10481000086304F50860C4F8C8380CF0D5FEC4F885
:10482000745504F24C50AFE704F6146304F6CC0060
:10483000C4F814390CF0C8FEC4F8A05504F5AF60F4
:10484000A2E704F5626304F61810C4F860390CF0AE
:10485000BBFEC4F8CC5504F2A45095E704F62C63D3
:1048600004F66410C4F8AC390CF0AEFEC4F80C5376
:1048700004F5397088E704F6386304F51B60C4F862
:10488000F8390CF0A1FEC4F8005704F5DB607BE7B3
:1048900004F6446304F6FC10C4F8443A0CF094FEA9
:1048A000C4F8F85504F5BA606EE704F5656304F6DC
:1048B0004820C4F8903A0CF087FEC4F8245604F25D
:1048C000FC5061E704F65C6304F69420C4F8DC3A1B
:1048D0000CF07AFEC4F8505604F5C56054E704F6AF
:1048E000686304F52E60C4F8283B0CF06DFEC4F834
:1048F0007C5604F2546047E704F6746304F62C30E7
:10490000C4F8743B0CF060FEC4F8A85604F5D060FF
:104910003AE704F5686304F67830C4F8C03B0CF05D
:1049200053FEC4F8D45604F2AC602DE7DD5C0208F7
:10493000D0230020CF55020810B5402204460021A4
:1049400000F688501FF0FDFB0023C4F8C83D84F832
:10495000413D04F61C500CF037FE2046FFF72CFDBD
:10496000082000F03FFB2046FFF726FD2046BDE86B
:104970001040FFF7B3BE10B50446FEF765FA2046B7
:10498000FFF70EFDBDE81040FFF7D6BF10B5074B8F
:10499000D0F8C82D196804468A42C8BF1A60FFF7CC
:1049A000DDFC2046BDE81040FFF7C6BFD023002045
:1049B00037B51E4D0446286803F04EFC08B34FF08F
:1049C000FF33286800220DF1070103F015FC9DF864
:1049D0000730522B25D016D8442B1AD04C2B1CD084
:1049E0002046FFF7E9FC2046FFF778FE2046FFF758
:1049F00049FE30B1012384F8413D04F61C500CF00F
:104A0000E3FD03B030BD552BEAD12046FFF714FD7E
:104A1000E6E72046FFF75AFDE2E72046FFF7A0FD54
:104A2000DEE72046FFF7E6FDDAE700BFC0230020FF
:104A3000F02070474FF4A07070472920FDF77EB931
:104A40002820FDF77BB908B5FDF74CF9CA20FDF722
:104A500075F9C320FDF756F90820FDF753F95020EA
:104A6000FDF750F9CF20FDF769F90020FDF74AF96D
:104A7000C120FDF747F93020FDF744F9ED20FDF79F
:104A80005DF96420FDF73EF90320FDF73BF91220A4
:104A9000FDF738F98120FDF735F9E820FDF74EF9EB
:104AA0008520FDF72FF90020FDF72CF97820FDF780
:104AB00029F9CB20FDF742F93920FDF723F92C2005
:104AC000FDF720F90020FDF71DF93420FDF71AF954
:104AD0000220FDF717F9F720FDF730F92020FDF748
:104AE00011F9EA20FDF72AF90020FDF70BF9002063
:104AF000FDF708F9B120FDF721F90020FDF702F9D3
:104B00001B20FDF7FFF8B620FDF718F90A20FDF786
:104B1000F9F8A220FDF7F6F8C020FDF70FF91020F4
:104B2000FDF7F0F8C120FDF709F91020FDF7EAF8CC
:104B3000C520FDF703F94520FDF7E4F81520FDF742
:104B4000E1F8C720FDF7FAF89020FDF7DBF83620F2
:104B5000FDF7F4F8C820FDF7D5F8F220FDF7EEF8E0
:104B60000020FDF7CFF8B020FDF7E8F8C220FDF7F0
:104B7000C9F8B620FDF7E2F80A20FDF7C3F8A72030
:104B8000FDF7C0F82720FDF7BDF80420FDF7BAF8BF
:104B90002A20FDF7D3F80020FDF7B4F80020FDF738
:104BA000B1F80020FDF7AEF8EF20FDF7ABF82B20B1
:104BB000FDF7C4F80020FDF7A5F80020FDF7A2F8E6
:104BC0000120FDF79FF83F20FDF79CF8F620FDF748
:104BD000B5F80120FDF796F80020FDF793F80620C0
:104BE000FDF790F82C20FDF7A9F8C820FDF7F4F8A0
:104BF0002620FDF7A3F80120FDF784F8E020FDF75B
:104C00009DF80F20FDF77EF82920FDF77BF8242082
:104C1000FDF778F80C20FDF775F80E20FDF772F817
:104C20000920FDF76FF84E20FDF76CF87820FDF7AE
:104C300069F83C20FDF766F80920FDF763F81320BA
:104C4000FDF760F80520FDF75DF81720FDF75AF82D
:104C50001120FDF757F80020FDF754F8E120FDF78B
:104C60006DF80020FDF74EF81620FDF74BF81B20DD
:104C7000FDF748F80420FDF745F81120FDF742F84C
:104C80000720FDF73FF83120FDF73CF83320FDF712
:104C900039F84220FDF736F80520FDF733F80C20EF
:104CA000FDF730F80A20FDF72DF82820FDF72AF847
:104CB0002F20FDF727F80F20FDF724F81120FDF72E
:104CC0003DF8C820FDF788F82920FDF737F8BDE842
:104CD00008402C20FDF732B808B5FDF703F8032192
:104CE000D320FDF747F880B208BD10B5C4B2022248
:104CF00003212046FCF7ACFF0A20FCF7F1FF204619
:104D000000220321FCF7A4FFBDE810400220FCF7BD
:104D1000E7BF38B50446E4B2FCF798FF002120460F
:104D2000FCF7AEFF012105462046FCF7A9FF40EA4B
:104D3000052080B238BD10B5C4B240212046FCF732
:104D40009FFF030607D54C212046FCF799FF00384A
:104D500018BF012010BD01224B212046FCF778FF2F
:104D6000204600224B21FCF773FF0020F2E773B5C9
:104D70000423C4B20E461546D7210DEB030220468C
:104D8000FCF798FF019B1BBA1A0DC3F30B2332806B
:104D900020462B8001224B21FCF75AFF00224B2199
:104DA0002046FCF755FF02B070BD000010B50A4A5E
:104DB0001378984204460DD0517888420AD00BB13E
:104DC00041B90123D454FCF741FF2046BDE810400F
:104DD000FFF78BBF10BD00BF7827002010B5C4B20D
:104DE00009212046FCF74CFF40F00102D2B22046D8
:104DF0000921BDE81040FCF72BBF10B5C4B2092152
:104E00002046FCF73DFF092100F0FE022046BDE8E8
:104E10001040FCF71DBF38B5C4B20D4620460A212C
:104E2000FCF72EFF40EA0502D2B220460A21BDE877
:104E30003840FCF70DBF10B50446FCF708FF2046CC
:104E40001F21FFF7E8FF2046BDE81040FFF7C6BF6F
:104E500038B5C4B20D4620460A21FCF711FF20EAFE
:104E60000502D2B220460A21BDE83840FCF7F0BE68
:104E700010B50446FFF7C1FF20461F21BDE81040D2
:104E8000FFF7E6BF10B5C0B20C460B21FCF7F8FEE9
:104E9000204010BD1F21FFF7F5BF0A46C0B20B210D
:104EA000FCF7D6BE1F21FFF7F8BF38B5C4B20D46D8
:104EB00020461721FCF7E4FE20EA0502D2B2204684
:104EC0001721BDE83840FCF7C3BE70B5C4B2064632
:104ED00004212046FCF7D4FE042100F0FB02054625
:104EE0002046FCF7B5FE3046F021FFF7DEFF05F067
:104EF000F80220460421FCF7ABFE4922202120467F
:104F0000FCF7A6FE0220FCF7EBFE20460122212141
:104F1000FCF79EFE20469A224121FCF799FE20468E
:104F200001224A21FCF794FE204601224B21FCF786
:104F30008FFE204600224B21FCF78AFE20460122EC
:104F40005621FCF785FE204601225821FCF780FE01
:104F5000204601224021FCF77BFE2046FF220B2148
:104F6000FCF776FEBDE870400220FCF7B9BE0000F9
:104F7000054BD3F8882042F47002C3F888204FF024
:104F800000629A60704700BF00ED00E008B50B4B6F
:104F90001A6842F400721A601A6842F480621A6059
:104FA0001A6842F480721A60032000F045FA00206B
:104FB000FDF75CFAFCF798FF002008BD003C0240BA
:104FC000034A044B11681B780B441360704700BF01
:104FD0007C27002078000020014B1868704700BF34
:104FE0007C27002038B50446FFF7F6FF631C1CBF82
:104FF000054B1B78054618BFE418FFF7EDFF431B70
:10500000A342FAD338BD00BF7800002038B504466B
:10501000002800F09B80056C25B9FCF785FF6564CE
:1050200084F83C50236CDB0600F18E80236C23F463
:10503000885323F0020343F002032364444B5A686D
:1050400022F440325A605A6861680A435A60236801
:1050500021695A6822F480725A605A6842EA012231
:105060005A605A68A16822F040725A605A680A432E
:105070005A609A68E16822F400629A609A680A436A
:105080009A603449A26A8A4252D0996821F07061CC
:10509000996099680A439A609A68E16A22F04052DE
:1050A0009A609A680A439A609A6822F002029A60AB
:1050B0009A68217E42EA41029A6094F82020002AF0
:1050C0003ED05A68616A42F400625A605A6822F41B
:1050D00060425A605A68013942EA41325A60DA6ADB
:1050E000E16922F47002DA62DA6A013942EA0152B5
:1050F000DA629A6822F400729A609A6894F8301022
:1051000042EA41229A609A68616922F480629A6058
:105110009A68002042EA81229A606064236C23F03E
:10512000030343F001032364002384F83C3038BDBB
:105130009A6822F070629A609A6822F04052B2E750
:105140005A6822F40062C9E70120EDE70120EEE78A
:10515000002301400100000F82B00023019390F86A
:105160003C30012B69D0012380F83C3003689A68F9
:10517000D2070BD59A68D1071AD4036C43F01003F9
:105180000364436C43F0010343644CE09A682C4988
:1051900042F001029A602B4A1268B2FBF1F202EB74
:1051A00042020192019A002AE4D0019A013AF8E7FA
:1051B000026C22F4E06222F0010242F48072026486
:1051C0005A68520541BF026C22F4405242F48052A8
:1051D0000264026C12F480521CBF426C22F0060280
:1051E0004264002280F83C206FF022021A60164AC6
:1051F000516811F01F0F15491CD18B4207D001F5E2
:1052000080718B420CD1526812F01F0F0BD19A683B
:1052100012F0405F07D19A6842F080429A6002E043
:105220000B498B4202D0002002B07047526812F046
:10523000100FEBE78B42F6D1E9E70220F4E700BF5D
:1052400040420F0074000020002301400020014074
:105250000022014003689A68520570B504460D4665
:105260000BD59B68DE0508D5036C43F0200303646F
:10527000002380F83C30012070BDFFF7ADFE0646EC
:1052800023681A6891070CD56FF012021A60226C1D
:1052900042F4007222649A6812F0405F17D0002036
:1052A000EAE7681CEDD065B923681B6813F00203B8
:1052B000E6D1226C84F83C3042F0040222640320E0
:1052C000DAE7FFF789FE801BA842EDD8D8E7227EF7
:1052D000002AE4D1DA6A12F4700F02D09B685A05F2
:1052E000DDD4236C23F480732364236CDB04D6D4D5
:1052F000236C43F001032364D1E70368D86C704743
:10530000F7B50023019390F83C30012B054600F0DF
:105310008680012380F83C3008682B688E68092855
:1053200084B233D904EB4402DF681E3A4FF0070C15
:105330000CFA02FC27EA0C07DF60DF6806FA02F2CB
:105340003A43DA604968062901EB81022DD8596B8E
:10535000053A1F26964021EA06015963596B04FA63
:1053600002F20A435A632F4A93420AD1122837D1D4
:105370002D4B5A6822F400025A605A6842F48002A7
:105380005A60002085F83C0003B0F0BD1A6900EBBC
:10539000400C072707FA0CF722EA07021A611A697C
:1053A00006FA0CF616431E61CCE70C294FF01F01DC
:1053B0000BD81E6B233A914026EA01011963196B41
:1053C00004FA02F20A431A63CDE7DE6A413A9140D9
:1053D00026EA0101D962D96A94400C43DC62C2E733
:1053E000124B984201D01128CBD10F4B5A6822F4AE
:1053F00080025A605A6842F400025A600B4B98428D
:10540000BFD10B4B0B4A1B68B3FBF2F30A22534389
:105410000193019B002BB4D0019B013BF8E70220D4
:10542000B2E700BF0020014000230140120000103D
:105430007400002040420F000749CA6822F4E0626D
:105440000302120403F4E063120C134343F0BF633E
:1054500043F40033CB60704700ED00E0164B30B5ED
:10546000DC68C4F30224C4F10703251D042B28BF04
:105470000423062D4FF0FF358CBF033C002405FAB2
:1054800003F321EA0303A54022EA0502A340002812
:1054900043EA0203ACBF00F16040084A4FEA03133D
:1054A000B8BF00F00F00DBB2AABF00F56140135493
:1054B00080F8003330BD00BF00ED00E014ED00E0E7
:1054C000002807DB044A4109012300F01F00834044
:1054D00042F82130704700BF00E100E010B50446FB
:1054E00050B1437903F0FF0213B90271FCF774FD68
:1054F00001236371002010BD0120FCE710B50446B4
:1055000020B390F8393003F0FF021BB980F838203F
:10551000FCF77AFD022384F83930236861681A6841
:1055200022F440320A431A605A6BA16822F0070243
:105530000A435A631A6CE1686FF30D020A431A6456
:1055400000200123E06384F8393010BD0120FCE71E
:1055500070477047036870B55E681D68F2070446BF
:1055600014D5E90512D51A6822F480721A60C26B4C
:1055700042F00102C26301229A60042380F83930AC
:10558000002380F83830436903B19847B20616D536
:10559000AB0414D523681A6822F400521A60202242
:1055A0009A60E36B43F00203E363042384F8393029
:1055B000002384F8383063690BB1204698473007E0
:1055C00016D5290514D523681A6822F400621A60DA
:1055D00008229A60E36B43F00403E363042384F836
:1055E0003930002384F8383063690BB1204698477E
:1055F00072070BD56B0509D523681A6822F48062FF
:105600001A6004229A602046FFF7A2FFB00714D563
:10561000A90512D523681A6822F400721A600222C2
:105620009A60E36BE363012384F83930002384F844
:10563000383023690BB120469847F20613D5EB04A6
:1056400011D523681A6822F480521A6010229A60D9
:10565000E36BE363012384F83930002384F83830A6
:105660002046FFF776FF70BDF0B590F83820012A8C
:1056700003464FF002002BD0012283F8382083F834
:10568000390003EB0112D2E90740556A174F44EA8B
:105690000040093C012C9CBF05F07F4210434FEABB
:1056A00001161A6888BF40EA056091B9516A39400D
:1056B00001435162012C9969916103D8596A21F023
:1056C0007F4191620122002083F8392083F838005D
:1056D000F0BDD16939400143D1619919012C896923
:1056E00011619CBF25F07F451562EBE7F0FFFC00E0
:1056F000094910B50C6924F440740C610C6944F438
:1057000040740C610C6944F001040C610260BFF349
:105710006F8F436010BD00BF003C0240074B1A6909
:1057200022F440721A611A6942F400721A611A690D
:1057300042F001021A610160704700BF003C024064
:10574000074B1A6922F440721A611A6942F4807296
:105750001A611A6942F001021A610180704700BFA4
:10576000003C0240204BDA68D00606D51F49CA69C2
:1057700042F01002CA611022DA60DA68910606D59A
:105780001A49CA6942F00802CA612022DA60164B3F
:10579000DA68520606D51549CA6942F00402CA61A0
:1057A0004022DA60DA68100606D51049CA6942F06C
:1057B0000202CA618022DA600B4BDA68D10507D594
:1057C0000A49CA6942F00102CA614FF48072DA6084
:1057D000DA68920706D50549CA6942F02002CA6113
:1057E0000222DA60704700BF003C024080270020A0
:1057F000064B1A69002ABFBF054A5A6002F1883277
:105800005A60BABF1869C00F00207047003C0240C0
:1058100023016745034A136943F0004313610020E5
:10582000704700BF003C0240114B70B50022044697
:10583000DA61FFF7D1FB0F4D0646EB68DA030CD4B3
:10584000EB68DB0744BF0123EB60E86810F4F970F4
:1058500007D0FFF787FF012003E0611CEDD00CB9F2
:10586000032070BDFFF7B8FB801BA042E5D9F7E726
:1058700080270020003C02402DE9F0411F4E984651
:10588000337E012B07460D46144635D001234CF2DA
:1058900050303376FFF7C8FFB0B9CFB9184B1A694B
:1058A00022F440721A611A691A611A69E4B242F06C
:1058B00001021A612C704CF25030FFF7B5FF104A0C
:1058C000136923F00103136100233376BDE8F081EF
:1058D000012F04D1A1B22846FFF732FFEBE7022FD8
:1058E00004D121462846FFF719FFE4E72246434644
:1058F0002846FFF7FDFEDEE70220E7E780270020CD
:10590000003C02400C4B1A6922F440721A610329D0
:105910001A690BD142F4004242F004021A611A697A
:1059200042EA002040F48030186170470129F3D02A
:1059300042F40042F2E700BF003C02400F4B1A69FC
:1059400022F440721A611A69022994BF09024FF4C5
:1059500040710A431A611A6922F0F8021A611A6941
:105960000B2888BF043042EAC00242F002021A61EA
:105970001A6942F480321A61704700BF003C02404D
:10598000144B1A6891050FD51A6822F400721A6038
:105990001A6842F400621A601A6822F400621A60FF
:1059A0001A6842F400721A600A4B1A6852050FD541
:1059B0001A6822F480621A601A6842F480521A60EF
:1059C0001A6822F480521A601A6842F480621A60DF
:1059D000704700BF003C02402DE9F843DFF89C808F
:1059E00098F81830012B05460F4642D001234CF29F
:1059F000503088F81830FFF717FF0446B8B94FF059
:105A0000FF333B602B68012B17D16968287CFFF7B7
:105A100079FF4CF25030FFF707FF174A136923F460
:105A2000004323F0040304461361FFF7A9FF00239A
:105A300088F818302046BDE8F883AE68DFF8389063
:105A4000D5E902231344B342EFD9297C3046FFF74E
:105A500075FF4CF25030FFF7E7FED9F8103023F015
:105A6000FA03C9F8103010B13E600446DDE7013694
:105A7000E6E70224DEE700BF003C0240802700206A
:105A80002DE9F74FDFF8BC916C4A00230D68012423
:105A90009C4004EA0506AC4340F0B7804D680327FC
:105AA00005F003044FEA430807FA08FC671E012FBC
:105AB0006FEA0C0C34D8876807EA0C0ECF6807FA37
:105AC00008F747EA0E078760476827EA060EC5F31E
:105AD00000179F4047EA0E074760C76807EA0C0EA9
