:020000040800F2
:10000000000003205D060008F9210008FB2100081C
:10001000FD210008FF210008012200080000000067
:10002000000000000000000000000000416F000818
:100030000322000800000000D16F00085968000882
:10004000AD060008AD060008AD060008AD060008C4
:10005000AD060008AD060008AD060008AD060008B4
:10006000AD060008AD060008AD060008AD060008A4
:10007000AD060008AD060008AD060008AD06000894
:10008000AD060008AD060008AD060008AD06000884
:10009000AD060008AD060008AD060008AD06000874
:1000A000AD060008AD060008AD060008AD06000864
:1000B000AD060008AD060008AD060008AD06000854
:1000C000AD060008AD060008AD060008AD06000844
:1000D000AD060008AD060008AD060008AD06000834
:1000E000AD060008AD060008AD060008AD06000824
:1000F000AD060008AD060008AD060008AD06000814
:10010000AD060008AD060008AD060008AD06000803
:10011000AD060008AD06000805220008AD0600087F
:10012000AD060008AD060008AD060008AD060008E3
:10013000AD060008AD060008AD060008AD060008D3
:10014000AD060008AD060008AD060008AD060008C3
:10015000AD060008AD060008AD060008AD060008B3
:10016000AD060008AD060008AD060008AD060008A3
:10017000AD060008AD060008AD060008000000004E
:10018000AD060008AD060008AD060008AD06000883
:10019000AD060008AD060008AD060008AD06000873
:0C01A00011220008AD0600081D22000816
:1001B00010B5054C237833B9044B13B10448AFF3A1
:1001C00000800123237010BD800300200000000088
:1001D000842F020808B5034B1BB103490348AFF352
:1001E000008008BD0000000084030020842F020866
:1001F00001F0FF01102A2BDB10F0070F08D010F8D8
:10020000013B013A8B422DD010F0070F42B3F6D1DB
:10021000F0B441EA012141EA014122F007047FF0F4
:1002200000070023F0E80256083C85EA010586EA4B
:10023000010685FA47F5A3FA87F586FA47F6A5FA87
:1002400087F68EB9EED1F0BC01F0FF0102F0070293
:1002500032B110F8013B013A83EA010313B1F8D13E
:100260000020704701387047002D06BF354603381F
:10027000073815F0010F07D1013015F4807F02BF58
:10028000013015F4C03F0130F0BC0138704700BFA9
:100290007BB972B90029BEBF00204FF0004106E0D3
:1002A00008BF00281CBF6FF000414FF0FF3000F086
:1002B000D3B9ADF1080C6DE904CE002909DB002BA0
:1002C0001ADB00F04DF8DDF804E0DDE9022304B0AC
:1002D0007047404261EB4101002B1BDB00F040F80E
:1002E000DDF804E0DDE9022304B0404261EB4101A6
:1002F000524263EB43037047524263EB430300F007
:100300002FF8DDF804E0DDE9022304B0404261EBA0
:1003100041017047524263EB430300F021F8DDF8DE
:1003200004E0DDE9022304B0524263EB430370476B
:1003300053B94AB9002908BF00281CBF4FF0FF314C
:100340004FF0FF3000F088B9ADF1080C6DE904CE34
:1003500000F006F8DDF804E0DDE9022304B07047A0
:100360002DE9F047089D8E4604468846002B4AD169
:100370008A42174662D9B2FA82F64EB1C6F120031C
:1003800001FA06F820FA03F3B74043EA0808B4403C
:100390004FEA174E1FFA87FCB8FBFEF1230C0EFB49
:1003A000118843EA084301FB0CF29A4209D9FB1871
:1003B00001F1FF3080F0EA809A4240F2E780023992
:1003C0003B449A1AA3B2B2FBFEF00EFB102243EAA2
:1003D000024300FB0CFC9C4509D9FB1800F1FF32DD
:1003E00080F0D6809C4540F2D3803B44023840EAFE
:1003F0000140A3EB0C0300211DB1F3400022C5E92D
:100400000032BDE8F0878B4205D90DB1C5E9000186
:1004100000210846F5E7B3FA83F1002946D1734578
:1004200002D3824200F20581841A6EEB030201209E
:100430009046002DE5D0C5E90048E2E7002A00F02B
:100440009080B2FA82F6002E40F0A4808A1A030C43
:100450004FEA174E80B2BCB20121B2FBFEFC0EFB8C
:100460001C2243EA024304FB0CF29A4207D9FB1810
:100470000CF1FF3802D29A4200F2E080C4469B1A87
:10048000B3FBFEF20EFB123340EA034302FB04F41B
:100490009C4207D9FB1802F1FF3002D29C4200F2C5
:1004A000CA8002461B1B42EA0C40A5E7C1F12006A8
:1004B0008B4022FA06F71F430EFA01F420FA06F3E6
:1004C0002EFA06FE4FEA1749234300FA01F81FFAF5
:1004D00087FCBEFBF9F01C0C09FB10EE44EA0E444D
:1004E00000FB0CFEA64502FA01F209D93C1900F105
:1004F000FF3A80F09C80A64540F2998002383C4447
:10050000A4EB0E041FFA83FEB4FBF9F309FB1344BA
:100510004EEA044403FB0CFCA44508D93C1903F142
:10052000FF3E80F08280A4457FD9023B3C4443EAF1
:100530000040A4EB0C04A0FB02EC64457346E146CA
:1005400062D35FD05DB1B8EB030264EB090404FA37
:1005500006F622FA01F31E43CC40C5E900640021EF
:100560004FE7B1FBF2FC010C41EA0E4180B240EAD8
:1005700001423B4638463C46B846BE462026B1FBC3
:10058000F7F1A2EB080241EA0C4166E7014618E7E1
:1005900010462CE7C6F120022EFA02F3B740B14014
:1005A00020FA02F24FEA174E0A43B3FBFEF8BCB240
:1005B0000EFB1833110C41EA034108FB04F9B0406B
:1005C00089454FEA104380B23ED9791808F1FF3CC3
:1005D00001D289451FD8A1EB0901B1FBFEF909FB46
:1005E00004F80EFB191192B242EA0142424529D2A7
:1005F000BA1809F1FF31C4D24245C2D2A9F10201B1
:100600003A44BEE7F0459DD2BEEB02036CEB070C0B
:100610000138E14696E7A7EB09094944A8F1020C25
:10062000B1FBFEF909FB04F8DBE773467FE75046B0
:1006300066E70846FDE63B44023A33E7ACF1020CBC
:100640003B441CE749469CE7A1EB0901C446B1FBCA
:10065000FEF909FB04F8C4E7704700BFDFF834D0A7
:10066000002103E00C4B5B58435004310B480C4B0A
:1006700042189A42F6D30B4A02E0002342F8043BA8
:10068000094B9A42F9D303F069FE21F00DFF01F006
:1006900063F8704700000320FCCC03080000002032
:1006A0006401002080030020F83E0120FEE770472F
:1006B00008B500F0BBFDBDE8084000F03FBD00F00C
:1006C000B7BD704710B50421044620F001FD204657
:1006D00010BD000038B50C4B0C4C18800C4B822020
:1006E00019806368984740F6110398420AD1094D72
:1006F00023682C60822098472B688220DB6898470B
:10070000002038BD0120FCE7A60300204C0000209B
:10071000A4030020A80300204FF4A071F020FFF7ED
:10072000D9BF0000F7B5394D2B6804461B698220FC
:100730009847208000284ED02B680DF106025B6997
:1007400001A982209847324B1B78002B4BD0BDF873
:10075000062040F674639A423FD9ADF80630BDF8E2
:1007600006209B1A9BB20A2B42D90B22B3FBF2F351
:10077000284A1288934201D9013A93B2BDF8042065
:10078000254840F6B8318A4234D8C2F571620E323B
:10079000016892B20F25B2FBF5F2204D2D88AA42D6
:1007A00084BF05F1FF35AAB28A4215468EB22AD916
:1007B000921B91B21A4E3768BB42BAB28CBF9A1ADA
:1007C000D21A92B211440529C4BF05603360036890
:1007D00063803368A38003B0F0BDB32A9CBFB4220A
:1007E000ADF80620BBE7BDF80630A3F5B473B9E752
:1007F0000023C3E7C2F56D62083292B20E2A016887
:10080000C8D800252A46891A89B2D3E7A803002050
:1008100078210020A4030020A0030020A6030020CC
:100820009C03002037B568460D461446FFF77AFF53
:10083000BDF8000030B1BDF802302B60BDF80430C7
:100840002360012003B030BD032821D8DFE800F089
:10085000020B12190F4B1A68B2FA82F252090421E4
:100860000D4804F00FB80B4B5A68B2FA82F25209E5
:100870000821F5E7074B9A68B2FA82F25209102173
:10088000EEE7044BDA68B2FA82F252092021E7E778
:10089000704700BFAC03002000100240032821D89D
:1008A000DFE800F0020B12190F4B1A68003A18BF6C
:1008B000012204210D4803F0E5BF0B4B5A68003AB2
:1008C00018BF01220821F5E7074B9A68003A18BFC4
:1008D00001221021EEE7044BDA68003A18BF01222A
:1008E0002021E7E7704700BFAC0300200010024062
:1008F00003280DD8DFE800F00206080A04210548A5
:1009000003F0C5BF0821FAE71021F8E72021F6E738
:10091000704700BF0010024008B5032811D8DFE877
:1009200000F0020A0C0E0421074803F0A5FF431E45
:100930005842584108BD0821F6E71021F4E720216C
:10094000F2E70020F3E700BF0010024070B5084D49
:1009500000240126E0B2FFF7DFFF18B12B68012B5E
:1009600018BF2E600134052C05F10405F2D170BDCD
:10097000AC030020012380F8781080F879307047AC
:100980007047002070470000034B4164003918BFD6
:1009900001211970704700BFB73101207047002056
:1009A0007047836B0BB10846184770474FF6FF70CE
:1009B0007047406803689B691847704770477047E5
:1009C0007047704710B5044600F048FD236803499E
:1009D000D3F890302046BDE810401847000000D002
:1009E00008B503680446D3F8843098472368204646
:1009F000DB6F984700F0ECF8236820465B6F984760
:100A0000292001F019F900F0E3F8236820465B6F14
:100A10009847F8E710B5044609F088F8236820469F
:100A2000D3F8BC30BDE81040184700F0FBBC00F024
:100A3000FFBC00F031BD00F0D1BC00F041BD00F0C2
:100A400049BD00F0D5BC08F09FBA10B5842104461A
:100A500020F03EFB204610BD10B590F8341090F801
:100A600078400C4B8C421A7809D03AB90A4A0B49A3
:100A70001488088810800C8001221A7010BD002A8A
:100A8000FCD0054A05491488088810800C80002293
:100A9000F3E700BFB0310120AC310120AE310120BD
:100AA00070B50D46194635B9094B0A4A0A4840F255
:100AB000FF2121F049FAC0E90F52084B003A18BF54
:100AC00001221A700368BDE87040D3F890301847CF
:100AD000F42F02082C3002087A300208B6310120C7
:100AE00008B5094B1B888B4203D8084B1B889342DF
:100AF00005D9074B074A0848A32121F025FA074BDF
:100B00001980074B1A8008BDAC310120AE3101209D
:100B1000BF300208223102087A300208B2310120C7
:100B2000B4310120034690F87A0018B15868036880
:100B30001B68184770470000012108B500220846CD
:100B400005F014FF0A4B186028B90A4B0A4A2821FD
:100B50000A4821F0F9F900220421012005F0A5FF3F
:100B6000074B186018B9074B034A2C21F0E708BD62
:100B7000C003002065310208AE310208DD310208F1
:100B8000BC03002016320208024B4FF0FF311868F8
:100B900005F036BFC0030020014B186805F05CBFAC
:100BA000C0030020024B0021186805F029BF00BFD8
:100BB000C0030020FFF7F0BF03480449006800238A
:100BC0001A4605F0ADBF00BFBC03002004000020A2
:100BD00013B5084C00231A4601A9206805F0D1FF7F
:100BE00020684FF0FF33002201A905F0CAFF02B0D0
:100BF00010BD00BFBC03002003685B6C18470120D8
:100C0000704703689B6A1847FEE740F2EF30704771
:100C1000054B0360054B4FF08062C3F88820BFF39B
:100C20004F8FBFF36F8F7047BC3C020800E100E0BC
:100C300010B504464FF45A61FFF7EAFF204620F052
:100C400047FA204610BD000082B0002301930E4BEE
:100C50001A6B42F400021A631A6B02F4000201924A
:100C6000019A1A6942F400021A611A6922F4000218
:100C70001A61064B064A1A61064A5A61064B4FF042
:100C800080629A6002B07047003802400C23002056
:100C9000E90E0008090C000800E100E008B50A2888
:100CA00009D8DFE800F006100E0808080810101038
:100CB0001000022008BD054B054A0648902121F08E
:100CC00043F90020F6E70120F4E700BF583202089C
:100CD00073320208BE32020838B50C46887FFFF72F
:100CE000DDFFA58AE28A164B2169586342EA054274
:100CF0005A64628BD963521B1A642568082D0ED181
:100D00009A611A615862207F0E4A42EA0062DA61F3
:100D1000E2681A620C4A5961D9601A6038BD002233
:100D2000D8611A61E1680A0A480902F4784200F4BD
:100D3000FC600243C1F3C4010A439A63034AECE72F
:100D400000B002400900010001230200012303005A
:100D500008B50B280BD8DFE800F00612100A0A0AC3
:100D60000A0808080808022008BD0520FCE7054B12
:100D7000054A06486F2121F0E7F80020F4E701203A
:100D8000F2E700BF58320208F5320208BE3202080C
:100D90002DE9F04191F81D800C464046FFF7D8FF41
:100DA000A77F05463846FFF7D3FF06463846FFF7CC
:100DB00075FFA18A628B444B521A1A649A61228B86
:100DC000521A1A61E28A586342EA01425A6421695E
:100DD0006268D963DA602068802828D0227F0FD823
:100DE000202867D0402865D004281AD0364B45EA21
:100DF000026545F40035B845DD6161D0334A44E011
:100E0000B0F5807F04D0B0F5007FEFD1304800E02E
:100E1000304840EA0262DA61E2681A625E62596151
:100E200032E045EA026242F40032DA61F6E7A06895
:100E3000021DDA62227F45EA026545F40035DD6174
:100E40005E625961017841B1012921D0224B234AC8
:100E500023484FF48D7121F077F8DA69418822F444
:100E60007F42013922F0100242EA0122DA610121B7
:100E7000154BDA6942F02002DA61DA699206FCD495
:100E800010229A600029B9D0164A1A60BDE8F08194
:100E9000B2F1FF01DA69408822F47F4200F1FF30AD
:100EA00022F0100242EA002242F0100218BF012193
:100EB000DA61DDE745EA0262034B42F40032B4E74F
:100EC00042F20132E1E700BF00B00240012301001D
:100ED000090002000A0002003F33020859330208E9
:100EE000BE32020801230200024B1B6858680368E7
:100EF0005B691847B831012070B5044625460A4B96
:100F00000C30002660602672667245F8203B602235
:100F1000294608F061FF04F55A63EE6024359D42CE
:100F2000FBD1204670BD00BFBC3C0208034B1A68D1
:100F3000D207FCD423229A60704700BF00B0024061
:100F40007047000030B50F4C2568ED07FCD4232511
:100F50000904A56041F001010225FF2B656361646E
:100F6000E0630AD00849656241EA0363E361074B25
:100F700022626061E060236030BDE561039BA36392
:100F8000034BF8E700B00240090001000100020035
:100F90000100030030B50E4C2568ED07FCD4232575
:100FA0001204A56042F001020225FF2B6563626412
:100FB000E063E16008D01B0643F00213E361054BD8
:100FC00065626061236030BD034BE3610123F9E793
:100FD00000B0024001000200020002FF30B50B4CDD
:100FE0002568ED07FCD4232512041B06A56043F4F5
:100FF0000033022542F0010265636264E063E16050
:10100000E361034B65626061236030BD00B0024064
:1010100001000200012070470C2070470C2303FBE5
:101020000100083070470C2303FB010008307047B3
:101030000120704740F66C40704740F66C4303FB5C
:1010400001000830704740F66C4303FB0100083094
:101050007047012070471020704700EB01100830E6
:10106000704700EB011008307047084601F078BB6C
:1010700010B5034B0360044607F0DDFC204610BDAD
:10108000743D020810B50446FFF7F2FF2046142114
:1010900020F01EF8204610BD10B5034B0360044637
:1010A00007F0C9FC204610BD403D020810B50446BB
:1010B000FFF7F2FF204640F6744120F009F8204681
:1010C00010BD000010B5034B0360044607F0B3FCED
:1010D000204610BD0C3D020810B50446FFF7F2FF94
:1010E000204618211FF0F4FF204610BD10B5084B14
:1010F0000360044600F54A60FFF7BAFF04F12C00D4
:10110000FFF7CAFF04F11400FFF7DCFF204610BD13
:10111000A83D020808B50248FFF7E8FF08BD00BF78
:101120009C12002010B50446FFF7E0FF204640F671
:1011300014611FF0CDFF204610BD00002DE9F341E2
:1011400001F0E0F8054601F0E1F8002401462346ED
:1011500028462246009410F009FF274B274A1A60C0
:10116000204602F05DFD264D264B274A27489A600F
:1011700010F064FE2B68BFF35B8FDB0735D4284685
:101180001FF0A8FF88B3224C224B236004F6B84618
:1011900004F1140004F12C0804F54A676060C4F8F7
:1011A0000880E760266107F047FC1B4B63614046FF
:1011B00007F042FC194BE362384607F03DFC184B40
:1011C000C4F8A03C04F6B44002F0AEFD224604F69A
:1011D000B441304602F09EFD304601F0C1FA11489C
:1011E00020F0D0FE28461FF081FF0F4802B0BDE876
:1011F000F041FFF7E7BB00BF1C320120480400208C
:1012000098120020680400204C04002008000020F0
:101210009C120020A83D02080C3D0208403D020837
:10122000743D020815110008C40300207047000037
:101230000148FFF7D5BB00BFC403002070B5264EA0
:10124000264C274D274B23603046FFF755FE284696
:1012500015F092FF24480EF015FF244B2448DC6063
:1012600000224FF48071C3E9121222491A86C3E9A1
:101270001A12214983F85820C3E91E011F49C3F8F7
:1012800080101F491F480B60F021C3E90422C3E905
:101290000622C3E90822C3E90A22C3E90E22C3E9F0
:1012A0001022C3E91422C3E917225A6683F870207A
:1012B0005A67C3E9016501801348018013484FF460
:1012C000A07101801248018012490A70012283F83E
:1012D0003420114A1A6070BDF404002094120020DA
:1012E00068040020E42F02084C040020C4030020FE
:1012F0000000010101000001000450001A00140068
:10130000B8310120AC310120B2310120AE310120D1
:10131000B4310120B0310120D03B02080148FFF771
:1013200077BC00BFF4040020002070478180704724
:10133000C180704701817047418170477047704795
:1013400070477047704710B4C4880368121B8488C4
:101350005B6D091B12B25DF8044B09B218474FF6DA
:10136000FF7383814FF0FF3303621368C361106022
:101370007047002070478B8883800120704770473A
:1013800080F82610704790F82600704710B50022AC
:10139000B1F90840B1F90A10028042808480C1800E
:1013A00010BD0022028042808280C2807047017797
:1013B000704780ED080A704780F82410704780F865
:1013C0002510704701207047983070478C30704767
:1013D000843070477047704770470000034B90227D
:1013E00083F85A2383F85823704700BF00E100E0D8
:1013F000094A0A49D3680A48C3F30A03013B9BB26E
:101400000B801169C1F30A01013901801364536B28
:1014100043F001035363704700680140B22000208D
:10142000B0200020014BD3F8AC00704700680140A9
:10143000024B0122C3F8AC105A62704700680140A9
:1014400010B52C2104461FF043FE204610BD10B5F8
:10145000BC2104461FF03CFE204610BD70B504467A
:1014600007F0E7FD23689D6E0DF0A4FB01462046C2
:10147000A8472368054AD3F88C502046AC46002381
:10148000BDE87040A2F51631604700BF00B004D03F
:1014900007F0B6BD07F0C0BD07F07CBD07F0EBBE9E
:1014A00090F8252012B103685B691847704790F8DF
:1014B00025201AB190F8242002B11860704700006E
:1014C000034B4FF080629A604FF080729A607047D1
:1014D00000E100E0084B4FF08062C3F88820BFF3C2
:1014E0004F8FBFF36F8F4FF08072C3F88820BFF328
:1014F0004F8FBFF36F8F704700E100E070B500239E
:10150000124E8380124B0360336893F858200546CF
:101510000AB1D86C00B998680368DB6A98473368E9
:10152000B0FA80F4D86C640930B10368DB6A98477C
:10153000002808BF44F001042CB9064B064A0748AE
:101540002C2120F001FD284670BD00BFB8310120DC
:10155000BC3D020897330208F53302082E34020816
:1015600070B5254E3568BFF35B8F15F0010540D18E
:1015700030461FF0AFFD00283BD0204C204B2561AA
:1015800004F13400C4E90035C4E90255E584A562DC
:10159000A5850FF05CF804F158000AF0D1F8194B5A
:1015A000A3652046184B40F8843BFFF7A7FF174B75
:1015B000C4F884302433C4F88C304FF4C803C4E931
:1015C00028350023C4F8AC30C4F8B030C4F8B430C7
:1015D000C4F8B8300E480F4BC4F89050C4F89C5073
:1015E000C4F8A850C4F8983020F0CCFC30461FF066
:1015F0007DFD024870BD00BFB4200020B82000204F
:101600007C440208DC3D0208543E020830440208D3
:10161000D91300081044020838B5184C23685BB38E
:10162000174B184A1B6C11888B4216D1164B198820
:1016300003F030FF236893F86A200025013283F815
:101640006A2083F87C50FFF7B7FA206808F06EFA3A
:101650002846BDE83840FFF7F7B803F01BFF2468C1
:10166000236820461B6A9847012384F87C300020B9
:10167000BDE83840FFF712B938BD00BFB8310120CE
:1016800000680140B2200020B020002007B5064BC2
:10169000ADF806001B68054801220DF1060104F0B3
:1016A00099FC03B05DF804FB0C000020B821002079
:1016B00008B5642005F04EF9FBE7000030B595B0A1
:1016C000102200210AA820F046FE1422002103A8BF
:1016D00020F041FE00241E4B01941A6C42F080520F
:1016E0001A641B6C03F080530193019B194B029405
:1016F0001A6842F440421A601B6803F440430293A4
:101700000122029B4FF48033CDE9082302254FF4D8
:1017100080030821CDE90E534FF4B473CDE91013C3
:1017200008A804231393129503F00CFF03F0D0FED6
:101730000F23CDE903354FF4A0504FF48053CDE98A
:101740000603052103A8059404F0D8F815B030BDB0
:10175000003802400070004080B59AB002F00CFEE4
:10176000FFF7ACFF142200210DA820F0F4FD0024A7
:10177000C74B00941A6BC748C74DDFF8588342F037
:1017800010021A631A6B02F010020092009A019480
:101790001A6B42F020021A631A6B02F020020192C7
:1017A000019A02941A6B42F080021A631A6B02F0DB
:1017B00080020292029A03941A6B42F004021A63A6
:1017C0001A6B02F004020392039A04941A6B42F01B
:1017D00001021A631A6B02F001020492049A059442
:1017E0001A6B42F002021A631A6B02F002020592AF
:1017F000059A06941A6B42F040021A631A6B02F0C3
:1018000040020692069A07941A6B42F008021A6385
:101810001B6B03F00803224607933C21079B03F050
:1018200031F89E480122022103F02CF822469B4801
:10183000042103F027F8224699484FF4405103F061
:1018400021F801263C23CDE90D3692480F9403235D
:101850000DA90227109302F02BFF90480DA9CDE9A6
:101860000D76CDE90F4402F023FF04238B480DA928
:10187000CDE90D36CDE90F4702F01AFF0DA94FF45F
:1018800040538748CDE90D36CDE90F4702F010FFF0
:101890008448854B036002F001FEDFF83CE2834B95
:1018A0002C62C5E900E328464FF48043C5E90434BF
:1018B000C5E90244C5E9064403F0F2F910212846BF
:1018C00003F036FC21462846794D03F050FC4FF4D6
:1018D0008273C5E900834FF400791823C5E90693A4
:1018E00028460A23C5E90244C5E90444C5E9084479
:1018F000AC62EB6204F012FB8F2322463946674844
:101900008DF824308DF8344002F0BCFF32464FF49D
:101910007A7309A9284604F05DFB4FF47A733246C6
:101920000DA9284604F002FD324639465B48614D58
:1019300002F0A8FF9DF83430D32B04BF5E4B1E701D
:101940005E4B0126C5E90036102240230024C5E97C
:1019500004234FF4C073C5E906344FF40063C5E9AE
:1019600008344FF4005302274FF00409AB624FF0E4
:10197000030A07230DA92846CDE90D73CDE90F937E
:101980004FF00808C5E90249CDE911A7139704F003
:10199000A9F94FF6FF7209A92846CDE90A860894ED
:1019A00009960C9404F0BEF9304602F011FD4FF692
:1019B000FF7209A92846CDE90978CDE90B6404F046
:1019C000B1F94FF6FF7209A92846CDE909A8CDE97A
:1019D0000B9404F0A7F94FF40C730893089B0C9335
:1019E0004FF6FF7209A92846CDE909980B9604F035
:1019F00099F940F26A51284604F0B2F934220DEB0D
:101A00000200214620F0A7FC2D4D2E4B2C61C5E98C
:101A100000340923C5E905361D23C5E9073A40F21C
:101A20000D1140F24313C5E9091340F2171040F2BB
:101A30004713C5E90B032846C5E90244AC8685F87F
:101A4000364003F02FFCFF214FF4806CF022CDE9EB
:101A500012140521CDE914C14FF4A0730DA9CDE9ED
:101A60000E24CDE9164228462246174D1893CDE99B
:101A700010370D94ADF864408DF8664003F0DDFC3E
:101A8000124B2B601B6898472B68114DDB6825E0D3
:101A90000038024000100240B82200200008024036
:101AA000000C02404C23002000300240A0860100C0
:101AB000B82100208421002078210020400100A0CE
:101AC0001022002000680140742100201400002032
:101AD0000C23002000500140005C00409847134B4D
:101AE0002846C5E90034C5E90274C5E90A47C5E9D5
:101AF0000C4402F0E3FC3146284602F095FDFEF767
:101B0000D7FDFEF7D4FD04F0B5FE094A0948214689
:101B100004F0DCFE084B094A18602146084804F02E
:101B2000D5FE084B186004F0B7FEFEE700B0024097
:101B3000BC3E0208B116000880210020983E020831
:101B4000BF0600087C210020704770477FB5094B15
:101B50008DF817201B6802930DF1170201230092E4
:101B600001930A460146044803F042F907B05DF8C4
:101B700004FB00BF10000020B82200207FB5002326
:101B80008DF81730084B1B6802930A4601230DF1AC
:101B90001701009101930146044803F0B9F99DF83B
:101BA000170007B05DF804FB10000020B8220020E9
:101BB0001FB5084C24680092CDE901340A46012380
:101BC0000146054803F0A4F9003818BF012004B00D
:101BD00010BD00BF10000020B822002002F0F8BBAA
:101BE00010B5064C00222046042102F04BFE204690
:101BF0000122BDE81040042102F044BE000802406A
:101C000038B50B4D044601220A484FF4005102F04A
:101C100039FE00220421284602F034FE2046FFF758
:101C200035FD28460122BDE83840042102F02ABED5
:101C300000080240000C024038B50B4D044600225B
:101C40000A484FF4005102F01DFE002204212846EC
:101C500002F018FE2046FFF719FD28460122BDE8D4
:101C60003840042102F00EBE00080240000C024081
:101C7000F7B5144E144F05460C4630460022042199
:101C800002F000FE00224FF40051384602F0FAFD47
:101C90002846FFF7FBFC0D4B0D481B68224601A9A7
:101CA00004F044FB384601224FF40051019C02F03D
:101CB000E9FD30460122042102F0E4FD204603B094
:101CC000F0BD00BF00080240000C02400C000020E4
:101CD000B821002002F07CBB0268034B9A4201D17C
:101CE00002F064BB704700BF001000407047000066
:101CF00082B00E4B00220092596C41F4804159642D
:101D0000596C01F48041009100990192196C41F0E5
:101D1000805119641B6C03F080530193019B0F21C8
:101D20006FF0010002B002F079BB00BF0038024042
:101D30000268094B9A4282B00BD100230193074BF2
:101D40001A6B42F480521A631B6B03F480530193A5
:101D5000019B02B0704700BF0030024000380240D3
:101D600007B50F4B02689A4216D10022A3F5F04343
:101D70000192196B41F4000119631B6B03F400031A
:101D8000019305215A20019B02F048FB5A2003B021
:101D90005DF804EB02F074BB03B05DF804FB00BF18
:101DA00000B002402DE9F043044689B0142200211E
:101DB00003A820F0D0FA2268244B9A4243D1244C45
:101DC000244800250095236B43F004032363236B11
:101DD00003F004030093009B0195236B43F0010380
:101DE0002363236B03F001030193019B4FF012095E
:101DF0004FF400734FF001080327042603A9CDE92F
:101E00000339CDE90587079602F052FC4FF4807341
:101E10001148079603A9CDE90339CDE9058702F0FA
:101E200047FC0295236C43F400032364236C03F402
:101E300000030293029B236A43F400032362236A94
:101E400023F40003236209B0BDE8F083005C004086
:101E5000003802400008024000000240F0B599B08E
:101E600004461422002107A820F075FA30220DEB59
:101E70000200002120F06FFA22685E4B9A4240F087
:101E8000B78008230C93C0231093042312930CA84B
:101E90004FF40033159303F0F9FD08B1FFF726FF67
:101EA000554B5648002400945A6C42F080625A64A4
:101EB0005A6C02F080620092009A01941A6B42F010
:101EC00020021A631A6B02F020020192019A029416
:101ED0001A6B42F001021A631A6B02F001020292BD
:101EE000029A03941A6B42F002021A631A6B02F010
:101EF00002020392039A04941A6B42F040021A639E
:101F00001A6B02F040020492049A05941A6B42F094
:101F100004021A631A6B02F004020592059A0694F1
:101F20001A6B42F008021A631B6B03F00803069356
:101F300002250E26069B0B964FF4806307A9CDE978
:101F40000735CDE9094502F0B3FB41F658032C48AB
:101F50000B9607A9CDE907350927CDE9094502F018
:101F6000A7FB032327480B9707A9CDE90735CDE940
:101F7000094502F09DFB4FF4706322480B9607A9B8
:101F8000CDE90735CDE9094502F092FB4FF40C632A
:101F90001D480B9607A9CDE90735CDE9094502F0A3
:101FA00087FBC02319480B9607A9CDE90735CDE972
:101FB000094502F07DFB082315480B9607A9CDE9DA
:101FC0000735CDE9094502F073FB4FF4A0530E48E5
:101FD0000B9707A9CDE90735CDE9094502F068FB64
:101FE00058202246052102F019FA582002F048FA3A
:101FF00019B0F0BD006801400038024000140240F2
:1020000000000240000402400018024000080240A4
:10201000000C024010B5044688B01422002103A829
:1020200020F099F92268144B9A4223D103F56843B2
:10203000002101915A6C114842F480125A645A6C82
:1020400002F480120192019A02911A6B42F020026E
:102050001A631B6B03F020030293029B4FF4607220
:1020600002230321CDE903230523CDE9061303A9A8
:1020700002F01EFB08B010BD0050014000140240E9
:102080002DE9F04186B0002303932B4B1C68002CF4
:102090004FD14FF00108C3F80080284B00949A6B91
:1020A000274842EA08029A639B6B03EA08030093FD
:1020B000022703260C25009B01A94FF63F03CDE91B
:1020C0000137CDE9046502F0F3FA1E48059501A930
:1020D000CDE90187CDE9034602F0EAFA48F233136D
:1020E0001948059501A9CDE90137CDE9034602F06C
:1020F000DFFA4FF683731548059501A9CDE901373D
:10210000CDE9034602F0D4FA4CF20373104805956A
:1021100001A9CDE90137CDE9034602F0C9FA6023F0
:102120000C48059501A9CDE90137CDE9034602F038
:10213000BFFA06B0BDE8F081542300200038024009
:102140000014024000080240001802400010024043
:10215000000C02400004024070B588B000230293D6
:10216000204B1A6C42F010021A641B6C03F010032F
:102170000293054601A903A8029B03F069FC069B94
:102180004BBB03F055FC184E184B336040F2E7335D
:10219000F360174BB0FBF3F3013B73603046002351
:1021A0003361B360B36104F091FA044680B93046FC
:1021B00004F062F9044658B9362002F061F90F2D97
:1021C0000DD822462946362002F028F9094B1D6019
:1021D000204608B070BD03F02BFC4000D3E701247B
:1021E000F6E700BF003802405823002000100040EE
:1021F00040420F007C0000207047FEE7FEE7FEE74C
:10220000FEE77047014804F075B900BF582300206D
:10221000014803F0B5B800BF10220020014802F0C9
:1022200079B900BF0C2300200120704708B520F0C9
:1022300035F9162303604FF0FF3008BD08B520F0D4
:102240002DF916230360FEE770B50D4614460E46C1
:10225000731B9C4201DC204670BDAFF3008006F882
:10226000010BF5E770B50D4614460E46731B9C42F4
:1022700001DC204670BD16F8010BAFF30080F5E7D6
:102280004FF0FF3070474FF400534B600020704711
:1022900001207047002070470A4A116808B50346BC
:1022A00009B9094911601068694603448B4206D98F
:1022B00020F0F4F80C2303604FF0FF3008BD1360EA
:1022C000FCE700BFA0230020F83E0120704710B5B6
:1022D000042104461EF0FCFE204610BD012908B56D
:1022E00006D0022908D059B901F0E6FC006808BD03
:1022F00001F0E2FC4068FAE701F0DEFC8068F6E7F6
:102300000020F4E700487047F43E020802207047BE
:1023100013B5002451B1036801948DF8034001AA5C
:102320009C680DF10303A04702B010BD0846FBE70F
:10233000C0897047008A7047C0887047808870479E
:10234000807A00F07F007047807AC00970470020D3
:10235000704700009FED010A704700BF00000000B9
:10236000704710B5082104461EF0B2FE204610BD8D
:102370007047704700F598730868496803C3704751
:10238000704770474160704770477047064BC0F810
:102390004C310023C0F8503100F5A273C0F8480159
:1023A000C0F84031704700BF99250008012303722F
:1023B0007047704710B4C26841685410034601EB7F
:1023C0006200D20748BF0A599B685DF8044B48BFBA
:1023D000D35818470346406830B19A681AB9D8688C
:1023E00000F0010070470120704710B50C21044631
:1023F0001EF06EFE204610BD10B5102104461EF0E2
:1024000067FE204610BD10B54FF4AE7104461EF0B5
:102410005FFE204610BD10B50CF0CCFB0368BDE894
:102420001040DB6B184710B50446D0F8400158B196
:102430000368DB68984738B1D4F8400103689B68AB
:1024400098470023C4F8403110BD00002DE9F14F3A
:10245000D0E9556A0746B06803681B6A984740F69A
:102460006B43984205D8444B444AA32144481FF08B
:102470006BFD706803681B6A98470F2803D8414BAF
:102480003E4AA421F2E7F06803681B6A98470B28CC
:1024900003D83D4B394AA521E8E70CF08BFBDFF868
:1024A000F09004300CF0ABFBD9F8000010B10368D9
:1024B000DB689847D9F8000010B103681B6898479B
:1024C000DFF8D080D8F8000010B103685B69984746
:1024D000D7F83C0110B103685B689847D8F8000052
:1024E00010B103681B689847D7F83C0110B1036826
:1024F0009B689847F068036800215B6A98474FF033
:10250000000B224BC0F804B0044680F808B003600A
:10251000B068036859465B6A9847054601F072FC4B
:102520007068036859465B6A98472946064601F079
:1025300047FC331DC7F83C61C9F80040C8F800509B
:10254000CAF800302B68C6F808A02846DB68EE639E
:102550009847336830461B689847214628460EF056
:10256000D9FC236820461B69984723685B6920468D
:1025700001B0BDE8F04F1847A53402083335020812
:10258000053602084C360208EF360208A03F020862
:1025900000320120FC3101202DE9F14FD0E9556ACC
:1025A0000746B06803681B6A9847EF2805D8444B74
:1025B000444AA32144481FF0C7FC706803681B6AA3
:1025C00098470F2803D8414B3E4AA421F2E7F06810
:1025D00003681B6A98470B2803D83D4B394AA5214D
:1025E000E8E70CF0E7FADFF8F09004300CF007FBB6
:1025F000D9F8000010B10368DB689847D9F80000EB
:1026000010B103681B689847DFF8D080D8F8000045
:1026100010B103685B699847D7F83C0110B10368B3
:102620005B689847D8F8000010B103681B689847AA
:10263000D7F83C0110B103689B689847F0680368BD
:1026400000215B6A98474FF0000B224BC0F804B0A2
:10265000044680F808B00360B068036859465B6AB6
:102660009847054601F092FB7068036859465B6A1B
:1026700098472946064601F069FB331DC7F83C61BF
:10268000C9F80040C8F80050CAF800302B68C6F8F6
:1026900008A02846DB68EE639847336830461B681D
:1026A0009847214628460EF035FC236820461B69D2
:1026B000984723685B69204601B0BDE8F04F184792
:1026C000A534020892370208053602084C36020883
:1026D000EF360208A03F020800320120FC31012041
:1026E000044B1B6893F858200AB1D86C00B998685D
:1026F000704700BFB8310120F8B5174604460E46B2
:102700000CF01AFB124B1C60124B2360124B00257D
:10271000C4E95135114BC4E95355186803680121C8
:102720009B68C4E94F55C4E955769847284601F09F
:1027300077FAFFF7D5FF16F0C8FBFFF7D1FF16F0C9
:102740003FFCFFF7CDFF16F047FC2046F8BD00BF69
:102750000C3201204C3F0208343F0208B8310120FE
:10276000064BC0F84C310023C0F8503100F5A2737D
:10277000C0F84801C0F84031704700BF99250008F3
:10278000064BC0F84C310023C0F8503100F5A2735D
:10279000C0F84801C0F84031704700BF4D24000820
:1027A000406A7047806A704770478A880B8810B506
:1027B000D20A4C88C1699BB251F8220043EA044313
:1027C000184410BD10B50446BAB1107B68B1537BF4
:1027D000D27A1B0203F4E0631A43236A03EB8203F9
:1027E0001A888A4202D193F9020010BD05D8013837
:1027F00080B204330028F3D1F7E70020F5E710B5E5
:102800002C2104461EF064FC204610BD30B58BB070
:102810000446BDF860500895BDF85C5007959DF8DA
:10282000505006959DF84C5005959DF848500495DC
:102830009DF8445003959DF8405002959DF83C50FA
:102840000195BDF8385000950DF0BEFF064B236092
:10285000159BE361169B2362199B63621A9BA3621B
:1028600020460BB030BD00BFC43F02087047704720
:1028700070477047704770477047704730B4C26800
:1028800044685510034604EB6200D20748BF625902
:102890009B6830BC48BFD35818470346406830B1E6
:1028A0009A681AB9D86800F0010070470120704793
:1028B00010B5102104461EF00BFC204610BD10B5CB
:1028C000F02104461EF004FC204610BD98308842DA
:1028D00008B505D10CF06EF9BDE80840FFF750BF10
:1028E00008BD70B5036804461B6B154698472368FE
:1028F000294620465B6BBDE87040184770B504461A
:102900001D46BDF91060FFF7ECFF236829462046FD
:102910009B6B9847236831462046DB6BBDE87040CF
:1029200018470000094A02604FF480710022818438
:10293000FF21C0E90122C0E90322C0E90522C0E964
:10294000072280F826108262704700BFD045020837
:10295000F8B5194B018F1B888B4206462AD9174BB5
:102960001B682BB9164B174A17486C211FF0ECFA5D
:1029700013F81120154B1B6853F82250144B18689C
:1029800001F08AF92B6807469B6B284698472B680D
:1029900004469B6C3946284698472B6814FB00F484
:1029A0005B6A394628469847A4B223181BB2A6F89A
:1029B0004630F8BD0023FAE714320120103201201E
:1029C00064380208A6380208E138020818320120EB
:1029D0001C3201202DE9FF470446274600250EF052
:1029E000EDF82E4BE56347F8403B04F16C0938469F
:1029F000FFF798FF04F198064846FFF793FF30462B
:102A000009F02CFD264BC4E93834264B4FF4A07A4C
:102A1000C4E93A352A4629463846CDF800A0F023C5
:102A2000FFF76CFF04F104084FF07F43A3663946BB
:102A3000404606F013F84FF0FF37F0232A462946A8
:102A40004846CDF800A0FFF759FF49464046C4F874
:102A5000947006F003F829463046D222FFF741FF72
:102A600003AA02A901233046ADF80C30ADF8085096
:102A700009F069FA1323A4F8D0303046FFF768FF55
:102A800004F1E0034046C4E93577C4F8C03031466C
:102A900005F0E4FF204604B0BDE8F087444002089A
:102AA0002C400208CD280008806A704730B50368C2
:102AB00085B06D460181D3F884300146044628462E
:102AC000984795E807003C3484E8070005B030BD1E
:102AD00030B5036885B06D464181D3F88430014636
:102AE00004462846984795E807003C3484E80700E8
:102AF00005B030BD0022028042808280C2807047D3
:102B000080F83610704770B5036804461B6B154695
:102B100098472368294620465B6EBDE870401847F9
:102B200000207047806C704770477047704770474F
:102B3000704790F82C304BB100F16C021268C265FE
:102B40003BB100F174031B680366704700F1680233
:102B5000F4E700F17003F6E730B4C268446855103A
:102B6000034604EB6200D20748BF62599B6830BC41
:102B700048BFD35818470346406830B19A681AB91D
:102B8000D86800F0010070470120704790F82D30A0
:102B900080F85A30704710B54C2104461EF098FA60
:102BA000204610BD10B5782104461EF091FA20464B
:102BB00010BD10B5102104461EF08AFA204610BD43
:102BC00010B540F66C4104461EF082FA204610BD56
:102BD00008B5FEF765FC08BD10B50446006B50B1A2
:102BE0000368DB68984730B1206B036821469B6817
:102BF000BDE81040184710BD0B7970B590F82C60F7
:102C000004460D460BB916B170BD002EFCD0B3FAC8
:102C100083F35B0984F82C3023682046D3F88C308A
:102C20009847236820465B699847002EECD02B79A3
:102C3000012BE9D123682046D3F88830BDE87040E5
:102C400018470000036870B55E6B124B1B680446A2
:102C50008DB22BB9104B114A6C2111481FF074F939
:102C60001049828D0988914203D80F4B0B4A6D2180
:102C7000F3E713F812200D4B1B6853F8220003688A
:102C80001B6B9847291A3346204609B2BDE87040AD
:102C9000184700BF1032012064380208A638020825
:102CA000E1380208143201202839020818320120C4
:102CB000C430884208B505D10BF07CFFBDE8084060
:102CC000FFF74EBD08BD0000074A02600022C0E9C0
:102CD0000122C0E90322C0E90522C0E907224FF41E
:102CE00080728284704700BF7847020810B504469E
:102CF000FFF7EAFF024B23600023A362204610BDCA
:102D00005043020800224FF0FF31C0E900218260E9
:102D10007047000010B50021044626221FF01BFB5F
:102D20002046FFF7D1FF094B2360094BA3624FF602
:102D3000FF73A3854FF47F020023C4E90C3223877D
:102D400004F13C00FFF7DEFF204610BD40450208BD
:102D5000243F020810B50446FFF7D4FF204610BDFB
:102D600010B50446FFF7D6FF024B23600023A3648F
:102D7000204610BD784002082DE9F04F0446BFB050
:102D8000A14600260DF01AFFDB4BE66349F8403BF5
:102D90004846FFF7C7FD04F16C0318461493FFF78C
:102DA000C1FD04F1980304F1C40818461593FFF718
:102DB000B9FD4046FFF79AFF4FF47F43A4F8F03087
:102DC0004FF0010304F1F80A84F8E830CB4BC4F863
:102DD000C430C4F8F4605046FFF7A4FDC84BC4F8F3
:102DE000F830324631465046C4E94B66C4E94D6678
:102DF000C4F82461A4F82861FFF773FD04F59E7BF5
:102E00005146404605F02AFE5846FFF783FF04F579
:102E1000C27318461693FFF769FF04F5D873184676
:102E20001793FFF763FF04F5EE7318461893FFF747
:102E30005DFF04F5027318461993FFF757FF04F579
:102E40000D7318461A93FFF751FF04F518731846CF
:102E50001B93FFF74BFF04F5237318461C93FFF7F2
:102E600045FF04F52E7318461D93FFF73FFF04F549
:102E7000397318461E93FFF755FD04F54473184641
:102E80001F93FFF733FF04F54F7318462093FFF7A6
:102E90002DFF04F55A7318462193FFF727FF04F519
:102EA000657318462293FFF721FF04F570731846E7
:102EB0002393FFF71BFF04F57B7318462493FFF75A
:102EC00015FF04F5836318462593FFF70FFF04F2FF
:102ED000444318462693FFF709FF04F58E6318460E
:102EE0002793FFF71FFD04F29C4318462893FFF732
:102EF00019FD04F5996318462993FFF713FD04F2B1
:102F0000F44318462A93FFF70DFD04F5A463184611
:102F10002B93FFF707FD04F24C5318462C93FFF751
:102F200001FD04F5AF6318462D93FFF7FBFC04F297
:102F3000A45318462E93FFF7F5FC04F5BA63184620
:102F40002F93FFF7EFFC04F2FC5318463093FFF782
:102F5000E9FC04F5C56318463193FFF7E3FC04F27E
:102F6000546318463293FFF7DDFC04F5D06318462E
:102F70003393FFF7D7FC04F2AC6318463493FFF7A2
:102F8000D1FC04F5DB6318463593FFF7CBFC04F264
:102F9000047318460293FFF7E3FE04F5EA6318464C
:102FA0000393FFF7DDFE04F29C7318460493FFF7CA
:102FB000D7FE04F5FD6318460593FFF7D1FE04F62E
:102FC000340318460693FFF7CBFE04F50863184652
:102FD0000793FFF7C5FE04F6CC0318460893FFF7E6
:102FE000BFFE04F6181318460993FFF7B9FE04F65E
:102FF000641318460A93FFF7B3FE04F51B631846E3
:103000000B93FFF7ADFE04F6FC1318460C93FFF785
:10301000A7FE04F6482318460D93FFF7A1FE04F619
:10302000942318460E93FFF79BFE04F52E63184673
:103030000F93FFF795FE04F62C3318461093FFF715
:103040008FFE04F6783318461193FFF789FE04F6D5
:10305000C43318461293FFF783FE04F54163184604
:103060001393FFF77DFE274BC4F85C3C264BC4F856
:10307000643C4FF4A073251D4FF07F473246C4F8DF
:10308000604CC4F8686C314600934846F023FFF763
:1030900035FC49462846A76605F0E0FC4FF4A073CE
:1030A0003246149800933146F023FFF727FC174B64
:1030B0001499C4F89430284605F0D0FCDC23159808
:1030C000009350220A21FFF719FC114B1599C4F8FF
:1030D000C03028464FF0210905F0C0FC3246314689
:1030E000CDF8009050465423FFF708FC4FF005033D
:1030F000A4F828310EE000BFBC41020808410208D4
:1031000038460208A4410208B12C0008DFED64FF34
:10311000EEEEEEFFE04BC4F82C3103F54C533333A5
:10312000C4F83031A3F5CC43663BC4F8343103F125
:10313000331303F54C53C4F838314046FFF7F9FC1C
:1031400004F65C43C4F8F43008225423CDF8009010
:1031500040460C21FFF7D2FB4146284605F07EFC95
:103160000DF1D8080E2258461F21FFF7BAFB594629
:103170004046C4F86C71A4F8706108F0DFFB98E871
:10318000070004F5BC730DF1EC08DFF81093CDF8DF
:10319000EC9083E80700122341465846ADF8F03022
:1031A00008F074FE594628464FF0320B05F056FCE5
:1031B0005B461698CDF800B054220E21FFF79EFB17
:1031C0001699284605F04AFC5B461798CDF800B0E2
:1031D0008A220E21FFF792FB1799284605F03EFC44
:1031E0005B461898CDF800B08A224421FFF786FB91
:1031F0001899284605F032FC5B461998CDF800B0C6
:103200008A227A21FFF77AFB1999284605F026FCD5
:103210005B461A98CDF800B08A22B021FFF76EFB0A
:103220001A99284605F01AFC5B461B98CDF800B0A9
:10323000C0220E21FFF762FB1B99284605F00EFC09
:103240005B461C98CDF800B0C0224421FFF756FB26
:103250001C99284605F002FC5B461D98CDF800B08D
:10326000C0227A21FFF74AFB1D9928464FF0FF3A0A
:1032700005F0F4FB5B461E98CDF800B0C0220E218D
:10328000FFF73CFB1E99C4F80CA3284605F0E6FBAB
:103290005B461F98CDF800B0C022B021FFF72EFB8F
:1032A0001F99284605F0DAFB5B462098CDF800B060
:1032B000F6220E21FFF722FB2099284605F0CEFBCF
:1032C0005B462198CDF800B0F6224421FFF716FBAB
:1032D0002199284605F0C2FB5B462298CDF800B044
:1032E000F6227A21FFF70AFB2299284605F0B6FB61
:1032F0005B462398CDF800B0F622B021FFF7FEFA26
:103300002399284605F0AAFB5B462498CDF800B027
:1033100054224421FFF7F2FA2499284605F09EFB37
:103320005B462598CDF800B054227A21FFF7E6FAE3
:103330002599284605F092FB5B462698CDF800B00B
:103340005422B021FFF7DAFA2699284605F086FBC9
:103350005B462798CDF800B054220E21FFF7CEFA35
:103360002799C4F898A4284605F078FB5B4628986E
:10337000CDF800B054224421FFF7C0FA2899C4F8D0
:10338000C4A4284605F06AFB5B462998CDF800B036
:1033900054227A21FFF7B2FA2999C4F8F0A42846FA
:1033A00005F05CFB5B462A98CDF800B05422B021B2
:1033B000FFF7A4FA2A99C4F81CA5284605F04EFB8D
:1033C0005B462B98CDF800B08A220E21FFF796FAC3
:1033D0002B99C4F848A5284605F040FB5B462C987D
:1033E000CDF800B08A224421FFF788FA2C99C4F85E
:1033F00074A5284605F032FB5B462D98CDF800B049
:103400008A227A21FFF77AFA2D99C4F8A0A52846D6
:1034100005F024FB5B462E98CDF800B08A22B0213F
:10342000FFF76CFA2E99C4F8CCA5284605F016FBD8
:103430005B462F98CDF800B0C0227A21FFF75EFAE4
:103440002F99C4F8F8A5284605F008FB5B4630988C
:10345000CDF800B0C022B021FFF750FA3099C4F87F
:1034600024A6284605F0FAFA5B463198CDF800B05C
:10347000F6220E21FFF742FA3199C4F850A62846E9
:1034800005F0ECFA5B463298CDF800B0F622442104
:10349000FFF734FA329903E0996600FF243F0208EF
:1034A000C4F87CA6284605F0D9FA5B463398CDF8D7
:1034B00000B0F6227A21FFF721FA3399C4F8A8A6C2
:1034C000284605F0CBFA5B463498CDF800B0F622DA
:1034D000B021FFF713FA3499C4F8D4A6284605F0B2
:1034E000BDFA5B463598CDF800B0C0224421FFF705
:1034F00005FA3599C4F800A7284605F0AFFA5B46EF
:103500000298CDF800B054220E21FFF7F7F9C4F865
:103510003477A4F838674046FFF7F4FB98E80700D3
:1035200004F5E86C8CE8070011220298ADF8F02051
:103530004146CDF8EC9008F0A9FC0299284605F028
:103540008DFA5B460398CDF800B054224421FFF772
:10355000D5F9C4F88077A4F884674046FFF7D2FB1A
:1035600098E8070004F28C7C8CE80700102203988E
:10357000ADF8F0204146CDF8EC9008F087FC0399B7
:10358000284605F06BFA5B460498CDF800B054224B
:103590007A21FFF7B3F9C4F8CC77A4F8D067404696
:1035A000FFF7B0FB98E8070004F5FB6C8CE8070018
:1035B0000F220498ADF8F0204146CDF8EC9008F0C9
:1035C00065FC0499284605F049FA5B460598CDF854
:1035D00000B05422B021FFF791F9C4F81878A4F88C
:1035E0001C684046FFF78EFB98E8070004F6240CA1
:1035F0008CE807004FF00E0A0598CDF8EC90414694
:10360000ADF8F0A008F042FC0599284605F026FA2E
:103610005B4651460698CDF800B08A22FFF76EF956
:10362000C4F86478A4F868684046FFF76BFB98E834
:10363000070004F5076C8CE807000D220698ADF82A
:10364000F0204146CDF8EC9008F020FC0699284681
:1036500005F004FA5B460798CDF800B08A224421B1
:10366000FFF74CF9C4F8B078A4F8B4684046FFF707
:1036700049FB98E8070004F6BC0C8CE807000C2214
:103680000798ADF8F0204146CDF8EC9008F0FEFB2D
:103690000799284605F0E2F95B460898CDF800B096
:1036A0008A227A21FFF72AF9C4F8FC78A4F8006985
:1036B0004046FFF727FB98E8070004F6081C8CE853
:1036C00007000B220898ADF8F0204146CDF8EC90A9
:1036D00008F0DCFB0899284605F0C0F95B4609981C
:1036E000CDF800B08A22B021FFF708F9C4F8487974
:1036F000A4F84C694046FFF705FB98E8070004F67C
:10370000541C8CE807000A220998ADF8F0204146C5
:10371000CDF8EC9008F0BAFB0999284605F09EF91F
:103720005B4651460A98CDF800B0C022FFF7E6F894
:10373000C4F89479A4F898694046FFF7E3FA98E84A
:10374000070004F51A6C8CE8070009220A98ADF806
:10375000F0204146CDF8EC9008F098FB0A992846F5
:1037600005F07CF95B460B98CDF800B0C0224421EF
:10377000FFF7C4F8C4F8E079A4F8E4694046FFF71D
:10378000C1FA98E8070004F6EC1C8CE80700082250
:103790000B98ADF8F0204146CDF8EC9008F076FBA0
:1037A0000B99284605F05AF95B460C98CDF800B005
:1037B000C0227A21FFF7A2F8C4F82C7AA4F8306A64
:1037C0004046FFF79FFA98E8070004F6382C8CE88B
:1037D000070007220C98ADF8F0204146CDF8EC9098
:1037E00008F054FB0C99284605F038F95B460D9813
:1037F000CDF800B0C022B021FFF780F8C4F8787A85
:10380000A4F87C6A4046FFF77DFA98E8070004F6C2
:10381000842C8CE8070006220D98ADF8F020414674
:10382000CDF8EC9008F032FB0D99284605F016F91A
:103830005B4651460E98CDF800B0F622FFF75EF8D1
:10384000C4F8C47AA4F8C86A4046FFF75BFA98E85F
:10385000070004F52D6C8CE807004FF005030E9867
:10386000ADF8F0304146CDF8EC9008F00FFB0E9922
:10387000284605F0F3F85B460F98CDF800B0F62225
:103880004421FFF73BF8C4F8107BA4F8146B4046C2
:10389000FFF738FA98E8070004F61C3C8CE80700AC
:1038A00004220F98ADF8F0204146CDF8EC9008F0D6
:1038B000EDFA0F99284605F0D1F85B461098CDF83F
:1038C00000B0F6227A21FFF719F8C4F85C7BA4F85F
:1038D000606B4046FFF716FA98E8070004F6683C6C
:1038E0008CE8070003221098ADF8F0204146CDF88F
:1038F000EC9008F0CBFA1099284605F0AFF85B463B
:103900001198CDF800B0F622B021FEF7F7FFC4F809
:10391000A87BA4F8AC6B4046FFF7F4F998E80700E1
:1039200004F6B43383E8070002231198ADF8F030B1
:103930004146CDF8EC9008F0A9FA1199284605F017
:103940008DF8129829228B21FEF7CBFFC4F8F47B67
:10395000A4F8F86B4046FFF7D5F998E8070004F59E
:10396000406383E807004FF001031298ADF8F03090
:103970004146CDF8EC9008F089FA1299284605F0F6
:103980006DF813983E228B21FEF7ABFFC4F8407C04
:10399000A4F8446C4046FFF7B5F998E8070004F630
:1039A0004C4383E807001398CDF8EC904146ADF8FE
:1039B000F06008F06BFA2846139905F04FF820469E
:1039C0003FB0BDE8F08F00BF7047000030B5174D25
:1039D0002C6814F001048FB0BFF35B8F22D128460E
:1039E0001DF078FBF0B13F230993114B0893114B65
:1039F00007930123CDE9054304930423CDE9024352
:103A00000A2300930C230C490C480A941A46CDE96A
:103A10000B440194FEF7FAFE09481EF0B3FA28465B
:103A20001DF064FB05480FB030BD00BFA42300208B
:103A3000105502081C550208E8530208A82300206C
:103A4000C93900087047000030B5164D2C6814F0D5
:103A500001048FB0BFF35B8F21D128461DF03AFBE4
:103A6000E8B13F230993104B0893104B10491148BC
:103A70000A94CDE9064301220423CDE9033214233D
:103A800000930822CDE90B44CDE901440594FEF7EB
:103A9000BDFE09481EF076FA28461DF027FB0548B2
:103AA0000FB030BDD4230020145502082055020861
:103AB00090540208D8230020453A000870470000BF
:103AC00030B5164D2C6814F001048FB0BFF35B8F36
:103AD00020D128461DF0FEFAE0B13F230993104B98
:103AE0000893104B104911480A940122CDE906436E
:103AF0000423CDE9033228230093CDE90B44CDE91B
:103B000001440594FEF782FE09481EF03BFA284660
:103B10001DF0ECFA05480FB030BD00BF04240020B2
:103B200018550208245502080055020808240020F0
:103B3000BD3A000800207047002070470EB403B55E
:103B400003AB002153F8042B01930CF0BBF802B037
:103B50005DF804EB03B070470CB407B504AB53F841
:103B6000042B01930CF0AEF803B05DF804EB02B047
:103B700070470000436C10B5044673B3038F2BB934
:103B8000184B194AC52119481EF0DEF9C38E00EB07
:103B900043035B8C0BB30DF016FF238F012B03D86F
:103BA000134B144ACB21EEE7E28E531C9BB2092B38
:103BB000194688BFA3F10A0104EB410140F63F100A
:103BC000498C814209D10A2B04EB420228BF002311
:103BD00004EB4303508C588451842046BDE81040C8
:103BE0000DF0F4BD663902086F3902081A3A02086E
:103BF000643A0208723A02080DF0AFBD10B586B003
:103C000002AC84E806001A460AAB05930193099BAF
:103C100000932146089B0AF06BFB06B010BD000024
:103C200038B518BB124B13481C681349B4B122684D
:103C300022440260626822440A60A26814440F4B66
:103C400000221A8000F038F8054600F033F80C4BDB
:103C50001C600C4B1D600C4B188007E00B4B036085
:103C60000B4B0B600B4B1C68002CE8D138BD00BF20
:103C70004024002038240020342400203C2400204C
:103C80001032012018320120143201207855020828
:103C900028550208AC550208044B1B6853F8210054
:103CA000034B1B6803EB4000704700BF3424002027
:103CB0003824002014207047004870474424002016
:103CC00010B5FFF7C1FE044C2060FFF7F9FE6060FD
:103CD000FFF77CFEA06010BD4424002010B5002436
:103CE00004600C6014601C6010BD704710B54FF488
:103CF000AE7104461DF0ECF9204610BD10B5044627
:103D0000D0F8580100F013F82046BDE810400AF042
:103D1000D3BF000010B50446FEF7EEFC014B236054
:103D2000204610BDF0410208002202607047704733
:103D3000704704387047704710B5102104461DF0D5
:103D4000C7F9204610BDA0F10400F5E7002282600B
:103D5000024A026018324260C16070474442020861
:103D60007047000010B5034B03600446FEF784FD66
:103D7000204610BD6C42020810B50446FFF7F2FF62
:103D80002046F0211DF0A4F9204610BD10B50446D0
:103D9000FEF720FE014B2360204610BD6C42020856
:103DA000FEF76BBD704704387047704710B510219F
:103DB00004461DF08DF9204610BDA0F10400F5E782
:103DC00000228260024A026018324260C16070477D
:103DD000A04202087047000010B5034B0360044680
:103DE000FEF7A5FE204610BDC842020810B50446E5
:103DF000FFF7F2FF204640F66C411DF069F92046BE
:103E000010BD000010B50446FEF7B6FF014B23605D
:103E1000204610BDC8420208FEF78ABEF020704757
:103E20004FF4A07070472920FDF706BF2820FDF74A
:103E300003BF08B5FDF7D4FECA20FDF7FDFEC32081
:103E4000FDF7DEFE0820FDF7DBFE5020FDF7D8FE73
:103E5000CF20FDF7F1FE0020FDF7D2FEC120FDF7D7
:103E6000CFFE3020FDF7CCFEED20FDF7E5FE64200F
:103E7000FDF7C6FE0320FDF7C3FE1220FDF7C0FECE
:103E80008120FDF7BDFEE820FDF7D6FE8520FDF779
:103E9000B7FE0020FDF7B4FE7820FDF7B1FECB2081
:103EA000FDF7CAFE3920FDF7ABFE2C20FDF7A8FE7A
:103EB0000020FDF7A5FE3420FDF7A2FE0220FDF74D
:103EC0009FFEF720FDF7B8FE2020FDF799FEEA20BF
:103ED000FDF7B2FE0020FDF793FE0020FDF790FEF7
:103EE000B120FDF7A9FE0020FDF78AFE1B20FDF79B
:103EF00087FEB620FDF7A0FE0A20FDF781FEA22076
:103F0000FDF77EFEC020FDF797FE1020FDF778FE3E
:103F1000C120FDF791FE1020FDF772FEC520FDF7D0
:103F20008BFE4520FDF76CFE1520FDF769FEC720CE
:103F3000FDF782FE9020FDF763FE3620FDF77CFE44
:103F4000C820FDF75DFEF220FDF776FE0020FDF7AC
:103F500057FEB020FDF770FEC220FDF751FEB620DF
:103F6000FDF76AFE0A20FDF74BFEA720FDF748FE8D
:103F70002720FDF745FE0420FDF742FE2A20FDF72D
:103F80005BFE0020FDF73CFE0020FDF739FE00201F
:103F9000FDF736FEEF20FDF733FE2B20FDF74CFE3C
:103FA0000020FDF72DFE0020FDF72AFE0120FDF781
:103FB00027FE3F20FDF724FEF620FDF73DFE012001
:103FC000FDF71EFE0020FDF71BFE0620FDF718FE84
:103FD0002C20FDF731FEC820FDF77CFE2620FDF7E2
:103FE0002BFE0120FDF70CFEE020FDF725FE0F2043
:103FF000FDF706FE2920FDF703FE2420FDF700FE55
:104000000C20FDF7FDFD0E20FDF7FAFD0920FDF760
:10401000F7FD4E20FDF7F4FD7820FDF7F1FD3C2083
:10402000FDF7EEFD0920FDF7EBFD1320FDF7E8FDA0
:104030000520FDF7E5FD1720FDF7E2FD1120FDF756
:10404000DFFD0020FDF7DCFDE120FDF7F5FD0020A0
:10405000FDF7D6FD1620FDF7D3FD1B20FDF7D0FDA3
:104060000420FDF7CDFD1120FDF7CAFD0720FDF767
:10407000C7FD3120FDF7C4FD3320FDF7C1FD42200F
:10408000FDF7BEFD0520FDF7BBFD0C20FDF7B8FDDB
:104090000A20FDF7B5FD2820FDF7B2FD2F20FDF722
:1040A000AFFD0F20FDF7ACFD1120FDF7C5FDC820C9
:1040B000FDF710FE2920FDF7BFFDBDE808402C20CC
:1040C000FDF7BABD08B5FDF78BFD0321D320FDF741
:1040D000CFFD80B208BD10B5C4B202220321204634
:1040E000FDF734FD0A20FDF779FD2046002203216B
:1040F000FDF72CFDBDE810400220FDF76FBD38B57F
:104100000446E4B2FDF720FD00212046FDF736FD10
:10411000012105462046FDF731FD40EA052080B229
:1041200038BD10B5C4B240212046FDF727FD030677
:1041300007D54C212046FDF721FD003818BF01208E
:1041400010BD01224B212046FDF700FD2046002234
:104150004B21FDF7FBFC0020F2E773B50423C4B24A
:104160000E461546D7210DEB03022046FDF720FD34
:10417000019B1BBA1A0DC3F30B23328020462B8000
:1041800001224B21FDF7E2FC00224B212046FDF7E6
:10419000DDFC02B070BD000010B50A4A13789842E9
:1041A00004460DD0517888420AD00BB141B90123A1
:1041B000D454FDF7C9FC2046BDE81040FFF78BBF83
:1041C00010BD00BF5024002010B5C4B20921204604
:1041D000FDF7D4FC40F00102D2B220460921BDE82F
:1041E0001040FDF7B3BC10B5C4B209212046FDF75D
:1041F000C5FC092100F0FE022046BDE81040FDF795
:10420000A5BC38B5C4B20D4620460A21FDF7B6FC60
:1042100040EA0502D2B220460A21BDE83840FDF747
:1042200095BC10B50446FDF790FC20461F21FFF712
:10423000E8FF2046BDE81040FFF7C6BF38B5C4B25E
:104240000D4620460A21FDF799FC20EA0502D2B26C
:1042500020460A21BDE83840FDF778BC10B5044679
:10426000FFF7C1FF20461F21BDE81040FFF7E6BF62
:1042700010B5C0B20C460B21FDF780FC204010BDEC
:104280001F21FFF7F5BF0A46C0B20B21FDF75EBC48
:104290001F21FFF7F8BF38B5C4B20D4620461721DD
:1042A000FDF76CFC20EA0502D2B220461721BDE8DA
:1042B0003840FDF74BBC70B5C4B206460421204619
:1042C000FDF75CFC042100F0FB0205462046FDF7EB
:1042D0003DFC3046F021FFF7DEFF05F0F8022046F6
:1042E0000421FDF733FC492220212046FDF72EFC56
:1042F0000220FDF773FC204601222121FDF726FC58
:1043000020469A224121FDF721FC204601224A2124
:10431000FDF71CFC204601224B21FDF717FC20462F
:1043200000224B21FDF712FC204601225621FDF709
:104330000DFC204601225821FDF708FC20460122F1
:104340004021FDF703FC2046FF220B21FDF7FEFB79
:10435000BDE870400220FDF741BC0000054BD3F8DA
:10436000882042F47002C3F888204FF000629A60FF
:10437000704700BF00ED00E008B50B4B1A6842F42F
:1043800000721A601A6842F480621A601A6842F475
:1043900080721A60032000F02FF80020FDF7DCFE89
:1043A000FDF7A6FC002008BD003C0240034A044B78
:1043B00011681B780B441360704700BF5424002021
:1043C00078000020014B1868704700BF542400207B
:1043D00038B50446FFF7F6FF631C1CBF054B1B787E
:1043E000054618BFE418FFF7EDFF431BA342FAD3BD
:1043F00038BD00BF780000200749CA6822F4E06297
:104400000302120403F4E063120C134343F0BF638E
:1044100043F40033CB60704700ED00E0164B30B53D
:10442000DC68C4F30224C4F10703251D042B28BF54
:104430000423062D4FF0FF358CBF033C002405FA02
:1044400003F321EA0303A54022EA0502A340002862
:1044500043EA0203ACBF00F16040084A4FEA03138D
:10446000B8BF00F00F00DBB2AABF00F561401354E3
:1044700080F8003330BD00BF00ED00E014ED00E037
:10448000002807DB044A4109012300F01F00834094
:1044900042F82130704700BF00E100E010B504464B
:1044A00050B1437903F0FF0213B90271FDF740FCEC
:1044B00001236371002010BD0120FCE710B5044604
:1044C00020B390F8393003F0FF021BB980F8382090
:1044D000FDF746FC022384F83930236861681A68C6
:1044E00022F440320A431A605A6BA16822F0070294
:1044F0000A435A631A6CE1686FF30D020A431A64A7
:1045000000200123E06384F8393010BD0120FCE76E
:1045100070477047036870B55E681D68F20704460F
:1045200014D5E90512D51A6822F480721A60C26B9C
:1045300042F00102C26301229A60042380F83930FC
:10454000002380F83830436903B19847B20616D586
:10455000AB0414D523681A6822F400521A60202292
:104560009A60E36B43F00203E363042384F8393079
:10457000002384F8383063690BB120469847300730
:1045800016D5290514D523681A6822F400621A602A
:1045900008229A60E36B43F00403E363042384F886
:1045A0003930002384F8383063690BB120469847CE
:1045B00072070BD56B0509D523681A6822F480624F
:1045C0001A6004229A602046FFF7A2FFB00714D5B4
:1045D000A90512D523681A6822F400721A60022213
:1045E0009A60E36BE363012384F83930002384F895
:1045F000383023690BB120469847F20613D5EB04F7
:1046000011D523681A6822F480521A6010229A6029
:10461000E36BE363012384F83930002384F83830F6
:104620002046FFF776FF70BDF0B590F83820012ADC
:1046300003464FF002002BD0012283F8382083F884
:10464000390003EB0112D2E90740556A174F44EADB
:104650000040093C012C9CBF05F07F4210434FEA0B
:1046600001161A6888BF40EA056091B9516A39405D
:1046700001435162012C9969916103D8596A21F073
:104680007F4191620122002083F8392083F83800AD
:10469000F0BDD16939400143D1619919012C896973
:1046A00011619CBF25F07F451562EBE7F0FFFC0030
:1046B0002DE9F74FDFF8BC916C4A00230D68012407
:1046C0009C4004EA0506AC4340F0B7804D680327E0
:1046D00005F003044FEA430807FA08FC671E012FA0
:1046E0006FEA0C0C34D8876807EA0C0ECF6807FA1B
:1046F00008F747EA0E078760476827EA060EC5F302
:1047000000179F4047EA0E074760C76807EA0C0E8C
:104710008F6807FA08F747EA0E07022CC76019D11D
:104720004FEAD30A00EB8A0A03F0070BDAF820708D
:104730004FEA8B0B4FF00F0E0EFA0BFE27EA0E0E10
:104740000F6907FA0BF747EA0E07CAF8207001E075
:10475000032CDAD1076804FA08F407EA0C073C4393
:1047600015F4403F046068D000240194D9F8444017
:1047700044F48044C9F84440D9F8444023F0030786
:1047800007F1804704F4804407F59C37019403F057
:10479000030C019CD7F808E04FEA8C0C0F2404FAB4
:1047A0000CF42EEA040E324CA0424DD004F5806485
:1047B000A0424BD004F58064A04249D004F5806447
:1047C000A04247D004F58064A04245D004F580643F
:1047D000A04243D004F58064A04241D004F5806437
:1047E000A0423FD004F58064A0423DD004F580642F
:1047F000A04214BF0A24092404FA0CF444EA0E046B
:10480000BC609468F74315F4801F0CBF3C403443F0
:104810009460D46815F4001F0CBF3C403443D4604E
:10482000546815F4003F0CBF3C4034435460146896
:10483000ED0354BF3C40344314600133102B7FF42C
:104840003DAF03B0BDE8F08F0024D5E70124D3E7E6
:104850000224D1E70324CFE70424CDE70524CBE7E6
:104860000624C9E70724C7E70824C5E7003C014040
:1048700000000240003802400369194214BF0120C1
:10488000002070470AB1816170470904FBE7436962
:1048900001EA030221EA030141EA02418161704712
:1048A00001684B6913F480634FF0000210D06FF47D
:1048B00080634B612023026380F83D3080F83E2006
:1048C000036C80F83C2043F004030364012070472C
:1048D000184670472DE9F84606460F4691461D4694
:1048E0004FEA114A3368BAF1010F0CBF5C699C6949
:1048F00027EA0404A4B2B4FA84F46409A14501D0FF
:10490000002025E06A1CEED0FFF75CFD089BC01A72
:10491000A84201D8002DE5D13368BAF1010F0CBFD0
:104920005B699B6927EA03039BB2B3FA83F35B09D4
:104930009945D7D100232022336386F83D2086F89D
:104940003E30326C86F83C3042F020023264012066
:10495000BDE8F8862DE9F04104460F461646984614
:104960002568686927EA000080B2C0B16B695A0502
:1049700017D52B6843F400732B606FF480636B6171
:1049800020220023236384F83D2084F83E30236CEA
:1049900043F004032364002384F83C300120BDE885
:1049A000F081731CDDD0FFF70DFDA0EB0800B042D5
:1049B00001D8002ED4D123685A6927EA020292B2A4
:1049C000002ACDD000232022236384F83D2084F8E0
:1049D0003E30236C1343DDE770B504460D461646A2
:1049E00023685B691B0601D500201EE02046FFF707
:1049F00057FFC8B96A1CF3D0FFF7E4FC801BA8423C
:104A000001D8002DECD123685B6913F08003E7D156
:104A10002022236384F83D2084F83E30226C84F801
:104A20003C3042F020022264012070BD2DE9F043A9
:104A30001546026885B0DDE90C789946136843F4A1
:104A4000807313600E463B46CDF8008000224FF085
:104A500001110446FFF73EFF236838B11B68DB05F0
:104A600002D54FF400732364032620E006F0FE060F
:104A70001E611A4943463A462046FFF76BFFA8B924
:104A8000236803905A6903929B690393424639460F
:104A90002046039BFFF7A0FF064660B1236C042B62
:104AA00001BF2268136843F4007313600126304687
:104AB00005B0BDE8F083B9F1010F236802D1EDB272
:104AC0001D61F4E72A0A1A61394642462046FFF77B
:104AD00083FF0028E2D12368F1E700BF0200010054
:104AE0002DE9FF479A46036815461A6842F480622A
:104AF0001A601A68DDE90C7842F480721A600E467A
:104B00003B46CDF8008000224FF001110446FFF72C
:104B1000E1FE236838B11B68DB0544BF4FF4007326
:104B20002364032021E05FFA86F906F0FE061E6189
:104B30002B4943463A462046FFF70CFFA0B92368AD
:104B400003905A6903929B69039342463946204673
:104B5000039BFFF741FF58B1236C042B01BF226870
:104B6000136843F400731360012004B0BDE8F087BC
:104B7000BAF1010F23681AD1EDB242461D613946E0
:104B80002046FFF729FF02460028E5D121680B687F
:104B900043F480730B602046CDF800803B464FF015
:104BA0000111FFF797FE226860B11368B4E72A0A83
:104BB0001A61394642462046FFF70EFF0028CBD146
:104BC0002368D9E749F001031361054943463A4692
:104BD0002046FFF7BFFE003818BF0120C5E700BF21
:104BE0000200010070B504460D46164623685B6955
:104BF0005B0701D500201EE02046FFF751FEC8B933
:104C00006A1CF3D0FFF7DEFB801BA84201D8002D01
:104C1000ECD123685B6913F00403E7D120222363FE
:104C200084F83D2084F83E30226C84F83C3042F019
:104C300020022264012070BD70B504460D46164660
:104C400021684B6913F0400301D0002011E04A694C
:104C5000D2060FD56FF010024A612022236384F838
:104C60003D2084F83E30236C2364002384F83C30DC
:104C7000012070BDFFF7A6FB801BA84201D8002DC4
:104C8000DED123685B6913F04003D9D1202223636E
:104C900084F83D2084F83E30236C1343E4E70000A1
:104CA00070B5044608B9012070BD90F83D3003F09E
:104CB000FF021BB980F83C20FDF774F8242384F828
:104CC0003D3023681A6822F001021A601A6842F423
:104CD00000421A601A6822F400421A6000F0A8FE2E
:104CE0003F4B65689D4294BF3E4B3F4B98428CBF03
:104CF00000230123002BD6D12268394E51683B4B4B
:104D0000B0FBF3F321F03F011943B542516088BF76
:104D10004FF49676116A88BF734321F03F0184BF38
:104D20004FF47A76B3FBF6F301330B431362D16988
:104D3000431E2B4821F44F41854221F0FF0132D818
:104D40006D0040F6FC70B3FBF5F30133034242D033
:104D5000C3F30B031943D161D4E90730116803434E
:104D600021F0C0010B4313609168D4E9030321F4DF
:104D70000341034321F0FF010B439360D4E9053065
:104D8000D168034321F0FF010B43D360136843F064
:104D90000103136000202023206484F83D30206349
:104DA00084F83E0080E7A06850B905EB4505B3FBE9
:104DB000F5F30133C3F30B037BB143F40043C9E7BD
:104DC00019206843B3FBF0F30133C3F30B0323B1A2
:104DD00043F44043BEE70423BCE70123BAE700BF26
:104DE000A08601007F841E00FF083D0040420F00A6
:104DF0002DE9F743044699460C9E0F469046FFF76F
:104E0000E1FA94F83D30202B054603D0022003B090
:104E1000BDE8F08300903C49192301222046FFF7AA
:104E200059FD0028F2D194F83C30012BEED02068D7
:104E3000012384F83C300368D9075EBF036843F060
:104E400001030360036823F400630360212384F8F3
:104E50003D30402384F83E30002323640A9B636284
:104E6000BDF82C306385638D2385284BE362424671
:104E7000CDE900654B4639462046FFF7D7FD0028AF
:104E80002AD00120C3E7FFF7A7FD40B1236C042B14
:104E900001BF2268136843F400731360F1E7636A8B
:104EA00027681A4612F8011B39616262628D218DF2
:104EB000013A92B262857A69481E80B25207208513
:104EC0000AD548B15A783A6102336362638D013B77
:104ED00002399BB221856385238D2A4631462046BF
:104EE000002BD0D1FFF77EFE0028CFD122681368B7
:104EF00043F400731360202384F83D3084F83C00B1
:104F000084F83E0083E700BF020010000000FFFFAE
:104F10002DE9F043044687B09946109F0D46904610
:104F2000FFF750FA94F83D30202B064604D00225B6
:104F3000284607B0BDE8F08300907A491923012282
:104F40002046FFF7C7FC0028F1D194F83C30012B34
:104F5000EDD02068012384F83C300368DB075EBF96
:104F6000036843F001030360036823F400630360F4
:104F7000222384F83D30402384F83E30002323640C
:104F80000E9B6362BDF83C306385638D2385664B61
:104F9000E3622946CDE900764B4642462046FFF7BC
:104FA0009FFD054608B10125C2E7228D2368B2B9ED
:104FB00002905A6902929A690292029A1A6842F41D
:104FC00000721A60DFF86481238D002B2CD120221F
:104FD00084F83D2084F83C3084F83E30A8E7012A6C
:104FE0000AD11A6822F480621A6003905A69039207
:104FF0009A690392039AE1E7022A0ED11A6822F411
:1050000080621A601A6842F400621A6004905A6959
:1050100004929B690493049BD4E705905A69059216
:105020009B690593059BCDE7032B56D8012B15D122
:10503000324639462046FFF7FFFD0028B3D12368EA
:105040001A69636A1A70636A01336362238D013BD4
:105050002385638D013B9BB26385B5E7022B0096E8
:105060003B464FF000024146204619D1FFF732FC83
:10507000002898D123681A6842F400721A601A69ED
:10508000636A1A70626A531C6362238D013B238535
:10509000638D013B9BB2638523681B695370D2E724
:1050A000FFF718FC024600287FF47DAF23681968DB
:1050B00021F4806119601969636A1970636A0133A8
:1050C0006362238D013B2385638D013B9BB2638526
:1050D000414600963B462046C8E7324639462046C0
:1050E000FFF7AAFD00287FF45EAF23681A69636AA0
:1050F0001A70628D616A013A92B24B1C6285226815
:105100006362238D5069013B9BB2400723857FF585
:105110005BAF032B02BF136823F480631360136932
:105120004B7090E7020010000000FFFF0400010038
:1051300010B590F83D30202BDCB216D1242380F836
:105140003D3003681A6822F001021A605A6A22F0A0
:1051500010025A625A6A114359621A6842F00102F7
:105160001A6080F83D40002010BD0220FCE730B5F9
:1051700090F83D30202BDCB216D10268242380F851
:105180003D30136823F001031360556A4FF6F07346
:105190002B400B439BB25362136843F0010313602F
:1051A00080F83D40002030BD0220FCE70068D1F8C7
:1051B00000C0D201843283182DE9F043C6685D68CF
:1051C0004C68D1F8189005F470455D60C5680CF125
:1051D0000107C5F30B45C6F30B4626443D4445EA9B
:1051E00006455D60C668CD68C6F30A062E449D6814
:1051F00005F470459D60C7688D68C7F30A070135DF
:105200003D4445EA06459D601D690E6925F0070588
:105210001D614FF0000E1E6191F832709D6991F88A
:105220003180C3F818E091F8305045EA096545EA45
:10523000082545EA07459D615D6925F0FF055D612B
:105240004D695D61DD6925F4E06525F00705DD61E7
:10525000D1E907573D43DD619D6A4D6AC3F828E0F7
:10526000072E9D629CBF0E4DAE5DDD6A05F0E02508
:10527000DD6288BF01268D6AC96AA4EB0C04744301
:105280007543033444EA0544DC621C6B6FF30A0483
:105290001C631963835843F001038350BDE8F08316
:1052A0000C43020838B50446002863D090F8A130BA
:1052B00003F0FF021BB980F8A020FCF7CFFD02230A
:1052C00084F8A13023689A6922F070429A61D4E987
:1052D00001200243E06899690243206902430A43BE
:1052E0009A619A68244960690A409A609A6842EA19
:1052F0000042A06902439A60DA68E0690A40DA6015
:10530000DA6842EA0042206A0243DA601A69606A97
:105310000A401A611A6942EA0042A06A02431A610D
:105320005A690A405A615A69E16A42EA0142216BAC
:105330000A435A61DA6A94F8350094F8361002F09C
:105340007F42DA62DD6A94F834202A4342EA00227E
:1053500042EA0142DA625A6B42F006025A639A69E3
:1053600042F001029A6100200123C4F8A40084F8ED
:10537000A13038BD0120FCE700F800F0704770470D
:10538000036870B59E6B5D6B7207044614D56907A0
:1053900012D55A6B22F004025A630422DA63D0F861
:1053A000A43043F00103C0F8A430002380F8A1200A
:1053B00080F8A030FFF7E2FFB20716D5AB0714D58F
:1053C00023685A6B22F002025A630222DA63D4F88D
:1053D000A4301343C4F8A430042384F8A13000237C
:1053E00084F8A0302046FFF7C9FFF00710D5E90781
:1053F0000ED523685A6B22F001025A630122DA6348
:10540000002384F8A12084F8A0302046FCF704F99A
:10541000320711D52B070FD523685A6B22F00802EB
:105420005A630822DA63012384F8A130002384F848
:10543000A0302046FFF7A3FF70BD2DE9F04190F8A2
:10544000A030012B06460F4694464FF002001FD0B5
:105450004FF0010886F8A08086F8A10034240D469C
:1054600004FB02640FCD38340FC40FCD0FC40FCD31
:105470000FC42B682360304662463946FFF796FE1C
:1054800033680020C3F8248086F8A18086F8A00045
:10549000BDE8F08190F8A020012A03464FF00200F9
:1054A00012D01A6883F8A100506B20F001005063FD
:1054B00006480164516B41F0010151630020012253
:1054C00083F8A12083F8A000704700BF0068014066
:1054D00037B500230193184B184D1A6C42F08052D7
:1054E0001A641B6C03F080530193019B144B01223F
:1054F0001A64FEF767FF04466B68DA030BD5104B9E
:105500000E4D01225A64FEF75DFF04466B689B0353
:105510000AD5002006E0FEF755FF001BB0F57A7FA4
:10552000EAD9032003B030BDFEF74CFF001BB0F5F5
:105530007A7FEBD9F5E700BF0038024000700040E9
:1055400000000E422DE9F341044640B30368DE0734
:1055500010D423689D075BD42368190700F19D8050
:1055600023685A0700F1BD80A369002B40F0248115
:1055700000202CE08D4B9A6802F00C02042A07D020
:105580009A6802F00C02082A0BD15B68590208D510
:10559000864B1B689A03DCD56368002BD9D10120A8
:1055A00015E06368814DB3F5803F13D12B6843F458
:1055B00080332B60FEF706FF7C4E054633689B0365
:1055C000C7D4FEF7FFFE401B6428F7D9032002B0C2
:1055D000BDE8F081B3F5A02F04D12B6843F48023FC
:1055E0002B60E3E72A6822F480322A602A6822F4DA
:1055F00080222A60002BDDD1FEF7E4FE06462B68F0
:105600009F03A6D5FEF7DEFE801B6428F7D9DDE7F1
:10561000664B9A6812F00C0F07D09A6802F00C02E1
:10562000082A11D15B685D020ED4604A136899079D
:1056300002D5E368012BB2D11368216923F0F80386
:1056400043EAC103136087E7E268594BB2B1012214
:105650001A60FEF7B7FE554D06462B689B0707D527
:105660002B68226923F0F80343EAC2032B6073E737
:10567000FEF7A8FE801B0228EFD9A7E71A60FEF705
:10568000A1FE4A4E054633689F077FF565AFFEF7DA
:1056900099FE401B0228F6D998E76269444B82B113
:1056A0000122C3F8802EFEF78DFE404E0546736F33
:1056B0009B073FF555AFFEF785FE401B0228F6D944
:1056C00084E7C3F8802EFEF77DFE384E0546736FE3
:1056D0009F077FF545AFFEF775FE401B0228F6D900
:1056E00074E7324B1A6C12F0805228D101921A6C76
:1056F00042F080521A641B6C03F080530193019BAB
:1057000001272C4D2B68D8051BD5A368274D012BED
:1057100027D12B6F43F001032B67FEF753FE234E77
:10572000054641F28838336F9A0739D5002F3FF488
:105730001BAF1E4A136C23F08053136414E7002739
:10574000DFE72B6843F480732B60FEF73BFE0646D1
:105750002B68D905D9D4FEF735FE801B0228F7D96E
:1057600034E7052B04D12B6F43F004032B67D0E7FC
:105770002A6F22F001022A672A6F22F004022A67A8
:10578000002BCAD1FEF71EFE41F2883806462B6F69
:105790009B07CBD5FEF716FE801B4045F7D915E7D2
:1057A000FEF710FE401B4045BDD90FE70038024010
:1057B0000000474200700040374DAA6802F00C021A
:1057C000082A3ED0022B354B4FF000021A662BD12F
:1057D000FEF7F8FD06462B6899011FD4D4E907327D
:1057E0001343626A43EA8213E26A43EA0263A26AEB
:1057F0005208013A43EA02436B60284B264D0122CE
:105800001A66FEF7DFFD04462B689A013FF5B0AE3D
:10581000FEF7D8FD001B0228F6D9D7E6FEF7D2FD29
:10582000801B0228D7D9D1E6FEF7CCFD04462B68B1
:105830009B017FF59DAEFEF7C5FD001B0228F6D942
:10584000C4E6012B3FF4ABAE6B68E26903F4800160
:1058500091427FF4A4AE216A03F03F028A427FF4B2
:105860009EAE616A47F6C0721A40B2EB811F7FF4A8
:1058700096AEA26A520803F44031013AB1EB024FEE
:105880007FF48DAEE26A03F07063B3EB026F14BF76
:10589000012000209BE600BF003802400000474284
:1058A000134908B58B6803F00C03042B1CD0082B9C
:1058B0001CD14A684B68496813F4800314BF0D4833
:1058C0000D48C1F3881118BF002302F03F02A1FB6D
:1058D0000001FAF72DFD064B5B68C3F3014301336A
:1058E0005B00B0FBF3F008BD0248FCE70248FAE7B2
:1058F0000038024000127A000024F4002DE9F04143
:105900000D46044610B90120BDE8F081434B1A68EA
:1059100002F00F028A4228D321688F072DD4C807CE
:1059200040D43E4B1A6802F00F02AA4265D82268A2
:1059300051076BD4130707D5394A2169936823F4BB
:10594000604343EAC1039360FFF7AAFF344B354A33
:105950009B68C3F30313D35CD840334B1860334BBD
:105960001868FCF7F9FB0020CEE7CAB21A701B6872
:1059700003F00F038B42C6D1CEE7294B11F0040F81
:105980001EBF9A6842F4E0529A600E0742BF9A68BE
:1059900042F460429A609A68A06822F0F0020243E2
:1059A0009A60BCE762681E4B012A1CD11B6813F485
:1059B000003FA8D01A4EB36823F003031343B3602B
:1059C000FEF700FD41F288380746B368626803F0CD
:1059D0000C03B3EB820FA4D0FEF7F4FCC01B4045D0
:1059E000F3D9032090E7911E01291B6802D813F018
:1059F000007FDEE713F0020FDBE7EAB21A701B68E4
:105A000003F00F03AB427FF47EAF90E70449E068F8
:105A10008B6823F4E05303438B608BE7003C024028
:105A200000380240FC420208740000207C00002084
:105A3000044B054A9B68C3F38223D35C034A106876
:105A4000D840704700380240F44202087400002039
:105A50000F2303600B4B9A6802F0030242609A68BE
:105A600002F0F00282609A6802F4E052C2609B6821
:105A7000DB0803F4E0530361034B1B6803F00F03DF
:105A80000B60704700380240003C0240036813F08E
:105A9000430FF7B5044640F08880236813F00C0FDD
:105AA00045D08C4B8C4D00221A67FEF78BFC0646C6
:105AB0002B68990000F1CB8021684A0715D5D4E9FD
:105AC0000403D5F888201B0602F0E04243EA801365
:105AD0001343C5F88830D5F88C30226A23F4F85384
