:020000040800F2
:1000000000000320E9B100086B4E00086D4E0008A7
:100010006F4E0008714E0008734E0008000000008B
:10002000000000000000000000000000F1A900082E
:10003000754E00080000000081AA000889A300088E
:1000400039B2000839B2000839B2000839B20008E4
:1000500039B2000839B2000839B2000839B20008D4
:1000600039B2000839B2000839B2000839B20008C4
:1000700039B2000839B2000839B2000839B20008B4
:1000800039B2000839B2000839B2000839B20008A4
:1000900039B2000839B2000839B2000839B2000894
:1000A00039B2000839B2000839B2000839B2000884
:1000B00039B2000839B2000839B2000839B2000874
:1000C00039B2000839B2000839B2000839B2000864
:1000D00039B2000839B2000839B2000839B2000854
:1000E00039B2000839B2000839B2000839B2000844
:1000F00039B2000839B2000839B2000839B2000834
:1001000039B2000839B2000839B2000839B2000823
:1001100039B2000839B20008794E000839B2000837
:1001200039B2000839B2000839B2000839B2000803
:1001300039B2000839B2000839B2000839B20008F3
:1001400039B2000839B2000839B2000839B20008E3
:1001500039B2000839B2000839B2000839B20008D3
:1001600039B2000839B2000839B2000839B20008C3
:1001700039B2000839B2000839B2000800000000A6
:1001800039B2000839B2000839B2000839B20008A3
:1001900039B2000839B2000839B2000839B2000893
:0C01A000854E000839B20008914E00089E
:1001B00010B5054C237833B9044B13B10448AFF3A1
:1001C00000800123237010BD800300200000000088
:1001D0007464020808B5034B1BB103490348AFF32D
:1001E000008008BD00000000840300207464020841
:1001F00081F0004102E000BF83F0004330B54FEAD8
:1002000041044FEA430594EA050F08BF90EA020F44
:100210001FBF54EA000C55EA020C7FEA645C7FEAD7
:10022000655C00F0E2804FEA5454D4EB5555B8BFFA
:100230006D420CDD2C4480EA020281EA030382EA6B
:10024000000083EA010180EA020281EA0303362DFD
:1002500088BF30BD11F0004F4FEA01314FF4801CD0
:100260004CEA113102D0404261EB410113F0004FE2
:100270004FEA03334CEA133302D0524263EB430399
:1002800094EA050F00F0A780A4F10104D5F1200E37
:100290000DDB02FA0EFC22FA05F2801841F1000192
:1002A00003FA0EF2801843FA05F359410EE0A5F166
:1002B00020050EF1200E012A03FA0EFC28BF4CF097
:1002C000020C43FA05F3C01851EBE37101F000454D
:1002D00007D54FF0000EDCF1000C7EEB00006EEB5A
:1002E0000101B1F5801F1BD3B1F5001F0CD34908E4
:1002F0005FEA30004FEA3C0C04F101044FEA44523B
:1003000012F5800F80F09A80BCF1004F08BF5FEAC1
:10031000500C50F1000041EB045141EA050130BDA1
:100320005FEA4C0C404141EB010111F4801FA4F144
:100330000104E9D191F0000F04BF01460020B1FA99
:1003400081F308BF2033A3F10B03B3F120020CDAD1
:100350000C3208DD02F1140CC2F10C0201FA0CF0AF
:1003600021FA02F10CE002F11402D8BFC2F1200C14
:1003700001FA02F120FA0CFCDCBF41EA0C019040CA
:10038000E41AA2BF01EB0451294330BD6FEA040413
:100390001F3C1CDA0C340EDC04F11404C4F12002FE
:1003A00020FA04F001FA02F340EA030021FA04F310
:1003B00045EA030130BDC4F10C04C4F1200220FA67
:1003C00002F001FA04F340EA0300294630BD21FAA5
:1003D00004F0294630BD94F0000F83F4801306BF6B
:1003E00081F480110134013D4EE77FEA645C18BF5F
:1003F0007FEA655C29D094EA050F08BF90EA020FF6
:1004000005D054EA000C04BF1946104630BD91EAED
:10041000030F1EBF0021002030BD5FEA545C05D1F0
:100420004000494128BF41F0004130BD14F580042F
:100430003CBF01F5801130BD01F0004545F0FE41A3
:1004400041F470014FF0000030BD7FEA645C1ABFD8
:10045000194610467FEA655C1CBF0B46024650EA0F
:10046000013406BF52EA033591EA030F41F400213B
:1004700030BD00BF90F0000F04BF0021704730B5C1
:100480004FF4806404F132044FF000054FF0000196
:1004900050E700BF90F0000F04BF0021704730B557
:1004A0004FF4806404F1320410F0004548BF40422C
:1004B0004FF000013EE700BF42004FEAE2014FEA81
:1004C00031014FEA02701FBF12F07F4393F07F4F5C
:1004D00081F06051704732F07F4208BF704793F05F
:1004E0007F4F04BF41F40021704730B54FF4607472
:1004F00001F0004521F000411CE700BF50EA010275
:1005000008BF704730B54FF000050AE050EA01021D
:1005100008BF704730B511F0004502D5404261EB8D
:1005200041014FF4806404F132045FEA915C3FF4CE
:10053000D8AE4FF003025FEADC0C18BF03325FEA6B
:10054000DC0C18BF033202EBDC02C2F1200300FA1C
:1005500003FC20FA02F001FA03FE40EA0E0021FA41
:1005600002F11444BDE600BF70B54FF0FF0C4CF42F
:10057000E06C1CEA11541DBF1CEA135594EA0C0FE1
:1005800095EA0C0F00F0DEF82C4481EA030621EA1C
:100590004C5123EA4C5350EA013518BF52EA033557
:1005A00041F4801143F4801338D0A0FB02CE4FF009
:1005B0000005E1FB02E506F00042E0FB03E54FF039
:1005C0000006E1FB03569CF0000F18BF4EF0010E31
:1005D000A4F1FF04B6F5007F64F5407404D25FEA2D
:1005E0004E0E6D4146EB060642EAC62141EA5551E0
:1005F0004FEAC52040EA5E504FEACE2EB4F1FD0C22
:1006000088BFBCF5E06F1ED8BEF1004F08BF5FEA9F
:10061000500E50F1000041EB045170BD06F0004651
:1006200046EA010140EA020081EA0301B4EB5C04FE
:10063000C2BFD4EB0C0541EA045170BD41F48011F6
:100640004FF0000E013C00F3AB8014F1360FDEBF1B
:10065000002001F0004170BDC4F10004203C35DAF7
:100660000C341BDC04F11404C4F1200500FA05F37A
:1006700020FA04F001FA05F240EA020001F000421B
:1006800021F0004110EBD37021FA04F642EB060191
:100690005EEA430E08BF20EAD37070BDC4F10C04BB
:1006A000C4F1200500FA04F320FA05F001FA04F27F
:1006B00040EA020001F0004110EBD37041F100016B
:1006C0005EEA430E08BF20EAD37070BDC4F1200576
:1006D00000FA05F24EEA020E20FA04F301FA05F2DE
:1006E00043EA020321FA04F001F0004121FA04F286
:1006F00020EA020000EBD3705EEA430E08BF20EA56
:10070000D37070BD94F0000F0FD101F0004640008F
:1007100041EB010111F4801F08BF013CF7D041EA11
:10072000060195F0000F18BF704703F00046520015
:1007300043EB030313F4801F08BF013DF7D043EAE6
:100740000603704794EA0C0F0CEA135518BF95EA9C
:100750000C0F0CD050EA410618BF52EA4306D1D123
:1007600081EA030101F000414FF0000070BD50EA42
:10077000410606BF1046194652EA430619D094EACC
:100780000C0F02D150EA013613D195EA0C0F05D1B6
:1007900052EA03361CBF104619460AD181EA03010A
:1007A00001F0004141F0FE4141F470014FF00000C2
:1007B00070BD41F0FE4141F4780170BD70B54FF05D
:1007C000FF0C4CF4E06C1CEA11541DBF1CEA1355DD
:1007D00094EA0C0F95EA0C0F00F0A7F8A4EB0504BF
:1007E00081EA030E52EA03354FEA013100F08880B6
:1007F0004FEA03334FF0805545EA131343EA12637F
:100800004FEA022245EA111545EA10654FEA002633
:100810000EF000419D4208BF964244F1FD0404F5EC
:10082000407402D25B084FEA3202B61A65EB030548
:100830005B084FEA32024FF480104FF4002CB6EB05
:10084000020E75EB030E22BFB61A754640EA0C0085
:100850005B084FEA3202B6EB020E75EB030E22BFC5
:10086000B61A754640EA5C005B084FEA3202B6EB06
:10087000020E75EB030E22BFB61A754640EA9C00C5
:100880005B084FEA3202B6EB020E75EB030E22BF95
:10089000B61A754640EADC0055EA060E18D04FEA53
:1008A000051545EA16754FEA06164FEAC30343EAF3
:1008B00052734FEAC2025FEA1C1CC0D111F4801FC0
:1008C0000BD141EA00014FF000004FF0004CB6E7B9
:1008D00011F4801F04BF01430020B4F1FD0C88BF58
:1008E000BCF5E06F3FF6AFAEB5EB030C04BFB6EB63
:1008F000020C5FEA500C50F1000041EB045170BD56
:100900000EF0004E4EEA113114EB5C04C2BFD4EB82
:100910000C0541EA045170BD41F480114FF0000E06
:10092000013C90E645EA060E8DE60CEA135594EA82
:100930000C0F08BF95EA0C0F3FF43BAF94EA0C0F85
:100940000AD150EA01347FF434AF95EA0C0F7FF4FA
:1009500025AF104619462CE795EA0C0F06D152EA4E
:1009600003353FF4FDAE1046194622E750EA410632
:1009700018BF52EA43067FF4C5AE50EA41047FF443
:100980000DAF52EA43057FF4EBAE12E74FEA4102A6
:10099000B2F1E04324BFB3F5001CDCF1FE5C0DD9DD
:1009A00001F0004C4FEAC0024CEA5070B2F1004F27
:1009B00040EB830008BF20F00100704711F0804F2A
:1009C00021D113F13872BCBF01F00040704741F4EF
:1009D00080114FEA5252C2F11802C2F1200C10FAF3
:1009E0000CF320FA02F018BF40F001004FEAC123D7
:1009F0004FEAD32303FA0CFC40EA0C0023FA02F37B
:100A00004FEA4303CCE77FEA625307D150EA013350
:100A10001EBF4FF0FE4040F44000704701F0004020
:100A200040F0FE4040F40000704700BF7BB972B94F
:100A30000029BEBF00204FF0004106E008BF00289B
:100A40001CBF6FF000414FF0FF3000F0BDB9ADF1B9
:100A5000080C6DE904CE002909DB002B1ADB00F03D
:100A60004DF8DDF804E0DDE9022304B070474042B0
:100A700061EB4101002B1BDB00F040F8DDF804E0E6
:100A8000DDE9022304B0404261EB4101524263EBD5
:100A900043037047524263EB430300F02FF8DDF845
:100AA00004E0DDE9022304B0404261EB41017047FC
:100AB000524263EB430300F021F8DDF804E0DDE986
:100AC000022304B0524263EB4303704753B94AB95F
:100AD000002908BF00281CBF4FF0FF314FF0FF3046
:100AE00000F072B9ADF1080C6DE904CE00F006F823
:100AF000DDF804E0DDE9022304B070472DE9F0479A
:100B0000089E04468846002B4BD18A42154667D979
:100B1000B2FA82F24AB1C2F1200701FA02F320FAD6
:100B200007F7954047EA030894404FEA154E230C17
:100B3000B8FBFEF71FFA85FC0EFB178843EA084353
:100B400007FB0CF1994209D9EB1807F1FF3080F04F
:100B50001B81994240F21881023F2B445B1AA4B2D8
:100B6000B3FBFEF00EFB103344EA034400FB0CFC25
:100B7000A44509D92C1900F1FF3380F00781A44561
:100B800040F2048102382C4440EA0740A4EB0C04F4
:100B900000271EB1D4400023C6E900433946BDE812
:100BA000F0878B4209D9002E00F0EB800027C6E9C0
:100BB000000138463946BDE8F087B3FA83F7002FC5
:100BC00047D18B4202D3824200F2FA80841A61EB51
:100BD000030301209846002EE0D0C6E90048DDE777
:100BE00002B9FFDEB2FA82F2002A40F08F80491B80
:100BF0004FEA154E1FFA85F80127B1FBFEFC230CC6
:100C00000EFB1C1143EA014308FB0CF1994207D982
:100C1000EB180CF1FF3002D2994200F2CD808446ED
:100C2000591AA3B2B1FBFEF00EFB101443EA0444C0
:100C300008FB00F8A04507D92C1900F1FF3302D2B8
:100C4000A04500F2B6801846A4EB080440EA0C4028
:100C50009FE7C7F1200CBB4022FA0CFE4EEA030EC0
:100C600001FA07F420FA0CF521FA0CF34FEA1E48BA
:100C70002543B3FBF8F92C0C08FB19331FFA8EFA45
:100C800044EA034309FB0AF49C4202FA07F200FA21
:100C900007F10BD91EEB030309F1FF3080F08780C9
:100CA0009C4240F28480A9F1020973441B1BADB23F
:100CB000B3FBF8F008FB103345EA034400FB0AFAE3
:100CC000A24508D91EEB040400F1FF336BD2A24504
:100CD00069D90238744440EA0940A0FB0289A4EBB8
:100CE0000A044C45C2464B4654D351D0002E69D01D
:100CF000B1EB0A0564EB030404FA0CFCFD40FC4074
:100D00004CEA0505C6E90054002747E7C2F1200375
:100D100020FA03F7954001FA02F021FA03F34FEAB3
:100D2000154E3843010CB3FBFEF71FFA85F80EFB96
:100D3000173341EA034107FB08F38B4204FA02F43C
:100D400007D9691807F1FF3C2FD28B422DD9023FFA
:100D50002944CB1A81B2B3FBFEF00EFB103341EAFB
:100D6000034100FB08F38B4207D9691800F1FF3CEF
:100D700017D28B4215D902382944C91A40EA0747CD
:100D80003BE73746304609E70746E7E61846FBE605
:100D90004145ABD2B8EB020A69EB0E0201381346AB
:100DA000A4E76046E9E7184695E76746D1E781463C
:100DB0007CE702382C4447E7ACF1020C2B442FE7C8
:100DC000384608E73746E9E6704700BF034613F8A0
:100DD000012B002AFBD1181A0138704700000000CF
:100DE00001F0FF01102A2BDB10F0070F08D010F8DC
:100DF000013B013A8B422DD010F0070F42B3F6D1E0
:100E0000F0B441EA012141EA014122F007047FF0F8
:100E100000070023F0E80256083C85EA010586EA4F
:100E2000010685FA47F5A3FA87F586FA47F6A5FA8B
:100E300087F68EB9EED1F0BC01F0FF0102F0070297
:100E400032B110F8013B013A83EA010313B1F8D142
:100E50000020704701387047002D06BF3546033823
:100E6000073815F0010F07D1013015F4807F02BF5C
:100E7000013015F4C03F0130F0BC0138704700BFAD
:100E8000704770477047000010B5034B036004467D
:100E900000F05FFD204610BDEC64020810B504466A
:100EA000FFF7F2FF204640F6B46123F0B9F8204680
:100EB00010BD000010B5044600F0EAFE064B2360AA
:100EC0004022002104F6885024F0B1F90023C4F830
:100ED000C83D204610BD00BFEC64020840282AD05F
:100EE0000EDC082823D005DC02281CD004281CD0E6
:100EF0001548704710281CD02028F9D11348704796
:100F0000B0F5007F1BD006DC802816D0B0F5807FBE
:100F1000EED10F487047B0F5806F12D0B0F5006F7A
:100F2000E6D10C4870470C4870470C4870470C4895
:100F300070470C4870470C4870470C4870470C4885
:100F400070470C48704700BFB4C1CDFF5F7CF6FF0F
:100F500061CCEDFF2EC2EDFFDAE4EEFFC8E0EDFF5D
:100F600079B1F2FF6395F5FF3B5EF6FF72CFEDFFBF
:100F700050C8EDFF3FC5EDFF10B586B004F0A8FBEB
:100F80000023019302240B220123694601A8059442
:100F9000CDE9032305F01AFF18B104F0ABFB06B04E
:100FA00010BD044B04491A682046D31704F0D6FB41
:100FB000F3E700BFC03E012000000F08034B1A6892
:100FC000531C034B08BF00221A60704700000F0833
:100FD000C03E012070B50023A0B0044600F6845145
:100FE0001D460846002250F8046F2EB920AE06EBCD
:100FF000C50646E9203201350132042AF3D1013316
:10100000042B01F11001ECD10DB307F0C7FB20AAAE
:10101000B0FBF5F305FB130302EBC30353E9201206
:1010200002EB0215C1EB41132B440A25584002EB99
:101030008102B0FBF5F0B0FBF5F305FB13000028CF
:1010400002F262320CBF0423022344F8223020B0A3
:1010500070BD00002DE9F041234D00262F68344675
:10106000B446002204EB820100EB8101531C884648
:10107000D8F898EDBEF1000F2FD0D1F8888DB8F1D7
:10108000000F12D104EB830303F26233C1F888ED41
:1010900040F82380013A0132032AE3D10134042CC1
:1010A000DFD106B12F60BDE8F081C645F3D104EB76
:1010B000830303F262334FEA4E0EC1F888ED40F825
:1010C00023C0D0F8C83DD1F8881D0B44BB42C0F8FE
:1010D000C83DE0DD1F460126DDE70133042B08F1A2
:1010E0001008C5D1D7E700BFC03E01202DE9F0416F
:1010F000234D00262F683446B446032204EB8201B8
:1011000000EB8101531E8846D8F878EDBEF1000F40
:101110002ED0D1F8888DB8F1000F11D104EB8303E4
:1011200003F26233C1F888ED40F823800132013ABE
:10113000E4D10134042CE0D106B12F60BDE8F08188
:10114000C645F4D104EB830303F262334FEA4E0E3B
:10115000C1F888ED40F823C0D0F8C83DD1F8881D0B
:101160000B44BB42C0F8C83DE1DD1F460126DEE767
:10117000013BB3F1FF3FA8F11008C5D1D7E700BF8D
:10118000C03E01202DE9F04F284D00212F688E46EA
:101190000E468846002201F263394FEA860C09EBBD
:1011A000020400EB8404531C043C54F804AFBAF16D
:1011B000000F36D00CEB020400EB8404D4F888BD99
:1011C000BBF1000F15D1634403F26233C4F888AD5C
:1011D00040F823B0013A0132032AE0D10136042E4F
:1011E00001F10401D6D1BEF1000F00D02F60BDE89F
:1011F000F08FDA45EFD1634403F262334FEA4A0AD3
:10120000C4F888AD40F82380D0F8C83DD4F8884DA4
:101210002344BB42C0F8C83DDDDD1F464FF0010E40
:10122000D9E70133042BC0D1D5E700BFC03E012070
:101230002DE9F04F274D00212F688E460E46884637
:10124000032201F261394FEA860C09EB020400EB3C
:101250008404531E043454F804ADBAF1000F35D0A1
:101260000CEB020400EB8404D4F888BDBBF1000F42
:1012700014D1634403F26233C4F888AD40F823B05C
:101280000132013AE1D10136042E01F10401D7D136
:10129000BEF1000F00D02F60BDE8F08FDA45F0D12D
:1012A000634403F262334FEA4A0AC4F888AD40F857
:1012B0002380D0F8C83DD4F8884D2344BB42C0F801
:1012C000C83DDEDD1F464FF0010EDAE713F1FF33B4
:1012D000C1D2D6E7C03E012070B500F6945200F6A8
:1012E000D454A2F1100151F8043F33B39142FAD122
:1012F00001F11002A242F4D100F6885400222346E4
:101300000021032A03D01E681D69AE4213D00329B1
:1013100003D0D3E90065AE420DD00131042903F1B9
:101320000403EED10132042A04F11004E7D1FFF7DF
:1013300023FE012070BD0020FCE71846FAE70000FC
:1013400038B50C4C0C4BB3FBF1F12368481E49082F
:10135000D86215469963E0600421204605F036F80E
:10136000284607F021FA20460421BDE8384005F060
:101370006FB800BF403D012040420F0070B50C4DDA
:1013800006460FCD86B001AC0FC42B68236001ADBB
:10139000002455F8241078223046FFF7D1FF01349D
:1013A000322007F001FA052CF3D106B070BD00BF62
:1013B0008C6402082DE9F84F044600F68C65D0F8DD
:1013C000C83D834A0A21284613F0B8FCC4F80C5CD7
:1013D00004F6C43011F0BAF97E4B7D4A1B6804F55F
:1013E0006A650A21284613F0A9FCC4F8585C04F584
:1013F000416011F0ABF904F6845A04F6CC59002789
:101400004D46D3464FF000085BF8043FC3B9724A1B
:101410000621284613F092FCDBF80000FFF75EFD82
:1014200008EB0703013B06460E2B0FD8DFE803F05D
:101430002A35404B56616C77828D98A3AEB9C400B3
:10144000634A0621284613F079FCE5E704F20470AC
:10145000C4F84C5711F07AF9C4F8986404F58E601A
:1014600008F1010811F072F9B8F1040F05F10C054B
:10147000CAD10437102F0AF1100A09F13009BFD17F
:10148000BDE8F88F04F5EA60C4F8985711F05EF9EA
:10149000C4F8C46404F29C40E2E704F29C70C4F80F
:1014A000E45711F053F9C4F8F06404F59960D7E7F4
:1014B00004F5FD60C4F8305811F048F9C4F81C6513
:1014C00004F2F440CCE704F63400C4F87C5811F080
:1014D0003DF9C4F8486504F5A460C1E704F5086067
:1014E000C4F8C85811F032F9C4F8746504F24C50CD
:1014F000B6E704F6CC00C4F8145911F027F9C4F883
:10150000A06504F5AF60ABE704F61810C4F86059A5
:1015100011F01CF9C4F8CC6504F2A450A0E704F65D
:101520006410C4F8AC5911F011F9C4F80C6304F557
:10153000397095E704F51B60C4F8F85911F006F905
:10154000C4F8006704F5DB608AE704F6FC10C4F811
:10155000445A11F0FBF8C4F8F86504F5BA607FE767
:1015600004F64820C4F8905A11F0F0F8C4F8246644
:1015700004F2FC5074E704F69420C4F8DC5A11F02D
:10158000E5F8C4F8506604F5C56069E704F52E6017
:10159000C4F8285B11F0DAF8C4F87C6604F25460F1
:1015A0005EE704F62C30C4F8745B11F0CFF8C4F891
:1015B000A86604F5D06053E704F67830C4F8C05B41
:1015C00011F0C4F8C4F8D46604F2AC6048E700BF78
:1015D000E0640208C03E01201578020810B54022E0
:1015E0000446002100F6885023F021FE0023C4F8B1
:1015F000C83D84F8413D04F61C5011F0A7F8204680
:10160000FFF7E8FC082007F0CFF82046FFF7E2FCE0
:101610002046BDE81040FFF7CDBE10B5044600F0EF
:1016200099F92046FFF7CAFCBDE81040FFF7D6BF86
:1016300010B5134BD0F8C82D196804468A42C8BFAC
:101640001A60FFF799FC64224FF416712046FFF7E9
:1016500077FE1E2007F0A8F864224FF44871204658
:10166000FFF76EFE1E2007F09FF8204696224FF4EB
:101670007A71FFF765FE2046BDE81040FFF7AEBF68
:10168000C03E012037B5274D0446286809F052F8BE
:1016900010B34FF0FF3300220DF10701286809F065
:1016A00019F89DF807304C2B2DD017D8442B23D098
:1016B0002046FFF78FFC2046FFF77CFE2046FFF711
:1016C0000BFE48B1012304F61C5084F8413D11F093
:1016D0003DF82046FFF752FE03B030BD522B19D023
:1016E000552BE5D12046FFF7B5FC32224FF4487167
:1016F0002046FFF725FEDBE72046FFF7F7FC322206
:101700004FF42F71F4E72046FFF73CFD32224FF4EF
:101710001671EDE72046FFF78BFD32224FF4FA7188
:10172000E6E700BF083F0120704704387047704764
:1017300010B51021044622F073FC204610BDA0F124
:101740000400F5E710B500228260044AC16002F18E
:10175000080420320460426010BD00BF206502080A
:10176000704704387047704710B51021044622F0C6
:1017700057FC204610BDA0F10400F5E710B500228B
:101780008260044AC16002F10804203204604260B1
:1017900010BD00BF486502087047704710B5034B85
:1017A0000360044601F046F9204610BD7865020842
:1017B00010B50446FFF7F2FF2046F02122F030FC7E
:1017C000204610BD10B5044601F0BCF9014B236062
:1017D000204610BD7865020801F02DB90022026094
:1017E00070477047704700F598730868496803C3ED
:1017F0007047704701F0A2BA10B54FF4AE710446BD
:1018000022F00EFC204610BD10B50446D0F8580159
:10181000FFF7E7FF2046BDE810400FF067BE10B5A8
:101820000446D0F8400158B10368DB68984738B1E6
:10183000D4F8400103689B6898470023C4F84031FE
:1018400010BD000010B5044601F03CFA014B2360C6
:10185000204610BDAC65020890F8252012B103683F
:101860005B69184770470020704781807047C180CE
:1018700070470181704741817047704770477047DA
:1018800070477047C38810B4D21A83885DF8044B40
:10189000C91A036812B25B6D09B218474FF6FF739D
:1018A00083814FF0FF3303621368C3611060704798
:1018B00090F825201AB190F8242002B118607047E2
:1018C000806A704770477047704730B585B00368CD
:1018D00001816D4601460446D3F884302846984776
:1018E00095E807003C3484E8070005B030BD30B50A
:1018F00085B0036841816D4601460446D3F88430C3
:101900002846984795E807003C3484E8070005B06E
:1019100030BD0022028042808280C280704780F801
:101920003610704770B5036804461B6B1546984720
:101930002368294620465B6EBDE8704018470020AA
:10194000704708B5FFF788FF08BD806C7047704787
:101950007047704770470368DB6A184790F82C306F
:101960002BB1C26EC26523B1436F03667047826EAE
:10197000F8E7036FF9E770477047704730B4C56800
:1019800044686A100346ED0704EB02009B6848BFF9
:10199000A25830BC48BFD358184743682BB183685E
:1019A0002BB9C06800F0010070471846704701204D
:1019B000704790F82D3080F85A30704710B50821E4
:1019C000044622F02DFB204610BD10B578210446B8
:1019D00022F026FB204610BD10B54C21044622F013
:1019E0001FFB204610BD10B51021044622F018FB45
:1019F000204610BD10B540F68851044622F010FB79
:101A0000204610BD70B503685E6B124B1B68044620
:101A10008DB22BB9104B114A6C21114823F08CFB6D
:101A20001049828D0988914203D80F4B0B4A6D21D2
:101A3000F3E713F812200D4B1B6853F822000368DC
:101A40001B6B9847291A3346204609B2BDE87040FF
:101A5000184700BFE83101204F6702084C680208B0
:101A600091670208EC310120D2670208F0310120B1
:101A700010B50446006B50B10368DB68984730B17D
:101A8000206B036821469B68BDE81040184710BDD5
:101A900070B50B7990F82C5004460E4653B955B1E9
:101AA0003379012B17D123682046D3F88830BDE85D
:101AB000704018477DB1B3FA83F35B0984F82C308A
:101AC00023682046D3F88C309847236820465B690A
:101AD0009847002DE4D170BD00F1C403994270B560
:101AE00004460D4603D10FF07FFC01F027F904F600
:101AF0005C439D4205D1236820461B6BBDE87040C6
:101B0000184770BD0A4A026000228280C2800281AA
:101B100042818281C28102824282C0E90522C26181
:101B20000284428480F82420012280F82520704716
:101B3000EC7C020870B5036804461B6B1546984799
:101B40002368294620465B6BBDE87040184770B596
:101B500004461E46BDF91050FFF7ECFF23683146DE
:101B600020469A6B9047236829462046DB6BBDE8E8
:101B70007040184710B50446FFF7C4FF024B2360BE
:101B80000023A362204610BDC478020810B52622A7
:101B90000446002123F04BFB2046FFF7B3FF044B24
:101BA0002360FF2384F826300023A362204610BD63
:101BB000447B020800224FF6FF7102804280818040
:101BC000C1808260704710B50446FFF7F3FF2046DE
:101BD00010BD000010B500210446262223F027FB8B
:101BE0002046FFF78FFF0B4B23600B4BA3624FF692
:101BF000FF73A3854FF47F020023C4E90C3284F8FD
:101C0000383084F8393004F13C00FFF7D3FF204628
:101C100010BD00BFB47A02080066020810B5044681
:101C2000FFF7D8FF024B23600023A364204610BDBA
:101C30001066020870B50446FFF79CFFFF23264696
:101C400084F82D300123002584F824300E4B84F8CD
:101C50002C50256346F8343B3046FFF797FF0B4B7B
:101C600063632A46294630462566A4F86450C4E9D1
:101C70001A55C4E91C55FFF75DFF2046314609F0AF
:101C800013FB204670BD00BFA0660208AC7B0208B3
:101C90002DE9F04F0446F5B0A046002711F0A0FB57
:101CA000DB4BE76348F8403B4046FFF76FFF04F12A
:101CB0006C0318461793FFF769FF04F1980304F1CA
:101CC000C409184604F59E751893FFF75FFF484650
:101CD000FFF7B0FF2846FFF77DFF04F5C2731846F3
:101CE0001993FFF747FF04F5D87318461A93FFF7C7
:101CF00041FF04F5EE7318461B93FFF73BFF04F515
:101D0000027318461C93FFF735FF04F50D73184650
:101D10001D93FFF72FFF04F5187318461E93FFF766
:101D200029FF04F5237318461F93FFF723FF04F5DB
:101D30002E7318462093FFF71DFF04F539731846DC
:101D40002193FFF723FF04F5447318462293FFF70E
:101D500011FF04F54F7318462393FFF70BFF04F5AB
:101D60005A7318462493FFF705FF04F56573184668
:101D70002593FFF7FFFE04F5707318462693FFF7CF
:101D8000F9FE04F57B7318462793FFF7F3FE04F57D
:101D9000836318462893FFF7EDFE04F24443184688
:101DA0002993FFF7E7FE04F58E6318462A93FFF7A1
:101DB000EDFE04F29C4318462B93FFF7E7FE04F573
:101DC000996318462C93FFF7E1FE04F2F44318469A
:101DD0002D93FFF7DBFE04F5A46318462E93FFF75F
:101DE000D5FE04F24C5318462F93FFF7CFFE04F5AF
:101DF000AF6318463093FFF7C9FE04F2A4531846A8
:101E00003193FFF7C3FE04F5BA6318463293FFF728
:101E1000BDFE04F2FC5318463393FFF7B7FE04F5FA
:101E2000C56318463493FFF7B1FE04F254631846B5
:101E30003593FFF7ABFE04F5D06318463693FFF7F2
:101E4000A5FE04F2AC6304F5DB6A18463793FFF78E
:101E50009DFE5046FFF79AFE04F204731846049361
:101E6000FFF7DCFE04F5EA6318460593FFF7D6FE9C
:101E700004F29C7318460693FFF7D0FE04F5FD6349
:101E800018460793FFF7CAFE04F634031846089372
:101E9000FFF7C4FE04F5086318460993FFF7BEFE7A
:101EA00004F6CC0318460A93FFF7B8FE04F618139D
:101EB00018460B93FFF7B2FE04F6641318460C9312
:101EC000FFF7ACFE04F51B6318460D93FFF7A6FE63
:101ED00004F6FC1318460E93FFF7A0FE04F6482301
:101EE00018460F93FFF79AFE04F6942318461093B2
:101EF000FFF794FE04F52E6318461193FFF78EFE4C
:101F000004F62C3318461293FFF788FE04F6783354
:101F100018461393FFF782FE04F6C4331846149351
:101F2000FFF77CFE04F5416318461593FFF776FE34
:101F300004F65C4318461693FFF77CFE04F6D44380
:101F400018460293FFF746FE04F61C531846039307
:101F5000FFF740FE2F4BC4F8783D2F4BC4F8803D6F
:101F60004FF4A073261D4FF07F4B3A464046009336
:101F70003946F023C4F87C4DC4F8847DFFF7E7FDB3
:101F800041463046C4F868B009F08EF94FF4A073AA
:101F90003A4600933946F0231798FFF7D8FD1F4BB8
:101FA000C4F894301799304609F07EF9DC235022AA
:101FB00000930A211898FFF7CAFD194BC4F8C030E6
:101FC0004FF021081899304609F06EF93A46394623
:101FD000CDF80080382304F1F800FFF7B8FD4FF08A
:101FE0000503A4F828310F4BC4F82C3103F54C53EA
:101FF0003333C4F83031A3F5CC43663BC4F83431F5
:1020000003F1331303F54C534846C4F838310BE061
:10201000186802083C670208D91A0008DFED64FF5F
:10202000EEEEEEFF996600FFFFF798FC04F678539A
:10203000082248461793C4F8F430CDF800803823BE
:102040000C21FFF784FD4946304609F02DF90DF1CA
:10205000E0080E2228461221FFF76CFD2946404673
:10206000C4F86CB1A4F870710CF090F898E807000F
:1020700004F5BC73DFF8B889CDF8C48183E80700A4
:102080001523284671A9ADF8C8310CF019FB294673
:102090003046322509F008F92B4654220E211998B2
:1020A0000095FFF754FD1999304609F0FDF82B46CD
:1020B0008A220E211A980095FFF749FD1A99304699
:1020C00009F0F2F82B468A2244211B980095FFF76D
:1020D0003EFD1B99304609F0E7F82B468A227A210B
:1020E0001C980095FFF733FD1C99304609F0DCF889
:1020F0002B468A22B0211D980095FFF728FD1D99D7
:10210000304609F0D1F82B46C0220E211E980095CA
:10211000FFF71DFD1E99304609F0C6F82B46C02278
:1021200044211F980095FFF712FD1F99304609F0D2
:10213000BBF82B46C0227A2120980095FFF707FDB7
:10214000209930464FF0FF3909F0AEF82B46C022F7
:102150000E2121980095FFF7FAFCC4F80C93219901
:10216000304609F0A1F82B46C022B02122980095F4
:10217000FFF7EDFC2299304609F096F82B46F6223F
:102180000E2123980095FFF7E2FC2399304609F0D1
:102190008BF82B46F622442124980095FFF7D7FCB4
:1021A0002499304609F080F82B46F6227A212598AA
:1021B0000095FFF7CCFC2599304609F075F82B46C1
:1021C000F622B02126980095FFF7C1FC26993046EB
:1021D00009F06AF82B465422442127980095FFF70E
:1021E000B6FC2799304609F05FF82B4654227A2135
:1021F00028980095FFF7ABFC2899304609F054F871
:102200002B465422B02129980095FFF7A0FC29996C
:10221000304609F049F82B4654220E212A980095A1
:10222000FFF795FCC4F898942A99304609F03CF8D9
:102230002B46542244212B980095FFF788FCC4F8C4
:10224000C4942B99304609F02FF82B4654227A215A
:102250002C980095FFF77BFCC4F8F0942C9930463D
:1022600009F022F82B465422B0212D980095FFF753
:102270006EFCC4F81C952D99304609F015F82B46D4
:102280008A220E212E980095FFF761FCC4F848952C
:102290002E99304609F008F82B468A2244212F98BF
:1022A0000095FFF754FCC4F874952F99304608F058
:1022B000FBFF2B468A227A2130980095FFF747FCD6
:1022C000C4F8A0953099304608F0EEFF2B468A22DC
:1022D000B02131980095FFF73AFCC4F8CC953199BC
:1022E000304608F0E1FF2B46C0227A213298009553
:1022F000FFF72DFCC4F8F8953299304608F0D4FF6A
:102300002B46C022B02133980095FFF720FCC4F87B
:1023100024963399304608F0C7FF2B46F6220E214B
:1023200034980095FFF713FCC4F850963499304662
:1023300008F0BAFF2B46F622442135980095FFF7A6
:1023400006FCC4F87C963599304608F0ADFF2B4664
:10235000F6227A2136980095FFF7F9FBC4F8A89683
:102360003699304608F0A0FF2B46F622B021379868
:102370000095FFF7ECFBC4F8D4963799304608F087
:1023800093FF2B46C022504644210095FFF7DFFB08
:102390005146C4F8009730464FF0190908F084FF01
:1023A0000DF5BE7A2B4660220C210498CDF80090E2
:1023B000FFF7CDFB5046C4F834B7A4F83877FFF7E1
:1023C000F9FB9AE8070004F5E86383E807001423A3
:1023D00071A90498ADF8C831CDF8C4810CF070F93A
:1023E0000499304608F060FF0DF5B87A2B4660225C
:1023F00044210598CDF80090FFF7A9FB5046C4F89A
:1024000080B7A4F88477FFF7D5FB9AE8070004F2B9
:102410008C7383E80700132371A90598ADF8C831C0
:10242000CDF8C4810CF04CF90599304608F03CFF1A
:102430000DF5B27A2B4660227A210698CDF80090ED
:10244000FFF785FB5046C4F8CCB7A4F8D077FFF768
:10245000B1FB9AE8070004F5FB6383E80700122349
:1024600071A90698ADF8C831CDF8C4810CF028F9EF
:102470000699304608F018FF0DF5AC7A2B4660221D
:10248000B0210798CDF80090FFF761FB5046C4F8E3
:1024900018B8A4F81C78FFF78DFB9AE8070004F63B
:1024A000240383E80700112371A90798ADF8C83108
:1024B000CDF8C4810CF004F90799304608F0F4FE19
:1024C0000DF5A67A2B4696220E210898CDF800909D
:1024D000FFF73DFB5046C4F864B8A4F86878FFF7EE
:1024E00069FB9AE8070004F5076383E807001023F7
:1024F00071A90898ADF8C831CDF8C4810CF0E0F8A6
:102500000899304608F0D0FE0DF5A07A2B469622A9
:1025100044210998CDF80090FFF719FB5046C4F804
:10252000B0B8A4F8B478FFF745FB9AE8070004F6C2
:10253000BC0383E807000F2371A90998ADF8C831DF
:10254000CDF8C4810CF0BCF80999304608F0ACFE17
:102550000DF59A7A2B4696227A210A98CDF80090AA
:10256000FFF7F5FA5046C4F8FCB8A4F80079FFF775
:1025700021FB9AE8070004F6081383E807004FF0F0
:102580000E0371A90A98ADF8C831CDF8C4810CF0DA
:1025900097F80A99304608F087FE0DF5947A2B4695
:1025A0009622B0210B98CDF80090FFF7D0FA504654
:1025B000C4F848B9A4F84C79FFF7FCFA9AE8070088
:1025C00004F6541383E807000D2371A90B98ADF8A6
:1025D000C831CDF8C4810CF073F80B99304608F07F
:1025E00063FE0DF58E7A2B46CC220E210C98CDF889
:1025F0000090FFF7ACFA5046C4F894B9A4F8987963
:10260000FFF7D8FA9AE8070004F51A6383E8070091
:102610004FF00C0371A90C98ADF8C831CDF8C48106
:102620000CF04EF80C99304608F03EFE0DF5887A15
:102630002B46CC2244210D98CDF80090FFF787FA65
:102640005046C4F8E0B9A4F8E479FFF7B3FA9AE881
:10265000070004F6EC1383E807000B2371A90D981B
:10266000ADF8C831CDF8C4810CF02AF80D99304688
:1026700008F01AFE0DF5827A2B46CC227A210E98AC
:10268000CDF80090FFF763FA5046C4F82CBAA4F8CE
:10269000307AFFF78FFA9AE8070004F6382383E8C8
:1026A00007004FF00A0371A90E98ADF8C831CDF8B4
:1026B000C4810CF005F80E99304608F0F5FD0DF1D7
:1026C000F80A2B46CC22B0210F98CDF80090FFF7E6
:1026D0003EFA5046C4F878BAA4F87C7AFFF76AFA52
:1026E0009AE8070004F6842383E80700C64AC74B2C
:1026F00002F54C523332A2F5CC42663A02F1331263
:102700001B6802F54C5204F6645A04922BB9C04B74
:10271000C04A6021C04822F00FFDC04B1B88022B2D
:1027200003D8BF4BBB4A6121F4E7BE4B02211868B6
:1027300000F0C6FEBC4A03460A21504612F0FEFADB
:102740000923C4F890AA71A90F98ADF8C831CDF843
:10275000C4810BF0B5FF0F99304608F0A5FD2B465C
:102760004FF481720E211098CDF80090FFF7EFF929
:10277000C4F8C4BAA4F8C87A71A8FFF71BFA71AA02
:1027800007CA0DF5DC7A04F52D6383E807004FF0E6
:10279000080351461098ADF8BC31CDF8B8810BF064
:1027A0008FFF1099304608F07FFD2B464FF4817261
:1027B00044211198CDF80090FFF7C9F9C4F810BB77
:1027C000A4F8147B5046FFF7F5F99AE8070004F6E1
:1027D0001C330DF5D67A83E807000723514611987C
:1027E000ADF8B031CDF8AC810BF06AFF11993046ED
:1027F00008F05AFD2B464FF481727A211298CDF8D9
:102800000090FFF7A4F9C4F85CBBA4F8607B5046C5
:10281000FFF7D0F99AE8070004F668330DF5D07A8F
:1028200083E80700062351461298ADF8A431CDF88D
:10283000A0810BF045FF1299304608F035FD2B467C
:102840004FF48172B0211398CDF80090FFF77FF913
:10285000C4F8A8BBA4F8AC7B5046FFF7ABF99AE8E4
:10286000070004F6B4330DF5CA7A83E807004FF089
:10287000050351461398ADF89831CDF894810BF0CB
:102880001FFF1399304608F00FFD0C2200927423AD
:102890002A4678211498FFF75AF9C4F8F4BBA4F833
:1028A000F87B5046FFF786F99AE8070062AD04F519
:1028B000406383E80700042329461498ADF88C315F
:1028C000CDF888810BF0FCFE1499304608F0ECFC42
:1028D0000C22009274233E2278211598FFF737F9D5
:1028E000C4F840BCA4F8447C2846FFF763F995E897
:1028F000070004F64C4383E8070003233CA915981E
:10290000ADF8F4302125CDF8F0800BF0D9FE159903
:10291000304608F0C9FC3A463946009504F549604E
:102920005823FFF714F94FF00503A4F8C03C364BC9
:10293000C4F8C43C03F54C533333C4F8C83CA3F586
:10294000CC43663BC4F8CC3C03F1331303F54C5342
:10295000C4F8D03C1698FFF701F8179BC4F88C3CDC
:1029600000955823082216988A21FFF7F0F8169947
:10297000304608F099FC0E2202988F21FFF7DAF812
:1029800038AD4FF0FF33C4F8043D0299A4F8087D38
:1029900028460BF0FBFB95E80700029BCDF8F08082
:1029A0003C3383E8070001233CA90298ADF8F430DA
:1029B0000BF086FE0299304608F076FCA0224946CC
:1029C0000398FFF7B7F8194BC4F84C3D0399A4F8E6
:1029D000507D28460BF0DAFB95E80700039BCDF805
:1029E000F0803C3383E807003CA90398ADF8F4700D
:1029F0000BF066FE304684F8417D039908F054FCE4
:102A0000204675B0BDE8F08F996600FFE8310120DF
:102A10004F6702088768020891670208EC310120BD
:102A2000D2670208F43101204C6702080000EDFF74
:102A30000066020870477047704730B4C568446844
:102A40006A100346ED0704EB02009B6848BFA258DA
:102A500030BC48BFD358184743682BB183682BB9A3
:102A6000C06800F0010070471846704701207047A9
:102A700010B51021044621F0D3FA204610BD10B540
:102A8000F021044621F0CCFA204610BD983088424F
:102A900008B505D10EF0A8FCBDE8084000F05EB90D
:102AA00008BD70B5036804469B6B154698472368BC
:102AB00029462046DB6BBDE870401847F8B51A4B35
:102AC000018F1B888B42064629D9184B1B682BB9EE
:102AD000174B184A18486C2122F02EFB13F81120CE
:102AE000164B1B6853F82250154B186800F0E8FC91
:102AF0002B6807469B6B284698472B6804469B6CBF
:102B00003946284698472B6814FB00F45B6A39461F
:102B100028469847A4B22044A6F84600F8BD0023F2
:102B2000A0F84630FAE700BFEC310120E83101207F
:102B30004F6702080C69020891670208F031012012
:102B4000F43101202DE9F74304462646002510F014
:102B500047FC304BE56346F8403B04F16C083046D7
:102B6000FFF714F804F198074046FFF70FF83846CE
:102B70000CF08EF8284BC4E93834284B2A46C4E9B7
:102B80003A3529463046FEF7D5FF4FF4A07230465D
:102B9000F021FFF786FF04F104094FF07F43A3669D
:102BA0003146484608F080FB2A4629464046FEF753
:102BB000C1FF4FF0FF364FF4A0724046F021FFF7FF
:102BC00070FF41464846C4F8946008F06DFB294602
:102BD0003846D222FEF7AEFF02AA012322F8043DB6
:102BE00069463846ADF800500BF0C7FD1623A4F82F
:102BF000D0303846FFF762FF04F1E0034846C4E9ED
:102C00003566C4F8C030394608F04EFB204603B0A4
:102C1000BDE8F083E0680208C86802088D2A000851
:102C200070477047704741607047704701230372D7
:102C300070477047704710B4C4684168621003461B
:102C4000E40701EB02009B6848BF8A585DF8044B1B
:102C500048BFD358184743682BB183682BB9C06865
:102C600000F001007047184670470120704710B50A
:102C70000C21044621F0D4F9204610BD10B54FF4C4
:102C8000AE71044621F0CCF9204610BD10B51021DC
:102C9000044621F0C5F9204610BD10B50EF0A4FB86
:102CA0000368BDE81040DB6B18470000044B1B684D
:102CB00093F858200AB1D86C00B99868704700BFE3
:102CC00090310120F8B5044617460E460EF04EFC32
:102CD000164BC4F854711C60154B2360154BC4F897
:102CE0004431154BC4F8586100251868C4F83C51AC
:102CF000C4F84051C4F84851C4F84C51C4F850517C
:102D0000036801219B689847284600F09FFBFFF766
:102D1000CDFF19F05EF8FFF7C9FF19F0D5F8FFF7FE
:102D2000C5FF19F0DDF82046F8BD00BFE4310120F1
:102D3000686902085069020890310120064BC0F80A
:102D40004C310023C0F8503100F5A273C0F848019F
:102D5000C0F84031704700BFBD2E0008064BC0F8D8
:102D60004C310023C0F8503100F5A273C0F848017F
:102D7000C0F84031704700BF293000082DE9F04706
:102D800007469068DDF820A0994603681B6A8846CC
:102D900015469847EF2805D8424B434AA32143489C
:102DA00022F0CAF9686803681B6A98470F2803D89D
:102DB0003F4B3D4AA421F2E7E86803681B6A984745
:102DC0000B2803D83B4B384AA521E8E70EF00CFB53
:102DD00004300EF02EFBD9F8000010B10368DB6858
:102DE0009847D9F8000010B103681B689847386805
:102DF00010B103685B699847D8F8000010B1036808
:102E00005B689847386810B103681B689847D8F822
:102E1000000010B103689B689847E86803680021C8
:102E20005B6A9847044620B1002343600372224B3B
:102E30000360A868036800215B6A9847064608B1EA
:102E4000FEF7C0FC6868036800215B6A9847054686
:102E500010B13146FEF792FCC9F80040C8F80050A6
:102E60003E60E5B12B1DCAF80030C5F808A03368F4
:102E7000F5633046DB6898472B6828461B689847FF
:102E80002146304610F058FC236820461B699847BD
:102E9000236820465B6998472846BDE8F0872B46A3
:102EA000E1E700BFD8690208ED6B0208666A020814
:102EB000A76A02084A6B0208BC69020807B5D0F885
:102EC00058310093D0F85421044B00F59E7104480A
:102ED000FFF754FF03B05DF804FB00BFD8310120B9
:102EE000D43101202DE9F04707469068DDF820A095
:102EF000994603681B6A88461546984740F6B363AF
:102F0000984205D8424B434AA321434822F014F982
:102F1000686803681B6A98470F2803D83F4B3D4AEF
:102F2000A421F2E7E86803681B6A98470B2803D8D6
:102F30003B4B384AA521E8E70EF056FA04300EF074
:102F400078FAD9F8000010B10368DB689847D9F81F
:102F5000000010B103681B689847386810B1036817
:102F60005B699847D8F8000010B103685B68984720
:102F7000386810B103681B689847D8F8000010B192
:102F800003689B689847E868036800215B6A984774
:102F9000044620B1002343600372224B0360A868FB
:102FA000036800215B6A9847064608B1FDF782FF77
:102FB0006868036800215B6A9847054610B131468E
:102FC000FEF7C0FBC9F80040C8F800503E60E5B10C
:102FD0002B1DCAF80030C5F808A03368F5633046E9
:102FE000DB6898472B6828461B689847214630467F
:102FF00010F0A2FB236820461B69984723682046EF
:103000005B6998472846BDE8F0872B46E1E700BF9B
:10301000D8690208F16C0208666A0208A76A020809
:103020004A6B0208BC69020807B5D0F85831009312
:10303000D0F85421044B00F59E710448FFF752FF6D
:1030400003B05DF804FB00BFD8310120D43101206A
:10305000704710B52C21044620F0E2FF204610BD39
:1030600030B5184D2C78BFF35B8F14F001048FB08E
:1030700025D1284620F0ABFF08B33F230993124B1C
:103080000893124B07930223CDE905330122042351
:10309000CDE90332282308220D490093CDE90B44E2
:1030A0003B230A94CDE901440A4800F06DF8284614
:1030B00020F099FF084A0949064820F0ACFF05486E
:1030C0000FB030BD9C0300201C8602081086020849
:1030D00024860208A00300200000002051300008D0
:1030E00013B5002249B102AB019203F8052D026825
:1030F000946801AAA04702B010BD0846FBE7C0894A
:103100007047008A7047C088704780887047807A0F
:1031100000F07F007047807AC00970470020704738
:103120009FED010A704700BF00000000406A704731
:10313000806A704710B58A880B884C88C169D20AAA
:1031400043EA044351F82200184410BD10B5C2B13F
:10315000137BB3B1547BD27A240204F4E0641443A9
:10316000026A98B202EB840213888B4202D192F970
:10317000020010BD05D8013880B204320028F3D116
:10318000F7E70020F5E7000030B58BB00446BDF846
:1031900060500895BDF85C5007959DF85050069515
:1031A0009DF84C5005959DF8485004959DF8445065
:1031B00003959DF8405002959DF83C500195BDF84F
:1031C000385000950FF012FF064B2360159BE3610A
:1031D000169B2362199B63621A9BA36220460BB065
:1031E00030BD00BF006E020830B5184D2C78BFF31B
:1031F0005B8F14F001048FB024D1284620F0E7FE45
:1032000000B33F230993124B0893124B07930123FA
:10321000CDE9054304930423CDE902430A23162292
:103220000D490093CDE90B440C230A9401940B48FB
:10323000FFF7AAFF284620F0D6FE094A09490748A9
:1032400020F0E9FE05480FB030BD00BFCC030020E0
:103250000C8602081486020830980208D003002069
:10326000000000205130000810B5002404600C60FC
:1032700014601C6010BD000030B5174D2C78BFF3F2
:103280005B8F14F001048FB023D1284620F09FFEFD
:10329000F8B13F230993114B0893114B11490A943C
:1032A000CDE9064301220423CDE90332142316227B
:1032B0000093CDE90B440594CDE901440A48FFF79A
:1032C00063FF284620F08FFE084A0949064820F08F
:1032D000A2FE05480FB030BDFC030020188602088E
:1032E000208602082C9B0208000400200000002019
:1032F00051300008704710B50421044620F090FEBC
:10330000204610BD012908B508D003D3022909D0F1
:10331000002002E000F012F8006808BD00F00EF88E
:103320004068FAE700F00AF88068F6E7004870475E
:10333000746E0208022070471720704700487047DB
:103340002C04002010B5FFF797FF044C2060FFF716
:1033500087FE6060FFF748FFA06010BD2C040020CE
:1033600000207047002070470EB403B503AB002166
:1033700053F8042B01930FF0BFF802B05DF804EB93
:1033800003B070470CB407B504AB53F8042B01939A
:103390000FF0B2F803B05DF804EB02B07047000024
:1033A00010B5436C044673B3038F2BB9184B194AFD
:1033B000C521194821F0C0FEC38E00EB43035B8C8E
:1033C0000BB310F012FF238F012B03D8134B144AB9
:1033D000CB21EEE7E28E531C9BB2092B194688BF26
:1033E000A3F10A0104EB410140F63F10498C8142F0
:1033F00009D10A2B04EB420228BF002304EB43034C
:10340000508C588451842046BDE8104010F0F0BD27
:103410009C6E0208C96F0208A56E0208E96E0208D8
:10342000F76E020810F0ABBD10B586B002AC84E8B0
:1034300006001A460AAB05930193099B00932146A7
:10344000089B0DF06FFB06B010BD000038B5D8B971
:10345000114B12481B681249BBB11A689C681A4488
:1034600002605A681A440A601C446CB10D4B002279
:103470001A80FFF763FF0546FFF75EFF0A4B1C60EB
:103480000A4B1D600A4B188038BD0A4B03600A4B7B
:103490000B600A4B1C68E8E7380400203C0400205D
:1034A0004004002044040020E8310120F0310120D4
:1034B000EC310120F013040860130408EC13040835
:1034C000044B1B6853F82100034B1B6803EB4000BF
:1034D000704700BF400400203C040020012380F816
:1034E000781080F8793070477047002070470000EE
:1034F0004164034B003118BF01211970704700BFB0
:103500008D310120704700207047836B0BB1084656
:10351000184770474FF6FF707047406803689B6913
:103520001847704770477047704700207047B1F9DF
:103530000430838001207047704780F82610704760
:1035400090F82600704710B50022B1F90840B1F993
:103550000A10028042808480C18010BD0022028057
:1035600042808280C28070470177704780ED080AF0
:10357000704780F82410704780F8251070470120AC
:103580007047983070478C30704784307047000027
:10359000034B902283F85A2383F85823704700BFC7
:1035A00000E100E0094A0A49D3680A48C3F30A0364
:1035B000013B9BB20B801169C1F30A010139018003
:1035C0001364536B43F00103536370470068014079
:1035D0004E0400204C040020014B986A704700BF45
:1035E00084680140024B0122996243F8602C7047C5
:1035F000846801407047704710B52C21044620F0C4
:103600000FFD204610BD10B5BC21044620F008FD7A
:10361000204610BD10B531B90A4B0B4A0B4840F299
:10362000FF2121F089FDC0E90F120032084918BFBF
:1036300001220A7002681946D2F89020BDE81040B5
:10364000104700BF7572020868730208AD72020865
:103650008C31012008B5094B1B888B4203D8084BDD
:103660001B88934205D9074B074A0848A32121F03C
:1036700063FD074B1980074B1A8008BD823101207A
:10368000843101201272020825730208AD7202080B
:10369000883101208A31012070B5044608F0EFF826
:1036A00023689D6E0DF0A0FE01462046A8472368C2
:1036B000054AD3F88C502046AC460023A2F51631BB
:1036C000BDE87040604700BF005802D008F0BEB8A7
:1036D00008F0C8B808F084B808F0F3B910B504468B
:1036E00008F04AFE23682046D3F8BC30BDE81040FD
:1036F000184790F87A301BB1406803681B68184778
:103700001846704710B590F8784090F834100C4B7C
:103710008C421A7809D03AB90A4A0B4914880888A9
:1037200010800C8001221A7010BD002AFCD0054ABE
:1037300005491488088810800C800022F3E700BF38
:10374000863101208231012084310120034B4FF06A
:1037500080629A604FF080729A60704700E100E0EA
:10376000084B4FF08062C3F88820BFF34F8FBFF340
:103770006F8F4FF08072C3F88820BFF34F8FBFF375
:103780006F8F704700E100E070B500238380114D1A
:10379000114B03602A6892F85810064609B1D06CA4
:1037A00000B990680368DB6A98472B68B0FA80F428
:1037B000D86C640928B10368DB6A9847002808BF01
:1037C00001242CB9054B064A06482C2121F0B4FCF3
:1037D000304670BD903101207C700208587102089B
:1037E000EC720208B671020870B5284E3578BFF346
:1037F0005B8F15F0010547D1304620F0E8FB00282B
:1038000042D0234C234B256104F13400C4E9003538
:10381000C4E90255E58425856585A5850FF029FB5A
:1038200004F158000AF0B4FB1B4BA36520461B4B68
:1038300040F8843BFFF7A8FF194BC4F884302433C9
:10384000C4F88C304FF4C803C4E928350023C4F809
:10385000AC30C4F8B030C4F8B430C4F8B830304636
:10386000104BC4F89050A4F89C5084F8A85084F8E9
:10387000A95084F8AA50C4F8983020F0B4FB0A4A42
:103880000A49204620F0C7FB014870BD48040020CB
:1038900050040020F07902089C700208147102089C
:1038A000A47902088479020800000020F535000898
:1038B00038B5184C23685BB3174B184A1B6C11883A
:1038C0008B4216D1164B198804F022FF236893F817
:1038D0006A200025013283F86A2083F87C5000F0CA
:1038E00083FA206808F048FD2846BDE8384000F01B
:1038F000BDBC04F00DFF2468236820461B6A98476E
:10390000012384F87C300020BDE8384000F0D8BCAA
:1039100038BD00BF90310120006801404E040020F6
:103920004C04002003685B6C184701207047036853
:103930009B6A1847FEE7000082B0002301930E4BFC
:103940001A6B42F400021A631A6B02F4000201922D
:10395000019A1A6942F400021A611A6922F40002FB
:103960001A61064B064A1A61064A5A61064B4FF025
:1039700080629A6002B0704700380240C83E012061
:10398000953900083539000800E100E040F2EF30D9
:1039900070470000024B1B68586803685B69184752
:1039A0009031012008B50B280BD8DFE800F0120693
:1039B000100A0A0A0A0808080808012008BD05209C
:1039C000FCE7054B054A06486F2121F0B5FB0020B6
:1039D000F4E70220F2E700BFD0730208A2740208E5
:1039E000EB73020808B50A2809D8DFE800F01006D2
:1039F0000E080808080606060600012008BD054B4B
:103A0000054A0648902121F097FB0020F6E70220A6
:103A1000F4E700BFD0730208EC740208EB730208ED
:103A2000F8B50C46487FFFF7BDFFA77F054638462F
:103A3000FFF7B8FF06463846FFF7D4FFA38A628B2C
:103A4000D21A494B1A64A18A628B521A9A61A18ACE
:103A5000228B521A1A615863A18AE28A42EA014211
:103A60005A642269DA636268DA602268402A70D098
:103A700010D8042A3BD0202A6BD0237F45EA036567
:103A8000394B45F40035DD61617FA27F914267D0FB
:103A9000364A4BE0B2F5807F1BD0B2F5007F23D0D1
:103AA000802AEAD1A068021DDA62227F45EA026517
:103AB00045F40035DD615E6222695A610278EAB13F
:103AC000012A35D02A4B2B4A2B484FF48D7121F017
:103AD00033FB217F294A42EA0162DA61E2681A6215
:103AE0005E6222695A6120E0217F254AF3E7227F46
:103AF00045EA026545F40035DD61F1E7D9694288A0
:103B0000501E21F47F4222F0100242EA0022DA61C4
:103B10000121154BDA6942F02002DA61DA69920676
:103B2000FCD410229A600029B2D0164A1A60F8BD5F
:103B3000DA694088217F22F47F4222F010020138A6
:103B400042F01002FF3942EA002218BF0121DA6177
:103B5000DFE7237F45EA036545F40035024BCBE7F9
:103B600042F20132E2E700BF00B00240012301004F
:103B7000B673020864740208EB7302080A000200BC
:103B8000090002000123020010B5887F0C46FFF7F0
:103B900029FF1C4B5863A18AE28A42EA01425A6417
:103BA0002269DA63628BA18A521A1A642268082A8F
:103BB00016D1A18A628B521A9A61A18A628B521A1B
:103BC0001A615862217F104A42EA0162DA61E268B2
:103BD0001A6222695A612269DA600C4A1A6010BDC1
:103BE0000022D8611A61E1680A0A480902F47842A1
:103BF00000F4FC600243C1F3C4010A439A63044A1F
:103C0000ECE700BF00B00240090001000123020000
:103C100001230300054B0360054B4FF08062C3F89E
:103C20008820BFF34F8FBFF36F8F70471C7402085B
:103C300000E100E010B50446FFF7ECFF20464FF42A
:103C40005A6120F0EDF9204610BD000070B5054620
:103C50002C460A4B0C30002668602E726E7244F8B7
:103C6000203B6022214608F0DDFC05F55A63E66042
:103C70002434A342FBD1284670BD00BF1C74020847
:103C8000034B1A68D207FCD423229A60704700BF06
:103C900000B002407047000030B50F4C2568ED07BA
:103CA000FCD423250904A56041F001010225FF2B66
:103CB00065636164E0630AD00849656241EA0363B1
:103CC000E361074B22626061E060236030BDE56123
:103CD000039BA363034BF8E700B002400900010017
:103CE000010002000100030030B50E4C2568ED070D
:103CF000FCD423251204A56042F001020225FF2B0B
:103D000065636264E063E16008D01B0643F0021360
:103D1000E361054B65626061236030BD034BE36185
:103D20000123F9E700B0024001000200020002FF97
:103D300030B50B4C2568ED07FCD4232512041B0677
:103D4000A56043F40033022542F00102656362641A
:103D5000E063E160E361034B65626061236030BD55
:103D600000B0024001000200012108B5002208460F
:103D700006F099FB0A4B186028B90A4B0A4A282119
:103D80000A4821F0D9F900220421012006F035FC6F
:103D9000074B186018B9074B034A2C21F0E708BD00
:103DA0001005002037750208EB75020880750208BF
:103DB0000C050020A9750208024B4FF0FF3118686E
:103DC00006F0BCBB10050020014B186806F0E2BBF2
:103DD00010050020024B0021186806F0AFBB00BFA1
:103DE00010050020FFF7F0BF0348044900680023D6
:103DF0001A4606F03DBC00BF0C0500200400002060
:103E000013B5084C00231A4601A9206806F062FC8D
:103E10004FF0FF33002201A9206806F05BFC02B0DE
:103E200010BD00BF0C0500207047704770477047F9
:103E3000012070470C2070470C2303FB0100083061
:103E400070470C2303FB01000830704701207047C6
:103E500040F6B460704740F6B46303FB01000830DD
:103E6000704740F6B46303FB01000830704701203F
:103E700070471020704700EB01100830704700EBCE
:103E80000110083070470846FEF758BF10B5034BC5
:103E90000360044607F0F4F9204610BD8C76020852
:103EA00010B50446FFF7F2FF2046142120F0B8F8C1
:103EB000204610BD10B5034B0360044607F0E0F93F
:103EC000204610BD5876020810B50446FFF7F2FFF1
:103ED000204640F6BC6120F0A3F8204610BD00004B
:103EE00010B5034B0360044607F0CAF9204610BD25
:103EF0002476020810B50446FFF7F2FF2046182189
:103F000020F08EF8204610BD10B5084B0360044623
:103F100000F6E860FFF7BAFF04F12C00FFF7CAFFD4
:103F200004F11400FFF7DCFF204610BDC076020844
:103F300010B50446FFF7E8FF204641F25C0120F08F
:103F40006FF8204610BD00002DE9F341FFF7EEF9B0
:103F50000546FFF7EFF9002401462346284622468E
:103F6000009410F091FF284B284A1A602046FFF772
:103F70006DFA274B274A284D9A60284810F0ECFE2E
:103F80002B78BFF35B8FDB0738D4284620F01FF86F
:103F9000002833D0224C234B236004F5706604F1D3
:103FA000140004F12C0804F6E8676060C4F8088087
:103FB000E760266107F066F91B4B6361404607F036
:103FC00061F91A4BE362384607F05CF9184BC4F804
:103FD000E83E04F6FC60FDF701FC224604F6FC61B5
:103FE0003046FDF72FFC3046FEF7A8FE28461FF0AE
:103FF000FAFF104A1049204620F00DF80F4802B091
:10400000BDE8F04100F0FAB8F4310120B8230020F7
:10401000BC23002074150020140500200800002097
:1040200018050020C0760208247602085876020897
:104030008C76020800000020093F0008342300208D
:1040400070470000014800F0E7B800BF34230020AB
:1040500010B5042104461FF0E3FF204610BD10B543
:104060008C2104461FF0DCFF204610BD10B51C213A
:1040700004461FF0D5FF204610BD10B5842104462C
:104080001FF0CEFF204610BD2DE9F041454C464DB6
:10409000464F474B47492B60224628461FF0BBFF3F
:1040A000454EDFF854813846FFF7D0FD224643499C
:1040B00038461FF0B0FF304615F0E2FF2246404977
:1040C00030461FF0A8FF40460EF0EEFB22463D4969
:1040D00040461FF0A0FF22463B493C481FF09BFF93
:1040E0003B483C498166002301220421C0E9017656
:1040F000C560C0E90433C0E90633C0E9083303856D
:1041000080F82A30C3620386C0E90E33C0E9103359
:1041100080F8483080F8492080F84A3080F84B30E9
:10412000C0E91333436580F85830C0E9173343665C
:1041300080F86C3080F86D3080F86E3080F86F3029
:1041400080F87D105021A0F87E101A21A0F8801070
:104150001421A0F882102049204D0860F021298008
:104160001F4D80F8703029801E4D43674FF4A071B9
:1041700029801D4D80F8783029801C4980F87930DD
:104180000B7080F87C301A4B80F87A2080F87B2006
:1041900080F83420036022461649BDE8F0411FF044
:1041A0003ABF00BF000000209015002094150020A9
:1041B000C0770208293E0008BC230020153C0008F7
:1041C0002B3E00082D3E0008F532000808000020B4
:1041D00034230020010000019031012082310120B0
:1041E00088310120843101208A310120863101206B
:1041F000D47602082F3E00087415002010B504463E
:10420000FFF74AFA23680349D3F890302046BDE807
:104210001040184700B004D008B503680446D3F82E
:104220008430984723682046DB6F9847FFF7E8FD06
:10423000236820465B6F9847292000F03FFDFFF779
:10424000DFFD236820465B6F9847F8E7FFF7C4B9A6
:10425000FFF7C8B9FFF73EBAFFF79AB9FFF776BA8A
:10426000FFF77EBAFFF79EB907F0B4BA032821D84A
:10427000DFE800F0020B12190F4B1A68B2FA82F253
:10428000520904210D4803F0B3BA0B4B5A68B2FA35
:1042900082F252090821F5E7074B9A68B2FA82F2D6
:1042A00052091021EEE7044BDA68B2FA82F25209A1
:1042B0002021E7E7704700BF48240020001002409B
:1042C000032821D8DFE800F0020B12190F4B1A68FF
:1042D000003218BF012204210D4803F089BA0B4BAC
:1042E0005A68003218BF01220821F5E7074B9A6887
:1042F000003218BF01221021EEE7044BDA680032C9
:1043000018BF01222021E7E7704700BF48240020A2
:104310000010024003280DD8DFE800F00206080A6A
:104320000421054803F069BA0821FAE71021F8E7EB
:104330002021F6E7704700BF0010024008B50328AF
:1043400011D8DFE800F0020A0C0E0421074803F040
:1043500049FA431E5842584108BD0821F6E710218A
:10436000F4E72021F2E70020F3E700BF001002404D
:1043700070B5084D00240126E0B2FFF7DFFF28B139
:1043800055F82430012B18BF45F824600134052C62
:10439000F2D170BD4824002038B50C4B0C4C18806D
:1043A0000C4B822019806368984740F611039842AD
:1043B0000AD1094D23682C60822098472B688220FF
:1043C000DB689847002038BD0120FCE75824002016
:1043D000240000205A2400205C2400204FF4A07107
:1043E000F020FFF7D9BF0000F7B5394D2B68044620
:1043F0001B698220984780B2208000285AD02B6801
:104400000DF106025B6901A982209847314B1B78A8
:10441000002B57D0BDF8062040F674639A424BD962
:10442000ADF80630BDF806209B1AADF80630BDF891
:1044300006200B23B2FBF3F232B1274B1B889342C9
:104440003CBF03F1FF3292B2BDF8043040F6B83100
:104450008B4295BFC3F57163C3F56D630E330833AB
:10446000ADF80430BDF804100F23B1FBF3F131B106
:104470001A4B1B888B423CBF03F1FF3189B2184EA7
:10448000184D30682F6883B2814288BFCB1AB8B20A
:1044900098BF5B1ABA428CBF101A801A9BB280B2C6
:1044A0000344052BC8BF31603368C8BF2A606380EE
:1044B0002B68A38003B0F0BDB32A9CBFB422ADF833
:1044C0000620AFE7BDF80630A3F5B473ADE700BF33
:1044D0005C2400206C2400205A2400205824002052
:1044E000602400206424002037B568460D46144639
:1044F000FFF77AFFBDF8000030B1BDF802302B6045
:10450000BDF804302360012003B030BD054BD3F863
:10451000882042F47002C3F888204FF000629A604D
:10452000704700BF00ED00E070B588B00023029333
:10453000204B1A6C42F010021A641B6C03F010033B
:104540000293064601A903A8029B01F0E5FB069B26
:104550004BBB01F0C1FB184C184B236040F2E73312
:10456000E360174BB0FBF3F0013800236060204696
:104570002361A360A36101F0BFFD054680B9204619
:1045800001F078FC054658B9362002F081FE0F2E66
:104590000DD82A463146362002F046FE094B1E60F1
:1045A000284608B070BD01F097FB4000D3E7012515
:1045B000F6E700BF00380240F83B01200010004041
:1045C00040420F001C00002007B5064B02A91B68E3
:1045D00021F8020D0122044803F041FA03B05DF80E
:1045E00004FB00BF14000020983C012030B595B0BA
:1045F0003022002108A820F01AFE1422002103A86E
:1046000020F015FE00241E4B01941A6C42F08052DB
:104610001A641B6C03F080530193019B194B0294A5
:104620001A6842F440421A601B6803F44043029344
:104630000122029B4FF48033CDE9082302254FF479
:1046400080030821CDE90E534FF4B473CDE9101364
:1046500008A804231393129501F0C6F800F026FF72
:104660000F23CDE903354FF4A0504FF48053CDE92B
:104670000603052103A8059401F090FA15B030BD9A
:1046800000380240007000402DE980489DB004F0E1
:104690005FF8FFF7ABFF142200210FA820F0C7FD41
:1046A0000024C84B02941A6BC748C84D42F0100250
:1046B0001A631A6B02F010020292029A03941A6BA8
:1046C00042F020021A631A6B02F020020392039A4E
:1046D00004941A6B42F080021A631A6B02F0800293
:1046E0000492049A05941A6B42F004021A631A6B3E
:1046F00002F004020592059A06941A6B42F0010238
:104700001A631A6B02F001020692069A07941A6B5A
:1047100042F002021A631A6B02F002020792079A31
:1047200008941A6B42F040021A631A6B02F04002BE
:104730000892089A09941A6B42F008021A631B6BDC
:1047400003F00803224609933C21099B03F050F82B
:10475000012202219E4803F04BF8224604219C4886
:1047600003F046F822464FF440519A4803F040F8CF
:1047700001263C23CDE90F360FA90323924812935B
:104780000227119402F040FF0FA99148CDE90F765E
:10479000CDE9114402F038FF04230FA98C48CDE97C
:1047A0000F36CDE9114702F02FFF0FA98A48119467
:1047B000CDE90F6402F028FF4FF440530FA985485C
:1047C000CDE90F36CDE9114702F01EFF0FA982484F
:1047D0001194CDE90F6402F017FF8048804B03600D
:1047E00004F024F9DFF81CC27E4B2C62C5E900C33B
:1047F00028464FF48043C5E90434C5E90244C5E9BD
:10480000064402F01BF81021284602F074FC2146F1
:10481000284602F092FC744DDFF8ECE1AC624FF4F4
:104820008273C5E900E34FF400781823C5E90683D5
:1048300028460A23C5E90244C5E90444C5E90844F9
:10484000EB6203F0ADF88F232246394660488DF8BD
:104850002C308DF83C4002F0CBFF32464FF47A7397
:104860000BA9284603F0FBF84FF47A7332460FA9E0
:10487000284603F0A6FA3246394655485B4D02F009
:10488000B7FF9DF83C30D32B04BF594B1E70594BDA
:104890000126C5E900364FF0100940230024C5E980
:1048A00004934FF4C073C5E906344FF40063C5E9BF
:1048B00008344FF4005302274FF004084FF0030B65
:1048C000AB620FA907232846CDE90F73CDE9118309
:1048D0004FF0080AC5E90248CDE913B7159700F073
:1048E00021FE4FF6FF720BA92846CDE90CA60B96C8
:1048F0000A940E9400F036FE304603F055FF4FF652
:10490000FF720BA92846CDE90B7ACDE90D6400F0C2
:1049100029FE4FF6FF720BA92846CDE90BBACDE967
:104920000D8400F01FFE4FF40C730A930A9B0E9344
:104930004FF6FF720BA92846CDE90B8A0D9600F0C1
:1049400011FE40F26A51284600F02AFE3422214628
:104950000FA820F06CFC284D284B2C61C5E90034D1
:104960000923C5E905361D23C5E9073B40F20D12B1
:1049700040F24313C5E9092340F2171140F24713EF
:10498000C5E90B13C5E90244AC8685F836402846D4
:1049900003F0B8FDFF21F022CDE914144FF0050A11
:1049A0004FF480614FF4A073CDE91024CDE9161ABD
:1049B000CDE918420FA922462846CDE91237104DFD
:1049C0001A9323E00038024000100240443C0120CA
:1049D00000080240000C024000000240383D012067
:1049E00000300240A0860100983C01200C3F0120CD
:1049F0006C240020400100A0883D01200068014097
:104A000068240020005C0040005001400F94ADF885
:104A10006C408DF86E4003F052FE594B2B601B68C2
:104A2000DFF8A8B198472B68564DDB689847564B7E
:104A3000C5E90A47C5E90C442846C5E90034C5E97B
:104A4000027402F0D7FC3146284602F093FD4A4634
:104A500021460FA820F0EBFB4C4D4D48EE614FF482
:104A60008033C5E90003284601936E61AC602C6178
:104A70002C7685F82040EC62C5F828B0EC6085F80B
:104A8000304003F043FA0D220FA92846CDE90F2646
:104A9000404D119403F0D0FB21464A460FA820F068
:104AA000C6FB019B3C4A2A602846C5E90134EE61F9
:104AB0006E612C612C7685F82040C5E90AB4EC6063
:104AC00085F8304003F022FA0FA92846CDE90FA659
:104AD000324D119403F0B0FB3148324E04614FF473
:104AE000E133C0E900530C232F4DC461C0E9053404
:104AF000C0E9024402F07EFA1C2221460FA8CDE94B
:104B00000B4420F094FB5923C5E90063284640F686
:104B1000E103C5E90334AC60AC6101F019FB0BA9FA
:104B20002846CDE90B4402F029FB602342460FA939
:104B30002846CDE90F341194139401F06BFB2846FD
:104B400000F0E4FB03F083FF03F080FF05F02AFC94
:104B5000164A3946484605F050FD154B154A18606F
:104B60002146154805F04AFC144B154A18602146A9
:104B7000144805F043FC144B186005F025FCFEE7D3
:104B80004C000020C83E012000B00240303E012011
:104B900000200140F03C01200021014000100140B4
:104BA000783E012000040040403D01203C7802088E
:104BB000083F012018780208AD4D0008403C012054
:104BC000E87702085D8A0008C43E01200100000F5A
:104BD0007047704710B586B006AC074B04F8012D3E
:104BE0001B68029301230A46CDE9004301460348AE
:104BF00001F0D4FE06B010BD10000020443C01209E
:104C00007FB506AA002302F8013D084B1B680293FA
:104C10000123CDE900230A460146054801F052FF71
:104C20009DF8170007B05DF804FB00BF10000020DE
:104C3000443C01201FB5084C24680092CDE90134A2
:104C40000A4601230146054801F03CFF003018BF29
:104C5000012004B010BD00BF10000020443C012022
:104C600003F0A2BD10B5064C00222046042102F03C
:104C7000BFFD204601220421BDE8104002F0B8BD6E
:104C80000008024038B50B4C054601224FF4005194
:104C9000094802F0ADFD00220421204602F0A8FDE3
:104CA0002846FFF791FC204601220421BDE8384048
:104CB00002F09EBD00080240000C024038B50B4CCB
:104CC000054600224FF40051094802F091FD0022F0
:104CD0000421204602F08CFD2846FFF775FC204693
:104CE00001220421BDE8384002F082BD00080240E4
:104CF000000C0240F7B5144C144D07460E462046F2
:104D00000022042102F074FD00224FF400512846D5
:104D100002F06EFD3846FFF757FC0D4B0D481B683F
:104D2000324601A903F04DF8284601224FF4005104
:104D3000019E02F05DFD20460122042102F058FD93
:104D4000304603B0F0BD00BF00080240000C024036
:104D500014000020983C012003F026BDA1F2A563B9
:104D60009BB240F25622934206D9B1F57A7F14D312
:104D700040F6B833994212D8A0F2A5639BB240F234
:104D8000562293420DD9B0F57A7F0CD340F6B83352
:104D900098428CBF52200020704755207047442015
:104DA0007047002070474C20704700002DE9F0410B
:104DB000234E244F8AB00025304603F05FF9384671
:104DC00003F05CF90A21304603F0DEF90A21384687
:104DD00003F0DAF9304603F02CFA0446384603F0C3
:104DE00028FAA2B283B21849804602A820F0ECFD4E
:104DF00002A8FBF7EBFF642382B202A9134802F07A
:104E00002AF9A0B21FFA88F1FFF7A8FF04468DF82F
:104E1000070098B1A84207D00D4800231A460DF1AB
:104E20000701006805F024FC9DF80730002B08BF3F
:104E30000024322005F02BFB2546BDE72C46F3E786
:104E4000303E0120F03C01200C780208783E012021
:104E5000083F01200268034B9A4201D103F092BC43
:104E6000704700BF0010004070477047FEE7FEE744
:104E7000FEE7FEE770470000014801F039B800BFC7
:104E8000F83B0120014803F0B9BB00BF883D012079
:104E9000014802F0DFBA00BFC83E012082B00E4BCD
:104EA00000220092596C41F480415964596C01F41C
:104EB0008041009100990192196C41F08051196470
:104EC0001B6C03F080530193019B0F216FF00100D5
:104ED00002B002F0A9B900BF0038024010B5142298
:104EE0008AB0044600210DEB020020F0A0F92368EF
:104EF000214A93421FD1214B2148002101915A6C34
:104F000042F480725A645A6C02F480720192019ADF
:104F100002911A6B42F004021A631B6B03F0040344
:104F200002930821029B0323CDE9051305A902F092
:104F30006BFB0AB010BD134A9342FAD10F4B1248D3
:104F4000002103915A6C42F400725A645A6C02F4C4
:104F500000720392039A04911A6B42F001021A63E1
:104F60001B6B03F001030493049B20220323CDE970
:104F7000052305A9DBE700BF0020014000380240FF
:104F80000008024000210140000002400268094B75
:104F90009A4282B00BD100230193074B1A6B42F463
:104FA00080521A631B6B03F480530193019B02B080
:104FB000704700BF003002400038024007B50F4B79
:104FC00002689A4216D10022A3F5F0430192196BB0
:104FD00041F4000119631B6B03F4000301930521E5
:104FE0005A20019B02F020F95A2003B05DF804EB2F
:104FF00002F04EB903B05DF804FB00BF00B0024000
:105000002DE9F043044689B01422002103A820F0C2
:105010000EF92268244B9A4243D1244C244800259F
:105020000095236B43F004032363236B03F0040315
:105030000093009B0195236B43F001032363236BD3
:1050400003F001030193019B4FF012094FF4007329
:105050004FF001080327042603A9CDE90339CDE960
:105060000587079602F0D0FA4FF4807303A9114820
:105070000796CDE90339CDE9058702F0C5FA029517
:10508000236C43F400032364236C03F400030293B2
:10509000029B236A43F400032362236A23F4000380
:1050A000236209B0BDE8F083005C00400038024094
:1050B0000008024000000240F0B599B004461422F6
:1050C000002107A820F0B3F830220DEB02000021E8
:1050D00020F0ADF822685E4B9A4240F0B78008237A
:1050E0000C93C0231093042312930CA84FF40033A5
:1050F000159303F06DFB08B1FFF7B6FE554B56480C
:10510000002400945A6C42F080625A645A6C02F097
:1051100080620092009A01941A6B42F020021A6396
:105120001A6B02F020020192019A02941A6B42F06B
:1051300001021A631A6B02F001020292029A0394AE
:105140001A6B42F002021A631A6B02F00202039217
:10515000039A04941A6B42F040021A631A6B02F02D
:1051600040020492049A05941A6B42F004021A63F6
:105170001A6B02F004020592059A06941A6B42F02B
:1051800008021A631B6B03F00803069302250E2620
:10519000069B0B964FF4806307A9CDE90735CDE94F
:1051A000094502F031FA41F6580307A92B480B963E
:1051B000CDE907350927CDE9094502F025FA032392
:1051C00007A927480B97CDE90735CDE9094502F036
:1051D0001BFA4FF4706307A921480B96CDE90735F8
:1051E000CDE9094502F010FA4FF40C6307A91D48F8
:1051F0000B96CDE90735CDE9094502F005FAC02344
:1052000007A919480B96CDE90735CDE9094502F004
:10521000FBF9082307A915480B96CDE90735CDE919
:10522000094502F0F1F94FF4A05307A90D480B9777
:10523000CDE90735CDE9094502F0E6F958202246C7
:10524000052101F0F1FF582002F022F819B0F0BD5D
:105250000068014000380240001402400000024093
:10526000000402400018024000080240000C024006
:1052700010B5044688B01422002103A81FF0D7FF00
:105280002268144B9A4223D103F56843002101910F
:105290005A6C114842F480125A645A6C02F480121B
:1052A0000192019A02911A6B42F020021A631B6B61
:1052B00003F020030293029B4FF460720223032148
:1052C000CDE903230523CDE9061303A902F09CF9D8
:1052D00008B010BD00500140001402400268094BA4
:1052E0009A4282B00BD100230193074B1A6C42F013
:1052F00002021A641B6C03F002030193019B02B0CB
:10530000704700BF000400400038024010B504465A
:1053100086B01422002101A81FF089FF22680D4BDE
:105320009A4214D1002300930B4B0C481A6B42F0A5
:1053300001021A631B6B03F001030093009B8022A0
:10534000022301A9CDE90123059302F05DF906B01E
:1053500010BD00BF000400400038024000000240C1
:1053600010B5044688B01422002103A81FF05FFF87
:105370002268144B9A4223D103F594330021019102
:105380005A6C114842F010025A645A6C02F0100232
:105390000192019A02911A6B42F001021A631B6B8F
:1053A00003F001030293029B4FF4C0620223032126
:1053B000CDE903230723CDE9061303A902F024F95D
:1053C00008B010BD00100140000002402DE9F0417E
:1053D00086B01422002101A81FF029FF2B4B1C6866
:1053E000002C4FD14FF00108C3F80080284B0094E7
:1053F0009A6B284842EA08029A639B6B03EA080307
:105400000093022703260C25009B01A94FF63F03BA
:10541000CDE90137CDE9046502F0F6F801A91E488F
:105420000595CDE90187CDE9034602F0EDF848F294
:10543000331301A919480595CDE90137CDE9034694
:1054400002F0E2F84FF6837301A915480595CDE9FE
:105450000137CDE9034602F0D7F84CF2037301A9F6
:1054600010480595CDE90137CDE9034602F0CCF8A7
:10547000602301A90C480595CDE90137CDE9034624
:1054800002F0C2F806B0BDE8F08100BF7024002031
:105490000038024000140240000802400018024098
:1054A00000100240000C02400004024037B5002307
:1054B0000193184B184C1A6C42F080521A641B6C02
:1054C00003F080530193019B144B01221A6003F0F7
:1054D00065F905466368DA030BD5114B0E4C0122C2
:1054E0001A6003F05BF9054663689B030AD5002048
:1054F00006E003F053F9401BB0F57A7FEAD90320A8
:1055000003B030BD03F04AF9401BB0F57A7FEBD908
:10551000F5E700BF003802400070004040000E4236
:1055200044000E4238B50D460446C8B190F82C3000
:1055300003F0FF021BB980F82D20FFF747FF02237D
:1055400084F82C30211D206801F0B0FE62682068CC
:10555000294601F0DFFE012384F82C30002038BDFD
:105560000120FCE770B5054690F82C00C0B2022877
:105570000E4612D000F0FB04012C0FD1022385F857
:105580002C30286801F008FF3368022B06BF052382
:1055900085F82C3085F82C40002070BD0120FCE7F8
:1055A00038B5044690F82C00C0B202280DD094F80B
:1055B0002C50EDB2012D09D1022384F82C30206843
:1055C00001F00EFF84F82C50002038BD0120FCE7CC
:1055D00010B509490C6924F440740C610C6944F459
:1055E00040740C610C6944F001040C610260BFF36B
:1055F0006F8F436010BD00BF003C0240074B1A692B
:1056000022F440721A611A6942F400721A611A692E
:1056100042F001021A610160704700BF003C024085
:10562000074B1A6922F440721A611A6942F48072B7
:105630001A611A6942F001021A610180704700BFC5
:10564000003C0240204BDA68D00606D51F49CA69E3
:1056500042F01002CA611022DA60DA68910606D5BB
:105660001A49CA6942F00802CA612022DA60164B60
:10567000DA68520606D51549CA6942F00402CA61C1
:105680004022DA60DA68100606D51049CA6942F08D
:105690000202CA618022DA600B4BDA68D10507D5B5
:1056A0000A49CA6942F00102CA614FF48072DA60A5
:1056B000DA68920706D50549CA6942F02002CA6134
:1056C0000222DA60704700BF003C0240403F0120E8
:1056D000064B1A69002ABFBF054A5A6002F1883298
:1056E0005A60BABF1869C00F00207047003C0240E2
:1056F00023016745034A136943F000431361002007
:10570000704700BF003C0240F8B5124B124C00221B
:105710000546DA6103F042F826460746E368DA03F5
:105720000CD4E368DB0744BF0123E360F06810F4A6
:10573000F97007D0FFF786FF012003E0691CEDD068
:105740000DB90320F8BD03F029F8C01BA842E5D924
:10575000F7E700BF403F0120003C02402DE9F04147
:105760001F4D98462B7E012B07460E46144635D01A
:1057700001234CF250302B76FFF7C6FFB0B9CFB9FA
:10578000184B1A6922F440721A611A691A611A696F
:10579000E4B242F001021A6134704CF25030FFF76B
:1057A000B3FF104A136923F00103136100232B7622
:1057B000BDE8F081012F04D1A1B23046FFF730FFE0
:1057C000EBE7022F04D121463046FFF717FFE4E74D
:1057D000224643463046FFF7FBFEDEE70220E7E7BE
:1057E000403F0120003C02402DE9F341044608B946
:1057F000012041E00368DD0710D4236898075AD4DC
:1058000023681A0700F19C8023685B0700F1BA80C7
:10581000A069002840F01C8100202DE0A44B9A686C
:1058200002F00C02042A07D09A6802F00C02082A3F
:105830000AD15B68590207D59D4B1B689A03DCD5DA
:105840006368002BD9D1D3E76268994BB2F5803FEA
:1058500015D11A6842F480321A606368F3B102F01D
:105860009DFF934D06462B689B03C6D402F096FF1E
:10587000801B6428F7D9032002B0BDE8F081B2F59F
:10588000A02F1A6803D142F480221A60E1E722F4C3
:1058900080321A601A6822F48022DDE702F07EFF6F
:1058A000834D06462B689F03A7D502F077FF801B28
:1058B0006428F7D9DFE77E4B9A6812F00C0F07D007
:1058C0009A6802F00C02082A11D15B685E020ED4BD
:1058D000774B1A68950702D5E268012A88D11A68C1
:1058E000216922F0F80242EAC1021A6088E7E26800
:1058F000704BB2B101221A6002F050FF6C4D0646A7
:105900002B68980707D52B68226923F0F80343EA30
:10591000C2032B6074E702F041FF801B0228EFD91D
:10592000A9E71A6002F03AFF614D06462B68990715
:105930007FF566AF02F032FF801B0228F6D99AE7A6
:1059400062695D4B7AB101221A6002F027FF584D5F
:1059500006466B6F9F073FF557AF02F01FFF801B96
:105960000228F6D987E71A6002F018FF504D064664
:105970006B6F98077FF548AF02F010FF801B02287D
:10598000F6D978E74A4B1A6C12F080522BD101926B
:105990001A6C42F080521A641B6C03F0805301931E
:1059A000019B0126454D2B68D9051ED5A268404BA9
:1059B000012A2AD11A6F42F001021A67A368002B4C
:1059C00037D002F0EBFE3A4D074641F288382B6F94
:1059D0009B0728D5002E3FF41BAF354A136C23F0EC
:1059E0008053136414E70026DCE72B6843F48073CC
:1059F0002B6002F0D3FE07462B68DA05D6D402F0FE
:105A0000CDFEC01B0228F7D935E7052A1A6F03D14E
:105A100042F004021A67CDE722F001021A671A6FFA
:105A200022F00402C9E702F0B9FEC01B4045CED9FE
:105A300021E702F0B3FE1E4D074641F288382B6F76
:105A40009807C7D502F0AAFEC01B4045F7D912E758
:105A5000174DAB6803F00C03082B46D0184E0023FB
:105A60000228336034D102F099FE07462B68990171
:105A700028D4D4E907321343626A43EA8213E26A04
:105A800043EA0263A26A0A4C5208013A43EA02431B
:105A90006B600123336002F081FE054623689A01A2
:105AA0003FF5BAAE02F07AFE401B0228F6D9E2E6D4
:105AB0000038024000004742800E4742007000401C
:105AC0006000474202F06AFEC01B0228CED9D2E62F
:105AD00002F064FE04462B689B017FF59DAE02F048
